{
  "contractName": "BetManager",
  "abi": [
    {
      "constant": false,
      "inputs": [
        {
          "name": "_reg",
          "type": "address"
        }
      ],
      "name": "setRegistryContract",
      "outputs": [],
      "payable": false,
      "stateMutability": "nonpayable",
      "type": "function"
    },
    {
      "constant": true,
      "inputs": [],
      "name": "getChainId",
      "outputs": [
        {
          "name": "",
          "type": "uint256"
        }
      ],
      "payable": false,
      "stateMutability": "view",
      "type": "function"
    },
    {
      "constant": true,
      "inputs": [],
      "name": "getRegistryContract",
      "outputs": [
        {
          "name": "",
          "type": "address"
        }
      ],
      "payable": false,
      "stateMutability": "view",
      "type": "function"
    },
    {
      "constant": true,
      "inputs": [],
      "name": "ODDS_DECIMALS",
      "outputs": [
        {
          "name": "",
          "type": "uint256"
        }
      ],
      "payable": false,
      "stateMutability": "view",
      "type": "function"
    },
    {
      "constant": false,
      "inputs": [],
      "name": "renounceOwnership",
      "outputs": [],
      "payable": false,
      "stateMutability": "nonpayable",
      "type": "function"
    },
    {
      "constant": true,
      "inputs": [],
      "name": "owner",
      "outputs": [
        {
          "name": "",
          "type": "address"
        }
      ],
      "payable": false,
      "stateMutability": "view",
      "type": "function"
    },
    {
      "constant": false,
      "inputs": [
        {
          "name": "_chainId",
          "type": "uint256"
        }
      ],
      "name": "setChainId",
      "outputs": [],
      "payable": false,
      "stateMutability": "nonpayable",
      "type": "function"
    },
    {
      "constant": false,
      "inputs": [
        {
          "name": "_newOwner",
          "type": "address"
        }
      ],
      "name": "transferOwnership",
      "outputs": [],
      "payable": false,
      "stateMutability": "nonpayable",
      "type": "function"
    },
    {
      "inputs": [
        {
          "name": "_chainId",
          "type": "uint256"
        }
      ],
      "payable": false,
      "stateMutability": "nonpayable",
      "type": "constructor"
    },
    {
      "anonymous": false,
      "inputs": [
        {
          "indexed": true,
          "name": "_hash",
          "type": "bytes32"
        },
        {
          "indexed": true,
          "name": "_backer",
          "type": "address"
        },
        {
          "indexed": true,
          "name": "_layer",
          "type": "address"
        },
        {
          "indexed": false,
          "name": "_subjects",
          "type": "address[3]"
        },
        {
          "indexed": false,
          "name": "_params",
          "type": "uint256[4]"
        },
        {
          "indexed": false,
          "name": "_nonce",
          "type": "uint256"
        },
        {
          "indexed": false,
          "name": "_payload",
          "type": "bytes"
        }
      ],
      "name": "LogBetSubmitted",
      "type": "event"
    },
    {
      "anonymous": false,
      "inputs": [
        {
          "indexed": true,
          "name": "_old",
          "type": "uint256"
        },
        {
          "indexed": true,
          "name": "_new",
          "type": "uint256"
        }
      ],
      "name": "LogChainIdUpdated",
      "type": "event"
    },
    {
      "anonymous": false,
      "inputs": [
        {
          "indexed": true,
          "name": "_old",
          "type": "address"
        },
        {
          "indexed": true,
          "name": "_new",
          "type": "address"
        }
      ],
      "name": "LogRegistryUpdated",
      "type": "event"
    },
    {
      "anonymous": false,
      "inputs": [
        {
          "indexed": true,
          "name": "previousOwner",
          "type": "address"
        }
      ],
      "name": "OwnershipRenounced",
      "type": "event"
    },
    {
      "anonymous": false,
      "inputs": [
        {
          "indexed": true,
          "name": "previousOwner",
          "type": "address"
        },
        {
          "indexed": true,
          "name": "newOwner",
          "type": "address"
        }
      ],
      "name": "OwnershipTransferred",
      "type": "event"
    },
    {
      "constant": false,
      "inputs": [
        {
          "name": "_subjects",
          "type": "address[5]"
        },
        {
          "name": "_params",
          "type": "uint256[4]"
        },
        {
          "name": "_nonce",
          "type": "uint256"
        },
        {
          "name": "_payload",
          "type": "bytes"
        },
        {
          "name": "_signature",
          "type": "bytes"
        }
      ],
      "name": "submitBet",
      "outputs": [],
      "payable": false,
      "stateMutability": "nonpayable",
      "type": "function"
    },
    {
      "constant": false,
      "inputs": [
        {
          "name": "_subjects",
          "type": "address[5]"
        },
        {
          "name": "_params",
          "type": "uint256[4]"
        },
        {
          "name": "_nonce",
          "type": "uint256"
        },
        {
          "name": "_payload",
          "type": "bytes"
        }
      ],
      "name": "claimBet",
      "outputs": [],
      "payable": false,
      "stateMutability": "nonpayable",
      "type": "function"
    },
    {
      "constant": true,
      "inputs": [
        {
          "name": "_subjects",
          "type": "address[5]"
        },
        {
          "name": "_params",
          "type": "uint256[4]"
        },
        {
          "name": "_nonce",
          "type": "uint256"
        },
        {
          "name": "_payload",
          "type": "bytes"
        }
      ],
      "name": "getResult",
      "outputs": [
        {
          "name": "",
          "type": "uint8"
        }
      ],
      "payable": false,
      "stateMutability": "view",
      "type": "function"
    },
    {
      "constant": true,
      "inputs": [
        {
          "name": "_subject",
          "type": "address"
        }
      ],
      "name": "getBetsBySubject",
      "outputs": [
        {
          "name": "",
          "type": "bytes32[]"
        }
      ],
      "payable": false,
      "stateMutability": "view",
      "type": "function"
    }
  ],
  "bytecode": "0x608060405234801561001057600080fd5b50604051602080612406833981016040525160008054600160a060020a031916331790556002556123c0806100466000396000f3006080604052600436106100a05763ffffffff60e060020a600035041663028ebc4481146100a55780633408e470146100c857806336ca3d73146100ef578063429da40a14610120578063715018a6146101355780638da5cb5b1461014a5780639b8394501461015f578063a33a3a3914610195578063c8eca329146101be578063d08913661461022f578063ef0e2ff41461026e578063f2fde38b14610286575b600080fd5b3480156100b157600080fd5b506100c6600160a060020a03600435166102a7565b005b3480156100d457600080fd5b506100dd61037f565b60408051918252519081900360200190f35b3480156100fb57600080fd5b50610104610385565b60408051600160a060020a039092168252519081900360200190f35b34801561012c57600080fd5b506100dd610394565b34801561014157600080fd5b506100c6610399565b34801561015657600080fd5b50610104610405565b34801561016b57600080fd5b506100c6600460a46101243561014435602481810191850135906101643590810190860135610414565b3480156101a157600080fd5b506100c6600460a46101243561014435602481019084013561066c565b3480156101ca57600080fd5b506101df600160a060020a0360043516610673565b60408051602080825283518183015283519192839290830191858101910280838360005b8381101561021b578181015183820152602001610203565b505050509050019250505060405180910390f35b34801561023b57600080fd5b50610258600460a4610124356101443560248101908401356106e0565b6040805160ff9092168252519081900360200190f35b34801561027a57600080fd5b506100c66004356106eb565b34801561029257600080fd5b506100c6600160a060020a036004351661073d565b60008054600160a060020a031633146102bf57600080fd5b600160a060020a038216151561031f576040805160e560020a62461bcd02815260206004820152601d60248201527f526567697374727920616464726573732063616e6e6f74206265203078000000604482015290519081900360640190fd5b5060018054600160a060020a0383811673ffffffffffffffffffffffffffffffffffffffff19831681179093556040519116919082907fac30d8052f0f0b16633b84a524d67bc067dc436c3e98f1c0bf4f6663d102fb6c90600090a35050565b60025490565b600154600160a060020a031690565b600481565b600054600160a060020a031633146103b057600080fd5b60008054604051600160a060020a03909116917ff8df31144d9c2f0f6b59d69b8b98abd5459d07f2742c4df920b25aae33c6482091a26000805473ffffffffffffffffffffffffffffffffffffffff19169055565b600054600160a060020a031681565b61041c612313565b6000610497896005806020026040519081016040528092919082600560200280828437505060408051608081810190925293508d92506004915083908390808284375050604080516020601f8e018190048102820181019092528c815293508c92508b91508190840183828082843750610760945050505050565b91506104a682600254896107e5565b90506104e3828286868080601f01602080910402602001604051908101604052809392919081815260200183838082843750610ce3945050505050565b6104ec82610f62565b6104f58261148e565b6104ff8282611a96565b8160200151600160a060020a03168260000151600160a060020a031682600019167f8dc61913ee8b0c3c30d3073f36ed3d12dcea1dcaa3e9d83d9def86e1a466dbf56060604051908101604052808760400151600160a060020a0316600160a060020a031681526020018760600151600160a060020a0316600160a060020a031681526020018760800151600160a060020a0316600160a060020a03168152506080604051908101604052808860a0015181526020018860c0015181526020018860e0015181526020018861010001518152508c8c8c6040518086600360200280838360005b838110156105fd5781810151838201526020016105e5565b5050505090500185600460200280838360005b83811015610628578181015183820152602001610610565b5050505090500184815260200180602001828103825284848281815260200192508082843760405192018290039850909650505050505050a4505050505050505050565b5050505050565b600160a060020a0381166000908152600560209081526040918290208054835181840281018401909452808452606093928301828280156106d457602002820191906000526020600020905b815481526001909101906020018083116106bf575b50505050509050919050565b600095945050505050565b60008054600160a060020a0316331461070357600080fd5b506002805490829055604051829082907f6e7b1c0fef63382f05aa7c9cbe8f66c67fbb68e0892f8e8347b0ea3ef615850c90600090a35050565b600054600160a060020a0316331461075457600080fd5b61075d81611e1d565b50565b610768612313565b5060408051610140810182528451600160a060020a0390811682526020808701518216818401528684015182168385015260608088015183168185015260809788015190921696830196909652845160a08301529484015160c08201529083015160e0820152919092015161010082015261012081019190915290565b82516020808501516040808701516060880151608089015183516c01000000000000000000000000600160a060020a0398891681028289015295881686026034820152928716850260488401529086168402605c8301529490941690910260708401528051606481850301815260848401825260a087015160c088015160e08901516101008a015160a488019390935260c487019190915260e48601526101048086019190915282518086039091018152610124850183527f42657428000000000000000000000000000000000000000000000000000000006101448601527f61646472657373206261636b65722c00000000000000000000000000000000006101488601527f61646472657373206c617965722c0000000000000000000000000000000000006101578601527f6164647265737320746f6b656e2c0000000000000000000000000000000000006101658601527f61646472657373206c65616775652c00000000000000000000000000000000006101738601527f61646472657373207265736f6c7665722c0000000000000000000000000000006101828601527f75696e74323536206261636b65725374616b652c0000000000000000000000006101938601527f75696e7432353620666978747572652c000000000000000000000000000000006101a78601527f75696e74323536206f6464732c000000000000000000000000000000000000006101b78601527f75696e743235362065787069726174696f6e2c000000000000000000000000006101c48601527f6279746573207061796c6f6164000000000000000000000000000000000000006101d78601527f29000000000000000000000000000000000000000000000000000000000000006101e486015282516101c58187030181526101e590950192839052845160009592949193869392909182918401908083835b60208310610abc5780518252601f199092019160209182019101610a9d565b6001836020036101000a038019825116818451168082178552505050505050905001915050604051809103902083838961012001516040518082805190602001908083835b60208310610b205780518252601f199092019160209182019101610b01565b51815160209384036101000a6000190180199092169116179052604080519290940182900382208282018a8152895191975095509190930192870191508083835b60208310610b805780518252601f199092019160209182019101610b61565b51815160209384036101000a600019018019909216911617905286519190930192860191508083835b60208310610bc85780518252601f199092019160209182019101610ba9565b51815160209384036101000a6000190180199092169116179052920193845250604080518085038152938201908190528351939650945084935085019190508083835b60208310610c2a5780518252601f199092019160209182019101610c0b565b51815160209384036101000a6000190180199092169116179052604080519290940182900382208282018d90528285018c905260608084018290528551808503909101815260809093019485905282519097509195509293508392850191508083835b60208310610cac5780518252601f199092019160209182019101610c8d565b5181516020939093036101000a600019018019909116921691909117905260405192018290039091209a9950505050505050505050565b8260200151600160a060020a031633600160a060020a03161480610d1257506020830151600160a060020a0316155b1515610d8e576040805160e560020a62461bcd02815260206004820152602f60248201527f426574206973206e6f74207065726d697474656420666f7220746865206d736760448201527f2e73656e64657220746f2074616b650000000000000000000000000000000000606482015290519081900360840190fd5b8251600160a060020a031615801590610db157508251600160a060020a03163314155b1515610e2d576040805160e560020a62461bcd02815260206004820152602f60248201527f426574206973206e6f74207065726d697474656420666f7220746865206d736760448201527f2e73656e64657220746f2074616b650000000000000000000000000000000000606482015290519081900360840190fd5b60008281526004602052604090205460ff1680610e58575060008281526003602052604090205460ff165b15610ed3576040805160e560020a62461bcd02815260206004820152602860248201527f42657420776974682073616d652068617368206265656e207375626d6974746560448201527f64206265666f7265000000000000000000000000000000000000000000000000606482015290519081900360840190fd5b610ee282846000015183611e9a565b1515610f5d576040805160e560020a62461bcd028152602060048201526024808201527f54782069732073656e74207769746820616e20696e76616c6964207369676e6160448201527f7475726500000000000000000000000000000000000000000000000000000000606482015290519081900360840190fd5b505050565b600154604080517fbf40fac1000000000000000000000000000000000000000000000000000000008152602060048201819052600860248301527f46616e5661756c7400000000000000000000000000000000000000000000000060448301529151600093600160a060020a03169263bf40fac1926064808201939182900301818787803b158015610ff357600080fd5b505af1158015611007573d6000803e3d6000fd5b505050506040513d602081101561101d57600080fd5b50518251604080517fa389783e000000000000000000000000000000000000000000000000000000008152600160a060020a03928316600482015230602482015290519293509083169163a389783e916044808201926020929091908290030181600087803b15801561108f57600080fd5b505af11580156110a3573d6000803e3d6000fd5b505050506040513d60208110156110b957600080fd5b50511515611137576040805160e560020a62461bcd02815260206004820152603960248201527f4261636b657220686173206e6f7420617070726f766564204265744d616e616760448201527f657220746f206d6f76652066756e647320696e205661756c7400000000000000606482015290519081900360840190fd5b604080517fa389783e0000000000000000000000000000000000000000000000000000000081523360048201523060248201529051600160a060020a0383169163a389783e9160448083019260209291908290030181600087803b15801561119e57600080fd5b505af11580156111b2573d6000803e3d6000fd5b505050506040513d60208110156111c857600080fd5b50511515611246576040805160e560020a62461bcd02815260206004820152603860248201527f4c6179657220686173206e6f7420617070726f766564204265744d616e61676560448201527f7220746f206d6f76652066756e647320696e205661756c740000000000000000606482015290519081900360840190fd5b60a0820151604080840151845182517ff7888aec000000000000000000000000000000000000000000000000000000008152600160a060020a039283166004820152908216602482015291519084169163f7888aec9160448083019260209291908290030181600087803b1580156112bd57600080fd5b505af11580156112d1573d6000803e3d6000fd5b505050506040513d60208110156112e757600080fd5b50511015611365576040805160e560020a62461bcd02815260206004820152602660248201527f4261636b657220646f6573206e6f7420686176652073756666696369656e742060448201527f746f6b656e730000000000000000000000000000000000000000000000000000606482015290519081900360840190fd5b611370826004611ec2565b60408084015160208086015183517ff7888aec000000000000000000000000000000000000000000000000000000008152600160a060020a039384166004820152908316602482015292519185169263f7888aec92604480830193928290030181600087803b1580156113e257600080fd5b505af11580156113f6573d6000803e3d6000fd5b505050506040513d602081101561140c57600080fd5b5051101561148a576040805160e560020a62461bcd02815260206004820152602560248201527f4c6179657220646f6573206e6f7420686176652073756666696369656e74207460448201527f6f6b656e73000000000000000000000000000000000000000000000000000000606482015290519081900360840190fd5b5050565b600154604080517fbf40fac1000000000000000000000000000000000000000000000000000000008152602060048201819052600e60248301527f4c65616775655265676973747279000000000000000000000000000000000000604483015291516000938493600160a060020a039091169263bf40fac1926064808301939282900301818787803b15801561152357600080fd5b505af1158015611537573d6000803e3d6000fd5b505050506040513d602081101561154d57600080fd5b50516060840151604080517f0db76ca5000000000000000000000000000000000000000000000000000000008152600160a060020a0380841660048301529151939550919350841691630db76ca5916024808201926020929091908290030181600087803b1580156115be57600080fd5b505af11580156115d2573d6000803e3d6000fd5b505050506040513d60208110156115e857600080fd5b50511515611666576040805160e560020a62461bcd02815260206004820152602760248201527f4c6561677565206973206e6f742072656769737465726564207769746820466160448201527f6e73556e69746500000000000000000000000000000000000000000000000000606482015290519081900360840190fd5b80600160a060020a031663a782c22984608001516040518263ffffffff1660e060020a0281526004018082600160a060020a0316600160a060020a03168152602001915050602060405180830381600087803b1580156116c557600080fd5b505af11580156116d9573d6000803e3d6000fd5b505050506040513d60208110156116ef57600080fd5b5051151561176d576040805160e560020a62461bcd02815260206004820152602960248201527f5265736f6c766572206973206e6f74207265676973746572656420776974682060448201527f46616e73556e6974650000000000000000000000000000000000000000000000606482015290519081900360840190fd5b80600160a060020a031663e239c9528460c001516040518263ffffffff1660e060020a02815260040180828152602001915050602060405180830381600087803b1580156117ba57600080fd5b505af11580156117ce573d6000803e3d6000fd5b505050506040513d60208110156117e457600080fd5b50511515611861576040805160e560020a62461bcd028152602060048201526024808201527f46697874757265206973206e6f74207363686564756c65642077697468204c6560448201527f6167756500000000000000000000000000000000000000000000000000000000606482015290519081900360840190fd5b80600160a060020a03166342813bcc8460c0015185608001516040518363ffffffff1660e060020a0281526004018083815260200182600160a060020a0316600160a060020a0316815260200192505050602060405180830381600087803b1580156118cc57600080fd5b505af11580156118e0573d6000803e3d6000fd5b505050506040513d60208110156118f657600080fd5b505160ff1660011415611953576040805160e560020a62461bcd02815260206004820152601b60248201527f4669787475726520697320616c7265616479207265736f6c7665640000000000604482015290519081900360640190fd5b60a08301516000106119d5576040805160e560020a62461bcd02815260206004820152602160248201527f5374616b6520646f6573206e6f742062656c6f6e6720746f2073657420e2849d60448201527f2b00000000000000000000000000000000000000000000000000000000000000606482015290519081900360840190fd5b60e0830151600010611a31576040805160e560020a62461bcd02815260206004820181905260248201527f4f64647320646f6573206e6f742062656c6f6e6720746f2073657420e2849d2b604482015290519081900360640190fd5b6101008301514210611a8d576040805160e560020a62461bcd02815260206004820152600f60248201527f4265742068617320657870697265640000000000000000000000000000000000604482015290519081900360640190fd5b610f5d83611efb565b600154604080517fbf40fac1000000000000000000000000000000000000000000000000000000008152602060048201819052600860248301527f46616e5661756c740000000000000000000000000000000000000000000000006044830152915160009384938493600160a060020a039092169263bf40fac192606480820193929182900301818787803b158015611b2e57600080fd5b505af1158015611b42573d6000803e3d6000fd5b505050506040513d6020811015611b5857600080fd5b505160a08601519093509150611b6f856004611ec2565b604080870151875182517f15dacbea000000000000000000000000000000000000000000000000000000008152600160a060020a03928316600482015290821660248201523060448201526064810186905291519293508516916315dacbea916084808201926020929091908290030181600087803b158015611bf157600080fd5b505af1158015611c05573d6000803e3d6000fd5b505050506040513d6020811015611c1b57600080fd5b50511515611c99576040805160e560020a62461bcd02815260206004820152602660248201527f43616e6e6f74207472616e73666572206261636b65722773207374616b65207460448201527f6f20706f6f6c0000000000000000000000000000000000000000000000000000606482015290519081900360840190fd5b60408086015160208088015183517f15dacbea000000000000000000000000000000000000000000000000000000008152600160a060020a0393841660048201529083166024820152306044820152606481018590529251918616926315dacbea92608480830193928290030181600087803b158015611d1857600080fd5b505af1158015611d2c573d6000803e3d6000fd5b505050506040513d6020811015611d4257600080fd5b50511515611dc0576040805160e560020a62461bcd02815260206004820152602560248201527f43616e6e6f74207472616e73666572206c617965722773207374616b6520746f60448201527f20706f6f6c000000000000000000000000000000000000000000000000000000606482015290519081900360840190fd5b5050506000818152600360209081526040808320805460ff191660019081179091559451600160a060020a031683526005825280832080548087018255908452828420018490553383528220805494850181558252902090910155565b600160a060020a0381161515611e3257600080fd5b60008054604051600160a060020a03808516939216917f8be0079c531659141344cd1fd0a4f28419497f9722a3daafe3b4186f6b6457e091a36000805473ffffffffffffffffffffffffffffffffffffffff1916600160a060020a0392909216919091179055565b600082600160a060020a0316611eb08584612067565b600160a060020a031614949350505050565b6000611ef282600a0a611ee68560e001518660a001516122d590919063ffffffff16565b9063ffffffff6122fe16565b90505b92915050565b6000806000806000606086608001519450866060015193508660c00151925084600160a060020a031663943e25a16040518163ffffffff1660e060020a028152600401602060405180830381600087803b158015611f5857600080fd5b505af1158015611f6c573d6000803e3d6000fd5b505050506040513d6020811015611f8257600080fd5b5051610120880151805160408051604481840181019092528481526010810189905260248101889052939550919350918183019160208086019291820190858701015b80841015611fe0578351825260209384019390910190611fc5565b5060208285848d617530fa808015611ffb5783519c50612000565b83519c505b5050505050505085151561205e576040805160e560020a62461bcd02815260206004820152601860248201527f426574207061796c6f6164206973206e6f742076616c69640000000000000000604482015290519081900360640190fd5b50505050505050565b6000806000806000808651604214151561208057600080fd5b86600081518110151561208f57fe5b90602001015160f860020a900460f860020a0260f860020a900460ff1660028111156120b757fe5b94508660018151811015156120c857fe5b01602001516022880151604289015160f860020a9283900483029290920495509350915060018560028111156120fa57fe5b14156121aa57604080517f19457468657265756d205369676e6564204d6573736167653a0a333200000000602080830191909152603c8083018c905283518084039091018152605c90920192839052815191929182918401908083835b602083106121765780518252601f199092019160209182019101612157565b6001836020036101000a03801982511681845116808217855250505050505090500191505060405180910390209050612264565b60028560028111156121b857fe5b141561226457604080517f19457468657265756d205369676e6564204d6573736167653a0a200000000000602080830191909152603b8083018c905283518084039091018152605b90920192839052815191929182918401908083835b602083106122345780518252601f199092019160209182019101612215565b6001836020036101000a038019825116818451168082178552505050505050905001915050604051809103902090505b604080516000808252602080830180855285905260ff8816838501526060830187905260808301869052925160019360a0808501949193601f19840193928390039091019190865af11580156122be573d6000803e3d6000fd5b5050604051601f1901519998505050505050505050565b60008215156122e657506000611ef5565b508181028183828115156122f657fe5b0414611ef557fe5b6000818381151561230b57fe5b049392505050565b610140604051908101604052806000600160a060020a031681526020016000600160a060020a031681526020016000600160a060020a031681526020016000600160a060020a031681526020016000600160a060020a03168152602001600081526020016000815260200160008152602001600081526020016060815250905600a165627a7a7230582063ae60d8825b3c31eb9d06d6a34411b6203101ca903135ced1f0be353fdbdbd30029",
  "source": "pragma solidity ^0.4.24;\n\nimport \"openzeppelin-solidity/contracts/ownership/Ownable.sol\";\nimport \"openzeppelin-solidity/contracts/math/SafeMath.sol\";\nimport \"openzeppelin-solidity/contracts/token/ERC20/ERC20.sol\";\n\nimport \"./interfaces/IBetManager.sol\";\nimport \"./interfaces/ILeague.sol\";\nimport \"./interfaces/ILeagueRegistry.sol\";\nimport \"./interfaces/IRegistry.sol\";\nimport \"./interfaces/IResolver.sol\";\nimport \"./interfaces/IVault.sol\";\n\nimport \"./libraries/BetLib.sol\";\nimport \"./libraries/SignatureLib.sol\";\n\nimport \"./utils/RegistryAccessible.sol\";\nimport \"./utils/ChainSpecifiable.sol\";\n\n/**\n  * @title Bet Manger Contract\n  * @notice BetManager is the core contract responsible for bet validations and bet submissions\n  */\ncontract BetManager is Ownable, IBetManager, RegistryAccessible, ChainSpecifiable {\n\n  using SafeMath for uint;\n\n  // Number of decimal places in BetLib.Odds\n  uint public constant ODDS_DECIMALS = 4;\n\n  // Resolves to `true` if hash is used, `false` otherwise\n  mapping(bytes32 => bool) internal unclaimed;\n  // Resolves to `true` if bet has been claimed, `false` otherwise\n  mapping(bytes32 => bool) internal claimed;\n  // Mapping of user address to array of bet hashes\n  mapping(address => bytes32[]) internal bets;\n\n  // Emit when a Bet has been submitted\n  event LogBetSubmitted(\n    bytes32 indexed _hash,\n    address indexed _backer,\n    address indexed _layer,\n    address[3] _subjects,\n    uint[4] _params,\n    uint _nonce,\n    bytes _payload\n  );\n\n  /**\n   * @notice Constructor\n   * @dev Change chainId in case of a fork, making sure txs cannot be replayed on forked chains\n   * @param _chainId ChainId to be set\n   */\n  constructor(uint _chainId) public ChainSpecifiable(_chainId) {\n\n  }\n\n  /**\n   * @notice Submits a bet\n   * @param _subjects Subjects associated with bet [backer, layer, token, league, resolver]\n   * @param _params Parameters associated with bet [backerStake, fixture, odds, expiration]\n   * @param _nonce Nonce, to ensure hash uniqueness\n   * @param _payload Payload for resolver\n   * @param _signature ECDSA signature along with the mode\n   *  (0 = Typed, 1 = Geth, 2 = Trezor) {mode}{v}{r}{s}.\n   */\n  function submitBet(\n    address[5] _subjects,\n    uint[4] _params,\n    uint _nonce,\n    bytes _payload,\n    bytes _signature\n  )\n    external\n  {\n    BetLib.Bet memory _bet = BetLib.generate(_subjects, _params, _payload);\n    bytes32 _hash = BetLib.hash(_bet, chainId, _nonce);\n\n    _authenticateBet(_bet, _hash, _signature);\n    _authorizeBet(_bet);\n    _validateBet(_bet);\n    _processBet(_bet, _hash);\n\n    emit LogBetSubmitted(\n      _hash,\n      _bet.backer,\n      _bet.layer,\n      [_bet.token, _bet.league, _bet.resolver],\n      [_bet.backerStake, _bet.fixture, _bet.odds, _bet.expiration],\n      _nonce,\n      _payload\n    );\n  }\n\n  /**\n   * @notice Claims a bet, transfers tokens and fees based on fixture resolution\n   * @param _subjects Subjects associated with bet [backer, layer, token, league, resolver]\n   * @param _params Parameters associated with bet [backerStake, fixture, odds, expiration]\n   * @param _nonce Nonce, to ensure hash uniqueness\n   * @param _payload Payload for resolver\n   */\n  function claimBet(address[5] _subjects, uint[4] _params, uint _nonce, bytes _payload) external {\n   // TODO:pre Manan\n  }\n\n  /**\n   * @notice Gets the bet result\n   * @param _subjects Subjects associated with bet [backer, layer, token, league, resolver]\n   * @param _params Parameters associated with bet [backerStake, fixture, odds, expiration]\n   * @param _nonce Nonce, to ensure hash uniqueness\n   * @param _payload Payload for resolver\n   * @return Result of bet (refer to IResolver for specifics of the return type)\n   */\n  function getResult(\n    address[5] _subjects,\n    uint[4] _params,\n    uint _nonce,\n    bytes _payload\n  )\n    external\n    view\n    returns (uint8)\n  {\n    // TODO:pre Manan\n  }\n\n  /**\n   * @notice Gets all the bet identifiers for address `_subject`\n   * @param _subject Address of a layer or backer\n   * @return Returns list of bet ids for backer / layer `_subject`\n   */\n  function getBetsBySubject(address _subject) external view returns (bytes32[]) {\n    return bets[_subject];\n  }\n\n  /**\n   * @dev Throws if any of the following checks fail\n   *  + `msg.sender` is `_bet.layer` || `_bet.layer == 0x00`\n   *  + `msg.sender` is not `_bet.backer`\n   *  + `_bet.backer` has signed `_hash`\n   *  + `_hash` is unique (preventing replay attacks)\n   * @param _bet Bet struct\n   * @param _hash Keccak-256 hash of the bet struct, along with chainId and nonce\n   * @param _signature ECDSA signature along with the mode\n   */\n  function _authenticateBet(BetLib.Bet memory _bet, bytes32 _hash, bytes _signature)\n    internal\n    view\n  {\n    require(\n      msg.sender == _bet.layer || _bet.layer == address(0),\n      \"Bet is not permitted for the msg.sender to take\"\n    );\n    require(\n      _bet.backer != address(0) && _bet.backer != msg.sender,\n      \"Bet is not permitted for the msg.sender to take\"\n    );\n    require(\n      !(claimed[_hash] || unclaimed[_hash]),\n      \"Bet with same hash been submitted before\"\n    );\n    require(\n      SignatureLib.isValidSignature(_hash, _bet.backer, _signature),\n      \"Tx is sent with an invalid signature\"\n    );\n  }\n\n  /**\n   * @dev Throws if any of the following checks fail\n   *  + `address(this)` is an approved spender by both backer and layer\n   *  + `_bet.backer` has appropriate amount staked in vault\n   *  + `_bet.layer` has appropriate amount staked in vault\n   * @param _bet Bet struct\n   */\n  function _authorizeBet(BetLib.Bet memory _bet) internal view {\n    IVault _vault = IVault(registry.getAddress(\"FanVault\"));\n\n    require(\n      _vault.isApproved(_bet.backer, address(this)),\n      \"Backer has not approved BetManager to move funds in Vault\"\n    );\n    require(\n      _vault.isApproved(msg.sender, address(this)),\n      \"Layer has not approved BetManager to move funds in Vault\"\n    );\n    require(\n      _vault.balanceOf(_bet.token, _bet.backer) >= _bet.backerStake,\n      \"Backer does not have sufficient tokens\"\n    );\n    require(\n      _vault.balanceOf(_bet.token, _bet.layer) >= BetLib.backerReturn(_bet, ODDS_DECIMALS),\n      \"Layer does not have sufficient tokens\"\n    );\n  }\n\n  /**\n   * @dev Throws if any of the following checks fail\n   *  + `_bet.league` is a registered league with FansUnite\n   *  + `_bet.resolver` is registered with league\n   *  + `_bet.fixture` is scheduled with league\n   *  + `_bet.resolver` is not resolved for `_bet.fixture`\n   *  + `_bet.backerStake` must belong to set +\n   *  + `_bet.odds` must belong to set +\n   *  + `_bet.expiration` is greater than `now`\n   *  + `_bet.payload` is valid according to resolver\n   * @param _bet Bet struct\n   */\n  function _validateBet(BetLib.Bet memory _bet) internal view {\n    ILeagueRegistry _leagueRegistry = ILeagueRegistry(registry.getAddress(\"LeagueRegistry\"));\n    ILeague _league = ILeague(_bet.league);\n\n    require(\n      _leagueRegistry.isLeagueRegistered(_bet.league),\n      \"League is not registered with FansUnite\"\n    );\n    require(\n      _league.isResolverRegistered(_bet.resolver),\n      \"Resolver is not registered with FansUnite\"\n    );\n    require(\n      _league.isFixtureScheduled(_bet.fixture),\n      \"Fixture is not scheduled with League\"\n    );\n    require(\n      _league.isFixtureResolved(_bet.fixture, _bet.resolver) != 1,\n      \"Fixture is already resolved\"\n    );\n    require(\n      _bet.backerStake > 0,\n      \"Stake does not belong to set +\"\n    );\n    require(\n      _bet.odds > 0,\n      \"Odds does not belong to set +\"\n    );\n    require(\n      _bet.expiration > block.timestamp,\n      \"Bet has expired\"\n    );\n\n    __validatePayload(_bet);\n\n  }\n\n  /**\n   * @dev Processes the funds and stores the bet\n   * @param _bet Bet struct\n   * @param _hash Keccak-256 hash of the bet struct, along with chainId and nonce\n   */\n  function _processBet(BetLib.Bet memory _bet, bytes32 _hash) internal {\n    IVault _vault = IVault(registry.getAddress(\"FanVault\"));\n    uint _backerStake = _bet.backerStake;\n    uint _layerStake = BetLib.backerReturn(_bet, ODDS_DECIMALS);\n\n    require(\n      _vault.transferFrom(_bet.token, _bet.backer, address(this), _backerStake),\n      \"Cannot transfer backer's stake to pool\"\n    );\n\n    require(\n      _vault.transferFrom(_bet.token, _bet.layer, address(this), _layerStake),\n      \"Cannot transfer layer's stake to pool\"\n    );\n\n    unclaimed[_hash] = true;\n\n    bets[_bet.backer].push(_hash);\n    bets[msg.sender].push(_hash);\n  }\n\n  /**\n   * @dev Throws if `_payload` is not valid\n   * @param _bet Bet struct\n   */\n  function __validatePayload(BetLib.Bet memory _bet) private view {\n    bool _isPayloadValid;\n    address _resolver = _bet.resolver;\n    address _league = _bet.league;\n    uint256 _fixture = _bet.fixture;\n    bytes4 _selector = IResolver(_resolver).getValidatorSelector();\n    bytes memory _payload = _bet.payload;\n\n    assembly {\n      let _plen := mload(_payload)               // _plen = length of _payload\n      let _tlen := add(_plen, 0x44)              // _tlen = total length of calldata\n      let _p    := add(_payload, 0x20)           // _p    = encoded bytes of _payload\n\n      let _ptr   := mload(0x40)                  // _ptr   = free memory pointer\n      let _index := mload(0x40)                  // _index = same as _ptr\n      mstore(0x40, add(_ptr, _tlen))             // update free memory pointer\n\n      mstore(_index, _selector)                  // store selector at _index\n      _index := add(_index, 0x04)                // _index = _index + 0x04\n      _index := add(_index, 0x0C)                // _index = _index + 0x0C\n      mstore(_index, _league)                    // store address at _index\n      _index := add(_index, 0x14)                // _index = _index + 0x14\n      mstore(_index, _fixture)                   // store _fixture at _index\n      _index := add(_index, 0x20)                // _index = _index + 0x20\n\n      for\n      { let _end := add(_p, _plen) }             // init: _end = _p + _plen\n      lt(_p, _end)                               // cond: _p < _end\n      { _p := add(_p, 0x20) }                    // incr: _p = _p + 0x20\n      {\n        mstore(_index, mload(_p))                // store _p to _index\n        _index := add(_index, 0x20)              // _index = _index + 0x20\n      }\n\n      let result := staticcall(30000, _resolver, _ptr, _tlen, _ptr, 0x20)\n\n      switch result\n      case 0 {\n        // revert(_ptr, 0x20) dealt with outside of assembly\n        _isPayloadValid := mload(_ptr)\n      }\n      default {\n        _isPayloadValid := mload(_ptr)\n      }\n    }\n\n    require(\n      _isPayloadValid,\n      \"Bet payload is not valid\"\n    );\n  }\n\n}\n",
  "sourcePath": "/Users/ryancimoszko/fu/fansunite-core/contracts/BetManager.sol",
  "compiler": {
    "name": "solc",
    "version": "0.4.24+commit.e67f0147.Emscripten.clang"
  },
  "schemaVersion": "2.0.1",
  "updatedAt": "2018-09-24T20:13:33.974Z"
}