{
  "contractName": "ResolverRegistry",
  "abi": [
    {
      "constant": true,
      "inputs": [
        {
          "name": "",
          "type": "address"
        }
      ],
      "name": "verified",
      "outputs": [
        {
          "name": "",
          "type": "bool"
        }
      ],
      "payable": false,
      "stateMutability": "view",
      "type": "function"
    },
    {
      "constant": true,
      "inputs": [
        {
          "name": "",
          "type": "address"
        }
      ],
      "name": "active",
      "outputs": [
        {
          "name": "",
          "type": "bool"
        }
      ],
      "payable": false,
      "stateMutability": "view",
      "type": "function"
    },
    {
      "constant": false,
      "inputs": [],
      "name": "renounceOwnership",
      "outputs": [],
      "payable": false,
      "stateMutability": "nonpayable",
      "type": "function"
    },
    {
      "constant": true,
      "inputs": [],
      "name": "registry",
      "outputs": [
        {
          "name": "",
          "type": "address"
        }
      ],
      "payable": false,
      "stateMutability": "view",
      "type": "function"
    },
    {
      "constant": true,
      "inputs": [],
      "name": "owner",
      "outputs": [
        {
          "name": "",
          "type": "address"
        }
      ],
      "payable": false,
      "stateMutability": "view",
      "type": "function"
    },
    {
      "constant": true,
      "inputs": [
        {
          "name": "",
          "type": "uint256"
        }
      ],
      "name": "resolvers",
      "outputs": [
        {
          "name": "",
          "type": "address"
        }
      ],
      "payable": false,
      "stateMutability": "view",
      "type": "function"
    },
    {
      "constant": true,
      "inputs": [
        {
          "name": "",
          "type": "address"
        }
      ],
      "name": "registered",
      "outputs": [
        {
          "name": "",
          "type": "bool"
        }
      ],
      "payable": false,
      "stateMutability": "view",
      "type": "function"
    },
    {
      "constant": false,
      "inputs": [
        {
          "name": "_newOwner",
          "type": "address"
        }
      ],
      "name": "transferOwnership",
      "outputs": [],
      "payable": false,
      "stateMutability": "nonpayable",
      "type": "function"
    },
    {
      "inputs": [
        {
          "name": "_registry",
          "type": "address"
        }
      ],
      "payable": false,
      "stateMutability": "nonpayable",
      "type": "constructor"
    },
    {
      "anonymous": false,
      "inputs": [
        {
          "indexed": true,
          "name": "_resolver",
          "type": "address"
        },
        {
          "indexed": true,
          "name": "_securityToken",
          "type": "address"
        }
      ],
      "name": "LogResolverUsed",
      "type": "event"
    },
    {
      "anonymous": false,
      "inputs": [
        {
          "indexed": true,
          "name": "_resolver",
          "type": "address"
        },
        {
          "indexed": true,
          "name": "_owner",
          "type": "address"
        }
      ],
      "name": "LogResolverRegistered",
      "type": "event"
    },
    {
      "anonymous": false,
      "inputs": [
        {
          "indexed": true,
          "name": "_resolver",
          "type": "address"
        },
        {
          "indexed": false,
          "name": "_verified",
          "type": "bool"
        }
      ],
      "name": "LogResolverVerified",
      "type": "event"
    },
    {
      "anonymous": false,
      "inputs": [
        {
          "indexed": true,
          "name": "_resolver",
          "type": "address"
        },
        {
          "indexed": false,
          "name": "_status",
          "type": "bool"
        }
      ],
      "name": "LogResolverStatusChanged",
      "type": "event"
    },
    {
      "anonymous": false,
      "inputs": [
        {
          "indexed": true,
          "name": "previousOwner",
          "type": "address"
        }
      ],
      "name": "OwnershipRenounced",
      "type": "event"
    },
    {
      "anonymous": false,
      "inputs": [
        {
          "indexed": true,
          "name": "previousOwner",
          "type": "address"
        },
        {
          "indexed": true,
          "name": "newOwner",
          "type": "address"
        }
      ],
      "name": "OwnershipTransferred",
      "type": "event"
    },
    {
      "constant": false,
      "inputs": [
        {
          "name": "_resolver",
          "type": "address"
        }
      ],
      "name": "useResolver",
      "outputs": [],
      "payable": false,
      "stateMutability": "nonpayable",
      "type": "function"
    },
    {
      "constant": false,
      "inputs": [
        {
          "name": "_resolver",
          "type": "address"
        }
      ],
      "name": "registerResolver",
      "outputs": [
        {
          "name": "",
          "type": "bool"
        }
      ],
      "payable": false,
      "stateMutability": "nonpayable",
      "type": "function"
    },
    {
      "constant": false,
      "inputs": [
        {
          "name": "_resolver",
          "type": "address"
        },
        {
          "name": "_verified",
          "type": "bool"
        }
      ],
      "name": "verifyResolver",
      "outputs": [
        {
          "name": "",
          "type": "bool"
        }
      ],
      "payable": false,
      "stateMutability": "nonpayable",
      "type": "function"
    },
    {
      "constant": false,
      "inputs": [
        {
          "name": "_resolver",
          "type": "address"
        },
        {
          "name": "_status",
          "type": "bool"
        }
      ],
      "name": "changeResolverStatus",
      "outputs": [
        {
          "name": "",
          "type": "bool"
        }
      ],
      "payable": false,
      "stateMutability": "nonpayable",
      "type": "function"
    }
  ],
  "bytecode": "0x608060405234801561001057600080fd5b50604051602080610a37833981016040525160008054600160a060020a0319908116331790915560018054600160a060020a03909316929091169190911790556109d88061005f6000396000f3006080604052600436106100b95763ffffffff7c01000000000000000000000000000000000000000000000000000000006000350416630db065f481146100be5780634ea71327146100f3578063715018a6146101145780637b1039991461012b5780638da5cb5b1461015c5780639bf73f73146101715780639f3e1b5314610197578063ab791590146101b8578063b158fd5c146101de578063b2dd5c07146101f6578063ded5060d14610217578063f2fde38b14610238575b600080fd5b3480156100ca57600080fd5b506100df600160a060020a0360043516610259565b604080519115158252519081900360200190f35b3480156100ff57600080fd5b506100df600160a060020a036004351661026e565b34801561012057600080fd5b50610129610283565b005b34801561013757600080fd5b506101406102ef565b60408051600160a060020a039092168252519081900360200190f35b34801561016857600080fd5b506101406102fe565b34801561017d57600080fd5b506100df600160a060020a0360043516602435151561030d565b3480156101a357600080fd5b506100df600160a060020a03600435166103ff565b3480156101c457600080fd5b506100df600160a060020a036004351660243515156105db565b3480156101ea57600080fd5b506101406004356106cd565b34801561020257600080fd5b506100df600160a060020a03600435166106f5565b34801561022357600080fd5b50610129600160a060020a036004351661070a565b34801561024457600080fd5b50610129600160a060020a036004351661090c565b60036020526000908152604090205460ff1681565b60046020526000908152604090205460ff1681565b600054600160a060020a0316331461029a57600080fd5b60008054604051600160a060020a03909116917ff8df31144d9c2f0f6b59d69b8b98abd5459d07f2742c4df920b25aae33c6482091a26000805473ffffffffffffffffffffffffffffffffffffffff19169055565b600154600160a060020a031681565b600054600160a060020a031681565b60008054600160a060020a0316331461032557600080fd5b600160a060020a038316600090815260026020526040902054839060ff161515610399576040805160e560020a62461bcd02815260206004820152601d60248201527f5265736f6c7665722073686f756c642062652072656769737465726564000000604482015290519081900360640190fd5b600160a060020a038416600081815260036020908152604091829020805460ff1916871515908117909155825190815291517f5aadfc3420e9c3fa14cd394de6531d608ac1809cb410b6faba6a12c32b6e4bbc9281900390910190a25060019392505050565b600160a060020a038116600090815260026020526040812054819060ff1615610498576040805160e560020a62461bcd02815260206004820152602160248201527f5265736f6c7665722073686f756c64206e6f742062652072656769737465726560448201527f6400000000000000000000000000000000000000000000000000000000000000606482015290519081900360840190fd5b50600160a060020a03821660008181526002602090815260408083208054600160ff19918216811790925560048085528386208054909216831790915560058054928301815585527f036b6384b5eca791c62761152d0c79bb0604c104a5fb6f4eb0703f3154bb3db0909101805473ffffffffffffffffffffffffffffffffffffffff19168617905581517f8da5cb5b0000000000000000000000000000000000000000000000000000000081529151879594638da5cb5b94848401949093908390030190829087803b15801561056e57600080fd5b505af1158015610582573d6000803e3d6000fd5b505050506040513d602081101561059857600080fd5b5051604051600160a060020a03918216918516907f0c02092330d8531ebfa625e49a2b505a2dba0bd0c19ee7fce3bcd3dfce8582eb90600090a350600192915050565b60008054600160a060020a031633146105f357600080fd5b600160a060020a038316600090815260026020526040902054839060ff161515610667576040805160e560020a62461bcd02815260206004820152601d60248201527f5265736f6c7665722073686f756c642062652072656769737465726564000000604482015290519081900360640190fd5b600160a060020a038416600081815260046020908152604091829020805460ff1916871515908117909155825190815291517fd533f17e69058c37c1939533935f7b549afb9575c152afa403dc98063a2e8e799281900390910190a25060019392505050565b60058054829081106106db57fe5b600091825260209091200154600160a060020a0316905081565b60026020526000908152604090205460ff1681565b600160a060020a038116600090815260026020526040902054819060ff16151561077e576040805160e560020a62461bcd02815260206004820152601d60248201527f5265736f6c7665722073686f756c642062652072656769737465726564000000604482015290519081900360640190fd5b600154604080517fbf40fac1000000000000000000000000000000000000000000000000000000008152602060048201819052600e60248301527f4c6561677565526567697374727900000000000000000000000000000000000060448301529151600160a060020a039093169263bf40fac1926064808401939192918290030181600087803b15801561081157600080fd5b505af1158015610825573d6000803e3d6000fd5b505050506040513d602081101561083b57600080fd5b5051604080517f0db76ca50000000000000000000000000000000000000000000000000000000081523360048201529051600160a060020a0390921691630db76ca5916024808201926020929091908290030181600087803b1580156108a057600080fd5b505af11580156108b4573d6000803e3d6000fd5b505050506040513d60208110156108ca57600080fd5b505115610908576040513390600160a060020a038416907f87b01a3871b04da225355bfa1c1544f57847306d3161bd3043cb14abce788b2390600090a35b5050565b600054600160a060020a0316331461092357600080fd5b61092c8161092f565b50565b600160a060020a038116151561094457600080fd5b60008054604051600160a060020a03808516939216917f8be0079c531659141344cd1fd0a4f28419497f9722a3daafe3b4186f6b6457e091a36000805473ffffffffffffffffffffffffffffffffffffffff1916600160a060020a03929092169190911790555600a165627a7a72305820d4f2bd37356b5799a9dacc51545066ca0302e5c3fc0480155c19e4bccac4796f0029",
  "source": "pragma solidity ^0.4.24;\n\nimport \"openzeppelin-solidity/contracts/ownership/Ownable.sol\";\nimport \"./interfaces/IResolverRegistry.sol\";\nimport \"./interfaces/ILeagueRegistry.sol\";\nimport \"./interfaces/IResolver.sol\";\nimport \"./interfaces/IRegistry.sol\";\n\n\n/**\n* @title Resolver Registry Contract\n* @notice Anyone can register Resolvers, but only those \"verified\" by FansUnite will be available for anyone to use\n*/\ncontract ResolverRegistry is Ownable, IResolverRegistry {\n\n  IRegistry public registry;\n\n  mapping (address => bool) public registered;\n  mapping (address => bool) public verified;\n  mapping (address => bool) public active;\n  address[] public resolvers;\n\n  event LogResolverUsed(address indexed _resolver, address indexed _securityToken);\n  event LogResolverRegistered(address indexed _resolver, address indexed _owner);\n  event LogResolverVerified(address indexed _resolver, bool _verified);\n  event LogResolverStatusChanged(address indexed _resolver, bool _status);\n\n  modifier onlyRegistered(address _resolver) {\n    require(registered[_resolver], \"Resolver should be registered\");\n    _;\n  }\n\n  constructor (address _registry) public {\n    registry = IRegistry(_registry);\n  }\n\n  function useResolver(address _resolver) onlyRegistered(_resolver) external {\n    if(ILeagueRegistry(registry.getAddress(\"LeagueRegistry\")).isLeagueRegistered(msg.sender)) {\n      emit LogResolverUsed(_resolver, msg.sender);\n    }\n  }\n\n  function registerResolver(address _resolver) external returns(bool) {\n    require(!registered[_resolver], \"Resolver should not be registered\");\n\n    IResolver resolver = IResolver(_resolver);\n\n    registered[_resolver] = true;\n    active[_resolver] = true;\n    resolvers.push(_resolver);\n\n    emit LogResolverRegistered(_resolver, resolver.owner());\n    return true;\n  }\n\n  function verifyResolver(address _resolver, bool _verified) external onlyOwner onlyRegistered(_resolver) returns(bool) {\n    verified[_resolver] = _verified;\n    emit LogResolverVerified(_resolver, _verified);\n    return true;\n  }\n\n  function changeResolverStatus(address _resolver, bool _status) external onlyOwner onlyRegistered(_resolver) returns(bool) {\n    active[_resolver] = _status;\n    emit LogResolverStatusChanged(_resolver, _status);\n    return true;\n  }\n\n}\n",
  "sourcePath": "/Users/ryancimoszko/sites/fansunite-core/contracts/ResolverRegistry.sol",
  "compiler": {
    "name": "solc",
    "version": "0.4.24+commit.e67f0147.Emscripten.clang"
  },
  "schemaVersion": "2.0.1",
  "updatedAt": "2018-07-20T18:43:15.040Z"
}