{
  "contractName": "Vault",
  "abi": [
    {
      "constant": false,
      "inputs": [
        {
          "name": "_reg",
          "type": "address"
        }
      ],
      "name": "setRegistryContract",
      "outputs": [],
      "payable": false,
      "stateMutability": "nonpayable",
      "type": "function"
    },
    {
      "constant": true,
      "inputs": [],
      "name": "getRegistryContract",
      "outputs": [
        {
          "name": "",
          "type": "address"
        }
      ],
      "payable": false,
      "stateMutability": "view",
      "type": "function"
    },
    {
      "constant": false,
      "inputs": [],
      "name": "renounceOwnership",
      "outputs": [],
      "payable": false,
      "stateMutability": "nonpayable",
      "type": "function"
    },
    {
      "constant": true,
      "inputs": [],
      "name": "ETH",
      "outputs": [
        {
          "name": "",
          "type": "address"
        }
      ],
      "payable": false,
      "stateMutability": "view",
      "type": "function"
    },
    {
      "constant": true,
      "inputs": [],
      "name": "owner",
      "outputs": [
        {
          "name": "",
          "type": "address"
        }
      ],
      "payable": false,
      "stateMutability": "view",
      "type": "function"
    },
    {
      "constant": false,
      "inputs": [
        {
          "name": "_newOwner",
          "type": "address"
        }
      ],
      "name": "transferOwnership",
      "outputs": [],
      "payable": false,
      "stateMutability": "nonpayable",
      "type": "function"
    },
    {
      "anonymous": false,
      "inputs": [
        {
          "indexed": true,
          "name": "_spender",
          "type": "address"
        }
      ],
      "name": "LogSpenderAdded",
      "type": "event"
    },
    {
      "anonymous": false,
      "inputs": [
        {
          "indexed": true,
          "name": "_old",
          "type": "address"
        },
        {
          "indexed": true,
          "name": "_new",
          "type": "address"
        }
      ],
      "name": "LogRegistryUpdated",
      "type": "event"
    },
    {
      "anonymous": false,
      "inputs": [
        {
          "indexed": true,
          "name": "previousOwner",
          "type": "address"
        }
      ],
      "name": "OwnershipRenounced",
      "type": "event"
    },
    {
      "anonymous": false,
      "inputs": [
        {
          "indexed": true,
          "name": "previousOwner",
          "type": "address"
        },
        {
          "indexed": true,
          "name": "newOwner",
          "type": "address"
        }
      ],
      "name": "OwnershipTransferred",
      "type": "event"
    },
    {
      "constant": false,
      "inputs": [
        {
          "name": "_token",
          "type": "address"
        },
        {
          "name": "_amount",
          "type": "uint256"
        }
      ],
      "name": "deposit",
      "outputs": [],
      "payable": true,
      "stateMutability": "payable",
      "type": "function"
    },
    {
      "constant": false,
      "inputs": [
        {
          "name": "_token",
          "type": "address"
        },
        {
          "name": "_amount",
          "type": "uint256"
        }
      ],
      "name": "withdraw",
      "outputs": [],
      "payable": false,
      "stateMutability": "nonpayable",
      "type": "function"
    },
    {
      "constant": false,
      "inputs": [
        {
          "name": "_token",
          "type": "address"
        },
        {
          "name": "_from",
          "type": "address"
        },
        {
          "name": "_to",
          "type": "address"
        },
        {
          "name": "_amount",
          "type": "uint256"
        }
      ],
      "name": "transferFrom",
      "outputs": [
        {
          "name": "",
          "type": "bool"
        }
      ],
      "payable": false,
      "stateMutability": "nonpayable",
      "type": "function"
    },
    {
      "constant": false,
      "inputs": [
        {
          "name": "_spender",
          "type": "address"
        }
      ],
      "name": "approve",
      "outputs": [],
      "payable": false,
      "stateMutability": "nonpayable",
      "type": "function"
    },
    {
      "constant": false,
      "inputs": [
        {
          "name": "_spender",
          "type": "address"
        }
      ],
      "name": "addSpender",
      "outputs": [],
      "payable": false,
      "stateMutability": "nonpayable",
      "type": "function"
    },
    {
      "constant": true,
      "inputs": [
        {
          "name": "_token",
          "type": "address"
        },
        {
          "name": "_user",
          "type": "address"
        }
      ],
      "name": "balanceOf",
      "outputs": [
        {
          "name": "",
          "type": "uint256"
        }
      ],
      "payable": false,
      "stateMutability": "view",
      "type": "function"
    },
    {
      "constant": true,
      "inputs": [
        {
          "name": "_user",
          "type": "address"
        },
        {
          "name": "_spender",
          "type": "address"
        }
      ],
      "name": "isApproved",
      "outputs": [
        {
          "name": "",
          "type": "bool"
        }
      ],
      "payable": false,
      "stateMutability": "view",
      "type": "function"
    },
    {
      "constant": true,
      "inputs": [
        {
          "name": "_spender",
          "type": "address"
        }
      ],
      "name": "isSpender",
      "outputs": [
        {
          "name": "",
          "type": "bool"
        }
      ],
      "payable": false,
      "stateMutability": "view",
      "type": "function"
    }
  ],
  "bytecode": "0x608060405260008054600160a060020a03191633179055610ded806100256000396000f3006080604052600436106100cf5763ffffffff7c0100000000000000000000000000000000000000000000000000000000600035041663028ebc4481146100d457806315dacbea146100f757806336ca3d731461013b57806347e7ef241461016c578063715018a6146101835780638322fff2146101985780638da5cb5b146101ad5780639a206ece146101c2578063a389783e146101e3578063daea85c51461020a578063e7e31e7a1461022b578063f2fde38b1461024c578063f3fef3a31461026d578063f7888aec14610291575b600080fd5b3480156100e057600080fd5b506100f5600160a060020a03600435166102ca565b005b34801561010357600080fd5b50610127600160a060020a03600435811690602435811690604435166064356103a2565b604080519115158252519081900360200190f35b34801561014757600080fd5b50610150610544565b60408051600160a060020a039092168252519081900360200190f35b6100f5600160a060020a0360043516602435610553565b34801561018f57600080fd5b506100f56107bc565b3480156101a457600080fd5b50610150610828565b3480156101b957600080fd5b5061015061082d565b3480156101ce57600080fd5b50610127600160a060020a036004351661083c565b3480156101ef57600080fd5b50610127600160a060020a036004358116906024351661085a565b34801561021657600080fd5b506100f5600160a060020a0360043516610888565b34801561023757600080fd5b506100f5600160a060020a0360043516610951565b34801561025857600080fd5b506100f5600160a060020a0360043516610af7565b34801561027957600080fd5b506100f5600160a060020a0360043516602435610b1a565b34801561029d57600080fd5b506102b8600160a060020a0360043581169060243516610cf4565b60408051918252519081900360200190f35b60008054600160a060020a031633146102e257600080fd5b600160a060020a0382161515610342576040805160e560020a62461bcd02815260206004820152601d60248201527f526567697374727920616464726573732063616e6e6f74206265203078000000604482015290519081900360640190fd5b5060018054600160a060020a0383811673ffffffffffffffffffffffffffffffffffffffff19831681179093556040519116919082907fac30d8052f0f0b16633b84a524d67bc067dc436c3e98f1c0bf4f6663d102fb6c90600090a35050565b600160a060020a0383166000908152600260209081526040808320338452909152812054849060ff161515610447576040805160e560020a62461bcd02815260206004820152602360248201527f55736572206d75737420617070726f76652073656e646572206173207370656e60448201527f6465720000000000000000000000000000000000000000000000000000000000606482015290519081900360840190fd5b6000831161049f576040805160e560020a62461bcd02815260206004820181905260248201527f416d6f756e74206d7573742062652067726561746572207468616e207a65726f604482015290519081900360640190fd5b600160a060020a038087166000908152600360209081526040808320938916835292905220546104d5908463ffffffff610d1f16565b600160a060020a0387811660009081526003602090815260408083208a8516845290915280822093909355908616815220546105119084610d31565b600160a060020a038088166000908152600360209081526040808320938916835292905220556001915050949350505050565b600154600160a060020a031690565b6000600160a060020a0383161561057757341580156105725750600082115b610585565b600034118015610585575081155b1515610627576040805160e560020a62461bcd02815260206004820152605460248201527f4966206465706f736974696e672065746865722c2065746865722073656e742060448201527f6d757374206265206e6f6e2d7a65726f2c206f7468657277697365205f616d6f60648201527f756e74206d757374206265206e6f6e2d7a65726f000000000000000000000000608482015290519081900360a40190fd5b600160a060020a0383161561063c578161063e565b345b600160a060020a0384166000908152600360209081526040808320338452909152902054909150610675908263ffffffff610d3116565b600160a060020a0384166000818152600360209081526040808320338452909152902091909155156107b757604080517f23b872dd000000000000000000000000000000000000000000000000000000008152336004820152306024820152604481018390529051600160a060020a038516916323b872dd9160648083019260209291908290030181600087803b15801561070f57600080fd5b505af1158015610723573d6000803e3d6000fd5b505050506040513d602081101561073957600080fd5b505115156107b7576040805160e560020a62461bcd02815260206004820152603660248201527f5661756c74206d757374206265206120617070726f766564207370656e64657260448201527f20666f7220746f6b656e20746f20776974686472617700000000000000000000606482015290519081900360840190fd5b505050565b600054600160a060020a031633146107d357600080fd5b60008054604051600160a060020a03909116917ff8df31144d9c2f0f6b59d69b8b98abd5459d07f2742c4df920b25aae33c6482091a26000805473ffffffffffffffffffffffffffffffffffffffff19169055565b600081565b600054600160a060020a031681565b600160a060020a031660009081526004602052604090205460ff1690565b600160a060020a03918216600090815260026020908152604080832093909416825291909152205460ff1690565b600160a060020a03811660009081526004602052604090205460ff161515610920576040805160e560020a62461bcd02815260206004820152602560248201527f5370656e646572206d757374206265207265676973746572656420776974682060448201527f5661756c74000000000000000000000000000000000000000000000000000000606482015290519081900360840190fd5b336000908152600260209081526040808320600160a060020a0394909416835292905220805460ff19166001179055565b600054600160a060020a0316331461096857600080fd5b600154604080517fbf40fac1000000000000000000000000000000000000000000000000000000008152602060048201819052600a60248301527f4265744d616e616765720000000000000000000000000000000000000000000060448301529151600160a060020a0380861694169263bf40fac192606480820193918290030181600087803b1580156109fb57600080fd5b505af1158015610a0f573d6000803e3d6000fd5b505050506040513d6020811015610a2557600080fd5b5051600160a060020a031614610aab576040805160e560020a62461bcd02815260206004820152602560248201527f5370656e646572206d75737420626520616e2061637469766520426574204d6160448201527f6e61676572000000000000000000000000000000000000000000000000000000606482015290519081900360840190fd5b600160a060020a038116600081815260046020526040808220805460ff19166001179055517f3e9e267e2e5acc9ced8daa824bf7d331d04a10f26414f3ecddbe10786dc647a29190a250565b600054600160a060020a03163314610b0e57600080fd5b610b1781610d44565b50565b60008111610b72576040805160e560020a62461bcd02815260206004820181905260248201527f416d6f756e74206d7573742062652067726561746572207468616e207a65726f604482015290519081900360640190fd5b600160a060020a0382166000908152600360209081526040808320338452909152902054610ba6908263ffffffff610d1f16565b600160a060020a03831660008181526003602090815260408083203384529091529020919091551515610c0657604051339082156108fc029083906000818181858888f19350505050158015610c00573d6000803e3d6000fd5b50610cf0565b604080517fa9059cbb000000000000000000000000000000000000000000000000000000008152336004820152602481018390529051600160a060020a0384169163a9059cbb9160448083019260209291908290030181600087803b158015610c6e57600080fd5b505af1158015610c82573d6000803e3d6000fd5b505050506040513d6020811015610c9857600080fd5b50511515610cf0576040805160e560020a62461bcd02815260206004820152601d60248201527f5661756c742063616e6e6f74207472616e736665722062616c616e6365000000604482015290519081900360640190fd5b5050565b600160a060020a03918216600090815260036020908152604080832093909416825291909152205490565b600082821115610d2b57fe5b50900390565b81810182811015610d3e57fe5b92915050565b600160a060020a0381161515610d5957600080fd5b60008054604051600160a060020a03808516939216917f8be0079c531659141344cd1fd0a4f28419497f9722a3daafe3b4186f6b6457e091a36000805473ffffffffffffffffffffffffffffffffffffffff1916600160a060020a03929092169190911790555600a165627a7a72305820232af2dbb8b3b3d6783993ed87d364d01dd2dbf03be527b7a5b877cc7098ceec0029",
  "source": "pragma solidity ^0.4.24;\n\nimport \"openzeppelin-solidity/contracts/ownership/Ownable.sol\";\nimport \"openzeppelin-solidity/contracts/math/SafeMath.sol\";\nimport \"openzeppelin-solidity/contracts/token/ERC20/ERC20.sol\";\n\nimport \"../interfaces/IVault.sol\";\n\nimport \"../utils/RegistryAccessible.sol\";\n\n\n/*\n * @title Vault Contract\n * @dev Vault contract manages all deposits and withdrawals and keep calculated exposures in check\n */\ncontract Vault is Ownable, IVault, RegistryAccessible {\n\n  using SafeMath for uint;\n\n  address constant public ETH = 0x0;\n\n  // TODO:v1:security Manan => Safer to set allowance limits, in case of exploits\n  // Mapping of approved spenders by user\n  mapping (address => mapping (address => bool)) private approved; // user => sender => bool\n  // Mapping of tokens balances by token address, by user\n  mapping (address => mapping (address => uint)) private balances; // token => user => amount\n  // Addresses correspond to `true` if registered spenders, `false` otherwise\n  mapping (address => bool) private spenders;\n\n  // Emit when a new spender is added\n  event LogSpenderAdded(address indexed _spender);\n\n  /**\n   * @dev Throw is called by any account other than from spenders\n   */\n  modifier onlySpender {\n    require(spenders[msg.sender], \"Given spender is not registered with Vault\");\n    _;\n  }\n\n  /**\n   * @dev Throw is called by any account other than approved spenders for _user\n   */\n  modifier onlyApproved(address _user) {\n    require(approved[_user][msg.sender], \"User must approve sender as spender\");\n    _;\n  }\n\n  /**\n   * @notice Deposits a specific token or ETH\n   * @param _token Address of token that is being deposited\n   * @param _amount Number of tokens to deposit\n   */\n  function deposit(address _token, uint _amount) external payable {\n    require(\n      _token == ETH ? msg.value > 0 && _amount == 0 : msg.value == 0 && _amount > 0,\n      \"If depositing ether, ether sent must be non-zero, otherwise _amount must be non-zero\"\n    );\n\n    uint _value = _token == ETH ? msg.value : _amount;\n    balances[_token][msg.sender] = balances[_token][msg.sender].add(_value);\n    if (_token != ETH)\n      require(\n        ERC20(_token).transferFrom(msg.sender, address(this), _value),\n        \"Vault must be a approved spender for token to withdraw\"\n      );\n  }\n\n  /**\n   * @notice Withdraws a specific token or ETH\n   * @param _token Address of token that is being withdrawn\n   * @param _amount Number of tokens to withdraw\n   */\n  function withdraw(address _token, uint _amount) external {\n    require(_amount > 0, \"Amount must be greater than zero\");\n\n    balances[_token][msg.sender] = balances[_token][msg.sender].sub(_amount);\n    if (_token == ETH)\n      msg.sender.transfer(_amount);\n    else\n      require(ERC20(_token).transfer(msg.sender, _amount), \"Vault cannot transfer balance\");\n  }\n\n  /**\n   * @notice Transfers token from one address to another\n   * @param _token Address of token that is being transferred\n   * @param _from Address to which tokens are being transferred from\n   * @param _to Address to which tokens are being transferred to\n   * @param _amount Number of tokens being transferred\n   */\n  function transferFrom(address _token, address _from, address _to, uint _amount)\n    external\n    onlyApproved(_from)\n    returns (bool)\n  {\n    require(_amount > 0, \"Amount must be greater than zero\");\n\n    balances[_token][_from] = balances[_token][_from].sub(_amount);\n    balances[_token][_to] = balances[_token][_to].add(_amount);\n    return true;\n  }\n\n  /**\n   * @notice Approves a spender to transfer balances of the sender\n   * @param _spender Address of spender that is being approved\n   */\n  function approve(address _spender) external {\n    require(spenders[_spender], \"Spender must be registered with Vault\");\n    approved[msg.sender][_spender] = true;\n  }\n\n  /**\n   * @notice Adds a spender\n   * @param _spender Address of spender being added\n   */\n  function addSpender(address _spender) external onlyOwner {\n    require(\n      registry.getAddress(\"BetManager\") == _spender,\n      \"Spender must be an active Bet Manager\"\n    );\n    spenders[_spender] = true;\n    emit LogSpenderAdded(_spender);\n  }\n\n  /**\n   * @notice Returns the balance of a user for a specified token\n   * @param _token Address of the token\n   * @param _user Address of the user\n   * @return token balance for the user\n   */\n  function balanceOf(address _token, address _user) external view returns (uint) {\n    return balances[_token][_user];\n  }\n\n  /**\n   * @notice Checks if a spender has been approved by a user\n   * @param _user Address of the user\n   * @param _spender Address of the spender\n   * @return `true` if user's address is approved, otherwise `false`\n   */\n  function isApproved(address _user, address _spender) external view returns (bool) {\n    return approved[_user][_spender];\n  }\n\n\n  /**\n   * @notice Returns if an address has been approved as a spender\n   * @param _spender Address of the spender\n   * @return `true` if address as been registered as a spender, otherwise `false`\n   */\n  function isSpender(address _spender) external view returns (bool) {\n    return spenders[_spender];\n  }\n\n}\n",
  "sourcePath": "/Users/ryancimoszko/fu/fansunite-core/contracts/vault/Vault.sol",
  "compiler": {
    "name": "solc",
    "version": "0.4.24+commit.e67f0147.Emscripten.clang"
  },
  "schemaVersion": "2.0.1",
  "updatedAt": "2018-09-24T20:13:33.961Z"
}