{
  "contractName": "BetManager",
  "abi": [
    {
      "constant": true,
      "inputs": [],
      "name": "ORACLE_FEE",
      "outputs": [
        {
          "name": "",
          "type": "uint256"
        }
      ],
      "payable": false,
      "stateMutability": "view",
      "type": "function"
    },
    {
      "constant": true,
      "inputs": [],
      "name": "getChainId",
      "outputs": [
        {
          "name": "",
          "type": "uint256"
        }
      ],
      "payable": false,
      "stateMutability": "view",
      "type": "function"
    },
    {
      "constant": true,
      "inputs": [],
      "name": "getRegistryContract",
      "outputs": [
        {
          "name": "",
          "type": "address"
        }
      ],
      "payable": false,
      "stateMutability": "view",
      "type": "function"
    },
    {
      "constant": true,
      "inputs": [],
      "name": "ODDS_DECIMALS",
      "outputs": [
        {
          "name": "",
          "type": "uint256"
        }
      ],
      "payable": false,
      "stateMutability": "view",
      "type": "function"
    },
    {
      "constant": false,
      "inputs": [],
      "name": "renounceOwnership",
      "outputs": [],
      "payable": false,
      "stateMutability": "nonpayable",
      "type": "function"
    },
    {
      "constant": true,
      "inputs": [],
      "name": "owner",
      "outputs": [
        {
          "name": "",
          "type": "address"
        }
      ],
      "payable": false,
      "stateMutability": "view",
      "type": "function"
    },
    {
      "constant": false,
      "inputs": [
        {
          "name": "_chainId",
          "type": "uint256"
        }
      ],
      "name": "setChainId",
      "outputs": [],
      "payable": false,
      "stateMutability": "nonpayable",
      "type": "function"
    },
    {
      "constant": false,
      "inputs": [
        {
          "name": "_newOwner",
          "type": "address"
        }
      ],
      "name": "transferOwnership",
      "outputs": [],
      "payable": false,
      "stateMutability": "nonpayable",
      "type": "function"
    },
    {
      "inputs": [
        {
          "name": "_chainId",
          "type": "uint256"
        },
        {
          "name": "_registry",
          "type": "address"
        }
      ],
      "payable": false,
      "stateMutability": "nonpayable",
      "type": "constructor"
    },
    {
      "anonymous": false,
      "inputs": [
        {
          "indexed": true,
          "name": "_hash",
          "type": "bytes32"
        },
        {
          "indexed": true,
          "name": "_backer",
          "type": "address"
        },
        {
          "indexed": true,
          "name": "_layer",
          "type": "address"
        },
        {
          "indexed": false,
          "name": "_subjects",
          "type": "address[3]"
        },
        {
          "indexed": false,
          "name": "_params",
          "type": "uint256[4]"
        },
        {
          "indexed": false,
          "name": "_nonce",
          "type": "uint256"
        },
        {
          "indexed": false,
          "name": "_payload",
          "type": "bytes"
        }
      ],
      "name": "LogBetSubmitted",
      "type": "event"
    },
    {
      "anonymous": false,
      "inputs": [
        {
          "indexed": true,
          "name": "_hash",
          "type": "bytes32"
        },
        {
          "indexed": true,
          "name": "_result",
          "type": "uint256"
        }
      ],
      "name": "LogBetClaimed",
      "type": "event"
    },
    {
      "anonymous": false,
      "inputs": [
        {
          "indexed": true,
          "name": "_old",
          "type": "uint256"
        },
        {
          "indexed": true,
          "name": "_new",
          "type": "uint256"
        }
      ],
      "name": "LogChainIdUpdated",
      "type": "event"
    },
    {
      "anonymous": false,
      "inputs": [
        {
          "indexed": true,
          "name": "previousOwner",
          "type": "address"
        }
      ],
      "name": "OwnershipRenounced",
      "type": "event"
    },
    {
      "anonymous": false,
      "inputs": [
        {
          "indexed": true,
          "name": "previousOwner",
          "type": "address"
        },
        {
          "indexed": true,
          "name": "newOwner",
          "type": "address"
        }
      ],
      "name": "OwnershipTransferred",
      "type": "event"
    },
    {
      "constant": false,
      "inputs": [
        {
          "name": "_subjects",
          "type": "address[5]"
        },
        {
          "name": "_params",
          "type": "uint256[4]"
        },
        {
          "name": "_nonce",
          "type": "uint256"
        },
        {
          "name": "_payload",
          "type": "bytes"
        },
        {
          "name": "_signature",
          "type": "bytes"
        }
      ],
      "name": "submitBet",
      "outputs": [],
      "payable": false,
      "stateMutability": "nonpayable",
      "type": "function"
    },
    {
      "constant": false,
      "inputs": [
        {
          "name": "_subjects",
          "type": "address[5]"
        },
        {
          "name": "_params",
          "type": "uint256[4]"
        },
        {
          "name": "_nonce",
          "type": "uint256"
        },
        {
          "name": "_payload",
          "type": "bytes"
        }
      ],
      "name": "claimBet",
      "outputs": [],
      "payable": false,
      "stateMutability": "nonpayable",
      "type": "function"
    },
    {
      "constant": true,
      "inputs": [
        {
          "name": "_league",
          "type": "address"
        },
        {
          "name": "_resolver",
          "type": "address"
        },
        {
          "name": "_fixture",
          "type": "uint256"
        },
        {
          "name": "_payload",
          "type": "bytes"
        }
      ],
      "name": "getResult",
      "outputs": [
        {
          "name": "",
          "type": "uint256"
        }
      ],
      "payable": false,
      "stateMutability": "view",
      "type": "function"
    },
    {
      "constant": true,
      "inputs": [
        {
          "name": "_subject",
          "type": "address"
        }
      ],
      "name": "getBetsBySubject",
      "outputs": [
        {
          "name": "",
          "type": "bytes32[]"
        }
      ],
      "payable": false,
      "stateMutability": "view",
      "type": "function"
    }
  ],
  "bytecode": "0x608060405234801561001057600080fd5b50604051604080613d4183398101604052805160209091015160008054600160a060020a0319908116331790915560018054600160a060020a0390931692909116919091179055600255613cd8806100696000396000f3006080604052600436106100a05763ffffffff60e060020a60003504166331d8a98581146100a55780633408e470146100cc57806336ca3d73146100e1578063429da40a14610112578063715018a6146101275780638da5cb5b1461013e5780639b83945014610153578063a33a3a3914610189578063c8eca329146101b2578063ef0e2ff414610223578063f2fde38b1461023b578063f923cfb31461025c575b600080fd5b3480156100b157600080fd5b506100ba610295565b60408051918252519081900360200190f35b3480156100d857600080fd5b506100ba61029b565b3480156100ed57600080fd5b506100f66102a1565b60408051600160a060020a039092168252519081900360200190f35b34801561011e57600080fd5b506100ba6102b0565b34801561013357600080fd5b5061013c6102b5565b005b34801561014a57600080fd5b506100f6610321565b34801561015f57600080fd5b5061013c600460a46101243561014435602481810191850135906101643590810190860135610330565b34801561019557600080fd5b5061013c600460a461012435610144356024810190840135610588565b3480156101be57600080fd5b506101d3600160a060020a0360043516610738565b60408051602080825283518183015283519192839290830191858101910280838360005b8381101561020f5781810151838201526020016101f7565b505050509050019250505060405180910390f35b34801561022f57600080fd5b5061013c6004356107a5565b34801561024757600080fd5b5061013c600160a060020a03600435166107f7565b34801561026857600080fd5b506100ba600160a060020a036004803582169160248035909116916044359160643590810191013561081a565b61019081565b60025490565b600154600160a060020a031690565b600481565b600054600160a060020a031633146102cc57600080fd5b60008054604051600160a060020a03909116917ff8df31144d9c2f0f6b59d69b8b98abd5459d07f2742c4df920b25aae33c6482091a26000805473ffffffffffffffffffffffffffffffffffffffff19169055565b600054600160a060020a031681565b610338613bcb565b60006103b3896005806020026040519081016040528092919082600560200280828437505060408051608081810190925293508d92506004915083908390808284375050604080516020601f8e018190048102820181019092528c815293508c92508b91508190840183828082843750610862945050505050565b91506103c282600254896108e7565b90506103ff828286868080601f01602080910402602001604051908101604052809392919081815260200183838082843750610de5945050505050565b61040882611043565b6104118261154b565b61041b8282611b3d565b8160200151600160a060020a03168260000151600160a060020a031682600019167f8dc61913ee8b0c3c30d3073f36ed3d12dcea1dcaa3e9d83d9def86e1a466dbf56060604051908101604052808760400151600160a060020a0316600160a060020a031681526020018760600151600160a060020a0316600160a060020a031681526020018760800151600160a060020a0316600160a060020a03168152506080604051908101604052808860a0015181526020018860c0015181526020018860e0015181526020018861010001518152508c8c8c6040518086600360200280838360005b83811015610519578181015183820152602001610501565b5050505090500185600460200280838360005b8381101561054457818101518382015260200161052c565b5050505090500184815260200180602001828103825284848281815260200192508082843760405192018290039850909650505050505050a4505050505050505050565b610590613bcb565b60008061060c886005806020026040519081016040528092919082600560200280828437505060408051608081810190925293508c92506004915083908390808284375050604080516020601f8d018190048102820181019092528b815293508b92508a91508190840183828082843750610862945050505050565b925061061b83600254886108e7565b60008181526003602052604090205490925060ff1615156106ac576040805160e560020a62461bcd02815260206004820152603b60248201527f426574207769746820676976656e20706172616d65746572732065697468657260448201527f20636c61696d6564206f72206e65766572207375626d69747465640000000000606482015290519081900360840190fd5b6106f4836060015184608001518560c0015188888080601f01602080910402602001604051908101604052809392919081815260200183838082843750611e94945050505050565b9050610701838383612042565b604051819083907ff53bfa6342bbc051898502863a9f79991cc4f8759b484710ee0c356d019bd2ae90600090a35050505050505050565b600160a060020a03811660009081526005602090815260409182902080548351818402810184019094528084526060939283018282801561079957602002820191906000526020600020905b81548152600190910190602001808311610784575b50505050509050919050565b60008054600160a060020a031633146107bd57600080fd5b506002805490829055604051829082907f6e7b1c0fef63382f05aa7c9cbe8f66c67fbb68e0892f8e8347b0ea3ef615850c90600090a35050565b600054600160a060020a0316331461080e57600080fd5b610817816121d9565b50565b600061085886868686868080601f01602080910402602001604051908101604052809392919081815260200183838082843750611e94945050505050565b9695505050505050565b61086a613bcb565b5060408051610140810182528451600160a060020a0390811682526020808701518216818401528684015182168385015260608088015183168185015260809788015190921696830196909652845160a08301529484015160c08201529083015160e0820152919092015161010082015261012081019190915290565b82516020808501516040808701516060880151608089015183516c01000000000000000000000000600160a060020a0398891681028289015295881686026034820152928716850260488401529086168402605c8301529490941690910260708401528051606481850301815260848401825260a087015160c088015160e08901516101008a015160a488019390935260c487019190915260e48601526101048086019190915282518086039091018152610124850183527f42657428000000000000000000000000000000000000000000000000000000006101448601527f61646472657373206261636b65722c00000000000000000000000000000000006101488601527f61646472657373206c617965722c0000000000000000000000000000000000006101578601527f6164647265737320746f6b656e2c0000000000000000000000000000000000006101658601527f61646472657373206c65616775652c00000000000000000000000000000000006101738601527f61646472657373207265736f6c7665722c0000000000000000000000000000006101828601527f75696e74323536206261636b65725374616b652c0000000000000000000000006101938601527f75696e7432353620666978747572652c000000000000000000000000000000006101a78601527f75696e74323536206f6464732c000000000000000000000000000000000000006101b78601527f75696e743235362065787069726174696f6e2c000000000000000000000000006101c48601527f6279746573207061796c6f6164000000000000000000000000000000000000006101d78601527f29000000000000000000000000000000000000000000000000000000000000006101e486015282516101c58187030181526101e590950192839052845160009592949193869392909182918401908083835b60208310610bbe5780518252601f199092019160209182019101610b9f565b6001836020036101000a038019825116818451168082178552505050505050905001915050604051809103902083838961012001516040518082805190602001908083835b60208310610c225780518252601f199092019160209182019101610c03565b51815160209384036101000a6000190180199092169116179052604080519290940182900382208282018a8152895191975095509190930192870191508083835b60208310610c825780518252601f199092019160209182019101610c63565b51815160209384036101000a600019018019909216911617905286519190930192860191508083835b60208310610cca5780518252601f199092019160209182019101610cab565b51815160209384036101000a6000190180199092169116179052920193845250604080518085038152938201908190528351939650945084935085019190508083835b60208310610d2c5780518252601f199092019160209182019101610d0d565b51815160209384036101000a6000190180199092169116179052604080519290940182900382208282018d90528285018c905260608084018290528551808503909101815260809093019485905282519097509195509293508392850191508083835b60208310610dae5780518252601f199092019160209182019101610d8f565b5181516020939093036101000a600019018019909116921691909117905260405192018290039091209a9950505050505050505050565b6020830151600160a060020a03163314610e6f576040805160e560020a62461bcd02815260206004820152602f60248201527f426574206973206e6f74207065726d697474656420666f7220746865206d736760448201527f2e73656e64657220746f2074616b650000000000000000000000000000000000606482015290519081900360840190fd5b8251600160a060020a031615801590610e9257508251600160a060020a03163314155b1515610f0e576040805160e560020a62461bcd02815260206004820152602f60248201527f426574206973206e6f74207065726d697474656420666f7220746865206d736760448201527f2e73656e64657220746f2074616b650000000000000000000000000000000000606482015290519081900360840190fd5b60008281526004602052604090205460ff1680610f39575060008281526003602052604090205460ff165b15610fb4576040805160e560020a62461bcd02815260206004820152602860248201527f42657420776974682073616d652068617368206265656e207375626d6974746560448201527f64206265666f7265000000000000000000000000000000000000000000000000606482015290519081900360840190fd5b610fc382846000015183612256565b151561103e576040805160e560020a62461bcd028152602060048201526024808201527f54782069732073656e74207769746820616e20696e76616c6964207369676e6160448201527f7475726500000000000000000000000000000000000000000000000000000000606482015290519081900360840190fd5b505050565b6001546040805160e060020a63bf40fac102815260206004820181905260086024830152600080516020613c6d83398151915260448301529151600093600160a060020a03169263bf40fac1926064808201939182900301818787803b1580156110ac57600080fd5b505af11580156110c0573d6000803e3d6000fd5b505050506040513d60208110156110d657600080fd5b50518251604080517fa389783e000000000000000000000000000000000000000000000000000000008152600160a060020a03928316600482015230602482015290519293509083169163a389783e916044808201926020929091908290030181600087803b15801561114857600080fd5b505af115801561115c573d6000803e3d6000fd5b505050506040513d602081101561117257600080fd5b505115156111f0576040805160e560020a62461bcd02815260206004820152603960248201527f4261636b657220686173206e6f7420617070726f766564204265744d616e616760448201527f657220746f206d6f76652066756e647320696e205661756c7400000000000000606482015290519081900360840190fd5b602080830151604080517fa389783e000000000000000000000000000000000000000000000000000000008152600160a060020a03928316600482015230602482015290519184169263a389783e926044808401938290030181600087803b15801561125b57600080fd5b505af115801561126f573d6000803e3d6000fd5b505050506040513d602081101561128557600080fd5b50511515611303576040805160e560020a62461bcd02815260206004820152603860248201527f4c6179657220686173206e6f7420617070726f766564204265744d616e61676560448201527f7220746f206d6f76652066756e647320696e205661756c740000000000000000606482015290519081900360840190fd5b60a0820151604080840151845182517ff7888aec000000000000000000000000000000000000000000000000000000008152600160a060020a039283166004820152908216602482015291519084169163f7888aec9160448083019260209291908290030181600087803b15801561137a57600080fd5b505af115801561138e573d6000803e3d6000fd5b505050506040513d60208110156113a457600080fd5b50511015611422576040805160e560020a62461bcd02815260206004820152602660248201527f4261636b657220646f6573206e6f7420686176652073756666696369656e742060448201527f746f6b656e730000000000000000000000000000000000000000000000000000606482015290519081900360840190fd5b61142d82600461227e565b60408084015160208086015183517ff7888aec000000000000000000000000000000000000000000000000000000008152600160a060020a039384166004820152908316602482015292519185169263f7888aec92604480830193928290030181600087803b15801561149f57600080fd5b505af11580156114b3573d6000803e3d6000fd5b505050506040513d60208110156114c957600080fd5b50511015611547576040805160e560020a62461bcd02815260206004820152602560248201527f4c6179657220646f6573206e6f7420686176652073756666696369656e74207460448201527f6f6b656e73000000000000000000000000000000000000000000000000000000606482015290519081900360840190fd5b5050565b6001546040805160e060020a63bf40fac1028152602060048201819052600e60248301527f4c65616775655265676973747279000000000000000000000000000000000000604483015291516000938493600160a060020a039091169263bf40fac1926064808301939282900301818787803b1580156115ca57600080fd5b505af11580156115de573d6000803e3d6000fd5b505050506040513d60208110156115f457600080fd5b50516060840151604080517f0db76ca5000000000000000000000000000000000000000000000000000000008152600160a060020a0380841660048301529151939550919350841691630db76ca5916024808201926020929091908290030181600087803b15801561166557600080fd5b505af1158015611679573d6000803e3d6000fd5b505050506040513d602081101561168f57600080fd5b5051151561170d576040805160e560020a62461bcd02815260206004820152602760248201527f4c6561677565206973206e6f742072656769737465726564207769746820466160448201527f6e73556e69746500000000000000000000000000000000000000000000000000606482015290519081900360840190fd5b80600160a060020a031663a782c22984608001516040518263ffffffff1660e060020a0281526004018082600160a060020a0316600160a060020a03168152602001915050602060405180830381600087803b15801561176c57600080fd5b505af1158015611780573d6000803e3d6000fd5b505050506040513d602081101561179657600080fd5b50511515611814576040805160e560020a62461bcd02815260206004820152602960248201527f5265736f6c766572206973206e6f74207265676973746572656420776974682060448201527f46616e73556e6974650000000000000000000000000000000000000000000000606482015290519081900360840190fd5b80600160a060020a031663e239c9528460c001516040518263ffffffff1660e060020a02815260040180828152602001915050602060405180830381600087803b15801561186157600080fd5b505af1158015611875573d6000803e3d6000fd5b505050506040513d602081101561188b57600080fd5b50511515611908576040805160e560020a62461bcd028152602060048201526024808201527f46697874757265206973206e6f74207363686564756c65642077697468204c6560448201527f6167756500000000000000000000000000000000000000000000000000000000606482015290519081900360840190fd5b80600160a060020a03166342813bcc8460c0015185608001516040518363ffffffff1660e060020a0281526004018083815260200182600160a060020a0316600160a060020a0316815260200192505050602060405180830381600087803b15801561197357600080fd5b505af1158015611987573d6000803e3d6000fd5b505050506040513d602081101561199d57600080fd5b505160ff16600114156119fa576040805160e560020a62461bcd02815260206004820152601b60248201527f4669787475726520697320616c7265616479207265736f6c7665640000000000604482015290519081900360640190fd5b60a0830151600010611a7c576040805160e560020a62461bcd02815260206004820152602160248201527f5374616b6520646f6573206e6f742062656c6f6e6720746f2073657420e2849d60448201527f2b00000000000000000000000000000000000000000000000000000000000000606482015290519081900360840190fd5b60e0830151600010611ad8576040805160e560020a62461bcd02815260206004820181905260248201527f4f64647320646f6573206e6f742062656c6f6e6720746f2073657420e2849d2b604482015290519081900360640190fd5b6101008301514210611b34576040805160e560020a62461bcd02815260206004820152600f60248201527f4265742068617320657870697265640000000000000000000000000000000000604482015290519081900360640190fd5b61103e836122b7565b6001546040805160e060020a63bf40fac102815260206004820181905260086024830152600080516020613c6d8339815191526044830152915160009384938493600160a060020a039092169263bf40fac192606480820193929182900301818787803b158015611bad57600080fd5b505af1158015611bc1573d6000803e3d6000fd5b505050506040513d6020811015611bd757600080fd5b505160a08601519093509150611bee85600461227e565b6000858152600360209081526040808320805460ff191660019081179091558951600160a060020a0390811685526005845282852080548084018255908652848620018a9055338552828520805492830181558552838520909101899055898201518a5183517f15dacbea0000000000000000000000000000000000000000000000000000000081529183166004830152821660248201523060448201526064810188905291519495508716936315dacbea93608480840194938390030190829087803b158015611cbe57600080fd5b505af1158015611cd2573d6000803e3d6000fd5b505050506040513d6020811015611ce857600080fd5b50511515611d66576040805160e560020a62461bcd02815260206004820152602660248201527f43616e6e6f74207472616e73666572206261636b65722773207374616b65207460448201527f6f20706f6f6c0000000000000000000000000000000000000000000000000000606482015290519081900360840190fd5b60408086015160208088015183517f15dacbea000000000000000000000000000000000000000000000000000000008152600160a060020a0393841660048201529083166024820152306044820152606481018590529251918616926315dacbea92608480830193928290030181600087803b158015611de557600080fd5b505af1158015611df9573d6000803e3d6000fd5b505050506040513d6020811015611e0f57600080fd5b50511515611e8d576040805160e560020a62461bcd02815260206004820152602560248201527f43616e6e6f74207472616e73666572206c617965722773207374616b6520746f60448201527f20706f6f6c000000000000000000000000000000000000000000000000000000606482015290519081900360840190fd5b5050505050565b6000606085600160a060020a03166342813bcc85876040518363ffffffff1660e060020a0281526004018083815260200182600160a060020a0316600160a060020a0316815260200192505050602060405180830381600087803b158015611efb57600080fd5b505af1158015611f0f573d6000803e3d6000fd5b505050506040513d6020811015611f2557600080fd5b505160ff16600114611f3a5760009150612039565b85600160a060020a031663e78341e685876040518363ffffffff1660e060020a0281526004018083815260200182600160a060020a0316600160a060020a0316815260200192505050600060405180830381600087803b158015611f9d57600080fd5b505af1158015611fb1573d6000803e3d6000fd5b505050506040513d6000823e601f3d908101601f191682016040526020811015611fda57600080fd5b810190808051640100000000811115611ff257600080fd5b8201602081018481111561200557600080fd5b815164010000000081118282018710171561201f57600080fd5b505092919050505090506120368686868685612423565b91505b50949350505050565b6000428460600151600160a060020a0316632cb0a2e58660c001516040518263ffffffff1660e060020a02815260040180828152602001915050602060405180830381600087803b15801561209657600080fd5b505af11580156120aa573d6000803e3d6000fd5b505050506040513d60208110156120c057600080fd5b505162093a80011115905060008211806120d75750805b151561212d576040805160e560020a62461bcd02815260206004820152601a60248201527f4265742063616e6e6f74206265207265736f6c76656420796574000000000000604482015290519081900360640190fd5b6000838152600360209081526040808320805460ff199081169091556004909252909120805490911660011790558115156121705761216b8461256a565b6121d3565b81600114156121825761216b846127c4565b81600214156121945761216b84612b00565b81600314156121a65761216b84612cf0565b81600414156121b85761216b84613163565b81600514156121ca5761216b8461333c565b6121d384613773565b50505050565b600160a060020a03811615156121ee57600080fd5b60008054604051600160a060020a03808516939216917f8be0079c531659141344cd1fd0a4f28419497f9722a3daafe3b4186f6b6457e091a36000805473ffffffffffffffffffffffffffffffffffffffff1916600160a060020a0392909216919091179055565b600082600160a060020a031661226c85846139be565b600160a060020a031614949350505050565b60006122ae82600a0a6122a28560e001518660a00151613b6e90919063ffffffff16565b9063ffffffff613b9716565b90505b92915050565b6000806000806000606086608001519450866060015193508660c00151925084600160a060020a031663943e25a16040518163ffffffff1660e060020a028152600401602060405180830381600087803b15801561231457600080fd5b505af1158015612328573d6000803e3d6000fd5b505050506040513d602081101561233e57600080fd5b5051610120880151805160408051604481840181019092528481526010810189905260248101889052939550919350918183019160208086019291820190858701015b8084101561239c578351825260209384019390910190612381565b5060208285848d617530fa8080156123b75783519c506123bc565b83519c505b5050505050505085151561241a576040805160e560020a62461bcd02815260206004820152601860248201527f426574207061796c6f6164206973206e6f742076616c69640000000000000000604482015290519081900360640190fd5b50505050505050565b60008060008060008060608083600160a060020a03166354ed633b6040518163ffffffff1660e060020a028152600401602060405180830381600087803b15801561246d57600080fd5b505af1158015612481573d6000803e3d6000fd5b505050506040513d602081101561249757600080fd5b810190808051906020019092919050505095508c94508b93508a92508991508890508151815160448201810160208501602086016040516040518482016040528c8152600481019050600c810190508b81526014810190508981526020810190508684015b808510156125175784518252602094850194909101906124fc565b508583015b8084101561253757835182526020938401939091019061251c565b5060208286848e617530fa80801561254e5783519f505b5050505050505050508697505050505050505095945050505050565b6001546040805160e060020a63bf40fac102815260206004820181905260086024830152600080516020613c6d8339815191526044830152915160009384938493600160a060020a039092169263bf40fac192606480820193929182900301818787803b1580156125da57600080fd5b505af11580156125ee573d6000803e3d6000fd5b505050506040513d602081101561260457600080fd5b505160a0850151909350915061261b84600461227e565b6040808601518651825160e360020a6317d57599028152600160a060020a039283166004820152908216602482015260448101869052915192935085169163beabacc8916064808201926020929091908290030181600087803b15801561268157600080fd5b505af1158015612695573d6000803e3d6000fd5b505050506040513d60208110156126ab57600080fd5b505115156126f1576040805160e560020a62461bcd02815260206004820152601f6024820152600080516020613c8d833981519152604482015290519081900360640190fd5b604080850151602080870151835160e360020a6317d57599028152600160a060020a03938416600482015290831660248201526044810185905292519186169263beabacc892606480830193928290030181600087803b15801561275457600080fd5b505af1158015612768573d6000803e3d6000fd5b505050506040513d602081101561277e57600080fd5b505115156121d3576040805160e560020a62461bcd02815260206004820152601f6024820152600080516020613c8d833981519152604482015290519081900360640190fd5b6001546040805160e060020a63bf40fac102815260206004820181905260086024830152600080516020613c6d83398151915260448301529151600093849384938493849384938493600160a060020a039092169263bf40fac192606480820193929182900301818787803b15801561283c57600080fd5b505af1158015612850573d6000803e3d6000fd5b505050506040513d602081101561286657600080fd5b50516001546040805160e060020a63bf40fac102815260206004820181905260106024830152600080516020613c4d83398151915260448301529151939a50600160a060020a039092169263bf40fac19260648082019392918290030181600087803b1580156128d557600080fd5b505af11580156128e9573d6000803e3d6000fd5b505050506040513d60208110156128ff57600080fd5b505160a0890151909650945061291688600461227e565b9350612928858563ffffffff613bac16565b925061293c8361019063ffffffff613b9716565b915061294e838363ffffffff613bb916565b6040808a01516020808c0151835160e360020a6317d57599028152600160a060020a0393841660048201529083166024820152604481018590529251939450908a169263beabacc89260648082019392918290030181600087803b1580156129b557600080fd5b505af11580156129c9573d6000803e3d6000fd5b505050506040513d60208110156129df57600080fd5b50511515612a25576040805160e560020a62461bcd02815260206004820152601f6024820152600080516020613c8d833981519152604482015290519081900360640190fd5b604080890151815160e360020a6317d57599028152600160a060020a03918216600482015288821660248201526044810185905291519089169163beabacc89160648083019260209291908290030181600087803b158015612a8657600080fd5b505af1158015612a9a573d6000803e3d6000fd5b505050506040513d6020811015612ab057600080fd5b50511515612af6576040805160e560020a62461bcd02815260206004820152601f6024820152600080516020613c8d833981519152604482015290519081900360640190fd5b5050505050505050565b6001546040805160e060020a63bf40fac102815260206004820181905260086024830152600080516020613c6d83398151915260448301529151600093849384938493849384938493600160a060020a039092169263bf40fac192606480820193929182900301818787803b158015612b7857600080fd5b505af1158015612b8c573d6000803e3d6000fd5b505050506040513d6020811015612ba257600080fd5b50516001546040805160e060020a63bf40fac102815260206004820181905260106024830152600080516020613c4d83398151915260448301529151939a50600160a060020a039092169263bf40fac19260648082019392918290030181600087803b158015612c1157600080fd5b505af1158015612c25573d6000803e3d6000fd5b505050506040513d6020811015612c3b57600080fd5b505160a08901519096509450612c5288600461227e565b9350612c64858563ffffffff613bac16565b9250612c788361019063ffffffff613b9716565b9150612c8a838363ffffffff613bb916565b6040808a01518a51825160e360020a6317d57599028152600160a060020a039283166004820152908216602482015260448101849052915192935089169163beabacc8916064808201926020929091908290030181600087803b1580156129b557600080fd5b6000806000806000806000806000806000600160009054906101000a9004600160a060020a0316600160a060020a031663bf40fac16040518163ffffffff1660e060020a028152600401808060200182810382526008815260200180600080516020613c6d833981519152815250602001915050602060405180830381600087803b158015612d7e57600080fd5b505af1158015612d92573d6000803e3d6000fd5b505050506040513d6020811015612da857600080fd5b50516001546040805160e060020a63bf40fac102815260206004820181905260106024830152600080516020613c4d83398151915260448301529151939e50600160a060020a039092169263bf40fac19260648082019392918290030181600087803b158015612e1757600080fd5b505af1158015612e2b573d6000803e3d6000fd5b505050506040513d6020811015612e4157600080fd5b505160a08d0151909a509850612e588c600461227e565b9750612e6c8961019063ffffffff613b9716565b9650612e808861019063ffffffff613b9716565b9550612e9389600263ffffffff613b9716565b9450612ea5888663ffffffff613bac16565b9350612eb7858863ffffffff613bb916565b9250612ec9848763ffffffff613bb916565b9150612edb878763ffffffff613bac16565b6040808e01518e51825160e360020a6317d57599028152600160a060020a03928316600482015290821660248201526044810187905291519293508d169163beabacc8916064808201926020929091908290030181600087803b158015612f4157600080fd5b505af1158015612f55573d6000803e3d6000fd5b505050506040513d6020811015612f6b57600080fd5b50511515612fb1576040805160e560020a62461bcd02815260206004820152601f6024820152600080516020613c8d833981519152604482015290519081900360640190fd5b6040808d01516020808f0151835160e360020a6317d57599028152600160a060020a0393841660048201529083166024820152604481018690529251918e169263beabacc892606480830193928290030181600087803b15801561301457600080fd5b505af1158015613028573d6000803e3d6000fd5b505050506040513d602081101561303e57600080fd5b50511515613084576040805160e560020a62461bcd02815260206004820152601f6024820152600080516020613c8d833981519152604482015290519081900360640190fd5b6040808d0151815160e360020a6317d57599028152600160a060020a0391821660048201528c82166024820152604481018490529151908d169163beabacc89160648083019260209291908290030181600087803b1580156130e557600080fd5b505af11580156130f9573d6000803e3d6000fd5b505050506040513d602081101561310f57600080fd5b50511515613155576040805160e560020a62461bcd02815260206004820152601f6024820152600080516020613c8d833981519152604482015290519081900360640190fd5b505050505050505050505050565b6000806000806000806000806000806000600160009054906101000a9004600160a060020a0316600160a060020a031663bf40fac16040518163ffffffff1660e060020a028152600401808060200182810382526008815260200180600080516020613c6d833981519152815250602001915050602060405180830381600087803b1580156131f157600080fd5b505af1158015613205573d6000803e3d6000fd5b505050506040513d602081101561321b57600080fd5b50516001546040805160e060020a63bf40fac102815260206004820181905260106024830152600080516020613c4d83398151915260448301529151939e50600160a060020a039092169263bf40fac19260648082019392918290030181600087803b15801561328a57600080fd5b505af115801561329e573d6000803e3d6000fd5b505050506040513d60208110156132b457600080fd5b505160a08d0151909a5098506132cb8c600461227e565b97506132df8961019063ffffffff613b9716565b96506132f38861019063ffffffff613b9716565b955061330688600263ffffffff613b9716565b9450613318898663ffffffff613bac16565b935061332a848863ffffffff613bb916565b9250612ec9858763ffffffff613bb916565b6001546040805160e060020a63bf40fac102815260206004820181905260086024830152600080516020613c6d8339815191526044830152915160009384938493849384938493849384938493600160a060020a03169263bf40fac1926064808201939182900301818787803b1580156133b557600080fd5b505af11580156133c9573d6000803e3d6000fd5b505050506040513d60208110156133df57600080fd5b50516001546040805160e060020a63bf40fac102815260206004820181905260106024830152600080516020613c4d83398151915260448301529151939c50600160a060020a039092169263bf40fac19260648082019392918290030181600087803b15801561344e57600080fd5b505af1158015613462573d6000803e3d6000fd5b505050506040513d602081101561347857600080fd5b505160a08b0151909850965061348f8a600461227e565b95506134a38761019063ffffffff613b9716565b94506134b78661019063ffffffff613b9716565b93506134c9878663ffffffff613bb916565b92506134db868563ffffffff613bb916565b91506134ed858563ffffffff613bac16565b6040808c01518c51825160e360020a6317d57599028152600160a060020a03928316600482015290821660248201526044810187905291519293508b169163beabacc8916064808201926020929091908290030181600087803b15801561355357600080fd5b505af1158015613567573d6000803e3d6000fd5b505050506040513d602081101561357d57600080fd5b505115156135c3576040805160e560020a62461bcd02815260206004820152601f6024820152600080516020613c8d833981519152604482015290519081900360640190fd5b6040808b01516020808d0151835160e360020a6317d57599028152600160a060020a0393841660048201529083166024820152604481018690529251918c169263beabacc892606480830193928290030181600087803b15801561362657600080fd5b505af115801561363a573d6000803e3d6000fd5b505050506040513d602081101561365057600080fd5b50511515613696576040805160e560020a62461bcd02815260206004820152601f6024820152600080516020613c8d833981519152604482015290519081900360640190fd5b6040808b0151815160e360020a6317d57599028152600160a060020a0391821660048201528a82166024820152604481018490529151908b169163beabacc89160648083019260209291908290030181600087803b1580156136f757600080fd5b505af115801561370b573d6000803e3d6000fd5b505050506040513d602081101561372157600080fd5b50511515613767576040805160e560020a62461bcd02815260206004820152601f6024820152600080516020613c8d833981519152604482015290519081900360640190fd5b50505050505050505050565b6001546040805160e060020a63bf40fac102815260206004820181905260086024830152600080516020613c6d833981519152604483015291516000938493849384938493600160a060020a03169263bf40fac1926064808201939182900301818787803b1580156137e457600080fd5b505af11580156137f8573d6000803e3d6000fd5b505050506040513d602081101561380e57600080fd5b50516001546040805160e060020a63bf40fac1028152602060048201819052600660248301527f46616e4f7267000000000000000000000000000000000000000000000000000060448301529151939850600160a060020a039092169263bf40fac19260648082019392918290030181600087803b15801561388f57600080fd5b505af11580156138a3573d6000803e3d6000fd5b505050506040513d60208110156138b957600080fd5b505160a087015190945092506138d086600461227e565b91506138e2838363ffffffff613bac16565b604080880151815160e360020a6317d57599028152600160a060020a039182166004820152878216602482015260448101849052915192935087169163beabacc8916064808201926020929091908290030181600087803b15801561394657600080fd5b505af115801561395a573d6000803e3d6000fd5b505050506040513d602081101561397057600080fd5b505115156139b6576040805160e560020a62461bcd02815260206004820152601f6024820152600080516020613c8d833981519152604482015290519081900360640190fd5b505050505050565b600080600080600080865160421415156139d757600080fd5b8660008151811015156139e657fe5b90602001015160f860020a900460f860020a0260f860020a900460ff166001811115613a0e57fe5b9450866001815181101515613a1f57fe5b01602001516022880151604289015160f860020a928390048302929092049550935091506001856001811115613a5157fe5b1415613afd57604080517f19457468657265756d205369676e6564204d6573736167653a0a333200000000602080830191909152603c8083018c905283518084039091018152605c90920192839052815191929182918401908083835b60208310613acd5780518252601f199092019160209182019101613aae565b6001836020036101000a038019825116818451168082178552505050505050905001915050604051809103902090505b604080516000808252602080830180855285905260ff8816838501526060830187905260808301869052925160019360a0808501949193601f19840193928390039091019190865af1158015613b57573d6000803e3d6000fd5b5050604051601f1901519998505050505050505050565b6000821515613b7f575060006122b1565b50818102818382811515613b8f57fe5b04146122b157fe5b60008183811515613ba457fe5b049392505050565b818101828110156122b157fe5b600082821115613bc557fe5b50900390565b610140604051908101604052806000600160a060020a031681526020016000600160a060020a031681526020016000600160a060020a031681526020016000600160a060020a031681526020016000600160a060020a03168152602001600081526020016000815260200160008152602001600081526020016060815250905600436f6e73656e7375734d616e616765720000000000000000000000000000000046616e5661756c7400000000000000000000000000000000000000000000000043616e6e6f74207472616e73666572207374616b652066726f6d20706f6f6c00a165627a7a723058201e8806e45e8c62d6ca0a404e9194e973adb65cb325f3ee5ac1167bffe48e4ba80029",
  "source": "pragma solidity ^0.4.24;\n\nimport \"openzeppelin-solidity/contracts/ownership/Ownable.sol\";\nimport \"openzeppelin-solidity/contracts/math/SafeMath.sol\";\nimport \"openzeppelin-solidity/contracts/token/ERC20/ERC20.sol\";\n\nimport \"./interfaces/IBetManager.sol\";\nimport \"./interfaces/ILeague.sol\";\nimport \"./interfaces/ILeagueRegistry.sol\";\nimport \"./interfaces/IRegistry.sol\";\nimport \"./interfaces/IResolver.sol\";\nimport \"./interfaces/IVault.sol\";\n\nimport \"./libraries/BetLib.sol\";\nimport \"./libraries/SignatureLib.sol\";\n\nimport \"./utils/RegistryAccessible.sol\";\nimport \"./utils/ChainSpecifiable.sol\";\n\n/**\n * @title Bet Manger Contract\n * @notice BetManager is the core contract responsible for bet validations and bet submissions\n */\ncontract BetManager is Ownable, IBetManager, RegistryAccessible, ChainSpecifiable {\n\n  using SafeMath for uint;\n\n  // Number of decimal places in BetLib.Odds\n  uint public constant ODDS_DECIMALS = 4;\n\n  // Oracle fee dividing factor (1 / 400 = 0.0025)\n  uint public constant ORACLE_FEE = 400;\n\n  // Resolves to `true` if hash is used, `false` otherwise\n  mapping(bytes32 => bool) internal unclaimed;\n  // Resolves to `true` if bet has been claimed, `false` otherwise\n  mapping(bytes32 => bool) internal claimed;\n  // Mapping of user address to array of bet hashes\n  mapping(address => bytes32[]) internal bets;\n\n  // Emit when a Bet has been submitted\n  event LogBetSubmitted(\n    bytes32 indexed _hash,\n    address indexed _backer,\n    address indexed _layer,\n    address[3] _subjects,\n    uint[4] _params,\n    uint _nonce,\n    bytes _payload\n  );\n  // Emit when a Bet has been claimed\n  event LogBetClaimed(\n    bytes32 indexed _hash,\n    uint256 indexed _result\n  );\n\n  /**\n   * @notice Constructor\n   * @dev Change chainId in case of a fork, making sure txs cannot be replayed on forked chains\n   * @param _chainId ChainId to be set\n   */\n  constructor(uint _chainId, address _registry)\n    public\n    ChainSpecifiable(_chainId)\n    RegistryAccessible(_registry)\n  {\n\n  }\n\n  /**\n   * @notice Submits a bet\n   * @param _subjects Subjects associated with bet [backer, layer, token, league, resolver]\n   * @param _params Parameters associated with bet [backerStake, fixture, odds, expiration]\n   * @param _nonce Nonce, to ensure hash uniqueness\n   * @param _payload Payload for resolver\n   * @param _signature ECDSA signature along with the mode\n   *  (0 = Typed, 1 = Geth, 2 = Trezor) {mode}{v}{r}{s}.\n   */\n  function submitBet(\n    address[5] _subjects,\n    uint[4] _params,\n    uint _nonce,\n    bytes _payload,\n    bytes _signature\n  )\n    external\n  {\n    BetLib.Bet memory _bet = BetLib.generate(_subjects, _params, _payload);\n    bytes32 _hash = BetLib.hash(_bet, chainId, _nonce);\n\n    _authenticateBet(_bet, _hash, _signature);\n    _authorizeBet(_bet);\n    _validateBet(_bet);\n    _processBet(_bet, _hash);\n\n    emit LogBetSubmitted(\n      _hash,\n      _bet.backer,\n      _bet.layer,\n      [_bet.token, _bet.league, _bet.resolver],\n      [_bet.backerStake, _bet.fixture, _bet.odds, _bet.expiration],\n      _nonce,\n      _payload\n    );\n  }\n\n  /**\n   * @notice Claims a bet, transfers tokens and fees based on fixture resolution\n   * @param _subjects Subjects associated with bet\n   * @param _params Parameters associated with bet\n   * @param _nonce Nonce, to ensure hash uniqueness\n   * @param _payload Payload for resolver\n   */\n  function claimBet(address[5] _subjects, uint[4] _params, uint _nonce, bytes _payload) external {\n    BetLib.Bet memory _bet = BetLib.generate(_subjects, _params, _payload);\n    bytes32 _hash = BetLib.hash(_bet, chainId, _nonce);\n\n    require(unclaimed[_hash], \"Bet with given parameters either claimed or never submitted\");\n\n    uint _result = _getResult(_bet.league, _bet.resolver, _bet.fixture, _payload);\n    _processClaim(_bet, _hash, _result);\n\n    emit LogBetClaimed(_hash, _result);\n  }\n\n  /**\n   * @notice Gets the bet result\n   * @param _league Address of league\n   * @param _resolver Address of resolver\n   * @param _fixture Id of fixture\n   * @param _payload Payload for resolver\n   * @return uint between 1 and 5 (check IResolver for details) or 0 (for unresolved fixtures)\n   */\n  function getResult(address _league, address _resolver, uint _fixture, bytes _payload)\n    external\n    view\n    returns (uint)\n  {\n    return _getResult(_league, _resolver, _fixture, _payload);\n  }\n\n  /**\n   * @notice Gets all the bet identifiers for address `_subject`\n   * @param _subject Address of a layer or backer\n   * @return Returns list of bet ids for backer / layer `_subject`\n   */\n  function getBetsBySubject(address _subject) external view returns (bytes32[]) {\n    return bets[_subject];\n  }\n\n  /**\n   * @dev Throws if any of the following checks fail\n   *  + `msg.sender` is `_bet.layer`\n   *  + `msg.sender` is not `_bet.backer`\n   *  + `_bet.backer` has signed `_hash`\n   *  + `_hash` is unique (preventing replay attacks)\n   * @param _bet Bet struct\n   * @param _hash Keccak-256 hash of the bet struct, along with chainId and nonce\n   * @param _signature ECDSA signature along with the mode\n   */\n  function _authenticateBet(BetLib.Bet memory _bet, bytes32 _hash, bytes _signature)\n    internal\n    view\n  {\n    require(\n      msg.sender == _bet.layer,\n      \"Bet is not permitted for the msg.sender to take\"\n    );\n    require(\n      _bet.backer != address(0) && _bet.backer != msg.sender,\n      \"Bet is not permitted for the msg.sender to take\"\n    );\n    require(\n      !(claimed[_hash] || unclaimed[_hash]),\n      \"Bet with same hash been submitted before\"\n    );\n    require(\n      SignatureLib.isValidSignature(_hash, _bet.backer, _signature),\n      \"Tx is sent with an invalid signature\"\n    );\n  }\n\n  /**\n   * @dev Throws if any of the following checks fail\n   *  + `address(this)` is an approved spender by both backer and layer\n   *  + `_bet.backer` has appropriate amount staked in vault\n   *  + `_bet.layer` has appropriate amount staked in vault\n   * @param _bet Bet struct\n   */\n  function _authorizeBet(BetLib.Bet memory _bet) internal view {\n    IVault _vault = IVault(registry.getAddress(\"FanVault\"));\n\n    require(\n      _vault.isApproved(_bet.backer, address(this)),\n      \"Backer has not approved BetManager to move funds in Vault\"\n    );\n    require(\n      _vault.isApproved(_bet.layer, address(this)),\n      \"Layer has not approved BetManager to move funds in Vault\"\n    );\n    require(\n      _vault.balanceOf(_bet.token, _bet.backer) >= _bet.backerStake,\n      \"Backer does not have sufficient tokens\"\n    );\n    require(\n      _vault.balanceOf(_bet.token, _bet.layer) >= BetLib.backerReturn(_bet, ODDS_DECIMALS),\n      \"Layer does not have sufficient tokens\"\n    );\n  }\n\n  /**\n   * @dev Throws if any of the following checks fail\n   *  + `_bet.league` is a registered league with FansUnite\n   *  + `_bet.resolver` is registered with league\n   *  + `_bet.fixture` is scheduled with league\n   *  + `_bet.resolver` is not resolved for `_bet.fixture`\n   *  + `_bet.backerStake` must belong to set +\n   *  + `_bet.odds` must belong to set +\n   *  + `_bet.expiration` is greater than `now`\n   *  + `_bet.payload` is valid according to resolver\n   * @param _bet Bet struct\n   */\n  function _validateBet(BetLib.Bet memory _bet) internal view {\n    ILeagueRegistry _leagueRegistry = ILeagueRegistry(registry.getAddress(\"LeagueRegistry\"));\n    ILeague _league = ILeague(_bet.league);\n\n    require(\n      _leagueRegistry.isLeagueRegistered(_bet.league),\n      \"League is not registered with FansUnite\"\n    );\n    require(\n      _league.isResolverRegistered(_bet.resolver),\n      \"Resolver is not registered with FansUnite\"\n    );\n    require(\n      _league.isFixtureScheduled(_bet.fixture),\n      \"Fixture is not scheduled with League\"\n    );\n    require(\n      _league.isFixtureResolved(_bet.fixture, _bet.resolver) != 1,\n      \"Fixture is already resolved\"\n    );\n    require(\n      _bet.backerStake > 0,\n      \"Stake does not belong to set +\"\n    );\n    require(\n      _bet.odds > 0,\n      \"Odds does not belong to set +\"\n    );\n    require(\n      _bet.expiration > block.timestamp,\n      \"Bet has expired\"\n    );\n\n    __validatePayload(_bet);\n\n  }\n\n  /**\n   * @dev Processes the funds and stores the bet\n   * @param _bet Bet struct\n   * @param _hash Keccak-256 hash of the bet struct, along with chainId and nonce\n   */\n  function _processBet(BetLib.Bet memory _bet, bytes32 _hash) internal {\n    IVault _vault = IVault(registry.getAddress(\"FanVault\"));\n    uint _backerStake = _bet.backerStake;\n    uint _layerStake = BetLib.backerReturn(_bet, ODDS_DECIMALS);\n\n    unclaimed[_hash] = true;\n\n    bets[_bet.backer].push(_hash);\n    bets[msg.sender].push(_hash);\n\n    require(\n      _vault.transferFrom(_bet.token, _bet.backer, address(this), _backerStake),\n      \"Cannot transfer backer's stake to pool\"\n    );\n\n    require(\n      _vault.transferFrom(_bet.token, _bet.layer, address(this), _layerStake),\n      \"Cannot transfer layer's stake to pool\"\n    );\n  }\n\n  /**\n   * @dev Processes the funds based on result\n   * @param _bet Bet struct\n   * @param _hash Keccak-256 hash of the bet struct, along with chainId and nonce\n   * @param _result Result of the bet\n   */\n  function _processClaim(BetLib.Bet memory _bet, bytes32 _hash, uint _result) internal {\n    bool _expired = ILeague(_bet.league).getFixtureStart(_bet.fixture) + 7 days <= block.timestamp;\n    require(_result > 0 || _expired, \"Bet cannot be resolved yet\");\n\n    unclaimed[_hash] = false;\n    claimed[_hash] = true;\n\n    if (_result == 0) __processRevert(_bet);\n    else if (_result == 1) __processLose(_bet);\n    else if (_result == 2) __processWin(_bet);\n    else if (_result == 3) __processHalfLose(_bet);\n    else if (_result == 4) __processHalfWin(_bet);\n    else if (_result == 5) __processPush(_bet);\n    else __processFallBack(_bet);\n  }\n\n\n  /**\n   * @notice Gets the bet result\n   * @param _league Address of league\n   * @param _resolver Address of resolver\n   * @param _fixture Id of fixture\n   * @param _payload Payload for resolver\n   * @return uint between 1 and 5 (check IResolver for details) or 0 (for unresolved fixtures)\n   */\n  function _getResult(address _league, address _resolver, uint _fixture, bytes _payload)\n    internal\n    view\n    returns (uint)\n  {\n    if (ILeague(_league).isFixtureResolved(_fixture, _resolver) != 1) return 0;\n\n    bytes memory _resolution = ILeague(_league).getResolution(_fixture, _resolver);\n    return __getResult(_league, _resolver, _fixture, _payload, _resolution);\n  }\n\n  /**\n   * @dev Throws if `_payload` is not valid\n   * @param _bet Bet struct\n   */\n  function __validatePayload(BetLib.Bet memory _bet) private view {\n    bool _isPayloadValid;\n    address _resolver = _bet.resolver;\n    address _league = _bet.league;\n    uint256 _fixture = _bet.fixture;\n    bytes4 _selector = IResolver(_resolver).getValidatorSelector();\n    bytes memory _payload = _bet.payload;\n\n    assembly {\n      let _plen := mload(_payload)               // _plen = length of _payload\n      let _tlen := add(_plen, 0x44)              // _tlen = total length of calldata\n      let _p    := add(_payload, 0x20)           // _p    = encoded bytes of _payload\n\n      let _ptr   := mload(0x40)                  // _ptr   = free memory pointer\n      let _index := mload(0x40)                  // _index = same as _ptr\n      mstore(0x40, add(_ptr, _tlen))             // update free memory pointer\n\n      mstore(_index, _selector)                  // store selector at _index\n      _index := add(_index, 0x04)                // _index = _index + 0x04\n      _index := add(_index, 0x0C)                // _index = _index + 0x0C\n      mstore(_index, _league)                    // store address at _index\n      _index := add(_index, 0x14)                // _index = _index + 0x14\n      mstore(_index, _fixture)                   // store _fixture at _index\n      _index := add(_index, 0x20)                // _index = _index + 0x20\n\n      for\n      { let _end := add(_p, _plen) }             // init: _end = _p + _plen\n      lt(_p, _end)                               // cond: _p < _end\n      { _p := add(_p, 0x20) }                    // incr: _p = _p + 0x20\n      {\n        mstore(_index, mload(_p))                // store _p to _index\n        _index := add(_index, 0x20)              // _index = _index + 0x20\n      }\n\n      let result := staticcall(30000, _resolver, _ptr, _tlen, _ptr, 0x20)\n\n      switch result\n      case 0 {\n        // revert(_ptr, 0x20) dealt with outside of assembly\n        _isPayloadValid := mload(_ptr)\n      }\n      default {\n        _isPayloadValid := mload(_ptr)\n      }\n    }\n\n    require(\n      _isPayloadValid,\n      \"Bet payload is not valid\"\n    );\n  }\n\n  /**\n   * @dev Gets the bet result based on arguments\n   * @param __league Address of league\n   * @param __resolver Address of resolver\n   * @param __fixture Id of fixture\n   * @param __payload bet payload encoded function parameters\n   * @param __resolution resolution encoded function parameters\n   * @return uint between 1 and 5 (check IResolver for details) or 0 (for failed call)\n   */\n  function __getResult(\n    address __league,\n    address __resolver,\n    uint __fixture,\n    bytes __payload,\n    bytes __resolution\n  )\n    private\n    view\n    returns (uint)\n  {\n    uint _result;\n    bytes4 _selector = IResolver(_resolver).getInitSelector();\n    address _league = __league;\n    address _resolver = __resolver;\n    uint _fixture = __fixture;\n    bytes memory _payload = __payload;\n    bytes memory _resolution = __resolution;\n\n    assembly {\n      let _plen := mload(_payload)               // _plen = length of _payload\n      let _rlen := mload(_resolution)            // _rlen = length of _resolution\n      let _tlen := add(_rlen, add(_plen, 0x44))  // _tlen = total length of calldata\n      let _p    := add(_payload, 0x20)           // _p    = encoded bytes of _payload\n      let _r    := add(_payload, 0x20)           // _r    = encoded bytes of _resolution\n\n      let _ptr   := mload(0x40)                  // _ptr   = free memory pointer\n      let _index := mload(0x40)                  // _index = same as _ptr\n      mstore(0x40, add(_ptr, _tlen))             // update free memory pointer\n\n      mstore(_index, _selector)                  // store selector at _index\n      _index := add(_index, 0x04)                // _index = _index + 0x04\n      _index := add(_index, 0x0C)                // _index = _index + 0x0C\n      mstore(_index, _league)                    // store address at _index\n      _index := add(_index, 0x14)                // _index = _index + 0x14\n      mstore(_index, _fixture)                   // store _fixture at _index\n      _index := add(_index, 0x20)                // _index = _index + 0x20\n\n      for\n      { let _end := add(_p, _plen) }             // init: _end = _p + _plen\n      lt(_p, _end)                               // cond: _p < _end\n      { _p := add(_p, 0x20) }                    // incr: _p = _p + 0x20\n      {\n        mstore(_index, mload(_p))                // store _p to _index\n        _index := add(_index, 0x20)              // _index = _index + 0x20\n      }\n\n      for\n      { let _end := add(_r, _rlen) }                 // init: _end = _r + _rlen\n      lt(_r, _end)                               // cond: _r < _end\n      { _r := add(_r, 0x20) }                    // incr: _r = _r + 0x20\n      {\n        mstore(_index, mload(_r))                // store _r to _index\n        _index := add(_index, 0x20)              // _index = _index + 0x20\n      }\n\n      let result := staticcall(30000, _resolver, _ptr, _tlen, _ptr, 0x20)\n\n      switch result\n      case 0 {\n        // Nothing here\n      }\n      default {\n        _result := mload(_ptr)\n      }\n    }\n\n    return _result;\n  }\n\n  /**\n   * @dev Processes the funds back to owners\n   * @param _bet Bet struct\n   */\n  function __processRevert(BetLib.Bet memory _bet) private {\n    IVault _vault = IVault(registry.getAddress(\"FanVault\"));\n    uint _backerStake = _bet.backerStake;\n    uint _layerStake = BetLib.backerReturn(_bet, ODDS_DECIMALS);\n\n    require(\n      _vault.transfer(_bet.token, _bet.backer, _backerStake),\n      \"Cannot transfer stake from pool\"\n    );\n\n    require(\n      _vault.transfer(_bet.token, _bet.layer, _layerStake),\n      \"Cannot transfer stake from pool\"\n    );\n  }\n\n  /**\n   * @dev Processes funds when backer loses\n   * @param _bet Bet struct\n   */\n  function __processLose(BetLib.Bet memory _bet) private {\n    IVault _vault = IVault(registry.getAddress(\"FanVault\"));\n    address _consensusManager = registry.getAddress(\"ConsensusManager\");\n\n    uint _backerStake = _bet.backerStake;\n    uint _layerStake = BetLib.backerReturn(_bet, ODDS_DECIMALS);\n\n    uint _totalStakeBeforeFee = _backerStake.add(_layerStake);\n    uint _oracleFee = _totalStakeBeforeFee.div(ORACLE_FEE);\n    uint _totalStakeAfterFee = _totalStakeBeforeFee.sub(_oracleFee);\n\n    require(\n      _vault.transfer(_bet.token, _bet.layer, _totalStakeAfterFee),\n      \"Cannot transfer stake from pool\"\n    );\n\n    require(\n      _vault.transfer(_bet.token, _consensusManager, _oracleFee),\n      \"Cannot transfer stake from pool\"\n    );\n  }\n\n  /**\n   * @dev Processes funds when backer wins\n   * @param _bet Bet struct\n   */\n  function __processWin(BetLib.Bet memory _bet) private {\n    IVault _vault = IVault(registry.getAddress(\"FanVault\"));\n    address _consensusManager = registry.getAddress(\"ConsensusManager\");\n\n    uint _backerStake = _bet.backerStake;\n    uint _layerStake = BetLib.backerReturn(_bet, ODDS_DECIMALS);\n\n    uint _totalStakeBeforeFee = _backerStake.add(_layerStake);\n    uint _oracleFee = _totalStakeBeforeFee.div(ORACLE_FEE);\n    uint _totalStakeAfterFee = _totalStakeBeforeFee.sub(_oracleFee);\n\n    require(\n      _vault.transfer(_bet.token, _bet.backer, _totalStakeAfterFee),\n      \"Cannot transfer stake from pool\"\n    );\n\n    require(\n      _vault.transfer(_bet.token, _consensusManager, _oracleFee),\n      \"Cannot transfer stake from pool\"\n    );\n  }\n\n  /**\n   * @dev Processes funds when backer half loses bet\n   * @param _bet Bet struct\n   */\n  function __processHalfLose(BetLib.Bet memory _bet) private {\n    IVault _vault = IVault(registry.getAddress(\"FanVault\"));\n    address _consensusManager = registry.getAddress(\"ConsensusManager\");\n\n    uint _backerStakeBeforeFee = _bet.backerStake;\n    uint _layerStakeBeforeFee = BetLib.backerReturn(_bet, ODDS_DECIMALS);\n\n    uint _backerOracleFee = _backerStakeBeforeFee.div(ORACLE_FEE);\n    uint _layerOracleFee = _layerStakeBeforeFee.div(ORACLE_FEE);\n\n    uint _backerReturnBeforeFee = _backerStakeBeforeFee.div(2);\n    uint _layerReturnBeforeFee = _layerStakeBeforeFee.add(_backerReturnBeforeFee);\n\n    uint _backerReturnAfterFee = _backerReturnBeforeFee.sub(_backerOracleFee);\n    uint _layerReturnAfterFee = _layerReturnBeforeFee.sub(_layerOracleFee);\n\n    uint _oracleFee = _backerOracleFee.add(_layerOracleFee);\n\n    require(\n      _vault.transfer(_bet.token, _bet.backer, _backerReturnAfterFee),\n      \"Cannot transfer stake from pool\"\n    );\n\n    require(\n      _vault.transfer(_bet.token, _bet.layer, _layerReturnAfterFee),\n      \"Cannot transfer stake from pool\"\n    );\n\n    require(\n      _vault.transfer(_bet.token, _consensusManager, _oracleFee),\n      \"Cannot transfer stake from pool\"\n    );\n\n  }\n\n  /**\n   * @dev Processes funds when backer half wins bet\n   * @param _bet Bet struct\n   */\n  function __processHalfWin(BetLib.Bet memory _bet) private {\n    IVault _vault = IVault(registry.getAddress(\"FanVault\"));\n    address _consensusManager = registry.getAddress(\"ConsensusManager\");\n\n    uint _backerStakeBeforeFee = _bet.backerStake;\n    uint _layerStakeBeforeFee = BetLib.backerReturn(_bet, ODDS_DECIMALS);\n\n    uint _backerOracleFee = _backerStakeBeforeFee.div(ORACLE_FEE);\n    uint _layerOracleFee = _layerStakeBeforeFee.div(ORACLE_FEE);\n\n    uint _layerReturnBeforeFee = _layerStakeBeforeFee.div(2);\n    uint _backerReturnBeforeFee = _backerStakeBeforeFee.add(_layerReturnBeforeFee);\n\n    uint _backerReturnAfterFee = _backerReturnBeforeFee.sub(_backerOracleFee);\n    uint _layerReturnAfterFee = _layerReturnBeforeFee.sub(_layerOracleFee);\n\n    uint _oracleFee = _backerOracleFee.add(_layerOracleFee);\n\n    require(\n      _vault.transfer(_bet.token, _bet.backer, _backerReturnAfterFee),\n      \"Cannot transfer stake from pool\"\n    );\n\n    require(\n      _vault.transfer(_bet.token, _bet.layer, _layerReturnAfterFee),\n      \"Cannot transfer stake from pool\"\n    );\n\n    require(\n      _vault.transfer(_bet.token, _consensusManager, _oracleFee),\n      \"Cannot transfer stake from pool\"\n    );\n  }\n\n  /**\n   * @dev Processes funds when bet results in push\n   * @param _bet Bet struct\n   */\n  function __processPush(BetLib.Bet memory _bet) private {\n    IVault _vault = IVault(registry.getAddress(\"FanVault\"));\n    address _consensusManager = registry.getAddress(\"ConsensusManager\");\n\n    uint _backerStakeBeforeFee = _bet.backerStake;\n    uint _layerStakeBeforeFee = BetLib.backerReturn(_bet, ODDS_DECIMALS);\n\n    uint _backerOracleFee = _backerStakeBeforeFee.div(ORACLE_FEE);\n    uint _layerOracleFee = _layerStakeBeforeFee.div(ORACLE_FEE);\n\n    uint _backerStakeAfterFee = _backerStakeBeforeFee.sub(_backerOracleFee);\n    uint _layerStakeAfterFee = _layerStakeBeforeFee.sub(_layerOracleFee);\n\n    uint _oracleFee = _backerOracleFee.add(_layerOracleFee);\n\n    require(\n      _vault.transfer(_bet.token, _bet.backer, _backerStakeAfterFee),\n      \"Cannot transfer stake from pool\"\n    );\n\n    require(\n      _vault.transfer(_bet.token, _bet.layer, _layerStakeAfterFee),\n      \"Cannot transfer stake from pool\"\n    );\n\n    require(\n      _vault.transfer(_bet.token, _consensusManager, _oracleFee),\n      \"Cannot transfer stake from pool\"\n    );\n  }\n\n  /**\n   * @dev Processes funds in case of a fall back\n   * @param _bet Bet struct\n   */\n  function __processFallBack(BetLib.Bet memory _bet) private {\n    IVault _vault = IVault(registry.getAddress(\"FanVault\"));\n    address _fanOrg = registry.getAddress(\"FanOrg\");\n\n    uint _backerStake = _bet.backerStake;\n    uint _layerStake = BetLib.backerReturn(_bet, ODDS_DECIMALS);\n    uint _totalStake = _backerStake.add(_layerStake);\n\n    require(\n      _vault.transfer(_bet.token, _fanOrg, _totalStake),\n      \"Cannot transfer stake from pool\"\n    );\n  }\n\n}\n",
  "sourcePath": "/Users/ryancimoszko/fu/fansunite-js/node_modules/fansunite-core/contracts/BetManager.sol",
  "compiler": {
    "name": "solc",
    "version": "0.4.24+commit.e67f0147.Emscripten.clang"
  },
  "schemaVersion": "2.0.1",
  "updatedAt": "2018-10-08T22:20:16.099Z"
}