{
  "contractName": "BetManager",
  "abi": [
    {
      "constant": true,
      "inputs": [],
      "name": "ORACLE_FEE",
      "outputs": [
        {
          "name": "",
          "type": "uint256"
        }
      ],
      "payable": false,
      "stateMutability": "view",
      "type": "function"
    },
    {
      "constant": true,
      "inputs": [],
      "name": "DOMAIN_SEPARATOR",
      "outputs": [
        {
          "name": "",
          "type": "bytes32"
        }
      ],
      "payable": false,
      "stateMutability": "view",
      "type": "function"
    },
    {
      "constant": true,
      "inputs": [],
      "name": "getRegistryContract",
      "outputs": [
        {
          "name": "",
          "type": "address"
        }
      ],
      "payable": false,
      "stateMutability": "view",
      "type": "function"
    },
    {
      "constant": true,
      "inputs": [],
      "name": "ODDS_DECIMALS",
      "outputs": [
        {
          "name": "",
          "type": "uint256"
        }
      ],
      "payable": false,
      "stateMutability": "view",
      "type": "function"
    },
    {
      "constant": false,
      "inputs": [],
      "name": "renounceOwnership",
      "outputs": [],
      "payable": false,
      "stateMutability": "nonpayable",
      "type": "function"
    },
    {
      "constant": true,
      "inputs": [],
      "name": "CHAIN_ID",
      "outputs": [
        {
          "name": "",
          "type": "uint256"
        }
      ],
      "payable": false,
      "stateMutability": "view",
      "type": "function"
    },
    {
      "constant": true,
      "inputs": [],
      "name": "owner",
      "outputs": [
        {
          "name": "",
          "type": "address"
        }
      ],
      "payable": false,
      "stateMutability": "view",
      "type": "function"
    },
    {
      "constant": true,
      "inputs": [],
      "name": "isOwner",
      "outputs": [
        {
          "name": "",
          "type": "bool"
        }
      ],
      "payable": false,
      "stateMutability": "view",
      "type": "function"
    },
    {
      "constant": false,
      "inputs": [
        {
          "name": "newOwner",
          "type": "address"
        }
      ],
      "name": "transferOwnership",
      "outputs": [],
      "payable": false,
      "stateMutability": "nonpayable",
      "type": "function"
    },
    {
      "inputs": [
        {
          "name": "_chainId",
          "type": "uint256"
        },
        {
          "name": "_registry",
          "type": "address"
        }
      ],
      "payable": false,
      "stateMutability": "nonpayable",
      "type": "constructor"
    },
    {
      "anonymous": false,
      "inputs": [
        {
          "indexed": true,
          "name": "_hash",
          "type": "bytes32"
        },
        {
          "indexed": true,
          "name": "_backer",
          "type": "address"
        },
        {
          "indexed": true,
          "name": "_layer",
          "type": "address"
        },
        {
          "indexed": false,
          "name": "_subjects",
          "type": "address[3]"
        },
        {
          "indexed": false,
          "name": "_params",
          "type": "uint256[4]"
        },
        {
          "indexed": false,
          "name": "_nonce",
          "type": "uint256"
        },
        {
          "indexed": false,
          "name": "_payload",
          "type": "bytes"
        }
      ],
      "name": "LogBetSubmitted",
      "type": "event"
    },
    {
      "anonymous": false,
      "inputs": [
        {
          "indexed": true,
          "name": "_hash",
          "type": "bytes32"
        },
        {
          "indexed": false,
          "name": "_result",
          "type": "uint256"
        }
      ],
      "name": "LogBetClaimed",
      "type": "event"
    },
    {
      "anonymous": false,
      "inputs": [
        {
          "indexed": true,
          "name": "_layer",
          "type": "address"
        },
        {
          "indexed": false,
          "name": "_league",
          "type": "address"
        },
        {
          "indexed": false,
          "name": "_resolver",
          "type": "address"
        },
        {
          "indexed": false,
          "name": "_token",
          "type": "address"
        },
        {
          "indexed": false,
          "name": "_fixture",
          "type": "uint256"
        },
        {
          "indexed": false,
          "name": "_segment",
          "type": "bytes32"
        }
      ],
      "name": "LogPayoutClaimed",
      "type": "event"
    },
    {
      "anonymous": false,
      "inputs": [
        {
          "indexed": false,
          "name": "_old",
          "type": "uint256"
        },
        {
          "indexed": false,
          "name": "_new",
          "type": "uint256"
        }
      ],
      "name": "LogChainIdUpdated",
      "type": "event"
    },
    {
      "anonymous": false,
      "inputs": [
        {
          "indexed": true,
          "name": "previousOwner",
          "type": "address"
        }
      ],
      "name": "OwnershipRenounced",
      "type": "event"
    },
    {
      "anonymous": false,
      "inputs": [
        {
          "indexed": true,
          "name": "previousOwner",
          "type": "address"
        },
        {
          "indexed": true,
          "name": "newOwner",
          "type": "address"
        }
      ],
      "name": "OwnershipTransferred",
      "type": "event"
    },
    {
      "constant": false,
      "inputs": [
        {
          "name": "_subjects",
          "type": "address[5]"
        },
        {
          "name": "_params",
          "type": "uint256[4]"
        },
        {
          "name": "_nonce",
          "type": "uint256"
        },
        {
          "name": "_payload",
          "type": "bytes"
        },
        {
          "name": "_signature",
          "type": "bytes"
        }
      ],
      "name": "submitBet",
      "outputs": [],
      "payable": false,
      "stateMutability": "nonpayable",
      "type": "function"
    },
    {
      "constant": false,
      "inputs": [
        {
          "name": "_subjects",
          "type": "address[5]"
        },
        {
          "name": "_params",
          "type": "uint256[4]"
        },
        {
          "name": "_nonce",
          "type": "uint256"
        },
        {
          "name": "_payload",
          "type": "bytes"
        }
      ],
      "name": "claimBet",
      "outputs": [],
      "payable": false,
      "stateMutability": "nonpayable",
      "type": "function"
    },
    {
      "constant": false,
      "inputs": [
        {
          "name": "_league",
          "type": "address"
        },
        {
          "name": "_resolver",
          "type": "address"
        },
        {
          "name": "_token",
          "type": "address"
        },
        {
          "name": "_fixture",
          "type": "uint256"
        },
        {
          "name": "_segment",
          "type": "bytes32"
        }
      ],
      "name": "claimPayout",
      "outputs": [],
      "payable": false,
      "stateMutability": "nonpayable",
      "type": "function"
    },
    {
      "constant": true,
      "inputs": [
        {
          "name": "_league",
          "type": "address"
        },
        {
          "name": "_resolver",
          "type": "address"
        },
        {
          "name": "_fixture",
          "type": "uint256"
        },
        {
          "name": "_payload",
          "type": "bytes"
        }
      ],
      "name": "getResult",
      "outputs": [
        {
          "name": "",
          "type": "uint256"
        }
      ],
      "payable": false,
      "stateMutability": "view",
      "type": "function"
    },
    {
      "constant": false,
      "inputs": [
        {
          "name": "_chainId",
          "type": "uint256"
        }
      ],
      "name": "setChainId",
      "outputs": [],
      "payable": false,
      "stateMutability": "nonpayable",
      "type": "function"
    }
  ],
  "bytecode": "0x60806040523480156200001157600080fd5b50604051604080620044f28339810160405280516020909101516000805433600160a060020a03199182161790915560018054909116600160a060020a038316179055620000688264010000000062000070810204565b5050620001b4565b6002819055604080517f454950373132446f6d61696e28737472696e67206e616d652c75696e7432353681527f20636861696e49642c6164647265737320766572696679696e67436f6e7472616020808301919091527f63742900000000000000000000000000000000000000000000000000000000008284015282519182900360430182207f46616e73556e6974652050726f746f636f6c000000000000000000000000000083528351928390036012018320838301919091528284015260608201849052306080808401919091528351808403909101815260a090920192839052815191929182918401908083835b60208310620001825780518252601f19909201916020918201910162000161565b5181516020939093036101000a6000190180199091169216919091179052604051920182900390912060035550505050565b61432e80620001c46000396000f3006080604052600436106100b65763ffffffff60e060020a60003504166331d8a98581146100bb5780633644e515146100e257806336ca3d73146100f7578063429da40a14610128578063715018a61461013d57806385e1f4d014610154578063860896ec146101695780638da5cb5b1461019c5780638f32d59b146101b15780639b839450146101da578063a33a3a3914610210578063ef0e2ff414610239578063f2fde38b14610251578063f923cfb314610272575b600080fd5b3480156100c757600080fd5b506100d06102ab565b60408051918252519081900360200190f35b3480156100ee57600080fd5b506100d06102b1565b34801561010357600080fd5b5061010c6102b7565b60408051600160a060020a039092168252519081900360200190f35b34801561013457600080fd5b506100d06102c7565b34801561014957600080fd5b506101526102cc565b005b34801561016057600080fd5b506100d0610334565b34801561017557600080fd5b50610152600160a060020a036004358116906024358116906044351660643560843561033a565b3480156101a857600080fd5b5061010c61046e565b3480156101bd57600080fd5b506101c661047d565b604080519115158252519081900360200190f35b3480156101e657600080fd5b50610152600460a4610124356101443560248181019185013590610164359081019086013561048e565b34801561021c57600080fd5b50610152600460a4610124356101443560248101908401356106e7565b34801561024557600080fd5b50610152600435610885565b34801561025d57600080fd5b50610152600160a060020a03600435166108e6565b34801561027e57600080fd5b506100d0600160a060020a0360048035821691602480359091169160443591606435908101910135610905565b61019081565b60035481565b600154600160a060020a03165b90565b600481565b6102d461047d565b15156102df57600080fd5b60008054604051600160a060020a03909116917ff8df31144d9c2f0f6b59d69b8b98abd5459d07f2742c4df920b25aae33c6482091a26000805473ffffffffffffffffffffffffffffffffffffffff19169055565b60025481565b600061034a33878787878761094d565b60008181526005602052604090205490915060ff16156103da576040805160e560020a62461bcd02815260206004820152602d60248201527f43616e6e6f742072652d636c61696d20706f736974696f6e20666f722067697660448201527f656e20706172616d657465727300000000000000000000000000000000000000606482015290519081900360840190fd5b6000818152600560209081526040808320805460ff191660011790556006909152902061040a9087878787610a08565b60408051600160a060020a03888116825287811660208301528616818301526060810185905260808101849052905133917fb709e8118a8eeaea174e15cdb3099b5cbbb786de72c613b5a827579bff7598e8919081900360a00190a2505050505050565b600054600160a060020a031690565b600054600160a060020a0316331490565b6104966141a2565b6000610513896005806020026040519081016040528092919082600560200280828437505060408051608081810190925293508d92506004915083908390808284375050604080516020601f8e018190048102820181019092528c81528e945092508c91508b908190840183828082843750610c4e945050505050565b915061052182600354610cd9565b905061055e828286868080601f01602080910402602001604051908101604052809392919081815260200183838082843750611213945050505050565b61056782611471565b61057082611854565b61057a8282611f19565b8160200151600160a060020a03168260000151600160a060020a031682600019167f8dc61913ee8b0c3c30d3073f36ed3d12dcea1dcaa3e9d83d9def86e1a466dbf56060604051908101604052808760400151600160a060020a0316600160a060020a031681526020018760600151600160a060020a0316600160a060020a031681526020018760800151600160a060020a0316600160a060020a03168152506080604051908101604052808860a0015181526020018860c0015181526020018860e0015181526020018861010001518152508c8c8c6040518086600360200280838360005b83811015610678578181015183820152602001610660565b5050505090500185600460200280838360005b838110156106a357818101518382015260200161068b565b5050505090500184815260200180602001828103825284848281815260200192508082843760405192018290039850909650505050505050a4505050505050505050565b6106ef6141a2565b60008061076d886005806020026040519081016040528092919082600560200280828437505060408051608081810190925293508c92506004915083908390808284375050604080516020601f8d018190048102820181019092528b81528d945092508b91508a908190840183828082843750610c4e945050505050565b925061077b83600354610cd9565b60008181526004602052604090205490925060ff16151561080c576040805160e560020a62461bcd02815260206004820152603b60248201527f426574207769746820676976656e20706172616d65746572732065697468657260448201527f20636c61696d6564206f72206e65766572207375626d69747465640000000000606482015290519081900360840190fd5b6000828152600460209081526040808320805460ff199081169091556005909252909120805490911660011790556108438361232b565b60408051828152905191925083917ff53bfa6342bbc051898502863a9f79991cc4f8759b484710ee0c356d019bd2ae9181900360200190a25050505050505050565b600061088f61047d565b151561089a57600080fd5b506002546108a7826124c0565b604080518281526020810184905281517f6e7b1c0fef63382f05aa7c9cbe8f66c67fbb68e0892f8e8347b0ea3ef615850c929181900390910190a15050565b6108ee61047d565b15156108f957600080fd5b61090281612602565b50565b600061094386868686868080601f0160208091040260200160405190810160405280939291908181526020018383808284375061267f945050505050565b9695505050505050565b60408051600160a060020a03808916602080840191909152818916838501528188166060840152908616608083015260a0820185905260c08083018590528351808403909101815260e0909201928390528151600093849392909182918401908083835b602083106109d05780518252601f1990920191602091820191016109b1565b5181516020939093036101000a600019018019909116921691909117905260405192018290039091209b9a5050505050505050505050565b600285015460009081908110610a8e576040805160e560020a62461bcd02815260206004820152602360248201527f4e6f2062657473207265636f7264656420666f7220676976656e20706f73697460448201527f696f6e0000000000000000000000000000000000000000000000000000000000606482015290519081900360840190fd5b6001546040805160e060020a63bf40fac1028152602060048201819052600860248301526000805160206142c383398151915260448301529151600160a060020a039093169263bf40fac1926064808401939192918290030181600087803b158015610af957600080fd5b505af1158015610b0d573d6000803e3d6000fd5b505050506040513d6020811015610b2357600080fd5b50519150610b338787878661283a565b9050801515610b4157610c45565b6040805160e360020a6317d57599028152600160a060020a0386811660048301523360248301526044820184905291519184169163beabacc8916064808201926020929091908290030181600087803b158015610b9d57600080fd5b505af1158015610bb1573d6000803e3d6000fd5b505050506040513d6020811015610bc757600080fd5b50511515610c45576040805160e560020a62461bcd02815260206004820152602560248201527f43616e6e6f74207472616e73666572206c61796572207374616b652066726f6d60448201527f20706f6f6c000000000000000000000000000000000000000000000000000000606482015290519081900360840190fd5b50505050505050565b610c566141a2565b5060408051610160810182528551600160a060020a0390811682526020808801518216818401528784015182168385015260608089015183168185015260809889015190921697830197909752855160a08301529585015160c08201529084015160e0820152929093015161010083015261012082015261014081019190915290565b600060606000846000015185602001518660400151876060015188608001518960a001518a60c001518b60e001518c61010001518d6101200151604051602001808b600160a060020a0316600160a060020a031681526020018a600160a060020a0316600160a060020a0316815260200189600160a060020a0316600160a060020a0316815260200188600160a060020a0316600160a060020a0316815260200187600160a060020a0316600160a060020a031681526020018681526020018581526020018481526020018381526020018281526020019a505050505050505050505060405160208183030381529060405291508360405160200180807f4265742800000000000000000000000000000000000000000000000000000000815250600401807f61646472657373206261636b65722c0000000000000000000000000000000000815250600f01807f61646472657373206c617965722c000000000000000000000000000000000000815250600e01807f6164647265737320746f6b656e2c000000000000000000000000000000000000815250600e01807f61646472657373206c65616775652c0000000000000000000000000000000000815250600f01807f61646472657373207265736f6c7665722c000000000000000000000000000000815250601101807f75696e74323536206261636b65725374616b652c000000000000000000000000815250601401807f75696e7432353620666978747572652c00000000000000000000000000000000815250601001807f75696e74323536206f6464732c00000000000000000000000000000000000000815250600d01807f75696e743235362065787069726174696f6e2c00000000000000000000000000815250601301807f75696e74323536206e6f6e63652c000000000000000000000000000000000000815250600e01807f6279746573207061796c6f616400000000000000000000000000000000000000815250600d01807f290000000000000000000000000000000000000000000000000000000000000081525060010190506040516020818303038152906040526040518082805190602001908083835b6020831061101d5780518252601f199092019160209182019101610ffe565b51815160209384036101000a60001901801990921691161790526040519190930181900381206101408c015180519196508995509391925082918401908083835b6020831061107d5780518252601f19909201916020918201910161105e565b51815160209384036101000a600019018019909216911617905260408051929094018290038220828201898152885191975095509190930192860191508083835b602083106110dd5780518252601f1990920191602091820191016110be565b51815160209384036101000a60001901801990921691161790529201938452506040805180850381529382019081905283519395509350839290850191508083835b6020831061113e5780518252601f19909201916020918201910161111f565b51815160209384036101000a6000190180199092169116179052604080519290940182900382207f190100000000000000000000000000000000000000000000000000000000000083830152602283019790975260428083019790975283518083039097018752606290910192839052855192945084935085019190508083835b602083106111de5780518252601f1990920191602091820191016111bf565b5181516020939093036101000a6000190180199091169216919091179052604051920182900390912098975050505050505050565b6020830151600160a060020a0316331461129d576040805160e560020a62461bcd02815260206004820152602f60248201527f426574206973206e6f74207065726d697474656420666f7220746865206d736760448201527f2e73656e64657220746f2074616b650000000000000000000000000000000000606482015290519081900360840190fd5b8251600160a060020a0316158015906112c057508251600160a060020a03163314155b151561133c576040805160e560020a62461bcd02815260206004820152602f60248201527f426574206973206e6f74207065726d697474656420666f7220746865206d736760448201527f2e73656e64657220746f2074616b650000000000000000000000000000000000606482015290519081900360840190fd5b60008281526005602052604090205460ff1680611367575060008281526004602052604090205460ff165b156113e2576040805160e560020a62461bcd02815260206004820152602860248201527f42657420776974682073616d652068617368206265656e207375626d6974746560448201527f64206265666f7265000000000000000000000000000000000000000000000000606482015290519081900360840190fd5b6113f182846000015183612ca7565b151561146c576040805160e560020a62461bcd028152602060048201526024808201527f54782069732073656e74207769746820616e20696e76616c6964207369676e6160448201527f7475726500000000000000000000000000000000000000000000000000000000606482015290519081900360840190fd5b505050565b6001546040805160e060020a63bf40fac1028152602060048201819052600860248301526000805160206142c383398151915260448301529151600093600160a060020a03169263bf40fac1926064808201939182900301818787803b1580156114da57600080fd5b505af11580156114ee573d6000803e3d6000fd5b505050506040513d602081101561150457600080fd5b50518251604080517fa389783e000000000000000000000000000000000000000000000000000000008152600160a060020a03928316600482015230602482015290519293509083169163a389783e916044808201926020929091908290030181600087803b15801561157657600080fd5b505af115801561158a573d6000803e3d6000fd5b505050506040513d60208110156115a057600080fd5b5051151561161e576040805160e560020a62461bcd02815260206004820152603960248201527f4261636b657220686173206e6f7420617070726f766564204265744d616e616760448201527f657220746f206d6f76652066756e647320696e205661756c7400000000000000606482015290519081900360840190fd5b602080830151604080517fa389783e000000000000000000000000000000000000000000000000000000008152600160a060020a03928316600482015230602482015290519184169263a389783e926044808401938290030181600087803b15801561168957600080fd5b505af115801561169d573d6000803e3d6000fd5b505050506040513d60208110156116b357600080fd5b50511515611731576040805160e560020a62461bcd02815260206004820152603860248201527f4c6179657220686173206e6f7420617070726f766564204265744d616e61676560448201527f7220746f206d6f76652066756e647320696e205661756c740000000000000000606482015290519081900360840190fd5b60a0820151604080840151845182517ff7888aec000000000000000000000000000000000000000000000000000000008152600160a060020a039283166004820152908216602482015291519084169163f7888aec9160448083019260209291908290030181600087803b1580156117a857600080fd5b505af11580156117bc573d6000803e3d6000fd5b505050506040513d60208110156117d257600080fd5b50511015611850576040805160e560020a62461bcd02815260206004820152602660248201527f4261636b657220646f6573206e6f7420686176652073756666696369656e742060448201527f746f6b656e730000000000000000000000000000000000000000000000000000606482015290519081900360840190fd5b5050565b6001546040805160e060020a63bf40fac1028152602060048201819052600e60248301527f4c65616775655265676973747279000000000000000000000000000000000000604483015291516000938493600160a060020a039091169263bf40fac1926064808301939282900301818787803b1580156118d357600080fd5b505af11580156118e7573d6000803e3d6000fd5b505050506040513d60208110156118fd57600080fd5b50516001546040805160e060020a63bf40fac1028152602060048201819052601060248301527f5265736f6c76657252656769737472790000000000000000000000000000000060448301529151939550600160a060020a039092169263bf40fac19260648082019392918290030181600087803b15801561197e57600080fd5b505af1158015611992573d6000803e3d6000fd5b505050506040513d60208110156119a857600080fd5b50516060840151604080517f0db76ca5000000000000000000000000000000000000000000000000000000008152600160a060020a039283166004820152905192935090841691630db76ca5916024808201926020929091908290030181600087803b158015611a1757600080fd5b505af1158015611a2b573d6000803e3d6000fd5b505050506040513d6020811015611a4157600080fd5b50511515611abf576040805160e560020a62461bcd02815260206004820152602760248201527f4c6561677565206973206e6f742072656769737465726564207769746820466160448201527f6e73556e69746500000000000000000000000000000000000000000000000000606482015290519081900360840190fd5b60608301516080840151604080517fa3a60eba000000000000000000000000000000000000000000000000000000008152600160a060020a0393841660048201529183166024830152519183169163a3a60eba916044808201926020929091908290030181600087803b158015611b3557600080fd5b505af1158015611b49573d6000803e3d6000fd5b505050506040513d6020811015611b5f57600080fd5b50511515611bdd576040805160e560020a62461bcd02815260206004820152602260248201527f5265736f6c766572206973206e6f7420757361626c652077697468206c65616760448201527f7565000000000000000000000000000000000000000000000000000000000000606482015290519081900360840190fd5b8260600151600160a060020a031663e239c9528460c001516040518263ffffffff1660e060020a02815260040180828152602001915050602060405180830381600087803b158015611c2e57600080fd5b505af1158015611c42573d6000803e3d6000fd5b505050506040513d6020811015611c5857600080fd5b50511515611cd5576040805160e560020a62461bcd028152602060048201526024808201527f46697874757265206973206e6f74207363686564756c65642077697468204c6560448201527f6167756500000000000000000000000000000000000000000000000000000000606482015290519081900360840190fd5b8260600151600160a060020a0316635a83e3dd8460c0015185608001516040518363ffffffff1660e060020a0281526004018083815260200182600160a060020a0316600160a060020a0316815260200192505050602060405180830381600087803b158015611d4457600080fd5b505af1158015611d58573d6000803e3d6000fd5b505050506040513d6020811015611d6e57600080fd5b505115611dc5576040805160e560020a62461bcd02815260206004820152601a60248201527f4d61726b657420697320616c7265616479207265736f6c766564000000000000604482015290519081900360640190fd5b60a0830151600010611e47576040805160e560020a62461bcd02815260206004820152602160248201527f5374616b6520646f6573206e6f742062656c6f6e6720746f2073657420e2849d60448201527f2b00000000000000000000000000000000000000000000000000000000000000606482015290519081900360840190fd5b611e5a600161271063ffffffff612ccf16565b60e084015111611eb4576040805160e560020a62461bcd02815260206004820152601660248201527f4f6464732063616e6e6f7420626520756e646572203100000000000000000000604482015290519081900360640190fd5b6101008301514210611f10576040805160e560020a62461bcd02815260206004820152600f60248201527f4265742068617320657870697265640000000000000000000000000000000000604482015290519081900360640190fd5b61146c83612d04565b6001546040805160e060020a63bf40fac1028152602060048201819052600860248301526000805160206142c38339815191526044830152915160009384938493600160a060020a039092169263bf40fac192606480820193929182900301818787803b158015611f8957600080fd5b505af1158015611f9d573d6000803e3d6000fd5b505050506040513d6020811015611fb357600080fd5b50516000858152600460205260409020805460ff191660011790559250611fd985612e67565b611fe2856130fb565b604080880151885160a08a015183517f15dacbea000000000000000000000000000000000000000000000000000000008152600160a060020a039384166004820152918316602483015230604483015260648201529151939550919350908516916315dacbea916084808201926020929091908290030181600087803b15801561206b57600080fd5b505af115801561207f573d6000803e3d6000fd5b505050506040513d602081101561209557600080fd5b50511515612113576040805160e560020a62461bcd02815260206004820152602660248201527f43616e6e6f74207472616e73666572206261636b65722773207374616b65207460448201527f6f20706f6f6c0000000000000000000000000000000000000000000000000000606482015290519081900360840190fd5b81151561211f57612324565b80156122515760408086015160208088015183517f15dacbea000000000000000000000000000000000000000000000000000000008152600160a060020a0393841660048201529083166024820152306044820152606481018690529251918616926315dacbea92608480830193928290030181600087803b1580156121a457600080fd5b505af11580156121b8573d6000803e3d6000fd5b505050506040513d60208110156121ce57600080fd5b5051151561224c576040805160e560020a62461bcd02815260206004820152602560248201527f43616e6e6f74207472616e73666572206c617965722773207374616b6520746f60448201527f20706f6f6c000000000000000000000000000000000000000000000000000000606482015290519081900360840190fd5b612324565b604080860151602080880151835160e360020a6317d57599028152600160a060020a03938416600482015290831660248201526044810186905292519186169263beabacc892606480830193928290030181600087803b1580156122b457600080fd5b505af11580156122c8573d6000803e3d6000fd5b505050506040513d60208110156122de57600080fd5b50511515612324576040805160e560020a62461bcd02815260206004820152601f60248201526000805160206142e3833981519152604482015290519081900360640190fd5b5050505050565b600080600061234d846060015185608001518660c0015187610140015161267f565b9150428460600151600160a060020a0316632cb0a2e58660c001516040518263ffffffff1660e060020a02815260040180828152602001915050602060405180830381600087803b1580156123a157600080fd5b505af11580156123b5573d6000803e3d6000fd5b505050506040513d60208110156123cb57600080fd5b505162093a80011115905060008211806123e25750805b1515612438576040805160e560020a62461bcd02815260206004820152601a60248201527f4265742063616e6e6f74206265207265736f6c76656420796574000000000000604482015290519081900360640190fd5b81151561244d57612448846133f8565b6124b9565b816001141561245f5761244884610902565b81600214156124715761244884613566565b816003141561248357612448846136fd565b81600414156124955761244884613885565b81600514156124a757612448846133f8565b81600614156124b9576124b9846133f8565b5092915050565b6002819055604080517f454950373132446f6d61696e28737472696e67206e616d652c75696e7432353681527f20636861696e49642c6164647265737320766572696679696e67436f6e7472616020808301919091527f63742900000000000000000000000000000000000000000000000000000000008284015282519182900360430182207f46616e73556e6974652050726f746f636f6c000000000000000000000000000083528351928390036012018320838301919091528284015260608201849052306080808401919091528351808403909101815260a090920192839052815191929182918401908083835b602083106125d05780518252601f1990920191602091820191016125b1565b5181516020939093036101000a6000190180199091169216919091179052604051920182900390912060035550505050565b600160a060020a038116151561261757600080fd5b60008054604051600160a060020a03808516939216917f8be0079c531659141344cd1fd0a4f28419497f9722a3daafe3b4186f6b6457e091a36000805473ffffffffffffffffffffffffffffffffffffffff1916600160a060020a0392909216919091179055565b6000606085600160a060020a0316635a83e3dd85876040518363ffffffff1660e060020a0281526004018083815260200182600160a060020a0316600160a060020a0316815260200192505050602060405180830381600087803b1580156126e657600080fd5b505af11580156126fa573d6000803e3d6000fd5b505050506040513d602081101561271057600080fd5b505115156127215760009150612831565b85600160a060020a031663e78341e685876040518363ffffffff1660e060020a0281526004018083815260200182600160a060020a0316600160a060020a0316815260200192505050600060405180830381600087803b15801561278457600080fd5b505af1158015612798573d6000803e3d6000fd5b505050506040513d6000823e601f3d908101601f1916820160405260208110156127c157600080fd5b8101908080516401000000008111156127d957600080fd5b820160208101848111156127ec57600080fd5b815164010000000081118282018710171561280657600080fd5b50508051909450151592506128219150505760069150612831565b61282e86868686856139c2565b91505b50949350505050565b600080600080600080600061284e8b613b64565b9350600092505b60028b0154831015612c4a576129108a8a8a8e6002018781548110151561287857fe5b600091825260209182902001805460408051601f60026000196101006001871615020190941693909304928301859004850281018501909152818152928301828280156129065780601f106128db57610100808354040283529160200191612906565b820191906000526020600020905b8154815290600101906020018083116128e957829003601f168201915b505050505061267f565b91508115156129f957428a600160a060020a0316632cb0a2e58a6040518263ffffffff1660e060020a02815260040180828152602001915050602060405180830381600087803b15801561296357600080fd5b505af1158015612977573d6000803e3d6000fd5b505050506040513d602081101561298d57600080fd5b505162093a800111159050806129ed576040805160e560020a62461bcd02815260206004820152601c60248201527f436c61696d2063616e6e6f74206265207265736f6c7665642079657400000000604482015290519081900360640190fd5b83945060009550612c4a565b8160011415612aa757612aa08b6001018c60020185815481101515612a1a57fe5b906000526020600020016040518082805460018160011615610100020316600290048015612a7f5780601f10612a5d576101008083540402835291820191612a7f565b820191906000526020600020905b815481529060010190602001808311612a6b575b5050928352505060405190819003602001902054869063ffffffff613bbe16565b9450612c3f565b8160021415612b435760028b0180548c919085908110612ac357fe5b906000526020600020016040518082805460018160011615610100020316600290048015612b285780601f10612b06576101008083540402835291820191612b28565b820191906000526020600020905b815481529060010190602001808311612b14575b50509150509081526020016040518091039020549550612c3f565b8160031415612beb57612aa060028c6001018d60020186815481101515612b6657fe5b906000526020600020016040518082805460018160011615610100020316600290048015612bcb5780601f10612ba9576101008083540402835291820191612bcb565b820191906000526020600020905b815481529060010190602001808311612bb7575b50509283525050604051908190036020019020549063ffffffff613bd016565b8160041415612c1557612c0e60028c6000018d60020186815481101515612b6657fe5b9550612c3f565b8160051415612c2a5783945060009550612c4a565b8160061415612c3f5783945060009550612c4a565b600190920191612855565b84861115612c7957612c72612c65878763ffffffff613bf316565b859063ffffffff613bf316565b9650612c99565b612c72612c8c868863ffffffff613bf316565b859063ffffffff613bbe16565b505050505050949350505050565b600082600160a060020a0316612cbd8584613c0a565b600160a060020a031614949350505050565b600080831515612ce257600091506124b9565b50828202828482811515612cf257fe5b0414612cfd57600080fd5b9392505050565b6000806000806000606086608001519450866060015193508660c00151925084600160a060020a031663943e25a16040518163ffffffff1660e060020a028152600401602060405180830381600087803b158015612d6157600080fd5b505af1158015612d75573d6000803e3d6000fd5b505050506040513d6020811015612d8b57600080fd5b5051610140880151805160408051604481840181019092528481526004810189905260248101889052939550919350918183019160208086019291820190858701015b80841015612de9578351825260209384019390910190612dce565b5060208285848d617530fa808015612e045783519c50612e09565b60009c505b50505050505050851515610c45576040805160e560020a62461bcd02815260206004820152601860248201527f426574207061796c6f6164206973206e6f742076616c69640000000000000000604482015290519081900360640190fd5b6001546040805160e060020a63bf40fac1028152602060048201819052600860248301526000805160206142c38339815191526044830152915160009384938493600160a060020a039092169263bf40fac192606480820193929182900301818787803b158015612ed757600080fd5b505af1158015612eeb573d6000803e3d6000fd5b505050506040513d6020811015612f0157600080fd5b50516001546040805160e060020a63bf40fac1028152602060048201819052601060248301527f436f6e73656e7375734d616e616765720000000000000000000000000000000060448301529151939650600160a060020a039092169263bf40fac19260648082019392918290030181600087803b158015612f8257600080fd5b505af1158015612f96573d6000803e3d6000fd5b505050506040513d6020811015612fac57600080fd5b505160a0850151909250612fc89061019063ffffffff613bd016565b60408086015160208088015183517f15dacbea000000000000000000000000000000000000000000000000000000008152600160a060020a03938416600482015290831660248201528683166044820152606481018590529251939450908616926315dacbea9260848082019392918290030181600087803b15801561304d57600080fd5b505af1158015613061573d6000803e3d6000fd5b505050506040513d602081101561307757600080fd5b505115156130f5576040805160e560020a62461bcd02815260206004820152602560248201527f43616e6e6f74207472616e73666572206f7261636c65206665652066726f6d2060448201527f6c61796572000000000000000000000000000000000000000000000000000000606482015290519081900360840190fd5b50505050565b60008060008060008061310d87613e32565b9350836001018761014001516040518082805190602001908083835b602083106131485780518252601f199092019160209182019101613129565b51815160209384036101000a60001901801990921691161790529201948552506040519384900301909220541515915061323490505760028401546003116131ff576040805160e560020a62461bcd028152602060048201526024808201527f43616e6e6f742068617665206d6f7265207468616e207468726565206f75746360448201527f6f6d657300000000000000000000000000000000000000000000000000000000606482015290519081900360840190fd5b61014087015160028501805460018101808355600092835260209283902084519194613231949190930192019061422a565b50505b61323d84613b64565b925061324a876004613e8e565b91506132be82856000018961014001516040518082805190602001908083835b602083106132895780518252601f19909201916020918201910161326a565b51815160209384036101000a600019018019909216911617905292019485525060405193849003019092205492915050613bbe565b846000018861014001516040518082805190602001908083835b602083106132f75780518252601f1990920191602091820191016132d8565b51815160001960209485036101000a01908116901991909116179052920194855250604051938490038101842094909455505060a08901516101408a0151805161336b94929360018a019390918291840190808383602083106132895780518252601f19909201916020918201910161326a565b846001018861014001516040518082805190602001908083835b602083106133a45780518252601f199092019160209182019101613385565b51815160209384036101000a6000190180199092169116179052920194855250604051938490030190922092909255506133df905084613b64565b90506133eb8382613ee0565b9550955050505050915091565b6001546040805160e060020a63bf40fac1028152602060048201819052600860248301526000805160206142c383398151915260448301529151600093600160a060020a03169263bf40fac1926064808201939182900301818787803b15801561346157600080fd5b505af1158015613475573d6000803e3d6000fd5b505050506040513d602081101561348b57600080fd5b5051604080840151845160a0860151835160e360020a6317d57599028152600160a060020a03938416600482015291831660248301526044820152915192935083169163beabacc8916064808201926020929091908290030181600087803b1580156134f657600080fd5b505af115801561350a573d6000803e3d6000fd5b505050506040513d602081101561352057600080fd5b50511515611850576040805160e560020a62461bcd02815260206004820152601f60248201526000805160206142e3833981519152604482015290519081900360640190fd5b6001546040805160e060020a63bf40fac1028152602060048201819052600860248301526000805160206142c38339815191526044830152915160009384938493600160a060020a039092169263bf40fac192606480820193929182900301818787803b1580156135d657600080fd5b505af11580156135ea573d6000803e3d6000fd5b505050506040513d602081101561360057600080fd5b5051925061360f846004613e8e565b60a0850151909250613627908363ffffffff613bbe16565b6040808601518651825160e360020a6317d57599028152600160a060020a039283166004820152908216602482015260448101849052915192935085169163beabacc8916064808201926020929091908290030181600087803b15801561368d57600080fd5b505af11580156136a1573d6000803e3d6000fd5b505050506040513d60208110156136b757600080fd5b505115156130f5576040805160e560020a62461bcd02815260206004820152601f60248201526000805160206142e3833981519152604482015290519081900360640190fd5b6001546040805160e060020a63bf40fac1028152602060048201819052600860248301526000805160206142c3833981519152604483015291516000938493600160a060020a039091169263bf40fac1926064808301939282900301818787803b15801561376a57600080fd5b505af115801561377e573d6000803e3d6000fd5b505050506040513d602081101561379457600080fd5b505160a08401519092506137af90600263ffffffff613bd016565b6040808501518551825160e360020a6317d57599028152600160a060020a039283166004820152908216602482015260448101849052915192935084169163beabacc8916064808201926020929091908290030181600087803b15801561381557600080fd5b505af1158015613829573d6000803e3d6000fd5b505050506040513d602081101561383f57600080fd5b5051151561146c576040805160e560020a62461bcd02815260206004820152601f60248201526000805160206142e3833981519152604482015290519081900360640190fd5b6001546040805160e060020a63bf40fac1028152602060048201819052600860248301526000805160206142c383398151915260448301529151600093849384938493600160a060020a039093169263bf40fac19260648084019391929182900301818787803b1580156138f857600080fd5b505af115801561390c573d6000803e3d6000fd5b505050506040513d602081101561392257600080fd5b50519350613931856004613e8e565b925061394483600263ffffffff613bd016565b60a086015190925061395c908363ffffffff613bbe16565b6040808701518751825160e360020a6317d57599028152600160a060020a039283166004820152908216602482015260448101849052915192935086169163beabacc8916064808201926020929091908290030181600087803b1580156122b457600080fd5b60008060008060008060608a945084600160a060020a03166354ed633b6040518163ffffffff1660e060020a028152600401602060405180830381600087803b158015613a0e57600080fd5b505af1158015613a22573d6000803e3d6000fd5b505050506040513d6020811015613a3857600080fd5b810190808051906020019092919050505093508b9250899150889050805188516044820181016020840160208c016040516040518482016040528a8152600481019050898152601481019050600c810190508881526020810190508684015b80851015613ab2578451825260209485019490910190613a97565b508583015b80841015613ad2578351825260209384019390910190613ab7565b5060208286848f617530fa808015613aed5783519e50613af2565b60009e505b5050508b15159550613b54945050505050576040805160e560020a62461bcd02815260206004820152601760248201527f43616c6c20746f207265736f6c766572206661696c6564000000000000000000604482015290519081900360640190fd5b50939a9950505050505050505050565b6000808080805b6002860154831015613bb457613b818684613f24565b9150821515613b9257819350613ba9565b613b9c8483613ee0565b9150508015613ba9578193505b600190920191613b6b565b5091949350505050565b600082820183811015612cfd57600080fd5b600080808311613bdf57600080fd5b8284811515613bea57fe5b04949350505050565b60008083831115613c0357600080fd5b5050900390565b60008060008060008086516042141515613c94576040805160e560020a62461bcd02815260206004820152602560248201527f5369676e6174757265206d7573742068617665206c656e67746820657861637460448201527f6c79203636000000000000000000000000000000000000000000000000000000606482015290519081900360840190fd5b866000815181101515613ca357fe5b90602001015160f860020a900460f860020a0260f860020a900460ff166001811115613ccb57fe5b9450866001815181101515613cdc57fe5b01602001516022880151604289015160f860020a928390048302929092049550935091506001856001811115613d0e57fe5b1415613dbe57604080517f19457468657265756d205369676e6564204d6573736167653a0a333200000000602080830191909152603c8083018c905283518084039091018152605c90920192839052815191929182918401908083835b60208310613d8a5780518252601f199092019160209182019101613d6b565b6001836020036101000a03801982511681845116808217855250505050505090500191505060405180910390209050613dc1565b50865b604080516000808252602080830180855285905260ff8816838501526060830187905260808301869052925160019360a0808501949193601f19840193928390039091019190865af1158015613e1b573d6000803e3d6000fd5b5050604051601f1901519998505050505050505050565b6000806000613e54846060015185608001518660c0015187610140015161409d565b9150613e7884602001518560600151866080015187604001518860c001518761094d565b6000908152600660205260409020949350505050565b600080613ebf83600a0a613eb38660e001518760a00151612ccf90919063ffffffff16565b9063ffffffff613bd016565b9050613ed88460a0015182613bf390919063ffffffff16565b949350505050565b60008083831115613f0657613efb838563ffffffff613bf316565b600191509150613f1d565b613f16848463ffffffff613bf316565b6000915091505b9250929050565b600080600080856000018660020186815481101515613f3f57fe5b906000526020600020016040518082805460018160011615610100020316600290048015613fa45780601f10613f82576101008083540402835291820191613fa4565b820191906000526020600020905b815481529060010190602001808311613f90575b5050915050908152602001604051809103902054925060009150600090505b600286015481101561407f5780851461407757614074866001018760020183815481101515613fee57fe5b9060005260206000200160405180828054600181600116156101000203166002900480156140535780601f10614031576101008083540402835291820191614053565b820191906000526020600020905b81548152906001019060200180831161403f575b5050928352505060405190819003602001902054839063ffffffff613bbe16565b91505b600101613fc3565b81831161408d576000610943565b610943838363ffffffff613bf316565b60008060008060008088935089925087915083600160a060020a03166336cd46676040518163ffffffff1660e060020a028152600401602060405180830381600087803b1580156140ed57600080fd5b505af1158015614101573d6000803e3d6000fd5b505050506040513d602081101561411757600080fd5b50518751604080516044818401810190925283815260048101879052602481018690529293509091818301916020808c019291820190858d01015b8084101561416d578351825260209384019390910190614152565b5060208285848c617530fa8080156141885783519b5061418d565b602084fd5b50999f9e505050505050505050505050505050565b610160604051908101604052806000600160a060020a031681526020016000600160a060020a031681526020016000600160a060020a031681526020016000600160a060020a031681526020016000600160a060020a031681526020016000815260200160008152602001600081526020016000815260200160008152602001606081525090565b828054600181600116156101000203166002900490600052602060002090601f016020900481019282601f1061426b57805160ff1916838001178555614298565b82800160010185558215614298579182015b8281111561429857825182559160200191906001019061427d565b506142a49291506142a8565b5090565b6102c491905b808211156142a457600081556001016142ae560046616e5661756c7400000000000000000000000000000000000000000000000043616e6e6f74207472616e73666572207374616b652066726f6d20706f6f6c00a165627a7a72305820f7aff6a42df9e4c7752e93710395a52096521fd4af16038f6bea477ccc7aee0e0029",
  "source": "pragma solidity 0.4.24;\n\nimport \"openzeppelin-solidity/contracts/ownership/Ownable.sol\";\nimport \"openzeppelin-solidity/contracts/math/SafeMath.sol\";\n\nimport \"./interfaces/IBetManager.sol\";\nimport \"./interfaces/ILeague.sol\";\nimport \"./interfaces/ILeagueRegistry.sol\";\nimport \"./interfaces/IResolver.sol\";\nimport \"./interfaces/IVault.sol\";\nimport \"./interfaces/IResolverRegistry.sol\";\n\nimport \"./utils/RegistryAccessible.sol\";\n\nimport \"./libraries/BetLib.sol\";\nimport \"./libraries/SignatureLib.sol\";\nimport \"./libraries/PositionLib.sol\";\n\n/**\n * @title Bet Manager Contract\n * @notice BetManager is the core contract responsible for bet validations and bet submissions\n */\ncontract BetManager is Ownable, IBetManager, RegistryAccessible {\n\n  using SafeMath for uint;\n\n  // Number of decimal places in BetLib.Odds\n  uint public constant ODDS_DECIMALS = 4;\n\n  // Oracle fee dividing factor (1 / 400 = 0.0025)\n  uint public constant ORACLE_FEE = 400;\n\n  // EIP712 Domain Chain ID\n  uint public CHAIN_ID;\n  // EIP712 Domain separator\n  bytes32 public DOMAIN_SEPARATOR; // set during deploy time\n\n  // Resolves to `true` if hash is used, `false` otherwise\n  mapping(bytes32 => bool) private unclaimed;\n  // Resolves to `true` if bet has been claimed, `false` otherwise\n  mapping(bytes32 => bool) private claimed;\n  // Position hash (layer, league, fixture, resolver, token) => Position\n  mapping(bytes32 => PositionLib.Position) private positions;\n\n  // Emit when a Bet has been submitted\n  event LogBetSubmitted(\n    bytes32 indexed _hash,\n    address indexed _backer,\n    address indexed _layer,\n    address[3] _subjects,\n    uint[4] _params,\n    uint _nonce,\n    bytes _payload\n  );\n  // Emit when a Bet has been claimed\n  event LogBetClaimed(\n    bytes32 indexed _hash,\n    uint256 _result\n  );\n  // Emit when layer has claimed payout\n  event LogPayoutClaimed(\n    address indexed _layer,\n    address _league,\n    address _resolver,\n    address _token,\n    uint _fixture,\n    bytes32 _segment\n  );\n  // Emit when chainId is updated\n  event LogChainIdUpdated(\n    uint _old,\n    uint _new\n  );\n\n  /**\n   * @notice Constructor\n   * @dev Change chainId in case of a fork, making sure txs cannot be replayed on forked chains\n   * @param _chainId ChainId to be set\n   */\n  constructor(uint _chainId, address _registry)\n    public\n    RegistryAccessible(_registry)\n  {\n    _setChainId(_chainId);\n  }\n\n  ///////////////////////////////////////////////////////////////////////////////\n  ////////////////////////////// External Functions /////////////////////////////\n  ///////////////////////////////////////////////////////////////////////////////\n\n  /**\n   * @notice Submits a bet\n   * @param _subjects Subjects associated with bet [backer, layer, token, league, resolver]\n   * @param _params Parameters associated with bet [backerStake, fixture, odds, expiration]\n   * @param _nonce Nonce, to ensure hash uniqueness\n   * @param _payload Payload for resolver\n   * @param _signature ECDSA signature along with the mode\n   *  (0 = Typed, 1 = Geth) {mode}{v}{r}{s}.\n   */\n  function submitBet(\n    address[5] _subjects,\n    uint[4] _params,\n    uint _nonce,\n    bytes _payload,\n    bytes _signature\n  )\n    external\n  {\n    BetLib.Bet memory _bet = BetLib.generate(_subjects, _params, _nonce, _payload);\n    bytes32 _hash = BetLib.hash(_bet, DOMAIN_SEPARATOR);\n\n    _authenticateBet(_bet, _hash, _signature);\n    _authorizeBet(_bet);\n    _validateBet(_bet);\n    _processBet(_bet, _hash);\n\n    emit LogBetSubmitted(\n      _hash,\n      _bet.backer,\n      _bet.layer,\n      [_bet.token, _bet.league, _bet.resolver],\n      [_bet.backerStake, _bet.fixture, _bet.odds, _bet.expiration],\n      _nonce,\n      _payload\n    );\n  }\n\n  /**\n   * @notice Claims a bet, transfers tokens based on fixture resolution\n   * @param _subjects Subjects associated with bet\n   * @param _params Parameters associated with bet\n   * @param _nonce Nonce, to ensure hash uniqueness\n   * @param _payload Payload for resolver\n   */\n  function claimBet(address[5] _subjects, uint[4] _params, uint _nonce, bytes _payload) external {\n    BetLib.Bet memory _bet = BetLib.generate(_subjects, _params, _nonce, _payload);\n    bytes32 _hash = BetLib.hash(_bet, DOMAIN_SEPARATOR);\n\n    require(unclaimed[_hash], \"Bet with given parameters either claimed or never submitted\");\n\n    unclaimed[_hash] = false;\n    claimed[_hash] = true;\n\n    uint _result = _processBackerClaim(_bet);\n\n    emit LogBetClaimed(_hash, _result);\n  }\n\n  /**\n   * @notice Claims a layer's payout\n   * @dev Processes funds for layer `msg.sender`\n   * @param _league League address\n   * @param _resolver Resolver address\n   * @param _token Token address\n   * @param _fixture Fixture id\n   * @param _segment Resolver segment\n   */\n  function claimPayout(\n    address _league,\n    address _resolver,\n    address _token,\n    uint _fixture,\n    bytes32 _segment\n  )\n    external\n  {\n    // solium-disable-next-line max-len\n    bytes32 _hash = PositionLib.getPositionHashRaw(msg.sender, _league, _resolver, _token, _fixture, _segment);\n    require(!claimed[_hash], \"Cannot re-claim position for given parameters\");\n\n    claimed[_hash] = true;\n\n    _processLayerClaim(positions[_hash], _league, _resolver, _token, _fixture);\n\n    emit LogPayoutClaimed(msg.sender, _league, _resolver, _token, _fixture, _segment);\n  }\n\n  /**\n   * @notice Gets the bet result\n   * @param _league Address of league\n   * @param _resolver Address of resolver\n   * @param _fixture Id of fixture\n   * @param _payload Payload for resolver\n   * @return uint between 1 and 5 (check IResolver for details) or 0 (for unresolved markets)\n   */\n  function getResult(address _league, address _resolver, uint _fixture, bytes _payload)\n    external\n    view\n    returns (uint)\n  {\n    return _getResult(_league, _resolver, _fixture, _payload);\n  }\n\n  /**\n   * @notice Updates chainId to `_chainId` and resets the EIP712 domain separator\n   * @dev ONLY called if there is a chain split to avoid replay attacks across chains\n   * @param _chainId new chainId\n   */\n  function setChainId(uint _chainId) external onlyOwner {\n    uint _old = CHAIN_ID;\n    _setChainId(_chainId);\n\n    emit LogChainIdUpdated(_old, _chainId);\n  }\n\n  ///////////////////////////////////////////////////////////////////////////////\n  ///////////////////////////////// Validate Bet ////////////////////////////////\n  ///////////////////////////////////////////////////////////////////////////////\n\n  /**\n   * @dev Throws if any of the following checks fail\n   *  + `msg.sender` is `_bet.layer`\n   *  + `msg.sender` is not `_bet.backer`\n   *  + `_bet.backer` has signed `_hash`\n   *  + `_hash` is unique (preventing replay attacks)\n   * @param _bet Bet to be submitted\n   * @param _hash EIP712 complaint hash of _bet\n   * @param _signature ECDSA signature along with the mode\n   */\n  function _authenticateBet(BetLib.Bet memory _bet, bytes32 _hash, bytes _signature)\n    private\n    view\n  {\n    require(\n      msg.sender == _bet.layer,\n      \"Bet is not permitted for the msg.sender to take\"\n    );\n    require(\n      _bet.backer != address(0) && _bet.backer != msg.sender,\n      \"Bet is not permitted for the msg.sender to take\"\n    );\n    require(\n      !(claimed[_hash] || unclaimed[_hash]),\n      \"Bet with same hash been submitted before\"\n    );\n    require(\n      SignatureLib.isValidSignature(_hash, _bet.backer, _signature),\n      \"Tx is sent with an invalid signature\"\n    );\n  }\n\n  /**\n   * @dev Throws if any of the following checks fail\n   *  + `address(this)` is an approved spender by both backer and layer\n   *  + `_bet.backer` has appropriate amount staked in vault\n   * @param _bet Bet to be authorized\n   */\n  function _authorizeBet(BetLib.Bet memory _bet) private view {\n    IVault _vault = IVault(registry.getAddress(\"FanVault\"));\n\n    require(\n      _vault.isApproved(_bet.backer, address(this)),\n      \"Backer has not approved BetManager to move funds in Vault\"\n    );\n    require(\n      _vault.isApproved(_bet.layer, address(this)),\n      \"Layer has not approved BetManager to move funds in Vault\"\n    );\n    require(\n      _vault.balanceOf(_bet.token, _bet.backer) >= _bet.backerStake,\n      \"Backer does not have sufficient tokens\"\n    );\n  }\n\n  /**\n   * @dev Throws if any of the following checks fail\n   *  + `_bet.league` is a registered league with FansUnite\n   *  + `_bet.resolver` is registered with league\n   *  + `_bet.fixture` is scheduled with league\n   *  + `_bet.resolver` is not resolved for `_bet.fixture`\n   *  + `_bet.backerStake` must belong to set +\n   *  + `_bet.odds` must be greater than 1\n   *  + `_bet.expiration` is greater than `now`\n   *  + `_bet.payload` is valid according to resolver\n   * @param _bet Bet to be validated\n   */\n  function _validateBet(BetLib.Bet memory _bet) private view {\n    address _leagueRegistry = registry.getAddress(\"LeagueRegistry\");\n    address _resolverRegistry = registry.getAddress(\"ResolverRegistry\");\n\n    require(\n      ILeagueRegistry(_leagueRegistry).isLeagueRegistered(_bet.league),\n      \"League is not registered with FansUnite\"\n    );\n    require(\n      IResolverRegistry(_resolverRegistry).isResolverUsed(_bet.league, _bet.resolver),\n      \"Resolver is not usable with league\"\n    );\n    require(\n      ILeague(_bet.league).isFixtureScheduled(_bet.fixture),\n      \"Fixture is not scheduled with League\"\n    );\n    require(\n      !ILeague(_bet.league).areMarketsResolved(_bet.fixture, _bet.resolver),\n      \"Market is already resolved\"\n    );\n    require(\n      _bet.backerStake > 0,\n      \"Stake does not belong to set +\"\n    );\n    require(\n      _bet.odds > uint(1).mul(10 ** ODDS_DECIMALS),\n      \"Odds cannot be under 1\"\n    );\n    require(\n      _bet.expiration > block.timestamp,\n      \"Bet has expired\"\n    );\n\n    __validatePayload(_bet);\n\n  }\n\n  /**\n   * @dev Throws if `_payload` is not valid\n   * @param _bet Bet instance to be validated\n   */\n  function __validatePayload(BetLib.Bet memory _bet) private view {\n    bool _isPayloadValid;\n    address _resolver = _bet.resolver;\n    address _league = _bet.league;\n    uint256 _fixture = _bet.fixture;\n    bytes4 _selector = IResolver(_resolver).getValidatorSelector();\n    bytes memory _payload = _bet.payload;\n\n    assembly {\n      let _plen := mload(_payload)               // _plen = length of _payload\n      let _tlen := add(_plen, 0x44)              // _tlen = total length of calldata\n      let _p    := add(_payload, 0x20)           // _p    = encoded bytes of _payload\n\n      let _ptr   := mload(0x40)                  // _ptr   = free memory pointer\n      let _index := mload(0x40)                  // _index = same as _ptr\n      mstore(0x40, add(_ptr, _tlen))             // update free memory pointer\n\n      mstore(_index, _selector)                  // store selector at _index\n      _index := add(_index, 0x04)                // _index = _index + 0x04\n      mstore(_index, _league)                    // store address at _index\n      _index := add(_index, 0x14)                // _index = _index + 0x14\n      _index := add(_index, 0x0C)                // _index = _index + 0x0C\n      mstore(_index, _fixture)                   // store _fixture at _index\n      _index := add(_index, 0x20)                // _index = _index + 0x20\n\n      for\n      { let _end := add(_p, _plen) }             // init: _end = _p + _plen\n      lt(_p, _end)                               // cond: _p < _end\n      { _p := add(_p, 0x20) }                    // incr: _p = _p + 0x20\n      {\n        mstore(_index, mload(_p))                // store _p to _index\n        _index := add(_index, 0x20)              // _index = _index + 0x20\n      }\n\n      let result := staticcall(30000, _resolver, _ptr, _tlen, _ptr, 0x20)\n\n      switch result\n      case 0 {\n        _isPayloadValid := 0\n      }\n      default {\n        _isPayloadValid := mload(_ptr)\n      }\n    }\n\n    require(\n      _isPayloadValid,\n      \"Bet payload is not valid\"\n    );\n  }\n\n  ///////////////////////////////////////////////////////////////////////////////\n  ///////////////////////////////// Process Bet /////////////////////////////////\n  ///////////////////////////////////////////////////////////////////////////////\n\n  /**\n   * @dev Processes the funds and stores the bet\n   * @param _bet Bet to be processed\n   * @param _hash EIP712 complaint hash of _bet\n   */\n  function _processBet(BetLib.Bet memory _bet, bytes32 _hash) private {\n    IVault _vault = IVault(registry.getAddress(\"FanVault\"));\n\n    unclaimed[_hash] = true;\n\n    __processOracleFees(_bet);\n    (uint _displacement, bool _increased) = __processPosition(_bet);\n\n    require(\n      _vault.transferFrom(_bet.token, _bet.backer, address(this), _bet.backerStake),\n      \"Cannot transfer backer's stake to pool\"\n    );\n\n    if (_displacement == 0) return;\n\n    if (_increased) {\n      require(\n        _vault.transferFrom(_bet.token, _bet.layer, address(this), _displacement),\n        \"Cannot transfer layer's stake to pool\"\n      );\n    } else {\n      require(\n        _vault.transfer(_bet.token, _bet.layer, _displacement),\n        \"Cannot transfer stake from pool\"\n      );\n    }\n  }\n\n  /**\n   * @dev Processes the oracle fees\n   * @param _bet Bet instance\n   */\n  function __processOracleFees(BetLib.Bet memory _bet) private {\n    IVault _vault = IVault(registry.getAddress(\"FanVault\"));\n    address _consensusManager = registry.getAddress(\"ConsensusManager\");\n    uint _oracleFee = _bet.backerStake.div(ORACLE_FEE);\n\n    require(\n      _vault.transferFrom(_bet.token, _bet.layer, _consensusManager, _oracleFee),\n      \"Cannot transfer oracle fee from layer\"\n    );\n  }\n\n  /**\n   * @dev Processes the position of layer `_bet.layer` and returns displacement in position\n   * @param _bet Bet to be submitted\n   * @return Returns the amount by which the position is displaced after the bet is submitted\n   * @return Returns true if risk has increased, false otherwise\n   */\n  function __processPosition(BetLib.Bet memory _bet) private view returns (uint, bool) {\n    PositionLib.Position storage _position = __getPosition(_bet);\n\n    if (_position.volumes[_bet.payload] == 0) {\n      require(_position.payloads.length < 3, \"Cannot have more than three outcomes\");\n      _position.payloads.push(_bet.payload);\n    }\n\n    uint _o = PositionLib.getExposure(_position);\n\n    uint _layerStake = BetLib.layerStake(_bet, ODDS_DECIMALS);\n    _position.payout[_bet.payload] = _position.payout[_bet.payload].add(_layerStake);\n    _position.volumes[_bet.payload] = _position.volumes[_bet.payload].add(_bet.backerStake);\n\n    uint _n = PositionLib.getExposure(_position);\n\n    return PositionLib.getNetPayoutDisplacement(_o, _n);\n  }\n\n\n  ///////////////////////////////////////////////////////////////////////////////\n  ///////////////////////////// Process Backer Claim ////////////////////////////\n  ///////////////////////////////////////////////////////////////////////////////\n\n\n  /**\n   * @dev Processes funds for `_bet.backer` based on result\n   * @param _bet Bet to be claimed\n   * @return the bet result\n   */\n  function _processBackerClaim(BetLib.Bet memory _bet) private returns (uint) {\n    uint _result = _getResult(_bet.league, _bet.resolver, _bet.fixture, _bet.payload);\n    bool _expired = ILeague(_bet.league).getFixtureStart(_bet.fixture) + 7 days <= block.timestamp;\n    require(_result > 0 || _expired, \"Bet cannot be resolved yet\");\n\n    if (_result == 0) __processBackerRevert(_bet);\n    else if (_result == 1) __processBackerLose(_bet);\n    else if (_result == 2) __processBackerWin(_bet);\n    else if (_result == 3) __processBackerHalfLose(_bet);\n    else if (_result == 4) __processBackerHalfWin(_bet);\n    else if (_result == 5) __processBackerPush(_bet);\n    else if (_result == 6) __processBackerMarketCancel(_bet);\n\n    return _result;\n  }\n\n  /**\n   * @dev Processes the funds back to owners\n   * @param _bet Bet to be claimed\n   */\n  function __processBackerRevert(BetLib.Bet memory _bet) private {\n    IVault _vault = IVault(registry.getAddress(\"FanVault\"));\n\n    require(\n      _vault.transfer(_bet.token, _bet.backer, _bet.backerStake),\n      \"Cannot transfer stake from pool\"\n    );\n  }\n\n  /**\n   * @dev Processes funds when backer loses\n   * @param _bet Bet to be claimed\n   */\n  function __processBackerLose(BetLib.Bet memory _bet) private {\n\n  }\n\n  /**\n   * @dev Processes funds when backer wins\n   * @param _bet Bet to be claimed\n   */\n  function __processBackerWin(BetLib.Bet memory _bet) private {\n    IVault _vault = IVault(registry.getAddress(\"FanVault\"));\n\n    uint _layerStake = BetLib.layerStake(_bet, ODDS_DECIMALS);\n    uint _totalStake = _bet.backerStake.add(_layerStake);\n\n    require(\n      _vault.transfer(_bet.token, _bet.backer, _totalStake),\n      \"Cannot transfer stake from pool\"\n    );\n  }\n\n  /**\n   * @dev Processes funds when backer half loses bet\n   * @param _bet Bet to be claimed\n   */\n  function __processBackerHalfLose(BetLib.Bet memory _bet) private {\n    IVault _vault = IVault(registry.getAddress(\"FanVault\"));\n\n    uint _backerReturn = _bet.backerStake.div(2);\n\n    require(\n      _vault.transfer(_bet.token, _bet.backer, _backerReturn),\n      \"Cannot transfer stake from pool\"\n    );\n  }\n\n  /**\n   * @dev Processes funds when backer half wins bet\n   * @param _bet Bet to be claimed\n   */\n  function __processBackerHalfWin(BetLib.Bet memory _bet) private {\n    IVault _vault = IVault(registry.getAddress(\"FanVault\"));\n\n    uint _layerStake = BetLib.layerStake(_bet, ODDS_DECIMALS);\n    uint _layerReturn = _layerStake.div(2);\n    uint _backerReturn = _bet.backerStake.add(_layerReturn);\n\n    require(\n      _vault.transfer(_bet.token, _bet.backer, _backerReturn),\n      \"Cannot transfer stake from pool\"\n    );\n  }\n\n  /**\n   * @dev Processes funds when bet results in push\n   * @param _bet Bet to be claimed\n   */\n  function __processBackerPush(BetLib.Bet memory _bet) private {\n    IVault _vault = IVault(registry.getAddress(\"FanVault\"));\n\n    require(\n      _vault.transfer(_bet.token, _bet.backer, _bet.backerStake),\n      \"Cannot transfer stake from pool\"\n    );\n  }\n\n  /**\n   * @dev Processes funds when a market is cancelled\n   * @param _bet Bet to be claimed\n   */\n  function __processBackerMarketCancel(BetLib.Bet memory _bet) private {\n    IVault _vault = IVault(registry.getAddress(\"FanVault\"));\n\n    require(\n      _vault.transfer(_bet.token, _bet.backer, _bet.backerStake),\n      \"Cannot transfer stake from pool\"\n    );\n  }\n\n\n  ///////////////////////////////////////////////////////////////////////////////\n  ///////////////////////////// Process Layer Claim /////////////////////////////\n  ///////////////////////////////////////////////////////////////////////////////\n\n  /**\n   * @dev Processes funds for layer `msg.sender`\n   * @param _position Layer's position\n   * @param _league League address\n   * @param _resolver Resolver address\n   * @param _token Token address\n   * @param _fixture Fixture id\n   */\n  function _processLayerClaim(\n    PositionLib.Position storage _position,\n    address _league,\n    address _resolver,\n    address _token,\n    uint _fixture\n  )\n    private\n  {\n    require(_position.payloads.length > 0, \"No bets recorded for given position\");\n\n    IVault _vault = IVault(registry.getAddress(\"FanVault\"));\n    uint _net = _getLayerPayout(_position, _league, _resolver, _fixture);\n\n    if (_net == 0) return;\n\n    require(\n      _vault.transfer(_token, msg.sender, _net),\n      \"Cannot transfer layer stake from pool\"\n    );\n  }\n\n  /**\n   * @dev Gets net payout for layer `msg.sender`\n   * @param _position Layer's position\n   * @param _league League address\n   * @param _resolver Resolver address\n   * @param _fixture Fixture id\n   */\n  function _getLayerPayout(\n    PositionLib.Position storage _position,\n    address _league,\n    address _resolver,\n    uint _fixture\n  )\n    private\n    returns (uint)\n  {\n    uint _payout;\n    uint _gain;\n    uint _e = PositionLib.getExposure(_position);\n\n    for (uint _i = 0; _i < _position.payloads.length; _i++) {\n      uint _result = _getResult(_league, _resolver, _fixture, _position.payloads[_i]);\n\n      if (_result == 0) {  // No resolution\n        bool _expired = ILeague(_league).getFixtureStart(_fixture) + 7 days <= block.timestamp;\n        require(_expired, \"Claim cannot be resolved yet\");\n\n        _gain = _e;\n        _payout = 0;\n        break;\n\n      } else if (_result == 1) {  // Lose\n        _gain = _gain.add(_position.volumes[_position.payloads[_i]]);\n\n      } else if (_result == 2) {  // Win\n        _payout = _position.payout[_position.payloads[_i]];\n\n      } else if (_result == 3) {  // HL\n        _gain = _position.volumes[_position.payloads[_i]].div(2);\n\n      } else if (_result == 4) {  // HW\n        _payout = _position.payout[_position.payloads[_i]].div(2);\n\n      } else if (_result == 5) {  // Push\n        _gain = _e;\n        _payout = 0;\n        break;\n\n      } else if (_result == 6) { // Bet Cancel\n        _gain = _e;\n        _payout = 0;\n        break;\n\n      }\n    }\n\n    if (_payout > _gain) {\n      return _e.sub(_payout.sub(_gain));\n    } else {\n      return _e.add(_gain.sub(_payout));\n    }\n  }\n\n  ///////////////////////////////////////////////////////////////////////////////\n  /////////////////////////////////// Utility ///////////////////////////////////\n  ///////////////////////////////////////////////////////////////////////////////\n\n  /**\n   * @dev Gets Position of the layer for the generic set that _bet belongs in\n   * @param _bet Bet instance\n   */\n  function __getPosition(BetLib.Bet memory _bet)\n    private\n    returns (PositionLib.Position storage _position)\n  {\n    bytes32 _seg = __getPositionSegment(_bet.league, _bet.resolver, _bet.fixture, _bet.payload);\n    bytes32 _hash = PositionLib.getPositionHashRaw(\n      _bet.layer,\n      _bet.league,\n      _bet.resolver,\n      _bet.token,\n      _bet.fixture,\n      _seg\n    );\n\n    _position = positions[_hash];\n  }\n\n  /**\n   * @notice Gets the bet result\n   * @param _league Address of league\n   * @param _resolver Address of resolver\n   * @param _fixture Id of fixture\n   * @param _payload Payload for resolver\n   * @return `0` for unresolved markets, between 1-5 for result, `6` for cancelled markets\n   */\n  function _getResult(address _league, address _resolver, uint _fixture, bytes _payload)\n    private\n    view\n    returns (uint)\n  {\n    if (!ILeague(_league).areMarketsResolved(_fixture, _resolver))\n      return 0;\n\n    bytes memory _resolution = ILeague(_league).getResolution(_fixture, _resolver);\n\n    if (_resolution.length == 0)\n      return 6;\n\n    return __getResult(_league, _resolver, _fixture, _payload, _resolution);\n  }\n\n  /**\n   * @dev Gets the bet result based on arguments\n   * @dev Throws if call to resolver fails\n   * @param __league Address of league\n   * @param __resolver Address of resolver\n   * @param __fixture Id of fixture\n   * @param __payload bet payload encoded function parameters\n   * @param __resolution resolution encoded function parameters\n   * @return uint between `1` and `5` (check IResolver for details)\n   */\n  function __getResult(\n    address __league,\n    address __resolver,\n    uint __fixture,\n    bytes __payload,\n    bytes memory __resolution\n  )\n    private\n    view\n    returns (uint)\n  {\n    uint _result;\n    address _resolver = __resolver;\n    bytes4 _selector = IResolver(_resolver).getInitSelector();\n    address _league = __league;\n    uint256 _fixture = __fixture;\n    bytes memory _payload = __payload;\n\n    assembly {\n      let _plen := mload(_payload)               // _plen = length of _payload\n      let _rlen := mload(__resolution)            // _rlen = length of _resolution\n      let _tlen := add(_rlen, add(_plen, 0x44))  // _tlen = total length of calldata\n      let _p    := add(_payload, 0x20)           // _p    = encoded bytes of _payload\n      let _r    := add(__resolution, 0x20)        // _r    = encoded bytes of _resolution\n\n      let _ptr   := mload(0x40)                  // _ptr   = free memory pointer\n      let _index := mload(0x40)                  // _index = same as _ptr\n      mstore(0x40, add(_ptr, _tlen))             // update free memory pointer\n\n      mstore(_index, _selector)                  // store selector at _index\n      _index := add(_index, 0x04)                // _index = _index + 0x04\n      mstore(_index, _league)                    // store address at _index\n      _index := add(_index, 0x14)                // _index = _index + 0x14\n      _index := add(_index, 0x0C)                // _index = _index + 0x0C\n      mstore(_index, _fixture)                   // store _fixture at _index\n      _index := add(_index, 0x20)                // _index = _index + 0x20\n\n      for\n      { let _end := add(_p, _plen) }             // init: _end = _p + _plen\n      lt(_p, _end)                               // cond: _p < _end\n      { _p := add(_p, 0x20) }                    // incr: _p = _p + 0x20\n      {\n        mstore(_index, mload(_p))                // store _p to _index\n        _index := add(_index, 0x20)              // _index = _index + 0x20\n      }\n\n      for\n      { let _end := add(_r, _rlen) }             // init: _end = _r + _rlen\n      lt(_r, _end)                               // cond: _r < _end\n      { _r := add(_r, 0x20) }                    // incr: _r = _r + 0x20\n      {\n        mstore(_index, mload(_r))                // store _r to _index\n        _index := add(_index, 0x20)              // _index = _index + 0x20\n      }\n\n      let result := staticcall(30000, _resolver, _ptr, _tlen, _ptr, 0x20)\n\n      switch result\n      case 0 {\n        _result := 0\n      }\n      default {\n        _result := mload(_ptr)\n      }\n    }\n\n    require(_result != 0, \"Call to resolver failed\");\n\n    return _result;\n  }\n\n  /**\n   * @dev Throws if `_payload` is not valid\n   * @param __league league address\n   * @param __resolver resolver address\n   * @param __fixture fixture id\n   * @param _payload bet payload\n   */\n  function __getPositionSegment(\n    address __league,\n    address __resolver,\n    uint __fixture,\n    bytes memory _payload\n  )\n    private\n    view\n    returns (bytes32)\n  {\n    bytes32 _segment;\n    address _resolver = __resolver;\n    address _league = __league;\n    uint256 _fixture = __fixture;\n    bytes4 _selector = IResolver(_resolver).getSegmentSelector();\n\n    assembly {\n      let _plen := mload(_payload)               // _plen = length of _payload\n      let _tlen := add(_plen, 0x44)              // _tlen = total length of calldata\n      let _p    := add(_payload, 0x20)           // _p    = encoded bytes of _payload\n\n      let _ptr   := mload(0x40)                  // _ptr   = free memory pointer\n      let _index := mload(0x40)                  // _index = same as _ptr\n      mstore(0x40, add(_ptr, _tlen))             // update free memory pointer\n\n      mstore(_index, _selector)                  // store selector at _index\n      _index := add(_index, 0x04)                // _index = _index + 0x04\n      mstore(_index, _league)                    // store address at _index\n      _index := add(_index, 0x14)                // _index = _index + 0x14\n      _index := add(_index, 0x0C)                // _index = _index + 0x0C\n      mstore(_index, _fixture)                   // store _fixture at _index\n      _index := add(_index, 0x20)                // _index = _index + 0x20\n\n      for\n      { let _end := add(_p, _plen) }             // init: _end = _p + _plen\n      lt(_p, _end)                               // cond: _p < _end\n      { _p := add(_p, 0x20) }                    // incr: _p = _p + 0x20\n      {\n        mstore(_index, mload(_p))                // store _p to _index\n        _index := add(_index, 0x20)              // _index = _index + 0x20\n      }\n\n      let result := staticcall(30000, _resolver, _ptr, _tlen, _ptr, 0x20)\n\n      switch result\n      case 0 {\n        revert(_ptr, 0x20)\n      }\n      default {\n        _segment := mload(_ptr)\n      }\n    }\n\n    return _segment;\n  }\n\n  ///////////////////////////////////////////////////////////////////////////////\n  /////////////////////////////////// Utility ///////////////////////////////////\n  ///////////////////////////////////////////////////////////////////////////////\n\n  /**\n   * @notice Updates chainId to `_chainId` and resets the EIP712 domain separator\n   * @dev ONLY called if there is a chain split to avoid replay attacks across chains\n   * @param _chainId new chainId\n   */\n  function _setChainId(uint _chainId) private {\n    CHAIN_ID = _chainId;\n\n    DOMAIN_SEPARATOR = keccak256(\n      abi.encode(\n        keccak256(\"EIP712Domain(string name,uint256 chainId,address verifyingContract)\"),\n        keccak256(\"FansUnite Protocol\"),\n        _chainId,\n        address(this)\n      )\n    );\n  }\n\n}\n",
  "sourcePath": "/Users/ryancimoszko/fu/fansunite-js/node_modules/@fansunite/fansunite-core/contracts/BetManager.sol",
  "compiler": {
    "name": "solc",
    "version": "0.4.24+commit.e67f0147.Emscripten.clang"
  },
  "schemaVersion": "2.0.1",
  "updatedAt": "2019-08-26T22:14:58.669Z"
}