{
  "contractName": "BetManager",
  "abi": [
    {
      "constant": true,
      "inputs": [],
      "name": "getChainId",
      "outputs": [
        {
          "name": "",
          "type": "uint256"
        }
      ],
      "payable": false,
      "stateMutability": "view",
      "type": "function"
    },
    {
      "constant": true,
      "inputs": [],
      "name": "getRegistryContract",
      "outputs": [
        {
          "name": "",
          "type": "address"
        }
      ],
      "payable": false,
      "stateMutability": "view",
      "type": "function"
    },
    {
      "constant": true,
      "inputs": [],
      "name": "ODDS_DECIMALS",
      "outputs": [
        {
          "name": "",
          "type": "uint256"
        }
      ],
      "payable": false,
      "stateMutability": "view",
      "type": "function"
    },
    {
      "constant": false,
      "inputs": [],
      "name": "renounceOwnership",
      "outputs": [],
      "payable": false,
      "stateMutability": "nonpayable",
      "type": "function"
    },
    {
      "constant": true,
      "inputs": [],
      "name": "owner",
      "outputs": [
        {
          "name": "",
          "type": "address"
        }
      ],
      "payable": false,
      "stateMutability": "view",
      "type": "function"
    },
    {
      "constant": false,
      "inputs": [
        {
          "name": "_chainId",
          "type": "uint256"
        }
      ],
      "name": "setChainId",
      "outputs": [],
      "payable": false,
      "stateMutability": "nonpayable",
      "type": "function"
    },
    {
      "constant": false,
      "inputs": [
        {
          "name": "_newOwner",
          "type": "address"
        }
      ],
      "name": "transferOwnership",
      "outputs": [],
      "payable": false,
      "stateMutability": "nonpayable",
      "type": "function"
    },
    {
      "inputs": [
        {
          "name": "_chainId",
          "type": "uint256"
        },
        {
          "name": "_registry",
          "type": "address"
        }
      ],
      "payable": false,
      "stateMutability": "nonpayable",
      "type": "constructor"
    },
    {
      "anonymous": false,
      "inputs": [
        {
          "indexed": true,
          "name": "_hash",
          "type": "bytes32"
        },
        {
          "indexed": true,
          "name": "_backer",
          "type": "address"
        },
        {
          "indexed": true,
          "name": "_layer",
          "type": "address"
        },
        {
          "indexed": false,
          "name": "_subjects",
          "type": "address[3]"
        },
        {
          "indexed": false,
          "name": "_params",
          "type": "uint256[4]"
        },
        {
          "indexed": false,
          "name": "_nonce",
          "type": "uint256"
        },
        {
          "indexed": false,
          "name": "_payload",
          "type": "bytes"
        }
      ],
      "name": "LogBetSubmitted",
      "type": "event"
    },
    {
      "anonymous": false,
      "inputs": [
        {
          "indexed": true,
          "name": "_hash",
          "type": "bytes32"
        },
        {
          "indexed": true,
          "name": "_result",
          "type": "uint256"
        }
      ],
      "name": "LogBetClaimed",
      "type": "event"
    },
    {
      "anonymous": false,
      "inputs": [
        {
          "indexed": true,
          "name": "_old",
          "type": "uint256"
        },
        {
          "indexed": true,
          "name": "_new",
          "type": "uint256"
        }
      ],
      "name": "LogChainIdUpdated",
      "type": "event"
    },
    {
      "anonymous": false,
      "inputs": [
        {
          "indexed": true,
          "name": "previousOwner",
          "type": "address"
        }
      ],
      "name": "OwnershipRenounced",
      "type": "event"
    },
    {
      "anonymous": false,
      "inputs": [
        {
          "indexed": true,
          "name": "previousOwner",
          "type": "address"
        },
        {
          "indexed": true,
          "name": "newOwner",
          "type": "address"
        }
      ],
      "name": "OwnershipTransferred",
      "type": "event"
    },
    {
      "constant": false,
      "inputs": [
        {
          "name": "_subjects",
          "type": "address[5]"
        },
        {
          "name": "_params",
          "type": "uint256[4]"
        },
        {
          "name": "_nonce",
          "type": "uint256"
        },
        {
          "name": "_payload",
          "type": "bytes"
        },
        {
          "name": "_signature",
          "type": "bytes"
        }
      ],
      "name": "submitBet",
      "outputs": [],
      "payable": false,
      "stateMutability": "nonpayable",
      "type": "function"
    },
    {
      "constant": false,
      "inputs": [
        {
          "name": "_subjects",
          "type": "address[5]"
        },
        {
          "name": "_params",
          "type": "uint256[4]"
        },
        {
          "name": "_nonce",
          "type": "uint256"
        },
        {
          "name": "_payload",
          "type": "bytes"
        }
      ],
      "name": "claimBet",
      "outputs": [],
      "payable": false,
      "stateMutability": "nonpayable",
      "type": "function"
    },
    {
      "constant": true,
      "inputs": [
        {
          "name": "_league",
          "type": "address"
        },
        {
          "name": "_resolver",
          "type": "address"
        },
        {
          "name": "_fixture",
          "type": "uint256"
        },
        {
          "name": "_payload",
          "type": "bytes"
        }
      ],
      "name": "getResult",
      "outputs": [
        {
          "name": "",
          "type": "uint256"
        }
      ],
      "payable": false,
      "stateMutability": "view",
      "type": "function"
    },
    {
      "constant": true,
      "inputs": [
        {
          "name": "_subject",
          "type": "address"
        }
      ],
      "name": "getBetsBySubject",
      "outputs": [
        {
          "name": "",
          "type": "bytes32[]"
        }
      ],
      "payable": false,
      "stateMutability": "view",
      "type": "function"
    }
  ],
  "bytecode": "0x608060405234801561001057600080fd5b50604051604080612b4583398101604052805160209091015160008054600160a060020a0319908116331790915560018054600160a060020a0390931692909116919091179055600255612adc806100696000396000f3006080604052600436106100955763ffffffff60e060020a6000350416633408e470811461009a57806336ca3d73146100c1578063429da40a146100f2578063715018a6146101075780638da5cb5b1461011e5780639b83945014610133578063a33a3a3914610169578063c8eca32914610192578063ef0e2ff414610203578063f2fde38b1461021b578063f923cfb31461023c575b600080fd5b3480156100a657600080fd5b506100af610275565b60408051918252519081900360200190f35b3480156100cd57600080fd5b506100d661027b565b60408051600160a060020a039092168252519081900360200190f35b3480156100fe57600080fd5b506100af61028a565b34801561011357600080fd5b5061011c61028f565b005b34801561012a57600080fd5b506100d66102fb565b34801561013f57600080fd5b5061011c600460a4610124356101443560248181019185013590610164359081019086013561030a565b34801561017557600080fd5b5061011c600460a461012435610144356024810190840135610562565b34801561019e57600080fd5b506101b3600160a060020a0360043516610712565b60408051602080825283518183015283519192839290830191858101910280838360005b838110156101ef5781810151838201526020016101d7565b505050509050019250505060405180910390f35b34801561020f57600080fd5b5061011c60043561077f565b34801561022757600080fd5b5061011c600160a060020a03600435166107d1565b34801561024857600080fd5b506100af600160a060020a03600480358216916024803590911691604435916064359081019101356107f4565b60025490565b600154600160a060020a031690565b600481565b600054600160a060020a031633146102a657600080fd5b60008054604051600160a060020a03909116917ff8df31144d9c2f0f6b59d69b8b98abd5459d07f2742c4df920b25aae33c6482091a26000805473ffffffffffffffffffffffffffffffffffffffff19169055565b600054600160a060020a031681565b610312612a2f565b600061038d896005806020026040519081016040528092919082600560200280828437505060408051608081810190925293508d92506004915083908390808284375050604080516020601f8e018190048102820181019092528c815293508c92508b9150819084018382808284375061083c945050505050565b915061039c82600254896108c1565b90506103d9828286868080601f01602080910402602001604051908101604052809392919081815260200183838082843750610dbf945050505050565b6103e28261103e565b6103eb82611554565b6103f58282611b46565b8160200151600160a060020a03168260000151600160a060020a031682600019167f8dc61913ee8b0c3c30d3073f36ed3d12dcea1dcaa3e9d83d9def86e1a466dbf56060604051908101604052808760400151600160a060020a0316600160a060020a031681526020018760600151600160a060020a0316600160a060020a031681526020018760800151600160a060020a0316600160a060020a03168152506080604051908101604052808860a0015181526020018860c0015181526020018860e0015181526020018861010001518152508c8c8c6040518086600360200280838360005b838110156104f35781810151838201526020016104db565b5050505090500185600460200280838360005b8381101561051e578181015183820152602001610506565b5050505090500184815260200180602001828103825284848281815260200192508082843760405192018290039850909650505050505050a4505050505050505050565b61056a612a2f565b6000806105e6886005806020026040519081016040528092919082600560200280828437505060408051608081810190925293508c92506004915083908390808284375050604080516020601f8d018190048102820181019092528b815293508b92508a9150819084018382808284375061083c945050505050565b92506105f583600254886108c1565b60008181526003602052604090205490925060ff161515610686576040805160e560020a62461bcd02815260206004820152603b60248201527f426574207769746820676976656e20706172616d65746572732065697468657260448201527f20636c61696d6564206f72206e65766572207375626d69747465640000000000606482015290519081900360840190fd5b6106ce836060015184608001518560c0015188888080601f01602080910402602001604051908101604052809392919081815260200183838082843750611e83945050505050565b90506106db838383612031565b604051819083907ff53bfa6342bbc051898502863a9f79991cc4f8759b484710ee0c356d019bd2ae90600090a35050505050505050565b600160a060020a03811660009081526005602090815260409182902080548351818402810184019094528084526060939283018282801561077357602002820191906000526020600020905b8154815260019091019060200180831161075e575b50505050509050919050565b60008054600160a060020a0316331461079757600080fd5b506002805490829055604051829082907f6e7b1c0fef63382f05aa7c9cbe8f66c67fbb68e0892f8e8347b0ea3ef615850c90600090a35050565b600054600160a060020a031633146107e857600080fd5b6107f1816121c8565b50565b600061083286868686868080601f01602080910402602001604051908101604052809392919081815260200183838082843750611e83945050505050565b9695505050505050565b610844612a2f565b5060408051610140810182528451600160a060020a0390811682526020808701518216818401528684015182168385015260608088015183168185015260809788015190921696830196909652845160a08301529484015160c08201529083015160e0820152919092015161010082015261012081019190915290565b82516020808501516040808701516060880151608089015183516c01000000000000000000000000600160a060020a0398891681028289015295881686026034820152928716850260488401529086168402605c8301529490941690910260708401528051606481850301815260848401825260a087015160c088015160e08901516101008a015160a488019390935260c487019190915260e48601526101048086019190915282518086039091018152610124850183527f42657428000000000000000000000000000000000000000000000000000000006101448601527f61646472657373206261636b65722c00000000000000000000000000000000006101488601527f61646472657373206c617965722c0000000000000000000000000000000000006101578601527f6164647265737320746f6b656e2c0000000000000000000000000000000000006101658601527f61646472657373206c65616775652c00000000000000000000000000000000006101738601527f61646472657373207265736f6c7665722c0000000000000000000000000000006101828601527f75696e74323536206261636b65725374616b652c0000000000000000000000006101938601527f75696e7432353620666978747572652c000000000000000000000000000000006101a78601527f75696e74323536206f6464732c000000000000000000000000000000000000006101b78601527f75696e743235362065787069726174696f6e2c000000000000000000000000006101c48601527f6279746573207061796c6f6164000000000000000000000000000000000000006101d78601527f29000000000000000000000000000000000000000000000000000000000000006101e486015282516101c58187030181526101e590950192839052845160009592949193869392909182918401908083835b60208310610b985780518252601f199092019160209182019101610b79565b6001836020036101000a038019825116818451168082178552505050505050905001915050604051809103902083838961012001516040518082805190602001908083835b60208310610bfc5780518252601f199092019160209182019101610bdd565b51815160209384036101000a6000190180199092169116179052604080519290940182900382208282018a8152895191975095509190930192870191508083835b60208310610c5c5780518252601f199092019160209182019101610c3d565b51815160209384036101000a600019018019909216911617905286519190930192860191508083835b60208310610ca45780518252601f199092019160209182019101610c85565b51815160209384036101000a6000190180199092169116179052920193845250604080518085038152938201908190528351939650945084935085019190508083835b60208310610d065780518252601f199092019160209182019101610ce7565b51815160209384036101000a6000190180199092169116179052604080519290940182900382208282018d90528285018c905260608084018290528551808503909101815260809093019485905282519097509195509293508392850191508083835b60208310610d885780518252601f199092019160209182019101610d69565b5181516020939093036101000a600019018019909116921691909117905260405192018290039091209a9950505050505050505050565b8260200151600160a060020a031633600160a060020a03161480610dee57506020830151600160a060020a0316155b1515610e6a576040805160e560020a62461bcd02815260206004820152602f60248201527f426574206973206e6f74207065726d697474656420666f7220746865206d736760448201527f2e73656e64657220746f2074616b650000000000000000000000000000000000606482015290519081900360840190fd5b8251600160a060020a031615801590610e8d57508251600160a060020a03163314155b1515610f09576040805160e560020a62461bcd02815260206004820152602f60248201527f426574206973206e6f74207065726d697474656420666f7220746865206d736760448201527f2e73656e64657220746f2074616b650000000000000000000000000000000000606482015290519081900360840190fd5b60008281526004602052604090205460ff1680610f34575060008281526003602052604090205460ff165b15610faf576040805160e560020a62461bcd02815260206004820152602860248201527f42657420776974682073616d652068617368206265656e207375626d6974746560448201527f64206265666f7265000000000000000000000000000000000000000000000000606482015290519081900360840190fd5b610fbe82846000015183612245565b1515611039576040805160e560020a62461bcd028152602060048201526024808201527f54782069732073656e74207769746820616e20696e76616c6964207369676e6160448201527f7475726500000000000000000000000000000000000000000000000000000000606482015290519081900360840190fd5b505050565b6001546040805160e060020a63bf40fac1028152602060048201819052600860248301527f46616e5661756c7400000000000000000000000000000000000000000000000060448301529151600093600160a060020a03169263bf40fac1926064808201939182900301818787803b1580156110b957600080fd5b505af11580156110cd573d6000803e3d6000fd5b505050506040513d60208110156110e357600080fd5b50518251604080517fa389783e000000000000000000000000000000000000000000000000000000008152600160a060020a03928316600482015230602482015290519293509083169163a389783e916044808201926020929091908290030181600087803b15801561115557600080fd5b505af1158015611169573d6000803e3d6000fd5b505050506040513d602081101561117f57600080fd5b505115156111fd576040805160e560020a62461bcd02815260206004820152603960248201527f4261636b657220686173206e6f7420617070726f766564204265744d616e616760448201527f657220746f206d6f76652066756e647320696e205661756c7400000000000000606482015290519081900360840190fd5b604080517fa389783e0000000000000000000000000000000000000000000000000000000081523360048201523060248201529051600160a060020a0383169163a389783e9160448083019260209291908290030181600087803b15801561126457600080fd5b505af1158015611278573d6000803e3d6000fd5b505050506040513d602081101561128e57600080fd5b5051151561130c576040805160e560020a62461bcd02815260206004820152603860248201527f4c6179657220686173206e6f7420617070726f766564204265744d616e61676560448201527f7220746f206d6f76652066756e647320696e205661756c740000000000000000606482015290519081900360840190fd5b60a0820151604080840151845182517ff7888aec000000000000000000000000000000000000000000000000000000008152600160a060020a039283166004820152908216602482015291519084169163f7888aec9160448083019260209291908290030181600087803b15801561138357600080fd5b505af1158015611397573d6000803e3d6000fd5b505050506040513d60208110156113ad57600080fd5b5051101561142b576040805160e560020a62461bcd02815260206004820152602660248201527f4261636b657220646f6573206e6f7420686176652073756666696369656e742060448201527f746f6b656e730000000000000000000000000000000000000000000000000000606482015290519081900360840190fd5b61143682600461226d565b60408084015160208086015183517ff7888aec000000000000000000000000000000000000000000000000000000008152600160a060020a039384166004820152908316602482015292519185169263f7888aec92604480830193928290030181600087803b1580156114a857600080fd5b505af11580156114bc573d6000803e3d6000fd5b505050506040513d60208110156114d257600080fd5b50511015611550576040805160e560020a62461bcd02815260206004820152602560248201527f4c6179657220646f6573206e6f7420686176652073756666696369656e74207460448201527f6f6b656e73000000000000000000000000000000000000000000000000000000606482015290519081900360840190fd5b5050565b6001546040805160e060020a63bf40fac1028152602060048201819052600e60248301527f4c65616775655265676973747279000000000000000000000000000000000000604483015291516000938493600160a060020a039091169263bf40fac1926064808301939282900301818787803b1580156115d357600080fd5b505af11580156115e7573d6000803e3d6000fd5b505050506040513d60208110156115fd57600080fd5b50516060840151604080517f0db76ca5000000000000000000000000000000000000000000000000000000008152600160a060020a0380841660048301529151939550919350841691630db76ca5916024808201926020929091908290030181600087803b15801561166e57600080fd5b505af1158015611682573d6000803e3d6000fd5b505050506040513d602081101561169857600080fd5b50511515611716576040805160e560020a62461bcd02815260206004820152602760248201527f4c6561677565206973206e6f742072656769737465726564207769746820466160448201527f6e73556e69746500000000000000000000000000000000000000000000000000606482015290519081900360840190fd5b80600160a060020a031663a782c22984608001516040518263ffffffff1660e060020a0281526004018082600160a060020a0316600160a060020a03168152602001915050602060405180830381600087803b15801561177557600080fd5b505af1158015611789573d6000803e3d6000fd5b505050506040513d602081101561179f57600080fd5b5051151561181d576040805160e560020a62461bcd02815260206004820152602960248201527f5265736f6c766572206973206e6f74207265676973746572656420776974682060448201527f46616e73556e6974650000000000000000000000000000000000000000000000606482015290519081900360840190fd5b80600160a060020a031663e239c9528460c001516040518263ffffffff1660e060020a02815260040180828152602001915050602060405180830381600087803b15801561186a57600080fd5b505af115801561187e573d6000803e3d6000fd5b505050506040513d602081101561189457600080fd5b50511515611911576040805160e560020a62461bcd028152602060048201526024808201527f46697874757265206973206e6f74207363686564756c65642077697468204c6560448201527f6167756500000000000000000000000000000000000000000000000000000000606482015290519081900360840190fd5b80600160a060020a03166342813bcc8460c0015185608001516040518363ffffffff1660e060020a0281526004018083815260200182600160a060020a0316600160a060020a0316815260200192505050602060405180830381600087803b15801561197c57600080fd5b505af1158015611990573d6000803e3d6000fd5b505050506040513d60208110156119a657600080fd5b505160ff1660011415611a03576040805160e560020a62461bcd02815260206004820152601b60248201527f4669787475726520697320616c7265616479207265736f6c7665640000000000604482015290519081900360640190fd5b60a0830151600010611a85576040805160e560020a62461bcd02815260206004820152602160248201527f5374616b6520646f6573206e6f742062656c6f6e6720746f2073657420e2849d60448201527f2b00000000000000000000000000000000000000000000000000000000000000606482015290519081900360840190fd5b60e0830151600010611ae1576040805160e560020a62461bcd02815260206004820181905260248201527f4f64647320646f6573206e6f742062656c6f6e6720746f2073657420e2849d2b604482015290519081900360640190fd5b6101008301514210611b3d576040805160e560020a62461bcd02815260206004820152600f60248201527f4265742068617320657870697265640000000000000000000000000000000000604482015290519081900360640190fd5b611039836122a6565b6001546040805160e060020a63bf40fac1028152602060048201819052600860248301527f46616e5661756c740000000000000000000000000000000000000000000000006044830152915160009384938493600160a060020a039092169263bf40fac192606480820193929182900301818787803b158015611bc857600080fd5b505af1158015611bdc573d6000803e3d6000fd5b505050506040513d6020811015611bf257600080fd5b505160a08601519093509150611c0985600461226d565b6000858152600360209081526040808320805460ff191660019081179091558951600160a060020a0390811685526005845282852080548084018255908652848620018a9055338552828520805492830181558552838520909101899055898201518a51835160e160020a630aed65f50281529183166004830152821660248201523060448201526064810188905291519495508716936315dacbea93608480840194938390030190829087803b158015611cc357600080fd5b505af1158015611cd7573d6000803e3d6000fd5b505050506040513d6020811015611ced57600080fd5b50511515611d6b576040805160e560020a62461bcd02815260206004820152602660248201527f43616e6e6f74207472616e73666572206261636b65722773207374616b65207460448201527f6f20706f6f6c0000000000000000000000000000000000000000000000000000606482015290519081900360840190fd5b604080860151602080880151835160e160020a630aed65f5028152600160a060020a0393841660048201529083166024820152306044820152606481018590529251918616926315dacbea92608480830193928290030181600087803b158015611dd457600080fd5b505af1158015611de8573d6000803e3d6000fd5b505050506040513d6020811015611dfe57600080fd5b50511515611e7c576040805160e560020a62461bcd02815260206004820152602560248201527f43616e6e6f74207472616e73666572206c617965722773207374616b6520746f60448201527f20706f6f6c000000000000000000000000000000000000000000000000000000606482015290519081900360840190fd5b5050505050565b6000606085600160a060020a03166342813bcc85876040518363ffffffff1660e060020a0281526004018083815260200182600160a060020a0316600160a060020a0316815260200192505050602060405180830381600087803b158015611eea57600080fd5b505af1158015611efe573d6000803e3d6000fd5b505050506040513d6020811015611f1457600080fd5b505160ff16600114611f295760009150612028565b85600160a060020a031663e78341e685876040518363ffffffff1660e060020a0281526004018083815260200182600160a060020a0316600160a060020a0316815260200192505050600060405180830381600087803b158015611f8c57600080fd5b505af1158015611fa0573d6000803e3d6000fd5b505050506040513d6000823e601f3d908101601f191682016040526020811015611fc957600080fd5b810190808051640100000000811115611fe157600080fd5b82016020810184811115611ff457600080fd5b815164010000000081118282018710171561200e57600080fd5b505092919050505090506120258686868685612412565b91505b50949350505050565b6000428460600151600160a060020a0316632cb0a2e58660c001516040518263ffffffff1660e060020a02815260040180828152602001915050602060405180830381600087803b15801561208557600080fd5b505af1158015612099573d6000803e3d6000fd5b505050506040513d60208110156120af57600080fd5b505162093a80011115905060008211806120c65750805b151561211c576040805160e560020a62461bcd02815260206004820152601a60248201527f4265742063616e6e6f74206265207265736f6c76656420796574000000000000604482015290519081900360640190fd5b6000838152600360209081526040808320805460ff1990811690915560049092529091208054909116600117905581151561215f5761215a84612559565b6121c2565b81600114156121715761215a846107f1565b81600214156121835761215a846107f1565b81600314156121955761215a846107f1565b81600414156121a75761215a846107f1565b81600514156121b95761215a846107f1565b6121c2846107f1565b50505050565b600160a060020a03811615156121dd57600080fd5b60008054604051600160a060020a03808516939216917f8be0079c531659141344cd1fd0a4f28419497f9722a3daafe3b4186f6b6457e091a36000805473ffffffffffffffffffffffffffffffffffffffff1916600160a060020a0392909216919091179055565b600082600160a060020a031661225b8584612841565b600160a060020a031614949350505050565b600061229d82600a0a6122918560e001518660a001516129f190919063ffffffff16565b9063ffffffff612a1a16565b90505b92915050565b6000806000806000606086608001519450866060015193508660c00151925084600160a060020a031663943e25a16040518163ffffffff1660e060020a028152600401602060405180830381600087803b15801561230357600080fd5b505af1158015612317573d6000803e3d6000fd5b505050506040513d602081101561232d57600080fd5b5051610120880151805160408051604481840181019092528481526010810189905260248101889052939550919350918183019160208086019291820190858701015b8084101561238b578351825260209384019390910190612370565b5060208285848d617530fa8080156123a65783519c506123ab565b83519c505b50505050505050851515612409576040805160e560020a62461bcd02815260206004820152601860248201527f426574207061796c6f6164206973206e6f742076616c69640000000000000000604482015290519081900360640190fd5b50505050505050565b60008060008060008060608083600160a060020a03166354ed633b6040518163ffffffff1660e060020a028152600401602060405180830381600087803b15801561245c57600080fd5b505af1158015612470573d6000803e3d6000fd5b505050506040513d602081101561248657600080fd5b810190808051906020019092919050505095508c94508b93508a92508991508890508151815160448201810160208501602086016040516040518482016040528c8152600481019050600c810190508b81526014810190508981526020810190508684015b808510156125065784518252602094850194909101906124eb565b508583015b8084101561252657835182526020938401939091019061250b565b5060208286848e617530fa80801561253d5783519f505b5050505050505050508697505050505050505095945050505050565b6001546040805160e060020a63bf40fac1028152602060048201819052600860248301527f46616e5661756c740000000000000000000000000000000000000000000000006044830152915160009384938493600160a060020a039092169263bf40fac192606480820193929182900301818787803b1580156125db57600080fd5b505af11580156125ef573d6000803e3d6000fd5b505050506040513d602081101561260557600080fd5b505160a0850151909350915061261c84600461226d565b6040808601518651825160e160020a630aed65f5028152600160a060020a03928316600482015230602482015290821660448201526064810186905291519293508516916315dacbea916084808201926020929091908290030181600087803b15801561268857600080fd5b505af115801561269c573d6000803e3d6000fd5b505050506040513d60208110156126b257600080fd5b50511515612730576040805160e560020a62461bcd02815260206004820152602860248201527f43616e6e6f74207472616e73666572206261636b65722773207374616b65206660448201527f726f6d20706f6f6c000000000000000000000000000000000000000000000000606482015290519081900360840190fd5b604080850151602080870151835160e160020a630aed65f5028152600160a060020a0393841660048201523060248201529083166044820152606481018590529251918616926315dacbea92608480830193928290030181600087803b15801561279957600080fd5b505af11580156127ad573d6000803e3d6000fd5b505050506040513d60208110156127c357600080fd5b505115156121c2576040805160e560020a62461bcd02815260206004820152602760248201527f43616e6e6f74207472616e73666572206c617965722773207374616b6520667260448201527f6f6d20706f6f6c00000000000000000000000000000000000000000000000000606482015290519081900360840190fd5b6000806000806000808651604214151561285a57600080fd5b86600081518110151561286957fe5b90602001015160f860020a900460f860020a0260f860020a900460ff16600181111561289157fe5b94508660018151811015156128a257fe5b01602001516022880151604289015160f860020a9283900483029290920495509350915060018560018111156128d457fe5b141561298057604080517f19457468657265756d205369676e6564204d6573736167653a0a333200000000602080830191909152603c8083018c905283518084039091018152605c90920192839052815191929182918401908083835b602083106129505780518252601f199092019160209182019101612931565b6001836020036101000a038019825116818451168082178552505050505050905001915050604051809103902090505b604080516000808252602080830180855285905260ff8816838501526060830187905260808301869052925160019360a0808501949193601f19840193928390039091019190865af11580156129da573d6000803e3d6000fd5b5050604051601f1901519998505050505050505050565b6000821515612a02575060006122a0565b50818102818382811515612a1257fe5b04146122a057fe5b60008183811515612a2757fe5b049392505050565b610140604051908101604052806000600160a060020a031681526020016000600160a060020a031681526020016000600160a060020a031681526020016000600160a060020a031681526020016000600160a060020a03168152602001600081526020016000815260200160008152602001600081526020016060815250905600a165627a7a72305820f404921924bdef49beaf39059391279bb35adb17735961681625328a3709e5e00029",
  "source": "pragma solidity ^0.4.24;\n\nimport \"openzeppelin-solidity/contracts/ownership/Ownable.sol\";\nimport \"openzeppelin-solidity/contracts/math/SafeMath.sol\";\nimport \"openzeppelin-solidity/contracts/token/ERC20/ERC20.sol\";\n\nimport \"./interfaces/IBetManager.sol\";\nimport \"./interfaces/ILeague.sol\";\nimport \"./interfaces/ILeagueRegistry.sol\";\nimport \"./interfaces/IRegistry.sol\";\nimport \"./interfaces/IResolver.sol\";\nimport \"./interfaces/IVault.sol\";\n\nimport \"./libraries/BetLib.sol\";\nimport \"./libraries/SignatureLib.sol\";\n\nimport \"./utils/RegistryAccessible.sol\";\nimport \"./utils/ChainSpecifiable.sol\";\n\n/**\n * @title Bet Manger Contract\n * @notice BetManager is the core contract responsible for bet validations and bet submissions\n */\ncontract BetManager is Ownable, IBetManager, RegistryAccessible, ChainSpecifiable {\n\n  using SafeMath for uint;\n\n  // Number of decimal places in BetLib.Odds\n  uint public constant ODDS_DECIMALS = 4;\n\n  // Resolves to `true` if hash is used, `false` otherwise\n  mapping(bytes32 => bool) internal unclaimed;\n  // Resolves to `true` if bet has been claimed, `false` otherwise\n  mapping(bytes32 => bool) internal claimed;\n  // Mapping of user address to array of bet hashes\n  mapping(address => bytes32[]) internal bets;\n\n  // Emit when a Bet has been submitted\n  event LogBetSubmitted(\n    bytes32 indexed _hash,\n    address indexed _backer,\n    address indexed _layer,\n    address[3] _subjects,\n    uint[4] _params,\n    uint _nonce,\n    bytes _payload\n  );\n  // Emit when a Bet has been claimed\n  event LogBetClaimed(\n    bytes32 indexed _hash,\n    uint256 indexed _result\n  );\n\n  /**\n   * @notice Constructor\n   * @dev Change chainId in case of a fork, making sure txs cannot be replayed on forked chains\n   * @param _chainId ChainId to be set\n   */\n  constructor(uint _chainId, address _registry)\n    public\n    ChainSpecifiable(_chainId)\n    RegistryAccessible(_registry)\n  {\n\n  }\n\n  /**\n   * @notice Submits a bet\n   * @param _subjects Subjects associated with bet [backer, layer, token, league, resolver]\n   * @param _params Parameters associated with bet [backerStake, fixture, odds, expiration]\n   * @param _nonce Nonce, to ensure hash uniqueness\n   * @param _payload Payload for resolver\n   * @param _signature ECDSA signature along with the mode\n   *  (0 = Typed, 1 = Geth, 2 = Trezor) {mode}{v}{r}{s}.\n   */\n  function submitBet(\n    address[5] _subjects,\n    uint[4] _params,\n    uint _nonce,\n    bytes _payload,\n    bytes _signature\n  )\n    external\n  {\n    BetLib.Bet memory _bet = BetLib.generate(_subjects, _params, _payload);\n    bytes32 _hash = BetLib.hash(_bet, chainId, _nonce);\n\n    _authenticateBet(_bet, _hash, _signature);\n    _authorizeBet(_bet);\n    _validateBet(_bet);\n    _processBet(_bet, _hash);\n\n    emit LogBetSubmitted(\n      _hash,\n      _bet.backer,\n      _bet.layer,\n      [_bet.token, _bet.league, _bet.resolver],\n      [_bet.backerStake, _bet.fixture, _bet.odds, _bet.expiration],\n      _nonce,\n      _payload\n    );\n  }\n\n  /**\n   * @notice Claims a bet, transfers tokens and fees based on fixture resolution\n   * @param _subjects Subjects associated with bet [backer, layer, token, league, resolver]\n   * @param _params Parameters associated with bet [backerStake, fixture, odds, expiration]\n   * @param _nonce Nonce, to ensure hash uniqueness\n   * @param _payload Payload for resolver\n   */\n  function claimBet(address[5] _subjects, uint[4] _params, uint _nonce, bytes _payload) external {\n    BetLib.Bet memory _bet = BetLib.generate(_subjects, _params, _payload);\n    bytes32 _hash = BetLib.hash(_bet, chainId, _nonce);\n\n    require(unclaimed[_hash], \"Bet with given parameters either claimed or never submitted\");\n\n    uint _result = _getResult(_bet.league, _bet.resolver, _bet.fixture, _payload);\n    _processClaim(_bet, _hash, _result);\n\n    emit LogBetClaimed(_hash, _result);\n  }\n\n  /**\n   * @notice Gets the bet result\n   * @param _league Address of league\n   * @param _resolver Address of resolver\n   * @param _fixture Id of fixture\n   * @param _payload Payload for resolver\n   * @return uint between 1 and 5 (check IResolver for details) or 0 (for unresolved fixtures)\n   */\n  function getResult(address _league, address _resolver, uint _fixture, bytes _payload)\n    external\n    view\n    returns (uint)\n  {\n    return _getResult(_league, _resolver, _fixture, _payload);\n  }\n\n  /**\n   * @notice Gets all the bet identifiers for address `_subject`\n   * @param _subject Address of a layer or backer\n   * @return Returns list of bet ids for backer / layer `_subject`\n   */\n  function getBetsBySubject(address _subject) external view returns (bytes32[]) {\n    return bets[_subject];\n  }\n\n  /**\n   * @dev Throws if any of the following checks fail\n   *  + `msg.sender` is `_bet.layer` || `_bet.layer == 0x00`\n   *  + `msg.sender` is not `_bet.backer`\n   *  + `_bet.backer` has signed `_hash`\n   *  + `_hash` is unique (preventing replay attacks)\n   * @param _bet Bet struct\n   * @param _hash Keccak-256 hash of the bet struct, along with chainId and nonce\n   * @param _signature ECDSA signature along with the mode\n   */\n  function _authenticateBet(BetLib.Bet memory _bet, bytes32 _hash, bytes _signature)\n    internal\n    view\n  {\n    require(\n      msg.sender == _bet.layer || _bet.layer == address(0),\n      \"Bet is not permitted for the msg.sender to take\"\n    );\n    require(\n      _bet.backer != address(0) && _bet.backer != msg.sender,\n      \"Bet is not permitted for the msg.sender to take\"\n    );\n    require(\n      !(claimed[_hash] || unclaimed[_hash]),\n      \"Bet with same hash been submitted before\"\n    );\n    require(\n      SignatureLib.isValidSignature(_hash, _bet.backer, _signature),\n      \"Tx is sent with an invalid signature\"\n    );\n  }\n\n  /**\n   * @dev Throws if any of the following checks fail\n   *  + `address(this)` is an approved spender by both backer and layer\n   *  + `_bet.backer` has appropriate amount staked in vault\n   *  + `_bet.layer` has appropriate amount staked in vault\n   * @param _bet Bet struct\n   */\n  function _authorizeBet(BetLib.Bet memory _bet) internal view {\n    IVault _vault = IVault(registry.getAddress(\"FanVault\"));\n\n    require(\n      _vault.isApproved(_bet.backer, address(this)),\n      \"Backer has not approved BetManager to move funds in Vault\"\n    );\n    require(\n      _vault.isApproved(msg.sender, address(this)),\n      \"Layer has not approved BetManager to move funds in Vault\"\n    );\n    require(\n      _vault.balanceOf(_bet.token, _bet.backer) >= _bet.backerStake,\n      \"Backer does not have sufficient tokens\"\n    );\n    require(\n      _vault.balanceOf(_bet.token, _bet.layer) >= BetLib.backerReturn(_bet, ODDS_DECIMALS),\n      \"Layer does not have sufficient tokens\"\n    );\n  }\n\n  /**\n   * @dev Throws if any of the following checks fail\n   *  + `_bet.league` is a registered league with FansUnite\n   *  + `_bet.resolver` is registered with league\n   *  + `_bet.fixture` is scheduled with league\n   *  + `_bet.resolver` is not resolved for `_bet.fixture`\n   *  + `_bet.backerStake` must belong to set +\n   *  + `_bet.odds` must belong to set +\n   *  + `_bet.expiration` is greater than `now`\n   *  + `_bet.payload` is valid according to resolver\n   * @param _bet Bet struct\n   */\n  function _validateBet(BetLib.Bet memory _bet) internal view {\n    ILeagueRegistry _leagueRegistry = ILeagueRegistry(registry.getAddress(\"LeagueRegistry\"));\n    ILeague _league = ILeague(_bet.league);\n\n    require(\n      _leagueRegistry.isLeagueRegistered(_bet.league),\n      \"League is not registered with FansUnite\"\n    );\n    require(\n      _league.isResolverRegistered(_bet.resolver),\n      \"Resolver is not registered with FansUnite\"\n    );\n    require(\n      _league.isFixtureScheduled(_bet.fixture),\n      \"Fixture is not scheduled with League\"\n    );\n    require(\n      _league.isFixtureResolved(_bet.fixture, _bet.resolver) != 1,\n      \"Fixture is already resolved\"\n    );\n    require(\n      _bet.backerStake > 0,\n      \"Stake does not belong to set +\"\n    );\n    require(\n      _bet.odds > 0,\n      \"Odds does not belong to set +\"\n    );\n    require(\n      _bet.expiration > block.timestamp,\n      \"Bet has expired\"\n    );\n\n    __validatePayload(_bet);\n\n  }\n\n  /**\n   * @dev Processes the funds and stores the bet\n   * @param _bet Bet struct\n   * @param _hash Keccak-256 hash of the bet struct, along with chainId and nonce\n   */\n  function _processBet(BetLib.Bet memory _bet, bytes32 _hash) internal {\n    IVault _vault = IVault(registry.getAddress(\"FanVault\"));\n    uint _backerStake = _bet.backerStake;\n    uint _layerStake = BetLib.backerReturn(_bet, ODDS_DECIMALS);\n\n    unclaimed[_hash] = true;\n\n    bets[_bet.backer].push(_hash);\n    bets[msg.sender].push(_hash);\n\n    require(\n      _vault.transferFrom(_bet.token, _bet.backer, address(this), _backerStake),\n      \"Cannot transfer backer's stake to pool\"\n    );\n\n    require(\n      _vault.transferFrom(_bet.token, _bet.layer, address(this), _layerStake),\n      \"Cannot transfer layer's stake to pool\"\n    );\n  }\n\n  /**\n   * @dev Processes the funds based on result\n   * @param _bet Bet struct\n   * @param _hash Keccak-256 hash of the bet struct, along with chainId and nonce\n   * @param _result Result of the bet\n   */\n  function _processClaim(BetLib.Bet memory _bet, bytes32 _hash, uint _result) internal {\n    bool _expired = ILeague(_bet.league).getFixtureStart(_bet.fixture) + 7 days <= block.timestamp;\n    require(_result > 0 || _expired, \"Bet cannot be resolved yet\");\n\n    unclaimed[_hash] = false;\n    claimed[_hash] = true;\n\n    if (_result == 0) __processRevert(_bet);\n    else if (_result == 1) __processLose(_bet);\n    else if (_result == 2) __processWin(_bet);\n    else if (_result == 3) __processHalfLose(_bet);\n    else if (_result == 4) __processHalfWin(_bet);\n    else if (_result == 5) __processPush(_bet);\n    else __processFallBack(_bet);\n  }\n\n\n  /**\n   * @notice Gets the bet result\n   * @param _league Address of league\n   * @param _resolver Address of resolver\n   * @param _fixture Id of fixture\n   * @param _payload Payload for resolver\n   * @return uint between 1 and 5 (check IResolver for details) or 0 (for unresolved fixtures)\n   */\n  function _getResult(address _league, address _resolver, uint _fixture, bytes _payload)\n    internal\n    view\n    returns (uint)\n  {\n    if (ILeague(_league).isFixtureResolved(_fixture, _resolver) != 1) return 0;\n\n    bytes memory _resolution = ILeague(_league).getResolution(_fixture, _resolver);\n    return __getResult(_league, _resolver, _fixture, _payload, _resolution);\n  }\n\n  /**\n   * @dev Throws if `_payload` is not valid\n   * @param _bet Bet struct\n   */\n  function __validatePayload(BetLib.Bet memory _bet) private view {\n    bool _isPayloadValid;\n    address _resolver = _bet.resolver;\n    address _league = _bet.league;\n    uint256 _fixture = _bet.fixture;\n    bytes4 _selector = IResolver(_resolver).getValidatorSelector();\n    bytes memory _payload = _bet.payload;\n\n    assembly {\n      let _plen := mload(_payload)               // _plen = length of _payload\n      let _tlen := add(_plen, 0x44)              // _tlen = total length of calldata\n      let _p    := add(_payload, 0x20)           // _p    = encoded bytes of _payload\n\n      let _ptr   := mload(0x40)                  // _ptr   = free memory pointer\n      let _index := mload(0x40)                  // _index = same as _ptr\n      mstore(0x40, add(_ptr, _tlen))             // update free memory pointer\n\n      mstore(_index, _selector)                  // store selector at _index\n      _index := add(_index, 0x04)                // _index = _index + 0x04\n      _index := add(_index, 0x0C)                // _index = _index + 0x0C\n      mstore(_index, _league)                    // store address at _index\n      _index := add(_index, 0x14)                // _index = _index + 0x14\n      mstore(_index, _fixture)                   // store _fixture at _index\n      _index := add(_index, 0x20)                // _index = _index + 0x20\n\n      for\n      { let _end := add(_p, _plen) }             // init: _end = _p + _plen\n      lt(_p, _end)                               // cond: _p < _end\n      { _p := add(_p, 0x20) }                    // incr: _p = _p + 0x20\n      {\n        mstore(_index, mload(_p))                // store _p to _index\n        _index := add(_index, 0x20)              // _index = _index + 0x20\n      }\n\n      let result := staticcall(30000, _resolver, _ptr, _tlen, _ptr, 0x20)\n\n      switch result\n      case 0 {\n        // revert(_ptr, 0x20) dealt with outside of assembly\n        _isPayloadValid := mload(_ptr)\n      }\n      default {\n        _isPayloadValid := mload(_ptr)\n      }\n    }\n\n    require(\n      _isPayloadValid,\n      \"Bet payload is not valid\"\n    );\n  }\n\n  /**\n   * @dev Gets the bet result based on arguments\n   * @param __league Address of league\n   * @param __resolver Address of resolver\n   * @param __fixture Id of fixture\n   * @param __payload bet payload encoded function parameters\n   * @param __resolution resolution encoded function parameters\n   * @return uint between 1 and 5 (check IResolver for details) or 0 (for failed call)\n   */\n  function __getResult(\n    address __league,\n    address __resolver,\n    uint __fixture,\n    bytes __payload,\n    bytes __resolution\n  )\n    private\n    view\n    returns (uint)\n  {\n    uint _result;\n    bytes4 _selector = IResolver(_resolver).getInitSelector();\n    address _league = __league;\n    address _resolver = __resolver;\n    uint _fixture = __fixture;\n    bytes memory _payload = __payload;\n    bytes memory _resolution = __resolution;\n\n    assembly {\n      let _plen := mload(_payload)               // _plen = length of _payload\n      let _rlen := mload(_resolution)            // _rlen = length of _resolution\n      let _tlen := add(_rlen, add(_plen, 0x44))  // _tlen = total length of calldata\n      let _p    := add(_payload, 0x20)           // _p    = encoded bytes of _payload\n      let _r    := add(_payload, 0x20)           // _r    = encoded bytes of _resolution\n\n      let _ptr   := mload(0x40)                  // _ptr   = free memory pointer\n      let _index := mload(0x40)                  // _index = same as _ptr\n      mstore(0x40, add(_ptr, _tlen))             // update free memory pointer\n\n      mstore(_index, _selector)                  // store selector at _index\n      _index := add(_index, 0x04)                // _index = _index + 0x04\n      _index := add(_index, 0x0C)                // _index = _index + 0x0C\n      mstore(_index, _league)                    // store address at _index\n      _index := add(_index, 0x14)                // _index = _index + 0x14\n      mstore(_index, _fixture)                   // store _fixture at _index\n      _index := add(_index, 0x20)                // _index = _index + 0x20\n\n      for\n      { let _end := add(_p, _plen) }             // init: _end = _p + _plen\n      lt(_p, _end)                               // cond: _p < _end\n      { _p := add(_p, 0x20) }                    // incr: _p = _p + 0x20\n      {\n        mstore(_index, mload(_p))                // store _p to _index\n        _index := add(_index, 0x20)              // _index = _index + 0x20\n      }\n\n      for\n      { let _end := add(_r, _rlen) }                 // init: _end = _r + _rlen\n      lt(_r, _end)                               // cond: _r < _end\n      { _r := add(_r, 0x20) }                    // incr: _r = _r + 0x20\n      {\n        mstore(_index, mload(_r))                // store _r to _index\n        _index := add(_index, 0x20)              // _index = _index + 0x20\n      }\n\n      let result := staticcall(30000, _resolver, _ptr, _tlen, _ptr, 0x20)\n\n      switch result\n      case 0 {\n        // Nothing here\n      }\n      default {\n        _result := mload(_ptr)\n      }\n    }\n\n    return _result;\n  }\n\n  /**\n   * @dev Processes the funds back to owners\n   * @param _bet Bet struct\n   */\n  function __processRevert(BetLib.Bet memory _bet) private {\n    IVault _vault = IVault(registry.getAddress(\"FanVault\"));\n    uint _backerStake = _bet.backerStake;\n    uint _layerStake = BetLib.backerReturn(_bet, ODDS_DECIMALS);\n\n    require(\n      _vault.transferFrom(_bet.token, address(this), _bet.backer, _backerStake),\n      \"Cannot transfer backer's stake from pool\"\n    );\n\n    require(\n      _vault.transferFrom(_bet.token, address(this), _bet.layer, _layerStake),\n      \"Cannot transfer layer's stake from pool\"\n    );\n  }\n\n  /**\n   * @dev Processes funds when backer loses\n   * @param _bet Bet struct\n   */\n  function __processLose(BetLib.Bet memory _bet) private {\n\n  }\n\n  /**\n   * @dev Processes funds when backer wins\n   * @param _bet Bet struct\n   */\n  function __processWin(BetLib.Bet memory _bet) private {\n\n  }\n\n  /**\n   * @dev Processes funds when backer half loses bet\n   * @param _bet Bet struct\n   */\n  function __processHalfLose(BetLib.Bet memory _bet) private {\n\n  }\n\n  /**\n   * @dev Processes funds when backer half wins bet\n   * @param _bet Bet struct\n   */\n  function __processHalfWin(BetLib.Bet memory _bet) private {\n\n  }\n\n  /**\n   * @dev Processes funds when bet results in push\n   * @param _bet Bet struct\n   */\n  function __processPush(BetLib.Bet memory _bet) private {\n\n  }\n\n  /**\n   * @dev Processes funds in case of a fall back\n   * @param _bet Bet struct\n   */\n  function __processFallBack(BetLib.Bet memory _bet) private {\n\n  }\n\n}\n",
  "sourcePath": "/Users/ryancimoszko/fu/fansunite-js/node_modules/fansunite-core/contracts/BetManager.sol",
  "compiler": {
    "name": "solc",
    "version": "0.4.24+commit.e67f0147.Emscripten.clang"
  },
  "schemaVersion": "2.0.1",
  "updatedAt": "2018-09-29T20:04:40.745Z"
}