{
  "contractName": "BetManager",
  "abi": [
    {
      "constant": true,
      "inputs": [],
      "name": "ORACLE_FEE",
      "outputs": [
        {
          "name": "",
          "type": "uint256"
        }
      ],
      "payable": false,
      "stateMutability": "view",
      "type": "function"
    },
    {
      "constant": true,
      "inputs": [],
      "name": "getChainId",
      "outputs": [
        {
          "name": "",
          "type": "uint256"
        }
      ],
      "payable": false,
      "stateMutability": "view",
      "type": "function"
    },
    {
      "constant": true,
      "inputs": [],
      "name": "DOMAIN_SEPARATOR",
      "outputs": [
        {
          "name": "",
          "type": "bytes32"
        }
      ],
      "payable": false,
      "stateMutability": "view",
      "type": "function"
    },
    {
      "constant": true,
      "inputs": [],
      "name": "getRegistryContract",
      "outputs": [
        {
          "name": "",
          "type": "address"
        }
      ],
      "payable": false,
      "stateMutability": "view",
      "type": "function"
    },
    {
      "constant": true,
      "inputs": [],
      "name": "ODDS_DECIMALS",
      "outputs": [
        {
          "name": "",
          "type": "uint256"
        }
      ],
      "payable": false,
      "stateMutability": "view",
      "type": "function"
    },
    {
      "constant": false,
      "inputs": [],
      "name": "renounceOwnership",
      "outputs": [],
      "payable": false,
      "stateMutability": "nonpayable",
      "type": "function"
    },
    {
      "constant": true,
      "inputs": [],
      "name": "owner",
      "outputs": [
        {
          "name": "",
          "type": "address"
        }
      ],
      "payable": false,
      "stateMutability": "view",
      "type": "function"
    },
    {
      "constant": true,
      "inputs": [],
      "name": "isOwner",
      "outputs": [
        {
          "name": "",
          "type": "bool"
        }
      ],
      "payable": false,
      "stateMutability": "view",
      "type": "function"
    },
    {
      "constant": false,
      "inputs": [
        {
          "name": "_chainId",
          "type": "uint256"
        }
      ],
      "name": "setChainId",
      "outputs": [],
      "payable": false,
      "stateMutability": "nonpayable",
      "type": "function"
    },
    {
      "constant": false,
      "inputs": [
        {
          "name": "newOwner",
          "type": "address"
        }
      ],
      "name": "transferOwnership",
      "outputs": [],
      "payable": false,
      "stateMutability": "nonpayable",
      "type": "function"
    },
    {
      "inputs": [
        {
          "name": "_chainId",
          "type": "uint256"
        },
        {
          "name": "_registry",
          "type": "address"
        }
      ],
      "payable": false,
      "stateMutability": "nonpayable",
      "type": "constructor"
    },
    {
      "anonymous": false,
      "inputs": [
        {
          "indexed": true,
          "name": "_hash",
          "type": "bytes32"
        },
        {
          "indexed": true,
          "name": "_backer",
          "type": "address"
        },
        {
          "indexed": true,
          "name": "_layer",
          "type": "address"
        },
        {
          "indexed": false,
          "name": "_subjects",
          "type": "address[3]"
        },
        {
          "indexed": false,
          "name": "_params",
          "type": "uint256[4]"
        },
        {
          "indexed": false,
          "name": "_nonce",
          "type": "uint256"
        },
        {
          "indexed": false,
          "name": "_payload",
          "type": "bytes"
        }
      ],
      "name": "LogBetSubmitted",
      "type": "event"
    },
    {
      "anonymous": false,
      "inputs": [
        {
          "indexed": true,
          "name": "_hash",
          "type": "bytes32"
        },
        {
          "indexed": false,
          "name": "_result",
          "type": "uint256"
        }
      ],
      "name": "LogBetClaimed",
      "type": "event"
    },
    {
      "anonymous": false,
      "inputs": [
        {
          "indexed": true,
          "name": "_layer",
          "type": "address"
        },
        {
          "indexed": false,
          "name": "_league",
          "type": "address"
        },
        {
          "indexed": false,
          "name": "_resolver",
          "type": "address"
        },
        {
          "indexed": false,
          "name": "_token",
          "type": "address"
        },
        {
          "indexed": false,
          "name": "_fixture",
          "type": "uint256"
        },
        {
          "indexed": false,
          "name": "_segment",
          "type": "bytes32"
        }
      ],
      "name": "LogPayoutClaimed",
      "type": "event"
    },
    {
      "anonymous": false,
      "inputs": [
        {
          "indexed": false,
          "name": "_old",
          "type": "uint256"
        },
        {
          "indexed": false,
          "name": "_new",
          "type": "uint256"
        }
      ],
      "name": "LogChainIdUpdated",
      "type": "event"
    },
    {
      "anonymous": false,
      "inputs": [
        {
          "indexed": true,
          "name": "previousOwner",
          "type": "address"
        }
      ],
      "name": "OwnershipRenounced",
      "type": "event"
    },
    {
      "anonymous": false,
      "inputs": [
        {
          "indexed": true,
          "name": "previousOwner",
          "type": "address"
        },
        {
          "indexed": true,
          "name": "newOwner",
          "type": "address"
        }
      ],
      "name": "OwnershipTransferred",
      "type": "event"
    },
    {
      "constant": false,
      "inputs": [
        {
          "name": "_subjects",
          "type": "address[5]"
        },
        {
          "name": "_params",
          "type": "uint256[4]"
        },
        {
          "name": "_nonce",
          "type": "uint256"
        },
        {
          "name": "_payload",
          "type": "bytes"
        },
        {
          "name": "_signature",
          "type": "bytes"
        }
      ],
      "name": "submitBet",
      "outputs": [],
      "payable": false,
      "stateMutability": "nonpayable",
      "type": "function"
    },
    {
      "constant": false,
      "inputs": [
        {
          "name": "_subjects",
          "type": "address[5]"
        },
        {
          "name": "_params",
          "type": "uint256[4]"
        },
        {
          "name": "_nonce",
          "type": "uint256"
        },
        {
          "name": "_payload",
          "type": "bytes"
        }
      ],
      "name": "claimBet",
      "outputs": [],
      "payable": false,
      "stateMutability": "nonpayable",
      "type": "function"
    },
    {
      "constant": false,
      "inputs": [
        {
          "name": "_league",
          "type": "address"
        },
        {
          "name": "_resolver",
          "type": "address"
        },
        {
          "name": "_token",
          "type": "address"
        },
        {
          "name": "_fixture",
          "type": "uint256"
        },
        {
          "name": "_segment",
          "type": "bytes32"
        }
      ],
      "name": "claimPayout",
      "outputs": [],
      "payable": false,
      "stateMutability": "nonpayable",
      "type": "function"
    },
    {
      "constant": true,
      "inputs": [
        {
          "name": "_league",
          "type": "address"
        },
        {
          "name": "_resolver",
          "type": "address"
        },
        {
          "name": "_fixture",
          "type": "uint256"
        },
        {
          "name": "_payload",
          "type": "bytes"
        }
      ],
      "name": "getResult",
      "outputs": [
        {
          "name": "",
          "type": "uint256"
        }
      ],
      "payable": false,
      "stateMutability": "view",
      "type": "function"
    }
  ],
  "bytecode": "0x60806040523480156200001157600080fd5b5060405160408062004361833981016040818152825160209384015160008054600160a060020a0319908116331790915560018054600160a060020a038416921691909117905560028290557f454950373132446f6d61696e28737472696e67206e616d652c75696e7432353684527f20636861696e49642c6164647265737320766572696679696e67436f6e747261858501527f63742900000000000000000000000000000000000000000000000000000000008385015282519384900360430184207f46616e73556e6974652050726f746f636f6c000000000000000000000000000085528351948590036012018520858701919091528484015260608401829052306080808601919091528351808603909101815260a090940192839052835191949093929182918401908083835b60208310620001645780518252601f19909201916020918201910162000143565b5181516000196020949094036101000a93909301928316921916919091179052604051920182900390912060035550505050506141ba80620001a76000396000f3006080604052600436106100b65763ffffffff60e060020a60003504166331d8a98581146100bb5780633408e470146100e25780633644e515146100f757806336ca3d731461010c578063429da40a1461013d578063715018a614610152578063860896ec146101695780638da5cb5b1461019c5780638f32d59b146101b15780639b839450146101da578063a33a3a3914610210578063ef0e2ff414610239578063f2fde38b14610251578063f923cfb314610272575b600080fd5b3480156100c757600080fd5b506100d06102ab565b60408051918252519081900360200190f35b3480156100ee57600080fd5b506100d06102b1565b34801561010357600080fd5b506100d06102b8565b34801561011857600080fd5b506101216102be565b60408051600160a060020a039092168252519081900360200190f35b34801561014957600080fd5b506100d06102cd565b34801561015e57600080fd5b506101676102d2565b005b34801561017557600080fd5b50610167600160a060020a036004358116906024358116906044351660643560843561033a565b3480156101a857600080fd5b5061012161046e565b3480156101bd57600080fd5b506101c661047d565b604080519115158252519081900360200190f35b3480156101e657600080fd5b50610167600460a4610124356101443560248181019185013590610164359081019086013561048e565b34801561021c57600080fd5b50610167600460a4610124356101443560248101908401356106e7565b34801561024557600080fd5b50610167600435610885565b34801561025d57600080fd5b50610167600160a060020a03600435166108e2565b34801561027e57600080fd5b506100d0600160a060020a0360048035821691602480359091169160443591606435908101910135610901565b61019081565b6002545b90565b60035481565b600154600160a060020a031690565b600481565b6102da61047d565b15156102e557600080fd5b60008054604051600160a060020a03909116917ff8df31144d9c2f0f6b59d69b8b98abd5459d07f2742c4df920b25aae33c6482091a26000805473ffffffffffffffffffffffffffffffffffffffff19169055565b600061034a338787878787610949565b60008181526005602052604090205490915060ff16156103da576040805160e560020a62461bcd02815260206004820152602d60248201527f43616e6e6f742072652d636c61696d20706f736974696f6e20666f722067697660448201527f656e20706172616d657465727300000000000000000000000000000000000000606482015290519081900360840190fd5b6000818152600560209081526040808320805460ff191660011790556006909152902061040a9087878787610a04565b60408051600160a060020a03888116825287811660208301528616818301526060810185905260808101849052905133917fb709e8118a8eeaea174e15cdb3099b5cbbb786de72c613b5a827579bff7598e8919081900360a00190a2505050505050565b600054600160a060020a031690565b600054600160a060020a0316331490565b61049661402e565b6000610513896005806020026040519081016040528092919082600560200280828437505060408051608081810190925293508d92506004915083908390808284375050604080516020601f8e018190048102820181019092528c81528e945092508c91508b908190840183828082843750610c4a945050505050565b915061052182600354610cd5565b905061055e828286868080601f0160208091040260200160405190810160405280939291908181526020018383808284375061120f945050505050565b6105678261146d565b61057082611850565b61057a8282611f1b565b8160200151600160a060020a03168260000151600160a060020a031682600019167f8dc61913ee8b0c3c30d3073f36ed3d12dcea1dcaa3e9d83d9def86e1a466dbf56060604051908101604052808760400151600160a060020a0316600160a060020a031681526020018760600151600160a060020a0316600160a060020a031681526020018760800151600160a060020a0316600160a060020a03168152506080604051908101604052808860a0015181526020018860c0015181526020018860e0015181526020018861010001518152508c8c8c6040518086600360200280838360005b83811015610678578181015183820152602001610660565b5050505090500185600460200280838360005b838110156106a357818101518382015260200161068b565b5050505090500184815260200180602001828103825284848281815260200192508082843760405192018290039850909650505050505050a4505050505050505050565b6106ef61402e565b60008061076d886005806020026040519081016040528092919082600560200280828437505060408051608081810190925293508c92506004915083908390808284375050604080516020601f8d018190048102820181019092528b81528d945092508b91508a908190840183828082843750610c4a945050505050565b925061077b83600354610cd5565b60008181526004602052604090205490925060ff16151561080c576040805160e560020a62461bcd02815260206004820152603b60248201527f426574207769746820676976656e20706172616d65746572732065697468657260448201527f20636c61696d6564206f72206e65766572207375626d69747465640000000000606482015290519081900360840190fd5b6000828152600460209081526040808320805460ff199081169091556005909252909120805490911660011790556108438361232d565b60408051828152905191925083917ff53bfa6342bbc051898502863a9f79991cc4f8759b484710ee0c356d019bd2ae9181900360200190a25050505050505050565b600061088f61047d565b151561089a57600080fd5b506002805490829055604080518281526020810184905281517f6e7b1c0fef63382f05aa7c9cbe8f66c67fbb68e0892f8e8347b0ea3ef615850c929181900390910190a15050565b6108ea61047d565b15156108f557600080fd5b6108fe816124b0565b50565b600061093f86868686868080601f0160208091040260200160405190810160405280939291908181526020018383808284375061252d945050505050565b9695505050505050565b60408051600160a060020a03808916602080840191909152818916838501528188166060840152908616608083015260a0820185905260c08083018590528351808403909101815260e0909201928390528151600093849392909182918401908083835b602083106109cc5780518252601f1990920191602091820191016109ad565b5181516020939093036101000a600019018019909116921691909117905260405192018290039091209b9a5050505050505050505050565b600285015460009081908110610a8a576040805160e560020a62461bcd02815260206004820152602360248201527f4e6f2062657473207265636f7264656420666f7220676976656e20706f73697460448201527f696f6e0000000000000000000000000000000000000000000000000000000000606482015290519081900360840190fd5b6001546040805160e060020a63bf40fac10281526020600482018190526008602483015260008051602061414f83398151915260448301529151600160a060020a039093169263bf40fac1926064808401939192918290030181600087803b158015610af557600080fd5b505af1158015610b09573d6000803e3d6000fd5b505050506040513d6020811015610b1f57600080fd5b50519150610b2f878787866126db565b9050801515610b3d57610c41565b6040805160e360020a6317d57599028152600160a060020a0386811660048301523360248301526044820184905291519184169163beabacc8916064808201926020929091908290030181600087803b158015610b9957600080fd5b505af1158015610bad573d6000803e3d6000fd5b505050506040513d6020811015610bc357600080fd5b50511515610c41576040805160e560020a62461bcd02815260206004820152602560248201527f43616e6e6f74207472616e73666572206c61796572207374616b652066726f6d60448201527f20706f6f6c000000000000000000000000000000000000000000000000000000606482015290519081900360840190fd5b50505050505050565b610c5261402e565b5060408051610160810182528551600160a060020a0390811682526020808801518216818401528784015182168385015260608089015183168185015260809889015190921697830197909752855160a08301529585015160c08201529084015160e0820152929093015161010083015261012082015261014081019190915290565b600060606000846000015185602001518660400151876060015188608001518960a001518a60c001518b60e001518c61010001518d6101200151604051602001808b600160a060020a0316600160a060020a031681526020018a600160a060020a0316600160a060020a0316815260200189600160a060020a0316600160a060020a0316815260200188600160a060020a0316600160a060020a0316815260200187600160a060020a0316600160a060020a031681526020018681526020018581526020018481526020018381526020018281526020019a505050505050505050505060405160208183030381529060405291508360405160200180807f4265742800000000000000000000000000000000000000000000000000000000815250600401807f61646472657373206261636b65722c0000000000000000000000000000000000815250600f01807f61646472657373206c617965722c000000000000000000000000000000000000815250600e01807f6164647265737320746f6b656e2c000000000000000000000000000000000000815250600e01807f61646472657373206c65616775652c0000000000000000000000000000000000815250600f01807f61646472657373207265736f6c7665722c000000000000000000000000000000815250601101807f75696e74323536206261636b65725374616b652c000000000000000000000000815250601401807f75696e7432353620666978747572652c00000000000000000000000000000000815250601001807f75696e74323536206f6464732c00000000000000000000000000000000000000815250600d01807f75696e743235362065787069726174696f6e2c00000000000000000000000000815250601301807f75696e74323536206e6f6e63652c000000000000000000000000000000000000815250600e01807f6279746573207061796c6f616400000000000000000000000000000000000000815250600d01807f290000000000000000000000000000000000000000000000000000000000000081525060010190506040516020818303038152906040526040518082805190602001908083835b602083106110195780518252601f199092019160209182019101610ffa565b51815160209384036101000a60001901801990921691161790526040519190930181900381206101408c015180519196508995509391925082918401908083835b602083106110795780518252601f19909201916020918201910161105a565b51815160209384036101000a600019018019909216911617905260408051929094018290038220828201898152885191975095509190930192860191508083835b602083106110d95780518252601f1990920191602091820191016110ba565b51815160209384036101000a60001901801990921691161790529201938452506040805180850381529382019081905283519395509350839290850191508083835b6020831061113a5780518252601f19909201916020918201910161111b565b51815160209384036101000a6000190180199092169116179052604080519290940182900382207f190100000000000000000000000000000000000000000000000000000000000083830152602283019790975260428083019790975283518083039097018752606290910192839052855192945084935085019190508083835b602083106111da5780518252601f1990920191602091820191016111bb565b5181516020939093036101000a6000190180199091169216919091179052604051920182900390912098975050505050505050565b6020830151600160a060020a03163314611299576040805160e560020a62461bcd02815260206004820152602f60248201527f426574206973206e6f74207065726d697474656420666f7220746865206d736760448201527f2e73656e64657220746f2074616b650000000000000000000000000000000000606482015290519081900360840190fd5b8251600160a060020a0316158015906112bc57508251600160a060020a03163314155b1515611338576040805160e560020a62461bcd02815260206004820152602f60248201527f426574206973206e6f74207065726d697474656420666f7220746865206d736760448201527f2e73656e64657220746f2074616b650000000000000000000000000000000000606482015290519081900360840190fd5b60008281526005602052604090205460ff1680611363575060008281526004602052604090205460ff165b156113de576040805160e560020a62461bcd02815260206004820152602860248201527f42657420776974682073616d652068617368206265656e207375626d6974746560448201527f64206265666f7265000000000000000000000000000000000000000000000000606482015290519081900360840190fd5b6113ed82846000015183612b33565b1515611468576040805160e560020a62461bcd028152602060048201526024808201527f54782069732073656e74207769746820616e20696e76616c6964207369676e6160448201527f7475726500000000000000000000000000000000000000000000000000000000606482015290519081900360840190fd5b505050565b6001546040805160e060020a63bf40fac10281526020600482018190526008602483015260008051602061414f83398151915260448301529151600093600160a060020a03169263bf40fac1926064808201939182900301818787803b1580156114d657600080fd5b505af11580156114ea573d6000803e3d6000fd5b505050506040513d602081101561150057600080fd5b50518251604080517fa389783e000000000000000000000000000000000000000000000000000000008152600160a060020a03928316600482015230602482015290519293509083169163a389783e916044808201926020929091908290030181600087803b15801561157257600080fd5b505af1158015611586573d6000803e3d6000fd5b505050506040513d602081101561159c57600080fd5b5051151561161a576040805160e560020a62461bcd02815260206004820152603960248201527f4261636b657220686173206e6f7420617070726f766564204265744d616e616760448201527f657220746f206d6f76652066756e647320696e205661756c7400000000000000606482015290519081900360840190fd5b602080830151604080517fa389783e000000000000000000000000000000000000000000000000000000008152600160a060020a03928316600482015230602482015290519184169263a389783e926044808401938290030181600087803b15801561168557600080fd5b505af1158015611699573d6000803e3d6000fd5b505050506040513d60208110156116af57600080fd5b5051151561172d576040805160e560020a62461bcd02815260206004820152603860248201527f4c6179657220686173206e6f7420617070726f766564204265744d616e61676560448201527f7220746f206d6f76652066756e647320696e205661756c740000000000000000606482015290519081900360840190fd5b60a0820151604080840151845182517ff7888aec000000000000000000000000000000000000000000000000000000008152600160a060020a039283166004820152908216602482015291519084169163f7888aec9160448083019260209291908290030181600087803b1580156117a457600080fd5b505af11580156117b8573d6000803e3d6000fd5b505050506040513d60208110156117ce57600080fd5b5051101561184c576040805160e560020a62461bcd02815260206004820152602660248201527f4261636b657220646f6573206e6f7420686176652073756666696369656e742060448201527f746f6b656e730000000000000000000000000000000000000000000000000000606482015290519081900360840190fd5b5050565b6001546040805160e060020a63bf40fac1028152602060048201819052600e60248301527f4c65616775655265676973747279000000000000000000000000000000000000604483015291516000938493600160a060020a039091169263bf40fac1926064808301939282900301818787803b1580156118cf57600080fd5b505af11580156118e3573d6000803e3d6000fd5b505050506040513d60208110156118f957600080fd5b50516001546040805160e060020a63bf40fac1028152602060048201819052601060248301527f5265736f6c76657252656769737472790000000000000000000000000000000060448301529151939550600160a060020a039092169263bf40fac19260648082019392918290030181600087803b15801561197a57600080fd5b505af115801561198e573d6000803e3d6000fd5b505050506040513d60208110156119a457600080fd5b50516060840151604080517f0db76ca5000000000000000000000000000000000000000000000000000000008152600160a060020a039283166004820152905192935090841691630db76ca5916024808201926020929091908290030181600087803b158015611a1357600080fd5b505af1158015611a27573d6000803e3d6000fd5b505050506040513d6020811015611a3d57600080fd5b50511515611abb576040805160e560020a62461bcd02815260206004820152602760248201527f4c6561677565206973206e6f742072656769737465726564207769746820466160448201527f6e73556e69746500000000000000000000000000000000000000000000000000606482015290519081900360840190fd5b60608301516080840151604080517fa3a60eba000000000000000000000000000000000000000000000000000000008152600160a060020a0393841660048201529183166024830152519183169163a3a60eba916044808201926020929091908290030181600087803b158015611b3157600080fd5b505af1158015611b45573d6000803e3d6000fd5b505050506040513d6020811015611b5b57600080fd5b50511515611bd9576040805160e560020a62461bcd02815260206004820152602260248201527f5265736f6c766572206973206e6f7420757361626c652077697468206c65616760448201527f7565000000000000000000000000000000000000000000000000000000000000606482015290519081900360840190fd5b8260600151600160a060020a031663e239c9528460c001516040518263ffffffff1660e060020a02815260040180828152602001915050602060405180830381600087803b158015611c2a57600080fd5b505af1158015611c3e573d6000803e3d6000fd5b505050506040513d6020811015611c5457600080fd5b50511515611cd1576040805160e560020a62461bcd028152602060048201526024808201527f46697874757265206973206e6f74207363686564756c65642077697468204c6560448201527f6167756500000000000000000000000000000000000000000000000000000000606482015290519081900360840190fd5b8260600151600160a060020a03166342813bcc8460c0015185608001516040518363ffffffff1660e060020a0281526004018083815260200182600160a060020a0316600160a060020a0316815260200192505050602060405180830381600087803b158015611d4057600080fd5b505af1158015611d54573d6000803e3d6000fd5b505050506040513d6020811015611d6a57600080fd5b505160ff1660011415611dc7576040805160e560020a62461bcd02815260206004820152601b60248201527f4669787475726520697320616c7265616479207265736f6c7665640000000000604482015290519081900360640190fd5b60a0830151600010611e49576040805160e560020a62461bcd02815260206004820152602160248201527f5374616b6520646f6573206e6f742062656c6f6e6720746f2073657420e2849d60448201527f2b00000000000000000000000000000000000000000000000000000000000000606482015290519081900360840190fd5b611e5c600161271063ffffffff612b5b16565b60e084015111611eb6576040805160e560020a62461bcd02815260206004820152601660248201527f4f6464732063616e6e6f7420626520756e646572203100000000000000000000604482015290519081900360640190fd5b6101008301514210611f12576040805160e560020a62461bcd02815260206004820152600f60248201527f4265742068617320657870697265640000000000000000000000000000000000604482015290519081900360640190fd5b61146883612b90565b6001546040805160e060020a63bf40fac10281526020600482018190526008602483015260008051602061414f8339815191526044830152915160009384938493600160a060020a039092169263bf40fac192606480820193929182900301818787803b158015611f8b57600080fd5b505af1158015611f9f573d6000803e3d6000fd5b505050506040513d6020811015611fb557600080fd5b50516000858152600460205260409020805460ff191660011790559250611fdb85612cf3565b611fe485612f87565b604080880151885160a08a015183517f15dacbea000000000000000000000000000000000000000000000000000000008152600160a060020a039384166004820152918316602483015230604483015260648201529151939550919350908516916315dacbea916084808201926020929091908290030181600087803b15801561206d57600080fd5b505af1158015612081573d6000803e3d6000fd5b505050506040513d602081101561209757600080fd5b50511515612115576040805160e560020a62461bcd02815260206004820152602660248201527f43616e6e6f74207472616e73666572206261636b65722773207374616b65207460448201527f6f20706f6f6c0000000000000000000000000000000000000000000000000000606482015290519081900360840190fd5b81151561212157612326565b80156122535760408086015160208088015183517f15dacbea000000000000000000000000000000000000000000000000000000008152600160a060020a0393841660048201529083166024820152306044820152606481018690529251918616926315dacbea92608480830193928290030181600087803b1580156121a657600080fd5b505af11580156121ba573d6000803e3d6000fd5b505050506040513d60208110156121d057600080fd5b5051151561224e576040805160e560020a62461bcd02815260206004820152602560248201527f43616e6e6f74207472616e73666572206c617965722773207374616b6520746f60448201527f20706f6f6c000000000000000000000000000000000000000000000000000000606482015290519081900360840190fd5b612326565b604080860151602080880151835160e360020a6317d57599028152600160a060020a03938416600482015290831660248201526044810186905292519186169263beabacc892606480830193928290030181600087803b1580156122b657600080fd5b505af11580156122ca573d6000803e3d6000fd5b505050506040513d60208110156122e057600080fd5b50511515612326576040805160e560020a62461bcd02815260206004820152601f602482015260008051602061416f833981519152604482015290519081900360640190fd5b5050505050565b600080600061234f846060015185608001518660c0015187610140015161252d565b9150428460600151600160a060020a0316632cb0a2e58660c001516040518263ffffffff1660e060020a02815260040180828152602001915050602060405180830381600087803b1580156123a357600080fd5b505af11580156123b7573d6000803e3d6000fd5b505050506040513d60208110156123cd57600080fd5b505162093a80011115905060008211806123e45750805b151561243a576040805160e560020a62461bcd02815260206004820152601a60248201527f4265742063616e6e6f74206265207265736f6c76656420796574000000000000604482015290519081900360640190fd5b81151561244f5761244a84613284565b6124a9565b81600114156124615761244a846108fe565b81600214156124735761244a846133f2565b81600314156124855761244a84613589565b81600414156124975761244a84613711565b81600514156124a9576124a984613284565b5092915050565b600160a060020a03811615156124c557600080fd5b60008054604051600160a060020a03808516939216917f8be0079c531659141344cd1fd0a4f28419497f9722a3daafe3b4186f6b6457e091a36000805473ffffffffffffffffffffffffffffffffffffffff1916600160a060020a0392909216919091179055565b6000606085600160a060020a03166342813bcc85876040518363ffffffff1660e060020a0281526004018083815260200182600160a060020a0316600160a060020a0316815260200192505050602060405180830381600087803b15801561259457600080fd5b505af11580156125a8573d6000803e3d6000fd5b505050506040513d60208110156125be57600080fd5b505160ff166001146125d357600091506126d2565b85600160a060020a031663e78341e685876040518363ffffffff1660e060020a0281526004018083815260200182600160a060020a0316600160a060020a0316815260200192505050600060405180830381600087803b15801561263657600080fd5b505af115801561264a573d6000803e3d6000fd5b505050506040513d6000823e601f3d908101601f19168201604052602081101561267357600080fd5b81019080805164010000000081111561268b57600080fd5b8201602081018481111561269e57600080fd5b81516401000000008111828201871017156126b857600080fd5b505092919050505090506126cf868686868561384e565b91505b50949350505050565b60008060008060008060006126ef8b6139f0565b9350600092505b60028b0154831015612ad6576127b18a8a8a8e6002018781548110151561271957fe5b600091825260209182902001805460408051601f60026000196101006001871615020190941693909304928301859004850281018501909152818152928301828280156127a75780601f1061277c576101008083540402835291602001916127a7565b820191906000526020600020905b81548152906001019060200180831161278a57829003601f168201915b505050505061252d565b915081151561289a57428a600160a060020a0316632cb0a2e58a6040518263ffffffff1660e060020a02815260040180828152602001915050602060405180830381600087803b15801561280457600080fd5b505af1158015612818573d6000803e3d6000fd5b505050506040513d602081101561282e57600080fd5b505162093a8001111590508061288e576040805160e560020a62461bcd02815260206004820152601c60248201527f436c61696d2063616e6e6f74206265207265736f6c7665642079657400000000604482015290519081900360640190fd5b83945060009550612ad6565b8160011415612948576129418b6001018c600201858154811015156128bb57fe5b9060005260206000200160405180828054600181600116156101000203166002900480156129205780601f106128fe576101008083540402835291820191612920565b820191906000526020600020905b81548152906001019060200180831161290c575b5050928352505060405190819003602001902054869063ffffffff613a4a16565b9450612acb565b81600214156129e45760028b0180548c91908590811061296457fe5b9060005260206000200160405180828054600181600116156101000203166002900480156129c95780601f106129a75761010080835404028352918201916129c9565b820191906000526020600020905b8154815290600101906020018083116129b5575b50509150509081526020016040518091039020549550612acb565b8160031415612a8c5761294160028c6001018d60020186815481101515612a0757fe5b906000526020600020016040518082805460018160011615610100020316600290048015612a6c5780601f10612a4a576101008083540402835291820191612a6c565b820191906000526020600020905b815481529060010190602001808311612a58575b50509283525050604051908190036020019020549063ffffffff613a5c16565b8160041415612ab657612aaf60028c6000018d60020186815481101515612a0757fe5b9550612acb565b8160051415612acb5783945060009550612ad6565b6001909201916126f6565b84861115612b0557612afe612af1878763ffffffff613a7f16565b859063ffffffff613a7f16565b9650612b25565b612afe612b18868863ffffffff613a7f16565b859063ffffffff613a4a16565b505050505050949350505050565b600082600160a060020a0316612b498584613a96565b600160a060020a031614949350505050565b600080831515612b6e57600091506124a9565b50828202828482811515612b7e57fe5b0414612b8957600080fd5b9392505050565b6000806000806000606086608001519450866060015193508660c00151925084600160a060020a031663943e25a16040518163ffffffff1660e060020a028152600401602060405180830381600087803b158015612bed57600080fd5b505af1158015612c01573d6000803e3d6000fd5b505050506040513d6020811015612c1757600080fd5b5051610140880151805160408051604481840181019092528481526004810189905260248101889052939550919350918183019160208086019291820190858701015b80841015612c75578351825260209384019390910190612c5a565b5060208285848d617530fa808015612c905783519c50612c95565b60009c505b50505050505050851515610c41576040805160e560020a62461bcd02815260206004820152601860248201527f426574207061796c6f6164206973206e6f742076616c69640000000000000000604482015290519081900360640190fd5b6001546040805160e060020a63bf40fac10281526020600482018190526008602483015260008051602061414f8339815191526044830152915160009384938493600160a060020a039092169263bf40fac192606480820193929182900301818787803b158015612d6357600080fd5b505af1158015612d77573d6000803e3d6000fd5b505050506040513d6020811015612d8d57600080fd5b50516001546040805160e060020a63bf40fac1028152602060048201819052601060248301527f436f6e73656e7375734d616e616765720000000000000000000000000000000060448301529151939650600160a060020a039092169263bf40fac19260648082019392918290030181600087803b158015612e0e57600080fd5b505af1158015612e22573d6000803e3d6000fd5b505050506040513d6020811015612e3857600080fd5b505160a0850151909250612e549061019063ffffffff613a5c16565b60408086015160208088015183517f15dacbea000000000000000000000000000000000000000000000000000000008152600160a060020a03938416600482015290831660248201528683166044820152606481018590529251939450908616926315dacbea9260848082019392918290030181600087803b158015612ed957600080fd5b505af1158015612eed573d6000803e3d6000fd5b505050506040513d6020811015612f0357600080fd5b50511515612f81576040805160e560020a62461bcd02815260206004820152602560248201527f43616e6e6f74207472616e73666572206f7261636c65206665652066726f6d2060448201527f6c61796572000000000000000000000000000000000000000000000000000000606482015290519081900360840190fd5b50505050565b600080600080600080612f9987613cbe565b9350836001018761014001516040518082805190602001908083835b60208310612fd45780518252601f199092019160209182019101612fb5565b51815160209384036101000a6000190180199092169116179052920194855250604051938490030190922054151591506130c0905057600284015460031161308b576040805160e560020a62461bcd028152602060048201526024808201527f43616e6e6f742068617665206d6f7265207468616e207468726565206f75746360448201527f6f6d657300000000000000000000000000000000000000000000000000000000606482015290519081900360840190fd5b610140870151600285018054600181018083556000928352602092839020845191946130bd94919093019201906140b6565b50505b6130c9846139f0565b92506130d6876004613d1a565b915061314a82856000018961014001516040518082805190602001908083835b602083106131155780518252601f1990920191602091820191016130f6565b51815160209384036101000a600019018019909216911617905292019485525060405193849003019092205492915050613a4a565b846000018861014001516040518082805190602001908083835b602083106131835780518252601f199092019160209182019101613164565b51815160001960209485036101000a01908116901991909116179052920194855250604051938490038101842094909455505060a08901516101408a015180516131f794929360018a019390918291840190808383602083106131155780518252601f1990920191602091820191016130f6565b846001018861014001516040518082805190602001908083835b602083106132305780518252601f199092019160209182019101613211565b51815160209384036101000a60001901801990921691161790529201948552506040519384900301909220929092555061326b9050846139f0565b90506132778382613d6c565b9550955050505050915091565b6001546040805160e060020a63bf40fac10281526020600482018190526008602483015260008051602061414f83398151915260448301529151600093600160a060020a03169263bf40fac1926064808201939182900301818787803b1580156132ed57600080fd5b505af1158015613301573d6000803e3d6000fd5b505050506040513d602081101561331757600080fd5b5051604080840151845160a0860151835160e360020a6317d57599028152600160a060020a03938416600482015291831660248301526044820152915192935083169163beabacc8916064808201926020929091908290030181600087803b15801561338257600080fd5b505af1158015613396573d6000803e3d6000fd5b505050506040513d60208110156133ac57600080fd5b5051151561184c576040805160e560020a62461bcd02815260206004820152601f602482015260008051602061416f833981519152604482015290519081900360640190fd5b6001546040805160e060020a63bf40fac10281526020600482018190526008602483015260008051602061414f8339815191526044830152915160009384938493600160a060020a039092169263bf40fac192606480820193929182900301818787803b15801561346257600080fd5b505af1158015613476573d6000803e3d6000fd5b505050506040513d602081101561348c57600080fd5b5051925061349b846004613d1a565b60a08501519092506134b3908363ffffffff613a4a16565b6040808601518651825160e360020a6317d57599028152600160a060020a039283166004820152908216602482015260448101849052915192935085169163beabacc8916064808201926020929091908290030181600087803b15801561351957600080fd5b505af115801561352d573d6000803e3d6000fd5b505050506040513d602081101561354357600080fd5b50511515612f81576040805160e560020a62461bcd02815260206004820152601f602482015260008051602061416f833981519152604482015290519081900360640190fd5b6001546040805160e060020a63bf40fac10281526020600482018190526008602483015260008051602061414f833981519152604483015291516000938493600160a060020a039091169263bf40fac1926064808301939282900301818787803b1580156135f657600080fd5b505af115801561360a573d6000803e3d6000fd5b505050506040513d602081101561362057600080fd5b505160a084015190925061363b90600263ffffffff613a5c16565b6040808501518551825160e360020a6317d57599028152600160a060020a039283166004820152908216602482015260448101849052915192935084169163beabacc8916064808201926020929091908290030181600087803b1580156136a157600080fd5b505af11580156136b5573d6000803e3d6000fd5b505050506040513d60208110156136cb57600080fd5b50511515611468576040805160e560020a62461bcd02815260206004820152601f602482015260008051602061416f833981519152604482015290519081900360640190fd5b6001546040805160e060020a63bf40fac10281526020600482018190526008602483015260008051602061414f83398151915260448301529151600093849384938493600160a060020a039093169263bf40fac19260648084019391929182900301818787803b15801561378457600080fd5b505af1158015613798573d6000803e3d6000fd5b505050506040513d60208110156137ae57600080fd5b505193506137bd856004613d1a565b92506137d083600263ffffffff613a5c16565b60a08601519092506137e8908363ffffffff613a4a16565b6040808701518751825160e360020a6317d57599028152600160a060020a039283166004820152908216602482015260448101849052915192935086169163beabacc8916064808201926020929091908290030181600087803b1580156122b657600080fd5b60008060008060008060608a945084600160a060020a03166354ed633b6040518163ffffffff1660e060020a028152600401602060405180830381600087803b15801561389a57600080fd5b505af11580156138ae573d6000803e3d6000fd5b505050506040513d60208110156138c457600080fd5b810190808051906020019092919050505093508b9250899150889050805188516044820181016020840160208c016040516040518482016040528a8152600481019050898152601481019050600c810190508881526020810190508684015b8085101561393e578451825260209485019490910190613923565b508583015b8084101561395e578351825260209384019390910190613943565b5060208286848f617530fa8080156139795783519e5061397e565b60009e505b5050508b151595506139e0945050505050576040805160e560020a62461bcd02815260206004820152601760248201527f43616c6c20746f207265736f6c766572206661696c6564000000000000000000604482015290519081900360640190fd5b50939a9950505050505050505050565b6000808080805b6002860154831015613a4057613a0d8684613db0565b9150821515613a1e57819350613a35565b613a288483613d6c565b9150508015613a35578193505b6001909201916139f7565b5091949350505050565b600082820183811015612b8957600080fd5b600080808311613a6b57600080fd5b8284811515613a7657fe5b04949350505050565b60008083831115613a8f57600080fd5b5050900390565b60008060008060008086516042141515613b20576040805160e560020a62461bcd02815260206004820152602560248201527f5369676e6174757265206d7573742068617665206c656e67746820657861637460448201527f6c79203636000000000000000000000000000000000000000000000000000000606482015290519081900360840190fd5b866000815181101515613b2f57fe5b90602001015160f860020a900460f860020a0260f860020a900460ff166001811115613b5757fe5b9450866001815181101515613b6857fe5b01602001516022880151604289015160f860020a928390048302929092049550935091506001856001811115613b9a57fe5b1415613c4a57604080517f19457468657265756d205369676e6564204d6573736167653a0a333200000000602080830191909152603c8083018c905283518084039091018152605c90920192839052815191929182918401908083835b60208310613c165780518252601f199092019160209182019101613bf7565b6001836020036101000a03801982511681845116808217855250505050505090500191505060405180910390209050613c4d565b50865b604080516000808252602080830180855285905260ff8816838501526060830187905260808301869052925160019360a0808501949193601f19840193928390039091019190865af1158015613ca7573d6000803e3d6000fd5b5050604051601f1901519998505050505050505050565b6000806000613ce0846060015185608001518660c00151876101400151613f29565b9150613d0484602001518560600151866080015187604001518860c0015187610949565b6000908152600660205260409020949350505050565b600080613d4b83600a0a613d3f8660e001518760a00151612b5b90919063ffffffff16565b9063ffffffff613a5c16565b9050613d648460a0015182613a7f90919063ffffffff16565b949350505050565b60008083831115613d9257613d87838563ffffffff613a7f16565b600191509150613da9565b613da2848463ffffffff613a7f16565b6000915091505b9250929050565b600080600080856000018660020186815481101515613dcb57fe5b906000526020600020016040518082805460018160011615610100020316600290048015613e305780601f10613e0e576101008083540402835291820191613e30565b820191906000526020600020905b815481529060010190602001808311613e1c575b5050915050908152602001604051809103902054925060009150600090505b6002860154811015613f0b57808514613f0357613f00866001018760020183815481101515613e7a57fe5b906000526020600020016040518082805460018160011615610100020316600290048015613edf5780601f10613ebd576101008083540402835291820191613edf565b820191906000526020600020905b815481529060010190602001808311613ecb575b5050928352505060405190819003602001902054839063ffffffff613a4a16565b91505b600101613e4f565b818311613f1957600061093f565b61093f838363ffffffff613a7f16565b60008060008060008088935089925087915083600160a060020a03166336cd46676040518163ffffffff1660e060020a028152600401602060405180830381600087803b158015613f7957600080fd5b505af1158015613f8d573d6000803e3d6000fd5b505050506040513d6020811015613fa357600080fd5b50518751604080516044818401810190925283815260048101879052602481018690529293509091818301916020808c019291820190858d01015b80841015613ff9578351825260209384019390910190613fde565b5060208285848c617530fa8080156140145783519b50614019565b602084fd5b50999f9e505050505050505050505050505050565b610160604051908101604052806000600160a060020a031681526020016000600160a060020a031681526020016000600160a060020a031681526020016000600160a060020a031681526020016000600160a060020a031681526020016000815260200160008152602001600081526020016000815260200160008152602001606081525090565b828054600181600116156101000203166002900490600052602060002090601f016020900481019282601f106140f757805160ff1916838001178555614124565b82800160010185558215614124579182015b82811115614124578251825591602001919060010190614109565b50614130929150614134565b5090565b6102b591905b80821115614130576000815560010161413a560046616e5661756c7400000000000000000000000000000000000000000000000043616e6e6f74207472616e73666572207374616b652066726f6d20706f6f6c00a165627a7a72305820646a30c3f5d85a4f5baeb1b239085a4bcd755eeec6fd7b27ec4fddecc80d6e890029",
  "source": "pragma solidity ^0.4.24;\n\nimport \"openzeppelin-solidity/contracts/ownership/Ownable.sol\";\nimport \"openzeppelin-solidity/contracts/math/SafeMath.sol\";\n\nimport \"./interfaces/IBetManager.sol\";\nimport \"./interfaces/ILeague.sol\";\nimport \"./interfaces/ILeagueRegistry.sol\";\nimport \"./interfaces/IResolver.sol\";\nimport \"./interfaces/IVault.sol\";\nimport \"./interfaces/IResolverRegistry.sol\";\n\nimport \"./utils/RegistryAccessible.sol\";\nimport \"./utils/ChainSpecifiable.sol\";\n\nimport \"./libraries/BetLib.sol\";\nimport \"./libraries/SignatureLib.sol\";\nimport \"./libraries/PositionLib.sol\";\n\n/**\n * @title Bet Manager Contract\n * @notice BetManager is the core contract responsible for bet validations and bet submissions\n */\ncontract BetManager is Ownable, IBetManager, RegistryAccessible, ChainSpecifiable {\n\n  using SafeMath for uint;\n\n  // Number of decimal places in BetLib.Odds\n  uint public constant ODDS_DECIMALS = 4;\n\n  // Oracle fee dividing factor (1 / 400 = 0.0025)\n  uint public constant ORACLE_FEE = 400;\n\n  // EIP712 Domain separator\n  bytes32 public DOMAIN_SEPARATOR; // set during deploy time\n\n  // Resolves to `true` if hash is used, `false` otherwise\n  mapping(bytes32 => bool) private unclaimed;\n  // Resolves to `true` if bet has been claimed, `false` otherwise\n  mapping(bytes32 => bool) private claimed;\n  // Position hash (layer, league, fixture, resolver, token) => Position\n  mapping(bytes32 => PositionLib.Position) private positions;\n\n  // Emit when a Bet has been submitted\n  event LogBetSubmitted(\n    bytes32 indexed _hash,\n    address indexed _backer,\n    address indexed _layer,\n    address[3] _subjects,\n    uint[4] _params,\n    uint _nonce,\n    bytes _payload\n  );\n  // Emit when a Bet has been claimed\n  event LogBetClaimed(\n    bytes32 indexed _hash,\n    uint256 _result\n  );\n  // Emit when layer has claimed payout\n  event LogPayoutClaimed(\n    address indexed _layer,\n    address _league,\n    address _resolver,\n    address _token,\n    uint _fixture,\n    bytes32 _segment\n  );\n\n  /**\n   * @notice Constructor\n   * @dev Change chainId in case of a fork, making sure txs cannot be replayed on forked chains\n   * @param _chainId ChainId to be set\n   */\n  constructor(uint _chainId, address _registry)\n    public\n    ChainSpecifiable(_chainId)\n    RegistryAccessible(_registry)\n  {\n    DOMAIN_SEPARATOR = keccak256(\n      abi.encode(\n        keccak256(\"EIP712Domain(string name,uint256 chainId,address verifyingContract)\"),\n        keccak256(\"FansUnite Protocol\"),\n        _chainId,\n        address(this)\n      )\n    );\n  }\n\n  ///////////////////////////////////////////////////////////////////////////////\n  ////////////////////////////// External Functions /////////////////////////////\n  ///////////////////////////////////////////////////////////////////////////////\n\n  /**\n   * @notice Submits a bet\n   * @param _subjects Subjects associated with bet [backer, layer, token, league, resolver]\n   * @param _params Parameters associated with bet [backerStake, fixture, odds, expiration]\n   * @param _nonce Nonce, to ensure hash uniqueness\n   * @param _payload Payload for resolver\n   * @param _signature ECDSA signature along with the mode\n   *  (0 = Typed, 1 = Geth) {mode}{v}{r}{s}.\n   */\n  function submitBet(\n    address[5] _subjects,\n    uint[4] _params,\n    uint _nonce,\n    bytes _payload,\n    bytes _signature\n  )\n    external\n  {\n    BetLib.Bet memory _bet = BetLib.generate(_subjects, _params, _nonce, _payload);\n    bytes32 _hash = BetLib.hash(_bet, DOMAIN_SEPARATOR);\n\n    _authenticateBet(_bet, _hash, _signature);\n    _authorizeBet(_bet);\n    _validateBet(_bet);\n    _processBet(_bet, _hash);\n\n    emit LogBetSubmitted(\n      _hash,\n      _bet.backer,\n      _bet.layer,\n      [_bet.token, _bet.league, _bet.resolver],\n      [_bet.backerStake, _bet.fixture, _bet.odds, _bet.expiration],\n      _nonce,\n      _payload\n    );\n  }\n\n  /**\n   * @notice Claims a bet, transfers tokens based on fixture resolution\n   * @param _subjects Subjects associated with bet\n   * @param _params Parameters associated with bet\n   * @param _nonce Nonce, to ensure hash uniqueness\n   * @param _payload Payload for resolver\n   */\n  function claimBet(address[5] _subjects, uint[4] _params, uint _nonce, bytes _payload) external {\n    BetLib.Bet memory _bet = BetLib.generate(_subjects, _params, _nonce, _payload);\n    bytes32 _hash = BetLib.hash(_bet, DOMAIN_SEPARATOR);\n\n    require(unclaimed[_hash], \"Bet with given parameters either claimed or never submitted\");\n\n    unclaimed[_hash] = false;\n    claimed[_hash] = true;\n\n    uint _result = _processBackerClaim(_bet);\n\n    emit LogBetClaimed(_hash, _result);\n  }\n\n  /**\n   * @notice Claims a layer's payout\n   * @dev Processes funds for layer `msg.sender`\n   * @param _league League address\n   * @param _resolver Resolver address\n   * @param _token Token address\n   * @param _fixture Fixture id\n   * @param _segment Resolver segment\n   */\n  function claimPayout(\n    address _league,\n    address _resolver,\n    address _token,\n    uint _fixture,\n    bytes32 _segment\n  )\n    external\n  {\n    // solium-disable-next-line max-len\n    bytes32 _hash = PositionLib.getPositionHashRaw(msg.sender, _league, _resolver, _token, _fixture, _segment);\n    require(!claimed[_hash], \"Cannot re-claim position for given parameters\");\n\n    claimed[_hash] = true;\n\n    _processLayerClaim(positions[_hash], _league, _resolver, _token, _fixture);\n\n    emit LogPayoutClaimed(msg.sender, _league, _resolver, _token, _fixture, _segment);\n  }\n\n  /**\n   * @notice Gets the bet result\n   * @param _league Address of league\n   * @param _resolver Address of resolver\n   * @param _fixture Id of fixture\n   * @param _payload Payload for resolver\n   * @return uint between 1 and 5 (check IResolver for details) or 0 (for unresolved fixtures)\n   */\n  function getResult(address _league, address _resolver, uint _fixture, bytes _payload)\n    external\n    view\n    returns (uint)\n  {\n    return _getResult(_league, _resolver, _fixture, _payload);\n  }\n\n  ///////////////////////////////////////////////////////////////////////////////\n  ///////////////////////////////// Validate Bet ////////////////////////////////\n  ///////////////////////////////////////////////////////////////////////////////\n\n  /**\n   * @dev Throws if any of the following checks fail\n   *  + `msg.sender` is `_bet.layer`\n   *  + `msg.sender` is not `_bet.backer`\n   *  + `_bet.backer` has signed `_hash`\n   *  + `_hash` is unique (preventing replay attacks)\n   * @param _bet Bet to be submitted\n   * @param _hash EIP712 complaint hash of _bet\n   * @param _signature ECDSA signature along with the mode\n   */\n  function _authenticateBet(BetLib.Bet memory _bet, bytes32 _hash, bytes _signature)\n    private\n    view\n  {\n    require(\n      msg.sender == _bet.layer,\n      \"Bet is not permitted for the msg.sender to take\"\n    );\n    require(\n      _bet.backer != address(0) && _bet.backer != msg.sender,\n      \"Bet is not permitted for the msg.sender to take\"\n    );\n    require(\n      !(claimed[_hash] || unclaimed[_hash]),\n      \"Bet with same hash been submitted before\"\n    );\n    require(\n      SignatureLib.isValidSignature(_hash, _bet.backer, _signature),\n      \"Tx is sent with an invalid signature\"\n    );\n  }\n\n  /**\n   * @dev Throws if any of the following checks fail\n   *  + `address(this)` is an approved spender by both backer and layer\n   *  + `_bet.backer` has appropriate amount staked in vault\n   * @param _bet Bet to be authorized\n   */\n  function _authorizeBet(BetLib.Bet memory _bet) private view {\n    IVault _vault = IVault(registry.getAddress(\"FanVault\"));\n\n    require(\n      _vault.isApproved(_bet.backer, address(this)),\n      \"Backer has not approved BetManager to move funds in Vault\"\n    );\n    require(\n      _vault.isApproved(_bet.layer, address(this)),\n      \"Layer has not approved BetManager to move funds in Vault\"\n    );\n    require(\n      _vault.balanceOf(_bet.token, _bet.backer) >= _bet.backerStake,\n      \"Backer does not have sufficient tokens\"\n    );\n  }\n\n  /**\n   * @dev Throws if any of the following checks fail\n   *  + `_bet.league` is a registered league with FansUnite\n   *  + `_bet.resolver` is registered with league\n   *  + `_bet.fixture` is scheduled with league\n   *  + `_bet.resolver` is not resolved for `_bet.fixture`\n   *  + `_bet.backerStake` must belong to set +\n   *  + `_bet.odds` must be greater than 1\n   *  + `_bet.expiration` is greater than `now`\n   *  + `_bet.payload` is valid according to resolver\n   * @param _bet Bet to be validated\n   */\n  function _validateBet(BetLib.Bet memory _bet) private view {\n    address _leagueRegistry = registry.getAddress(\"LeagueRegistry\");\n    address _resolverRegistry = registry.getAddress(\"ResolverRegistry\");\n\n    require(\n      ILeagueRegistry(_leagueRegistry).isLeagueRegistered(_bet.league),\n      \"League is not registered with FansUnite\"\n    );\n    require(\n      IResolverRegistry(_resolverRegistry).isResolverUsed(_bet.league, _bet.resolver),\n      \"Resolver is not usable with league\"\n    );\n    require(\n      ILeague(_bet.league).isFixtureScheduled(_bet.fixture),\n      \"Fixture is not scheduled with League\"\n    );\n    require(\n      ILeague(_bet.league).isFixtureResolved(_bet.fixture, _bet.resolver) != 1,\n      \"Fixture is already resolved\"\n    );\n    require(\n      _bet.backerStake > 0,\n      \"Stake does not belong to set +\"\n    );\n    require(\n      _bet.odds > uint(1).mul(10 ** ODDS_DECIMALS),\n      \"Odds cannot be under 1\"\n    );\n    require(\n      _bet.expiration > block.timestamp,\n      \"Bet has expired\"\n    );\n\n    __validatePayload(_bet);\n\n  }\n\n  /**\n   * @dev Throws if `_payload` is not valid\n   * @param _bet Bet instance to be validated\n   */\n  function __validatePayload(BetLib.Bet memory _bet) private view {\n    bool _isPayloadValid;\n    address _resolver = _bet.resolver;\n    address _league = _bet.league;\n    uint256 _fixture = _bet.fixture;\n    bytes4 _selector = IResolver(_resolver).getValidatorSelector();\n    bytes memory _payload = _bet.payload;\n\n    assembly {\n      let _plen := mload(_payload)               // _plen = length of _payload\n      let _tlen := add(_plen, 0x44)              // _tlen = total length of calldata\n      let _p    := add(_payload, 0x20)           // _p    = encoded bytes of _payload\n\n      let _ptr   := mload(0x40)                  // _ptr   = free memory pointer\n      let _index := mload(0x40)                  // _index = same as _ptr\n      mstore(0x40, add(_ptr, _tlen))             // update free memory pointer\n\n      mstore(_index, _selector)                  // store selector at _index\n      _index := add(_index, 0x04)                // _index = _index + 0x04\n      mstore(_index, _league)                    // store address at _index\n      _index := add(_index, 0x14)                // _index = _index + 0x14\n      _index := add(_index, 0x0C)                // _index = _index + 0x0C\n      mstore(_index, _fixture)                   // store _fixture at _index\n      _index := add(_index, 0x20)                // _index = _index + 0x20\n\n      for\n      { let _end := add(_p, _plen) }             // init: _end = _p + _plen\n      lt(_p, _end)                               // cond: _p < _end\n      { _p := add(_p, 0x20) }                    // incr: _p = _p + 0x20\n      {\n        mstore(_index, mload(_p))                // store _p to _index\n        _index := add(_index, 0x20)              // _index = _index + 0x20\n      }\n\n      let result := staticcall(30000, _resolver, _ptr, _tlen, _ptr, 0x20)\n\n      switch result\n      case 0 {\n        _isPayloadValid := 0\n      }\n      default {\n        _isPayloadValid := mload(_ptr)\n      }\n    }\n\n    require(\n      _isPayloadValid,\n      \"Bet payload is not valid\"\n    );\n  }\n\n  ///////////////////////////////////////////////////////////////////////////////\n  ///////////////////////////////// Process Bet /////////////////////////////////\n  ///////////////////////////////////////////////////////////////////////////////\n\n  /**\n   * @dev Processes the funds and stores the bet\n   * @param _bet Bet to be processed\n   * @param _hash EIP712 complaint hash of _bet\n   */\n  function _processBet(BetLib.Bet memory _bet, bytes32 _hash) private {\n    IVault _vault = IVault(registry.getAddress(\"FanVault\"));\n\n    unclaimed[_hash] = true;\n\n    __processOracleFees(_bet);\n    (uint _displacement, bool _increased) = __processPosition(_bet);\n\n    require(\n      _vault.transferFrom(_bet.token, _bet.backer, address(this), _bet.backerStake),\n      \"Cannot transfer backer's stake to pool\"\n    );\n\n    if (_displacement == 0) return;\n\n    if (_increased) {\n      require(\n        _vault.transferFrom(_bet.token, _bet.layer, address(this), _displacement),\n        \"Cannot transfer layer's stake to pool\"\n      );\n    } else {\n      require(\n        _vault.transfer(_bet.token, _bet.layer, _displacement),\n        \"Cannot transfer stake from pool\"\n      );\n    }\n  }\n\n  /**\n   * @dev Processes the oracle fees\n   * @param _bet Bet instance\n   */\n  function __processOracleFees(BetLib.Bet memory _bet) private {\n    IVault _vault = IVault(registry.getAddress(\"FanVault\"));\n    address _consensusManager = registry.getAddress(\"ConsensusManager\");\n    uint _oracleFee = _bet.backerStake.div(ORACLE_FEE);\n\n    require(\n      _vault.transferFrom(_bet.token, _bet.layer, _consensusManager, _oracleFee),\n      \"Cannot transfer oracle fee from layer\"\n    );\n  }\n\n  /**\n   * @dev Processes the position of layer `_bet.layer` and returns displacement in position\n   * @param _bet Bet to be submitted\n   * @return Returns the amount by which the position is displaced after the bet is submitted\n   * @return Returns true if risk has increased, false otherwise\n   */\n  function __processPosition(BetLib.Bet memory _bet) private view returns (uint, bool) {\n    PositionLib.Position storage _position = __getPosition(_bet);\n\n    if (_position.volumes[_bet.payload] == 0) {\n      require(_position.payloads.length < 3, \"Cannot have more than three outcomes\");\n      _position.payloads.push(_bet.payload);\n    }\n\n    uint _o = PositionLib.getExposure(_position);\n\n    uint _layerStake = BetLib.layerStake(_bet, ODDS_DECIMALS);\n    _position.payout[_bet.payload] = _position.payout[_bet.payload].add(_layerStake);\n    _position.volumes[_bet.payload] = _position.volumes[_bet.payload].add(_bet.backerStake);\n\n    uint _n = PositionLib.getExposure(_position);\n\n    return PositionLib.getNetPayoutDisplacement(_o, _n);\n  }\n\n\n  ///////////////////////////////////////////////////////////////////////////////\n  ///////////////////////////// Process Backer Claim ////////////////////////////\n  ///////////////////////////////////////////////////////////////////////////////\n\n\n  /**\n   * @dev Processes funds for `_bet.backer` based on result\n   * @param _bet Bet to be claimed\n   * @return the bet result\n   */\n  function _processBackerClaim(BetLib.Bet memory _bet) private returns (uint) {\n    uint _result = _getResult(_bet.league, _bet.resolver, _bet.fixture, _bet.payload);\n    bool _expired = ILeague(_bet.league).getFixtureStart(_bet.fixture) + 7 days <= block.timestamp;\n    require(_result > 0 || _expired, \"Bet cannot be resolved yet\");\n\n    if (_result == 0) __processBackerRevert(_bet);\n    else if (_result == 1) __processBackerLose(_bet);\n    else if (_result == 2) __processBackerWin(_bet);\n    else if (_result == 3) __processBackerHalfLose(_bet);\n    else if (_result == 4) __processBackerHalfWin(_bet);\n    else if (_result == 5) __processBackerPush(_bet);\n\n    return _result;\n  }\n\n  /**\n   * @dev Processes the funds back to owners\n   * @param _bet Bet to be claimed\n   */\n  function __processBackerRevert(BetLib.Bet memory _bet) private {\n    IVault _vault = IVault(registry.getAddress(\"FanVault\"));\n\n    require(\n      _vault.transfer(_bet.token, _bet.backer, _bet.backerStake),\n      \"Cannot transfer stake from pool\"\n    );\n  }\n\n  /**\n   * @dev Processes funds when backer loses\n   * @param _bet Bet to be claimed\n   */\n  function __processBackerLose(BetLib.Bet memory _bet) private {\n\n  }\n\n  /**\n   * @dev Processes funds when backer wins\n   * @param _bet Bet to be claimed\n   */\n  function __processBackerWin(BetLib.Bet memory _bet) private {\n    IVault _vault = IVault(registry.getAddress(\"FanVault\"));\n\n    uint _layerStake = BetLib.layerStake(_bet, ODDS_DECIMALS);\n    uint _totalStake = _bet.backerStake.add(_layerStake);\n\n    require(\n      _vault.transfer(_bet.token, _bet.backer, _totalStake),\n      \"Cannot transfer stake from pool\"\n    );\n  }\n\n  /**\n   * @dev Processes funds when backer half loses bet\n   * @param _bet Bet to be claimed\n   */\n  function __processBackerHalfLose(BetLib.Bet memory _bet) private {\n    IVault _vault = IVault(registry.getAddress(\"FanVault\"));\n\n    uint _backerReturn = _bet.backerStake.div(2);\n\n    require(\n      _vault.transfer(_bet.token, _bet.backer, _backerReturn),\n      \"Cannot transfer stake from pool\"\n    );\n  }\n\n  /**\n   * @dev Processes funds when backer half wins bet\n   * @param _bet Bet to be claimed\n   */\n  function __processBackerHalfWin(BetLib.Bet memory _bet) private {\n    IVault _vault = IVault(registry.getAddress(\"FanVault\"));\n\n    uint _layerStake = BetLib.layerStake(_bet, ODDS_DECIMALS);\n    uint _layerReturn = _layerStake.div(2);\n    uint _backerReturn = _bet.backerStake.add(_layerReturn);\n\n    require(\n      _vault.transfer(_bet.token, _bet.backer, _backerReturn),\n      \"Cannot transfer stake from pool\"\n    );\n  }\n\n  /**\n   * @dev Processes funds when bet results in push\n   * @param _bet Bet to be claimed\n   */\n  function __processBackerPush(BetLib.Bet memory _bet) private {\n    IVault _vault = IVault(registry.getAddress(\"FanVault\"));\n\n    require(\n      _vault.transfer(_bet.token, _bet.backer, _bet.backerStake),\n      \"Cannot transfer stake from pool\"\n    );\n  }\n\n\n  ///////////////////////////////////////////////////////////////////////////////\n  ///////////////////////////// Process Layer Claim /////////////////////////////\n  ///////////////////////////////////////////////////////////////////////////////\n\n  /**\n   * @dev Processes funds for layer `msg.sender`\n   * @param _position Layer's position\n   * @param _league League address\n   * @param _resolver Resolver address\n   * @param _token Token address\n   * @param _fixture Fixture id\n   */\n  function _processLayerClaim(\n    PositionLib.Position storage _position,\n    address _league,\n    address _resolver,\n    address _token,\n    uint _fixture\n  )\n    private\n  {\n    require(_position.payloads.length > 0, \"No bets recorded for given position\");\n\n    IVault _vault = IVault(registry.getAddress(\"FanVault\"));\n    uint _net = _getLayerPayout(_position, _league, _resolver, _fixture);\n\n    if (_net == 0) return;\n\n    require(\n      _vault.transfer(_token, msg.sender, _net),\n      \"Cannot transfer layer stake from pool\"\n    );\n  }\n\n  /**\n   * @dev Gets net payout for layer `msg.sender`\n   * @param _position Layer's position\n   * @param _league League address\n   * @param _resolver Resolver address\n   * @param _fixture Fixture id\n   */\n  function _getLayerPayout(\n    PositionLib.Position storage _position,\n    address _league,\n    address _resolver,\n    uint _fixture\n  )\n    private\n    returns (uint)\n  {\n    uint _payout;\n    uint _gain;\n    uint _e = PositionLib.getExposure(_position);\n\n    for (uint _i = 0; _i < _position.payloads.length; _i++) {\n      uint _result = _getResult(_league, _resolver, _fixture, _position.payloads[_i]);\n\n      if (_result == 0) {  // No resolution\n        bool _expired = ILeague(_league).getFixtureStart(_fixture) + 7 days <= block.timestamp;\n        require(_expired, \"Claim cannot be resolved yet\");\n\n        _gain = _e;\n        _payout = 0;\n        break;\n\n      } else if (_result == 1) {  // Lose\n        _gain = _gain.add(_position.volumes[_position.payloads[_i]]);\n\n      } else if (_result == 2) {  // Win\n        _payout = _position.payout[_position.payloads[_i]];\n\n      } else if (_result == 3) {  // HL\n        _gain = _position.volumes[_position.payloads[_i]].div(2);\n\n      } else if (_result == 4) {  // HW\n        _payout = _position.payout[_position.payloads[_i]].div(2);\n\n      } else if (_result == 5) {  // Push\n        _gain = _e;\n        _payout = 0;\n        break;\n      }\n    }\n\n    if (_payout > _gain) {\n      return _e.sub(_payout.sub(_gain));\n    } else {\n      return _e.add(_gain.sub(_payout));\n    }\n  }\n\n  ///////////////////////////////////////////////////////////////////////////////\n  /////////////////////////////////// Utility ///////////////////////////////////\n  ///////////////////////////////////////////////////////////////////////////////\n\n  /**\n   * @dev Gets Position of the layer for the generic set that _bet belongs in\n   * @param _bet Bet instance\n   */\n  function __getPosition(BetLib.Bet memory _bet)\n    private\n    returns (PositionLib.Position storage _position)\n  {\n    bytes32 _seg = __getPositionSegment(_bet.league, _bet.resolver, _bet.fixture, _bet.payload);\n    bytes32 _hash = PositionLib.getPositionHashRaw(\n      _bet.layer,\n      _bet.league,\n      _bet.resolver,\n      _bet.token,\n      _bet.fixture,\n      _seg\n    );\n\n    _position = positions[_hash];\n  }\n\n  /**\n   * @notice Gets the bet result\n   * @param _league Address of league\n   * @param _resolver Address of resolver\n   * @param _fixture Id of fixture\n   * @param _payload Payload for resolver\n   * @return uint between 1 and 5 (check IResolver for details) or 0 (for unresolved fixtures)\n   */\n  function _getResult(address _league, address _resolver, uint _fixture, bytes _payload)\n    private\n    view\n    returns (uint)\n  {\n    if (ILeague(_league).isFixtureResolved(_fixture, _resolver) != 1) return 0;\n\n    bytes memory _resolution = ILeague(_league).getResolution(_fixture, _resolver);\n    return __getResult(_league, _resolver, _fixture, _payload, _resolution);\n  }\n\n  /**\n   * @dev Gets the bet result based on arguments\n   * @dev Throws if call to resolver fails\n   * @param __league Address of league\n   * @param __resolver Address of resolver\n   * @param __fixture Id of fixture\n   * @param __payload bet payload encoded function parameters\n   * @param __resolution resolution encoded function parameters\n   * @return uint between 1 and 5 (check IResolver for details)\n   */\n  function __getResult(\n    address __league,\n    address __resolver,\n    uint __fixture,\n    bytes __payload,\n    bytes memory __resolution\n  )\n    private\n    view\n    returns (uint)\n  {\n    uint _result;\n    address _resolver = __resolver;\n    bytes4 _selector = IResolver(_resolver).getInitSelector();\n    address _league = __league;\n    uint256 _fixture = __fixture;\n    bytes memory _payload = __payload;\n\n    assembly {\n      let _plen := mload(_payload)               // _plen = length of _payload\n      let _rlen := mload(__resolution)            // _rlen = length of _resolution\n      let _tlen := add(_rlen, add(_plen, 0x44))  // _tlen = total length of calldata\n      let _p    := add(_payload, 0x20)           // _p    = encoded bytes of _payload\n      let _r    := add(__resolution, 0x20)        // _r    = encoded bytes of _resolution\n\n      let _ptr   := mload(0x40)                  // _ptr   = free memory pointer\n      let _index := mload(0x40)                  // _index = same as _ptr\n      mstore(0x40, add(_ptr, _tlen))             // update free memory pointer\n\n      mstore(_index, _selector)                  // store selector at _index\n      _index := add(_index, 0x04)                // _index = _index + 0x04\n      mstore(_index, _league)                    // store address at _index\n      _index := add(_index, 0x14)                // _index = _index + 0x14\n      _index := add(_index, 0x0C)                // _index = _index + 0x0C\n      mstore(_index, _fixture)                   // store _fixture at _index\n      _index := add(_index, 0x20)                // _index = _index + 0x20\n\n      for\n      { let _end := add(_p, _plen) }             // init: _end = _p + _plen\n      lt(_p, _end)                               // cond: _p < _end\n      { _p := add(_p, 0x20) }                    // incr: _p = _p + 0x20\n      {\n        mstore(_index, mload(_p))                // store _p to _index\n        _index := add(_index, 0x20)              // _index = _index + 0x20\n      }\n\n      for\n      { let _end := add(_r, _rlen) }             // init: _end = _r + _rlen\n      lt(_r, _end)                               // cond: _r < _end\n      { _r := add(_r, 0x20) }                    // incr: _r = _r + 0x20\n      {\n        mstore(_index, mload(_r))                // store _r to _index\n        _index := add(_index, 0x20)              // _index = _index + 0x20\n      }\n\n      let result := staticcall(30000, _resolver, _ptr, _tlen, _ptr, 0x20)\n\n      switch result\n      case 0 {\n        _result := 0\n      }\n      default {\n        _result := mload(_ptr)\n      }\n    }\n\n    require(_result != 0, \"Call to resolver failed\");\n\n    return _result;\n  }\n\n  /**\n   * @dev Throws if `_payload` is not valid\n   * @param __league league address\n   * @param __resolver resolver address\n   * @param __fixture fixture id\n   * @param _payload bet payload\n   */\n  function __getPositionSegment(\n    address __league,\n    address __resolver,\n    uint __fixture,\n    bytes memory _payload\n  )\n    private\n    view\n    returns (bytes32)\n  {\n    bytes32 _segment;\n    address _resolver = __resolver;\n    address _league = __league;\n    uint256 _fixture = __fixture;\n    bytes4 _selector = IResolver(_resolver).getSegmentSelector();\n\n    assembly {\n      let _plen := mload(_payload)               // _plen = length of _payload\n      let _tlen := add(_plen, 0x44)              // _tlen = total length of calldata\n      let _p    := add(_payload, 0x20)           // _p    = encoded bytes of _payload\n\n      let _ptr   := mload(0x40)                  // _ptr   = free memory pointer\n      let _index := mload(0x40)                  // _index = same as _ptr\n      mstore(0x40, add(_ptr, _tlen))             // update free memory pointer\n\n      mstore(_index, _selector)                  // store selector at _index\n      _index := add(_index, 0x04)                // _index = _index + 0x04\n      mstore(_index, _league)                    // store address at _index\n      _index := add(_index, 0x14)                // _index = _index + 0x14\n      _index := add(_index, 0x0C)                // _index = _index + 0x0C\n      mstore(_index, _fixture)                   // store _fixture at _index\n      _index := add(_index, 0x20)                // _index = _index + 0x20\n\n      for\n      { let _end := add(_p, _plen) }             // init: _end = _p + _plen\n      lt(_p, _end)                               // cond: _p < _end\n      { _p := add(_p, 0x20) }                    // incr: _p = _p + 0x20\n      {\n        mstore(_index, mload(_p))                // store _p to _index\n        _index := add(_index, 0x20)              // _index = _index + 0x20\n      }\n\n      let result := staticcall(30000, _resolver, _ptr, _tlen, _ptr, 0x20)\n\n      switch result\n      case 0 {\n        revert(_ptr, 0x20)\n      }\n      default {\n        _segment := mload(_ptr)\n      }\n    }\n\n    return _segment;\n  }\n\n}\n",
  "sourcePath": "/Users/ryancimoszko/fu/fansunite-js/node_modules/fansunite-core/contracts/BetManager.sol",
  "compiler": {
    "name": "solc",
    "version": "0.4.24+commit.e67f0147.Emscripten.clang"
  },
  "schemaVersion": "2.0.1",
  "updatedAt": "2019-01-28T18:29:28.522Z"
}