{
  "contractName": "BetManager",
  "abi": [
    {
      "constant": true,
      "inputs": [
        {
          "name": "",
          "type": "bytes32"
        },
        {
          "name": "",
          "type": "address"
        }
      ],
      "name": "layerFilled",
      "outputs": [
        {
          "name": "",
          "type": "uint256"
        }
      ],
      "payable": false,
      "stateMutability": "view",
      "type": "function"
    },
    {
      "constant": true,
      "inputs": [
        {
          "name": "",
          "type": "bytes32"
        }
      ],
      "name": "filled",
      "outputs": [
        {
          "name": "",
          "type": "uint256"
        }
      ],
      "payable": false,
      "stateMutability": "view",
      "type": "function"
    },
    {
      "constant": true,
      "inputs": [
        {
          "name": "",
          "type": "bytes32"
        }
      ],
      "name": "cancelled",
      "outputs": [
        {
          "name": "",
          "type": "bool"
        }
      ],
      "payable": false,
      "stateMutability": "view",
      "type": "function"
    },
    {
      "constant": true,
      "inputs": [
        {
          "name": "",
          "type": "address"
        },
        {
          "name": "",
          "type": "uint256"
        }
      ],
      "name": "userBetIds",
      "outputs": [
        {
          "name": "",
          "type": "bytes32"
        }
      ],
      "payable": false,
      "stateMutability": "view",
      "type": "function"
    },
    {
      "constant": false,
      "inputs": [],
      "name": "renounceOwnership",
      "outputs": [],
      "payable": false,
      "stateMutability": "nonpayable",
      "type": "function"
    },
    {
      "constant": true,
      "inputs": [],
      "name": "owner",
      "outputs": [
        {
          "name": "",
          "type": "address"
        }
      ],
      "payable": false,
      "stateMutability": "view",
      "type": "function"
    },
    {
      "constant": true,
      "inputs": [
        {
          "name": "",
          "type": "bytes32"
        }
      ],
      "name": "bets",
      "outputs": [
        {
          "name": "backerAddress",
          "type": "address"
        },
        {
          "name": "layerAddress",
          "type": "address"
        },
        {
          "name": "backerTokenAddress",
          "type": "address"
        },
        {
          "name": "layerTokenAddress",
          "type": "address"
        },
        {
          "name": "feeRecipientAddress",
          "type": "address"
        },
        {
          "name": "leagueAddress",
          "type": "address"
        },
        {
          "name": "resolverAddress",
          "type": "address"
        },
        {
          "name": "backerTokenStake",
          "type": "uint256"
        },
        {
          "name": "backerFee",
          "type": "uint256"
        },
        {
          "name": "layerFee",
          "type": "uint256"
        },
        {
          "name": "expirationTimeSeconds",
          "type": "uint256"
        },
        {
          "name": "fixtureId",
          "type": "uint256"
        },
        {
          "name": "backerOdds",
          "type": "uint256"
        },
        {
          "name": "betPayload",
          "type": "bytes"
        }
      ],
      "payable": false,
      "stateMutability": "view",
      "type": "function"
    },
    {
      "constant": true,
      "inputs": [
        {
          "name": "",
          "type": "bytes32"
        },
        {
          "name": "",
          "type": "address"
        }
      ],
      "name": "claimed",
      "outputs": [
        {
          "name": "",
          "type": "bool"
        }
      ],
      "payable": false,
      "stateMutability": "view",
      "type": "function"
    },
    {
      "constant": false,
      "inputs": [
        {
          "name": "_newOwner",
          "type": "address"
        }
      ],
      "name": "transferOwnership",
      "outputs": [],
      "payable": false,
      "stateMutability": "nonpayable",
      "type": "function"
    },
    {
      "inputs": [
        {
          "name": "_registry",
          "type": "address"
        }
      ],
      "payable": false,
      "stateMutability": "nonpayable",
      "type": "constructor"
    },
    {
      "anonymous": false,
      "inputs": [
        {
          "indexed": true,
          "name": "_betHash",
          "type": "bytes32"
        },
        {
          "indexed": false,
          "name": "_backerAddress",
          "type": "address"
        },
        {
          "indexed": false,
          "name": "_layerAddress",
          "type": "address"
        },
        {
          "indexed": false,
          "name": "_backerTokenAddress",
          "type": "address"
        },
        {
          "indexed": false,
          "name": "_layerTokenAddress",
          "type": "address"
        },
        {
          "indexed": false,
          "name": "_feeRecipientAddress",
          "type": "address"
        },
        {
          "indexed": false,
          "name": "_leagueAddress",
          "type": "address"
        },
        {
          "indexed": false,
          "name": "_resolverAddress",
          "type": "address"
        }
      ],
      "name": "LogBetAddressesFilled",
      "type": "event"
    },
    {
      "anonymous": false,
      "inputs": [
        {
          "indexed": true,
          "name": "_betHash",
          "type": "bytes32"
        },
        {
          "indexed": false,
          "name": "_backerTokenStake",
          "type": "uint256"
        },
        {
          "indexed": false,
          "name": "_layerTokenStake",
          "type": "uint256"
        },
        {
          "indexed": false,
          "name": "_backerFee",
          "type": "uint256"
        },
        {
          "indexed": false,
          "name": "_layerFee",
          "type": "uint256"
        },
        {
          "indexed": false,
          "name": "_expirationTimeSeconds",
          "type": "uint256"
        },
        {
          "indexed": false,
          "name": "_fixutedId",
          "type": "uint256"
        },
        {
          "indexed": false,
          "name": "_backerOdds",
          "type": "uint256"
        }
      ],
      "name": "LogBetValuesFilled",
      "type": "event"
    },
    {
      "anonymous": false,
      "inputs": [
        {
          "indexed": true,
          "name": "_betHash",
          "type": "bytes32"
        },
        {
          "indexed": false,
          "name": "_betPayload",
          "type": "bytes"
        }
      ],
      "name": "LogBetPayloadFilled",
      "type": "event"
    },
    {
      "anonymous": false,
      "inputs": [
        {
          "indexed": true,
          "name": "_betHash",
          "type": "bytes32"
        }
      ],
      "name": "LogBetCancelled",
      "type": "event"
    },
    {
      "anonymous": false,
      "inputs": [
        {
          "indexed": true,
          "name": "_betHash",
          "type": "bytes32"
        },
        {
          "indexed": true,
          "name": "_claimerAddress",
          "type": "address"
        },
        {
          "indexed": true,
          "name": "_result",
          "type": "uint8"
        }
      ],
      "name": "LogBetClaimed",
      "type": "event"
    },
    {
      "anonymous": false,
      "inputs": [
        {
          "indexed": true,
          "name": "previousOwner",
          "type": "address"
        }
      ],
      "name": "OwnershipRenounced",
      "type": "event"
    },
    {
      "anonymous": false,
      "inputs": [
        {
          "indexed": true,
          "name": "previousOwner",
          "type": "address"
        },
        {
          "indexed": true,
          "name": "newOwner",
          "type": "address"
        }
      ],
      "name": "OwnershipTransferred",
      "type": "event"
    },
    {
      "constant": false,
      "inputs": [
        {
          "name": "_betAddresses",
          "type": "address[7]"
        },
        {
          "name": "_betValues",
          "type": "uint256[6]"
        },
        {
          "name": "_layerTokenFillAmount",
          "type": "uint256"
        },
        {
          "name": "_salt",
          "type": "uint256"
        },
        {
          "name": "_betPayload",
          "type": "bytes"
        },
        {
          "name": "_signature",
          "type": "bytes"
        }
      ],
      "name": "fillBet",
      "outputs": [
        {
          "name": "",
          "type": "bytes32"
        }
      ],
      "payable": false,
      "stateMutability": "nonpayable",
      "type": "function"
    },
    {
      "constant": false,
      "inputs": [
        {
          "name": "_betHash",
          "type": "bytes32"
        }
      ],
      "name": "claimBet",
      "outputs": [
        {
          "name": "",
          "type": "uint8"
        }
      ],
      "payable": false,
      "stateMutability": "nonpayable",
      "type": "function"
    },
    {
      "constant": false,
      "inputs": [
        {
          "name": "_betHash",
          "type": "bytes32"
        }
      ],
      "name": "cancelBet",
      "outputs": [
        {
          "name": "",
          "type": "bool"
        }
      ],
      "payable": false,
      "stateMutability": "nonpayable",
      "type": "function"
    },
    {
      "constant": true,
      "inputs": [
        {
          "name": "_user",
          "type": "address"
        }
      ],
      "name": "getUserBetIds",
      "outputs": [
        {
          "name": "",
          "type": "bytes32[]"
        }
      ],
      "payable": false,
      "stateMutability": "view",
      "type": "function"
    },
    {
      "constant": true,
      "inputs": [
        {
          "name": "_betHash",
          "type": "bytes32"
        }
      ],
      "name": "getBetDetails",
      "outputs": [
        {
          "name": "",
          "type": "address[7]"
        },
        {
          "name": "",
          "type": "uint256[6]"
        },
        {
          "name": "",
          "type": "bytes"
        }
      ],
      "payable": false,
      "stateMutability": "view",
      "type": "function"
    }
  ],
  "bytecode": "0x608060405234801561001057600080fd5b50604051602080613923833981016040525160008054600160a060020a0319908116331790915560018054600160a060020a03909316929091169190911790556138c48061005f6000396000f3006080604052600436106100b65763ffffffff60e060020a6000350416630505d95081146100bb57806322cd5ea8146100f1578063288cdc911461011f5780632940ff1e146101375780632ac12622146101635780635cc9e4dc1461017b578063715018a61461019f5780638da5cb5b146101b65780639c11180d146101e7578063c902c3ae146102cc578063dfcae62214610435578063e3ff9fd014610459578063f2fde38b14610493578063f7ea87b4146104b4575b600080fd5b3480156100c757600080fd5b506100df600435600160a060020a0360243516610525565b60408051918252519081900360200190f35b3480156100fd57600080fd5b50610109600435610542565b6040805160ff9092168252519081900360200190f35b34801561012b57600080fd5b506100df600435611210565b34801561014357600080fd5b5061014f600435611222565b604080519115158252519081900360200190f35b34801561016f57600080fd5b5061014f60043561133c565b34801561018757600080fd5b506100df600160a060020a0360043516602435611351565b3480156101ab57600080fd5b506101b4611381565b005b3480156101c257600080fd5b506101cb6113ed565b60408051600160a060020a039092168252519081900360200190f35b3480156101f357600080fd5b506101ff6004356113fc565b604051808460e080838360005b8381101561022457818101518382015260200161020c565b5050505090500183600660200280838360005b8381101561024f578181015183820152602001610237565b5050505090500180602001828103825283818151815260200191508051906020019080838360005b8381101561028f578181015183820152602001610277565b50505050905090810190601f1680156102bc5780820380516001836020036101000a031916815260200191505b5094505050505060405180910390f35b3480156102d857600080fd5b506102e4600435611622565b604051808f600160a060020a0316600160a060020a031681526020018e600160a060020a0316600160a060020a031681526020018d600160a060020a0316600160a060020a031681526020018c600160a060020a0316600160a060020a031681526020018b600160a060020a0316600160a060020a031681526020018a600160a060020a0316600160a060020a0316815260200189600160a060020a0316600160a060020a0316815260200188815260200187815260200186815260200185815260200184815260200183815260200180602001828103825283818151815260200191508051906020019080838360005b838110156103ed5781810151838201526020016103d5565b50505050905090810190601f16801561041a5780820380516001836020036101000a031916815260200191505b509f5050505050505050505050505050505060405180910390f35b34801561044157600080fd5b5061014f600435600160a060020a03602435166117ab565b34801561046557600080fd5b506100df600460e46101a4356101c4356101e4356024818101918601359061020435908101908701356117cb565b34801561049f57600080fd5b506101b4600160a060020a0360043516611eb3565b3480156104c057600080fd5b506104d5600160a060020a0360043516611ed6565b60408051602080825283518183015283519192839290830191858101910280838360005b838110156105115781810151838201526020016104f9565b505050509050019250505060405180910390f35b600560209081526000928352604080842090915290825290205481565b600061054c6136e7565b600080600080600061055c613796565b6000610566613796565b60008b815260066020908152604080832033845290915290205460ff16156105fd576040805160e560020a62461bcd028152602060048201526024808201527f4265742073686f756c64206e6f742068617665206265656e20636c61696d656460448201527f2079657400000000000000000000000000000000000000000000000000000000606482015290519081900360840190fd5b60008b815260026020526040902054600160a060020a031633148061063a575060008b815260056020908152604080832033845290915290205415155b15156106b6576040805160e560020a62461bcd02815260206004820152603a60248201527f436c61696d6572206d75737420626520746865206261636b6572206f72206f6e60448201527f65206f6620746865206c6179657273206f662074686520626574000000000000606482015290519081900360840190fd5b60008b81526002602081815260409283902083516101c0810185528154600160a060020a039081168252600180840154821683860152838601548216838801526003840154821660608401526004840154821660808401526005840154821660a0840152600684015490911660c0830152600783015460e08301526008830154610100808401919091526009840154610120840152600a840154610140840152600b840154610160840152600c840154610180840152600d840180548851601f94821615909302600019011696909604918201859004850281018501909652808652909491936101a08601939091908301828280156107f65780601f106107cb576101008083540402835291602001916107f6565b820191906000526020600020905b8154815290600101906020018083116107d957829003601f168201915b50505050508152505098508860a00151975087600160a060020a03166342813bcc8a61016001518b60c001516040518363ffffffff1660e060020a0281526004018083815260200182600160a060020a0316600160a060020a0316815260200192505050602060405180830381600087803b15801561087457600080fd5b505af1158015610888573d6000803e3d6000fd5b505050506040513d602081101561089e57600080fd5b505160ff1660021461091f576040805160e560020a62461bcd028152602060048201526024808201527f526573756c74206973206e6f7420617661696c61626c6520666f72207265736f60448201527f6c76657200000000000000000000000000000000000000000000000000000000606482015290519081900360840190fd5b61093d8960c001518a60a001518b61016001518c6101a00151611f43565b6001546040805160e060020a63bf40fac1028152602060048201819052600560248301527f5661756c7400000000000000000000000000000000000000000000000000000060448301529151939a50600160a060020a039092169263bf40fac19260648082019392918290030181600087803b1580156109bc57600080fd5b505af11580156109d0573d6000803e3d6000fd5b505050506040513d60208110156109e657600080fd5b50518951909650600160a060020a0316331415610dd35760008b8152600360205260409020546101808a0151909550610a3c906305f5e10090610a3090889063ffffffff611f4e16565b9063ffffffff611f7d16565b9350610a488985611f92565b92508660ff1660011415610b63576040808a0151815160e260020a633c6340f3028152600160a060020a0391821660048201523060248201523360448201526064810188905291519088169163f18d03cc91608480830192600092919082900301818387803b158015610aba57600080fd5b505af1158015610ace573d6000803e3d6000fd5b50505060608a01516040805160e260020a633c6340f3028152600160a060020a039283166004820152306024820152336044820152606481018890529051918916925063f18d03cc91608480830192600092919082900301818387803b158015610b3757600080fd5b505af1158015610b4b573d6000803e3d6000fd5b50505050610b63338a60800151856040015189612012565b8660ff1660021415610c9e576040808a0151815160e260020a633c6340f3028152600160a060020a0391821660048201523060248201523360448201526064810188905291519088169163f18d03cc91608480830192600092919082900301818387803b158015610bd357600080fd5b505af1158015610be7573d6000803e3d6000fd5b50505060608a0151600160a060020a038816915063f18d03cc903033610c1489600263ffffffff611f7d16565b6040805160e060020a63ffffffff8816028152600160a060020a039586166004820152938516602485015291909316604483015260648201929092529051608480830192600092919082900301818387803b158015610c7257600080fd5b505af1158015610c86573d6000803e3d6000fd5b50505050610c9e338a60800151856040015189612012565b8660ff1660041415610d4a576040890151600160a060020a0387169063f18d03cc903033610cd38a600263ffffffff611f7d16565b6040805160e060020a63ffffffff8816028152600160a060020a039586166004820152938516602485015291909316604483015260648201929092529051608480830192600092919082900301818387803b158015610d3157600080fd5b505af1158015610d45573d6000803e3d6000fd5b505050505b8660ff1660051415610dd3576040808a0151815160e260020a633c6340f3028152600160a060020a0391821660048201523060248201523360448201526064810188905291519088169163f18d03cc91608480830192600092919082900301818387803b158015610dba57600080fd5b505af1158015610dce573d6000803e3d6000fd5b505050505b60008b8152600560209081526040808320338452909152902054156111b05760008b81526005602090815260408083203384529091529020549150610e188983611f92565b90508660ff1660021415610ec6576060890151600160a060020a0387169063f18d03cc903033610e4f87600263ffffffff611f7d16565b6040805160e060020a63ffffffff8816028152600160a060020a039586166004820152938516602485015291909316604483015260648201929092529051608480830192600092919082900301818387803b158015610ead57600080fd5b505af1158015610ec1573d6000803e3d6000fd5b505050505b8660ff1660031415610fe35760608901516040805160e260020a633c6340f3028152600160a060020a0392831660048201523060248201523360448201526064810185905290519188169163f18d03cc9160848082019260009290919082900301818387803b158015610f3857600080fd5b505af1158015610f4c573d6000803e3d6000fd5b505050506040898101518251825160e260020a633c6340f3028152600160a060020a039283166004820152306024820152336044820152606481019190915291519088169163f18d03cc91608480830192600092919082900301818387803b158015610fb757600080fd5b505af1158015610fcb573d6000803e3d6000fd5b50505050610fe3338a60800151836060015189612012565b8660ff16600414156111255760608901516040805160e260020a633c6340f3028152600160a060020a0392831660048201523060248201523360448201526064810185905290519188169163f18d03cc9160848082019260009290919082900301818387803b15801561105557600080fd5b505af1158015611069573d6000803e3d6000fd5b5050505085600160a060020a031663f18d03cc8a60400151303361109b60028760000151611f7d90919063ffffffff16565b6040805160e060020a63ffffffff8816028152600160a060020a039586166004820152938516602485015291909316604483015260648201929092529051608480830192600092919082900301818387803b1580156110f957600080fd5b505af115801561110d573d6000803e3d6000fd5b50505050611125338a60800151836060015189612012565b8660ff16600514156111b05760608901516040805160e260020a633c6340f3028152600160a060020a0392831660048201523060248201523360448201526064810185905290519188169163f18d03cc9160848082019260009290919082900301818387803b15801561119757600080fd5b505af11580156111ab573d6000803e3d6000fd5b505050505b60008b8152600660209081526040808320338085529252808320805460ff191660011790555160ff8a16928e917fc2b39211be08190f53a22625650f63c39194e38ce39840eb817a9bca8f1460f99190a450949998505050505050505050565b60036020526000908152604090205481565b600081815260026020526040812054600160a060020a03163314611290576040805160e560020a62461bcd02815260206004820152601c60248201527f53656e646572206d757374206265206261636b6572206f662062657400000000604482015290519081900360640190fd5b600082815260036020526040812054116112f4576040805160e560020a62461bcd02815260206004820152600e60248201527f426574206d757374206578697374000000000000000000000000000000000000604482015290519081900360640190fd5b600082815260046020526040808220805460ff191660011790555183917f39d6e94d6659773acd72a3bf3af8f91e4f7d0277e55fc371fa6d2e4c0206034391a2506001919050565b60046020526000908152604090205460ff1681565b60076020528160005260406000208181548110151561136c57fe5b90600052602060002001600091509150505481565b600054600160a060020a0316331461139857600080fd5b60008054604051600160a060020a03909116917ff8df31144d9c2f0f6b59d69b8b98abd5459d07f2742c4df920b25aae33c6482091a26000805473ffffffffffffffffffffffffffffffffffffffff19169055565b600054600160a060020a031681565b6114046137bf565b61140c6137de565b60606114166136e7565b60008581526002602081815260409283902083516101c0810185528154600160a060020a039081168252600180840154821683860152838601548216838801526003840154821660608401526004840154821660808401526005840154821660a0840152600684015490911660c0830152600783015460e08301526008830154610100808401919091526009840154610120840152600a840154610140840152600b840154610160840152600c840154610180840152600d840180548851601f94821615909302600019011696909604918201859004850281018501909652808652909491936101a08601939091908301828280156115565780601f1061152b57610100808354040283529160200191611556565b820191906000526020600020905b81548152906001019060200180831161153957829003601f168201915b5050509190925250506040805160e081810183528451600160a060020a0390811683526020808701518216818501528487015182168486015260608088015183168186015260808089015184168187015260a0808a015185168188015260c0808b0151909516858801528751948501885294890151845261010089015192840192909252610120880151958301959095526101408701519482019490945261016086015193810193909352610180850151908301526101a0909301519298909750919550909350505050565b60026020528060005260406000206000915090508060000160009054906101000a9004600160a060020a0316908060010160009054906101000a9004600160a060020a0316908060020160009054906101000a9004600160a060020a0316908060030160009054906101000a9004600160a060020a0316908060040160009054906101000a9004600160a060020a0316908060050160009054906101000a9004600160a060020a0316908060060160009054906101000a9004600160a060020a03169080600701549080600801549080600901549080600a01549080600b01549080600c01549080600d018054600181600116156101000203166002900480601f0160208091040260200160405190810160405280929190818152602001828054600181600116156101000203166002900480156117a15780601f10611776576101008083540402835291602001916117a1565b820191906000526020600020905b81548152906001019060200180831161178457829003601f168201915b505050505090508e565b600660209081526000928352604080842090915290825290205460ff1681565b60006117d56136e7565b60008060006117e2613796565b60006118698f600780602002604051908101604052809291908260076020028082843782019150505050508f600680602002604051908101604052809291908260066020028082843782019150505050508d8d8080601f0160208091040260200160405190810160405280939291908181526020018383808284375061214d945050505050565b955061187b868d63ffffffff6121fd16565b6000818152600360205260409020549095506118ae906118a288600863ffffffff61279116565b9063ffffffff6127bd16565b9350838d106118bd57836118bf565b8c5b92506118ff868a8a8080601f01602080910402602001604051908101604052809392919081815260200183838082843782019150505050505087866127cf565b6119098684611f92565b86516040880151825192945061191e926130de565b61193133876060015184602001516130de565b6020828101516000878152600580845260408083203384528552808320805490940190935585518983526003855283832080549091019055600154835160e060020a63bf40fac10281526004810186905260248101929092527f5661756c7400000000000000000000000000000000000000000000000000000060448301529251600160a060020a039093169363bf40fac19360648084019492939192918390030190829087803b1580156119e557600080fd5b505af11580156119f9573d6000803e3d6000fd5b505050506040513d6020811015611a0f57600080fd5b505160408088015188518551835160e260020a633c6340f3028152600160a060020a03938416600482015291831660248301523060448301526064820152915192935083169163f18d03cc9160848082019260009290919082900301818387803b158015611a7c57600080fd5b505af1158015611a90573d6000803e3d6000fd5b505050606087015160208401516040805160e260020a633c6340f3028152600160a060020a039384166004820152336024820152306044820152606481019290925251918416925063f18d03cc91608480830192600092919082900301818387803b158015611afe57600080fd5b505af1158015611b12573d6000803e3d6000fd5b50505060008681526003602052604090205415159050611c78576000858152600260208181526040928390208951815473ffffffffffffffffffffffffffffffffffffffff19908116600160a060020a039283161783558b8401516001840180548316918416919091179055948b0151938201805486169482169490941790935560608a0151600382018054861691851691909117905560808a0151600482018054861691851691909117905560a08a0151600582018054861691851691909117905560c08a015160068201805490951693169290921790925560e0880151600782015561010088015160088201556101208801516009820155610140880151600a820155610160880151600b820155610180880151600c8201556101a088015180518993611c4892600d8501929101906137fd565b50508651600160a060020a0316600090815260076020908152604082208054600181018255908352912001869055505b6007600033600160a060020a0316600160a060020a0316815260200190815260200160002085908060018154018082558091505090600182039060005260206000200160009091929091909150906000191690555084600019167f9df254bc7622cbaae984feb4289a8b21d6b3c0c5b97a23eeaabf9b93370cb74387600001513389604001518a606001518b608001518c60a001518d60c001516040518088600160a060020a0316600160a060020a0316815260200187600160a060020a0316600160a060020a0316815260200186600160a060020a0316600160a060020a0316815260200185600160a060020a0316600160a060020a0316815260200184600160a060020a0316600160a060020a0316815260200183600160a060020a0316600160a060020a0316815260200182600160a060020a0316600160a060020a0316815260200197505050505050505060405180910390a281516020808401516101008901516101208a01516101408b01516101608c01516101808d01516040805198895296880195909552868601939093526060860191909152608085015260a084015260c08301525186917f144964423c795b8aa22201233c66036e8664eb1e8daeca6f74d1bad2c2215021919081900360e00190a260408051602080825281018c905286917fb88c930810d96b2489465af357b6f80d8360b94f492c4982dd8adbaa96bf100e918e918e91908190810184848082843760405192018290039550909350505050a250505050505098975050505050505050565b600054600160a060020a03163314611eca57600080fd5b611ed3816133b0565b50565b600160a060020a038116600090815260076020908152604091829020805483518184028101840190945280845260609392830182828015611f3757602002820191906000526020600020905b81548152600190910190602001808311611f22575b50505050509050919050565b602001519392505050565b6000821515611f5f57506000611f77565b50818102818382811515611f6f57fe5b0414611f7757fe5b92915050565b60008183811515611f8a57fe5b049392505050565b611f9a613796565b60208101829052611fc082611fb685600863ffffffff61279116565b8560e0015161342d565b8152611fe282611fd785600863ffffffff61279116565b85610100015161342d565b604082015261200782611ffc85600863ffffffff61279116565b85610120015161342d565b606082015292915050565b600080831115612146576001546040805160e060020a63bf40fac1028152602060048201819052600860248301527f46616e546f6b656e00000000000000000000000000000000000000000000000060448301529151600160a060020a039093169263bf40fac1926064808401939192918290030181600087803b15801561209957600080fd5b505af11580156120ad573d6000803e3d6000fd5b505050506040513d60208110156120c357600080fd5b50516040805160e260020a633c6340f3028152600160a060020a038084166004830152888116602483015287811660448301526064820187905291519293509084169163f18d03cc9160848082019260009290919082900301818387803b15801561212d57600080fd5b505af1158015612141573d6000803e3d6000fd5b505050505b5050505050565b6121556136e7565b50604080516101c0810182528451600160a060020a0390811682526020808701518216818401528684015182168385015260608088015183168185015260808089015184168186015260a0808a015185168187015260c0998a015190941698850198909852865160e08501529086015161010084015292850151610120830152918401516101408201529383015161016085015291909101516101808301526101a082015290565b81516020808401516040808601516060870151608088015160a089015160c08a015185516c01000000000000000000000000600160a060020a039a8b168102828b0152978a1688026034820152948916870260488601529288168602605c850152908716850260708401528616840260848301529490941690910260988401528051608c81850301815260ac8401825260e08601516101008701516101208801516101408901516101608a01516101808b015160cc8a019590955260ec89019390935261010c88019190915261012c87015261014c86015261016c85015261018c808501869052825180860390910181526101ac850183527f61646472657373206261636b65724164647265737300000000000000000000006101cc8601527f61646472657373206c61796572416464726573730000000000000000000000006101e18601527f61646472657373206261636b6572546f6b656e416464726573730000000000006101f58601527f61646472657373206c61796572546f6b656e416464726573730000000000000061020f8601527f6164647265737320666565526563697069656e744164647265737300000000006102288601527f61646472657373206c65616775654164647265737300000000000000000000006102438601527f61646472657373207265736f6c766572416464726573730000000000000000006102588601527f75696e74323536206261636b6572546f6b656e5374616b65000000000000000061026f8601527f75696e74323536206261636b65724665650000000000000000000000000000006102878601527f75696e74323536206c61796572466565000000000000000000000000000000006102988601527f75696e743235362065787069726174696f6e54696d655365636f6e64730000006102a88601527f75696e74323536206669787475726549640000000000000000000000000000006102c58601527f75696e74323536206261636b65724f64647300000000000000000000000000006102d68601527f75696e743235362073616c7400000000000000000000000000000000000000006102e88601527f6279746573206265745061796c6f6164000000000000000000000000000000006102f486015282516102e481870301815261030490950192839052845160009592949193918291908401908083835b602083106125865780518252601f199092019160209182019101612567565b6001836020036101000a03801982511681845116808217855250505050505090500191505060405180910390208282876101a001516040516020018084805190602001908083835b602083106125ed5780518252601f1990920191602091820191016125ce565b51815160209384036101000a600019018019909216911617905286519190930192860191508083835b602083106126355780518252601f199092019160209182019101612616565b51815160209384036101000a600019018019909216911617905285519190930192850191508083835b6020831061267d5780518252601f19909201916020918201910161265e565b6001836020036101000a03801982511681845116808217855250505050505090500193505050506040516020818303038152906040526040518082805190602001908083835b602083106126e25780518252601f1990920191602091820191016126c3565b51815160209384036101000a6000190180199092169116179052604080519290940182900382208282019790975281840196909652825180820384018152606090910192839052805190959294508493509185019190508083835b6020831061275c5780518252601f19909201916020918201910161273d565b5181516020939093036101000a6000190180199091169216919091179052604051920182900390912098975050505050505050565b60006127b682600a0a610a308561018001518660e00151611f4e90919063ffffffff16565b9392505050565b6000828211156127c957fe5b50900390565b60e084015160008381526003602052604090205410612838576040805160e560020a62461bcd02815260206004820152601f60248201527f4265742073686f756c64206e6f74206265742066756c6c792066696c6c656400604482015290519081900360640190fd5b6020840151600160a060020a0316158061285e57506020840151600160a060020a031633145b15156128da576040805160e560020a62461bcd02815260206004820152603460248201527f53656e646572206d75737420626520657175616c20746f206c6179657220696660448201527f206c617965724164647265737320657869737473000000000000000000000000606482015290519081900360840190fd5b610140840151421061295c576040805160e560020a62461bcd02815260206004820152602860248201527f45787069726174696f6e2074696d65206d75737420626520677265617465722060448201527f7468616e206e6f77000000000000000000000000000000000000000000000000606482015290519081900360840190fd5b6001546040805160e060020a63bf40fac1028152602060048201819052600e60248301527f4c6561677565526567697374727900000000000000000000000000000000000060448301529151600160a060020a039093169263bf40fac1926064808401939192918290030181600087803b1580156129d957600080fd5b505af11580156129ed573d6000803e3d6000fd5b505050506040513d6020811015612a0357600080fd5b505160a0850151604080517f0db76ca5000000000000000000000000000000000000000000000000000000008152600160a060020a03928316600482015290519190921691630db76ca59160248083019260209291908290030181600087803b158015612a6f57600080fd5b505af1158015612a83573d6000803e3d6000fd5b505050506040513d6020811015612a9957600080fd5b50511515612af1576040805160e560020a62461bcd02815260206004820152601960248201527f4c6561677565206d757374206265207265676973746572656400000000000000604482015290519081900360640190fd5b8360a00151600160a060020a031663a782c2298560c001516040518263ffffffff1660e060020a0281526004018082600160a060020a0316600160a060020a03168152602001915050602060405180830381600087803b158015612b5457600080fd5b505af1158015612b68573d6000803e3d6000fd5b505050506040513d6020811015612b7e57600080fd5b50511515612bfc576040805160e560020a62461bcd02815260206004820152602660248201527f5265736f6c766572206d757374206265207265676973746572656420666f722060448201527f6c65616775650000000000000000000000000000000000000000000000000000606482015290519081900360840190fd5b8360a00151600160a060020a031663e239c9528561016001516040518263ffffffff1660e060020a02815260040180828152602001915050602060405180830381600087803b158015612c4e57600080fd5b505af1158015612c62573d6000803e3d6000fd5b505050506040513d6020811015612c7857600080fd5b50511515612cd0576040805160e560020a62461bcd02815260206004820152601960248201527f46697874757265206d757374206265207363686564756c656400000000000000604482015290519081900360640190fd5b60008281526004602052604090205460ff1615612d37576040805160e560020a62461bcd02815260206004820152601b60248201527f4265742073686f756c64206e6f742062652063616e63656c6c65640000000000604482015290519081900360640190fd5b801515612db4576040805160e560020a62461bcd02815260206004820152602e60248201527f4c6179657220746f6b656e2066696c6c20616d6f756e74206d7573742062652060448201527f67726561746572207468616e2030000000000000000000000000000000000000606482015290519081900360840190fd5b8351600160a060020a0316331415612e3c576040805160e560020a62461bcd02815260206004820152602860248201527f53656e64657220616464726573732063616e6e6f7420657175616c206c61796560448201527f7241646472657373000000000000000000000000000000000000000000000000606482015290519081900360840190fd5b60008281526003602052604090205415156130d85760e08401511515612ed2576040805160e560020a62461bcd02815260206004820152602960248201527f4261636b657220746f6b656e207374616b65206d75737420626520677265617460448201527f6572207468616e20300000000000000000000000000000000000000000000000606482015290519081900360840190fd5b6101808401511515612f54576040805160e560020a62461bcd02815260206004820152602260248201527f4261636b6572206f646473206d7573742062652067726561746572207468616e60448201527f2030000000000000000000000000000000000000000000000000000000000000606482015290519081900360840190fd5b60208401518451600160a060020a0390811691161415612fe4576040805160e560020a62461bcd02815260206004820152602860248201527f4261636b657220616464726573732063616e6e6f7420657175616c206c61796560448201527f7241646472657373000000000000000000000000000000000000000000000000606482015290519081900360840190fd5b612ff78460c00151856101a0015161344b565b1515613073576040805160e560020a62461bcd02815260206004820152602e60248201527f426574207061796c6f6164206d757374206265206d7573742062652076616c6960448201527f6420666f72207265736f6c766572000000000000000000000000000000000000606482015290519081900360840190fd5b61308282856000015185613453565b15156130d8576040805160e560020a62461bcd02815260206004820152601660248201527f5369676e6174757265206973206e6f742076616c696400000000000000000000604482015290519081900360640190fd5b50505050565b6001546040805160e060020a63bf40fac1028152602060048201819052600560248301527f5661756c7400000000000000000000000000000000000000000000000000000060448301529151600093600160a060020a03169263bf40fac1926064808201939182900301818787803b15801561315957600080fd5b505af115801561316d573d6000803e3d6000fd5b505050506040513d602081101561318357600080fd5b5051604080517fa389783e000000000000000000000000000000000000000000000000000000008152600160a060020a03878116600483015230602483015291519293509083169163a389783e916044808201926020929091908290030181600087803b1580156131f357600080fd5b505af1158015613207573d6000803e3d6000fd5b505050506040513d602081101561321d57600080fd5b5051151561329b576040805160e560020a62461bcd02815260206004820152603b60248201527f426574746f7220686173206e6f7420617070726f76656420426574204d616e6160448201527f67657220746f206163636573732074686569722062616c616e63650000000000606482015290519081900360840190fd5b604080517ff7888aec000000000000000000000000000000000000000000000000000000008152600160a060020a03858116600483015286811660248301529151849284169163f7888aec9160448083019260209291908290030181600087803b15801561330857600080fd5b505af115801561331c573d6000803e3d6000fd5b505050506040513d602081101561333257600080fd5b505110156130d8576040805160e560020a62461bcd02815260206004820152603360248201527f426574746f7220646f6573206e6f74206861766520656e6f75676820746f6b6560448201527f6e7320746f20636f766572207468652062657400000000000000000000000000606482015290519081900360840190fd5b600160a060020a03811615156133c557600080fd5b60008054604051600160a060020a03808516939216917f8be0079c531659141344cd1fd0a4f28419497f9722a3daafe3b4186f6b6457e091a36000805473ffffffffffffffffffffffffffffffffffffffff1916600160a060020a0392909216919091179055565b600061344383610a30868563ffffffff611f4e16565b949350505050565b600192915050565b600082600160a060020a0316613469858461347b565b600160a060020a031614949350505050565b60008060008060008551604214151561349357600080fd5b8560008151811015156134a257fe5b90602001015160f860020a900460f860020a0260f860020a900460ff1660028111156134ca57fe5b93508560018151811015156134db57fe5b01602001516022870151604288015160f860020a92839004830292909204945092509050600184600281111561350d57fe5b14156135bd57604080517f19457468657265756d205369676e6564204d6573736167653a0a333200000000602080830191909152603c8083018b905283518084039091018152605c90920192839052815191929182918401908083835b602083106135895780518252601f19909201916020918201910161356a565b6001836020036101000a03801982511681845116808217855250505050505090500191505060405180910390209650613677565b60028460028111156135cb57fe5b141561367757604080517f19457468657265756d205369676e6564204d6573736167653a0a200000000000602080830191909152603b8083018b905283518084039091018152605b90920192839052815191929182918401908083835b602083106136475780518252601f199092019160209182019101613628565b6001836020036101000a038019825116818451168082178552505050505050905001915050604051809103902096505b60408051600080825260208083018085528b905260ff8716838501526060830186905260808301859052925160019360a0808501949193601f19840193928390039091019190865af11580156136d1573d6000803e3d6000fd5b5050604051601f19015198975050505050505050565b6101c0604051908101604052806000600160a060020a031681526020016000600160a060020a031681526020016000600160a060020a031681526020016000600160a060020a031681526020016000600160a060020a031681526020016000600160a060020a031681526020016000600160a060020a03168152602001600081526020016000815260200160008152602001600081526020016000815260200160008152602001606081525090565b608060405190810160405280600081526020016000815260200160008152602001600081525090565b60e0604051908101604052806007906020820280388339509192915050565b60c0604051908101604052806006906020820280388339509192915050565b828054600181600116156101000203166002900490600052602060002090601f016020900481019282601f1061383e57805160ff191683800117855561386b565b8280016001018555821561386b579182015b8281111561386b578251825591602001919060010190613850565b5061387792915061387b565b5090565b61389591905b808211156138775760008155600101613881565b905600a165627a7a72305820be98d163e06dfb1a007166bd2aeeb71b75e864e584985a4d52c30747d062e8490029",
  "source": "pragma solidity ^0.4.24;\n\nimport \"openzeppelin-solidity/contracts/ownership/Ownable.sol\";\nimport \"openzeppelin-solidity/contracts/math/SafeMath.sol\";\nimport \"openzeppelin-solidity/contracts/token/ERC20/ERC20.sol\";\nimport \"./interfaces/IBetManager.sol\";\nimport \"./interfaces/ILeague.sol\";\nimport \"./interfaces/ILeagueRegistry.sol\";\nimport \"./interfaces/IRegistry.sol\";\nimport \"./interfaces/IResolver.sol\";\nimport \"./interfaces/IVault.sol\";\nimport \"./libraries/BetLib.sol\";\nimport \"./libraries/SignatureLib.sol\";\n\n/**\n* @title Bet Manger Contract\n* @notice BetManager is the core contract responsible for bet validations and bet submissions\n*/\ncontract BetManager is IBetManager, Ownable {\n\n  using SafeMath for uint;\n  using BetLib for BetLib.Bet;\n\n  struct FillResults {\n    uint backerTokenAmount;\n    uint layerTokenAmount;\n    uint backerFee;\n    uint layerFee;\n  }\n\n  // The number of decimals of backerOdds\n  uint constant ODDS_DECIMALS = 8;\n\n  // Address of the Registry contract\n  IRegistry registry;\n\n  // Map of bet ids to bet struct  TODO: Ryan => make internal?\n  mapping (bytes32 => BetLib.Bet) public bets;\n  // Map of bet ids to the amount the bet that has been filled\n  mapping (bytes32 => uint) public filled;\n  // Evaluates to `true` if bet has been cancelled, `false` otherwise\n  mapping (bytes32 => bool) public cancelled;\n\n  // Map of bet ids to the amount that a layerd has filled\n  mapping (bytes32 => mapping (address => uint)) public layerFilled; // bet Id => address => fill amount\n  // Evaluates to `true` if bet has been claimed, `false` otherwise\n  mapping (bytes32 => mapping (address => bool)) public claimed; // bet Id => address => claimed\n  // Map of addresses and a list of bet ids that they have either backed/layed\n  mapping (address => bytes32[]) public userBetIds; // user's address => array of bet Ids\n\n  // Emit when a bet has been filled\n  // TODO: Ryan => decide which parameters should be indexed\n  // TODO: Ryan => decide if we need to emit all these params\n  event LogBetAddressesFilled(\n    bytes32 indexed _betHash,\n    address _backerAddress,\n    address _layerAddress,\n    address _backerTokenAddress,\n    address _layerTokenAddress,\n    address _feeRecipientAddress,\n    address _leagueAddress,\n    address _resolverAddress\n  );\n  event LogBetValuesFilled(\n    bytes32 indexed _betHash,\n    uint _backerTokenStake,\n    uint _layerTokenStake,\n    uint _backerFee,\n    uint _layerFee,\n    uint _expirationTimeSeconds,\n    uint _fixutedId,\n    uint _backerOdds\n  );\n  event LogBetPayloadFilled(bytes32 indexed _betHash, bytes _betPayload);\n  // Emit when a bet is cancelled\n  event LogBetCancelled(bytes32 indexed _betHash);\n  // Emit when a bet is claimed\n  event LogBetClaimed(bytes32 indexed _betHash, address indexed _claimerAddress, uint8 indexed _result);\n\n  /**\n   * @notice Constructor\n   * @param _registry address of Registry contract\n   */\n  constructor (address _registry) public {\n    registry = IRegistry(_registry);\n  }\n\n  /**\n   * @notice Fills a bet\n   * @param _betAddresses Array of addresses that are associated with the bet [backerAddress, layerAddress, backerTokenAddress, layerTokenAddress, feeRecipientAddress, leagueAddress, resolverAddress]\n   * @param _betValues Array of uint256 that as associated with the bet [backerTokenStake, backerFee, layerFee, expirationTimeSeconds, fixtureId, backerOdds]\n   * @param _layerTokenFillAmount The number of tokens that they layer intends to bet\n   * @param _salt Arbitrary number to ensure uniqueness of bet hash\n   * @param _betPayload The payload of the bet\n   * @param _signature ECDSA signature along with the mode (0 = Typed (EIP712), 1 = Geth, 2 = Trezor) {mode}{v}{r}{s}.\n     // TODO: Ryan => implement fillOrKill functionality i.e. only accept bets if the entire amount is filled\n   */\n  function fillBet(\n    address[7] _betAddresses,\n    uint[6] _betValues,\n    uint _layerTokenFillAmount,\n    uint _salt,\n    bytes _betPayload,\n    bytes _signature\n  ) external returns (bytes32) {\n\n    // construct bet from the parameters provided\n    BetLib.Bet memory bet = BetLib.createBet(_betAddresses, _betValues, _betPayload);\n    bytes32 betHash = bet.hash(_salt);\n\n    // calculate the amount that the layer is able to fill\n    uint remaining = bet.backerTokenReturn(ODDS_DECIMALS).sub(filled[betHash]);\n    uint layerTokenFillAmount = _layerTokenFillAmount < remaining ? _layerTokenFillAmount : remaining;\n\n    // validate all the parameters of the bet\n    validateBet(bet, _signature, betHash, layerTokenFillAmount);\n\n    // calculate the partial fill results  TODO: only need layerTokenAmount and backerTokenAmount\n    FillResults memory fillResults = calculatePartialFillResults(bet, layerTokenFillAmount);\n\n    // validate the backer and layer\n    validateBettor(bet.backerAddress, bet.backerTokenAddress, fillResults.backerTokenAmount);\n    validateBettor(msg.sender, bet.layerTokenAddress, fillResults.layerTokenAmount);\n\n    // increment the amount that the layer is filling\n    layerFilled[betHash][msg.sender] += fillResults.layerTokenAmount;\n    filled[betHash] += fillResults.backerTokenAmount;\n\n    // escrow tokens to the bet manager\n    IVault vault = IVault(registry.getAddress(\"Vault\"));\n    vault.transfer(bet.backerTokenAddress, bet.backerAddress, this, fillResults.backerTokenAmount);\n    vault.transfer(bet.layerTokenAddress, msg.sender, this, fillResults.layerTokenAmount);\n\n    // check if bet has been already filled\n    if (filled[betHash] == 0) {\n      bets[betHash] = bet;\n      userBetIds[bet.backerAddress].push(betHash);\n    }\n\n    // add the bet id to the user\n    userBetIds[msg.sender].push(betHash);\n\n    emit LogBetAddressesFilled(\n      betHash,\n      bet.backerAddress,\n      msg.sender,\n      bet.backerTokenAddress,\n      bet.layerTokenAddress,\n      bet.feeRecipientAddress,\n      bet.leagueAddress,\n      bet.resolverAddress\n    );\n\n    emit LogBetValuesFilled(\n      betHash,\n      fillResults.backerTokenAmount,\n      fillResults.layerTokenAmount,\n      bet.backerFee,\n      bet.layerFee,\n      bet.expirationTimeSeconds,\n      bet.fixtureId,\n      bet.backerOdds\n    );\n\n    emit LogBetPayloadFilled(\n      betHash,\n      _betPayload\n    );\n  }\n\n  /**\n   * @notice Claims a bet, transfers tokens based on the result of the bet and transfers FAN token fees accordingly\n   * @param _betHash Hash of all the bet parameters\n   * @return Result of bet\n   */\n  function claimBet(bytes32 _betHash) external returns (uint8) {\n    require(\n      !claimed[_betHash][msg.sender],\n      \"Bet should not have been claimed yet\"\n    );\n    require(\n      bets[_betHash].backerAddress == msg.sender || layerFilled[_betHash][msg.sender] != 0,\n      \"Claimer must be the backer or one of the layers of the bet\"\n    );\n\n    BetLib.Bet memory bet = bets[_betHash];\n    ILeague league = ILeague(bet.leagueAddress);\n\n    require(\n      league.isFixtureResolved(bet.fixtureId, bet.resolverAddress) == 2,\n      \"Result is not available for resolver\"\n    );\n\n    uint8 result = getResult(bet.resolverAddress, bet.leagueAddress, bet.fixtureId, bet.betPayload);\n    IVault vault = IVault(registry.getAddress(\"Vault\"));\n\n    // Claimer is the backer\n    if (msg.sender == bet.backerAddress) {\n\n      uint backerAmount = filled[_betHash];\n      uint winAmount = backerAmount.mul(bet.backerOdds).div(10 ** ODDS_DECIMALS);\n      FillResults memory backerFillResults = calculatePartialFillResults(bet, winAmount);\n\n      // Backer Wins\n      if(result == 1) {\n        vault.transfer(bet.backerTokenAddress, this, msg.sender, backerAmount);\n        vault.transfer(bet.layerTokenAddress, this, msg.sender, winAmount);\n        transferFee(msg.sender, bet.feeRecipientAddress, backerFillResults.backerFee, vault);\n      }\n\n      // Backer Half-Wins\n      if(result == 2) {\n        vault.transfer(bet.backerTokenAddress, this, msg.sender, backerAmount);\n        vault.transfer(bet.layerTokenAddress, this, msg.sender, winAmount.div(2));\n        transferFee(msg.sender, bet.feeRecipientAddress, backerFillResults.backerFee, vault);\n      }\n\n      // Backer Half-Loses\n      if(result == 4) {\n        vault.transfer(bet.backerTokenAddress, this, msg.sender, backerAmount.div(2));\n      }\n\n      // Backer Pushes\n      if(result == 5) {\n        vault.transfer(bet.backerTokenAddress, this, msg.sender, backerAmount);\n      }\n    }\n\n    // Claimer is the layer\n    if (layerFilled[_betHash][msg.sender] != 0) {\n\n      uint layerAmount = layerFilled[_betHash][msg.sender];\n      FillResults memory layerFillResults = calculatePartialFillResults(bet, layerAmount);\n\n      // Layer Half-Loses\n      if(result == 2) {\n        vault.transfer(bet.layerTokenAddress, this, msg.sender, layerAmount.div(2));\n      }\n\n      // Layer Wins\n      if(result == 3) {\n        vault.transfer(bet.layerTokenAddress, this, msg.sender, layerAmount);\n        vault.transfer(bet.backerTokenAddress, this, msg.sender, layerFillResults.backerTokenAmount);\n        transferFee(msg.sender, bet.feeRecipientAddress, layerFillResults.layerFee, vault);\n      }\n\n      // Layer Half-Wins\n      if(result == 4) { // Half Lose (Layer Half Win)\n        vault.transfer(bet.layerTokenAddress, this, msg.sender, layerAmount);\n        vault.transfer(bet.backerTokenAddress, this, msg.sender, layerFillResults.backerTokenAmount.div(2));\n        transferFee(msg.sender, bet.feeRecipientAddress, layerFillResults.layerFee, vault);\n      }\n\n      // Layer Pushes\n      if(result == 5) {\n        vault.transfer(bet.layerTokenAddress, this, msg.sender, layerAmount);\n      }\n    }\n\n    claimed[_betHash][msg.sender] = true;\n\n    emit LogBetClaimed(_betHash, msg.sender, result);\n    return result;\n  }\n\n  /**\n   * @notice Cancels a bet which has been partially filled\n   * @param _betHash Hash of all the bet parameters\n   * @return Returns `true` if bet was successfully cancelled\n   */\n  function cancelBet(bytes32 _betHash) external returns (bool) {\n    require(\n      bets[_betHash].backerAddress == msg.sender,\n      \"Sender must be backer of bet\"\n    );\n    require(\n      filled[_betHash] > 0,\n      \"Bet must exist\"\n    );\n    cancelled[_betHash] = true;\n\n    emit LogBetCancelled(_betHash);\n\n    return true;\n  }\n\n  /**\n   * @notice Returns all the bet ids (hashes) for the provided user address\n   * @param _user Address of the user\n   */\n  function getUserBetIds(address _user) external view returns (bytes32[]) {\n    return userBetIds[_user];\n  }\n\n  /**\n   * @notice Returns all the parameters associated with a bet hash\n   * @param _betHash Hash of all the bet parameters\n   * @return Array of addresses that are associated with the bet [backerAddress, layerAddress, backerTokenAddress, layerTokenAddress, feeRecipientAddress, leagueAddress, resolverAddress]\n   * @return Array of uint256 that as associated with the bet [backerTokenStake, backerFee, layerFee, expirationTimeSeconds, fixtureId, backerOdds]\n   * @return The payload of the bet\n  */\n  function getBetDetails(bytes32 _betHash) external view returns (address[7], uint[6], bytes) {\n    BetLib.Bet memory bet =  bets[_betHash];\n    return ([\n        bet.backerAddress,\n        bet.layerAddress,\n        bet.backerTokenAddress,\n        bet.layerTokenAddress,\n        bet.feeRecipientAddress,\n        bet.leagueAddress,\n        bet.resolverAddress\n      ], [\n        bet.backerTokenStake,\n        bet.backerFee,\n        bet.layerFee,\n        bet.expirationTimeSeconds,\n        bet.fixtureId,\n        bet.backerOdds\n      ],\n      bet.betPayload\n    );\n  }\n\n  /**\n   * @notice Transfer FAN Token fee\n   * @param _feePayer Address of payer of the fee\n   * @param _feeRecipient Address of recipient of the fee\n   * @param _amount Number of Fan Tokens to transfer\n   * @param _vault Address of vault contract\n   */\n  function transferFee(address _feePayer, address _feeRecipient, uint _amount, IVault _vault) internal {\n    if(_amount > 0) {\n      address fanToken = registry.getAddress(\"FanToken\");\n      _vault.transfer(fanToken, _feePayer, _feeRecipient, _amount);\n    }\n  }\n\n  /**\n   * @notice Validation of bet parameters\n   * @param _bet Bet struct of all bet parameters\n   * @param _signature ECDSA signature along with the mode (0 = Typed (EIP712), 1 = Geth, 2 = Trezor) {mode}{v}{r}{s}.\n   * @param _betHash Hash of all bet parameters\n   * @param _layerTokenFillAmount The number of tokens that they layer intends to bet\n   */\n  function validateBet(BetLib.Bet _bet, bytes _signature, bytes32 _betHash, uint _layerTokenFillAmount) internal view {\n    require(\n      filled[_betHash] < _bet.backerTokenStake,\n      \"Bet should not bet fully filled\"\n    );\n    require(\n      _bet.layerAddress == 0x0 || _bet.layerAddress == msg.sender,\n      \"Sender must be equal to layer if layerAddress exists\"\n    );\n    require(\n      _bet.expirationTimeSeconds > now,\n      \"Expiration time must be greater than now\"\n    );\n    require(\n      ILeagueRegistry(registry.getAddress(\"LeagueRegistry\")).isLeagueRegistered(_bet.leagueAddress),\n      \"League must be registered\"\n    );\n    require(\n      ILeague(_bet.leagueAddress).isResolverRegistered(_bet.resolverAddress),\n      \"Resolver must be registered for league\"\n    );\n    require(\n      ILeague(_bet.leagueAddress).isFixtureScheduled(_bet.fixtureId),\n      \"Fixture must be scheduled\"\n    );\n    require(\n      !cancelled[_betHash],\n      \"Bet should not be cancelled\"\n    );\n    require(\n      _layerTokenFillAmount != 0,\n      \"Layer token fill amount must be greater than 0\"\n    );\n    require(\n      _bet.backerAddress != msg.sender,\n      \"Sender address cannot equal layerAddress\"\n    );\n\n    // check whether the bet has not been partial filled yet\n    if(filled[_betHash] == 0) {\n      require(\n        _bet.backerTokenStake != 0,\n        \"Backer token stake must be greater than 0\"\n      );\n      require(\n        _bet.backerOdds != 0,\n        \"Backer odds must be greater than 0\"\n      );\n      require(\n        _bet.backerAddress != _bet.layerAddress,\n        \"Backer address cannot equal layerAddress\"\n      );\n      require(\n        validateBetParamsPayload(_bet.resolverAddress, _bet.betPayload),\n        \"Bet payload must be must be valid for resolver\"\n      );\n      require(\n        SignatureLib.isValidSignature(_betHash, _bet.backerAddress, _signature),\n        \"Signature is not valid\"\n      );\n    }\n  }\n\n  /**\n   * @notice Validation of bettor (backer or layer)\n   * @param _bettor Address of backer or layer\n   * @param _token Address of token that is being bet\n   * @param _tokenStakeAmount Amount of tokens that the bettor is staking\n   */\n  function validateBettor(address _bettor, address _token, uint _tokenStakeAmount) internal view {\n    IVault vault = IVault(registry.getAddress(\"Vault\"));\n\n    require(\n      vault.isApproved(_bettor, this),\n      \"Bettor has not approved Bet Manager to access their balance\"\n    );\n    require(\n      vault.balanceOf(_token, _bettor) >= _tokenStakeAmount,\n      \"Bettor does not have enough tokens to cover the bet\"\n    );\n  }\n\n  /**\n   * @notice Calculates the partial amounts for the backer stake, backer fee and layer fee based on the layer token fill amount\n   * @param _bet Struct of bet parameters\n   * @param _layerTokenFillAmount The number of tokens that they layer intends to bet\n   * @return Struct with partial amounts for the backer fee, layer fee and layer fill amount\n   */\n  function calculatePartialFillResults(BetLib.Bet memory _bet, uint256 _layerTokenFillAmount) internal pure returns (FillResults memory fillResults) {\n    fillResults.layerTokenAmount = _layerTokenFillAmount;\n    fillResults.backerTokenAmount = getPartialAmount(\n      _layerTokenFillAmount,\n      _bet.backerTokenReturn(ODDS_DECIMALS),\n      _bet.backerTokenStake\n    );\n    fillResults.backerFee = getPartialAmount(\n      _layerTokenFillAmount,\n      _bet.backerTokenReturn(ODDS_DECIMALS),\n      _bet.backerFee\n    );\n    fillResults.layerFee = getPartialAmount(\n      _layerTokenFillAmount,\n      _bet.backerTokenReturn(ODDS_DECIMALS),\n      _bet.layerFee\n    );\n\n    return fillResults;\n  }\n\n  /**\n   * @notice Calculates the partial amount\n   * @param _numerator Numerator\n   * @param _denominator Denominator\n   * @param _target Value to calculate partial of\n   * @return Partial value of target\n   */\n  function getPartialAmount(uint _numerator, uint _denominator, uint _target) internal pure returns (uint256 partialAmount) {\n    partialAmount = _numerator.mul(_target).div(_denominator);\n    return partialAmount;\n  }\n\n  /**\n   * @notice Validate bet params payload\n   * @param _resolver Address of resolver\n   * @param _betPayload Encoded bet data that can be decoded by the resolver\n   * @return Returns `true` if the the bet payload is valid, `false` otherwise\n   */\n  function validateBetParamsPayload(address _resolver, bytes _betPayload) internal returns (bool) {\n    // TODO: Ryan => implement resolvers\n    return true;\n  }\n\n  /**\n   * @notice Returns the result of the bet\n   * @param _resolver Address of the resolver\n   * @param _league Address of the league\n   * @param _fixtureId Id of the fixture\n   * @param _betPayload Encoded bet data that can be decoded by the resolver\n   */\n  function getResult(address _resolver, address _league, uint _fixtureId, bytes _betPayload) internal returns (uint8) {\n    // TODO: Ryan => implement resolvers, code below is for testing\n    uint x;\n    assembly {\n      x := mload(add(_betPayload, add(0x20, 0)))\n    }\n    return uint8(x);\n  }\n}\n",
  "sourcePath": "/Users/ryancimoszko/fu/fansunite-js/node_modules/fansunite-core/contracts/BetManager.sol",
  "compiler": {
    "name": "solc",
    "version": "0.4.24+commit.e67f0147.Emscripten.clang"
  },
  "schemaVersion": "2.0.1",
  "updatedAt": "2018-09-10T20:17:58.023Z"
}