{
  "contractName": "BetManager",
  "abi": [
    {
      "constant": true,
      "inputs": [],
      "name": "ORACLE_FEE",
      "outputs": [
        {
          "name": "",
          "type": "uint256"
        }
      ],
      "payable": false,
      "stateMutability": "view",
      "type": "function"
    },
    {
      "constant": true,
      "inputs": [],
      "name": "getChainId",
      "outputs": [
        {
          "name": "",
          "type": "uint256"
        }
      ],
      "payable": false,
      "stateMutability": "view",
      "type": "function"
    },
    {
      "constant": true,
      "inputs": [],
      "name": "DOMAIN_SEPARATOR",
      "outputs": [
        {
          "name": "",
          "type": "bytes32"
        }
      ],
      "payable": false,
      "stateMutability": "view",
      "type": "function"
    },
    {
      "constant": true,
      "inputs": [],
      "name": "getRegistryContract",
      "outputs": [
        {
          "name": "",
          "type": "address"
        }
      ],
      "payable": false,
      "stateMutability": "view",
      "type": "function"
    },
    {
      "constant": true,
      "inputs": [],
      "name": "ODDS_DECIMALS",
      "outputs": [
        {
          "name": "",
          "type": "uint256"
        }
      ],
      "payable": false,
      "stateMutability": "view",
      "type": "function"
    },
    {
      "constant": false,
      "inputs": [],
      "name": "renounceOwnership",
      "outputs": [],
      "payable": false,
      "stateMutability": "nonpayable",
      "type": "function"
    },
    {
      "constant": true,
      "inputs": [],
      "name": "DOMAIN_NAME",
      "outputs": [
        {
          "name": "",
          "type": "string"
        }
      ],
      "payable": false,
      "stateMutability": "view",
      "type": "function"
    },
    {
      "constant": true,
      "inputs": [],
      "name": "owner",
      "outputs": [
        {
          "name": "",
          "type": "address"
        }
      ],
      "payable": false,
      "stateMutability": "view",
      "type": "function"
    },
    {
      "constant": true,
      "inputs": [],
      "name": "isOwner",
      "outputs": [
        {
          "name": "",
          "type": "bool"
        }
      ],
      "payable": false,
      "stateMutability": "view",
      "type": "function"
    },
    {
      "constant": true,
      "inputs": [],
      "name": "EIP712_DOMAIN",
      "outputs": [
        {
          "name": "",
          "type": "string"
        }
      ],
      "payable": false,
      "stateMutability": "view",
      "type": "function"
    },
    {
      "constant": false,
      "inputs": [
        {
          "name": "_chainId",
          "type": "uint256"
        }
      ],
      "name": "setChainId",
      "outputs": [],
      "payable": false,
      "stateMutability": "nonpayable",
      "type": "function"
    },
    {
      "constant": false,
      "inputs": [
        {
          "name": "newOwner",
          "type": "address"
        }
      ],
      "name": "transferOwnership",
      "outputs": [],
      "payable": false,
      "stateMutability": "nonpayable",
      "type": "function"
    },
    {
      "inputs": [
        {
          "name": "_chainId",
          "type": "uint256"
        },
        {
          "name": "_registry",
          "type": "address"
        }
      ],
      "payable": false,
      "stateMutability": "nonpayable",
      "type": "constructor"
    },
    {
      "anonymous": false,
      "inputs": [
        {
          "indexed": true,
          "name": "_hash",
          "type": "bytes32"
        },
        {
          "indexed": true,
          "name": "_backer",
          "type": "address"
        },
        {
          "indexed": true,
          "name": "_layer",
          "type": "address"
        },
        {
          "indexed": false,
          "name": "_subjects",
          "type": "address[3]"
        },
        {
          "indexed": false,
          "name": "_params",
          "type": "uint256[4]"
        },
        {
          "indexed": false,
          "name": "_nonce",
          "type": "uint256"
        },
        {
          "indexed": false,
          "name": "_payload",
          "type": "bytes"
        }
      ],
      "name": "LogBetSubmitted",
      "type": "event"
    },
    {
      "anonymous": false,
      "inputs": [
        {
          "indexed": true,
          "name": "_hash",
          "type": "bytes32"
        },
        {
          "indexed": false,
          "name": "_result",
          "type": "uint256"
        }
      ],
      "name": "LogBetClaimed",
      "type": "event"
    },
    {
      "anonymous": false,
      "inputs": [
        {
          "indexed": false,
          "name": "_old",
          "type": "uint256"
        },
        {
          "indexed": false,
          "name": "_new",
          "type": "uint256"
        }
      ],
      "name": "LogChainIdUpdated",
      "type": "event"
    },
    {
      "anonymous": false,
      "inputs": [
        {
          "indexed": true,
          "name": "previousOwner",
          "type": "address"
        }
      ],
      "name": "OwnershipRenounced",
      "type": "event"
    },
    {
      "anonymous": false,
      "inputs": [
        {
          "indexed": true,
          "name": "previousOwner",
          "type": "address"
        },
        {
          "indexed": true,
          "name": "newOwner",
          "type": "address"
        }
      ],
      "name": "OwnershipTransferred",
      "type": "event"
    },
    {
      "constant": false,
      "inputs": [
        {
          "name": "_subjects",
          "type": "address[5]"
        },
        {
          "name": "_params",
          "type": "uint256[4]"
        },
        {
          "name": "_nonce",
          "type": "uint256"
        },
        {
          "name": "_payload",
          "type": "bytes"
        },
        {
          "name": "_signature",
          "type": "bytes"
        }
      ],
      "name": "submitBet",
      "outputs": [],
      "payable": false,
      "stateMutability": "nonpayable",
      "type": "function"
    },
    {
      "constant": false,
      "inputs": [
        {
          "name": "_subjects",
          "type": "address[5]"
        },
        {
          "name": "_params",
          "type": "uint256[4]"
        },
        {
          "name": "_nonce",
          "type": "uint256"
        },
        {
          "name": "_payload",
          "type": "bytes"
        }
      ],
      "name": "claimBet",
      "outputs": [],
      "payable": false,
      "stateMutability": "nonpayable",
      "type": "function"
    },
    {
      "constant": true,
      "inputs": [
        {
          "name": "_league",
          "type": "address"
        },
        {
          "name": "_resolver",
          "type": "address"
        },
        {
          "name": "_fixture",
          "type": "uint256"
        },
        {
          "name": "_payload",
          "type": "bytes"
        }
      ],
      "name": "getResult",
      "outputs": [
        {
          "name": "",
          "type": "uint256"
        }
      ],
      "payable": false,
      "stateMutability": "view",
      "type": "function"
    },
    {
      "constant": true,
      "inputs": [
        {
          "name": "_subject",
          "type": "address"
        }
      ],
      "name": "getBetsBySubject",
      "outputs": [
        {
          "name": "",
          "type": "bytes32[]"
        }
      ],
      "payable": false,
      "stateMutability": "view",
      "type": "function"
    }
  ],
  "bytecode": "0x60806040523480156200001157600080fd5b50604051604080620042d383398101604081815282516020938401516000805433600160a060020a03199182161790915560018054909116600160a060020a038316179055600282905560808401835260438085527f454950373132446f6d61696e28737472696e67206e616d652c75696e743235369585019586527f20636861696e49642c6164647265737320766572696679696e67436f6e747261848601527f63742900000000000000000000000000000000000000000000000000000000006060860152925191949093928291908083835b60208310620001075780518252601f199092019160209182019101620000e6565b51815160209384036101000a600019018019909216911617905260408051929094018290038220828501855260128084527f46616e73556e6974652050726f746f636f6c0000000000000000000000000000928401928352945190965091945090928392508083835b60208310620001915780518252601f19909201916020918201910162000170565b51815160209384036101000a600019018019909216911617905260408051929094018290038220828201979097528184019690965260608101889052306080808301919091528351808303909101815260a090910192839052805190959294508493509185019190508083835b602083106200021f5780518252601f199092019160209182019101620001fe565b5181516000196020949094036101000a939093019283169219169190911790526040519201829003909120600355505050505061407180620002626000396000f3006080604052600436106100cc5763ffffffff60e060020a60003504166331d8a98581146100d15780633408e470146100f85780633644e5151461010d57806336ca3d7314610122578063429da40a14610153578063715018a614610168578063796f077b1461017f5780638da5cb5b146102095780638f32d59b1461021e5780639b83945014610247578063a33a3a391461027d578063c8eca329146102a6578063e1b11da414610317578063ef0e2ff41461032c578063f2fde38b14610344578063f923cfb314610365575b600080fd5b3480156100dd57600080fd5b506100e661039e565b60408051918252519081900360200190f35b34801561010457600080fd5b506100e66103a4565b34801561011957600080fd5b506100e66103aa565b34801561012e57600080fd5b506101376103b0565b60408051600160a060020a039092168252519081900360200190f35b34801561015f57600080fd5b506100e66103bf565b34801561017457600080fd5b5061017d6103c4565b005b34801561018b57600080fd5b5061019461042c565b6040805160208082528351818301528351919283929083019185019080838360005b838110156101ce5781810151838201526020016101b6565b50505050905090810190601f1680156101fb5780820380516001836020036101000a031916815260200191505b509250505060405180910390f35b34801561021557600080fd5b50610137610463565b34801561022a57600080fd5b50610233610472565b604080519115158252519081900360200190f35b34801561025357600080fd5b5061017d600460a46101243561014435602481810191850135906101643590810190860135610483565b34801561028957600080fd5b5061017d600460a4610124356101443560248101908401356106dc565b3480156102b257600080fd5b506102c7600160a060020a0360043516610896565b60408051602080825283518183015283519192839290830191858101910280838360005b838110156103035781810151838201526020016102eb565b505050509050019250505060405180910390f35b34801561032357600080fd5b50610194610903565b34801561033857600080fd5b5061017d600435610989565b34801561035057600080fd5b5061017d600160a060020a03600435166109e6565b34801561037157600080fd5b506100e6600160a060020a0360048035821691602480359091169160443591606435908101910135610a05565b61019081565b60025490565b60035481565b600154600160a060020a031690565b600481565b6103cc610472565b15156103d757600080fd5b60008054604051600160a060020a03909116917ff8df31144d9c2f0f6b59d69b8b98abd5459d07f2742c4df920b25aae33c6482091a26000805473ffffffffffffffffffffffffffffffffffffffff19169055565b60408051808201909152601281527f46616e73556e6974652050726f746f636f6c0000000000000000000000000000602082015281565b600054600160a060020a031690565b600054600160a060020a0316331490565b61048b613f5d565b6000610508896005806020026040519081016040528092919082600560200280828437505060408051608081810190925293508d92506004915083908390808284375050604080516020601f8e018190048102820181019092528c81528e945092508c91508b908190840183828082843750610a4d945050505050565b915061051682600354610ad8565b9050610553828286868080601f01602080910402602001604051908101604052809392919081815260200183838082843750611012945050505050565b61055c82611270565b61056582611778565b61056f8282611e35565b8160200151600160a060020a03168260000151600160a060020a031682600019167f8dc61913ee8b0c3c30d3073f36ed3d12dcea1dcaa3e9d83d9def86e1a466dbf56060604051908101604052808760400151600160a060020a0316600160a060020a031681526020018760600151600160a060020a0316600160a060020a031681526020018760800151600160a060020a0316600160a060020a03168152506080604051908101604052808860a0015181526020018860c0015181526020018860e0015181526020018861010001518152508c8c8c6040518086600360200280838360005b8381101561066d578181015183820152602001610655565b5050505090500185600460200280838360005b83811015610698578181015183820152602001610680565b5050505090500184815260200180602001828103825284848281815260200192508082843760405192018290039850909650505050505050a4505050505050505050565b6106e4613f5d565b600080610762886005806020026040519081016040528092919082600560200280828437505060408051608081810190925293508c92506004915083908390808284375050604080516020601f8d018190048102820181019092528b81528d945092508b91508a908190840183828082843750610a4d945050505050565b925061077083600354610ad8565b60008181526004602052604090205490925060ff161515610801576040805160e560020a62461bcd02815260206004820152603b60248201527f426574207769746820676976656e20706172616d65746572732065697468657260448201527f20636c61696d6564206f72206e65766572207375626d69747465640000000000606482015290519081900360840190fd5b610849836060015184608001518560c0015188888080601f0160208091040260200160405190810160405280939291908181526020018383808284375061218e945050505050565b905061085683838361233c565b60408051828152905183917ff53bfa6342bbc051898502863a9f79991cc4f8759b484710ee0c356d019bd2ae919081900360200190a25050505050505050565b600160a060020a0381166000908152600660209081526040918290208054835181840281018401909452808452606093928301828280156108f757602002820191906000526020600020905b815481526001909101906020018083116108e2575b50505050509050919050565b608060405190810160405280604381526020017f454950373132446f6d61696e28737472696e67206e616d652c75696e7432353681526020017f20636861696e49642c6164647265737320766572696679696e67436f6e74726181526020017f637429000000000000000000000000000000000000000000000000000000000081525081565b6000610993610472565b151561099e57600080fd5b506002805490829055604080518281526020810184905281517f6e7b1c0fef63382f05aa7c9cbe8f66c67fbb68e0892f8e8347b0ea3ef615850c929181900390910190a15050565b6109ee610472565b15156109f957600080fd5b610a02816124cd565b50565b6000610a4386868686868080601f0160208091040260200160405190810160405280939291908181526020018383808284375061218e945050505050565b9695505050505050565b610a55613f5d565b5060408051610160810182528551600160a060020a0390811682526020808801518216818401528784015182168385015260608089015183168185015260809889015190921697830197909752855160a08301529585015160c08201529084015160e0820152929093015161010083015261012082015261014081019190915290565b600060606000846000015185602001518660400151876060015188608001518960a001518a60c001518b60e001518c61010001518d6101200151604051602001808b600160a060020a0316600160a060020a031681526020018a600160a060020a0316600160a060020a0316815260200189600160a060020a0316600160a060020a0316815260200188600160a060020a0316600160a060020a0316815260200187600160a060020a0316600160a060020a031681526020018681526020018581526020018481526020018381526020018281526020019a505050505050505050505060405160208183030381529060405291508360405160200180807f4265742800000000000000000000000000000000000000000000000000000000815250600401807f61646472657373206261636b65722c0000000000000000000000000000000000815250600f01807f61646472657373206c617965722c000000000000000000000000000000000000815250600e01807f6164647265737320746f6b656e2c000000000000000000000000000000000000815250600e01807f61646472657373206c65616775652c0000000000000000000000000000000000815250600f01807f61646472657373207265736f6c7665722c000000000000000000000000000000815250601101807f75696e74323536206261636b65725374616b652c000000000000000000000000815250601401807f75696e7432353620666978747572652c00000000000000000000000000000000815250601001807f75696e74323536206f6464732c00000000000000000000000000000000000000815250600d01807f75696e743235362065787069726174696f6e2c00000000000000000000000000815250601301807f75696e74323536206e6f6e63652c000000000000000000000000000000000000815250600e01807f6279746573207061796c6f616400000000000000000000000000000000000000815250600d01807f290000000000000000000000000000000000000000000000000000000000000081525060010190506040516020818303038152906040526040518082805190602001908083835b60208310610e1c5780518252601f199092019160209182019101610dfd565b51815160209384036101000a60001901801990921691161790526040519190930181900381206101408c015180519196508995509391925082918401908083835b60208310610e7c5780518252601f199092019160209182019101610e5d565b51815160209384036101000a600019018019909216911617905260408051929094018290038220828201898152885191975095509190930192860191508083835b60208310610edc5780518252601f199092019160209182019101610ebd565b51815160209384036101000a60001901801990921691161790529201938452506040805180850381529382019081905283519395509350839290850191508083835b60208310610f3d5780518252601f199092019160209182019101610f1e565b51815160209384036101000a6000190180199092169116179052604080519290940182900382207f190100000000000000000000000000000000000000000000000000000000000083830152602283019790975260428083019790975283518083039097018752606290910192839052855192945084935085019190508083835b60208310610fdd5780518252601f199092019160209182019101610fbe565b5181516020939093036101000a6000190180199091169216919091179052604051920182900390912098975050505050505050565b6020830151600160a060020a0316331461109c576040805160e560020a62461bcd02815260206004820152602f60248201527f426574206973206e6f74207065726d697474656420666f7220746865206d736760448201527f2e73656e64657220746f2074616b650000000000000000000000000000000000606482015290519081900360840190fd5b8251600160a060020a0316158015906110bf57508251600160a060020a03163314155b151561113b576040805160e560020a62461bcd02815260206004820152602f60248201527f426574206973206e6f74207065726d697474656420666f7220746865206d736760448201527f2e73656e64657220746f2074616b650000000000000000000000000000000000606482015290519081900360840190fd5b60008281526005602052604090205460ff1680611166575060008281526004602052604090205460ff165b156111e1576040805160e560020a62461bcd02815260206004820152602860248201527f42657420776974682073616d652068617368206265656e207375626d6974746560448201527f64206265666f7265000000000000000000000000000000000000000000000000606482015290519081900360840190fd5b6111f08284600001518361254a565b151561126b576040805160e560020a62461bcd028152602060048201526024808201527f54782069732073656e74207769746820616e20696e76616c6964207369676e6160448201527f7475726500000000000000000000000000000000000000000000000000000000606482015290519081900360840190fd5b505050565b6001546040805160e060020a63bf40fac10281526020600482018190526008602483015260008051602061400683398151915260448301529151600093600160a060020a03169263bf40fac1926064808201939182900301818787803b1580156112d957600080fd5b505af11580156112ed573d6000803e3d6000fd5b505050506040513d602081101561130357600080fd5b50518251604080517fa389783e000000000000000000000000000000000000000000000000000000008152600160a060020a03928316600482015230602482015290519293509083169163a389783e916044808201926020929091908290030181600087803b15801561137557600080fd5b505af1158015611389573d6000803e3d6000fd5b505050506040513d602081101561139f57600080fd5b5051151561141d576040805160e560020a62461bcd02815260206004820152603960248201527f4261636b657220686173206e6f7420617070726f766564204265744d616e616760448201527f657220746f206d6f76652066756e647320696e205661756c7400000000000000606482015290519081900360840190fd5b602080830151604080517fa389783e000000000000000000000000000000000000000000000000000000008152600160a060020a03928316600482015230602482015290519184169263a389783e926044808401938290030181600087803b15801561148857600080fd5b505af115801561149c573d6000803e3d6000fd5b505050506040513d60208110156114b257600080fd5b50511515611530576040805160e560020a62461bcd02815260206004820152603860248201527f4c6179657220686173206e6f7420617070726f766564204265744d616e61676560448201527f7220746f206d6f76652066756e647320696e205661756c740000000000000000606482015290519081900360840190fd5b60a0820151604080840151845182517ff7888aec000000000000000000000000000000000000000000000000000000008152600160a060020a039283166004820152908216602482015291519084169163f7888aec9160448083019260209291908290030181600087803b1580156115a757600080fd5b505af11580156115bb573d6000803e3d6000fd5b505050506040513d60208110156115d157600080fd5b5051101561164f576040805160e560020a62461bcd02815260206004820152602660248201527f4261636b657220646f6573206e6f7420686176652073756666696369656e742060448201527f746f6b656e730000000000000000000000000000000000000000000000000000606482015290519081900360840190fd5b61165a826004612572565b60408084015160208086015183517ff7888aec000000000000000000000000000000000000000000000000000000008152600160a060020a039384166004820152908316602482015292519185169263f7888aec92604480830193928290030181600087803b1580156116cc57600080fd5b505af11580156116e0573d6000803e3d6000fd5b505050506040513d60208110156116f657600080fd5b50511015611774576040805160e560020a62461bcd02815260206004820152602560248201527f4c6179657220646f6573206e6f7420686176652073756666696369656e74207460448201527f6f6b656e73000000000000000000000000000000000000000000000000000000606482015290519081900360840190fd5b5050565b6001546040805160e060020a63bf40fac1028152602060048201819052600e60248301527f4c656167756552656769737472790000000000000000000000000000000000006044830152915160009384938493600160a060020a039092169263bf40fac192606480820193929182900301818787803b1580156117fa57600080fd5b505af115801561180e573d6000803e3d6000fd5b505050506040513d602081101561182457600080fd5b50516001546040805160e060020a63bf40fac1028152602060048201819052601060248301527f5265736f6c76657252656769737472790000000000000000000000000000000060448301529151939650600160a060020a039092169263bf40fac19260648082019392918290030181600087803b1580156118a557600080fd5b505af11580156118b9573d6000803e3d6000fd5b505050506040513d60208110156118cf57600080fd5b50516060850151604080517f0db76ca5000000000000000000000000000000000000000000000000000000008152600160a060020a0380841660048301529151939550919350851691630db76ca5916024808201926020929091908290030181600087803b15801561194057600080fd5b505af1158015611954573d6000803e3d6000fd5b505050506040513d602081101561196a57600080fd5b505115156119e8576040805160e560020a62461bcd02815260206004820152602760248201527f4c6561677565206973206e6f742072656769737465726564207769746820466160448201527f6e73556e69746500000000000000000000000000000000000000000000000000606482015290519081900360840190fd5b60608401516080850151604080517fa3a60eba000000000000000000000000000000000000000000000000000000008152600160a060020a0393841660048201529183166024830152519184169163a3a60eba916044808201926020929091908290030181600087803b158015611a5e57600080fd5b505af1158015611a72573d6000803e3d6000fd5b505050506040513d6020811015611a8857600080fd5b50511515611b06576040805160e560020a62461bcd02815260206004820152602260248201527f5265736f6c766572206973206e6f7420757361626c652077697468206c65616760448201527f7565000000000000000000000000000000000000000000000000000000000000606482015290519081900360840190fd5b80600160a060020a031663e239c9528560c001516040518263ffffffff1660e060020a02815260040180828152602001915050602060405180830381600087803b158015611b5357600080fd5b505af1158015611b67573d6000803e3d6000fd5b505050506040513d6020811015611b7d57600080fd5b50511515611bfa576040805160e560020a62461bcd028152602060048201526024808201527f46697874757265206973206e6f74207363686564756c65642077697468204c6560448201527f6167756500000000000000000000000000000000000000000000000000000000606482015290519081900360840190fd5b80600160a060020a03166342813bcc8560c0015186608001516040518363ffffffff1660e060020a0281526004018083815260200182600160a060020a0316600160a060020a0316815260200192505050602060405180830381600087803b158015611c6557600080fd5b505af1158015611c79573d6000803e3d6000fd5b505050506040513d6020811015611c8f57600080fd5b505160ff1660011415611cec576040805160e560020a62461bcd02815260206004820152601b60248201527f4669787475726520697320616c7265616479207265736f6c7665640000000000604482015290519081900360640190fd5b60a0840151600010611d6e576040805160e560020a62461bcd02815260206004820152602160248201527f5374616b6520646f6573206e6f742062656c6f6e6720746f2073657420e2849d60448201527f2b00000000000000000000000000000000000000000000000000000000000000606482015290519081900360840190fd5b60e0840151600010611dca576040805160e560020a62461bcd02815260206004820181905260248201527f4f64647320646f6573206e6f742062656c6f6e6720746f2073657420e2849d2b604482015290519081900360640190fd5b6101008401514210611e26576040805160e560020a62461bcd02815260206004820152600f60248201527f4265742068617320657870697265640000000000000000000000000000000000604482015290519081900360640190fd5b611e2f846125a9565b50505050565b6001546040805160e060020a63bf40fac1028152602060048201819052600860248301526000805160206140068339815191526044830152915160009384938493600160a060020a039092169263bf40fac192606480820193929182900301818787803b158015611ea557600080fd5b505af1158015611eb9573d6000803e3d6000fd5b505050506040513d6020811015611ecf57600080fd5b505160a08601519093509150611ee6856004612572565b6000858152600460208181526040808420805460ff191660019081179091558a51600160a060020a0390811686526006845282862080548084018255908752848720018b90553386528286208054928301815586528386209091018a90558a8201518b5183517f15dacbea0000000000000000000000000000000000000000000000000000000081529183169582019590955293811660248501523060448501526064840188905290519495508716936315dacbea936084808501948390030190829087803b158015611fb857600080fd5b505af1158015611fcc573d6000803e3d6000fd5b505050506040513d6020811015611fe257600080fd5b50511515612060576040805160e560020a62461bcd02815260206004820152602660248201527f43616e6e6f74207472616e73666572206261636b65722773207374616b65207460448201527f6f20706f6f6c0000000000000000000000000000000000000000000000000000606482015290519081900360840190fd5b60408086015160208088015183517f15dacbea000000000000000000000000000000000000000000000000000000008152600160a060020a0393841660048201529083166024820152306044820152606481018590529251918616926315dacbea92608480830193928290030181600087803b1580156120df57600080fd5b505af11580156120f3573d6000803e3d6000fd5b505050506040513d602081101561210957600080fd5b50511515612187576040805160e560020a62461bcd02815260206004820152602560248201527f43616e6e6f74207472616e73666572206c617965722773207374616b6520746f60448201527f20706f6f6c000000000000000000000000000000000000000000000000000000606482015290519081900360840190fd5b5050505050565b6000606085600160a060020a03166342813bcc85876040518363ffffffff1660e060020a0281526004018083815260200182600160a060020a0316600160a060020a0316815260200192505050602060405180830381600087803b1580156121f557600080fd5b505af1158015612209573d6000803e3d6000fd5b505050506040513d602081101561221f57600080fd5b505160ff166001146122345760009150612333565b85600160a060020a031663e78341e685876040518363ffffffff1660e060020a0281526004018083815260200182600160a060020a0316600160a060020a0316815260200192505050600060405180830381600087803b15801561229757600080fd5b505af11580156122ab573d6000803e3d6000fd5b505050506040513d6000823e601f3d908101601f1916820160405260208110156122d457600080fd5b8101908080516401000000008111156122ec57600080fd5b820160208101848111156122ff57600080fd5b815164010000000081118282018710171561231957600080fd5b505092919050505090506123308686868685612715565b91505b50949350505050565b6000428460600151600160a060020a0316632cb0a2e58660c001516040518263ffffffff1660e060020a02815260040180828152602001915050602060405180830381600087803b15801561239057600080fd5b505af11580156123a4573d6000803e3d6000fd5b505050506040513d60208110156123ba57600080fd5b505162093a80011115905060008211806123d15750805b1515612427576040805160e560020a62461bcd02815260206004820152601a60248201527f4265742063616e6e6f74206265207265736f6c76656420796574000000000000604482015290519081900360640190fd5b6000838152600460209081526040808320805460ff1990811690915560059092529091208054909116600117905581151561246a576124658461285c565b611e2f565b816001141561247c5761246584612ab6565b816002141561248e5761246584612df2565b81600314156124a05761246584612fe2565b81600414156124b25761246584613455565b81600514156124c4576124658461362e565b611e2f84613a65565b600160a060020a03811615156124e257600080fd5b60008054604051600160a060020a03808516939216917f8be0079c531659141344cd1fd0a4f28419497f9722a3daafe3b4186f6b6457e091a36000805473ffffffffffffffffffffffffffffffffffffffff1916600160a060020a0392909216919091179055565b600082600160a060020a03166125608584613cb0565b600160a060020a031614949350505050565b60006125a282600a0a6125968560e001518660a00151613ed890919063ffffffff16565b9063ffffffff613f1116565b9392505050565b6000806000806000606086608001519450866060015193508660c00151925084600160a060020a031663943e25a16040518163ffffffff1660e060020a028152600401602060405180830381600087803b15801561260657600080fd5b505af115801561261a573d6000803e3d6000fd5b505050506040513d602081101561263057600080fd5b5051610140880151805160408051604481840181019092528481526010810189905260248101889052939550919350918183019160208086019291820190858701015b8084101561268e578351825260209384019390910190612673565b5060208285848d617530fa8080156126a95783519c506126ae565b83519c505b5050505050505085151561270c576040805160e560020a62461bcd02815260206004820152601860248201527f426574207061796c6f6164206973206e6f742076616c69640000000000000000604482015290519081900360640190fd5b50505050505050565b60008060008060008060608083600160a060020a03166354ed633b6040518163ffffffff1660e060020a028152600401602060405180830381600087803b15801561275f57600080fd5b505af1158015612773573d6000803e3d6000fd5b505050506040513d602081101561278957600080fd5b810190808051906020019092919050505095508c94508b93508a92508991508890508151815160448201810160208501602086016040516040518482016040528c8152600481019050600c810190508b81526014810190508981526020810190508684015b808510156128095784518252602094850194909101906127ee565b508583015b8084101561282957835182526020938401939091019061280e565b5060208286848e617530fa8080156128405783519f505b5050505050505050508697505050505050505095945050505050565b6001546040805160e060020a63bf40fac1028152602060048201819052600860248301526000805160206140068339815191526044830152915160009384938493600160a060020a039092169263bf40fac192606480820193929182900301818787803b1580156128cc57600080fd5b505af11580156128e0573d6000803e3d6000fd5b505050506040513d60208110156128f657600080fd5b505160a0850151909350915061290d846004612572565b6040808601518651825160e360020a6317d57599028152600160a060020a039283166004820152908216602482015260448101869052915192935085169163beabacc8916064808201926020929091908290030181600087803b15801561297357600080fd5b505af1158015612987573d6000803e3d6000fd5b505050506040513d602081101561299d57600080fd5b505115156129e3576040805160e560020a62461bcd02815260206004820152601f6024820152600080516020614026833981519152604482015290519081900360640190fd5b604080850151602080870151835160e360020a6317d57599028152600160a060020a03938416600482015290831660248201526044810185905292519186169263beabacc892606480830193928290030181600087803b158015612a4657600080fd5b505af1158015612a5a573d6000803e3d6000fd5b505050506040513d6020811015612a7057600080fd5b50511515611e2f576040805160e560020a62461bcd02815260206004820152601f6024820152600080516020614026833981519152604482015290519081900360640190fd5b6001546040805160e060020a63bf40fac10281526020600482018190526008602483015260008051602061400683398151915260448301529151600093849384938493849384938493600160a060020a039092169263bf40fac192606480820193929182900301818787803b158015612b2e57600080fd5b505af1158015612b42573d6000803e3d6000fd5b505050506040513d6020811015612b5857600080fd5b50516001546040805160e060020a63bf40fac102815260206004820181905260106024830152600080516020613fe683398151915260448301529151939a50600160a060020a039092169263bf40fac19260648082019392918290030181600087803b158015612bc757600080fd5b505af1158015612bdb573d6000803e3d6000fd5b505050506040513d6020811015612bf157600080fd5b505160a08901519096509450612c08886004612572565b9350612c1a858563ffffffff613f3416565b9250612c2e8361019063ffffffff613f1116565b9150612c40838363ffffffff613f4616565b6040808a01516020808c0151835160e360020a6317d57599028152600160a060020a0393841660048201529083166024820152604481018590529251939450908a169263beabacc89260648082019392918290030181600087803b158015612ca757600080fd5b505af1158015612cbb573d6000803e3d6000fd5b505050506040513d6020811015612cd157600080fd5b50511515612d17576040805160e560020a62461bcd02815260206004820152601f6024820152600080516020614026833981519152604482015290519081900360640190fd5b604080890151815160e360020a6317d57599028152600160a060020a03918216600482015288821660248201526044810185905291519089169163beabacc89160648083019260209291908290030181600087803b158015612d7857600080fd5b505af1158015612d8c573d6000803e3d6000fd5b505050506040513d6020811015612da257600080fd5b50511515612de8576040805160e560020a62461bcd02815260206004820152601f6024820152600080516020614026833981519152604482015290519081900360640190fd5b5050505050505050565b6001546040805160e060020a63bf40fac10281526020600482018190526008602483015260008051602061400683398151915260448301529151600093849384938493849384938493600160a060020a039092169263bf40fac192606480820193929182900301818787803b158015612e6a57600080fd5b505af1158015612e7e573d6000803e3d6000fd5b505050506040513d6020811015612e9457600080fd5b50516001546040805160e060020a63bf40fac102815260206004820181905260106024830152600080516020613fe683398151915260448301529151939a50600160a060020a039092169263bf40fac19260648082019392918290030181600087803b158015612f0357600080fd5b505af1158015612f17573d6000803e3d6000fd5b505050506040513d6020811015612f2d57600080fd5b505160a08901519096509450612f44886004612572565b9350612f56858563ffffffff613f3416565b9250612f6a8361019063ffffffff613f1116565b9150612f7c838363ffffffff613f4616565b6040808a01518a51825160e360020a6317d57599028152600160a060020a039283166004820152908216602482015260448101849052915192935089169163beabacc8916064808201926020929091908290030181600087803b158015612ca757600080fd5b6000806000806000806000806000806000600160009054906101000a9004600160a060020a0316600160a060020a031663bf40fac16040518163ffffffff1660e060020a028152600401808060200182810382526008815260200180600080516020614006833981519152815250602001915050602060405180830381600087803b15801561307057600080fd5b505af1158015613084573d6000803e3d6000fd5b505050506040513d602081101561309a57600080fd5b50516001546040805160e060020a63bf40fac102815260206004820181905260106024830152600080516020613fe683398151915260448301529151939e50600160a060020a039092169263bf40fac19260648082019392918290030181600087803b15801561310957600080fd5b505af115801561311d573d6000803e3d6000fd5b505050506040513d602081101561313357600080fd5b505160a08d0151909a50985061314a8c6004612572565b975061315e8961019063ffffffff613f1116565b96506131728861019063ffffffff613f1116565b955061318589600263ffffffff613f1116565b9450613197888663ffffffff613f3416565b93506131a9858863ffffffff613f4616565b92506131bb848763ffffffff613f4616565b91506131cd878763ffffffff613f3416565b6040808e01518e51825160e360020a6317d57599028152600160a060020a03928316600482015290821660248201526044810187905291519293508d169163beabacc8916064808201926020929091908290030181600087803b15801561323357600080fd5b505af1158015613247573d6000803e3d6000fd5b505050506040513d602081101561325d57600080fd5b505115156132a3576040805160e560020a62461bcd02815260206004820152601f6024820152600080516020614026833981519152604482015290519081900360640190fd5b6040808d01516020808f0151835160e360020a6317d57599028152600160a060020a0393841660048201529083166024820152604481018690529251918e169263beabacc892606480830193928290030181600087803b15801561330657600080fd5b505af115801561331a573d6000803e3d6000fd5b505050506040513d602081101561333057600080fd5b50511515613376576040805160e560020a62461bcd02815260206004820152601f6024820152600080516020614026833981519152604482015290519081900360640190fd5b6040808d0151815160e360020a6317d57599028152600160a060020a0391821660048201528c82166024820152604481018490529151908d169163beabacc89160648083019260209291908290030181600087803b1580156133d757600080fd5b505af11580156133eb573d6000803e3d6000fd5b505050506040513d602081101561340157600080fd5b50511515613447576040805160e560020a62461bcd02815260206004820152601f6024820152600080516020614026833981519152604482015290519081900360640190fd5b505050505050505050505050565b6000806000806000806000806000806000600160009054906101000a9004600160a060020a0316600160a060020a031663bf40fac16040518163ffffffff1660e060020a028152600401808060200182810382526008815260200180600080516020614006833981519152815250602001915050602060405180830381600087803b1580156134e357600080fd5b505af11580156134f7573d6000803e3d6000fd5b505050506040513d602081101561350d57600080fd5b50516001546040805160e060020a63bf40fac102815260206004820181905260106024830152600080516020613fe683398151915260448301529151939e50600160a060020a039092169263bf40fac19260648082019392918290030181600087803b15801561357c57600080fd5b505af1158015613590573d6000803e3d6000fd5b505050506040513d60208110156135a657600080fd5b505160a08d0151909a5098506135bd8c6004612572565b97506135d18961019063ffffffff613f1116565b96506135e58861019063ffffffff613f1116565b95506135f888600263ffffffff613f1116565b945061360a898663ffffffff613f3416565b935061361c848863ffffffff613f4616565b92506131bb858763ffffffff613f4616565b6001546040805160e060020a63bf40fac1028152602060048201819052600860248301526000805160206140068339815191526044830152915160009384938493849384938493849384938493600160a060020a03169263bf40fac1926064808201939182900301818787803b1580156136a757600080fd5b505af11580156136bb573d6000803e3d6000fd5b505050506040513d60208110156136d157600080fd5b50516001546040805160e060020a63bf40fac102815260206004820181905260106024830152600080516020613fe683398151915260448301529151939c50600160a060020a039092169263bf40fac19260648082019392918290030181600087803b15801561374057600080fd5b505af1158015613754573d6000803e3d6000fd5b505050506040513d602081101561376a57600080fd5b505160a08b015190985096506137818a6004612572565b95506137958761019063ffffffff613f1116565b94506137a98661019063ffffffff613f1116565b93506137bb878663ffffffff613f4616565b92506137cd868563ffffffff613f4616565b91506137df858563ffffffff613f3416565b6040808c01518c51825160e360020a6317d57599028152600160a060020a03928316600482015290821660248201526044810187905291519293508b169163beabacc8916064808201926020929091908290030181600087803b15801561384557600080fd5b505af1158015613859573d6000803e3d6000fd5b505050506040513d602081101561386f57600080fd5b505115156138b5576040805160e560020a62461bcd02815260206004820152601f6024820152600080516020614026833981519152604482015290519081900360640190fd5b6040808b01516020808d0151835160e360020a6317d57599028152600160a060020a0393841660048201529083166024820152604481018690529251918c169263beabacc892606480830193928290030181600087803b15801561391857600080fd5b505af115801561392c573d6000803e3d6000fd5b505050506040513d602081101561394257600080fd5b50511515613988576040805160e560020a62461bcd02815260206004820152601f6024820152600080516020614026833981519152604482015290519081900360640190fd5b6040808b0151815160e360020a6317d57599028152600160a060020a0391821660048201528a82166024820152604481018490529151908b169163beabacc89160648083019260209291908290030181600087803b1580156139e957600080fd5b505af11580156139fd573d6000803e3d6000fd5b505050506040513d6020811015613a1357600080fd5b50511515613a59576040805160e560020a62461bcd02815260206004820152601f6024820152600080516020614026833981519152604482015290519081900360640190fd5b50505050505050505050565b6001546040805160e060020a63bf40fac102815260206004820181905260086024830152600080516020614006833981519152604483015291516000938493849384938493600160a060020a03169263bf40fac1926064808201939182900301818787803b158015613ad657600080fd5b505af1158015613aea573d6000803e3d6000fd5b505050506040513d6020811015613b0057600080fd5b50516001546040805160e060020a63bf40fac1028152602060048201819052600660248301527f46616e4f7267000000000000000000000000000000000000000000000000000060448301529151939850600160a060020a039092169263bf40fac19260648082019392918290030181600087803b158015613b8157600080fd5b505af1158015613b95573d6000803e3d6000fd5b505050506040513d6020811015613bab57600080fd5b505160a08701519094509250613bc2866004612572565b9150613bd4838363ffffffff613f3416565b604080880151815160e360020a6317d57599028152600160a060020a039182166004820152878216602482015260448101849052915192935087169163beabacc8916064808201926020929091908290030181600087803b158015613c3857600080fd5b505af1158015613c4c573d6000803e3d6000fd5b505050506040513d6020811015613c6257600080fd5b50511515613ca8576040805160e560020a62461bcd02815260206004820152601f6024820152600080516020614026833981519152604482015290519081900360640190fd5b505050505050565b60008060008060008086516042141515613d3a576040805160e560020a62461bcd02815260206004820152602560248201527f5369676e6174757265206d7573742068617665206c656e67746820657861637460448201527f6c79203636000000000000000000000000000000000000000000000000000000606482015290519081900360840190fd5b866000815181101515613d4957fe5b90602001015160f860020a900460f860020a0260f860020a900460ff166001811115613d7157fe5b9450866001815181101515613d8257fe5b01602001516022880151604289015160f860020a928390048302929092049550935091506001856001811115613db457fe5b1415613e6457604080517f19457468657265756d205369676e6564204d6573736167653a0a333200000000602080830191909152603c8083018c905283518084039091018152605c90920192839052815191929182918401908083835b60208310613e305780518252601f199092019160209182019101613e11565b6001836020036101000a03801982511681845116808217855250505050505090500191505060405180910390209050613e67565b50865b604080516000808252602080830180855285905260ff8816838501526060830187905260808301869052925160019360a0808501949193601f19840193928390039091019190865af1158015613ec1573d6000803e3d6000fd5b5050604051601f1901519998505050505050505050565b600080831515613eeb5760009150613f0a565b50828202828482811515613efb57fe5b0414613f0657600080fd5b8091505b5092915050565b600080808311613f2057600080fd5b8284811515613f2b57fe5b04949350505050565b600082820183811015613f0657600080fd5b60008083831115613f5657600080fd5b5050900390565b610160604051908101604052806000600160a060020a031681526020016000600160a060020a031681526020016000600160a060020a031681526020016000600160a060020a031681526020016000600160a060020a0316815260200160008152602001600081526020016000815260200160008152602001600081526020016060815250905600436f6e73656e7375734d616e616765720000000000000000000000000000000046616e5661756c7400000000000000000000000000000000000000000000000043616e6e6f74207472616e73666572207374616b652066726f6d20706f6f6c00a165627a7a723058207eff5c189cf007769d904a1248d0671c40bdfbe26ee6e2704760329c8252b3b40029",
  "source": "pragma solidity ^0.4.24;\n\nimport \"openzeppelin-solidity/contracts/ownership/Ownable.sol\";\nimport \"openzeppelin-solidity/contracts/math/SafeMath.sol\";\nimport \"openzeppelin-solidity/contracts/token/ERC20/ERC20.sol\";\n\nimport \"./interfaces/IBetManager.sol\";\nimport \"./interfaces/ILeague.sol\";\nimport \"./interfaces/ILeagueRegistry.sol\";\nimport \"./interfaces/IRegistry.sol\";\nimport \"./interfaces/IResolver.sol\";\nimport \"./interfaces/IVault.sol\";\n\nimport { BetLib } from \"./libraries/BetLib.sol\";\n\nimport \"./libraries/SignatureLib.sol\";\n\nimport \"./utils/RegistryAccessible.sol\";\nimport \"./utils/ChainSpecifiable.sol\";\nimport \"./interfaces/IResolverRegistry.sol\";\n\n/**\n * @title Bet Manger Contract\n * @notice BetManager is the core contract responsible for bet validations and bet submissions\n */\ncontract BetManager is Ownable, IBetManager, RegistryAccessible, ChainSpecifiable {\n\n  using SafeMath for uint;\n\n  // Number of decimal places in BetLib.Odds\n  uint public constant ODDS_DECIMALS = 4;\n\n  // Oracle fee dividing factor (1 / 400 = 0.0025)\n  uint public constant ORACLE_FEE = 400;\n\n  // EIP712 Compliance Params\n  string public constant EIP712_DOMAIN =\n  \"EIP712Domain(string name,uint256 chainId,address verifyingContract)\";\n  string public constant DOMAIN_NAME = \"FansUnite Protocol\";\n  bytes32 public DOMAIN_SEPARATOR; // set during deploy time\n\n  // Resolves to `true` if hash is used, `false` otherwise\n  mapping(bytes32 => bool) internal unclaimed;\n  // Resolves to `true` if bet has been claimed, `false` otherwise\n  mapping(bytes32 => bool) internal claimed;\n  // Mapping of user address to array of bet hashes\n  mapping(address => bytes32[]) internal bets;\n\n  // Emit when a Bet has been submitted\n  event LogBetSubmitted(\n    bytes32 indexed _hash,\n    address indexed _backer,\n    address indexed _layer,\n    address[3] _subjects,\n    uint[4] _params,\n    uint _nonce,\n    bytes _payload\n  );\n  // Emit when a Bet has been claimed\n  event LogBetClaimed(\n    bytes32 indexed _hash,\n    uint256 _result\n  );\n\n  /**\n   * @notice Constructor\n   * @dev Change chainId in case of a fork, making sure txs cannot be replayed on forked chains\n   * @param _chainId ChainId to be set\n   */\n  constructor(uint _chainId, address _registry)\n    public\n    ChainSpecifiable(_chainId)\n    RegistryAccessible(_registry)\n  {\n    DOMAIN_SEPARATOR = keccak256(\n      abi.encode(\n        keccak256(EIP712_DOMAIN),\n        keccak256(DOMAIN_NAME),\n        _chainId,\n        address(this)\n      )\n    );\n  }\n\n  /**\n   * @notice Submits a bet\n   * @param _subjects Subjects associated with bet [backer, layer, token, league, resolver]\n   * @param _params Parameters associated with bet [backerStake, fixture, odds, expiration]\n   * @param _nonce Nonce, to ensure hash uniqueness\n   * @param _payload Payload for resolver\n   * @param _signature ECDSA signature along with the mode\n   *  (0 = Typed, 1 = Geth, 2 = Trezor) {mode}{v}{r}{s}.\n   */\n  function submitBet(\n    address[5] _subjects,\n    uint[4] _params,\n    uint _nonce,\n    bytes _payload,\n    bytes _signature\n  )\n    external\n  {\n    BetLib.Bet memory _bet = BetLib.generate(_subjects, _params, _nonce, _payload);\n    bytes32 _hash = BetLib.hash(_bet, DOMAIN_SEPARATOR);\n\n    _authenticateBet(_bet, _hash, _signature);\n    _authorizeBet(_bet);\n    _validateBet(_bet);\n    _processBet(_bet, _hash);\n\n    emit LogBetSubmitted(\n      _hash,\n      _bet.backer,\n      _bet.layer,\n      [_bet.token, _bet.league, _bet.resolver],\n      [_bet.backerStake, _bet.fixture, _bet.odds, _bet.expiration],\n      _nonce,\n      _payload\n    );\n  }\n\n  /**\n   * @notice Claims a bet, transfers tokens and fees based on fixture resolution\n   * @param _subjects Subjects associated with bet\n   * @param _params Parameters associated with bet\n   * @param _nonce Nonce, to ensure hash uniqueness\n   * @param _payload Payload for resolver\n   */\n  function claimBet(address[5] _subjects, uint[4] _params, uint _nonce, bytes _payload) external {\n    BetLib.Bet memory _bet = BetLib.generate(_subjects, _params, _nonce, _payload);\n    bytes32 _hash = BetLib.hash(_bet, DOMAIN_SEPARATOR);\n\n    require(unclaimed[_hash], \"Bet with given parameters either claimed or never submitted\");\n\n    uint _result = _getResult(_bet.league, _bet.resolver, _bet.fixture, _payload);\n    _processClaim(_bet, _hash, _result);\n\n    emit LogBetClaimed(_hash, _result);\n  }\n\n  /**\n   * @notice Gets the bet result\n   * @param _league Address of league\n   * @param _resolver Address of resolver\n   * @param _fixture Id of fixture\n   * @param _payload Payload for resolver\n   * @return uint between 1 and 5 (check IResolver for details) or 0 (for unresolved fixtures)\n   */\n  function getResult(address _league, address _resolver, uint _fixture, bytes _payload)\n    external\n    view\n    returns (uint)\n  {\n    return _getResult(_league, _resolver, _fixture, _payload);\n  }\n\n  /**\n   * @notice Gets all the bet identifiers for address `_subject`\n   * @param _subject Address of a layer or backer\n   * @return Returns list of bet ids for backer / layer `_subject`\n   */\n  function getBetsBySubject(address _subject) external view returns (bytes32[]) {\n    return bets[_subject];\n  }\n\n  /**\n   * @dev Throws if any of the following checks fail\n   *  + `msg.sender` is `_bet.layer`\n   *  + `msg.sender` is not `_bet.backer`\n   *  + `_bet.backer` has signed `_hash`\n   *  + `_hash` is unique (preventing replay attacks)\n   * @param _bet Bet struct\n   * @param _hash EIP712 complaint hash of _bet\n   * @param _signature ECDSA signature along with the mode\n   */\n  function _authenticateBet(BetLib.Bet memory _bet, bytes32 _hash, bytes _signature)\n    internal\n    view\n  {\n    require(\n      msg.sender == _bet.layer,\n      \"Bet is not permitted for the msg.sender to take\"\n    );\n    require(\n      _bet.backer != address(0) && _bet.backer != msg.sender,\n      \"Bet is not permitted for the msg.sender to take\"\n    );\n    require(\n      !(claimed[_hash] || unclaimed[_hash]),\n      \"Bet with same hash been submitted before\"\n    );\n    require(\n      SignatureLib.isValidSignature(_hash, _bet.backer, _signature),\n      \"Tx is sent with an invalid signature\"\n    );\n  }\n\n  /**\n   * @dev Throws if any of the following checks fail\n   *  + `address(this)` is an approved spender by both backer and layer\n   *  + `_bet.backer` has appropriate amount staked in vault\n   *  + `_bet.layer` has appropriate amount staked in vault\n   * @param _bet Bet struct\n   */\n  function _authorizeBet(BetLib.Bet memory _bet) internal view {\n    IVault _vault = IVault(registry.getAddress(\"FanVault\"));\n\n    require(\n      _vault.isApproved(_bet.backer, address(this)),\n      \"Backer has not approved BetManager to move funds in Vault\"\n    );\n    require(\n      _vault.isApproved(_bet.layer, address(this)),\n      \"Layer has not approved BetManager to move funds in Vault\"\n    );\n    require(\n      _vault.balanceOf(_bet.token, _bet.backer) >= _bet.backerStake,\n      \"Backer does not have sufficient tokens\"\n    );\n    require(\n      _vault.balanceOf(_bet.token, _bet.layer) >= BetLib.backerReturn(_bet, ODDS_DECIMALS),\n      \"Layer does not have sufficient tokens\"\n    );\n  }\n\n  /**\n   * @dev Throws if any of the following checks fail\n   *  + `_bet.league` is a registered league with FansUnite\n   *  + `_bet.resolver` is registered with league\n   *  + `_bet.fixture` is scheduled with league\n   *  + `_bet.resolver` is not resolved for `_bet.fixture`\n   *  + `_bet.backerStake` must belong to set +\n   *  + `_bet.odds` must belong to set +\n   *  + `_bet.expiration` is greater than `now`\n   *  + `_bet.payload` is valid according to resolver\n   * @param _bet Bet struct\n   */\n  function _validateBet(BetLib.Bet memory _bet) internal view {\n    address _leagueRegistry = registry.getAddress(\"LeagueRegistry\");\n    address _resolverRegistry = registry.getAddress(\"ResolverRegistry\");\n    ILeague _league = ILeague(_bet.league);\n\n    require(\n      ILeagueRegistry(_leagueRegistry).isLeagueRegistered(_bet.league),\n      \"League is not registered with FansUnite\"\n    );\n    require(\n      IResolverRegistry(_resolverRegistry).isResolverUsed(_bet.league, _bet.resolver),\n      \"Resolver is not usable with league\"\n    );\n    require(\n      _league.isFixtureScheduled(_bet.fixture),\n      \"Fixture is not scheduled with League\"\n    );\n    require(\n      _league.isFixtureResolved(_bet.fixture, _bet.resolver) != 1,\n      \"Fixture is already resolved\"\n    );\n    require(\n      _bet.backerStake > 0,\n      \"Stake does not belong to set +\"\n    );\n    require(\n      _bet.odds > 0,\n      \"Odds does not belong to set +\"\n    );\n    require(\n      _bet.expiration > block.timestamp,\n      \"Bet has expired\"\n    );\n\n    __validatePayload(_bet);\n\n  }\n\n  /**\n   * @dev Processes the funds and stores the bet\n   * @param _bet Bet struct\n   * @param _hash EIP712 complaint hash of _bet\n   */\n  function _processBet(BetLib.Bet memory _bet, bytes32 _hash) internal {\n    IVault _vault = IVault(registry.getAddress(\"FanVault\"));\n    uint _backerStake = _bet.backerStake;\n    uint _layerStake = BetLib.backerReturn(_bet, ODDS_DECIMALS);\n\n    unclaimed[_hash] = true;\n\n    bets[_bet.backer].push(_hash);\n    bets[msg.sender].push(_hash);\n\n    require(\n      _vault.transferFrom(_bet.token, _bet.backer, address(this), _backerStake),\n      \"Cannot transfer backer's stake to pool\"\n    );\n\n    require(\n      _vault.transferFrom(_bet.token, _bet.layer, address(this), _layerStake),\n      \"Cannot transfer layer's stake to pool\"\n    );\n  }\n\n  /**\n   * @dev Processes the funds based on result\n   * @param _bet Bet struct\n   * @param _hash EIP712 complaint hash of _bet\n   * @param _result Result of the bet\n   */\n  function _processClaim(BetLib.Bet memory _bet, bytes32 _hash, uint _result) internal {\n    bool _expired = ILeague(_bet.league).getFixtureStart(_bet.fixture) + 7 days <= block.timestamp;\n    require(_result > 0 || _expired, \"Bet cannot be resolved yet\");\n\n    unclaimed[_hash] = false;\n    claimed[_hash] = true;\n\n    if (_result == 0) __processRevert(_bet);\n    else if (_result == 1) __processLose(_bet);\n    else if (_result == 2) __processWin(_bet);\n    else if (_result == 3) __processHalfLose(_bet);\n    else if (_result == 4) __processHalfWin(_bet);\n    else if (_result == 5) __processPush(_bet);\n    else __processFallBack(_bet);\n  }\n\n\n  /**\n   * @notice Gets the bet result\n   * @param _league Address of league\n   * @param _resolver Address of resolver\n   * @param _fixture Id of fixture\n   * @param _payload Payload for resolver\n   * @return uint between 1 and 5 (check IResolver for details) or 0 (for unresolved fixtures)\n   */\n  function _getResult(address _league, address _resolver, uint _fixture, bytes _payload)\n    internal\n    view\n    returns (uint)\n  {\n    if (ILeague(_league).isFixtureResolved(_fixture, _resolver) != 1) return 0;\n\n    bytes memory _resolution = ILeague(_league).getResolution(_fixture, _resolver);\n    return __getResult(_league, _resolver, _fixture, _payload, _resolution);\n  }\n\n  /**\n   * @dev Throws if `_payload` is not valid\n   * @param _bet Bet struct\n   */\n  function __validatePayload(BetLib.Bet memory _bet) private view {\n    bool _isPayloadValid;\n    address _resolver = _bet.resolver;\n    address _league = _bet.league;\n    uint256 _fixture = _bet.fixture;\n    bytes4 _selector = IResolver(_resolver).getValidatorSelector();\n    bytes memory _payload = _bet.payload;\n\n    assembly {\n      let _plen := mload(_payload)               // _plen = length of _payload\n      let _tlen := add(_plen, 0x44)              // _tlen = total length of calldata\n      let _p    := add(_payload, 0x20)           // _p    = encoded bytes of _payload\n\n      let _ptr   := mload(0x40)                  // _ptr   = free memory pointer\n      let _index := mload(0x40)                  // _index = same as _ptr\n      mstore(0x40, add(_ptr, _tlen))             // update free memory pointer\n\n      mstore(_index, _selector)                  // store selector at _index\n      _index := add(_index, 0x04)                // _index = _index + 0x04\n      _index := add(_index, 0x0C)                // _index = _index + 0x0C\n      mstore(_index, _league)                    // store address at _index\n      _index := add(_index, 0x14)                // _index = _index + 0x14\n      mstore(_index, _fixture)                   // store _fixture at _index\n      _index := add(_index, 0x20)                // _index = _index + 0x20\n\n      for\n      { let _end := add(_p, _plen) }             // init: _end = _p + _plen\n      lt(_p, _end)                               // cond: _p < _end\n      { _p := add(_p, 0x20) }                    // incr: _p = _p + 0x20\n      {\n        mstore(_index, mload(_p))                // store _p to _index\n        _index := add(_index, 0x20)              // _index = _index + 0x20\n      }\n\n      let result := staticcall(30000, _resolver, _ptr, _tlen, _ptr, 0x20)\n\n      switch result\n      case 0 {\n        // revert(_ptr, 0x20) dealt with outside of assembly\n        _isPayloadValid := mload(_ptr)\n      }\n      default {\n        _isPayloadValid := mload(_ptr)\n      }\n    }\n\n    require(\n      _isPayloadValid,\n      \"Bet payload is not valid\"\n    );\n  }\n\n  /**\n   * @dev Gets the bet result based on arguments\n   * @param __league Address of league\n   * @param __resolver Address of resolver\n   * @param __fixture Id of fixture\n   * @param __payload bet payload encoded function parameters\n   * @param __resolution resolution encoded function parameters\n   * @return uint between 1 and 5 (check IResolver for details) or 0 (for failed call)\n   */\n  function __getResult(\n    address __league,\n    address __resolver,\n    uint __fixture,\n    bytes __payload,\n    bytes __resolution\n  )\n    private\n    view\n    returns (uint)\n  {\n    uint _result;\n    bytes4 _selector = IResolver(_resolver).getInitSelector();\n    address _league = __league;\n    address _resolver = __resolver;\n    uint _fixture = __fixture;\n    bytes memory _payload = __payload;\n    bytes memory _resolution = __resolution;\n\n    assembly {\n      let _plen := mload(_payload)               // _plen = length of _payload\n      let _rlen := mload(_resolution)            // _rlen = length of _resolution\n      let _tlen := add(_rlen, add(_plen, 0x44))  // _tlen = total length of calldata\n      let _p    := add(_payload, 0x20)           // _p    = encoded bytes of _payload\n      let _r    := add(_payload, 0x20)           // _r    = encoded bytes of _resolution\n\n      let _ptr   := mload(0x40)                  // _ptr   = free memory pointer\n      let _index := mload(0x40)                  // _index = same as _ptr\n      mstore(0x40, add(_ptr, _tlen))             // update free memory pointer\n\n      mstore(_index, _selector)                  // store selector at _index\n      _index := add(_index, 0x04)                // _index = _index + 0x04\n      _index := add(_index, 0x0C)                // _index = _index + 0x0C\n      mstore(_index, _league)                    // store address at _index\n      _index := add(_index, 0x14)                // _index = _index + 0x14\n      mstore(_index, _fixture)                   // store _fixture at _index\n      _index := add(_index, 0x20)                // _index = _index + 0x20\n\n      for\n      { let _end := add(_p, _plen) }             // init: _end = _p + _plen\n      lt(_p, _end)                               // cond: _p < _end\n      { _p := add(_p, 0x20) }                    // incr: _p = _p + 0x20\n      {\n        mstore(_index, mload(_p))                // store _p to _index\n        _index := add(_index, 0x20)              // _index = _index + 0x20\n      }\n\n      for\n      { let _end := add(_r, _rlen) }                 // init: _end = _r + _rlen\n      lt(_r, _end)                               // cond: _r < _end\n      { _r := add(_r, 0x20) }                    // incr: _r = _r + 0x20\n      {\n        mstore(_index, mload(_r))                // store _r to _index\n        _index := add(_index, 0x20)              // _index = _index + 0x20\n      }\n\n      let result := staticcall(30000, _resolver, _ptr, _tlen, _ptr, 0x20)\n\n      switch result\n      case 0 {\n        // Nothing here\n      }\n      default {\n        _result := mload(_ptr)\n      }\n    }\n\n    return _result;\n  }\n\n  /**\n   * @dev Processes the funds back to owners\n   * @param _bet Bet struct\n   */\n  function __processRevert(BetLib.Bet memory _bet) private {\n    IVault _vault = IVault(registry.getAddress(\"FanVault\"));\n    uint _backerStake = _bet.backerStake;\n    uint _layerStake = BetLib.backerReturn(_bet, ODDS_DECIMALS);\n\n    require(\n      _vault.transfer(_bet.token, _bet.backer, _backerStake),\n      \"Cannot transfer stake from pool\"\n    );\n\n    require(\n      _vault.transfer(_bet.token, _bet.layer, _layerStake),\n      \"Cannot transfer stake from pool\"\n    );\n  }\n\n  /**\n   * @dev Processes funds when backer loses\n   * @param _bet Bet struct\n   */\n  function __processLose(BetLib.Bet memory _bet) private {\n    IVault _vault = IVault(registry.getAddress(\"FanVault\"));\n    address _consensusManager = registry.getAddress(\"ConsensusManager\");\n\n    uint _backerStake = _bet.backerStake;\n    uint _layerStake = BetLib.backerReturn(_bet, ODDS_DECIMALS);\n\n    uint _totalStakeBeforeFee = _backerStake.add(_layerStake);\n    uint _oracleFee = _totalStakeBeforeFee.div(ORACLE_FEE);\n    uint _totalStakeAfterFee = _totalStakeBeforeFee.sub(_oracleFee);\n\n    require(\n      _vault.transfer(_bet.token, _bet.layer, _totalStakeAfterFee),\n      \"Cannot transfer stake from pool\"\n    );\n\n    require(\n      _vault.transfer(_bet.token, _consensusManager, _oracleFee),\n      \"Cannot transfer stake from pool\"\n    );\n  }\n\n  /**\n   * @dev Processes funds when backer wins\n   * @param _bet Bet struct\n   */\n  function __processWin(BetLib.Bet memory _bet) private {\n    IVault _vault = IVault(registry.getAddress(\"FanVault\"));\n    address _consensusManager = registry.getAddress(\"ConsensusManager\");\n\n    uint _backerStake = _bet.backerStake;\n    uint _layerStake = BetLib.backerReturn(_bet, ODDS_DECIMALS);\n\n    uint _totalStakeBeforeFee = _backerStake.add(_layerStake);\n    uint _oracleFee = _totalStakeBeforeFee.div(ORACLE_FEE);\n    uint _totalStakeAfterFee = _totalStakeBeforeFee.sub(_oracleFee);\n\n    require(\n      _vault.transfer(_bet.token, _bet.backer, _totalStakeAfterFee),\n      \"Cannot transfer stake from pool\"\n    );\n\n    require(\n      _vault.transfer(_bet.token, _consensusManager, _oracleFee),\n      \"Cannot transfer stake from pool\"\n    );\n  }\n\n  /**\n   * @dev Processes funds when backer half loses bet\n   * @param _bet Bet struct\n   */\n  function __processHalfLose(BetLib.Bet memory _bet) private {\n    IVault _vault = IVault(registry.getAddress(\"FanVault\"));\n    address _consensusManager = registry.getAddress(\"ConsensusManager\");\n\n    uint _backerStakeBeforeFee = _bet.backerStake;\n    uint _layerStakeBeforeFee = BetLib.backerReturn(_bet, ODDS_DECIMALS);\n\n    uint _backerOracleFee = _backerStakeBeforeFee.div(ORACLE_FEE);\n    uint _layerOracleFee = _layerStakeBeforeFee.div(ORACLE_FEE);\n\n    uint _backerReturnBeforeFee = _backerStakeBeforeFee.div(2);\n    uint _layerReturnBeforeFee = _layerStakeBeforeFee.add(_backerReturnBeforeFee);\n\n    uint _backerReturnAfterFee = _backerReturnBeforeFee.sub(_backerOracleFee);\n    uint _layerReturnAfterFee = _layerReturnBeforeFee.sub(_layerOracleFee);\n\n    uint _oracleFee = _backerOracleFee.add(_layerOracleFee);\n\n    require(\n      _vault.transfer(_bet.token, _bet.backer, _backerReturnAfterFee),\n      \"Cannot transfer stake from pool\"\n    );\n\n    require(\n      _vault.transfer(_bet.token, _bet.layer, _layerReturnAfterFee),\n      \"Cannot transfer stake from pool\"\n    );\n\n    require(\n      _vault.transfer(_bet.token, _consensusManager, _oracleFee),\n      \"Cannot transfer stake from pool\"\n    );\n\n  }\n\n  /**\n   * @dev Processes funds when backer half wins bet\n   * @param _bet Bet struct\n   */\n  function __processHalfWin(BetLib.Bet memory _bet) private {\n    IVault _vault = IVault(registry.getAddress(\"FanVault\"));\n    address _consensusManager = registry.getAddress(\"ConsensusManager\");\n\n    uint _backerStakeBeforeFee = _bet.backerStake;\n    uint _layerStakeBeforeFee = BetLib.backerReturn(_bet, ODDS_DECIMALS);\n\n    uint _backerOracleFee = _backerStakeBeforeFee.div(ORACLE_FEE);\n    uint _layerOracleFee = _layerStakeBeforeFee.div(ORACLE_FEE);\n\n    uint _layerReturnBeforeFee = _layerStakeBeforeFee.div(2);\n    uint _backerReturnBeforeFee = _backerStakeBeforeFee.add(_layerReturnBeforeFee);\n\n    uint _backerReturnAfterFee = _backerReturnBeforeFee.sub(_backerOracleFee);\n    uint _layerReturnAfterFee = _layerReturnBeforeFee.sub(_layerOracleFee);\n\n    uint _oracleFee = _backerOracleFee.add(_layerOracleFee);\n\n    require(\n      _vault.transfer(_bet.token, _bet.backer, _backerReturnAfterFee),\n      \"Cannot transfer stake from pool\"\n    );\n\n    require(\n      _vault.transfer(_bet.token, _bet.layer, _layerReturnAfterFee),\n      \"Cannot transfer stake from pool\"\n    );\n\n    require(\n      _vault.transfer(_bet.token, _consensusManager, _oracleFee),\n      \"Cannot transfer stake from pool\"\n    );\n  }\n\n  /**\n   * @dev Processes funds when bet results in push\n   * @param _bet Bet struct\n   */\n  function __processPush(BetLib.Bet memory _bet) private {\n    IVault _vault = IVault(registry.getAddress(\"FanVault\"));\n    address _consensusManager = registry.getAddress(\"ConsensusManager\");\n\n    uint _backerStakeBeforeFee = _bet.backerStake;\n    uint _layerStakeBeforeFee = BetLib.backerReturn(_bet, ODDS_DECIMALS);\n\n    uint _backerOracleFee = _backerStakeBeforeFee.div(ORACLE_FEE);\n    uint _layerOracleFee = _layerStakeBeforeFee.div(ORACLE_FEE);\n\n    uint _backerStakeAfterFee = _backerStakeBeforeFee.sub(_backerOracleFee);\n    uint _layerStakeAfterFee = _layerStakeBeforeFee.sub(_layerOracleFee);\n\n    uint _oracleFee = _backerOracleFee.add(_layerOracleFee);\n\n    require(\n      _vault.transfer(_bet.token, _bet.backer, _backerStakeAfterFee),\n      \"Cannot transfer stake from pool\"\n    );\n\n    require(\n      _vault.transfer(_bet.token, _bet.layer, _layerStakeAfterFee),\n      \"Cannot transfer stake from pool\"\n    );\n\n    require(\n      _vault.transfer(_bet.token, _consensusManager, _oracleFee),\n      \"Cannot transfer stake from pool\"\n    );\n  }\n\n  /**\n   * @dev Processes funds in case of a fall back\n   * @param _bet Bet struct\n   */\n  function __processFallBack(BetLib.Bet memory _bet) private {\n    IVault _vault = IVault(registry.getAddress(\"FanVault\"));\n    address _fanOrg = registry.getAddress(\"FanOrg\");\n\n    uint _backerStake = _bet.backerStake;\n    uint _layerStake = BetLib.backerReturn(_bet, ODDS_DECIMALS);\n    uint _totalStake = _backerStake.add(_layerStake);\n\n    require(\n      _vault.transfer(_bet.token, _fanOrg, _totalStake),\n      \"Cannot transfer stake from pool\"\n    );\n  }\n\n}\n",
  "sourcePath": "/Users/ryancimoszko/fu/fansunite-js/node_modules/fansunite-core/contracts/BetManager.sol",
  "compiler": {
    "name": "solc",
    "version": "0.4.24+commit.e67f0147.Emscripten.clang"
  },
  "schemaVersion": "2.0.1",
  "updatedAt": "2019-01-03T23:57:26.947Z"
}