{
  "contractName": "FanToken",
  "abi": [
    {
      "constant": true,
      "inputs": [],
      "name": "mintingFinished",
      "outputs": [
        {
          "name": "",
          "type": "bool"
        }
      ],
      "payable": false,
      "stateMutability": "view",
      "type": "function"
    },
    {
      "constant": true,
      "inputs": [],
      "name": "name",
      "outputs": [
        {
          "name": "",
          "type": "string"
        }
      ],
      "payable": false,
      "stateMutability": "view",
      "type": "function"
    },
    {
      "constant": false,
      "inputs": [
        {
          "name": "spender",
          "type": "address"
        },
        {
          "name": "value",
          "type": "uint256"
        }
      ],
      "name": "approve",
      "outputs": [
        {
          "name": "",
          "type": "bool"
        }
      ],
      "payable": false,
      "stateMutability": "nonpayable",
      "type": "function"
    },
    {
      "constant": true,
      "inputs": [],
      "name": "totalSupply",
      "outputs": [
        {
          "name": "",
          "type": "uint256"
        }
      ],
      "payable": false,
      "stateMutability": "view",
      "type": "function"
    },
    {
      "constant": false,
      "inputs": [
        {
          "name": "from",
          "type": "address"
        },
        {
          "name": "to",
          "type": "address"
        },
        {
          "name": "value",
          "type": "uint256"
        }
      ],
      "name": "transferFrom",
      "outputs": [
        {
          "name": "",
          "type": "bool"
        }
      ],
      "payable": false,
      "stateMutability": "nonpayable",
      "type": "function"
    },
    {
      "constant": true,
      "inputs": [],
      "name": "decimals",
      "outputs": [
        {
          "name": "",
          "type": "uint8"
        }
      ],
      "payable": false,
      "stateMutability": "view",
      "type": "function"
    },
    {
      "constant": true,
      "inputs": [],
      "name": "cap",
      "outputs": [
        {
          "name": "",
          "type": "uint256"
        }
      ],
      "payable": false,
      "stateMutability": "view",
      "type": "function"
    },
    {
      "constant": false,
      "inputs": [
        {
          "name": "spender",
          "type": "address"
        },
        {
          "name": "addedValue",
          "type": "uint256"
        }
      ],
      "name": "increaseAllowance",
      "outputs": [
        {
          "name": "",
          "type": "bool"
        }
      ],
      "payable": false,
      "stateMutability": "nonpayable",
      "type": "function"
    },
    {
      "constant": false,
      "inputs": [
        {
          "name": "to",
          "type": "address"
        },
        {
          "name": "amount",
          "type": "uint256"
        }
      ],
      "name": "mint",
      "outputs": [
        {
          "name": "",
          "type": "bool"
        }
      ],
      "payable": false,
      "stateMutability": "nonpayable",
      "type": "function"
    },
    {
      "constant": true,
      "inputs": [
        {
          "name": "owner",
          "type": "address"
        }
      ],
      "name": "balanceOf",
      "outputs": [
        {
          "name": "",
          "type": "uint256"
        }
      ],
      "payable": false,
      "stateMutability": "view",
      "type": "function"
    },
    {
      "constant": false,
      "inputs": [],
      "name": "finishMinting",
      "outputs": [
        {
          "name": "",
          "type": "bool"
        }
      ],
      "payable": false,
      "stateMutability": "nonpayable",
      "type": "function"
    },
    {
      "constant": true,
      "inputs": [],
      "name": "symbol",
      "outputs": [
        {
          "name": "",
          "type": "string"
        }
      ],
      "payable": false,
      "stateMutability": "view",
      "type": "function"
    },
    {
      "constant": false,
      "inputs": [
        {
          "name": "account",
          "type": "address"
        }
      ],
      "name": "addMinter",
      "outputs": [],
      "payable": false,
      "stateMutability": "nonpayable",
      "type": "function"
    },
    {
      "constant": false,
      "inputs": [],
      "name": "renounceMinter",
      "outputs": [],
      "payable": false,
      "stateMutability": "nonpayable",
      "type": "function"
    },
    {
      "constant": false,
      "inputs": [
        {
          "name": "spender",
          "type": "address"
        },
        {
          "name": "subtractedValue",
          "type": "uint256"
        }
      ],
      "name": "decreaseAllowance",
      "outputs": [
        {
          "name": "",
          "type": "bool"
        }
      ],
      "payable": false,
      "stateMutability": "nonpayable",
      "type": "function"
    },
    {
      "constant": false,
      "inputs": [
        {
          "name": "to",
          "type": "address"
        },
        {
          "name": "value",
          "type": "uint256"
        }
      ],
      "name": "transfer",
      "outputs": [
        {
          "name": "",
          "type": "bool"
        }
      ],
      "payable": false,
      "stateMutability": "nonpayable",
      "type": "function"
    },
    {
      "constant": true,
      "inputs": [
        {
          "name": "account",
          "type": "address"
        }
      ],
      "name": "isMinter",
      "outputs": [
        {
          "name": "",
          "type": "bool"
        }
      ],
      "payable": false,
      "stateMutability": "view",
      "type": "function"
    },
    {
      "constant": true,
      "inputs": [
        {
          "name": "owner",
          "type": "address"
        },
        {
          "name": "spender",
          "type": "address"
        }
      ],
      "name": "allowance",
      "outputs": [
        {
          "name": "",
          "type": "uint256"
        }
      ],
      "payable": false,
      "stateMutability": "view",
      "type": "function"
    },
    {
      "inputs": [],
      "payable": false,
      "stateMutability": "nonpayable",
      "type": "constructor"
    },
    {
      "anonymous": false,
      "inputs": [],
      "name": "MintingFinished",
      "type": "event"
    },
    {
      "anonymous": false,
      "inputs": [
        {
          "indexed": true,
          "name": "account",
          "type": "address"
        }
      ],
      "name": "MinterAdded",
      "type": "event"
    },
    {
      "anonymous": false,
      "inputs": [
        {
          "indexed": true,
          "name": "account",
          "type": "address"
        }
      ],
      "name": "MinterRemoved",
      "type": "event"
    },
    {
      "anonymous": false,
      "inputs": [
        {
          "indexed": true,
          "name": "from",
          "type": "address"
        },
        {
          "indexed": true,
          "name": "to",
          "type": "address"
        },
        {
          "indexed": false,
          "name": "value",
          "type": "uint256"
        }
      ],
      "name": "Transfer",
      "type": "event"
    },
    {
      "anonymous": false,
      "inputs": [
        {
          "indexed": true,
          "name": "owner",
          "type": "address"
        },
        {
          "indexed": true,
          "name": "spender",
          "type": "address"
        },
        {
          "indexed": false,
          "name": "value",
          "type": "uint256"
        }
      ],
      "name": "Approval",
      "type": "event"
    }
  ],
  "bytecode": "0x60806040526007805460ff1916905534801561001a57600080fd5b50604080518082018252600f81527f46616e73556e69746520546f6b656e000000000000000000000000000000000060208083019182528351808501909452600384527f46414e00000000000000000000000000000000000000000000000000000000009084015281516b033b2e3c9fd0803ce800000093916012916100a291600091610135565b5081516100b6906001906020850190610135565b506002805460ff191660ff92909216919091179055506100e690506006336401000000006100fb8102610a731704565b600081116100f357600080fd5b6008556101d0565b600160a060020a038116151561011057600080fd5b600160a060020a0316600090815260209190915260409020805460ff19166001179055565b828054600181600116156101000203166002900490600052602060002090601f016020900481019282601f1061017657805160ff19168380011785556101a3565b828001600101855582156101a3579182015b828111156101a3578251825591602001919060010190610188565b506101af9291506101b3565b5090565b6101cd91905b808211156101af57600081556001016101b9565b90565b610bf380620001e06000396000f3006080604052600436106100fb5763ffffffff7c010000000000000000000000000000000000000000000000000000000060003504166305d2035b811461010057806306fdde0314610129578063095ea7b3146101b357806318160ddd146101d757806323b872dd146101fe578063313ce56714610228578063355274ea14610253578063395093511461026857806340c10f191461028c57806370a08231146102b05780637d64bcb4146102d157806395d89b41146102e6578063983b2d56146102fb578063986502751461031e578063a457c2d714610333578063a9059cbb14610357578063aa271e1a1461037b578063dd62ed3e1461039c575b600080fd5b34801561010c57600080fd5b506101156103c3565b604080519115158252519081900360200190f35b34801561013557600080fd5b5061013e6103cc565b6040805160208082528351818301528351919283929083019185019080838360005b83811015610178578181015183820152602001610160565b50505050905090810190601f1680156101a55780820380516001836020036101000a031916815260200191505b509250505060405180910390f35b3480156101bf57600080fd5b50610115600160a060020a0360043516602435610462565b3480156101e357600080fd5b506101ec6104e0565b60408051918252519081900360200190f35b34801561020a57600080fd5b50610115600160a060020a03600435811690602435166044356104e6565b34801561023457600080fd5b5061023d61065d565b6040805160ff9092168252519081900360200190f35b34801561025f57600080fd5b506101ec610666565b34801561027457600080fd5b50610115600160a060020a036004351660243561066c565b34801561029857600080fd5b50610115600160a060020a036004351660243561071c565b3480156102bc57600080fd5b506101ec600160a060020a0360043516610755565b3480156102dd57600080fd5b50610115610770565b3480156102f257600080fd5b5061013e6107d2565b34801561030757600080fd5b5061031c600160a060020a0360043516610832565b005b34801561032a57600080fd5b5061031c61088e565b34801561033f57600080fd5b50610115600160a060020a03600435166024356108a1565b34801561036357600080fd5b50610115600160a060020a03600435166024356108ec565b34801561038757600080fd5b50610115600160a060020a03600435166109cd565b3480156103a857600080fd5b506101ec600160a060020a03600435811690602435166109e6565b60075460ff1690565b60008054604080516020601f60026000196101006001881615020190951694909404938401819004810282018101909252828152606093909290918301828280156104585780601f1061042d57610100808354040283529160200191610458565b820191906000526020600020905b81548152906001019060200180831161043b57829003601f168201915b5050505050905090565b6000600160a060020a038316151561047957600080fd5b336000818152600460209081526040808320600160a060020a03881680855290835292819020869055805186815290519293927f8c5be1e5ebec7d5bd14f71427d1e84f3dd0314c0f7b2291e5b200ac8c7c3b925929181900390910190a350600192915050565b60055490565b600160a060020a03831660009081526003602052604081205482111561050b57600080fd5b600160a060020a038416600090815260046020908152604080832033845290915290205482111561053b57600080fd5b600160a060020a038316151561055057600080fd5b600160a060020a038416600090815260036020526040902054610579908363ffffffff610a1116565b600160a060020a0380861660009081526003602052604080822093909355908516815220546105ae908363ffffffff610a2816565b600160a060020a0380851660009081526003602090815260408083209490945591871681526004825282812033825290915220546105f2908363ffffffff610a1116565b600160a060020a03808616600081815260046020908152604080832033845282529182902094909455805186815290519287169391927fddf252ad1be2c89b69c2b068fc378daa952ba7f163c4a11628f55a4df523b3ef929181900390910190a35060019392505050565b60025460ff1690565b60085490565b6000600160a060020a038316151561068357600080fd5b336000908152600460209081526040808320600160a060020a03871684529091529020546106b7908363ffffffff610a2816565b336000818152600460209081526040808320600160a060020a0389168085529083529281902085905580519485525191937f8c5be1e5ebec7d5bd14f71427d1e84f3dd0314c0f7b2291e5b200ac8c7c3b925929081900390910190a350600192915050565b60006008546107398361072d6104e0565b9063ffffffff610a2816565b111561074457600080fd5b61074e8383610a3a565b9392505050565b600160a060020a031660009081526003602052604090205490565b600061077b336109cd565b151561078657600080fd5b60075460ff161561079657600080fd5b6007805460ff191660011790556040517fb828d9b5c78095deeeeff2eca2e5d4fe046ce3feb4c99702624a3fd384ad2dbc90600090a150600190565b60018054604080516020601f600260001961010087891615020190951694909404938401819004810282018101909252828152606093909290918301828280156104585780601f1061042d57610100808354040283529160200191610458565b61083b336109cd565b151561084657600080fd5b61085760068263ffffffff610a7316565b604051600160a060020a038216907f6ae172837ea30b801fbfcdd4108aa1d5bf8ff775444fd70256b44e6bf3dfc3f690600090a250565b61089f60063363ffffffff610aad16565b565b6000600160a060020a03831615156108b857600080fd5b336000908152600460209081526040808320600160a060020a03871684529091529020546106b7908363ffffffff610a1116565b3360009081526003602052604081205482111561090857600080fd5b600160a060020a038316151561091d57600080fd5b3360009081526003602052604090205461093d908363ffffffff610a1116565b3360009081526003602052604080822092909255600160a060020a0385168152205461096f908363ffffffff610a2816565b600160a060020a0384166000818152600360209081526040918290209390935580518581529051919233927fddf252ad1be2c89b69c2b068fc378daa952ba7f163c4a11628f55a4df523b3ef9281900390910190a350600192915050565b60006109e060068363ffffffff610ae416565b92915050565b600160a060020a03918216600090815260046020908152604080832093909416825291909152205490565b60008083831115610a2157600080fd5b5050900390565b60008282018381101561074e57600080fd5b6000610a45336109cd565b1515610a5057600080fd5b60075460ff1615610a6057600080fd5b610a6a8383610b1b565b50600192915050565b600160a060020a0381161515610a8857600080fd5b600160a060020a0316600090815260209190915260409020805460ff19166001179055565b600160a060020a0381161515610ac257600080fd5b600160a060020a0316600090815260209190915260409020805460ff19169055565b6000600160a060020a0382161515610afb57600080fd5b50600160a060020a03166000908152602091909152604090205460ff1690565b600160a060020a0382161515610b3057600080fd5b600554610b43908263ffffffff610a2816565b600555600160a060020a038216600090815260036020526040902054610b6f908263ffffffff610a2816565b600160a060020a03831660008181526003602090815260408083209490945583518581529351929391927fddf252ad1be2c89b69c2b068fc378daa952ba7f163c4a11628f55a4df523b3ef9281900390910190a350505600a165627a7a72305820312e3bef3eb222e5c456a0fa381bb85adcb4f5320ad0ecc19f33c5285fc2ec7a0029",
  "source": "pragma solidity 0.4.24;\n\nimport \"openzeppelin-solidity/contracts/token/ERC20/ERC20Detailed.sol\";\nimport \"openzeppelin-solidity/contracts/token/ERC20/ERC20Capped.sol\";\n\ncontract FanToken is ERC20Detailed, ERC20Capped {\n\n  constructor()\n    public\n    ERC20Detailed(\"FansUnite Token\", \"FAN\", 18)\n    ERC20Capped(1000000000 * 10 ** 18)\n  {\n\n  }\n\n}\n",
  "sourcePath": "/Users/ryancimoszko/fu/fansunite-js/node_modules/@fansunite/fansunite-core/contracts/tokens/FanToken.sol",
  "compiler": {
    "name": "solc",
    "version": "0.4.24+commit.e67f0147.Emscripten.clang"
  },
  "schemaVersion": "2.0.1",
  "updatedAt": "2019-08-26T22:14:58.580Z"
}