{
  "contractName": "League001",
  "abi": [
    {
      "constant": true,
      "inputs": [],
      "name": "getName",
      "outputs": [
        {
          "name": "",
          "type": "string"
        }
      ],
      "payable": false,
      "stateMutability": "view",
      "type": "function"
    },
    {
      "constant": true,
      "inputs": [],
      "name": "getRegistryContract",
      "outputs": [
        {
          "name": "",
          "type": "address"
        }
      ],
      "payable": false,
      "stateMutability": "view",
      "type": "function"
    },
    {
      "constant": false,
      "inputs": [
        {
          "name": "_details",
          "type": "bytes"
        }
      ],
      "name": "setDetails",
      "outputs": [],
      "payable": false,
      "stateMutability": "nonpayable",
      "type": "function"
    },
    {
      "constant": true,
      "inputs": [],
      "name": "getClass",
      "outputs": [
        {
          "name": "",
          "type": "string"
        }
      ],
      "payable": false,
      "stateMutability": "view",
      "type": "function"
    },
    {
      "constant": false,
      "inputs": [],
      "name": "renounceOwnership",
      "outputs": [],
      "payable": false,
      "stateMutability": "nonpayable",
      "type": "function"
    },
    {
      "constant": true,
      "inputs": [],
      "name": "owner",
      "outputs": [
        {
          "name": "",
          "type": "address"
        }
      ],
      "payable": false,
      "stateMutability": "view",
      "type": "function"
    },
    {
      "constant": true,
      "inputs": [],
      "name": "isOwner",
      "outputs": [
        {
          "name": "",
          "type": "bool"
        }
      ],
      "payable": false,
      "stateMutability": "view",
      "type": "function"
    },
    {
      "constant": false,
      "inputs": [
        {
          "name": "newOwner",
          "type": "address"
        }
      ],
      "name": "transferOwnership",
      "outputs": [],
      "payable": false,
      "stateMutability": "nonpayable",
      "type": "function"
    },
    {
      "constant": true,
      "inputs": [],
      "name": "getDetails",
      "outputs": [
        {
          "name": "",
          "type": "bytes"
        }
      ],
      "payable": false,
      "stateMutability": "view",
      "type": "function"
    },
    {
      "inputs": [
        {
          "name": "_class",
          "type": "string"
        },
        {
          "name": "_name",
          "type": "string"
        },
        {
          "name": "_registry",
          "type": "address"
        },
        {
          "name": "_participantsPerFixture",
          "type": "uint256"
        }
      ],
      "payable": false,
      "stateMutability": "nonpayable",
      "type": "constructor"
    },
    {
      "anonymous": false,
      "inputs": [
        {
          "indexed": true,
          "name": "_year",
          "type": "uint256"
        }
      ],
      "name": "LogSeasonAdded",
      "type": "event"
    },
    {
      "anonymous": false,
      "inputs": [
        {
          "indexed": false,
          "name": "_id",
          "type": "uint256"
        }
      ],
      "name": "LogFixtureAdded",
      "type": "event"
    },
    {
      "anonymous": false,
      "inputs": [
        {
          "indexed": false,
          "name": "_id",
          "type": "uint256"
        }
      ],
      "name": "LogParticipantAdded",
      "type": "event"
    },
    {
      "anonymous": false,
      "inputs": [
        {
          "indexed": true,
          "name": "_fixtureId",
          "type": "uint256"
        },
        {
          "indexed": false,
          "name": "_resolver",
          "type": "address"
        },
        {
          "indexed": false,
          "name": "_payload",
          "type": "bytes"
        }
      ],
      "name": "LogFixtureResolved",
      "type": "event"
    },
    {
      "anonymous": false,
      "inputs": [
        {
          "indexed": true,
          "name": "previousOwner",
          "type": "address"
        }
      ],
      "name": "OwnershipRenounced",
      "type": "event"
    },
    {
      "anonymous": false,
      "inputs": [
        {
          "indexed": true,
          "name": "previousOwner",
          "type": "address"
        },
        {
          "indexed": true,
          "name": "newOwner",
          "type": "address"
        }
      ],
      "name": "OwnershipTransferred",
      "type": "event"
    },
    {
      "constant": false,
      "inputs": [
        {
          "name": "_fixture",
          "type": "uint256"
        },
        {
          "name": "_resolver",
          "type": "address"
        },
        {
          "name": "_payload",
          "type": "bytes"
        }
      ],
      "name": "pushResolution",
      "outputs": [],
      "payable": false,
      "stateMutability": "nonpayable",
      "type": "function"
    },
    {
      "constant": false,
      "inputs": [
        {
          "name": "_year",
          "type": "uint256"
        }
      ],
      "name": "addSeason",
      "outputs": [],
      "payable": false,
      "stateMutability": "nonpayable",
      "type": "function"
    },
    {
      "constant": false,
      "inputs": [
        {
          "name": "_season",
          "type": "uint256"
        },
        {
          "name": "_participants",
          "type": "uint256[]"
        },
        {
          "name": "_start",
          "type": "uint256"
        }
      ],
      "name": "scheduleFixture",
      "outputs": [],
      "payable": false,
      "stateMutability": "nonpayable",
      "type": "function"
    },
    {
      "constant": false,
      "inputs": [
        {
          "name": "_name",
          "type": "string"
        },
        {
          "name": "_details",
          "type": "bytes"
        }
      ],
      "name": "addParticipant",
      "outputs": [],
      "payable": false,
      "stateMutability": "nonpayable",
      "type": "function"
    },
    {
      "constant": true,
      "inputs": [
        {
          "name": "_fixture",
          "type": "uint256"
        },
        {
          "name": "_resolver",
          "type": "address"
        }
      ],
      "name": "getResolution",
      "outputs": [
        {
          "name": "",
          "type": "bytes"
        }
      ],
      "payable": false,
      "stateMutability": "view",
      "type": "function"
    },
    {
      "constant": true,
      "inputs": [],
      "name": "getSeasons",
      "outputs": [
        {
          "name": "",
          "type": "uint256[]"
        }
      ],
      "payable": false,
      "stateMutability": "view",
      "type": "function"
    },
    {
      "constant": true,
      "inputs": [
        {
          "name": "_year",
          "type": "uint256"
        }
      ],
      "name": "getSeason",
      "outputs": [
        {
          "name": "",
          "type": "uint256"
        },
        {
          "name": "",
          "type": "uint256[]"
        }
      ],
      "payable": false,
      "stateMutability": "view",
      "type": "function"
    },
    {
      "constant": true,
      "inputs": [
        {
          "name": "_fixture",
          "type": "uint256"
        }
      ],
      "name": "getFixtureStart",
      "outputs": [
        {
          "name": "",
          "type": "uint256"
        }
      ],
      "payable": false,
      "stateMutability": "view",
      "type": "function"
    },
    {
      "constant": true,
      "inputs": [
        {
          "name": "_id",
          "type": "uint256"
        }
      ],
      "name": "getFixture",
      "outputs": [
        {
          "name": "",
          "type": "uint256"
        },
        {
          "name": "",
          "type": "uint256[]"
        },
        {
          "name": "",
          "type": "uint256"
        }
      ],
      "payable": false,
      "stateMutability": "view",
      "type": "function"
    },
    {
      "constant": true,
      "inputs": [
        {
          "name": "_id",
          "type": "uint256"
        }
      ],
      "name": "getParticipant",
      "outputs": [
        {
          "name": "",
          "type": "uint256"
        },
        {
          "name": "",
          "type": "string"
        },
        {
          "name": "",
          "type": "bytes"
        }
      ],
      "payable": false,
      "stateMutability": "view",
      "type": "function"
    },
    {
      "constant": true,
      "inputs": [],
      "name": "getParticipantCount",
      "outputs": [
        {
          "name": "",
          "type": "uint256"
        }
      ],
      "payable": false,
      "stateMutability": "view",
      "type": "function"
    },
    {
      "constant": true,
      "inputs": [
        {
          "name": "_fixture",
          "type": "uint256"
        }
      ],
      "name": "isFixtureScheduled",
      "outputs": [
        {
          "name": "",
          "type": "bool"
        }
      ],
      "payable": false,
      "stateMutability": "view",
      "type": "function"
    },
    {
      "constant": true,
      "inputs": [
        {
          "name": "_fixture",
          "type": "uint256"
        },
        {
          "name": "_resolver",
          "type": "address"
        }
      ],
      "name": "isFixtureResolved",
      "outputs": [
        {
          "name": "",
          "type": "uint8"
        }
      ],
      "payable": false,
      "stateMutability": "view",
      "type": "function"
    },
    {
      "constant": true,
      "inputs": [
        {
          "name": "_participant",
          "type": "uint256"
        }
      ],
      "name": "isParticipant",
      "outputs": [
        {
          "name": "",
          "type": "bool"
        }
      ],
      "payable": false,
      "stateMutability": "view",
      "type": "function"
    },
    {
      "constant": true,
      "inputs": [
        {
          "name": "_participant",
          "type": "uint256"
        },
        {
          "name": "_fixture",
          "type": "uint256"
        }
      ],
      "name": "isParticipantScheduled",
      "outputs": [
        {
          "name": "",
          "type": "bool"
        }
      ],
      "payable": false,
      "stateMutability": "view",
      "type": "function"
    },
    {
      "constant": true,
      "inputs": [],
      "name": "getVersion",
      "outputs": [
        {
          "name": "",
          "type": "string"
        }
      ],
      "payable": false,
      "stateMutability": "view",
      "type": "function"
    }
  ],
  "bytecode": "0x60c0604052600560808190527f302e302e3100000000000000000000000000000000000000000000000000000060a09081526200003e919081620000ef565b503480156200004c57600080fd5b5060405162001faa38038062001faa83398101604090815281516020808401519284015160608501516000805433600160a060020a03199182161790915560018054909116600160a060020a038416179055928501805190959490940193909291859185918591620000c59160039190860190620000ef565b508151620000db906002906020850190620000ef565b505050600691909155506200019492505050565b828054600181600116156101000203166002900490600052602060002090601f016020900481019282601f106200013257805160ff191683800117855562000162565b8280016001018555821562000162579182015b828111156200016257825182559160200191906001019062000145565b506200017092915062000174565b5090565b6200019191905b808211156200017057600081556001016200017b565b90565b611e0680620001a46000396000f3006080604052600436106101485763ffffffff7c01000000000000000000000000000000000000000000000000000000006000350416630b5b0dfa811461014d5780630d8e6e2c146101765780630f36c47f14610200578063111953ac1461026557806317d7de7c146102915780631b9db2ef146102a65780632cb0a2e5146103a357806336ca3d73146103cd578063376111c2146103fe57806342813bcc1461042a5780634f26df4e1461046457806354d0940d1461048457806357e61ea4146104fe578063715018a6146105135780638da5cb5b146105285780638f32d59b1461053d57806393ffd67014610552578063a3c8f7391461056d578063a43d86541461059e578063ad60572914610611578063e239c95214610626578063e661d27b1461063e578063e78341e614610656578063f2fde38b1461067a578063fbbf93a01461069b575b600080fd5b34801561015957600080fd5b506101746004803590602480359081019101356044356106b0565b005b34801561018257600080fd5b5061018b610aa4565b6040805160208082528351818301528351919283929083019185019080838360005b838110156101c55781810151838201526020016101ad565b50505050905090810190601f1680156101f25780820380516001836020036101000a031916815260200191505b509250505060405180910390f35b34801561020c57600080fd5b50610215610b3b565b60408051602080825283518183015283519192839290830191858101910280838360005b83811015610251578181015183820152602001610239565b505050509050019250505060405180910390f35b34801561027157600080fd5b5061027d600435610b92565b604080519115158252519081900360200190f35b34801561029d57600080fd5b5061018b610ba3565b3480156102b257600080fd5b506102be600435610c01565b604051808481526020018060200180602001838103835285818151815260200191508051906020019080838360005b838110156103055781810151838201526020016102ed565b50505050905090810190601f1680156103325780820380516001836020036101000a031916815260200191505b50838103825284518152845160209182019186019080838360005b8381101561036557818101518382015260200161034d565b50505050905090810190601f1680156103925780820380516001836020036101000a031916815260200191505b509550505050505060405180910390f35b3480156103af57600080fd5b506103bb600435610df4565b60408051918252519081900360200190f35b3480156103d957600080fd5b506103e2610ea6565b60408051600160a060020a039092168252519081900360200190f35b34801561040a57600080fd5b506101746024600480358281019290820135918135918201910135610eb5565b34801561043657600080fd5b5061044e600435600160a060020a03602435166110d5565b6040805160ff9092168252519081900360200190f35b34801561047057600080fd5b5061017460048035602481019101356110e8565b34801561049057600080fd5b5061049c60043561110c565b6040518084815260200180602001838152602001828103825284818151815260200191508051906020019060200280838360005b838110156104e85781810151838201526020016104d0565b5050505090500194505050505060405180910390f35b34801561050a57600080fd5b5061018b611228565b34801561051f57600080fd5b50610174611289565b34801561053457600080fd5b506103e26112f1565b34801561054957600080fd5b5061027d611300565b34801561055e57600080fd5b5061027d600435602435611311565b34801561057957600080fd5b50610174600480359060248035600160a060020a03169160443591820191013561138a565b3480156105aa57600080fd5b506105b6600435611598565b6040518083815260200180602001828103825283818151815260200191508051906020019060200280838360005b838110156105fc5781810151838201526020016105e4565b50505050905001935050505060405180910390f35b34801561061d57600080fd5b506103bb61168f565b34801561063257600080fd5b5061027d600435611695565b34801561064a57600080fd5b506101746004356116a0565b34801561066257600080fd5b5061018b600435600160a060020a0360243516611774565b34801561068657600080fd5b50610174600160a060020a03600435166118b3565b3480156106a757600080fd5b5061018b6118d2565b60006106ba611c1c565b6106f2858580806020026020016040519081016040528093929190818152602001838360200280828437508994506119339350505050565b91506106fd866119e9565b1515610778576040805160e560020a62461bcd028152602060048201526024808201527f4c656167756520646f6573206e6f7420737570706f727420676976656e20736560448201527f61736f6e00000000000000000000000000000000000000000000000000000000606482015290519081900360840190fd5b60065484146107f7576040805160e560020a62461bcd02815260206004820152602960248201527f496e76616c6964206e756d626572206f66207061727469636970616e7473206960448201527f6e20666978747572650000000000000000000000000000000000000000000000606482015290519081900360840190fd5b61082d858580806020026020016040519081016040528093929190818152602001838360200280828437506119fe945050505050565b15156108a9576040805160e560020a62461bcd02815260206004820152602960248201527f556e6b6e6f776e207061727469636970616e74207363686564756c656420666f60448201527f7220666978747572650000000000000000000000000000000000000000000000606482015290519081900360840190fd5b428311610900576040805160e560020a62461bcd02815260206004820152601b60248201527f466978747572652068617320616c726561647920737461727465640000000000604482015290519081900360640190fd5b6000828152600c602052604090205460ff1615610967576040805160e560020a62461bcd02815260206004820152601f60248201527f46697874757265206973206475706c69636174656420696e206c656167756500604482015290519081900360640190fd5b600a80546001810180845260408401869052808355600092909252825160039091027fc65a7bb8d6351c1cf70c95a316cc6a92839c986682d98bc35f958f4883f9d2a8810191825560208085015180518694936109ea937fc65a7bb8d6351c1cf70c95a316cc6a92839c986682d98bc35f958f4883f9d2a9909101920190611c3e565b506040919091015160029091015550600a8054869186916000198101908110610a0f57fe5b90600052602060002090600302016001019190610a2d929190611c89565b50600086815260086020908152604080832084518154600181810184559286528486200155858452600c835292819020805460ff19169093179092558251825190815291517f9304e030915ed6da5c27faf048f12f3eae58394969224636eb98a811e84db75f9281900390910190a1505050505050565b60058054604080516020601f6002600019610100600188161502019095169490940493840181900481028201810190925282815260609390929091830182828015610b305780601f10610b0557610100808354040283529160200191610b30565b820191906000526020600020905b815481529060010190602001808311610b1357829003601f168201915b505050505090505b90565b60606009805480602002602001604051908101604052809291908181526020018280548015610b3057602002820191906000526020600020905b815481526020019060010190808311610b75575050505050905090565b6000610b9d82611a4d565b92915050565b60028054604080516020601f6000196101006001871615020190941685900493840181900481028201810190925282815260609390929091830182828015610b305780601f10610b0557610100808354040283529160200191610b30565b60006060806000610c1185611a4d565b1515610c8d576040805160e560020a62461bcd02815260206004820152602260248201527f476976656e207061727469636970616e74206973206e6f7420696e206c65616760448201527f7565000000000000000000000000000000000000000000000000000000000000606482015290519081900360840190fd5b600b80546000198701908110610c9f57fe5b9060005260206000209060030201905080600001548160010182600201818054600181600116156101000203166002900480601f016020809104026020016040519081016040528092919081815260200182805460018160011615610100020316600290048015610d515780601f10610d2657610100808354040283529160200191610d51565b820191906000526020600020905b815481529060010190602001808311610d3457829003601f168201915b5050845460408051602060026001851615610100026000190190941693909304601f810184900484028201840190925281815295975086945092508401905082828015610ddf5780601f10610db457610100808354040283529160200191610ddf565b820191906000526020600020905b815481529060010190602001808311610dc257829003601f168201915b50505050509050935093509350509193909250565b6000610dff82611a64565b1515610e7b576040805160e560020a62461bcd02815260206004820152602860248201527f476976656e2066697874757265206973206e6f74207363686564756c6564206960448201527f6e206c6561677565000000000000000000000000000000000000000000000000606482015290519081900360840190fd5b600a80546000198401908110610e8d57fe5b9060005260206000209060030201600201549050919050565b600154600160a060020a031690565b6000610ebf611cc4565b610ec7611300565b1515610ed257600080fd5b610f0b86868080601f01602080910402602001604051908101604052809392919081815260200183838082843750611a7b945050505050565b6000818152600c602052604090205490925060ff1615610f75576040805160e560020a62461bcd02815260206004820152601d60248201527f5061727469636970616e7420616c726561647920696e206c6561677565000000604482015290519081900360640190fd5b85858080601f01602080910402602001604051908101604052809392919081815260200183838082843750505050602080850193909352505060408051601f86018390048302810183019091528481529085908590819084018382808284375050505060408401929092525050600b805460018101808452808355600092909252825160039091027f0175b7a638427703f0dbe7bb9bbf987a2551717b34e79f33b5b1008d1fa01db98101918255602080850151805186949361105e937f0175b7a638427703f0dbe7bb9bbf987a2551717b34e79f33b5b1008d1fa01dba909101920190611ce6565b506040820151805161107a916002840191602090910190611ce6565b5050506000838152600c6020908152604091829020805460ff191660011790558351825190815291517f561e78c65705a87f79183e181a2456903f6f4a0edf209667b5e0d7bda085e6019350918290030190a1505050505050565b60006110e18383611b45565b9392505050565b6110f0611300565b15156110fb57600080fd5b61110760048383611d53565b505050565b6000606060008061111c85611a64565b1515611198576040805160e560020a62461bcd02815260206004820152602860248201527f476976656e2066697874757265206973206e6f74207363686564756c6564206960448201527f6e206c6561677565000000000000000000000000000000000000000000000000606482015290519081900360840190fd5b600a805460001987019081106111aa57fe5b9060005260206000209060030201905080600001548160010182600201548180548060200260200160405190810160405280929190818152602001828054801561121357602002820191906000526020600020905b8154815260200190600101908083116111ff575b50505050509150935093509350509193909250565b60038054604080516020601f6002600019610100600188161502019095169490940493840181900481028201810190925282815260609390929091830182828015610b305780601f10610b0557610100808354040283529160200191610b30565b611291611300565b151561129c57600080fd5b60008054604051600160a060020a03909116917ff8df31144d9c2f0f6b59d69b8b98abd5459d07f2742c4df920b25aae33c6482091a26000805473ffffffffffffffffffffffffffffffffffffffff19169055565b600054600160a060020a031690565b600054600160a060020a0316331490565b6000806000600a6001850381548110151561132857fe5b90600052602060002090600302019150600090505b600182015481101561137d5784826001018281548110151561135b57fe5b906000526020600020015414156113755760019250611382565b60010161133d565b600092505b505092915050565b600154604080517fbf40fac1000000000000000000000000000000000000000000000000000000008152602060048201819052601060248301527f436f6e73656e7375734d616e616765720000000000000000000000000000000060448301529151600160a060020a039093169263bf40fac1926064808401939192918290030181600087803b15801561141d57600080fd5b505af1158015611431573d6000803e3d6000fd5b505050506040513d602081101561144757600080fd5b5051600160a060020a031633146114a8576040805160e560020a62461bcd02815260206004820152601e60248201527f53656e646572206973206e6f7420436f6e73656e7375734d616e616765720000604482015290519081900360640190fd5b6000848152600d602052604090205460ff1615156114da576000848152600d60205260409020805460ff191660011790555b6000848152600f60209081526040808320600160a060020a038716808552908352818420805460ff19166001179055878452600e83528184209084529091529020611526908383611d53565b50837fe256c6663711b1954989cfd3de024e298d0938b5d9e57e8c3fd35ef6f452e93b8484846040518084600160a060020a0316600160a060020a031681526020018060200182810382528484828181526020019250808284376040519201829003965090945050505050a250505050565b600060606115a5836119e9565b1515611620576040805160e560020a62461bcd028152602060048201526024808201527f4c656167756520646f6573206e6f7420737570706f727420676976656e20736560448201527f61736f6e00000000000000000000000000000000000000000000000000000000606482015290519081900360840190fd5b82600860008581526020019081526020016000208080548060200260200160405190810160405280929190818152602001828054801561167f57602002820191906000526020600020905b81548152602001906001019080831161166b575b5050505050905091509150915091565b600b5490565b6000610b9d82611a64565b6116a9816119e9565b156116fe576040805160e560020a62461bcd02815260206004820152601860248201527f536561736f6e20616c726561647920737570706f727465640000000000000000604482015290519081900360640190fd5b600081815260076020526040808220805460ff1916600190811790915560098054918201815583527f6e1540171b6c0c960b71a7020d9f60077f6af931a8bbf590da0223dacf75c7af018390555182917f7f97ddc213adb651cacdbc0d741d08bae87f7c05fe67a9aaa453bf2035c5e1fe91a250565b60606117808383611b45565b60ff166001141515611802576040805160e560020a62461bcd02815260206004820152603860248201527f476976656e207265736f6c7665722c20666f7220676976656e2066697874757260448201527f652c20686173206e6f74206265656e207265736f6c7665640000000000000000606482015290519081900360840190fd5b6000838152600e60209081526040808320600160a060020a038616845282529182902080548351601f6002600019610100600186161502019093169290920491820184900484028101840190945280845290918301828280156118a65780601f1061187b576101008083540402835291602001916118a6565b820191906000526020600020905b81548152906001019060200180831161188957829003601f168201915b5050505050905092915050565b6118bb611300565b15156118c657600080fd5b6118cf81611b9f565b50565b60048054604080516020601f6002600019610100600188161502019095169490940493840181900481028201810190925282815260609390929091830182828015610b305780601f10610b0557610100808354040283529160200191610b30565b6000828260405160200180838051906020019060200280838360005b8381101561196757818101518382015260200161194f565b50505050905001828152602001925050506040516020818303038152906040526040518082805190602001908083835b602083106119b65780518252601f199092019160209182019101611997565b5181516020939093036101000a600019018019909116921691909117905260405192018290039091209695505050505050565b60009081526007602052604090205460ff1690565b6000805b8251811015611a4257611a2b8382815181101515611a1c57fe5b90602001906020020151611a4d565b1515611a3a5760009150611a47565b600101611a02565b600191505b50919050565b60008082118015610b9d575050600b546001011190565b60008082118015610b9d575050600a546001011190565b6000816040516020018082805190602001908083835b60208310611ab05780518252601f199092019160209182019101611a91565b6001836020036101000a0380198251168184511680821785525050505050509050019150506040516020818303038152906040526040518082805190602001908083835b60208310611b135780518252601f199092019160209182019101611af4565b5181516020939093036101000a6000190180199091169216919091179052604051920182900390912095945050505050565b6000828152600d602052604081205460ff161515611b6557506000610b9d565b6000838152600f60209081526040808320600160a060020a038616845290915290205460ff16611b965760026110e1565b50600192915050565b600160a060020a0381161515611bb457600080fd5b60008054604051600160a060020a03808516939216917f8be0079c531659141344cd1fd0a4f28419497f9722a3daafe3b4186f6b6457e091a36000805473ffffffffffffffffffffffffffffffffffffffff1916600160a060020a0392909216919091179055565b6060604051908101604052806000815260200160608152602001600081525090565b828054828255906000526020600020908101928215611c79579160200282015b82811115611c79578251825591602001919060010190611c5e565b50611c85929150611dc0565b5090565b828054828255906000526020600020908101928215611c79579160200282015b82811115611c79578235825591602001919060010190611ca9565b6060604051908101604052806000815260200160608152602001606081525090565b828054600181600116156101000203166002900490600052602060002090601f016020900481019282601f10611d2757805160ff1916838001178555611c79565b82800160010185558215611c795791820182811115611c79578251825591602001919060010190611c5e565b828054600181600116156101000203166002900490600052602060002090601f016020900481019282601f10611d945782800160ff19823516178555611c79565b82800160010185558215611c795791820182811115611c79578235825591602001919060010190611ca9565b610b3891905b80821115611c855760008155600101611dc65600a165627a7a72305820336c2c372ed1b5f07fae36a60d23b246dfdef59855a1122babce0915516ee6900029",
  "source": "pragma solidity ^0.4.24;\n\nimport \"./ILeague001.sol\";\nimport \"./BaseLeague.sol\";\nimport \"../interfaces/IResolverRegistry.sol\";\nimport \"../interfaces/IResolver.sol\";\n\nimport { LeagueLib001 as L } from \"./LeagueLib001.sol\";\n\n\n/**\n * @title League 0.0.1 Contract\n */\ncontract League001 is ILeague001, BaseLeague {\n\n  // League version\n  string private VERSION = \"0.0.1\";\n  // Number of Participants in each fixture\n  uint private PARTICIPANTS_PER_FIXTURE;\n\n  // Season corresponds to `true` if exists, `false` otherwise\n  mapping(uint => bool) private supportedSeasons;\n  // Season corresponds to list of fixture ids\n  mapping(uint => uint[]) private seasons;\n  // List of seasons\n  uint[] private seasonList;\n  // List of all fixtures ever in league\n  // Fixture id is (i + 1), where i is the index of fixture\n  L.Fixture[] private fixtures;\n  // List of participants ever played in league\n  // Participant id is (i + 1), where i is the index of participant\n  L.Participant[] private participants;\n\n  // Mapping of fixture hashes to whether they exist, to avoid duplicates\n  mapping(bytes32 => bool) private duplicateManager;\n\n  // Fixture ids correspond to `true` if resolved, `false` if not resolved\n  // Being resolved means at least one resolution has been pushed by ConsensusManager\n  mapping(uint => bool) private resolved;\n  // fixture => resolver => payload\n  mapping(uint => mapping(address => bytes)) private resolutions;\n  // fixture => resolver => boolean (whether pushed or not)\n  mapping(uint => mapping(address => bool)) private pushed;\n\n  // Emit when new season added\n  event LogSeasonAdded(uint indexed _year);\n  // Emit when new fixture added\n  event LogFixtureAdded(uint _id);\n  // Emit when new participant added\n  event LogParticipantAdded(uint _id);\n  // Emit when a Fixture is resolved, by resolver\n  event LogFixtureResolved(uint indexed _fixtureId, address _resolver, bytes _payload);\n\n  /**\n   * @notice Constructor\n   * @param _class Class of league\n   * @param _name Name of league\n   * @param _registry Address of the FansUnite Registry Contact\n   * @param _participantsPerFixture Number of participants allowed per fixture\n   */\n  constructor(\n    string _class,\n    string _name,\n    address _registry,\n    uint _participantsPerFixture\n  )\n    public\n    BaseLeague(_class, _name, _registry)\n  {\n    PARTICIPANTS_PER_FIXTURE = _participantsPerFixture;\n  }\n\n  /**\n   * @dev Throw is called by any account other than consensus\n   */\n  modifier onlyConsensus() {\n    require(\n      msg.sender == registry.getAddress(\"ConsensusManager\"),\n      \"Sender is not ConsensusManager\"\n    );\n    _;\n  }\n\n  ///////////////////////////////////////////////////////////////////////////////\n  ///////////////////////////// external functions //////////////////////////////\n  ///////////////////////////////////////////////////////////////////////////////\n\n  /**\n   * @notice Adds a resolution payload for fixture with id `_fixture` and resolver `_resolver`\n   * @param _fixture Id of the fixture being resolved\n   * @param _resolver Address of the resolver that can resolve _payload\n   * @param _payload Encoded resolution payload\n   * @dev _payload can be 0x, should result in bet cancellation\n   * @dev _payload can be 0x00..00, would be passed as valid resolution payload to resolvers\n   */\n  function pushResolution(uint _fixture, address _resolver, bytes _payload)\n    external\n    onlyConsensus\n  {\n    // TODO Reduce duplication when multiple resolvers use the same payload\n    // NOTE pushResolution can be called to write and overwrite payload, by design\n    // NOTE not validating _resolver and _fixture, economical guarantee from oracles\n\n    if (!resolved[_fixture]) resolved[_fixture] = true;\n    pushed[_fixture][_resolver] = true;\n    resolutions[_fixture][_resolver] = _payload;\n\n    emit LogFixtureResolved(_fixture, _resolver, _payload);\n  }\n\n  /**\n   * @notice Starts a new season with year `_year`\n   * @param _year Year of the first fixture in new season\n   */\n  function addSeason(uint _year) external {\n    require(!_isSeasonSupported(_year), \"Season already supported\");\n\n    supportedSeasons[_year] = true;\n    seasonList.push(_year);\n\n    emit LogSeasonAdded(_year);\n  }\n\n  /**\n   * @notice Creates a new fixture for season `_season`\n   * @dev _start is rounded off to the nearest second\n   * @param _season Season of fixture\n   * @param _participants ids of participants in fixture\n   * @param _start Start time (unix timestamp, seconds)\n   */\n  function scheduleFixture(uint _season, uint[] _participants, uint _start) external {\n    bytes32 _hash = L.hashRawFixture(_participants, _start);\n\n    require(\n      _isSeasonSupported(_season),\n      \"League does not support given season\"\n    );\n    require(\n      _participants.length == PARTICIPANTS_PER_FIXTURE,\n      \"Invalid number of participants in fixture\"\n    );\n    require(\n      _areParticipants(_participants),\n      \"Unknown participant scheduled for fixture\"\n    );\n    require(\n      _start > block.timestamp,\n      \"Fixture has already started\"\n    );\n    require(\n      !duplicateManager[_hash],\n      \"Fixture is duplicated in league\"\n    );\n\n    L.Fixture memory _fixture;\n    _fixture.id = fixtures.length + 1;\n    _fixture.start = _start;\n    fixtures.push(_fixture);\n    fixtures[fixtures.length - 1].participants = _participants;\n    seasons[_season].push(_fixture.id);\n    duplicateManager[_hash] = true;\n\n    emit LogFixtureAdded(_fixture.id);\n  }\n\n  /**\n   * @notice Adds a new participant to the league\n   * @param _name Name of the participant - should match pattern /^[a-zA-Z0-9.() ]+$/\n   * @param _details Off-chain hash of participant details\n   */\n  function addParticipant(string _name, bytes _details) external onlyOwner {\n    bytes32 _hash = L.hashRawParticipant(_name);\n\n    require(\n      !duplicateManager[_hash],\n      \"Participant already in league\"\n    );\n\n    L.Participant memory _participant;\n    _participant.name = _name;\n    _participant.details = _details;\n    _participant.id = participants.length + 1;\n    participants.push(_participant);\n    duplicateManager[_hash] = true;\n\n    emit LogParticipantAdded(_participant.id);\n  }\n\n\n  ///////////////////////////////////////////////////////////////////////////////\n  ///////////////////////////// external view functions /////////////////////////\n  ///////////////////////////////////////////////////////////////////////////////\n\n\n  /**\n   * @notice Gets resolution payload for fixture `_fixture` and resolver `_resolver`\n   * @dev throws if fixture `_fixture` is not resolved for resolver `_resolver`\n   * @param _fixture Id of the payload's corresponding fixture\n   * @param _resolver Address of the payload's corresponding resolver\n   * @return Resolution payload for fixture `_fixture` and resolver `_resolver`\n   */\n  function getResolution(uint _fixture, address _resolver) external view returns (bytes) {\n    require(\n      _isFixtureResolved(_fixture, _resolver) == 1,\n      \"Given resolver, for given fixture, has not been resolved\"\n    );\n\n    return resolutions[_fixture][_resolver];\n  }\n\n  /**\n   * @notice Gets a list of all seasons in league\n   * @return Years of all seasons in league\n   */\n  function getSeasons() external view returns (uint[]) {\n    return seasonList;\n  }\n\n  /**\n   * @notice Gets the season with year `_year`\n   * @param _year Year of the season\n   * @return Year of the season\n   * @return Ids fixtures scheduled in season `_year`\n   */\n  function getSeason(uint _year) external view returns (uint, uint[]) {\n    require(_isSeasonSupported(_year), \"League does not support given season\");\n\n    return (_year, seasons[_year]);\n  }\n\n  /**\n   * @notice Gets start time for fixture `_fixture`\n   * @param _fixture Id of fixture\n   * @return start time of fixture `_fixture`\n   */\n  function getFixtureStart(uint _fixture) external view returns (uint) {\n    require(_isFixtureScheduled(_fixture), \"Given fixture is not scheduled in league\");\n\n    return fixtures[_fixture - 1].start;\n  }\n\n  /**\n   * @notice Gets scheduled fixture with id `_id`\n   * @param _id Id of the scheduled fixture\n   * @return Fixture id\n   * @return Participant Ids\n   * @return Start time\n   */\n  function getFixture(uint _id) external view returns (uint, uint[], uint) {\n    require(_isFixtureScheduled(_id), \"Given fixture is not scheduled in league\");\n\n    L.Fixture storage _fixture = fixtures[_id - 1];\n    return (_fixture.id, _fixture.participants, _fixture.start);\n  }\n\n  /**\n   * @notice Gets participant in league with id `_id`\n   * @param _id Id of the participant\n   * @return Participant Id\n   * @return Participant name\n   * @return Details of Participant (hash)\n   */\n  function getParticipant(uint _id) external view returns (uint, string, bytes) {\n    require(_isParticipant(_id), \"Given participant is not in league\");\n\n    L.Participant storage _participant = participants[_id - 1];\n    return (_participant.id, _participant.name, _participant.details);\n  }\n\n  /**\n   * @notice Gets participants count\n   * @return participant count\n   */\n  function getParticipantCount() external view returns (uint) {\n    return participants.length;\n  }\n\n  /**\n   * @notice Checks if fixture with id `_fixture` has been scheduled in league\n   * @param _fixture Id of the fixture\n   * @return `true` if fixture with id `_fixture` is scheduled, `false` otherwise\n   */\n  function isFixtureScheduled(uint _fixture) external view returns (bool) {\n    return _isFixtureScheduled(_fixture);\n  }\n\n  /**\n   * @notice Checks if fixture with id `_fixture` has been resolved for resolver `_resolver`\n   * @dev A fixture is resolved if at least one resolver receives a resolution payload\n   * @dev It is possible that some resolvers do not get resolution payloads from oracles\n   * @param _fixture Id of the fixture\n   * @param _resolver Address of the resolver\n   * @return `0` if fixture is not resolved, `1` if fixture is resolved for resolver `_resolver`,\n   *  `2` if fixture is resolved but not for resolver `_resolver\n   */\n  function isFixtureResolved(uint _fixture, address _resolver) external view returns (uint8) {\n    return _isFixtureResolved(_fixture, _resolver);\n  }\n\n  /**\n   * @notice Checks if participant id `_participant` is valid\n   * @param _participant Id of the participant\n   * @return `true` if participant id `_participant` is valid, `false` otherwise\n   */\n  function isParticipant(uint _participant) external view returns (bool) {\n    return _isParticipant(_participant);\n  }\n\n  /**\n   * @notice Checks if participant `_participant` is playing in fixture `_fixture`\n   * @param _participant Id of the participant\n   * @param _fixture Id of the fixture\n   * @return `true` if participant `_participant` is scheduled in for fixture `_fixture`\n   */\n  function isParticipantScheduled(uint _participant, uint _fixture)\n    external\n    view\n    returns (bool)\n  {\n    L.Fixture storage __fixture = fixtures[_fixture - 1];\n    for (uint i = 0; i < __fixture.participants.length; i++)\n      if (__fixture.participants[i] == _participant) return true;\n    return false;\n  }\n\n  /**\n   * @notice Gets the league version (matches LeagueFactory version)\n   * @return Version of the league contract\n   */\n  function getVersion() external view returns (string) {\n    return VERSION;\n  }\n\n\n  ///////////////////////////////////////////////////////////////////////////////\n  ///////////////////////////// private view functions //////////////////////////\n  ///////////////////////////////////////////////////////////////////////////////\n\n  // Private isFixtureScheduled\n  function _isFixtureScheduled(uint _fixture) private view returns (bool) {\n    return _fixture > 0 && _fixture < fixtures.length + 1;\n  }\n\n  // Private isFixtureResolved\n  function _isFixtureResolved(uint _fixture, address _resolver) private view returns (uint8) {\n    if (!resolved[_fixture])\n      return 0;\n    return pushed[_fixture][_resolver] ? 1 : 2;\n  }\n\n  // Private isParticipant\n  function _isParticipant(uint _participant) private view returns (bool) {\n    return _participant > 0 && _participant < participants.length + 1;\n  }\n\n  // validate all participants\n  function _areParticipants(uint[] _participants) private view returns (bool) {\n    for (uint i = 0; i < _participants.length; i++) {\n      if (!_isParticipant(_participants[i])) return false;\n    }\n    return true;\n  }\n\n  // Private isSeasonSupported\n  function _isSeasonSupported(uint _year) private view returns (bool) {\n    return supportedSeasons[_year];\n  }\n\n}\n",
  "sourcePath": "/Users/ryancimoszko/fu/fansunite-js/node_modules/fansunite-core/contracts/leagues/League001.sol",
  "compiler": {
    "name": "solc",
    "version": "0.4.24+commit.e67f0147.Emscripten.clang"
  },
  "schemaVersion": "2.0.1",
  "updatedAt": "2019-01-28T18:29:25.421Z"
}