{
  "contractName": "League001",
  "abi": [
    {
      "constant": true,
      "inputs": [],
      "name": "getVersion",
      "outputs": [
        {
          "name": "",
          "type": "string"
        }
      ],
      "payable": false,
      "stateMutability": "view",
      "type": "function"
    },
    {
      "constant": true,
      "inputs": [],
      "name": "getName",
      "outputs": [
        {
          "name": "",
          "type": "string"
        }
      ],
      "payable": false,
      "stateMutability": "view",
      "type": "function"
    },
    {
      "constant": true,
      "inputs": [],
      "name": "getRegistryContract",
      "outputs": [
        {
          "name": "",
          "type": "address"
        }
      ],
      "payable": false,
      "stateMutability": "view",
      "type": "function"
    },
    {
      "constant": false,
      "inputs": [
        {
          "name": "_details",
          "type": "bytes"
        }
      ],
      "name": "setDetails",
      "outputs": [],
      "payable": false,
      "stateMutability": "nonpayable",
      "type": "function"
    },
    {
      "constant": true,
      "inputs": [],
      "name": "getClass",
      "outputs": [
        {
          "name": "",
          "type": "string"
        }
      ],
      "payable": false,
      "stateMutability": "view",
      "type": "function"
    },
    {
      "constant": false,
      "inputs": [],
      "name": "renounceOwnership",
      "outputs": [],
      "payable": false,
      "stateMutability": "nonpayable",
      "type": "function"
    },
    {
      "constant": true,
      "inputs": [],
      "name": "owner",
      "outputs": [
        {
          "name": "",
          "type": "address"
        }
      ],
      "payable": false,
      "stateMutability": "view",
      "type": "function"
    },
    {
      "constant": false,
      "inputs": [
        {
          "name": "_newOwner",
          "type": "address"
        }
      ],
      "name": "transferOwnership",
      "outputs": [],
      "payable": false,
      "stateMutability": "nonpayable",
      "type": "function"
    },
    {
      "constant": true,
      "inputs": [],
      "name": "getDetails",
      "outputs": [
        {
          "name": "",
          "type": "bytes"
        }
      ],
      "payable": false,
      "stateMutability": "view",
      "type": "function"
    },
    {
      "inputs": [
        {
          "name": "_class",
          "type": "string"
        },
        {
          "name": "_name",
          "type": "string"
        },
        {
          "name": "_version",
          "type": "string"
        },
        {
          "name": "_registry",
          "type": "address"
        },
        {
          "name": "_participantsPerFixture",
          "type": "uint256"
        }
      ],
      "payable": false,
      "stateMutability": "nonpayable",
      "type": "constructor"
    },
    {
      "anonymous": false,
      "inputs": [
        {
          "indexed": false,
          "name": "_resolver",
          "type": "address"
        }
      ],
      "name": "LogResolverRegistered",
      "type": "event"
    },
    {
      "anonymous": false,
      "inputs": [
        {
          "indexed": true,
          "name": "_year",
          "type": "uint16"
        }
      ],
      "name": "LogSeasonAdded",
      "type": "event"
    },
    {
      "anonymous": false,
      "inputs": [
        {
          "indexed": false,
          "name": "_id",
          "type": "uint256"
        }
      ],
      "name": "LogFixtureAdded",
      "type": "event"
    },
    {
      "anonymous": false,
      "inputs": [
        {
          "indexed": false,
          "name": "_id",
          "type": "uint256"
        }
      ],
      "name": "LogParticipantAdded",
      "type": "event"
    },
    {
      "anonymous": false,
      "inputs": [
        {
          "indexed": true,
          "name": "_fixtureId",
          "type": "uint256"
        },
        {
          "indexed": false,
          "name": "_resolver",
          "type": "address"
        },
        {
          "indexed": false,
          "name": "_payload",
          "type": "bytes"
        }
      ],
      "name": "LogFixtureResolved",
      "type": "event"
    },
    {
      "anonymous": false,
      "inputs": [
        {
          "indexed": true,
          "name": "previousOwner",
          "type": "address"
        }
      ],
      "name": "OwnershipRenounced",
      "type": "event"
    },
    {
      "anonymous": false,
      "inputs": [
        {
          "indexed": true,
          "name": "previousOwner",
          "type": "address"
        },
        {
          "indexed": true,
          "name": "newOwner",
          "type": "address"
        }
      ],
      "name": "OwnershipTransferred",
      "type": "event"
    },
    {
      "constant": false,
      "inputs": [
        {
          "name": "_resolver",
          "type": "address"
        }
      ],
      "name": "registerResolver",
      "outputs": [],
      "payable": false,
      "stateMutability": "nonpayable",
      "type": "function"
    },
    {
      "constant": false,
      "inputs": [
        {
          "name": "_fixtureId",
          "type": "uint256"
        },
        {
          "name": "_resolver",
          "type": "address"
        },
        {
          "name": "_payload",
          "type": "bytes"
        }
      ],
      "name": "pushResolution",
      "outputs": [],
      "payable": false,
      "stateMutability": "nonpayable",
      "type": "function"
    },
    {
      "constant": false,
      "inputs": [
        {
          "name": "_year",
          "type": "uint16"
        }
      ],
      "name": "addSeason",
      "outputs": [],
      "payable": false,
      "stateMutability": "nonpayable",
      "type": "function"
    },
    {
      "constant": false,
      "inputs": [
        {
          "name": "_season",
          "type": "uint16"
        },
        {
          "name": "_participants",
          "type": "uint256[]"
        },
        {
          "name": "_start",
          "type": "uint256"
        }
      ],
      "name": "scheduleFixture",
      "outputs": [],
      "payable": false,
      "stateMutability": "nonpayable",
      "type": "function"
    },
    {
      "constant": false,
      "inputs": [
        {
          "name": "_name",
          "type": "string"
        },
        {
          "name": "_details",
          "type": "bytes"
        }
      ],
      "name": "addParticipant",
      "outputs": [],
      "payable": false,
      "stateMutability": "nonpayable",
      "type": "function"
    },
    {
      "constant": true,
      "inputs": [
        {
          "name": "_fixtureId",
          "type": "uint256"
        },
        {
          "name": "_resolver",
          "type": "address"
        }
      ],
      "name": "getResolution",
      "outputs": [
        {
          "name": "",
          "type": "bytes"
        }
      ],
      "payable": false,
      "stateMutability": "view",
      "type": "function"
    },
    {
      "constant": true,
      "inputs": [],
      "name": "getResolvers",
      "outputs": [
        {
          "name": "",
          "type": "address[]"
        }
      ],
      "payable": false,
      "stateMutability": "view",
      "type": "function"
    },
    {
      "constant": true,
      "inputs": [],
      "name": "getSeasons",
      "outputs": [
        {
          "name": "",
          "type": "uint16[]"
        }
      ],
      "payable": false,
      "stateMutability": "view",
      "type": "function"
    },
    {
      "constant": true,
      "inputs": [
        {
          "name": "_year",
          "type": "uint16"
        }
      ],
      "name": "getSeason",
      "outputs": [
        {
          "name": "",
          "type": "uint16"
        },
        {
          "name": "",
          "type": "uint256[]"
        }
      ],
      "payable": false,
      "stateMutability": "view",
      "type": "function"
    },
    {
      "constant": true,
      "inputs": [
        {
          "name": "_fixture",
          "type": "uint256"
        }
      ],
      "name": "getFixtureStart",
      "outputs": [
        {
          "name": "",
          "type": "uint256"
        }
      ],
      "payable": false,
      "stateMutability": "view",
      "type": "function"
    },
    {
      "constant": true,
      "inputs": [
        {
          "name": "_id",
          "type": "uint256"
        }
      ],
      "name": "getFixture",
      "outputs": [
        {
          "name": "",
          "type": "uint256"
        },
        {
          "name": "",
          "type": "uint256[]"
        },
        {
          "name": "",
          "type": "uint256"
        }
      ],
      "payable": false,
      "stateMutability": "view",
      "type": "function"
    },
    {
      "constant": true,
      "inputs": [
        {
          "name": "_id",
          "type": "uint256"
        }
      ],
      "name": "getParticipant",
      "outputs": [
        {
          "name": "",
          "type": "uint256"
        },
        {
          "name": "",
          "type": "string"
        },
        {
          "name": "",
          "type": "bytes"
        }
      ],
      "payable": false,
      "stateMutability": "view",
      "type": "function"
    },
    {
      "constant": true,
      "inputs": [
        {
          "name": "_resolver",
          "type": "address"
        }
      ],
      "name": "isResolverRegistered",
      "outputs": [
        {
          "name": "",
          "type": "bool"
        }
      ],
      "payable": false,
      "stateMutability": "view",
      "type": "function"
    },
    {
      "constant": true,
      "inputs": [
        {
          "name": "_id",
          "type": "uint256"
        }
      ],
      "name": "isFixtureScheduled",
      "outputs": [
        {
          "name": "",
          "type": "bool"
        }
      ],
      "payable": false,
      "stateMutability": "view",
      "type": "function"
    },
    {
      "constant": true,
      "inputs": [
        {
          "name": "_id",
          "type": "uint256"
        },
        {
          "name": "_resolver",
          "type": "address"
        }
      ],
      "name": "isFixtureResolved",
      "outputs": [
        {
          "name": "",
          "type": "uint8"
        }
      ],
      "payable": false,
      "stateMutability": "view",
      "type": "function"
    },
    {
      "constant": true,
      "inputs": [
        {
          "name": "_id",
          "type": "uint256"
        }
      ],
      "name": "isParticipant",
      "outputs": [
        {
          "name": "",
          "type": "bool"
        }
      ],
      "payable": false,
      "stateMutability": "view",
      "type": "function"
    },
    {
      "constant": true,
      "inputs": [
        {
          "name": "_participantId",
          "type": "uint256"
        },
        {
          "name": "_fixtureId",
          "type": "uint256"
        }
      ],
      "name": "isParticipantScheduled",
      "outputs": [
        {
          "name": "",
          "type": "bool"
        }
      ],
      "payable": false,
      "stateMutability": "view",
      "type": "function"
    }
  ],
  "bytecode": "0x60806040523480156200001157600080fd5b50604051620026f0380380620026f0833981016040908152815160208084015192840151606085015160808601516000805433600160a060020a03199182161790915560018054909116600160a060020a03841617905593860180519096958601959290920193909290918691869186918691620000969160049190870190620000d8565b508251620000ac906003906020860190620000d8565b508151620000c2906002906020850190620000d8565b505050600692909255506200017d945050505050565b828054600181600116156101000203166002900490600052602060002090601f016020900481019282601f106200011b57805160ff19168380011785556200014b565b828001600101855582156200014b579182015b828111156200014b5782518255916020019190600101906200012e565b50620001599291506200015d565b5090565b6200017a91905b8082111562000159576000815560010162000164565b90565b612563806200018d6000396000f3006080604052600436106101525763ffffffff7c0100000000000000000000000000000000000000000000000000000000600035041662aeb7d281146101575780630d8e6e2c146101bc5780630f36c47f14610246578063111953ac1461025b57806317d7de7c146102875780631b9db2ef1461029c5780632cb0a2e51461039957806336ca3d73146103c3578063376111c2146103f457806342813bcc146104225780634f26df4e1461045c57806354d0940d1461047c57806357e61ea4146104f65780635c3775c91461050b578063715018a6146105275780638da5cb5b1461053c578063922c20ab1461055157806393ffd6701461057c5780639f3e1b5314610597578063a3c8f739146105b8578063a782c229146105e9578063cb378bba1461060a578063e239c95214610689578063e78341e6146106a1578063f2fde38b146106c5578063fbbf93a0146106e6575b600080fd5b34801561016357600080fd5b5061016c6106fb565b60408051602080825283518183015283519192839290830191858101910280838360005b838110156101a8578181015183820152602001610190565b505050509050019250505060405180910390f35b3480156101c857600080fd5b506101d161075e565b6040805160208082528351818301528351919283929083019185019080838360005b8381101561020b5781810151838201526020016101f3565b50505050905090810190601f1680156102385780820380516001836020036101000a031916815260200191505b509250505060405180910390f35b34801561025257600080fd5b5061016c6107e8565b34801561026757600080fd5b50610273600435610867565b604080519115158252519081900360200190f35b34801561029357600080fd5b506101d1610878565b3480156102a857600080fd5b506102b46004356108d9565b604051808481526020018060200180602001838103835285818151815260200191508051906020019080838360005b838110156102fb5781810151838201526020016102e3565b50505050905090810190601f1680156103285780820380516001836020036101000a031916815260200191505b50838103825284518152845160209182019186019080838360005b8381101561035b578181015183820152602001610343565b50505050905090810190601f1680156103885780820380516001836020036101000a031916815260200191505b509550505050505060405180910390f35b3480156103a557600080fd5b506103b1600435610acc565b60408051918252519081900360200190f35b3480156103cf57600080fd5b506103d8610b7e565b60408051600160a060020a039092168252519081900360200190f35b34801561040057600080fd5b506104206024600480358281019290820135918135918201910135610b8d565b005b34801561042e57600080fd5b50610446600435600160a060020a0360243516610db1565b6040805160ff9092168252519081900360200190f35b34801561046857600080fd5b506104206004803560248101910135610dc4565b34801561048857600080fd5b50610494600435610dec565b6040518084815260200180602001838152602001828103825284818151815260200191508051906020019060200280838360005b838110156104e05781810151838201526020016104c8565b5050505090500194505050505060405180910390f35b34801561050257600080fd5b506101d1610f08565b34801561051757600080fd5b5061042061ffff60043516610f69565b34801561053357600080fd5b50610420611065565b34801561054857600080fd5b506103d86110d1565b34801561055d57600080fd5b506104206004803561ffff1690602480359081019101356044356110e0565b34801561058857600080fd5b506102736004356024356114d9565b3480156105a357600080fd5b50610420600160a060020a0360043516611636565b3480156105c457600080fd5b50610420600480359060248035600160a060020a031691604435918201910135611ad9565b3480156105f557600080fd5b50610273600160a060020a0360043516611da6565b34801561061657600080fd5b5061062661ffff60043516611db1565b604051808361ffff1661ffff16815260200180602001828103825283818151815260200191508051906020019060200280838360005b8381101561067457818101518382015260200161065c565b50505050905001935050505060405180910390f35b34801561069557600080fd5b50610273600435611ea7565b3480156106ad57600080fd5b506101d1600435600160a060020a0360243516611eb2565b3480156106d157600080fd5b50610420600160a060020a0360043516611ff1565b3480156106f257600080fd5b506101d1612014565b6060600880548060200260200160405190810160405280929190818152602001828054801561075357602002820191906000526020600020905b8154600160a060020a03168152600190910190602001808311610735575b505050505090505b90565b60028054604080516020601f60001961010060018716150201909416859004938401819004810282018101909252828152606093909290918301828280156107535780601f106107bc57610100808354040283529160200191610753565b820191906000526020600020905b8154815290600101906020018083116107ca57509395945050505050565b6060600b80548060200260200160405190810160405280929190818152602001828054801561075357602002820191906000526020600020906000905b82829054906101000a900461ffff1661ffff16815260200190600201906020826001010492830192600103820291508084116108255790505050505050905090565b600061087282612075565b92915050565b60038054604080516020601f60026000196101006001881615020190951694909404938401819004810282018101909252828152606093909290918301828280156107535780601f106107bc57610100808354040283529160200191610753565b600060608060006108e985612075565b1515610965576040805160e560020a62461bcd02815260206004820152602260248201527f476976656e207061727469636970616e74206973206e6f7420696e206c65616760448201527f7565000000000000000000000000000000000000000000000000000000000000606482015290519081900360840190fd5b600d8054600019870190811061097757fe5b9060005260206000209060030201905080600001548160010182600201818054600181600116156101000203166002900480601f016020809104026020016040519081016040528092919081815260200182805460018160011615610100020316600290048015610a295780601f106109fe57610100808354040283529160200191610a29565b820191906000526020600020905b815481529060010190602001808311610a0c57829003601f168201915b5050845460408051602060026001851615610100026000190190941693909304601f810184900484028201840190925281815295975086945092508401905082828015610ab75780601f10610a8c57610100808354040283529160200191610ab7565b820191906000526020600020905b815481529060010190602001808311610a9a57829003601f168201915b50505050509050935093509350509193909250565b6000610ad78261208c565b1515610b53576040805160e560020a62461bcd02815260206004820152602860248201527f476976656e2066697874757265206973206e6f74207363686564756c6564206960448201527f6e206c6561677565000000000000000000000000000000000000000000000000606482015290519081900360840190fd5b600c80546000198401908110610b6557fe5b9060005260206000209060030201600201549050919050565b600154600160a060020a031690565b6000610b97612379565b600054600160a060020a03163314610bae57600080fd5b610be786868080601f016020809104026020016040519081016040528093929190818152602001838380828437506120a3945050505050565b6000818152600e602052604090205490925060ff1615610c51576040805160e560020a62461bcd02815260206004820152601d60248201527f5061727469636970616e7420616c726561647920696e206c6561677565000000604482015290519081900360640190fd5b85858080601f01602080910402602001604051908101604052809392919081815260200183838082843750505050602080850193909352505060408051601f86018390048302810183019091528481529085908590819084018382808284375050505060408401929092525050600d805460018101808452808355600092909252825160039091027fd7b6990105719101dabeb77144f2a3385c8033acd3af97e9423a695e81ad1eb581019182556020808501518051869493610d3a937fd7b6990105719101dabeb77144f2a3385c8033acd3af97e9423a695e81ad1eb690910192019061239b565b5060408201518051610d5691600284019160209091019061239b565b5050506000838152600e6020908152604091829020805460ff191660011790558351825190815291517f561e78c65705a87f79183e181a2456903f6f4a0edf209667b5e0d7bda085e6019350918290030190a1505050505050565b6000610dbd838361216d565b9392505050565b600054600160a060020a03163314610ddb57600080fd5b610de760058383612419565b505050565b60006060600080610dfc8561208c565b1515610e78576040805160e560020a62461bcd02815260206004820152602860248201527f476976656e2066697874757265206973206e6f74207363686564756c6564206960448201527f6e206c6561677565000000000000000000000000000000000000000000000000606482015290519081900360840190fd5b600c80546000198701908110610e8a57fe5b90600052602060002090600302019050806000015481600101826002015481805480602002602001604051908101604052809291908181526020018280548015610ef357602002820191906000526020600020905b815481526020019060010190808311610edf575b50505050509150935093509350509193909250565b60048054604080516020601f60026000196101006001881615020190951694909404938401819004810282018101909252828152606093909290918301828280156107535780601f106107bc57610100808354040283529160200191610753565b610f72816121c7565b15610fc7576040805160e560020a62461bcd02815260206004820152601860248201527f536561736f6e20616c726561647920737570706f727465640000000000000000604482015290519081900360640190fd5b61ffff8181166000818152600960205260408082208054600160ff199091168117909155600b8054918201815583527f0175b7a638427703f0dbe7bb9bbf987a2551717b34e79f33b5b1008d1fa01db960108204018054600f9092166002026101000a9586021990911694840294909417909355915190917f93d8e6e39c60fb57c0d9aa623448b0ff9bb697d00f01bbb77c02259092f575fe91a250565b600054600160a060020a0316331461107c57600080fd5b60008054604051600160a060020a03909116917ff8df31144d9c2f0f6b59d69b8b98abd5459d07f2742c4df920b25aae33c6482091a26000805473ffffffffffffffffffffffffffffffffffffffff19169055565b600054600160a060020a031681565b60006110ea612487565b611122858580806020026020016040519081016040528093929190818152602001838360200280828437508994506121e09350505050565b915061112d866121c7565b15156111a8576040805160e560020a62461bcd028152602060048201526024808201527f4c656167756520646f6573206e6f7420737570706f727420676976656e20736560448201527f61736f6e00000000000000000000000000000000000000000000000000000000606482015290519081900360840190fd5b6006548414611227576040805160e560020a62461bcd02815260206004820152602960248201527f496e76616c6964206e756d626572206f66207061727469636970616e7473206960448201527f6e20666978747572650000000000000000000000000000000000000000000000606482015290519081900360840190fd5b61125d85858080602002602001604051908101604052809392919081815260200183836020028082843750612296945050505050565b15156112d9576040805160e560020a62461bcd02815260206004820152602960248201527f556e6b6e6f776e207061727469636970616e74207363686564756c656420666f60448201527f7220666978747572650000000000000000000000000000000000000000000000606482015290519081900360840190fd5b428311611330576040805160e560020a62461bcd02815260206004820152601b60248201527f466978747572652068617320616c726561647920737461727465640000000000604482015290519081900360640190fd5b6000828152600e602052604090205460ff1615611397576040805160e560020a62461bcd02815260206004820152601f60248201527f46697874757265206973206475706c69636174656420696e206c656167756500604482015290519081900360640190fd5b600c80546001810180845260408401869052808355600092909252825160039091027fdf6966c971051c3d54ec59162606531493a51404a002842f56009d7e5cf4a8c78101918255602080850151805186949361141a937fdf6966c971051c3d54ec59162606531493a51404a002842f56009d7e5cf4a8c89091019201906124a9565b506040919091015160029091015550600c805486918691600019810190811061143f57fe5b9060005260206000209060030201600101919061145d9291906124e3565b5061ffff86166000908152600a6020908152604080832084518154600181810184559286528486200155858452600e835292819020805460ff19169093179092558251825190815291517f9304e030915ed6da5c27faf048f12f3eae58394969224636eb98a811e84db75f9281900390910190a1505050505050565b60008060006114e785612075565b1515611563576040805160e560020a62461bcd02815260206004820152602260248201527f476976656e207061727469636970616e74206973206e6f7420696e206c65616760448201527f7565000000000000000000000000000000000000000000000000000000000000606482015290519081900360840190fd5b61156c8461208c565b15156115c2576040805160e560020a62461bcd02815260206004820152601e60248201527f476976656e2066697874757265206973206e6f74207363686564756c65640000604482015290519081900360640190fd5b600c805460001986019081106115d457fe5b90600052602060002090600302019150600090505b60018201548110156116295784826001018281548110151561160757fe5b90600052602060002001541415611621576001925061162e565b6001016115e9565b600092505b505092915050565b61163f816122de565b15611694576040805160e560020a62461bcd02815260206004820152601b60248201527f5265736f6c76657220616c726561647920726567697374657265640000000000604482015290519081900360640190fd5b600154604080517fbf40fac1000000000000000000000000000000000000000000000000000000008152602060048201819052601060248301527f5265736f6c76657252656769737472790000000000000000000000000000000060448301529151600160a060020a039093169263bf40fac1926064808401939192918290030181600087803b15801561172757600080fd5b505af115801561173b573d6000803e3d6000fd5b505050506040513d602081101561175157600080fd5b5051604080517fbd01de49000000000000000000000000000000000000000000000000000000008152600160a060020a038481166024830152600482810193845280546002600019610100600184161502019091160460448401819052919094169363bd01de499390928692829160640190859080156118125780601f106117e757610100808354040283529160200191611812565b820191906000526020600020905b8154815290600101906020018083116117f557829003601f168201915b50509350505050602060405180830381600087803b15801561183357600080fd5b505af1158015611847573d6000803e3d6000fd5b505050506040513d602081101561185d57600080fd5b505115156118b5576040805160e560020a62461bcd02815260206004820152601360248201527f43616e6e6f7420757365207265736f6c76657200000000000000000000000000604482015290519081900360640190fd5b6040517fc8c2b6ce00000000000000000000000000000000000000000000000000000000815260206004820190815260028054600019610100600183161502011681900460248401819052600160a060020a0385169363c8c2b6ce9391829160440190849080156119675780601f1061193c57610100808354040283529160200191611967565b820191906000526020600020905b81548152906001019060200180831161194a57829003601f168201915b505092505050602060405180830381600087803b15801561198757600080fd5b505af115801561199b573d6000803e3d6000fd5b505050506040513d60208110156119b157600080fd5b50511515611a2f576040805160e560020a62461bcd02815260206004820152603060248201527f5265736f6c76657220646f6573206e6f7420737570706f72742063757272656e60448201527f74206c65616775652076657273696f6e00000000000000000000000000000000606482015290519081900360840190fd5b600160a060020a0381166000818152600760209081526040808320805460ff191660019081179091556008805491820181559093527ff3f7a9fe364faab93b216da50a3214154f22a0a2b415b23a84c8169e8b636ee3909201805473ffffffffffffffffffffffffffffffffffffffff191684179055815192835290517fdbb45c11bb1a52d58614de4f8ec412497834221dc1eab387e8230b7bc1f527ff9281900390910190a150565b600154604080517fbf40fac1000000000000000000000000000000000000000000000000000000008152602060048201819052601060248301527f436f6e73656e7375734d616e616765720000000000000000000000000000000060448301529151600160a060020a039093169263bf40fac1926064808401939192918290030181600087803b158015611b6c57600080fd5b505af1158015611b80573d6000803e3d6000fd5b505050506040513d6020811015611b9657600080fd5b5051600160a060020a03163314611bac57600080fd5b611bb58461208c565b1515611c31576040805160e560020a62461bcd02815260206004820152602860248201527f476976656e2046697874757265206973206e6f74207363686564756c6564206960448201527f6e206c6561677565000000000000000000000000000000000000000000000000606482015290519081900360840190fd5b611c3a836122de565b1515611cb6576040805160e560020a62461bcd02815260206004820152602660248201527f4c656167756520646f6573206e6f7420737570706f727420676976656e20726560448201527f736f6c7665720000000000000000000000000000000000000000000000000000606482015290519081900360840190fd5b6000848152600f602052604090205460ff161515611ce8576000848152600f60205260409020805460ff191660011790555b6000848152601160209081526040808320600160a060020a038716808552908352818420805460ff19166001179055878452601083528184209084529091529020611d34908383612419565b50837fe256c6663711b1954989cfd3de024e298d0938b5d9e57e8c3fd35ef6f452e93b8484846040518084600160a060020a0316600160a060020a031681526020018060200182810382528484828181526020019250808284376040519201829003965090945050505050a250505050565b6000610872826122de565b60006060611dbe836121c7565b1515611e39576040805160e560020a62461bcd028152602060048201526024808201527f4c656167756520646f6573206e6f7420737570706f727420676976656e20736560448201527f61736f6e00000000000000000000000000000000000000000000000000000000606482015290519081900360840190fd5b61ffff83166000908152600a6020908152604091829020805483518184028101840190945280845286939192839190830182828015611e9757602002820191906000526020600020905b815481526020019060010190808311611e83575b5050505050905091509150915091565b60006108728261208c565b6060611ebe838361216d565b60ff166001141515611f40576040805160e560020a62461bcd02815260206004820152603860248201527f476976656e207265736f6c7665722c20666f7220676976656e2066697874757260448201527f652c20686173206e6f74206265656e207265736f6c7665640000000000000000606482015290519081900360840190fd5b6000838152601060209081526040808320600160a060020a038616845282529182902080548351601f600260001961010060018616150201909316929092049182018490048402810184019094528084529091830182828015611fe45780601f10611fb957610100808354040283529160200191611fe4565b820191906000526020600020905b815481529060010190602001808311611fc757829003601f168201915b5050505050905092915050565b600054600160a060020a0316331461200857600080fd5b612011816122fc565b50565b60058054604080516020601f60026000196101006001881615020190951694909404938401819004810282018101909252828152606093909290918301828280156107535780601f106107bc57610100808354040283529160200191610753565b60008082118015610872575050600d546001011190565b60008082118015610872575050600c546001011190565b6000816040516020018082805190602001908083835b602083106120d85780518252601f1990920191602091820191016120b9565b6001836020036101000a0380198251168184511680821785525050505050509050019150506040516020818303038152906040526040518082805190602001908083835b6020831061213b5780518252601f19909201916020918201910161211c565b5181516020939093036101000a6000190180199091169216919091179052604051920182900390912095945050505050565b6000828152600f602052604081205460ff16151561218d57506000610872565b6000838152601160209081526040808320600160a060020a038616845290915290205460ff166121be576002610dbd565b50600192915050565b61ffff1660009081526009602052604090205460ff1690565b6000828260405160200180838051906020019060200280838360005b838110156122145781810151838201526020016121fc565b50505050905001828152602001925050506040516020818303038152906040526040518082805190602001908083835b602083106122635780518252601f199092019160209182019101612244565b5181516020939093036101000a600019018019909116921691909117905260405192018290039091209695505050505050565b60006001815b83518110156122d7578180156122cd57506122cd84828151811015156122be57fe5b90602001906020020151612075565b915060010161229c565b5092915050565b600160a060020a031660009081526007602052604090205460ff1690565b600160a060020a038116151561231157600080fd5b60008054604051600160a060020a03808516939216917f8be0079c531659141344cd1fd0a4f28419497f9722a3daafe3b4186f6b6457e091a36000805473ffffffffffffffffffffffffffffffffffffffff1916600160a060020a0392909216919091179055565b6060604051908101604052806000815260200160608152602001606081525090565b828054600181600116156101000203166002900490600052602060002090601f016020900481019282601f106123dc57805160ff1916838001178555612409565b82800160010185558215612409579182015b828111156124095782518255916020019190600101906123ee565b5061241592915061251d565b5090565b828054600181600116156101000203166002900490600052602060002090601f016020900481019282601f1061245a5782800160ff19823516178555612409565b82800160010185558215612409579182015b8281111561240957823582559160200191906001019061246c565b6060604051908101604052806000815260200160608152602001600081525090565b82805482825590600052602060002090810192821561240957916020028201828111156124095782518255916020019190600101906123ee565b828054828255906000526020600020908101928215612409579160200282018281111561240957823582559160200191906001019061246c565b61075b91905b8082111561241557600081556001016125235600a165627a7a7230582016815393ac49df2cd1b85f2e05fe6a7b649765ff8af9c5eb3dd399f1f7079a2d0029",
  "source": "pragma solidity ^0.4.24;\n\nimport \"openzeppelin-solidity/contracts/ownership/Ownable.sol\";\n\nimport \"./ILeague001.sol\";\nimport \"./BaseLeague.sol\";\nimport \"../interfaces/IResolverRegistry.sol\";\nimport \"../interfaces/IResolver.sol\";\n\nimport { LeagueLib001 as L } from \"./LeagueLib001.sol\";\n\n\n/**\n * @title League Contract\n */\ncontract League001 is Ownable, ILeague001, BaseLeague {\n\n  // Number of Participants in each fixture\n  uint internal PARTICIPANTS_PER_FIXTURE;\n\n  // Resolver addresses correspond to `true` if registered with league, `false` otherwise\n  mapping(address => bool) internal registeredResolvers;\n  // List of resolver addresses registered with league\n  address[] internal resolvers;\n\n  // Season corresponds to `true` if exists, `false` otherwise\n  mapping(uint16 => bool) internal supportedSeasons;\n  // Season corresponds to list of fixture ids\n  mapping(uint16 => uint[]) internal seasons;\n  // List of seasons\n  uint16[] internal seasonList;\n  // List of all fixtures ever in league\n  L.Fixture[] internal fixtures;\n  // List of participants ever played in league\n  L.Participant[] internal participants;\n\n  // Mapping of fixture hashes to whether they exist, to avoid duplicates\n  // NOTE Think about converting uint fixture ids to bytes32 hashes?\n  mapping(bytes32 => bool) duplicateManager;\n\n  // Fixture ids correspond to `true` if resolved, `false` if not resolved\n  // Being resolved means at least one resolution has been pushed\n  mapping(uint => bool) internal resolved;\n  // fixture => resolver => payload\n  mapping(uint => mapping(address => bytes)) internal resolutions;\n  // fixture => resolver => boolean (whether pushed or not)\n  mapping(uint => mapping(address => bool)) internal pushed;\n\n  // Emit when new Resolver added\n  event LogResolverRegistered(address _resolver);\n  // Emit when new season added\n  event LogSeasonAdded(uint16 indexed _year);\n  // Emit when new fixture added\n  event LogFixtureAdded(uint _id);\n  // Emit when new participant added\n  event LogParticipantAdded(uint _id);\n  // Emit when a Fixture is resolved, by resolver\n  event LogFixtureResolved(uint indexed _fixtureId, address _resolver, bytes _payload);\n\n  /**\n   * @notice Constructor\n   * @param _class Class of league\n   * @param _name Name of league\n   * @param _version Version of league\n   * @param _registry Address of the FansUnite Registry Contact\n   * @param _participantsPerFixture Number of participants allowed per fixture\n   */\n  constructor(\n    string _class,\n    string _name,\n    string _version,\n    address _registry,\n    uint _participantsPerFixture\n  )\n    public\n    BaseLeague(_class, _name, _version, _registry)\n  {\n    PARTICIPANTS_PER_FIXTURE = _participantsPerFixture;\n  }\n\n  /**\n   * @dev Throw is called by any account other than consensus\n   */\n  modifier onlyConsensus() {\n    require(msg.sender == registry.getAddress(\"ConsensusManager\"));\n    _;\n  }\n\n  ///////////////////////////////////////////////////////////////////////////////\n  ///////////////////////////// external functions //////////////////////////////\n  ///////////////////////////////////////////////////////////////////////////////\n\n  /**\n   * @notice Adds resolver with address `_resolver` to league\n   * @dev fails if `_resolver` is not registered with FansUnite's Resolver Registry\n   * @param _resolver Address of the resolver contract\n   */\n  function registerResolver(address _resolver) external {\n    require(\n      !_isResolverRegistered(_resolver),\n      \"Resolver already registered\"\n    );\n    require(\n      IResolverRegistry(registry.getAddress(\"ResolverRegistry\")).useResolver(class, _resolver),\n      \"Cannot use resolver\"\n    );\n    require(\n      IResolver(_resolver).doesSupportVersion(version),\n      \"Resolver does not support current league version\"\n    );\n\n    registeredResolvers[_resolver] = true;\n    resolvers.push(_resolver);\n\n    emit LogResolverRegistered(_resolver);\n  }\n\n  /**\n   * @notice Adds a resolution payload for fixture with id `_fixtureId` and resolver `_resolver`\n   * @param _fixtureId Id of the fixture being resolved\n   * @param _resolver Address of the resolver that can resolve _payload\n   * @param _payload Encoded resolution payload\n   */\n  function pushResolution(uint _fixtureId, address _resolver, bytes _payload)\n    external\n    onlyConsensus\n  {\n    // TODO Reduce duplication when multiple resolvers use the same payload\n    // _payload can be 0x, should result in bet cancellation\n    // _payload can be 0x00..00, would be passed as valid resolution payload to resolvers\n    require(_isFixtureScheduled(_fixtureId), \"Given Fixture is not scheduled in league\");\n    require(_isResolverRegistered(_resolver), \"League does not support given resolver\");\n\n    if (!resolved[_fixtureId]) resolved[_fixtureId] = true;\n    pushed[_fixtureId][_resolver] = true;\n    resolutions[_fixtureId][_resolver] = _payload;\n\n    emit LogFixtureResolved(_fixtureId, _resolver, _payload);\n  }\n\n  /**\n   * @notice Starts a new season with year `_year`\n   * @param _year Year of the first fixture in new season\n   */\n  function addSeason(uint16 _year) external {\n    require(!_isSeasonSupported(_year), \"Season already supported\");\n\n    supportedSeasons[_year] = true;\n    seasonList.push(_year);\n\n    emit LogSeasonAdded(_year);\n  }\n\n  /**\n   * @notice Creates a new fixture for the on-going season\n   * @param _season Season of fixture\n   * @param _participants ids of participants in event\n   * @param _start Start time (unix timestamp)\n   */\n  function scheduleFixture(uint16 _season, uint[] _participants, uint _start) external {\n    bytes32 _hash = L.hashRawFixture(_participants, _start);\n\n    require(\n      _isSeasonSupported(_season),\n      \"League does not support given season\"\n    );\n    require(\n      _participants.length == PARTICIPANTS_PER_FIXTURE,\n      \"Invalid number of participants in fixture\"\n    );\n    require(\n      _areParticipants(_participants),\n      \"Unknown participant scheduled for fixture\"\n    );\n    require(\n      _start > block.timestamp,\n      \"Fixture has already started\"\n    );\n    require(\n      !duplicateManager[_hash],\n      \"Fixture is duplicated in league\"\n    );\n\n    L.Fixture memory _fixture;\n    _fixture.id = fixtures.length + 1;\n    _fixture.start = _start;\n    fixtures.push(_fixture);\n    fixtures[fixtures.length - 1].participants = _participants;\n    seasons[_season].push(_fixture.id);\n    duplicateManager[_hash] = true;\n\n    emit LogFixtureAdded(_fixture.id);\n  }\n\n  /**\n   * @notice Adds a new participant to the league\n   * @param _name Name of the participant - should match pattern /[a-zA-Z ]+/\n   * @param _details Off-chain hash of participant details\n   */\n  function addParticipant(string _name, bytes _details) external onlyOwner {\n    bytes32 _hash = L.hashRawParticipant(_name);\n\n    require(\n      !duplicateManager[_hash],\n      \"Participant already in league\"\n    );\n\n    L.Participant memory _participant;\n    _participant.name = _name;\n    _participant.details = _details;\n    _participant.id = participants.length + 1;\n    participants.push(_participant);\n    duplicateManager[_hash] = true;\n\n    emit LogParticipantAdded(_participant.id);\n  }\n\n\n  ///////////////////////////////////////////////////////////////////////////////\n  ///////////////////////////// external view functions /////////////////////////\n  ///////////////////////////////////////////////////////////////////////////////\n\n\n  /**\n   * @notice Gets resolution payload for fixture `_fixtureId` and resolver `_resolver`\n   * @dev Requires the fixture `_fixtureId` to be resolved for resolver `_resolver`\n   * @param _fixtureId Id of the payload's corresponding fixture\n   * @param _resolver Address of the payload's corresponding resolver\n   * @return Resolution payload for fixture `_fixtureId` and resolver `_resolver`\n   */\n  function getResolution(uint _fixtureId, address _resolver) external view returns (bytes) {\n    require(\n      _isFixtureResolved(_fixtureId, _resolver) == 1,\n      \"Given resolver, for given fixture, has not been resolved\"\n    );\n\n    return resolutions[_fixtureId][_resolver];\n  }\n\n  /**\n   * @notice Gets all resolvers in league\n   * @return Addresses of all resolvers registered in league\n   */\n  function getResolvers() external view returns (address[]) {\n    return resolvers;\n  }\n\n  /**\n   * @notice Gets a list of all seasons in league\n   * @return Years of all seasons in league\n   */\n  function getSeasons() external view returns (uint16[]) {\n    return seasonList;\n  }\n\n  /**\n   * @notice Gets the season with year `_year`\n   * @param _year Year of the season\n   * @return Year of the season\n   * @return Ids fixtures scheduled in season `_year`\n   */\n  function getSeason(uint16 _year) external view returns (uint16, uint[]) {\n    require(_isSeasonSupported(_year), \"League does not support given season\");\n\n    return (_year, seasons[_year]);\n  }\n\n  /**\n   * @notice Gets start time for fixture `_fixture`\n   * @param _fixture Id of fixture\n   * @return start time of fixture `_fixture`\n   */\n  function getFixtureStart(uint _fixture) external view returns (uint) {\n    require(_isFixtureScheduled(_fixture), \"Given fixture is not scheduled in league\");\n\n    return fixtures[_fixture - 1].start;\n  }\n\n  /**\n   * @notice Gets scheduled fixture with id `_id`\n   * @param _id Id of the scheduled fixture\n   * @return Fixture id\n   * @return Participant Ids\n   * @return Start time\n   */\n  function getFixture(uint _id) external view returns (uint, uint[], uint) {\n    require(_isFixtureScheduled(_id), \"Given fixture is not scheduled in league\");\n\n    L.Fixture storage _fixture = fixtures[_id - 1];\n    return (_fixture.id, _fixture.participants, _fixture.start);\n  }\n\n  /**\n   * @notice Gets participant in league with id `_id`\n   * @param _id Id of the participant\n   * @return Participant Id\n   * @return Participant name\n   * @return Details of Participant (hash)\n   */\n  function getParticipant(uint _id) external view returns (uint, string, bytes) {\n    require(_isParticipant(_id), \"Given participant is not in league\");\n\n    L.Participant storage _participant = participants[_id - 1];\n    return (_participant.id, _participant.name, _participant.details);\n  }\n\n  /**\n   * @notice Checks if resolver with address `_resolver` is registered with league\n   * @param _resolver Address of the resolver\n   * @return `true` if resolver is registered with league, `false` otherwise\n   */\n  function isResolverRegistered(address _resolver) external view returns (bool) {\n    return _isResolverRegistered(_resolver);\n  }\n\n  /**\n   * @notice Checks if fixture with id `_id` has been scheduled in league\n   * @param _id Id of the fixture\n   * @return `true` if fixture with id `_id` is scheduled, `false` otherwise\n   */\n  function isFixtureScheduled(uint _id) external view returns (bool) {\n    return _isFixtureScheduled(_id);\n  }\n\n  /**\n   * @notice Checks if fixture with id `_id` has been resolved for resolver `_resolver`\n   * @dev A fixture is resolved if at least one resolver receives resolution payload\n   * @dev It is possible that some resolvers do not get resolution payloads from oracles\n   * @param _id Id of the fixture\n   * @param _resolver Address of the resolver\n   * @return `0` if fixture is not resolved, `1` if fixture is resolved and for resolver `_resolver`,\n   *  `2` if fixture is resolved but resolver `_resolver\n   */\n  function isFixtureResolved(uint _id, address _resolver) external view returns (uint8) {\n    return _isFixtureResolved(_id, _resolver);\n  }\n\n  /**\n   * @notice Checks if participant id `_id` is valid\n   * @param _id Id of the participant\n   * @return `true` if participant id `_id` is valid, `false` otherwise\n   */\n  function isParticipant(uint _id) external view returns (bool) {\n    return _isParticipant(_id);\n  }\n\n  /**\n   * @notice Checks if participant `_participantId` is playing in fixture `_fixtureId`\n   * @param _participantId Id of the participant\n   * @param _fixtureId Id of the fixture\n   * @return `true` if participant `_participantId` is scheduled in for fixture `_fixtureId`\n   */\n  function isParticipantScheduled(uint _participantId, uint _fixtureId)\n    external\n    view\n    returns (bool)\n  {\n    require(_isParticipant(_participantId), \"Given participant is not in league\");\n    require(_isFixtureScheduled(_fixtureId), \"Given fixture is not scheduled\");\n\n    L.Fixture storage _fixture = fixtures[_fixtureId - 1];\n    for (uint i = 0; i < _fixture.participants.length; i++)\n      if (_fixture.participants[i] == _participantId) return true;\n    return false;\n  }\n\n\n  ///////////////////////////////////////////////////////////////////////////////\n  ///////////////////////////// internal view functions /////////////////////////\n  ///////////////////////////////////////////////////////////////////////////////\n\n\n  // internal isParticipant\n  function _isResolverRegistered(address _resolver) internal view returns (bool) {\n    return registeredResolvers[_resolver];\n  }\n\n  // internal isFixtureScheduled\n  function _isFixtureScheduled(uint _id) internal view returns (bool) {\n    return _id > 0 && _id < fixtures.length + 1;\n  }\n\n  // internal isFixtureResolved\n  function _isFixtureResolved(uint _id, address _resolver) internal view returns (uint8) {\n    if (!resolved[_id])\n      return 0;\n    return pushed[_id][_resolver] ? 1 : 2;\n  }\n\n  // internal isParticipant\n  function _isParticipant(uint _id) internal view returns (bool) {\n    return _id > 0 && _id < participants.length + 1;\n  }\n\n  // validate all participants\n  function _areParticipants(uint[] _participants) internal view returns (bool) {\n    bool _valid = true;\n    for (uint i = 0; i < _participants.length; i++) {\n      _valid = _valid && _isParticipant(_participants[i]);\n    }\n    return _valid;\n  }\n\n  // internal isSeasonSupported\n  function _isSeasonSupported(uint16 _year) internal view returns (bool) {\n    return supportedSeasons[_year];\n  }\n\n}\n",
  "sourcePath": "/Users/ryancimoszko/fu/fansunite-js/node_modules/fansunite-core/contracts/leagues/League001.sol",
  "compiler": {
    "name": "solc",
    "version": "0.4.24+commit.e67f0147.Emscripten.clang"
  },
  "schemaVersion": "2.0.1",
  "updatedAt": "2018-10-02T17:10:12.409Z"
}