{
  "contractName": "League001",
  "abi": [
    {
      "constant": true,
      "inputs": [],
      "name": "getVersion",
      "outputs": [
        {
          "name": "",
          "type": "string"
        }
      ],
      "payable": false,
      "stateMutability": "view",
      "type": "function"
    },
    {
      "constant": true,
      "inputs": [],
      "name": "getName",
      "outputs": [
        {
          "name": "",
          "type": "string"
        }
      ],
      "payable": false,
      "stateMutability": "view",
      "type": "function"
    },
    {
      "constant": true,
      "inputs": [],
      "name": "getRegistryContract",
      "outputs": [
        {
          "name": "",
          "type": "address"
        }
      ],
      "payable": false,
      "stateMutability": "view",
      "type": "function"
    },
    {
      "constant": false,
      "inputs": [
        {
          "name": "_details",
          "type": "bytes"
        }
      ],
      "name": "setDetails",
      "outputs": [],
      "payable": false,
      "stateMutability": "nonpayable",
      "type": "function"
    },
    {
      "constant": true,
      "inputs": [],
      "name": "getClass",
      "outputs": [
        {
          "name": "",
          "type": "string"
        }
      ],
      "payable": false,
      "stateMutability": "view",
      "type": "function"
    },
    {
      "constant": false,
      "inputs": [],
      "name": "renounceOwnership",
      "outputs": [],
      "payable": false,
      "stateMutability": "nonpayable",
      "type": "function"
    },
    {
      "constant": true,
      "inputs": [],
      "name": "owner",
      "outputs": [
        {
          "name": "",
          "type": "address"
        }
      ],
      "payable": false,
      "stateMutability": "view",
      "type": "function"
    },
    {
      "constant": false,
      "inputs": [
        {
          "name": "_newOwner",
          "type": "address"
        }
      ],
      "name": "transferOwnership",
      "outputs": [],
      "payable": false,
      "stateMutability": "nonpayable",
      "type": "function"
    },
    {
      "constant": true,
      "inputs": [],
      "name": "getDetails",
      "outputs": [
        {
          "name": "",
          "type": "bytes"
        }
      ],
      "payable": false,
      "stateMutability": "view",
      "type": "function"
    },
    {
      "inputs": [
        {
          "name": "_class",
          "type": "string"
        },
        {
          "name": "_name",
          "type": "string"
        },
        {
          "name": "_version",
          "type": "string"
        },
        {
          "name": "_registry",
          "type": "address"
        },
        {
          "name": "_participantsPerFixture",
          "type": "uint256"
        }
      ],
      "payable": false,
      "stateMutability": "nonpayable",
      "type": "constructor"
    },
    {
      "anonymous": false,
      "inputs": [
        {
          "indexed": false,
          "name": "_resolver",
          "type": "address"
        }
      ],
      "name": "LogResolverRegistered",
      "type": "event"
    },
    {
      "anonymous": false,
      "inputs": [
        {
          "indexed": true,
          "name": "_year",
          "type": "uint16"
        }
      ],
      "name": "LogSeasonAdded",
      "type": "event"
    },
    {
      "anonymous": false,
      "inputs": [
        {
          "indexed": false,
          "name": "_id",
          "type": "uint256"
        }
      ],
      "name": "LogFixtureAdded",
      "type": "event"
    },
    {
      "anonymous": false,
      "inputs": [
        {
          "indexed": false,
          "name": "_id",
          "type": "uint256"
        }
      ],
      "name": "LogParticipantAdded",
      "type": "event"
    },
    {
      "anonymous": false,
      "inputs": [
        {
          "indexed": true,
          "name": "_fixtureId",
          "type": "uint256"
        },
        {
          "indexed": false,
          "name": "_resolver",
          "type": "address"
        },
        {
          "indexed": false,
          "name": "_payload",
          "type": "bytes"
        }
      ],
      "name": "LogFixtureResolved",
      "type": "event"
    },
    {
      "anonymous": false,
      "inputs": [
        {
          "indexed": true,
          "name": "previousOwner",
          "type": "address"
        }
      ],
      "name": "OwnershipRenounced",
      "type": "event"
    },
    {
      "anonymous": false,
      "inputs": [
        {
          "indexed": true,
          "name": "previousOwner",
          "type": "address"
        },
        {
          "indexed": true,
          "name": "newOwner",
          "type": "address"
        }
      ],
      "name": "OwnershipTransferred",
      "type": "event"
    },
    {
      "constant": false,
      "inputs": [
        {
          "name": "_resolver",
          "type": "address"
        }
      ],
      "name": "registerResolver",
      "outputs": [],
      "payable": false,
      "stateMutability": "nonpayable",
      "type": "function"
    },
    {
      "constant": false,
      "inputs": [
        {
          "name": "_fixtureId",
          "type": "uint256"
        },
        {
          "name": "_resolver",
          "type": "address"
        },
        {
          "name": "_payload",
          "type": "bytes"
        }
      ],
      "name": "pushResolution",
      "outputs": [],
      "payable": false,
      "stateMutability": "nonpayable",
      "type": "function"
    },
    {
      "constant": false,
      "inputs": [
        {
          "name": "_year",
          "type": "uint16"
        }
      ],
      "name": "addSeason",
      "outputs": [],
      "payable": false,
      "stateMutability": "nonpayable",
      "type": "function"
    },
    {
      "constant": false,
      "inputs": [
        {
          "name": "_season",
          "type": "uint16"
        },
        {
          "name": "_participants",
          "type": "uint256[]"
        },
        {
          "name": "_start",
          "type": "uint256"
        }
      ],
      "name": "scheduleFixture",
      "outputs": [],
      "payable": false,
      "stateMutability": "nonpayable",
      "type": "function"
    },
    {
      "constant": false,
      "inputs": [
        {
          "name": "_name",
          "type": "string"
        },
        {
          "name": "_details",
          "type": "bytes"
        }
      ],
      "name": "addParticipant",
      "outputs": [],
      "payable": false,
      "stateMutability": "nonpayable",
      "type": "function"
    },
    {
      "constant": true,
      "inputs": [
        {
          "name": "_fixtureId",
          "type": "uint256"
        },
        {
          "name": "_resolver",
          "type": "address"
        }
      ],
      "name": "getResolution",
      "outputs": [
        {
          "name": "",
          "type": "bytes"
        }
      ],
      "payable": false,
      "stateMutability": "view",
      "type": "function"
    },
    {
      "constant": true,
      "inputs": [],
      "name": "getResolvers",
      "outputs": [
        {
          "name": "",
          "type": "address[]"
        }
      ],
      "payable": false,
      "stateMutability": "view",
      "type": "function"
    },
    {
      "constant": true,
      "inputs": [],
      "name": "getSeasons",
      "outputs": [
        {
          "name": "",
          "type": "uint16[]"
        }
      ],
      "payable": false,
      "stateMutability": "view",
      "type": "function"
    },
    {
      "constant": true,
      "inputs": [
        {
          "name": "_year",
          "type": "uint16"
        }
      ],
      "name": "getSeason",
      "outputs": [
        {
          "name": "",
          "type": "uint16"
        },
        {
          "name": "",
          "type": "uint256[]"
        }
      ],
      "payable": false,
      "stateMutability": "view",
      "type": "function"
    },
    {
      "constant": true,
      "inputs": [
        {
          "name": "_fixture",
          "type": "uint256"
        }
      ],
      "name": "getFixtureStart",
      "outputs": [
        {
          "name": "",
          "type": "uint256"
        }
      ],
      "payable": false,
      "stateMutability": "view",
      "type": "function"
    },
    {
      "constant": true,
      "inputs": [
        {
          "name": "_id",
          "type": "uint256"
        }
      ],
      "name": "getFixture",
      "outputs": [
        {
          "name": "",
          "type": "uint256"
        },
        {
          "name": "",
          "type": "uint256[]"
        },
        {
          "name": "",
          "type": "uint256"
        }
      ],
      "payable": false,
      "stateMutability": "view",
      "type": "function"
    },
    {
      "constant": true,
      "inputs": [
        {
          "name": "_id",
          "type": "uint256"
        }
      ],
      "name": "getParticipant",
      "outputs": [
        {
          "name": "",
          "type": "uint256"
        },
        {
          "name": "",
          "type": "string"
        },
        {
          "name": "",
          "type": "bytes"
        }
      ],
      "payable": false,
      "stateMutability": "view",
      "type": "function"
    },
    {
      "constant": true,
      "inputs": [],
      "name": "getParticipantCount",
      "outputs": [
        {
          "name": "",
          "type": "uint256"
        }
      ],
      "payable": false,
      "stateMutability": "view",
      "type": "function"
    },
    {
      "constant": true,
      "inputs": [
        {
          "name": "_resolver",
          "type": "address"
        }
      ],
      "name": "isResolverRegistered",
      "outputs": [
        {
          "name": "",
          "type": "bool"
        }
      ],
      "payable": false,
      "stateMutability": "view",
      "type": "function"
    },
    {
      "constant": true,
      "inputs": [
        {
          "name": "_id",
          "type": "uint256"
        }
      ],
      "name": "isFixtureScheduled",
      "outputs": [
        {
          "name": "",
          "type": "bool"
        }
      ],
      "payable": false,
      "stateMutability": "view",
      "type": "function"
    },
    {
      "constant": true,
      "inputs": [
        {
          "name": "_id",
          "type": "uint256"
        },
        {
          "name": "_resolver",
          "type": "address"
        }
      ],
      "name": "isFixtureResolved",
      "outputs": [
        {
          "name": "",
          "type": "uint8"
        }
      ],
      "payable": false,
      "stateMutability": "view",
      "type": "function"
    },
    {
      "constant": true,
      "inputs": [
        {
          "name": "_id",
          "type": "uint256"
        }
      ],
      "name": "isParticipant",
      "outputs": [
        {
          "name": "",
          "type": "bool"
        }
      ],
      "payable": false,
      "stateMutability": "view",
      "type": "function"
    },
    {
      "constant": true,
      "inputs": [
        {
          "name": "_participantId",
          "type": "uint256"
        },
        {
          "name": "_fixtureId",
          "type": "uint256"
        }
      ],
      "name": "isParticipantScheduled",
      "outputs": [
        {
          "name": "",
          "type": "bool"
        }
      ],
      "payable": false,
      "stateMutability": "view",
      "type": "function"
    }
  ],
  "bytecode": "0x60806040523480156200001157600080fd5b506040516200271638038062002716833981016040908152815160208084015192840151606085015160808601516000805433600160a060020a03199182161790915560018054909116600160a060020a03841617905593860180519096958601959290920193909290918691869186918691620000969160049190870190620000d8565b508251620000ac906003906020860190620000d8565b508151620000c2906002906020850190620000d8565b505050600692909255506200017d945050505050565b828054600181600116156101000203166002900490600052602060002090601f016020900481019282601f106200011b57805160ff19168380011785556200014b565b828001600101855582156200014b579182015b828111156200014b5782518255916020019190600101906200012e565b50620001599291506200015d565b5090565b6200017a91905b8082111562000159576000815560010162000164565b90565b612589806200018d6000396000f30060806040526004361061015d5763ffffffff7c0100000000000000000000000000000000000000000000000000000000600035041662aeb7d281146101625780630d8e6e2c146101c75780630f36c47f14610251578063111953ac1461026657806317d7de7c146102925780631b9db2ef146102a75780632cb0a2e5146103a457806336ca3d73146103ce578063376111c2146103ff57806342813bcc1461042d5780634f26df4e1461046757806354d0940d1461048757806357e61ea4146105015780635c3775c914610516578063715018a6146105325780638da5cb5b14610547578063922c20ab1461055c57806393ffd670146105875780639f3e1b53146105a2578063a3c8f739146105c3578063a782c229146105f4578063ad60572914610615578063cb378bba1461062a578063e239c952146106a9578063e78341e6146106c1578063f2fde38b146106e5578063fbbf93a014610706575b600080fd5b34801561016e57600080fd5b5061017761071b565b60408051602080825283518183015283519192839290830191858101910280838360005b838110156101b357818101518382015260200161019b565b505050509050019250505060405180910390f35b3480156101d357600080fd5b506101dc61077e565b6040805160208082528351818301528351919283929083019185019080838360005b838110156102165781810151838201526020016101fe565b50505050905090810190601f1680156102435780820380516001836020036101000a031916815260200191505b509250505060405180910390f35b34801561025d57600080fd5b50610177610808565b34801561027257600080fd5b5061027e600435610887565b604080519115158252519081900360200190f35b34801561029e57600080fd5b506101dc610898565b3480156102b357600080fd5b506102bf6004356108f9565b604051808481526020018060200180602001838103835285818151815260200191508051906020019080838360005b838110156103065781810151838201526020016102ee565b50505050905090810190601f1680156103335780820380516001836020036101000a031916815260200191505b50838103825284518152845160209182019186019080838360005b8381101561036657818101518382015260200161034e565b50505050905090810190601f1680156103935780820380516001836020036101000a031916815260200191505b509550505050505060405180910390f35b3480156103b057600080fd5b506103bc600435610aec565b60408051918252519081900360200190f35b3480156103da57600080fd5b506103e3610b9e565b60408051600160a060020a039092168252519081900360200190f35b34801561040b57600080fd5b5061042b6024600480358281019290820135918135918201910135610bad565b005b34801561043957600080fd5b50610451600435600160a060020a0360243516610dd1565b6040805160ff9092168252519081900360200190f35b34801561047357600080fd5b5061042b6004803560248101910135610de4565b34801561049357600080fd5b5061049f600435610e0c565b6040518084815260200180602001838152602001828103825284818151815260200191508051906020019060200280838360005b838110156104eb5781810151838201526020016104d3565b5050505090500194505050505060405180910390f35b34801561050d57600080fd5b506101dc610f28565b34801561052257600080fd5b5061042b61ffff60043516610f89565b34801561053e57600080fd5b5061042b611085565b34801561055357600080fd5b506103e36110f1565b34801561056857600080fd5b5061042b6004803561ffff169060248035908101910135604435611100565b34801561059357600080fd5b5061027e6004356024356114f9565b3480156105ae57600080fd5b5061042b600160a060020a0360043516611656565b3480156105cf57600080fd5b5061042b600480359060248035600160a060020a031691604435918201910135611af9565b34801561060057600080fd5b5061027e600160a060020a0360043516611dc6565b34801561062157600080fd5b506103bc611dd1565b34801561063657600080fd5b5061064661ffff60043516611dd7565b604051808361ffff1661ffff16815260200180602001828103825283818151815260200191508051906020019060200280838360005b8381101561069457818101518382015260200161067c565b50505050905001935050505060405180910390f35b3480156106b557600080fd5b5061027e600435611ecd565b3480156106cd57600080fd5b506101dc600435600160a060020a0360243516611ed8565b3480156106f157600080fd5b5061042b600160a060020a0360043516612017565b34801561071257600080fd5b506101dc61203a565b6060600880548060200260200160405190810160405280929190818152602001828054801561077357602002820191906000526020600020905b8154600160a060020a03168152600190910190602001808311610755575b505050505090505b90565b60028054604080516020601f60001961010060018716150201909416859004938401819004810282018101909252828152606093909290918301828280156107735780601f106107dc57610100808354040283529160200191610773565b820191906000526020600020905b8154815290600101906020018083116107ea57509395945050505050565b6060600b80548060200260200160405190810160405280929190818152602001828054801561077357602002820191906000526020600020906000905b82829054906101000a900461ffff1661ffff16815260200190600201906020826001010492830192600103820291508084116108455790505050505050905090565b60006108928261209b565b92915050565b60038054604080516020601f60026000196101006001881615020190951694909404938401819004810282018101909252828152606093909290918301828280156107735780601f106107dc57610100808354040283529160200191610773565b600060608060006109098561209b565b1515610985576040805160e560020a62461bcd02815260206004820152602260248201527f476976656e207061727469636970616e74206973206e6f7420696e206c65616760448201527f7565000000000000000000000000000000000000000000000000000000000000606482015290519081900360840190fd5b600d8054600019870190811061099757fe5b9060005260206000209060030201905080600001548160010182600201818054600181600116156101000203166002900480601f016020809104026020016040519081016040528092919081815260200182805460018160011615610100020316600290048015610a495780601f10610a1e57610100808354040283529160200191610a49565b820191906000526020600020905b815481529060010190602001808311610a2c57829003601f168201915b5050845460408051602060026001851615610100026000190190941693909304601f810184900484028201840190925281815295975086945092508401905082828015610ad75780601f10610aac57610100808354040283529160200191610ad7565b820191906000526020600020905b815481529060010190602001808311610aba57829003601f168201915b50505050509050935093509350509193909250565b6000610af7826120b2565b1515610b73576040805160e560020a62461bcd02815260206004820152602860248201527f476976656e2066697874757265206973206e6f74207363686564756c6564206960448201527f6e206c6561677565000000000000000000000000000000000000000000000000606482015290519081900360840190fd5b600c80546000198401908110610b8557fe5b9060005260206000209060030201600201549050919050565b600154600160a060020a031690565b6000610bb761239f565b600054600160a060020a03163314610bce57600080fd5b610c0786868080601f016020809104026020016040519081016040528093929190818152602001838380828437506120c9945050505050565b6000818152600e602052604090205490925060ff1615610c71576040805160e560020a62461bcd02815260206004820152601d60248201527f5061727469636970616e7420616c726561647920696e206c6561677565000000604482015290519081900360640190fd5b85858080601f01602080910402602001604051908101604052809392919081815260200183838082843750505050602080850193909352505060408051601f86018390048302810183019091528481529085908590819084018382808284375050505060408401929092525050600d805460018101808452808355600092909252825160039091027fd7b6990105719101dabeb77144f2a3385c8033acd3af97e9423a695e81ad1eb581019182556020808501518051869493610d5a937fd7b6990105719101dabeb77144f2a3385c8033acd3af97e9423a695e81ad1eb69091019201906123c1565b5060408201518051610d769160028401916020909101906123c1565b5050506000838152600e6020908152604091829020805460ff191660011790558351825190815291517f561e78c65705a87f79183e181a2456903f6f4a0edf209667b5e0d7bda085e6019350918290030190a1505050505050565b6000610ddd8383612193565b9392505050565b600054600160a060020a03163314610dfb57600080fd5b610e076005838361243f565b505050565b60006060600080610e1c856120b2565b1515610e98576040805160e560020a62461bcd02815260206004820152602860248201527f476976656e2066697874757265206973206e6f74207363686564756c6564206960448201527f6e206c6561677565000000000000000000000000000000000000000000000000606482015290519081900360840190fd5b600c80546000198701908110610eaa57fe5b90600052602060002090600302019050806000015481600101826002015481805480602002602001604051908101604052809291908181526020018280548015610f1357602002820191906000526020600020905b815481526020019060010190808311610eff575b50505050509150935093509350509193909250565b60048054604080516020601f60026000196101006001881615020190951694909404938401819004810282018101909252828152606093909290918301828280156107735780601f106107dc57610100808354040283529160200191610773565b610f92816121ed565b15610fe7576040805160e560020a62461bcd02815260206004820152601860248201527f536561736f6e20616c726561647920737570706f727465640000000000000000604482015290519081900360640190fd5b61ffff8181166000818152600960205260408082208054600160ff199091168117909155600b8054918201815583527f0175b7a638427703f0dbe7bb9bbf987a2551717b34e79f33b5b1008d1fa01db960108204018054600f9092166002026101000a9586021990911694840294909417909355915190917f93d8e6e39c60fb57c0d9aa623448b0ff9bb697d00f01bbb77c02259092f575fe91a250565b600054600160a060020a0316331461109c57600080fd5b60008054604051600160a060020a03909116917ff8df31144d9c2f0f6b59d69b8b98abd5459d07f2742c4df920b25aae33c6482091a26000805473ffffffffffffffffffffffffffffffffffffffff19169055565b600054600160a060020a031681565b600061110a6124ad565b611142858580806020026020016040519081016040528093929190818152602001838360200280828437508994506122069350505050565b915061114d866121ed565b15156111c8576040805160e560020a62461bcd028152602060048201526024808201527f4c656167756520646f6573206e6f7420737570706f727420676976656e20736560448201527f61736f6e00000000000000000000000000000000000000000000000000000000606482015290519081900360840190fd5b6006548414611247576040805160e560020a62461bcd02815260206004820152602960248201527f496e76616c6964206e756d626572206f66207061727469636970616e7473206960448201527f6e20666978747572650000000000000000000000000000000000000000000000606482015290519081900360840190fd5b61127d858580806020026020016040519081016040528093929190818152602001838360200280828437506122bc945050505050565b15156112f9576040805160e560020a62461bcd02815260206004820152602960248201527f556e6b6e6f776e207061727469636970616e74207363686564756c656420666f60448201527f7220666978747572650000000000000000000000000000000000000000000000606482015290519081900360840190fd5b428311611350576040805160e560020a62461bcd02815260206004820152601b60248201527f466978747572652068617320616c726561647920737461727465640000000000604482015290519081900360640190fd5b6000828152600e602052604090205460ff16156113b7576040805160e560020a62461bcd02815260206004820152601f60248201527f46697874757265206973206475706c69636174656420696e206c656167756500604482015290519081900360640190fd5b600c80546001810180845260408401869052808355600092909252825160039091027fdf6966c971051c3d54ec59162606531493a51404a002842f56009d7e5cf4a8c78101918255602080850151805186949361143a937fdf6966c971051c3d54ec59162606531493a51404a002842f56009d7e5cf4a8c89091019201906124cf565b506040919091015160029091015550600c805486918691600019810190811061145f57fe5b9060005260206000209060030201600101919061147d929190612509565b5061ffff86166000908152600a6020908152604080832084518154600181810184559286528486200155858452600e835292819020805460ff19169093179092558251825190815291517f9304e030915ed6da5c27faf048f12f3eae58394969224636eb98a811e84db75f9281900390910190a1505050505050565b60008060006115078561209b565b1515611583576040805160e560020a62461bcd02815260206004820152602260248201527f476976656e207061727469636970616e74206973206e6f7420696e206c65616760448201527f7565000000000000000000000000000000000000000000000000000000000000606482015290519081900360840190fd5b61158c846120b2565b15156115e2576040805160e560020a62461bcd02815260206004820152601e60248201527f476976656e2066697874757265206973206e6f74207363686564756c65640000604482015290519081900360640190fd5b600c805460001986019081106115f457fe5b90600052602060002090600302019150600090505b60018201548110156116495784826001018281548110151561162757fe5b90600052602060002001541415611641576001925061164e565b600101611609565b600092505b505092915050565b61165f81612304565b156116b4576040805160e560020a62461bcd02815260206004820152601b60248201527f5265736f6c76657220616c726561647920726567697374657265640000000000604482015290519081900360640190fd5b600154604080517fbf40fac1000000000000000000000000000000000000000000000000000000008152602060048201819052601060248301527f5265736f6c76657252656769737472790000000000000000000000000000000060448301529151600160a060020a039093169263bf40fac1926064808401939192918290030181600087803b15801561174757600080fd5b505af115801561175b573d6000803e3d6000fd5b505050506040513d602081101561177157600080fd5b5051604080517fbd01de49000000000000000000000000000000000000000000000000000000008152600160a060020a038481166024830152600482810193845280546002600019610100600184161502019091160460448401819052919094169363bd01de499390928692829160640190859080156118325780601f1061180757610100808354040283529160200191611832565b820191906000526020600020905b81548152906001019060200180831161181557829003601f168201915b50509350505050602060405180830381600087803b15801561185357600080fd5b505af1158015611867573d6000803e3d6000fd5b505050506040513d602081101561187d57600080fd5b505115156118d5576040805160e560020a62461bcd02815260206004820152601360248201527f43616e6e6f7420757365207265736f6c76657200000000000000000000000000604482015290519081900360640190fd5b6040517fc8c2b6ce00000000000000000000000000000000000000000000000000000000815260206004820190815260028054600019610100600183161502011681900460248401819052600160a060020a0385169363c8c2b6ce9391829160440190849080156119875780601f1061195c57610100808354040283529160200191611987565b820191906000526020600020905b81548152906001019060200180831161196a57829003601f168201915b505092505050602060405180830381600087803b1580156119a757600080fd5b505af11580156119bb573d6000803e3d6000fd5b505050506040513d60208110156119d157600080fd5b50511515611a4f576040805160e560020a62461bcd02815260206004820152603060248201527f5265736f6c76657220646f6573206e6f7420737570706f72742063757272656e60448201527f74206c65616775652076657273696f6e00000000000000000000000000000000606482015290519081900360840190fd5b600160a060020a0381166000818152600760209081526040808320805460ff191660019081179091556008805491820181559093527ff3f7a9fe364faab93b216da50a3214154f22a0a2b415b23a84c8169e8b636ee3909201805473ffffffffffffffffffffffffffffffffffffffff191684179055815192835290517fdbb45c11bb1a52d58614de4f8ec412497834221dc1eab387e8230b7bc1f527ff9281900390910190a150565b600154604080517fbf40fac1000000000000000000000000000000000000000000000000000000008152602060048201819052601060248301527f436f6e73656e7375734d616e616765720000000000000000000000000000000060448301529151600160a060020a039093169263bf40fac1926064808401939192918290030181600087803b158015611b8c57600080fd5b505af1158015611ba0573d6000803e3d6000fd5b505050506040513d6020811015611bb657600080fd5b5051600160a060020a03163314611bcc57600080fd5b611bd5846120b2565b1515611c51576040805160e560020a62461bcd02815260206004820152602860248201527f476976656e2046697874757265206973206e6f74207363686564756c6564206960448201527f6e206c6561677565000000000000000000000000000000000000000000000000606482015290519081900360840190fd5b611c5a83612304565b1515611cd6576040805160e560020a62461bcd02815260206004820152602660248201527f4c656167756520646f6573206e6f7420737570706f727420676976656e20726560448201527f736f6c7665720000000000000000000000000000000000000000000000000000606482015290519081900360840190fd5b6000848152600f602052604090205460ff161515611d08576000848152600f60205260409020805460ff191660011790555b6000848152601160209081526040808320600160a060020a038716808552908352818420805460ff19166001179055878452601083528184209084529091529020611d5490838361243f565b50837fe256c6663711b1954989cfd3de024e298d0938b5d9e57e8c3fd35ef6f452e93b8484846040518084600160a060020a0316600160a060020a031681526020018060200182810382528484828181526020019250808284376040519201829003965090945050505050a250505050565b600061089282612304565b600d5490565b60006060611de4836121ed565b1515611e5f576040805160e560020a62461bcd028152602060048201526024808201527f4c656167756520646f6573206e6f7420737570706f727420676976656e20736560448201527f61736f6e00000000000000000000000000000000000000000000000000000000606482015290519081900360840190fd5b61ffff83166000908152600a6020908152604091829020805483518184028101840190945280845286939192839190830182828015611ebd57602002820191906000526020600020905b815481526020019060010190808311611ea9575b5050505050905091509150915091565b6000610892826120b2565b6060611ee48383612193565b60ff166001141515611f66576040805160e560020a62461bcd02815260206004820152603860248201527f476976656e207265736f6c7665722c20666f7220676976656e2066697874757260448201527f652c20686173206e6f74206265656e207265736f6c7665640000000000000000606482015290519081900360840190fd5b6000838152601060209081526040808320600160a060020a038616845282529182902080548351601f60026000196101006001861615020190931692909204918201849004840281018401909452808452909183018282801561200a5780601f10611fdf5761010080835404028352916020019161200a565b820191906000526020600020905b815481529060010190602001808311611fed57829003601f168201915b5050505050905092915050565b600054600160a060020a0316331461202e57600080fd5b61203781612322565b50565b60058054604080516020601f60026000196101006001881615020190951694909404938401819004810282018101909252828152606093909290918301828280156107735780601f106107dc57610100808354040283529160200191610773565b60008082118015610892575050600d546001011190565b60008082118015610892575050600c546001011190565b6000816040516020018082805190602001908083835b602083106120fe5780518252601f1990920191602091820191016120df565b6001836020036101000a0380198251168184511680821785525050505050509050019150506040516020818303038152906040526040518082805190602001908083835b602083106121615780518252601f199092019160209182019101612142565b5181516020939093036101000a6000190180199091169216919091179052604051920182900390912095945050505050565b6000828152600f602052604081205460ff1615156121b357506000610892565b6000838152601160209081526040808320600160a060020a038616845290915290205460ff166121e4576002610ddd565b50600192915050565b61ffff1660009081526009602052604090205460ff1690565b6000828260405160200180838051906020019060200280838360005b8381101561223a578181015183820152602001612222565b50505050905001828152602001925050506040516020818303038152906040526040518082805190602001908083835b602083106122895780518252601f19909201916020918201910161226a565b5181516020939093036101000a600019018019909116921691909117905260405192018290039091209695505050505050565b60006001815b83518110156122fd578180156122f357506122f384828151811015156122e457fe5b9060200190602002015161209b565b91506001016122c2565b5092915050565b600160a060020a031660009081526007602052604090205460ff1690565b600160a060020a038116151561233757600080fd5b60008054604051600160a060020a03808516939216917f8be0079c531659141344cd1fd0a4f28419497f9722a3daafe3b4186f6b6457e091a36000805473ffffffffffffffffffffffffffffffffffffffff1916600160a060020a0392909216919091179055565b6060604051908101604052806000815260200160608152602001606081525090565b828054600181600116156101000203166002900490600052602060002090601f016020900481019282601f1061240257805160ff191683800117855561242f565b8280016001018555821561242f579182015b8281111561242f578251825591602001919060010190612414565b5061243b929150612543565b5090565b828054600181600116156101000203166002900490600052602060002090601f016020900481019282601f106124805782800160ff1982351617855561242f565b8280016001018555821561242f579182015b8281111561242f578235825591602001919060010190612492565b6060604051908101604052806000815260200160608152602001600081525090565b82805482825590600052602060002090810192821561242f579160200282018281111561242f578251825591602001919060010190612414565b82805482825590600052602060002090810192821561242f579160200282018281111561242f578235825591602001919060010190612492565b61077b91905b8082111561243b57600081556001016125495600a165627a7a723058208689190832996205617f0f21f74144f714224cde1a2f0dffb31a780ff86014960029",
  "source": "pragma solidity ^0.4.24;\n\nimport \"openzeppelin-solidity/contracts/ownership/Ownable.sol\";\n\nimport \"./ILeague001.sol\";\nimport \"./BaseLeague.sol\";\nimport \"../interfaces/IResolverRegistry.sol\";\nimport \"../interfaces/IResolver.sol\";\n\nimport { LeagueLib001 as L } from \"./LeagueLib001.sol\";\n\n\n/**\n * @title League Contract\n */\ncontract League001 is Ownable, ILeague001, BaseLeague {\n\n  // Number of Participants in each fixture\n  uint internal PARTICIPANTS_PER_FIXTURE;\n\n  // Resolver addresses correspond to `true` if registered with league, `false` otherwise\n  mapping(address => bool) internal registeredResolvers;\n  // List of resolver addresses registered with league\n  address[] internal resolvers;\n\n  // Season corresponds to `true` if exists, `false` otherwise\n  mapping(uint16 => bool) internal supportedSeasons;\n  // Season corresponds to list of fixture ids\n  mapping(uint16 => uint[]) internal seasons;\n  // List of seasons\n  uint16[] internal seasonList;\n  // List of all fixtures ever in league\n  L.Fixture[] internal fixtures;\n  // List of participants ever played in league\n  L.Participant[] internal participants;\n\n  // Mapping of fixture hashes to whether they exist, to avoid duplicates\n  // NOTE Think about converting uint fixture ids to bytes32 hashes?\n  mapping(bytes32 => bool) duplicateManager;\n\n  // Fixture ids correspond to `true` if resolved, `false` if not resolved\n  // Being resolved means at least one resolution has been pushed\n  mapping(uint => bool) internal resolved;\n  // fixture => resolver => payload\n  mapping(uint => mapping(address => bytes)) internal resolutions;\n  // fixture => resolver => boolean (whether pushed or not)\n  mapping(uint => mapping(address => bool)) internal pushed;\n\n  // Emit when new Resolver added\n  event LogResolverRegistered(address _resolver);\n  // Emit when new season added\n  event LogSeasonAdded(uint16 indexed _year);\n  // Emit when new fixture added\n  event LogFixtureAdded(uint _id);\n  // Emit when new participant added\n  event LogParticipantAdded(uint _id);\n  // Emit when a Fixture is resolved, by resolver\n  event LogFixtureResolved(uint indexed _fixtureId, address _resolver, bytes _payload);\n\n  /**\n   * @notice Constructor\n   * @param _class Class of league\n   * @param _name Name of league\n   * @param _version Version of league\n   * @param _registry Address of the FansUnite Registry Contact\n   * @param _participantsPerFixture Number of participants allowed per fixture\n   */\n  constructor(\n    string _class,\n    string _name,\n    string _version,\n    address _registry,\n    uint _participantsPerFixture\n  )\n    public\n    BaseLeague(_class, _name, _version, _registry)\n  {\n    PARTICIPANTS_PER_FIXTURE = _participantsPerFixture;\n  }\n\n  /**\n   * @dev Throw is called by any account other than consensus\n   */\n  modifier onlyConsensus() {\n    require(msg.sender == registry.getAddress(\"ConsensusManager\"));\n    _;\n  }\n\n  ///////////////////////////////////////////////////////////////////////////////\n  ///////////////////////////// external functions //////////////////////////////\n  ///////////////////////////////////////////////////////////////////////////////\n\n  /**\n   * @notice Adds resolver with address `_resolver` to league\n   * @dev fails if `_resolver` is not registered with FansUnite's Resolver Registry\n   * @param _resolver Address of the resolver contract\n   */\n  function registerResolver(address _resolver) external {\n    require(\n      !_isResolverRegistered(_resolver),\n      \"Resolver already registered\"\n    );\n    require(\n      IResolverRegistry(registry.getAddress(\"ResolverRegistry\")).useResolver(class, _resolver),\n      \"Cannot use resolver\"\n    );\n    require(\n      IResolver(_resolver).doesSupportVersion(version),\n      \"Resolver does not support current league version\"\n    );\n\n    registeredResolvers[_resolver] = true;\n    resolvers.push(_resolver);\n\n    emit LogResolverRegistered(_resolver);\n  }\n\n  /**\n   * @notice Adds a resolution payload for fixture with id `_fixtureId` and resolver `_resolver`\n   * @param _fixtureId Id of the fixture being resolved\n   * @param _resolver Address of the resolver that can resolve _payload\n   * @param _payload Encoded resolution payload\n   */\n  function pushResolution(uint _fixtureId, address _resolver, bytes _payload)\n    external\n    onlyConsensus\n  {\n    // TODO Reduce duplication when multiple resolvers use the same payload\n    // _payload can be 0x, should result in bet cancellation\n    // _payload can be 0x00..00, would be passed as valid resolution payload to resolvers\n    require(_isFixtureScheduled(_fixtureId), \"Given Fixture is not scheduled in league\");\n    require(_isResolverRegistered(_resolver), \"League does not support given resolver\");\n\n    if (!resolved[_fixtureId]) resolved[_fixtureId] = true;\n    pushed[_fixtureId][_resolver] = true;\n    resolutions[_fixtureId][_resolver] = _payload;\n\n    emit LogFixtureResolved(_fixtureId, _resolver, _payload);\n  }\n\n  /**\n   * @notice Starts a new season with year `_year`\n   * @param _year Year of the first fixture in new season\n   */\n  function addSeason(uint16 _year) external {\n    require(!_isSeasonSupported(_year), \"Season already supported\");\n\n    supportedSeasons[_year] = true;\n    seasonList.push(_year);\n\n    emit LogSeasonAdded(_year);\n  }\n\n  /**\n   * @notice Creates a new fixture for the on-going season\n   * @param _season Season of fixture\n   * @param _participants ids of participants in event\n   * @param _start Start time (unix timestamp)\n   */\n  function scheduleFixture(uint16 _season, uint[] _participants, uint _start) external {\n    bytes32 _hash = L.hashRawFixture(_participants, _start);\n\n    require(\n      _isSeasonSupported(_season),\n      \"League does not support given season\"\n    );\n    require(\n      _participants.length == PARTICIPANTS_PER_FIXTURE,\n      \"Invalid number of participants in fixture\"\n    );\n    require(\n      _areParticipants(_participants),\n      \"Unknown participant scheduled for fixture\"\n    );\n    require(\n      _start > block.timestamp,\n      \"Fixture has already started\"\n    );\n    require(\n      !duplicateManager[_hash],\n      \"Fixture is duplicated in league\"\n    );\n\n    L.Fixture memory _fixture;\n    _fixture.id = fixtures.length + 1;\n    _fixture.start = _start;\n    fixtures.push(_fixture);\n    fixtures[fixtures.length - 1].participants = _participants;\n    seasons[_season].push(_fixture.id);\n    duplicateManager[_hash] = true;\n\n    emit LogFixtureAdded(_fixture.id);\n  }\n\n  /**\n   * @notice Adds a new participant to the league\n   * @param _name Name of the participant - should match pattern /[a-zA-Z ]+/\n   * @param _details Off-chain hash of participant details\n   */\n  function addParticipant(string _name, bytes _details) external onlyOwner {\n    bytes32 _hash = L.hashRawParticipant(_name);\n\n    require(\n      !duplicateManager[_hash],\n      \"Participant already in league\"\n    );\n\n    L.Participant memory _participant;\n    _participant.name = _name;\n    _participant.details = _details;\n    _participant.id = participants.length + 1;\n    participants.push(_participant);\n    duplicateManager[_hash] = true;\n\n    emit LogParticipantAdded(_participant.id);\n  }\n\n\n  ///////////////////////////////////////////////////////////////////////////////\n  ///////////////////////////// external view functions /////////////////////////\n  ///////////////////////////////////////////////////////////////////////////////\n\n\n  /**\n   * @notice Gets resolution payload for fixture `_fixtureId` and resolver `_resolver`\n   * @dev Requires the fixture `_fixtureId` to be resolved for resolver `_resolver`\n   * @param _fixtureId Id of the payload's corresponding fixture\n   * @param _resolver Address of the payload's corresponding resolver\n   * @return Resolution payload for fixture `_fixtureId` and resolver `_resolver`\n   */\n  function getResolution(uint _fixtureId, address _resolver) external view returns (bytes) {\n    require(\n      _isFixtureResolved(_fixtureId, _resolver) == 1,\n      \"Given resolver, for given fixture, has not been resolved\"\n    );\n\n    return resolutions[_fixtureId][_resolver];\n  }\n\n  /**\n   * @notice Gets all resolvers in league\n   * @return Addresses of all resolvers registered in league\n   */\n  function getResolvers() external view returns (address[]) {\n    return resolvers;\n  }\n\n  /**\n   * @notice Gets a list of all seasons in league\n   * @return Years of all seasons in league\n   */\n  function getSeasons() external view returns (uint16[]) {\n    return seasonList;\n  }\n\n  /**\n   * @notice Gets the season with year `_year`\n   * @param _year Year of the season\n   * @return Year of the season\n   * @return Ids fixtures scheduled in season `_year`\n   */\n  function getSeason(uint16 _year) external view returns (uint16, uint[]) {\n    require(_isSeasonSupported(_year), \"League does not support given season\");\n\n    return (_year, seasons[_year]);\n  }\n\n  /**\n   * @notice Gets start time for fixture `_fixture`\n   * @param _fixture Id of fixture\n   * @return start time of fixture `_fixture`\n   */\n  function getFixtureStart(uint _fixture) external view returns (uint) {\n    require(_isFixtureScheduled(_fixture), \"Given fixture is not scheduled in league\");\n\n    return fixtures[_fixture - 1].start;\n  }\n\n  /**\n   * @notice Gets scheduled fixture with id `_id`\n   * @param _id Id of the scheduled fixture\n   * @return Fixture id\n   * @return Participant Ids\n   * @return Start time\n   */\n  function getFixture(uint _id) external view returns (uint, uint[], uint) {\n    require(_isFixtureScheduled(_id), \"Given fixture is not scheduled in league\");\n\n    L.Fixture storage _fixture = fixtures[_id - 1];\n    return (_fixture.id, _fixture.participants, _fixture.start);\n  }\n\n  /**\n   * @notice Gets participant in league with id `_id`\n   * @param _id Id of the participant\n   * @return Participant Id\n   * @return Participant name\n   * @return Details of Participant (hash)\n   */\n  function getParticipant(uint _id) external view returns (uint, string, bytes) {\n    require(_isParticipant(_id), \"Given participant is not in league\");\n\n    L.Participant storage _participant = participants[_id - 1];\n    return (_participant.id, _participant.name, _participant.details);\n  }\n\n  /**\n   * @notice Gets participants count\n   * @return participant count\n   */\n  function getParticipantCount() external view returns (uint) {\n    return participants.length;\n  }\n\n  /**\n   * @notice Checks if resolver with address `_resolver` is registered with league\n   * @param _resolver Address of the resolver\n   * @return `true` if resolver is registered with league, `false` otherwise\n   */\n  function isResolverRegistered(address _resolver) external view returns (bool) {\n    return _isResolverRegistered(_resolver);\n  }\n\n  /**\n   * @notice Checks if fixture with id `_id` has been scheduled in league\n   * @param _id Id of the fixture\n   * @return `true` if fixture with id `_id` is scheduled, `false` otherwise\n   */\n  function isFixtureScheduled(uint _id) external view returns (bool) {\n    return _isFixtureScheduled(_id);\n  }\n\n  /**\n   * @notice Checks if fixture with id `_id` has been resolved for resolver `_resolver`\n   * @dev A fixture is resolved if at least one resolver receives resolution payload\n   * @dev It is possible that some resolvers do not get resolution payloads from oracles\n   * @param _id Id of the fixture\n   * @param _resolver Address of the resolver\n   * @return `0` if fixture is not resolved, `1` if fixture is resolved and for resolver `_resolver`,\n   *  `2` if fixture is resolved but resolver `_resolver\n   */\n  function isFixtureResolved(uint _id, address _resolver) external view returns (uint8) {\n    return _isFixtureResolved(_id, _resolver);\n  }\n\n  /**\n   * @notice Checks if participant id `_id` is valid\n   * @param _id Id of the participant\n   * @return `true` if participant id `_id` is valid, `false` otherwise\n   */\n  function isParticipant(uint _id) external view returns (bool) {\n    return _isParticipant(_id);\n  }\n\n  /**\n   * @notice Checks if participant `_participantId` is playing in fixture `_fixtureId`\n   * @param _participantId Id of the participant\n   * @param _fixtureId Id of the fixture\n   * @return `true` if participant `_participantId` is scheduled in for fixture `_fixtureId`\n   */\n  function isParticipantScheduled(uint _participantId, uint _fixtureId)\n    external\n    view\n    returns (bool)\n  {\n    require(_isParticipant(_participantId), \"Given participant is not in league\");\n    require(_isFixtureScheduled(_fixtureId), \"Given fixture is not scheduled\");\n\n    L.Fixture storage _fixture = fixtures[_fixtureId - 1];\n    for (uint i = 0; i < _fixture.participants.length; i++)\n      if (_fixture.participants[i] == _participantId) return true;\n    return false;\n  }\n\n\n  ///////////////////////////////////////////////////////////////////////////////\n  ///////////////////////////// internal view functions /////////////////////////\n  ///////////////////////////////////////////////////////////////////////////////\n\n\n  // internal isParticipant\n  function _isResolverRegistered(address _resolver) internal view returns (bool) {\n    return registeredResolvers[_resolver];\n  }\n\n  // internal isFixtureScheduled\n  function _isFixtureScheduled(uint _id) internal view returns (bool) {\n    return _id > 0 && _id < fixtures.length + 1;\n  }\n\n  // internal isFixtureResolved\n  function _isFixtureResolved(uint _id, address _resolver) internal view returns (uint8) {\n    if (!resolved[_id])\n      return 0;\n    return pushed[_id][_resolver] ? 1 : 2;\n  }\n\n  // internal isParticipant\n  function _isParticipant(uint _id) internal view returns (bool) {\n    return _id > 0 && _id < participants.length + 1;\n  }\n\n  // validate all participants\n  function _areParticipants(uint[] _participants) internal view returns (bool) {\n    bool _valid = true;\n    for (uint i = 0; i < _participants.length; i++) {\n      _valid = _valid && _isParticipant(_participants[i]);\n    }\n    return _valid;\n  }\n\n  // internal isSeasonSupported\n  function _isSeasonSupported(uint16 _year) internal view returns (bool) {\n    return supportedSeasons[_year];\n  }\n\n}\n",
  "sourcePath": "/Users/ryancimoszko/fu/fansunite-js/node_modules/fansunite-core/contracts/leagues/League001.sol",
  "compiler": {
    "name": "solc",
    "version": "0.4.24+commit.e67f0147.Emscripten.clang"
  },
  "schemaVersion": "2.0.1",
  "updatedAt": "2018-10-02T17:38:38.006Z"
}