{
  "contractName": "League001",
  "abi": [
    {
      "constant": true,
      "inputs": [],
      "name": "getName",
      "outputs": [
        {
          "name": "",
          "type": "string"
        }
      ],
      "payable": false,
      "stateMutability": "view",
      "type": "function"
    },
    {
      "constant": true,
      "inputs": [],
      "name": "getRegistryContract",
      "outputs": [
        {
          "name": "",
          "type": "address"
        }
      ],
      "payable": false,
      "stateMutability": "view",
      "type": "function"
    },
    {
      "constant": false,
      "inputs": [
        {
          "name": "_details",
          "type": "bytes"
        }
      ],
      "name": "setDetails",
      "outputs": [],
      "payable": false,
      "stateMutability": "nonpayable",
      "type": "function"
    },
    {
      "constant": true,
      "inputs": [],
      "name": "getClass",
      "outputs": [
        {
          "name": "",
          "type": "string"
        }
      ],
      "payable": false,
      "stateMutability": "view",
      "type": "function"
    },
    {
      "constant": false,
      "inputs": [],
      "name": "renounceOwnership",
      "outputs": [],
      "payable": false,
      "stateMutability": "nonpayable",
      "type": "function"
    },
    {
      "constant": true,
      "inputs": [],
      "name": "owner",
      "outputs": [
        {
          "name": "",
          "type": "address"
        }
      ],
      "payable": false,
      "stateMutability": "view",
      "type": "function"
    },
    {
      "constant": true,
      "inputs": [],
      "name": "isOwner",
      "outputs": [
        {
          "name": "",
          "type": "bool"
        }
      ],
      "payable": false,
      "stateMutability": "view",
      "type": "function"
    },
    {
      "constant": false,
      "inputs": [
        {
          "name": "newOwner",
          "type": "address"
        }
      ],
      "name": "transferOwnership",
      "outputs": [],
      "payable": false,
      "stateMutability": "nonpayable",
      "type": "function"
    },
    {
      "constant": true,
      "inputs": [],
      "name": "getDetails",
      "outputs": [
        {
          "name": "",
          "type": "bytes"
        }
      ],
      "payable": false,
      "stateMutability": "view",
      "type": "function"
    },
    {
      "inputs": [
        {
          "name": "_class",
          "type": "string"
        },
        {
          "name": "_name",
          "type": "string"
        },
        {
          "name": "_registry",
          "type": "address"
        },
        {
          "name": "_participantsPerFixture",
          "type": "uint256"
        }
      ],
      "payable": false,
      "stateMutability": "nonpayable",
      "type": "constructor"
    },
    {
      "anonymous": false,
      "inputs": [
        {
          "indexed": true,
          "name": "_year",
          "type": "uint256"
        }
      ],
      "name": "LogSeasonAdded",
      "type": "event"
    },
    {
      "anonymous": false,
      "inputs": [
        {
          "indexed": false,
          "name": "_id",
          "type": "uint256"
        }
      ],
      "name": "LogFixtureAdded",
      "type": "event"
    },
    {
      "anonymous": false,
      "inputs": [
        {
          "indexed": false,
          "name": "_id",
          "type": "uint256"
        }
      ],
      "name": "LogFixtureRescheduled",
      "type": "event"
    },
    {
      "anonymous": false,
      "inputs": [
        {
          "indexed": false,
          "name": "_id",
          "type": "uint256"
        }
      ],
      "name": "LogParticipantAdded",
      "type": "event"
    },
    {
      "anonymous": false,
      "inputs": [
        {
          "indexed": true,
          "name": "_fixtureId",
          "type": "uint256"
        },
        {
          "indexed": false,
          "name": "_resolver",
          "type": "address"
        },
        {
          "indexed": false,
          "name": "_payload",
          "type": "bytes"
        }
      ],
      "name": "LogMarketsResolved",
      "type": "event"
    },
    {
      "anonymous": false,
      "inputs": [
        {
          "indexed": true,
          "name": "previousOwner",
          "type": "address"
        }
      ],
      "name": "OwnershipRenounced",
      "type": "event"
    },
    {
      "anonymous": false,
      "inputs": [
        {
          "indexed": true,
          "name": "previousOwner",
          "type": "address"
        },
        {
          "indexed": true,
          "name": "newOwner",
          "type": "address"
        }
      ],
      "name": "OwnershipTransferred",
      "type": "event"
    },
    {
      "constant": false,
      "inputs": [
        {
          "name": "_fixture",
          "type": "uint256"
        },
        {
          "name": "_resolver",
          "type": "address"
        },
        {
          "name": "_payload",
          "type": "bytes"
        }
      ],
      "name": "pushResolution",
      "outputs": [],
      "payable": false,
      "stateMutability": "nonpayable",
      "type": "function"
    },
    {
      "constant": false,
      "inputs": [
        {
          "name": "_year",
          "type": "uint256"
        }
      ],
      "name": "addSeason",
      "outputs": [],
      "payable": false,
      "stateMutability": "nonpayable",
      "type": "function"
    },
    {
      "constant": false,
      "inputs": [
        {
          "name": "_season",
          "type": "uint256"
        },
        {
          "name": "_participants",
          "type": "uint256[]"
        },
        {
          "name": "_start",
          "type": "uint256"
        }
      ],
      "name": "scheduleFixture",
      "outputs": [],
      "payable": false,
      "stateMutability": "nonpayable",
      "type": "function"
    },
    {
      "constant": false,
      "inputs": [
        {
          "name": "_id",
          "type": "uint256"
        },
        {
          "name": "_start",
          "type": "uint256"
        }
      ],
      "name": "rescheduleFixture",
      "outputs": [],
      "payable": false,
      "stateMutability": "nonpayable",
      "type": "function"
    },
    {
      "constant": false,
      "inputs": [
        {
          "name": "_name",
          "type": "string"
        },
        {
          "name": "_details",
          "type": "bytes"
        }
      ],
      "name": "addParticipant",
      "outputs": [],
      "payable": false,
      "stateMutability": "nonpayable",
      "type": "function"
    },
    {
      "constant": true,
      "inputs": [
        {
          "name": "_fixture",
          "type": "uint256"
        },
        {
          "name": "_resolver",
          "type": "address"
        }
      ],
      "name": "getResolution",
      "outputs": [
        {
          "name": "",
          "type": "bytes"
        }
      ],
      "payable": false,
      "stateMutability": "view",
      "type": "function"
    },
    {
      "constant": true,
      "inputs": [],
      "name": "getSeasons",
      "outputs": [
        {
          "name": "",
          "type": "uint256[]"
        }
      ],
      "payable": false,
      "stateMutability": "view",
      "type": "function"
    },
    {
      "constant": true,
      "inputs": [
        {
          "name": "_year",
          "type": "uint256"
        }
      ],
      "name": "getSeason",
      "outputs": [
        {
          "name": "",
          "type": "uint256"
        },
        {
          "name": "",
          "type": "uint256[]"
        }
      ],
      "payable": false,
      "stateMutability": "view",
      "type": "function"
    },
    {
      "constant": true,
      "inputs": [
        {
          "name": "_fixture",
          "type": "uint256"
        }
      ],
      "name": "getFixtureStart",
      "outputs": [
        {
          "name": "",
          "type": "uint256"
        }
      ],
      "payable": false,
      "stateMutability": "view",
      "type": "function"
    },
    {
      "constant": true,
      "inputs": [
        {
          "name": "_id",
          "type": "uint256"
        }
      ],
      "name": "getFixture",
      "outputs": [
        {
          "name": "",
          "type": "uint256"
        },
        {
          "name": "",
          "type": "uint256[]"
        },
        {
          "name": "",
          "type": "uint256"
        }
      ],
      "payable": false,
      "stateMutability": "view",
      "type": "function"
    },
    {
      "constant": true,
      "inputs": [
        {
          "name": "_id",
          "type": "uint256"
        }
      ],
      "name": "getParticipant",
      "outputs": [
        {
          "name": "",
          "type": "uint256"
        },
        {
          "name": "",
          "type": "string"
        },
        {
          "name": "",
          "type": "bytes"
        }
      ],
      "payable": false,
      "stateMutability": "view",
      "type": "function"
    },
    {
      "constant": true,
      "inputs": [],
      "name": "getParticipantCount",
      "outputs": [
        {
          "name": "",
          "type": "uint256"
        }
      ],
      "payable": false,
      "stateMutability": "view",
      "type": "function"
    },
    {
      "constant": true,
      "inputs": [
        {
          "name": "_fixture",
          "type": "uint256"
        }
      ],
      "name": "isFixtureScheduled",
      "outputs": [
        {
          "name": "",
          "type": "bool"
        }
      ],
      "payable": false,
      "stateMutability": "view",
      "type": "function"
    },
    {
      "constant": true,
      "inputs": [
        {
          "name": "_fixture",
          "type": "uint256"
        },
        {
          "name": "_resolver",
          "type": "address"
        }
      ],
      "name": "areMarketsResolved",
      "outputs": [
        {
          "name": "",
          "type": "bool"
        }
      ],
      "payable": false,
      "stateMutability": "view",
      "type": "function"
    },
    {
      "constant": true,
      "inputs": [
        {
          "name": "_participant",
          "type": "uint256"
        }
      ],
      "name": "isParticipant",
      "outputs": [
        {
          "name": "",
          "type": "bool"
        }
      ],
      "payable": false,
      "stateMutability": "view",
      "type": "function"
    },
    {
      "constant": true,
      "inputs": [
        {
          "name": "_participant",
          "type": "uint256"
        },
        {
          "name": "_fixture",
          "type": "uint256"
        }
      ],
      "name": "isParticipantScheduled",
      "outputs": [
        {
          "name": "",
          "type": "bool"
        }
      ],
      "payable": false,
      "stateMutability": "view",
      "type": "function"
    },
    {
      "constant": true,
      "inputs": [],
      "name": "getVersion",
      "outputs": [
        {
          "name": "",
          "type": "string"
        }
      ],
      "payable": false,
      "stateMutability": "view",
      "type": "function"
    }
  ],
  "bytecode": "0x60c0604052600560808190527f302e302e3100000000000000000000000000000000000000000000000000000060a09081526200003e919081620000ef565b503480156200004c57600080fd5b50604051620021ad380380620021ad83398101604090815281516020808401519284015160608501516000805433600160a060020a03199182161790915560018054909116600160a060020a038416179055928501805190959490940193909291859185918591620000c59160039190860190620000ef565b508151620000db906002906020850190620000ef565b505050600691909155506200019492505050565b828054600181600116156101000203166002900490600052602060002090601f016020900481019282601f106200013257805160ff191683800117855562000162565b8280016001018555821562000162579182015b828111156200016257825182559160200191906001019062000145565b506200017092915062000174565b5090565b6200019191905b808211156200017057600081556001016200017b565b90565b61200980620001a46000396000f3006080604052600436106101535763ffffffff7c01000000000000000000000000000000000000000000000000000000006000350416630b5b0dfa81146101585780630d8e6e2c146101815780630f36c47f1461020b578063111953ac1461027057806317d7de7c1461029c5780631b9db2ef146102b15780632cb0a2e5146103ae5780632e204701146103d857806336ca3d73146103f3578063376111c2146104245780634f26df4e1461045057806354d0940d1461047057806357e61ea4146104ea5780635a83e3dd146104ff578063715018a6146105235780638da5cb5b146105385780638f32d59b1461054d57806393ffd67014610562578063a3c8f7391461057d578063a43d8654146105ae578063ad60572914610621578063e239c95214610636578063e661d27b1461064e578063e78341e614610666578063f2fde38b1461068a578063fbbf93a0146106ab575b600080fd5b34801561016457600080fd5b5061017f6004803590602480359081019101356044356106c0565b005b34801561018d57600080fd5b50610196610ab4565b6040805160208082528351818301528351919283929083019185019080838360005b838110156101d05781810151838201526020016101b8565b50505050905090810190601f1680156101fd5780820380516001836020036101000a031916815260200191505b509250505060405180910390f35b34801561021757600080fd5b50610220610b4b565b60408051602080825283518183015283519192839290830191858101910280838360005b8381101561025c578181015183820152602001610244565b505050509050019250505060405180910390f35b34801561027c57600080fd5b50610288600435610ba2565b604080519115158252519081900360200190f35b3480156102a857600080fd5b50610196610bb3565b3480156102bd57600080fd5b506102c9600435610c11565b604051808481526020018060200180602001838103835285818151815260200191508051906020019080838360005b838110156103105781810151838201526020016102f8565b50505050905090810190601f16801561033d5780820380516001836020036101000a031916815260200191505b50838103825284518152845160209182019186019080838360005b83811015610370578181015183820152602001610358565b50505050905090810190601f16801561039d5780820380516001836020036101000a031916815260200191505b509550505050505060405180910390f35b3480156103ba57600080fd5b506103c6600435610e04565b60408051918252519081900360200190f35b3480156103e457600080fd5b5061017f600435602435610eb6565b3480156103ff57600080fd5b50610408611110565b60408051600160a060020a039092168252519081900360200190f35b34801561043057600080fd5b5061017f602460048035828101929082013591813591820191013561111f565b34801561045c57600080fd5b5061017f600480356024810191013561133f565b34801561047c57600080fd5b50610488600435611363565b6040518084815260200180602001838152602001828103825284818151815260200191508051906020019060200280838360005b838110156104d45781810151838201526020016104bc565b5050505090500194505050505060405180910390f35b3480156104f657600080fd5b5061019661147f565b34801561050b57600080fd5b50610288600435600160a060020a03602435166114e0565b34801561052f57600080fd5b5061017f6114f3565b34801561054457600080fd5b5061040861155b565b34801561055957600080fd5b5061028861156a565b34801561056e57600080fd5b5061028860043560243561157b565b34801561058957600080fd5b5061017f600480359060248035600160a060020a0316916044359182019101356115f4565b3480156105ba57600080fd5b506105c66004356117d0565b6040518083815260200180602001828103825283818151815260200191508051906020019060200280838360005b8381101561060c5781810151838201526020016105f4565b50505050905001935050505060405180910390f35b34801561062d57600080fd5b506103c66118c7565b34801561064257600080fd5b506102886004356118cd565b34801561065a57600080fd5b5061017f6004356118d8565b34801561067257600080fd5b50610196600435600160a060020a03602435166119ac565b34801561069657600080fd5b5061017f600160a060020a0360043516611ae5565b3480156106b757600080fd5b50610196611b04565b60006106ca611e1f565b61070285858080602002602001604051908101604052809392919081815260200183836020028082843750899450611b659350505050565b915061070d86611c1b565b1515610788576040805160e560020a62461bcd028152602060048201526024808201527f4c656167756520646f6573206e6f7420737570706f727420676976656e20736560448201527f61736f6e00000000000000000000000000000000000000000000000000000000606482015290519081900360840190fd5b6006548414610807576040805160e560020a62461bcd02815260206004820152602960248201527f496e76616c6964206e756d626572206f66207061727469636970616e7473206960448201527f6e20666978747572650000000000000000000000000000000000000000000000606482015290519081900360840190fd5b61083d85858080602002602001604051908101604052809392919081815260200183836020028082843750611c30945050505050565b15156108b9576040805160e560020a62461bcd02815260206004820152602960248201527f556e6b6e6f776e207061727469636970616e74207363686564756c656420666f60448201527f7220666978747572650000000000000000000000000000000000000000000000606482015290519081900360840190fd5b428311610910576040805160e560020a62461bcd02815260206004820152601b60248201527f466978747572652068617320616c726561647920737461727465640000000000604482015290519081900360640190fd5b6000828152600c602052604090205460ff1615610977576040805160e560020a62461bcd02815260206004820152601f60248201527f46697874757265206973206475706c69636174656420696e206c656167756500604482015290519081900360640190fd5b600a80546001810180845260408401869052808355600092909252825160039091027fc65a7bb8d6351c1cf70c95a316cc6a92839c986682d98bc35f958f4883f9d2a8810191825560208085015180518694936109fa937fc65a7bb8d6351c1cf70c95a316cc6a92839c986682d98bc35f958f4883f9d2a9909101920190611e41565b506040919091015160029091015550600a8054869186916000198101908110610a1f57fe5b90600052602060002090600302016001019190610a3d929190611e8c565b50600086815260086020908152604080832084518154600181810184559286528486200155858452600c835292819020805460ff19169093179092558251825190815291517f9304e030915ed6da5c27faf048f12f3eae58394969224636eb98a811e84db75f9281900390910190a1505050505050565b60058054604080516020601f6002600019610100600188161502019095169490940493840181900481028201810190925282815260609390929091830182828015610b405780601f10610b1557610100808354040283529160200191610b40565b820191906000526020600020905b815481529060010190602001808311610b2357829003601f168201915b505050505090505b90565b60606009805480602002602001604051908101604052809291908181526020018280548015610b4057602002820191906000526020600020905b815481526020019060010190808311610b85575050505050905090565b6000610bad82611c7f565b92915050565b60028054604080516020601f6000196101006001871615020190941685900493840181900481028201810190925282815260609390929091830182828015610b405780601f10610b1557610100808354040283529160200191610b40565b60006060806000610c2185611c7f565b1515610c9d576040805160e560020a62461bcd02815260206004820152602260248201527f476976656e207061727469636970616e74206973206e6f7420696e206c65616760448201527f7565000000000000000000000000000000000000000000000000000000000000606482015290519081900360840190fd5b600b80546000198701908110610caf57fe5b9060005260206000209060030201905080600001548160010182600201818054600181600116156101000203166002900480601f016020809104026020016040519081016040528092919081815260200182805460018160011615610100020316600290048015610d615780601f10610d3657610100808354040283529160200191610d61565b820191906000526020600020905b815481529060010190602001808311610d4457829003601f168201915b5050845460408051602060026001851615610100026000190190941693909304601f810184900484028201840190925281815295975086945092508401905082828015610def5780601f10610dc457610100808354040283529160200191610def565b820191906000526020600020905b815481529060010190602001808311610dd257829003601f168201915b50505050509050935093509350509193909250565b6000610e0f82611c96565b1515610e8b576040805160e560020a62461bcd02815260206004820152602860248201527f476976656e2066697874757265206973206e6f74207363686564756c6564206960448201527f6e206c6561677565000000000000000000000000000000000000000000000000606482015290519081900360840190fd5b600a80546000198401908110610e9d57fe5b9060005260206000209060030201600201549050919050565b600154604080517fbf40fac1000000000000000000000000000000000000000000000000000000008152602060048201819052601060248301527f436f6e73656e7375734d616e616765720000000000000000000000000000000060448301529151600160a060020a039093169263bf40fac1926064808401939192918290030181600087803b158015610f4957600080fd5b505af1158015610f5d573d6000803e3d6000fd5b505050506040513d6020811015610f7357600080fd5b5051600160a060020a03163314610fd4576040805160e560020a62461bcd02815260206004820152601e60248201527f53656e646572206973206e6f7420436f6e73656e7375734d616e616765720000604482015290519081900360640190fd5b42811161102b576040805160e560020a62461bcd02815260206004820181905260248201527f53746172742074696d65206d75737420626520696e2074686520667574757265604482015290519081900360640190fd5b61103482611c96565b15156110b0576040805160e560020a62461bcd02815260206004820152602860248201527f476976656e2066697874757265206973206e6f74207363686564756c6564206960448201527f6e206c6561677565000000000000000000000000000000000000000000000000606482015290519081900360840190fd5b80600a838154811015156110c057fe5b9060005260206000209060030201600201819055507f753a34fc1d52294309006a8dabeaa9409e9a7ca93300d05ad82b5d2bd9c4e1db826040518082815260200191505060405180910390a15050565b600154600160a060020a031690565b6000611129611ec7565b61113161156a565b151561113c57600080fd5b61117586868080601f01602080910402602001604051908101604052809392919081815260200183838082843750611cad945050505050565b6000818152600c602052604090205490925060ff16156111df576040805160e560020a62461bcd02815260206004820152601d60248201527f5061727469636970616e7420616c726561647920696e206c6561677565000000604482015290519081900360640190fd5b85858080601f01602080910402602001604051908101604052809392919081815260200183838082843750505050602080850193909352505060408051601f86018390048302810183019091528481529085908590819084018382808284375050505060408401929092525050600b805460018101808452808355600092909252825160039091027f0175b7a638427703f0dbe7bb9bbf987a2551717b34e79f33b5b1008d1fa01db9810191825560208085015180518694936112c8937f0175b7a638427703f0dbe7bb9bbf987a2551717b34e79f33b5b1008d1fa01dba909101920190611ee9565b50604082015180516112e4916002840191602090910190611ee9565b5050506000838152600c6020908152604091829020805460ff191660011790558351825190815291517f561e78c65705a87f79183e181a2456903f6f4a0edf209667b5e0d7bda085e6019350918290030190a1505050505050565b61134761156a565b151561135257600080fd5b61135e60048383611f56565b505050565b6000606060008061137385611c96565b15156113ef576040805160e560020a62461bcd02815260206004820152602860248201527f476976656e2066697874757265206973206e6f74207363686564756c6564206960448201527f6e206c6561677565000000000000000000000000000000000000000000000000606482015290519081900360840190fd5b600a8054600019870190811061140157fe5b9060005260206000209060030201905080600001548160010182600201548180548060200260200160405190810160405280929190818152602001828054801561146a57602002820191906000526020600020905b815481526020019060010190808311611456575b50505050509150935093509350509193909250565b60038054604080516020601f6002600019610100600188161502019095169490940493840181900481028201810190925282815260609390929091830182828015610b405780601f10610b1557610100808354040283529160200191610b40565b60006114ec8383611d77565b9392505050565b6114fb61156a565b151561150657600080fd5b60008054604051600160a060020a03909116917ff8df31144d9c2f0f6b59d69b8b98abd5459d07f2742c4df920b25aae33c6482091a26000805473ffffffffffffffffffffffffffffffffffffffff19169055565b600054600160a060020a031690565b600054600160a060020a0316331490565b6000806000600a6001850381548110151561159257fe5b90600052602060002090600302019150600090505b60018201548110156115e7578482600101828154811015156115c557fe5b906000526020600020015414156115df57600192506115ec565b6001016115a7565b600092505b505092915050565b600154604080517fbf40fac1000000000000000000000000000000000000000000000000000000008152602060048201819052601060248301527f436f6e73656e7375734d616e616765720000000000000000000000000000000060448301529151600160a060020a039093169263bf40fac1926064808401939192918290030181600087803b15801561168757600080fd5b505af115801561169b573d6000803e3d6000fd5b505050506040513d60208110156116b157600080fd5b5051600160a060020a03163314611712576040805160e560020a62461bcd02815260206004820152601e60248201527f53656e646572206973206e6f7420436f6e73656e7375734d616e616765720000604482015290519081900360640190fd5b6000848152600f60209081526040808320600160a060020a038716808552908352818420805460ff19166001179055878452600e8352818420908452909152902061175e908383611f56565b50837f1e9cfe8a8c07d1622faf82d707cc65556737b3880f5d497811a8eaa1ed847c0f8484846040518084600160a060020a0316600160a060020a031681526020018060200182810382528484828181526020019250808284376040519201829003965090945050505050a250505050565b600060606117dd83611c1b565b1515611858576040805160e560020a62461bcd028152602060048201526024808201527f4c656167756520646f6573206e6f7420737570706f727420676976656e20736560448201527f61736f6e00000000000000000000000000000000000000000000000000000000606482015290519081900360840190fd5b8260086000858152602001908152602001600020808054806020026020016040519081016040528092919081815260200182805480156118b757602002820191906000526020600020905b8154815260200190600101908083116118a3575b5050505050905091509150915091565b600b5490565b6000610bad82611c96565b6118e181611c1b565b15611936576040805160e560020a62461bcd02815260206004820152601860248201527f536561736f6e20616c726561647920737570706f727465640000000000000000604482015290519081900360640190fd5b600081815260076020526040808220805460ff1916600190811790915560098054918201815583527f6e1540171b6c0c960b71a7020d9f60077f6af931a8bbf590da0223dacf75c7af018390555182917f7f97ddc213adb651cacdbc0d741d08bae87f7c05fe67a9aaa453bf2035c5e1fe91a250565b60606119b88383611d77565b1515611a34576040805160e560020a62461bcd02815260206004820152602260248201527f526571756573746564206d61726b65747320617265206e6f74207265736f6c7660448201527f6564000000000000000000000000000000000000000000000000000000000000606482015290519081900360840190fd5b6000838152600e60209081526040808320600160a060020a038616845282529182902080548351601f600260001961010060018616150201909316929092049182018490048402810184019094528084529091830182828015611ad85780601f10611aad57610100808354040283529160200191611ad8565b820191906000526020600020905b815481529060010190602001808311611abb57829003601f168201915b5050505050905092915050565b611aed61156a565b1515611af857600080fd5b611b0181611da2565b50565b60048054604080516020601f6002600019610100600188161502019095169490940493840181900481028201810190925282815260609390929091830182828015610b405780601f10610b1557610100808354040283529160200191610b40565b6000828260405160200180838051906020019060200280838360005b83811015611b99578181015183820152602001611b81565b50505050905001828152602001925050506040516020818303038152906040526040518082805190602001908083835b60208310611be85780518252601f199092019160209182019101611bc9565b5181516020939093036101000a600019018019909116921691909117905260405192018290039091209695505050505050565b60009081526007602052604090205460ff1690565b6000805b8251811015611c7457611c5d8382815181101515611c4e57fe5b90602001906020020151611c7f565b1515611c6c5760009150611c79565b600101611c34565b600191505b50919050565b60008082118015610bad575050600b546001011190565b60008082118015610bad575050600a546001011190565b6000816040516020018082805190602001908083835b60208310611ce25780518252601f199092019160209182019101611cc3565b6001836020036101000a0380198251168184511680821785525050505050509050019150506040516020818303038152906040526040518082805190602001908083835b60208310611d455780518252601f199092019160209182019101611d26565b5181516020939093036101000a6000190180199091169216919091179052604051920182900390912095945050505050565b6000918252600f60209081526040808420600160a060020a0393909316845291905290205460ff1690565b600160a060020a0381161515611db757600080fd5b60008054604051600160a060020a03808516939216917f8be0079c531659141344cd1fd0a4f28419497f9722a3daafe3b4186f6b6457e091a36000805473ffffffffffffffffffffffffffffffffffffffff1916600160a060020a0392909216919091179055565b6060604051908101604052806000815260200160608152602001600081525090565b828054828255906000526020600020908101928215611e7c579160200282015b82811115611e7c578251825591602001919060010190611e61565b50611e88929150611fc3565b5090565b828054828255906000526020600020908101928215611e7c579160200282015b82811115611e7c578235825591602001919060010190611eac565b6060604051908101604052806000815260200160608152602001606081525090565b828054600181600116156101000203166002900490600052602060002090601f016020900481019282601f10611f2a57805160ff1916838001178555611e7c565b82800160010185558215611e7c5791820182811115611e7c578251825591602001919060010190611e61565b828054600181600116156101000203166002900490600052602060002090601f016020900481019282601f10611f975782800160ff19823516178555611e7c565b82800160010185558215611e7c5791820182811115611e7c578235825591602001919060010190611eac565b610b4891905b80821115611e885760008155600101611fc95600a165627a7a723058207c92eb1e71ebbad899a3f08c3f4bfff7d77cf6972626bcdc1f1e27e0f7373cdd0029",
  "source": "pragma solidity 0.4.24;\n\nimport \"./ILeague001.sol\";\nimport \"./BaseLeague.sol\";\nimport \"../interfaces/IResolverRegistry.sol\";\nimport \"../interfaces/IResolver.sol\";\n\nimport { LeagueLib001 as L } from \"./LeagueLib001.sol\";\n\n\n/**\n * @title League 0.0.1 Contract\n */\ncontract League001 is ILeague001, BaseLeague {\n\n  // League version\n  string private VERSION = \"0.0.1\";\n  // Number of Participants in each fixture\n  uint private PARTICIPANTS_PER_FIXTURE;\n\n  // Season corresponds to `true` if exists, `false` otherwise\n  mapping(uint => bool) private supportedSeasons;\n  // Season corresponds to list of fixture ids\n  mapping(uint => uint[]) private seasons;\n  // List of seasons\n  uint[] private seasonList;\n  // List of all fixtures ever in league\n  // Fixture id is (i + 1), where i is the index of fixture\n  L.Fixture[] private fixtures;\n  // List of participants ever played in league\n  // Participant id is (i + 1), where i is the index of participant\n  L.Participant[] private participants;\n\n  // Mapping of fixture hashes to whether they exist, to avoid duplicates\n  mapping(bytes32 => bool) private duplicateManager;\n\n  // Fixture ids correspond to `true` if resolved, `false` if not resolved\n  // Being resolved means at least one resolution has been pushed by ConsensusManager\n  mapping(uint => bool) private resolved;\n  // fixture => resolver => payload\n  mapping(uint => mapping(address => bytes)) private resolutions;\n  // fixture => resolver => boolean (whether pushed or not)\n  mapping(uint => mapping(address => bool)) private pushed;\n\n  // Emit when new season added\n  event LogSeasonAdded(uint indexed _year);\n  // Emit when new fixture added\n  event LogFixtureAdded(uint _id);\n  // Emit when fixture is rescheduled\n  event LogFixtureRescheduled(uint _id);\n  // Emit when new participant added\n  event LogParticipantAdded(uint _id);\n  // Emit when a Fixture is resolved, by resolver\n  event LogMarketsResolved(uint indexed _fixtureId, address _resolver, bytes _payload);\n\n  /**\n   * @notice Constructor\n   * @param _class Class of league\n   * @param _name Name of league\n   * @param _registry Address of the FansUnite Registry Contact\n   * @param _participantsPerFixture Number of participants allowed per fixture\n   */\n  constructor(\n    string _class,\n    string _name,\n    address _registry,\n    uint _participantsPerFixture\n  )\n    public\n    BaseLeague(_class, _name, _registry)\n  {\n    PARTICIPANTS_PER_FIXTURE = _participantsPerFixture;\n  }\n\n  /**\n   * @dev Throw is called by any account other than consensus\n   */\n  modifier onlyOracles() {\n    require(\n      msg.sender == registry.getAddress(\"ConsensusManager\"),\n      \"Sender is not ConsensusManager\"\n    );\n    _;\n  }\n\n  ///////////////////////////////////////////////////////////////////////////////\n  ///////////////////////////// external functions //////////////////////////////\n  ///////////////////////////////////////////////////////////////////////////////\n\n  /**\n   * @notice Adds a resolution payload for fixture with id `_fixture` and resolver `_resolver`\n   * @param _fixture Id of the fixture being resolved\n   * @param _resolver Address of the resolver that can resolve _payload\n   * @param _payload Encoded resolution payload\n   * @dev _payload can be 0x, should result in bet cancellation\n   * @dev _payload can be 0x00..00, would be passed as valid resolution payload to resolvers\n   */\n  function pushResolution(uint _fixture, address _resolver, bytes _payload)\n    external\n    onlyOracles\n  {\n    // TODO Reduce duplication when multiple resolvers use the same payload\n    // NOTE pushResolution can be called to write and overwrite payload, by design\n    // NOTE not validating _resolver and _fixture, economical guarantee from oracles\n    pushed[_fixture][_resolver] = true;\n    resolutions[_fixture][_resolver] = _payload;\n\n    emit LogMarketsResolved(_fixture, _resolver, _payload);\n  }\n\n  /**\n   * @notice Starts a new season with year `_year`\n   * @param _year Year of the first fixture in new season\n   */\n  function addSeason(uint _year) external {\n    require(!_isSeasonSupported(_year), \"Season already supported\");\n\n    supportedSeasons[_year] = true;\n    seasonList.push(_year);\n\n    emit LogSeasonAdded(_year);\n  }\n\n  /**\n   * @notice Creates a new fixture for season `_season`\n   * @dev _start is rounded off to the nearest second\n   * @param _season Season of fixture\n   * @param _participants ids of participants in fixture\n   * @param _start Start time (unix timestamp, seconds)\n   */\n  function scheduleFixture(uint _season, uint[] _participants, uint _start) external {\n    bytes32 _hash = L.hashRawFixture(_participants, _start);\n\n    require(\n      _isSeasonSupported(_season),\n      \"League does not support given season\"\n    );\n    require(\n      _participants.length == PARTICIPANTS_PER_FIXTURE,\n      \"Invalid number of participants in fixture\"\n    );\n    require(\n      _areParticipants(_participants),\n      \"Unknown participant scheduled for fixture\"\n    );\n    require(\n      _start > block.timestamp,\n      \"Fixture has already started\"\n    );\n    require(\n      !duplicateManager[_hash],\n      \"Fixture is duplicated in league\"\n    );\n\n    L.Fixture memory _fixture;\n    _fixture.id = fixtures.length + 1;\n    _fixture.start = _start;\n    fixtures.push(_fixture);\n    fixtures[fixtures.length - 1].participants = _participants;\n    seasons[_season].push(_fixture.id);\n    duplicateManager[_hash] = true;\n\n    emit LogFixtureAdded(_fixture.id);\n  }\n\n  /**\n   * @notice Updates fixture `_id`'s start time to `_start`\n   * @param _id Fixture Id\n   * @param _start Start time (unix timestamp, seconds)\n   */\n  function rescheduleFixture(uint _id, uint _start) external onlyOracles {\n    require(\n      _start > block.timestamp,\n      \"Start time must be in the future\"\n    );\n\n    require(\n      _isFixtureScheduled(_id),\n      \"Given fixture is not scheduled in league\"\n    );\n\n    fixtures[_id].start = _start;\n\n    emit LogFixtureRescheduled(_id);\n  }\n\n  /**\n   * @notice Adds a new participant to the league\n   * @param _name Name of the participant - should match pattern /^[a-zA-Z0-9.() ]+$/\n   * @param _details Off-chain hash of participant details\n   */\n  function addParticipant(string _name, bytes _details) external onlyOwner {\n    bytes32 _hash = L.hashRawParticipant(_name);\n\n    require(\n      !duplicateManager[_hash],\n      \"Participant already in league\"\n    );\n\n    L.Participant memory _participant;\n    _participant.name = _name;\n    _participant.details = _details;\n    _participant.id = participants.length + 1;\n    participants.push(_participant);\n    duplicateManager[_hash] = true;\n\n    emit LogParticipantAdded(_participant.id);\n  }\n\n\n  ///////////////////////////////////////////////////////////////////////////////\n  ///////////////////////////// external view functions /////////////////////////\n  ///////////////////////////////////////////////////////////////////////////////\n\n\n  /**\n   * @notice Gets resolution payload for fixture `_fixture` and resolver `_resolver`\n   * @dev throws if fixture `_fixture` is not resolved for resolver `_resolver`\n   * @param _fixture Id of the payload's corresponding fixture\n   * @param _resolver Address of the payload's corresponding resolver\n   * @return Resolution payload for fixture `_fixture` and resolver `_resolver`\n   */\n  function getResolution(uint _fixture, address _resolver) external view returns (bytes) {\n    require(\n      _areMarketsResolved(_fixture, _resolver),\n      \"Requested markets are not resolved\"\n    );\n\n    return resolutions[_fixture][_resolver];\n  }\n\n  /**\n   * @notice Gets a list of all seasons in league\n   * @return Years of all seasons in league\n   */\n  function getSeasons() external view returns (uint[]) {\n    return seasonList;\n  }\n\n  /**\n   * @notice Gets the season with year `_year`\n   * @param _year Year of the season\n   * @return Year of the season\n   * @return Ids fixtures scheduled in season `_year`\n   */\n  function getSeason(uint _year) external view returns (uint, uint[]) {\n    require(_isSeasonSupported(_year), \"League does not support given season\");\n\n    return (_year, seasons[_year]);\n  }\n\n  /**\n   * @notice Gets start time for fixture `_fixture`\n   * @param _fixture Id of fixture\n   * @return start time of fixture `_fixture`\n   */\n  function getFixtureStart(uint _fixture) external view returns (uint) {\n    require(_isFixtureScheduled(_fixture), \"Given fixture is not scheduled in league\");\n\n    return fixtures[_fixture - 1].start;\n  }\n\n  /**\n   * @notice Gets scheduled fixture with id `_id`\n   * @param _id Id of the scheduled fixture\n   * @return Fixture id\n   * @return Participant Ids\n   * @return Start time\n   */\n  function getFixture(uint _id) external view returns (uint, uint[], uint) {\n    require(_isFixtureScheduled(_id), \"Given fixture is not scheduled in league\");\n\n    L.Fixture storage _fixture = fixtures[_id - 1];\n    return (_fixture.id, _fixture.participants, _fixture.start);\n  }\n\n  /**\n   * @notice Gets participant in league with id `_id`\n   * @param _id Id of the participant\n   * @return Participant Id\n   * @return Participant name\n   * @return Details of Participant (hash)\n   */\n  function getParticipant(uint _id) external view returns (uint, string, bytes) {\n    require(_isParticipant(_id), \"Given participant is not in league\");\n\n    L.Participant storage _participant = participants[_id - 1];\n    return (_participant.id, _participant.name, _participant.details);\n  }\n\n  /**\n   * @notice Gets participants count\n   * @return participant count\n   */\n  function getParticipantCount() external view returns (uint) {\n    return participants.length;\n  }\n\n  /**\n   * @notice Checks if fixture with id `_fixture` has been scheduled in league\n   * @param _fixture Id of the fixture\n   * @return `true` if fixture with id `_fixture` is scheduled, `false` otherwise\n   */\n  function isFixtureScheduled(uint _fixture) external view returns (bool) {\n    return _isFixtureScheduled(_fixture);\n  }\n\n  /**\n   * @notice Checks if all markets in resolver `_resolver` are resolved for fixture `_fixture`\n   * @param _fixture Id of the fixture\n   * @param _resolver Address of the resolver\n   * @return `true` if resolved, `false` otherwise\n   */\n  function areMarketsResolved(uint _fixture, address _resolver) external view returns (bool) {\n    return _areMarketsResolved(_fixture, _resolver);\n  }\n\n  /**\n   * @notice Checks if participant id `_participant` is valid\n   * @param _participant Id of the participant\n   * @return `true` if participant id `_participant` is valid, `false` otherwise\n   */\n  function isParticipant(uint _participant) external view returns (bool) {\n    return _isParticipant(_participant);\n  }\n\n  /**\n   * @notice Checks if participant `_participant` is playing in fixture `_fixture`\n   * @param _participant Id of the participant\n   * @param _fixture Id of the fixture\n   * @return `true` if participant `_participant` is scheduled in for fixture `_fixture`\n   */\n  function isParticipantScheduled(uint _participant, uint _fixture)\n    external\n    view\n    returns (bool)\n  {\n    L.Fixture storage __fixture = fixtures[_fixture - 1];\n    for (uint i = 0; i < __fixture.participants.length; i++)\n      if (__fixture.participants[i] == _participant) return true;\n    return false;\n  }\n\n  /**\n   * @notice Gets the league version (matches LeagueFactory version)\n   * @return Version of the league contract\n   */\n  function getVersion() external view returns (string) {\n    return VERSION;\n  }\n\n\n  ///////////////////////////////////////////////////////////////////////////////\n  ///////////////////////////// private view functions //////////////////////////\n  ///////////////////////////////////////////////////////////////////////////////\n\n  // Private isFixtureScheduled\n  function _isFixtureScheduled(uint _fixture) private view returns (bool) {\n    return _fixture > 0 && _fixture < fixtures.length + 1;\n  }\n\n  // Private areMarketsResolved\n  function _areMarketsResolved(uint _fixture, address _resolver) private view returns (bool) {\n    return pushed[_fixture][_resolver];\n  }\n\n  // Private isParticipant\n  function _isParticipant(uint _participant) private view returns (bool) {\n    return _participant > 0 && _participant < participants.length + 1;\n  }\n\n  // validate all participants\n  function _areParticipants(uint[] _participants) private view returns (bool) {\n    for (uint i = 0; i < _participants.length; i++) {\n      if (!_isParticipant(_participants[i])) return false;\n    }\n    return true;\n  }\n\n  // Private isSeasonSupported\n  function _isSeasonSupported(uint _year) private view returns (bool) {\n    return supportedSeasons[_year];\n  }\n\n}\n",
  "sourcePath": "/Users/ryancimoszko/fu/fansunite-js/node_modules/@fansunite/fansunite-core/contracts/leagues/League001.sol",
  "compiler": {
    "name": "solc",
    "version": "0.4.24+commit.e67f0147.Emscripten.clang"
  },
  "schemaVersion": "2.0.1",
  "updatedAt": "2019-08-26T22:14:55.508Z"
}