{
  "contractName": "League001",
  "abi": [
    {
      "constant": true,
      "inputs": [],
      "name": "getName",
      "outputs": [
        {
          "name": "",
          "type": "string"
        }
      ],
      "payable": false,
      "stateMutability": "view",
      "type": "function"
    },
    {
      "constant": true,
      "inputs": [],
      "name": "getRegistryContract",
      "outputs": [
        {
          "name": "",
          "type": "address"
        }
      ],
      "payable": false,
      "stateMutability": "view",
      "type": "function"
    },
    {
      "constant": false,
      "inputs": [
        {
          "name": "_details",
          "type": "bytes"
        }
      ],
      "name": "setDetails",
      "outputs": [],
      "payable": false,
      "stateMutability": "nonpayable",
      "type": "function"
    },
    {
      "constant": true,
      "inputs": [],
      "name": "getClass",
      "outputs": [
        {
          "name": "",
          "type": "string"
        }
      ],
      "payable": false,
      "stateMutability": "view",
      "type": "function"
    },
    {
      "constant": false,
      "inputs": [],
      "name": "renounceOwnership",
      "outputs": [],
      "payable": false,
      "stateMutability": "nonpayable",
      "type": "function"
    },
    {
      "constant": true,
      "inputs": [],
      "name": "owner",
      "outputs": [
        {
          "name": "",
          "type": "address"
        }
      ],
      "payable": false,
      "stateMutability": "view",
      "type": "function"
    },
    {
      "constant": true,
      "inputs": [],
      "name": "isOwner",
      "outputs": [
        {
          "name": "",
          "type": "bool"
        }
      ],
      "payable": false,
      "stateMutability": "view",
      "type": "function"
    },
    {
      "constant": false,
      "inputs": [
        {
          "name": "newOwner",
          "type": "address"
        }
      ],
      "name": "transferOwnership",
      "outputs": [],
      "payable": false,
      "stateMutability": "nonpayable",
      "type": "function"
    },
    {
      "constant": true,
      "inputs": [],
      "name": "getDetails",
      "outputs": [
        {
          "name": "",
          "type": "bytes"
        }
      ],
      "payable": false,
      "stateMutability": "view",
      "type": "function"
    },
    {
      "inputs": [
        {
          "name": "_class",
          "type": "string"
        },
        {
          "name": "_name",
          "type": "string"
        },
        {
          "name": "_registry",
          "type": "address"
        },
        {
          "name": "_participantsPerFixture",
          "type": "uint256"
        }
      ],
      "payable": false,
      "stateMutability": "nonpayable",
      "type": "constructor"
    },
    {
      "anonymous": false,
      "inputs": [
        {
          "indexed": true,
          "name": "_year",
          "type": "uint16"
        }
      ],
      "name": "LogSeasonAdded",
      "type": "event"
    },
    {
      "anonymous": false,
      "inputs": [
        {
          "indexed": false,
          "name": "_id",
          "type": "uint256"
        }
      ],
      "name": "LogFixtureAdded",
      "type": "event"
    },
    {
      "anonymous": false,
      "inputs": [
        {
          "indexed": false,
          "name": "_id",
          "type": "uint256"
        }
      ],
      "name": "LogParticipantAdded",
      "type": "event"
    },
    {
      "anonymous": false,
      "inputs": [
        {
          "indexed": true,
          "name": "_fixtureId",
          "type": "uint256"
        },
        {
          "indexed": false,
          "name": "_resolver",
          "type": "address"
        },
        {
          "indexed": false,
          "name": "_payload",
          "type": "bytes"
        }
      ],
      "name": "LogFixtureResolved",
      "type": "event"
    },
    {
      "anonymous": false,
      "inputs": [
        {
          "indexed": true,
          "name": "previousOwner",
          "type": "address"
        }
      ],
      "name": "OwnershipRenounced",
      "type": "event"
    },
    {
      "anonymous": false,
      "inputs": [
        {
          "indexed": true,
          "name": "previousOwner",
          "type": "address"
        },
        {
          "indexed": true,
          "name": "newOwner",
          "type": "address"
        }
      ],
      "name": "OwnershipTransferred",
      "type": "event"
    },
    {
      "constant": false,
      "inputs": [
        {
          "name": "_fixture",
          "type": "uint256"
        },
        {
          "name": "_resolver",
          "type": "address"
        },
        {
          "name": "_payload",
          "type": "bytes"
        }
      ],
      "name": "pushResolution",
      "outputs": [],
      "payable": false,
      "stateMutability": "nonpayable",
      "type": "function"
    },
    {
      "constant": false,
      "inputs": [
        {
          "name": "_year",
          "type": "uint16"
        }
      ],
      "name": "addSeason",
      "outputs": [],
      "payable": false,
      "stateMutability": "nonpayable",
      "type": "function"
    },
    {
      "constant": false,
      "inputs": [
        {
          "name": "_season",
          "type": "uint16"
        },
        {
          "name": "_participants",
          "type": "uint256[]"
        },
        {
          "name": "_start",
          "type": "uint256"
        }
      ],
      "name": "scheduleFixture",
      "outputs": [],
      "payable": false,
      "stateMutability": "nonpayable",
      "type": "function"
    },
    {
      "constant": false,
      "inputs": [
        {
          "name": "_name",
          "type": "string"
        },
        {
          "name": "_details",
          "type": "bytes"
        }
      ],
      "name": "addParticipant",
      "outputs": [],
      "payable": false,
      "stateMutability": "nonpayable",
      "type": "function"
    },
    {
      "constant": true,
      "inputs": [
        {
          "name": "_fixture",
          "type": "uint256"
        },
        {
          "name": "_resolver",
          "type": "address"
        }
      ],
      "name": "getResolution",
      "outputs": [
        {
          "name": "",
          "type": "bytes"
        }
      ],
      "payable": false,
      "stateMutability": "view",
      "type": "function"
    },
    {
      "constant": true,
      "inputs": [],
      "name": "getSeasons",
      "outputs": [
        {
          "name": "",
          "type": "uint16[]"
        }
      ],
      "payable": false,
      "stateMutability": "view",
      "type": "function"
    },
    {
      "constant": true,
      "inputs": [
        {
          "name": "_year",
          "type": "uint16"
        }
      ],
      "name": "getSeason",
      "outputs": [
        {
          "name": "",
          "type": "uint16"
        },
        {
          "name": "",
          "type": "uint256[]"
        }
      ],
      "payable": false,
      "stateMutability": "view",
      "type": "function"
    },
    {
      "constant": true,
      "inputs": [
        {
          "name": "_fixture",
          "type": "uint256"
        }
      ],
      "name": "getFixtureStart",
      "outputs": [
        {
          "name": "",
          "type": "uint256"
        }
      ],
      "payable": false,
      "stateMutability": "view",
      "type": "function"
    },
    {
      "constant": true,
      "inputs": [
        {
          "name": "_id",
          "type": "uint256"
        }
      ],
      "name": "getFixture",
      "outputs": [
        {
          "name": "",
          "type": "uint256"
        },
        {
          "name": "",
          "type": "uint256[]"
        },
        {
          "name": "",
          "type": "uint256"
        }
      ],
      "payable": false,
      "stateMutability": "view",
      "type": "function"
    },
    {
      "constant": true,
      "inputs": [
        {
          "name": "_id",
          "type": "uint256"
        }
      ],
      "name": "getParticipant",
      "outputs": [
        {
          "name": "",
          "type": "uint256"
        },
        {
          "name": "",
          "type": "string"
        },
        {
          "name": "",
          "type": "bytes"
        }
      ],
      "payable": false,
      "stateMutability": "view",
      "type": "function"
    },
    {
      "constant": true,
      "inputs": [],
      "name": "getParticipantCount",
      "outputs": [
        {
          "name": "",
          "type": "uint256"
        }
      ],
      "payable": false,
      "stateMutability": "view",
      "type": "function"
    },
    {
      "constant": true,
      "inputs": [
        {
          "name": "_fixture",
          "type": "uint256"
        }
      ],
      "name": "isFixtureScheduled",
      "outputs": [
        {
          "name": "",
          "type": "bool"
        }
      ],
      "payable": false,
      "stateMutability": "view",
      "type": "function"
    },
    {
      "constant": true,
      "inputs": [
        {
          "name": "_fixture",
          "type": "uint256"
        },
        {
          "name": "_resolver",
          "type": "address"
        }
      ],
      "name": "isFixtureResolved",
      "outputs": [
        {
          "name": "",
          "type": "uint8"
        }
      ],
      "payable": false,
      "stateMutability": "view",
      "type": "function"
    },
    {
      "constant": true,
      "inputs": [
        {
          "name": "_participant",
          "type": "uint256"
        }
      ],
      "name": "isParticipant",
      "outputs": [
        {
          "name": "",
          "type": "bool"
        }
      ],
      "payable": false,
      "stateMutability": "view",
      "type": "function"
    },
    {
      "constant": true,
      "inputs": [
        {
          "name": "_participant",
          "type": "uint256"
        },
        {
          "name": "_fixture",
          "type": "uint256"
        }
      ],
      "name": "isParticipantScheduled",
      "outputs": [
        {
          "name": "",
          "type": "bool"
        }
      ],
      "payable": false,
      "stateMutability": "view",
      "type": "function"
    },
    {
      "constant": true,
      "inputs": [],
      "name": "getVersion",
      "outputs": [
        {
          "name": "",
          "type": "string"
        }
      ],
      "payable": false,
      "stateMutability": "view",
      "type": "function"
    }
  ],
  "bytecode": "0x60c0604052600560808190527f302e302e3100000000000000000000000000000000000000000000000000000060a09081526200003e919081620000ef565b503480156200004c57600080fd5b50604051620020fa380380620020fa83398101604090815281516020808401519284015160608501516000805433600160a060020a03199182161790915560018054909116600160a060020a038416179055928501805190959490940193909291859185918591620000c59160039190860190620000ef565b508151620000db906002906020850190620000ef565b505050600691909155506200019492505050565b828054600181600116156101000203166002900490600052602060002090601f016020900481019282601f106200013257805160ff191683800117855562000162565b8280016001018555821562000162579182015b828111156200016257825182559160200191906001019062000145565b506200017092915062000174565b5090565b6200019191905b808211156200017057600081556001016200017b565b90565b611f5680620001a46000396000f3006080604052600436106101485763ffffffff7c01000000000000000000000000000000000000000000000000000000006000350416630d8e6e2c811461014d5780630f36c47f146101d7578063111953ac1461023c57806317d7de7c146102685780631b9db2ef1461027d5780632cb0a2e51461037a57806336ca3d73146103a4578063376111c2146103d557806342813bcc146104035780634f26df4e1461043d57806354d0940d1461045d57806357e61ea4146104d75780635c3775c9146104ec578063715018a6146105085780638da5cb5b1461051d5780638f32d59b14610532578063922c20ab1461054757806393ffd67014610572578063a3c8f7391461058d578063ad605729146105be578063cb378bba146105d3578063e239c95214610652578063e78341e61461066a578063f2fde38b1461068e578063fbbf93a0146106af575b600080fd5b34801561015957600080fd5b506101626106c4565b6040805160208082528351818301528351919283929083019185019080838360005b8381101561019c578181015183820152602001610184565b50505050905090810190601f1680156101c95780820380516001836020036101000a031916815260200191505b509250505060405180910390f35b3480156101e357600080fd5b506101ec61075b565b60408051602080825283518183015283519192839290830191858101910280838360005b83811015610228578181015183820152602001610210565b505050509050019250505060405180910390f35b34801561024857600080fd5b506102546004356107da565b604080519115158252519081900360200190f35b34801561027457600080fd5b506101626107eb565b34801561028957600080fd5b50610295600435610849565b604051808481526020018060200180602001838103835285818151815260200191508051906020019080838360005b838110156102dc5781810151838201526020016102c4565b50505050905090810190601f1680156103095780820380516001836020036101000a031916815260200191505b50838103825284518152845160209182019186019080838360005b8381101561033c578181015183820152602001610324565b50505050905090810190601f1680156103695780820380516001836020036101000a031916815260200191505b509550505050505060405180910390f35b34801561038657600080fd5b50610392600435610a3c565b60408051918252519081900360200190f35b3480156103b057600080fd5b506103b9610aee565b60408051600160a060020a039092168252519081900360200190f35b3480156103e157600080fd5b506104016024600480358281019290820135918135918201910135610afd565b005b34801561040f57600080fd5b50610427600435600160a060020a0360243516610d1d565b6040805160ff9092168252519081900360200190f35b34801561044957600080fd5b506104016004803560248101910135610d30565b34801561046957600080fd5b50610475600435610d54565b6040518084815260200180602001838152602001828103825284818151815260200191508051906020019060200280838360005b838110156104c15781810151838201526020016104a9565b5050505090500194505050505060405180910390f35b3480156104e357600080fd5b50610162610e70565b3480156104f857600080fd5b5061040161ffff60043516610ed1565b34801561051457600080fd5b50610401610fcd565b34801561052957600080fd5b506103b9611035565b34801561053e57600080fd5b50610254611044565b34801561055357600080fd5b506104016004803561ffff169060248035908101910135604435611055565b34801561057e57600080fd5b5061025460043560243561144e565b34801561059957600080fd5b50610401600480359060248035600160a060020a0316916044359182019101356115ab565b3480156105ca57600080fd5b506103926117b9565b3480156105df57600080fd5b506105ef61ffff600435166117bf565b604051808361ffff1661ffff16815260200180602001828103825283818151815260200191508051906020019060200280838360005b8381101561063d578181015183820152602001610625565b50505050905001935050505060405180910390f35b34801561065e57600080fd5b506102546004356118b5565b34801561067657600080fd5b50610162600435600160a060020a03602435166118c0565b34801561069a57600080fd5b50610401600160a060020a03600435166119ff565b3480156106bb57600080fd5b50610162611a1e565b60058054604080516020601f60026000196101006001881615020190951694909404938401819004810282018101909252828152606093909290918301828280156107505780601f1061072557610100808354040283529160200191610750565b820191906000526020600020905b81548152906001019060200180831161073357829003601f168201915b505050505090505b90565b6060600980548060200260200160405190810160405280929190818152602001828054801561075057602002820191906000526020600020906000905b82829054906101000a900461ffff1661ffff16815260200190600201906020826001010492830192600103820291508084116107985790505050505050905090565b60006107e582611a7f565b92915050565b60028054604080516020601f60001961010060018716150201909416859004938401819004810282018101909252828152606093909290918301828280156107505780601f1061072557610100808354040283529160200191610750565b6000606080600061085985611a7f565b15156108d5576040805160e560020a62461bcd02815260206004820152602260248201527f476976656e207061727469636970616e74206973206e6f7420696e206c65616760448201527f7565000000000000000000000000000000000000000000000000000000000000606482015290519081900360840190fd5b600b805460001987019081106108e757fe5b9060005260206000209060030201905080600001548160010182600201818054600181600116156101000203166002900480601f0160208091040260200160405190810160405280929190818152602001828054600181600116156101000203166002900480156109995780601f1061096e57610100808354040283529160200191610999565b820191906000526020600020905b81548152906001019060200180831161097c57829003601f168201915b5050845460408051602060026001851615610100026000190190941693909304601f810184900484028201840190925281815295975086945092508401905082828015610a275780601f106109fc57610100808354040283529160200191610a27565b820191906000526020600020905b815481529060010190602001808311610a0a57829003601f168201915b50505050509050935093509350509193909250565b6000610a4782611a96565b1515610ac3576040805160e560020a62461bcd02815260206004820152602860248201527f476976656e2066697874757265206973206e6f74207363686564756c6564206960448201527f6e206c6561677565000000000000000000000000000000000000000000000000606482015290519081900360840190fd5b600a80546000198401908110610ad557fe5b9060005260206000209060030201600201549050919050565b600154600160a060020a031690565b6000610b07611d6c565b610b0f611044565b1515610b1a57600080fd5b610b5386868080601f01602080910402602001604051908101604052809392919081815260200183838082843750611aad945050505050565b6000818152600c602052604090205490925060ff1615610bbd576040805160e560020a62461bcd02815260206004820152601d60248201527f5061727469636970616e7420616c726561647920696e206c6561677565000000604482015290519081900360640190fd5b85858080601f01602080910402602001604051908101604052809392919081815260200183838082843750505050602080850193909352505060408051601f86018390048302810183019091528481529085908590819084018382808284375050505060408401929092525050600b805460018101808452808355600092909252825160039091027f0175b7a638427703f0dbe7bb9bbf987a2551717b34e79f33b5b1008d1fa01db981019182556020808501518051869493610ca6937f0175b7a638427703f0dbe7bb9bbf987a2551717b34e79f33b5b1008d1fa01dba909101920190611d8e565b5060408201518051610cc2916002840191602090910190611d8e565b5050506000838152600c6020908152604091829020805460ff191660011790558351825190815291517f561e78c65705a87f79183e181a2456903f6f4a0edf209667b5e0d7bda085e6019350918290030190a1505050505050565b6000610d298383611b77565b9392505050565b610d38611044565b1515610d4357600080fd5b610d4f60048383611e0c565b505050565b60006060600080610d6485611a96565b1515610de0576040805160e560020a62461bcd02815260206004820152602860248201527f476976656e2066697874757265206973206e6f74207363686564756c6564206960448201527f6e206c6561677565000000000000000000000000000000000000000000000000606482015290519081900360840190fd5b600a80546000198701908110610df257fe5b90600052602060002090600302019050806000015481600101826002015481805480602002602001604051908101604052809291908181526020018280548015610e5b57602002820191906000526020600020905b815481526020019060010190808311610e47575b50505050509150935093509350509193909250565b60038054604080516020601f60026000196101006001881615020190951694909404938401819004810282018101909252828152606093909290918301828280156107505780601f1061072557610100808354040283529160200191610750565b610eda81611bd1565b15610f2f576040805160e560020a62461bcd02815260206004820152601860248201527f536561736f6e20616c726561647920737570706f727465640000000000000000604482015290519081900360640190fd5b61ffff8181166000818152600760205260408082208054600160ff19909116811790915560098054918201815583527f6e1540171b6c0c960b71a7020d9f60077f6af931a8bbf590da0223dacf75c7af60108204018054600f9092166002026101000a9586021990911694840294909417909355915190917f93d8e6e39c60fb57c0d9aa623448b0ff9bb697d00f01bbb77c02259092f575fe91a250565b610fd5611044565b1515610fe057600080fd5b60008054604051600160a060020a03909116917ff8df31144d9c2f0f6b59d69b8b98abd5459d07f2742c4df920b25aae33c6482091a26000805473ffffffffffffffffffffffffffffffffffffffff19169055565b600054600160a060020a031690565b600054600160a060020a0316331490565b600061105f611e7a565b61109785858080602002602001604051908101604052809392919081815260200183836020028082843750899450611bea9350505050565b91506110a286611bd1565b151561111d576040805160e560020a62461bcd028152602060048201526024808201527f4c656167756520646f6573206e6f7420737570706f727420676976656e20736560448201527f61736f6e00000000000000000000000000000000000000000000000000000000606482015290519081900360840190fd5b600654841461119c576040805160e560020a62461bcd02815260206004820152602960248201527f496e76616c6964206e756d626572206f66207061727469636970616e7473206960448201527f6e20666978747572650000000000000000000000000000000000000000000000606482015290519081900360840190fd5b6111d285858080602002602001604051908101604052809392919081815260200183836020028082843750611ca0945050505050565b151561124e576040805160e560020a62461bcd02815260206004820152602960248201527f556e6b6e6f776e207061727469636970616e74207363686564756c656420666f60448201527f7220666978747572650000000000000000000000000000000000000000000000606482015290519081900360840190fd5b4283116112a5576040805160e560020a62461bcd02815260206004820152601b60248201527f466978747572652068617320616c726561647920737461727465640000000000604482015290519081900360640190fd5b6000828152600c602052604090205460ff161561130c576040805160e560020a62461bcd02815260206004820152601f60248201527f46697874757265206973206475706c69636174656420696e206c656167756500604482015290519081900360640190fd5b600a80546001810180845260408401869052808355600092909252825160039091027fc65a7bb8d6351c1cf70c95a316cc6a92839c986682d98bc35f958f4883f9d2a88101918255602080850151805186949361138f937fc65a7bb8d6351c1cf70c95a316cc6a92839c986682d98bc35f958f4883f9d2a9909101920190611e9c565b506040919091015160029091015550600a80548691869160001981019081106113b457fe5b906000526020600020906003020160010191906113d2929190611ed6565b5061ffff8616600090815260086020908152604080832084518154600181810184559286528486200155858452600c835292819020805460ff19169093179092558251825190815291517f9304e030915ed6da5c27faf048f12f3eae58394969224636eb98a811e84db75f9281900390910190a1505050505050565b600080600061145c85611a7f565b15156114d8576040805160e560020a62461bcd02815260206004820152602260248201527f476976656e207061727469636970616e74206973206e6f7420696e206c65616760448201527f7565000000000000000000000000000000000000000000000000000000000000606482015290519081900360840190fd5b6114e184611a96565b1515611537576040805160e560020a62461bcd02815260206004820152601e60248201527f476976656e2066697874757265206973206e6f74207363686564756c65640000604482015290519081900360640190fd5b600a8054600019860190811061154957fe5b90600052602060002090600302019150600090505b600182015481101561159e5784826001018281548110151561157c57fe5b9060005260206000200154141561159657600192506115a3565b60010161155e565b600092505b505092915050565b600154604080517fbf40fac1000000000000000000000000000000000000000000000000000000008152602060048201819052601060248301527f436f6e73656e7375734d616e616765720000000000000000000000000000000060448301529151600160a060020a039093169263bf40fac1926064808401939192918290030181600087803b15801561163e57600080fd5b505af1158015611652573d6000803e3d6000fd5b505050506040513d602081101561166857600080fd5b5051600160a060020a031633146116c9576040805160e560020a62461bcd02815260206004820152601e60248201527f53656e646572206973206e6f7420436f6e73656e7375734d616e616765720000604482015290519081900360640190fd5b6000848152600d602052604090205460ff1615156116fb576000848152600d60205260409020805460ff191660011790555b6000848152600f60209081526040808320600160a060020a038716808552908352818420805460ff19166001179055878452600e83528184209084529091529020611747908383611e0c565b50837fe256c6663711b1954989cfd3de024e298d0938b5d9e57e8c3fd35ef6f452e93b8484846040518084600160a060020a0316600160a060020a031681526020018060200182810382528484828181526020019250808284376040519201829003965090945050505050a250505050565b600b5490565b600060606117cc83611bd1565b1515611847576040805160e560020a62461bcd028152602060048201526024808201527f4c656167756520646f6573206e6f7420737570706f727420676976656e20736560448201527f61736f6e00000000000000000000000000000000000000000000000000000000606482015290519081900360840190fd5b61ffff83166000908152600860209081526040918290208054835181840281018401909452808452869391928391908301828280156118a557602002820191906000526020600020905b815481526020019060010190808311611891575b5050505050905091509150915091565b60006107e582611a96565b60606118cc8383611b77565b60ff16600114151561194e576040805160e560020a62461bcd02815260206004820152603860248201527f476976656e207265736f6c7665722c20666f7220676976656e2066697874757260448201527f652c20686173206e6f74206265656e207265736f6c7665640000000000000000606482015290519081900360840190fd5b6000838152600e60209081526040808320600160a060020a038616845282529182902080548351601f6002600019610100600186161502019093169290920491820184900484028101840190945280845290918301828280156119f25780601f106119c7576101008083540402835291602001916119f2565b820191906000526020600020905b8154815290600101906020018083116119d557829003601f168201915b5050505050905092915050565b611a07611044565b1515611a1257600080fd5b611a1b81611cef565b50565b60048054604080516020601f60026000196101006001881615020190951694909404938401819004810282018101909252828152606093909290918301828280156107505780601f1061072557610100808354040283529160200191610750565b600080821180156107e5575050600b546001011190565b600080821180156107e5575050600a546001011190565b6000816040516020018082805190602001908083835b60208310611ae25780518252601f199092019160209182019101611ac3565b6001836020036101000a0380198251168184511680821785525050505050509050019150506040516020818303038152906040526040518082805190602001908083835b60208310611b455780518252601f199092019160209182019101611b26565b5181516020939093036101000a6000190180199091169216919091179052604051920182900390912095945050505050565b6000828152600d602052604081205460ff161515611b97575060006107e5565b6000838152600f60209081526040808320600160a060020a038616845290915290205460ff16611bc8576002610d29565b50600192915050565b61ffff1660009081526007602052604090205460ff1690565b6000828260405160200180838051906020019060200280838360005b83811015611c1e578181015183820152602001611c06565b50505050905001828152602001925050506040516020818303038152906040526040518082805190602001908083835b60208310611c6d5780518252601f199092019160209182019101611c4e565b5181516020939093036101000a600019018019909116921691909117905260405192018290039091209695505050505050565b6000805b8251811015611ce457611ccd8382815181101515611cbe57fe5b90602001906020020151611a7f565b1515611cdc5760009150611ce9565b600101611ca4565b600191505b50919050565b600160a060020a0381161515611d0457600080fd5b60008054604051600160a060020a03808516939216917f8be0079c531659141344cd1fd0a4f28419497f9722a3daafe3b4186f6b6457e091a36000805473ffffffffffffffffffffffffffffffffffffffff1916600160a060020a0392909216919091179055565b6060604051908101604052806000815260200160608152602001606081525090565b828054600181600116156101000203166002900490600052602060002090601f016020900481019282601f10611dcf57805160ff1916838001178555611dfc565b82800160010185558215611dfc579182015b82811115611dfc578251825591602001919060010190611de1565b50611e08929150611f10565b5090565b828054600181600116156101000203166002900490600052602060002090601f016020900481019282601f10611e4d5782800160ff19823516178555611dfc565b82800160010185558215611dfc579182015b82811115611dfc578235825591602001919060010190611e5f565b6060604051908101604052806000815260200160608152602001600081525090565b828054828255906000526020600020908101928215611dfc5791602002820182811115611dfc578251825591602001919060010190611de1565b828054828255906000526020600020908101928215611dfc5791602002820182811115611dfc578235825591602001919060010190611e5f565b61075891905b80821115611e085760008155600101611f165600a165627a7a723058202a6280a8b8228cf078b0067427815f6ba50387b6c0f14a64170554ea1444eeae0029",
  "source": "pragma solidity ^0.4.24;\n\nimport \"openzeppelin-solidity/contracts/ownership/Ownable.sol\";\n\nimport \"./ILeague001.sol\";\nimport \"./BaseLeague.sol\";\nimport \"../interfaces/IResolverRegistry.sol\";\nimport \"../interfaces/IResolver.sol\";\n\nimport { LeagueLib001 as L } from \"./LeagueLib001.sol\";\n\n\n/**\n * @title League Contract\n */\ncontract League001 is Ownable, ILeague001, BaseLeague {\n\n  // League version\n  string internal VERSION = \"0.0.1\";\n\n  // Number of Participants in each fixture\n  uint internal PARTICIPANTS_PER_FIXTURE;\n\n  // Season corresponds to `true` if exists, `false` otherwise\n  mapping(uint16 => bool) internal supportedSeasons;\n  // Season corresponds to list of fixture ids\n  mapping(uint16 => uint[]) internal seasons;\n  // List of seasons\n  uint16[] internal seasonList;\n  // List of all fixtures ever in league\n  L.Fixture[] internal fixtures;\n  // List of participants ever played in league\n  L.Participant[] internal participants;\n\n  // Mapping of fixture hashes to whether they exist, to avoid duplicates\n  // NOTE Think about converting uint fixture ids to bytes32 hashes?\n  mapping(bytes32 => bool) duplicateManager;\n\n  // Fixture ids correspond to `true` if resolved, `false` if not resolved\n  // Being resolved means at least one resolution has been pushed\n  mapping(uint => bool) internal resolved;\n  // fixture => resolver => payload\n  mapping(uint => mapping(address => bytes)) internal resolutions;\n  // fixture => resolver => boolean (whether pushed or not)\n  mapping(uint => mapping(address => bool)) internal pushed;\n\n  // Emit when new season added\n  event LogSeasonAdded(uint16 indexed _year);\n  // Emit when new fixture added\n  event LogFixtureAdded(uint _id);\n  // Emit when new participant added\n  event LogParticipantAdded(uint _id);\n  // Emit when a Fixture is resolved, by resolver\n  event LogFixtureResolved(uint indexed _fixtureId, address _resolver, bytes _payload);\n\n  /**\n   * @notice Constructor\n   * @param _class Class of league\n   * @param _name Name of league\n   * @param _registry Address of the FansUnite Registry Contact\n   * @param _participantsPerFixture Number of participants allowed per fixture\n   */\n  constructor(\n    string _class,\n    string _name,\n    address _registry,\n    uint _participantsPerFixture\n  )\n    public\n    BaseLeague(_class, _name, _registry)\n  {\n    PARTICIPANTS_PER_FIXTURE = _participantsPerFixture;\n  }\n\n  /**\n   * @dev Throw is called by any account other than consensus\n   */\n  modifier onlyConsensus() {\n    require(\n      msg.sender == registry.getAddress(\"ConsensusManager\"),\n      \"Sender is not ConsensusManager\"\n    );\n    _;\n  }\n\n  ///////////////////////////////////////////////////////////////////////////////\n  ///////////////////////////// external functions //////////////////////////////\n  ///////////////////////////////////////////////////////////////////////////////\n\n  /**\n   * @notice Adds a resolution payload for fixture with id `_fixture` and resolver `_resolver`\n   * @param _fixture Id of the fixture being resolved\n   * @param _resolver Address of the resolver that can resolve _payload\n   * @param _payload Encoded resolution payload\n   * @dev _payload can be 0x, should result in bet cancellation\n   * @dev _payload can be 0x00..00, would be passed as valid resolution payload to resolvers\n   */\n  function pushResolution(uint _fixture, address _resolver, bytes _payload)\n    external\n    onlyConsensus\n  {\n    // TODO Reduce duplication when multiple resolvers use the same payload\n    // NOTE pushResolution can be called to write and overwrite payload, by design\n    // NOTE not validating _resolver and _fixture, economical guarantee from oracles\n\n    if (!resolved[_fixture]) resolved[_fixture] = true;\n    pushed[_fixture][_resolver] = true;\n    resolutions[_fixture][_resolver] = _payload;\n\n    emit LogFixtureResolved(_fixture, _resolver, _payload);\n  }\n\n  /**\n   * @notice Starts a new season with year `_year`\n   * @param _year Year of the first fixture in new season\n   */\n  function addSeason(uint16 _year) external {\n    require(!_isSeasonSupported(_year), \"Season already supported\");\n\n    supportedSeasons[_year] = true;\n    seasonList.push(_year);\n\n    emit LogSeasonAdded(_year);\n  }\n\n  /**\n   * @notice Creates a new fixture for season `_season`\n   * @param _season Season of fixture\n   * @param _participants ids of participants in event\n   * @param _start Start time (unix timestamp, seconds)\n   * @dev _start is rounded off to the nearest minute\n   */\n  function scheduleFixture(uint16 _season, uint[] _participants, uint _start) external {\n    bytes32 _hash = L.hashRawFixture(_participants, _start);\n\n    require(\n      _isSeasonSupported(_season),\n      \"League does not support given season\"\n    );\n    require(\n      _participants.length == PARTICIPANTS_PER_FIXTURE,\n      \"Invalid number of participants in fixture\"\n    );\n    require(\n      _areParticipants(_participants),\n      \"Unknown participant scheduled for fixture\"\n    );\n    require(\n      _start > block.timestamp,\n      \"Fixture has already started\"\n    );\n    require(\n      !duplicateManager[_hash],\n      \"Fixture is duplicated in league\"\n    );\n\n    L.Fixture memory _fixture;\n    _fixture.id = fixtures.length + 1;\n    _fixture.start = _start;\n    fixtures.push(_fixture);\n    fixtures[fixtures.length - 1].participants = _participants;\n    seasons[_season].push(_fixture.id);\n    duplicateManager[_hash] = true;\n\n    emit LogFixtureAdded(_fixture.id);\n  }\n\n  /**\n   * @notice Adds a new participant to the league\n   * @param _name Name of the participant - should match pattern /^[a-zA-Z0-9.() ]+$/\n   * @param _details Off-chain hash of participant details\n   */\n  function addParticipant(string _name, bytes _details) external onlyOwner {\n    bytes32 _hash = L.hashRawParticipant(_name);\n\n    require(\n      !duplicateManager[_hash],\n      \"Participant already in league\"\n    );\n\n    L.Participant memory _participant;\n    _participant.name = _name;\n    _participant.details = _details;\n    _participant.id = participants.length + 1;\n    participants.push(_participant);\n    duplicateManager[_hash] = true;\n\n    emit LogParticipantAdded(_participant.id);\n  }\n\n\n  ///////////////////////////////////////////////////////////////////////////////\n  ///////////////////////////// external view functions /////////////////////////\n  ///////////////////////////////////////////////////////////////////////////////\n\n\n  /**\n   * @notice Gets resolution payload for fixture `_fixture` and resolver `_resolver`\n   * @dev throws if fixture `_fixture` is not resolved for resolver `_resolver`\n   * @param _fixture Id of the payload's corresponding fixture\n   * @param _resolver Address of the payload's corresponding resolver\n   * @return Resolution payload for fixture `_fixture` and resolver `_resolver`\n   */\n  function getResolution(uint _fixture, address _resolver) external view returns (bytes) {\n    require(\n      _isFixtureResolved(_fixture, _resolver) == 1,\n      \"Given resolver, for given fixture, has not been resolved\"\n    );\n\n    return resolutions[_fixture][_resolver];\n  }\n\n  /**\n   * @notice Gets a list of all seasons in league\n   * @return Years of all seasons in league\n   */\n  function getSeasons() external view returns (uint16[]) {\n    return seasonList;\n  }\n\n  /**\n   * @notice Gets the season with year `_year`\n   * @param _year Year of the season\n   * @return Year of the season\n   * @return Ids fixtures scheduled in season `_year`\n   */\n  function getSeason(uint16 _year) external view returns (uint16, uint[]) {\n    require(_isSeasonSupported(_year), \"League does not support given season\");\n\n    return (_year, seasons[_year]);\n  }\n\n  /**\n   * @notice Gets start time for fixture `_fixture`\n   * @param _fixture Id of fixture\n   * @return start time of fixture `_fixture`\n   */\n  function getFixtureStart(uint _fixture) external view returns (uint) {\n    require(_isFixtureScheduled(_fixture), \"Given fixture is not scheduled in league\");\n\n    return fixtures[_fixture - 1].start;\n  }\n\n  /**\n   * @notice Gets scheduled fixture with id `_id`\n   * @param _id Id of the scheduled fixture\n   * @return Fixture id\n   * @return Participant Ids\n   * @return Start time\n   */\n  function getFixture(uint _id) external view returns (uint, uint[], uint) {\n    require(_isFixtureScheduled(_id), \"Given fixture is not scheduled in league\");\n\n    L.Fixture storage _fixture = fixtures[_id - 1];\n    return (_fixture.id, _fixture.participants, _fixture.start);\n  }\n\n  /**\n   * @notice Gets participant in league with id `_id`\n   * @param _id Id of the participant\n   * @return Participant Id\n   * @return Participant name\n   * @return Details of Participant (hash)\n   */\n  function getParticipant(uint _id) external view returns (uint, string, bytes) {\n    require(_isParticipant(_id), \"Given participant is not in league\");\n\n    L.Participant storage _participant = participants[_id - 1];\n    return (_participant.id, _participant.name, _participant.details);\n  }\n\n  /**\n   * @notice Gets participants count\n   * @return participant count\n   */\n  function getParticipantCount() external view returns (uint) {\n    return participants.length;\n  }\n\n  /**\n   * @notice Checks if fixture with id `_fixture` has been scheduled in league\n   * @param _fixture Id of the fixture\n   * @return `true` if fixture with id `_fixture` is scheduled, `false` otherwise\n   */\n  function isFixtureScheduled(uint _fixture) external view returns (bool) {\n    return _isFixtureScheduled(_fixture);\n  }\n\n  /**\n   * @notice Checks if fixture with id `_fixture` has been resolved for resolver `_resolver`\n   * @dev A fixture is resolved if at least one resolver receives resolution payload\n   * @dev It is possible that some resolvers do not get resolution payloads from oracles\n   * @param _fixture Id of the fixture\n   * @param _resolver Address of the resolver\n   * @return `0` if fixture is not resolved, `1` if fixture is resolved for resolver `_resolver`,\n   *  `2` if fixture is resolved but not for resolver `_resolver\n   */\n  function isFixtureResolved(uint _fixture, address _resolver) external view returns (uint8) {\n    return _isFixtureResolved(_fixture, _resolver);\n  }\n\n  /**\n   * @notice Checks if participant id `_participant` is valid\n   * @param _participant Id of the participant\n   * @return `true` if participant id `_participant` is valid, `false` otherwise\n   */\n  function isParticipant(uint _participant) external view returns (bool) {\n    return _isParticipant(_participant);\n  }\n\n  /**\n   * @notice Checks if participant `_participant` is playing in fixture `_fixture`\n   * @param _participant Id of the participant\n   * @param _fixture Id of the fixture\n   * @return `true` if participant `_participant` is scheduled in for fixture `_fixture`\n   */\n  function isParticipantScheduled(uint _participant, uint _fixture)\n    external\n    view\n    returns (bool)\n  {\n    require(_isParticipant(_participant), \"Given participant is not in league\");\n    require(_isFixtureScheduled(_fixture), \"Given fixture is not scheduled\");\n\n    L.Fixture storage __fixture = fixtures[_fixture - 1];\n    for (uint i = 0; i < __fixture.participants.length; i++)\n      if (__fixture.participants[i] == _participant) return true;\n    return false;\n  }\n\n\n  ///////////////////////////////////////////////////////////////////////////////\n  ///////////////////////////// internal view functions /////////////////////////\n  ///////////////////////////////////////////////////////////////////////////////\n\n  // internal isFixtureScheduled\n  function _isFixtureScheduled(uint _fixture) internal view returns (bool) {\n    return _fixture > 0 && _fixture < fixtures.length + 1;\n  }\n\n  // internal isFixtureResolved\n  function _isFixtureResolved(uint _fixture, address _resolver) internal view returns (uint8) {\n    if (!resolved[_fixture])\n      return 0;\n    return pushed[_fixture][_resolver] ? 1 : 2;\n  }\n\n  // internal isParticipant\n  function _isParticipant(uint _participant) internal view returns (bool) {\n    return _participant > 0 && _participant < participants.length + 1;\n  }\n\n  // validate all participants\n  function _areParticipants(uint[] _participants) internal view returns (bool) {\n    for (uint i = 0; i < _participants.length; i++) {\n      if (!_isParticipant(_participants[i])) return false;\n    }\n    return true;\n  }\n\n  // internal isSeasonSupported\n  function _isSeasonSupported(uint16 _year) internal view returns (bool) {\n    return supportedSeasons[_year];\n  }\n\n  /**\n   * @notice Gets the league version (matches LeagueFactory version)\n   * @return Version of the league protocol\n   */\n  function getVersion() external view returns (string) {\n    return VERSION;\n  }\n\n}\n",
  "sourcePath": "/Users/ryancimoszko/fu/fansunite-js/node_modules/fansunite-core/contracts/leagues/League001.sol",
  "compiler": {
    "name": "solc",
    "version": "0.4.24+commit.e67f0147.Emscripten.clang"
  },
  "schemaVersion": "2.0.1",
  "updatedAt": "2018-10-20T23:45:16.946Z"
}