{
  "contractName": "LeagueRegistry",
  "abi": [
    {
      "constant": false,
      "inputs": [],
      "name": "renounceOwnership",
      "outputs": [],
      "payable": false,
      "stateMutability": "nonpayable",
      "type": "function"
    },
    {
      "constant": true,
      "inputs": [],
      "name": "owner",
      "outputs": [
        {
          "name": "",
          "type": "address"
        }
      ],
      "payable": false,
      "stateMutability": "view",
      "type": "function"
    },
    {
      "constant": false,
      "inputs": [
        {
          "name": "_newOwner",
          "type": "address"
        }
      ],
      "name": "transferOwnership",
      "outputs": [],
      "payable": false,
      "stateMutability": "nonpayable",
      "type": "function"
    },
    {
      "anonymous": false,
      "inputs": [
        {
          "indexed": true,
          "name": "_old",
          "type": "address"
        },
        {
          "indexed": true,
          "name": "_new",
          "type": "address"
        }
      ],
      "name": "LogRegistryUpdated",
      "type": "event"
    },
    {
      "anonymous": false,
      "inputs": [
        {
          "indexed": false,
          "name": "_class",
          "type": "string"
        }
      ],
      "name": "LogClassCreated",
      "type": "event"
    },
    {
      "anonymous": false,
      "inputs": [
        {
          "indexed": true,
          "name": "_league",
          "type": "address"
        },
        {
          "indexed": false,
          "name": "_class",
          "type": "string"
        },
        {
          "indexed": false,
          "name": "_name",
          "type": "string"
        }
      ],
      "name": "LogLeagueAdded",
      "type": "event"
    },
    {
      "anonymous": false,
      "inputs": [
        {
          "indexed": false,
          "name": "_version",
          "type": "string"
        },
        {
          "indexed": true,
          "name": "_factory",
          "type": "address"
        }
      ],
      "name": "LogFactoryUpdated",
      "type": "event"
    },
    {
      "anonymous": false,
      "inputs": [
        {
          "indexed": false,
          "name": "_version",
          "type": "string"
        }
      ],
      "name": "LogFactoryVersionUpdated",
      "type": "event"
    },
    {
      "anonymous": false,
      "inputs": [
        {
          "indexed": true,
          "name": "previousOwner",
          "type": "address"
        }
      ],
      "name": "OwnershipRenounced",
      "type": "event"
    },
    {
      "anonymous": false,
      "inputs": [
        {
          "indexed": true,
          "name": "previousOwner",
          "type": "address"
        },
        {
          "indexed": true,
          "name": "newOwner",
          "type": "address"
        }
      ],
      "name": "OwnershipTransferred",
      "type": "event"
    },
    {
      "constant": false,
      "inputs": [
        {
          "name": "_class",
          "type": "string"
        }
      ],
      "name": "createClass",
      "outputs": [],
      "payable": false,
      "stateMutability": "nonpayable",
      "type": "function"
    },
    {
      "constant": false,
      "inputs": [
        {
          "name": "_class",
          "type": "string"
        },
        {
          "name": "_name",
          "type": "string"
        },
        {
          "name": "_leagueDetails",
          "type": "bytes"
        }
      ],
      "name": "createLeague",
      "outputs": [],
      "payable": false,
      "stateMutability": "nonpayable",
      "type": "function"
    },
    {
      "constant": false,
      "inputs": [
        {
          "name": "_leagueFactory",
          "type": "address"
        },
        {
          "name": "_version",
          "type": "string"
        }
      ],
      "name": "addLeagueFactory",
      "outputs": [],
      "payable": false,
      "stateMutability": "nonpayable",
      "type": "function"
    },
    {
      "constant": false,
      "inputs": [
        {
          "name": "_version",
          "type": "string"
        }
      ],
      "name": "setLeagueFactoryVersion",
      "outputs": [],
      "payable": false,
      "stateMutability": "nonpayable",
      "type": "function"
    },
    {
      "constant": false,
      "inputs": [
        {
          "name": "_reg",
          "type": "address"
        }
      ],
      "name": "setRegistryContract",
      "outputs": [],
      "payable": false,
      "stateMutability": "nonpayable",
      "type": "function"
    },
    {
      "constant": true,
      "inputs": [
        {
          "name": "_class",
          "type": "string"
        }
      ],
      "name": "getClass",
      "outputs": [
        {
          "name": "",
          "type": "string"
        },
        {
          "name": "",
          "type": "address[]"
        }
      ],
      "payable": false,
      "stateMutability": "view",
      "type": "function"
    },
    {
      "constant": true,
      "inputs": [
        {
          "name": "_league",
          "type": "address"
        }
      ],
      "name": "getLeague",
      "outputs": [
        {
          "name": "",
          "type": "address"
        },
        {
          "name": "",
          "type": "string"
        },
        {
          "name": "",
          "type": "bytes"
        }
      ],
      "payable": false,
      "stateMutability": "view",
      "type": "function"
    },
    {
      "constant": true,
      "inputs": [],
      "name": "getFactoryVersion",
      "outputs": [
        {
          "name": "",
          "type": "string"
        }
      ],
      "payable": false,
      "stateMutability": "view",
      "type": "function"
    },
    {
      "constant": true,
      "inputs": [
        {
          "name": "_version",
          "type": "string"
        }
      ],
      "name": "getFactory",
      "outputs": [
        {
          "name": "",
          "type": "address"
        }
      ],
      "payable": false,
      "stateMutability": "view",
      "type": "function"
    },
    {
      "constant": true,
      "inputs": [
        {
          "name": "_league",
          "type": "address"
        }
      ],
      "name": "isLeagueRegistered",
      "outputs": [
        {
          "name": "",
          "type": "bool"
        }
      ],
      "payable": false,
      "stateMutability": "view",
      "type": "function"
    },
    {
      "constant": true,
      "inputs": [
        {
          "name": "_class",
          "type": "string"
        }
      ],
      "name": "isClassSupported",
      "outputs": [
        {
          "name": "",
          "type": "bool"
        }
      ],
      "payable": false,
      "stateMutability": "view",
      "type": "function"
    },
    {
      "constant": true,
      "inputs": [],
      "name": "getRegistryContract",
      "outputs": [
        {
          "name": "",
          "type": "address"
        }
      ],
      "payable": false,
      "stateMutability": "view",
      "type": "function"
    }
  ],
  "bytecode": "0x608060405260008054600160a060020a031916331790556113a6806100256000396000f3006080604052600436106100c15763ffffffff60e060020a600035041663028ebc4481146100c65780630db76ca5146100e957806336ca3d731461011e578063439a37a31461014f5780635b51bec01461017c578063715018a6146102065780638a7dc32b1461021b5780638da5cb5b1461023b578063a853e48814610250578063baf9acbe14610368578063bfff7ce914610388578063d95b9af2146103c0578063e92761b6146103e0578063f2fde38b146104b9578063fb6bb7e9146104da575b600080fd5b3480156100d257600080fd5b506100e7600160a060020a03600435166104fa565b005b3480156100f557600080fd5b5061010a600160a060020a03600435166105d2565b604080519115158252519081900360200190f35b34801561012a57600080fd5b506101336105f0565b60408051600160a060020a039092168252519081900360200190f35b34801561015b57600080fd5b506100e760048035600160a060020a03169060248035908101910135610600565b34801561018857600080fd5b506101916106ba565b6040805160208082528351818301528351919283929083019185019080838360005b838110156101cb5781810151838201526020016101b3565b50505050905090810190601f1680156101f85780820380516001836020036101000a031916815260200191505b509250505060405180910390f35b34801561021257600080fd5b506100e761074d565b34801561022757600080fd5b506100e760048035602481019101356107b9565b34801561024757600080fd5b5061013361091d565b34801561025c57600080fd5b50610271600160a060020a036004351661092c565b6040518084600160a060020a0316600160a060020a031681526020018060200180602001838103835285818151815260200191508051906020019080838360005b838110156102ca5781810151838201526020016102b2565b50505050905090810190601f1680156102f75780820380516001836020036101000a031916815260200191505b50838103825284518152845160209182019186019080838360005b8381101561032a578181015183820152602001610312565b50505050905090810190601f1680156103575780820380516001836020036101000a031916815260200191505b509550505050505060405180910390f35b34801561037457600080fd5b506100e76004803560248101910135610ad2565b34801561039457600080fd5b506100e76024600480358281019290820135918135808301929082013591604435918201910135610c04565b3480156103cc57600080fd5b506101336004803560248101910135610fd0565b3480156103ec57600080fd5b5061040060048035602481019101356110c2565b604051808060200180602001838103835285818151815260200191508051906020019080838360005b83811015610441578181015183820152602001610429565b50505050905090810190601f16801561046e5780820380516001836020036101000a031916815260200191505b508381038252845181528451602091820191808701910280838360005b838110156104a357818101518382015260200161048b565b5050505090500194505050505060405180910390f35b3480156104c557600080fd5b506100e7600160a060020a036004351661120f565b3480156104e657600080fd5b5061010a6004803560248101910135611232565b60008054600160a060020a0316331461051257600080fd5b600160a060020a0382161515610572576040805160e560020a62461bcd02815260206004820152601d60248201527f526567697374727920616464726573732063616e6e6f74206265203078000000604482015290519081900360640190fd5b5060018054600160a060020a0383811673ffffffffffffffffffffffffffffffffffffffff19831681179093556040519116919082907fac30d8052f0f0b16633b84a524d67bc067dc436c3e98f1c0bf4f6663d102fb6c90600090a35050565b600160a060020a031660009081526007602052604090205460ff1690565b600154600160a060020a03165b90565b600054600160a060020a0316331461061757600080fd5b8260038383604051808383808284379190910194855250506040805160209481900385018120805473ffffffffffffffffffffffffffffffffffffffff1916600160a060020a03978816179055848152938401869052938716937ff706e39cbc6be43016d2c5bf822f176b432c715763bff9e02a1966a4655f5bc093879350869250908190810184848082843760405192018290039550909350505050a2505050565b60028054604080516020601f60001961010060018716150201909416859004938401819004810282018101909252828152606093909290918301828280156107435780601f1061071857610100808354040283529160200191610743565b820191906000526020600020905b81548152906001019060200180831161072657829003601f168201915b5050505050905090565b600054600160a060020a0316331461076457600080fd5b60008054604051600160a060020a03909116917ff8df31144d9c2f0f6b59d69b8b98abd5459d07f2742c4df920b25aae33c6482091a26000805473ffffffffffffffffffffffffffffffffffffffff19169055565b600054600160a060020a031633146107d057600080fd5b60048282604051808383808284379091019485525050604051928390036020019092205460ff161591506108509050576040805160e560020a62461bcd02815260206004820152601f60248201527f526567697374727920616c726561647920737570706f72747320636c61737300604482015290519081900360640190fd5b60016004838360405180838380828437909101948552505060405192839003602001909220805493151560ff1990941693909317909255505060058054600181018083556000929092526108c7907f036b6384b5eca791c62761152d0c79bb0604c104a5fb6f4eb0703f3154bb3db00184846112e2565b50507f3137f7805dea90931b7ba6876268be1604a903bb2a3ff66e2e79e22ec61d826b82826040518080602001828103825284848281815260200192508082843760405192018290039550909350505050a15050565b600054600160a060020a031681565b600060608060008490508481600160a060020a03166317d7de7c6040518163ffffffff1660e060020a028152600401600060405180830381600087803b15801561097557600080fd5b505af1158015610989573d6000803e3d6000fd5b505050506040513d6000823e601f3d908101601f1916820160405260208110156109b257600080fd5b8101908080516401000000008111156109ca57600080fd5b820160208101848111156109dd57600080fd5b81516401000000008111828201871017156109f757600080fd5b505092919050505082600160a060020a031663fbbf93a06040518163ffffffff1660e060020a028152600401600060405180830381600087803b158015610a3d57600080fd5b505af1158015610a51573d6000803e3d6000fd5b505050506040513d6000823e601f3d908101601f191682016040526020811015610a7a57600080fd5b810190808051640100000000811115610a9257600080fd5b82016020810184811115610aa557600080fd5b8151640100000000811182820187101715610abf57600080fd5b50959b949a509850929650505050505050565b600054600160a060020a03163314610ae957600080fd5b6000600160a060020a0316600383836040518083838082843790910194855250506040519283900360200190922054600160a060020a031692909214159150610ba39050576040805160e560020a62461bcd028152602060048201526024808201527f56657273696f6e206973206e6f7420737570706f72746564206279205265676960448201527f7374727900000000000000000000000000000000000000000000000000000000606482015290519081900360840190fd5b610baf600283836112e2565b507f3d46e24cba08016d549ccbb2521ab53302f1823836ef2fba2584b8e13141db9082826040518080602001828103825284848281815260200192508082843760405192018290039550909350505050a15050565b6000805481908190600160a060020a03163314610c2057600080fd5b60048989604051808383808284379091019485525050604051928390036020019092205460ff1615156001149150610ca49050576040805160e560020a62461bcd02815260206004820152601f60248201527f436c617373206e6f7420737570706f7274656420627920526567697374727900604482015290519081900360640190fd5b600360026040518082805460018160011615610100020316600290048015610d035780601f10610ce1576101008083540402835291820191610d03565b820191906000526020600020905b815481529060010190602001808311610cef575b505092835250506040805160209281900383018120546001547fbf40fac100000000000000000000000000000000000000000000000000000000835260048301859052601060248401527f436f6e73656e7375734d616e616765720000000000000000000000000000000060448401529251600160a060020a03918216975092169263bf40fac1926064808401938290030181600087803b158015610da757600080fd5b505af1158015610dbb573d6000803e3d6000fd5b505050506040513d6020811015610dd157600080fd5b50516040517f8eda3277000000000000000000000000000000000000000000000000000000008152600160a060020a038083166064830152336084830181905260a06004840190815260a484018d905293955090861692638eda3277928d928d928d928d928d928d928c92919081906024810190604481019060c4018c8c8082843790910185810384528a815260200190508a8a808284379091018581038352888152602001905088888082843782019150509b505050505050505050505050602060405180830381600087803b158015610eab57600080fd5b505af1158015610ebf573d6000803e3d6000fd5b505050506040513d6020811015610ed557600080fd5b50516040519091506006908a908a9080838380828437909101948552505060408051938490036020908101852080546001818101835560009283528383209091018054600160a060020a038a1673ffffffffffffffffffffffffffffffffffffffff1990911681179091558083526007845291849020805460ff191690911790558286529185018d905290937f062be8aac826db3901b2bf89646df96b5d5b75f58614983de25701a6117a995e93508d92508c918c918c9181908101606082018787808284379091018481038352858152602001905085858082843760405192018290039850909650505050505050a2505050505050505050565b600080600160a060020a0316600384846040518083838082843790910194855250506040519283900360200190922054600160a060020a03169290921415915061108b9050576040805160e560020a62461bcd028152602060048201526024808201527f56657273696f6e206973206e6f7420737570706f72746564206279205265676960448201527f7374727900000000000000000000000000000000000000000000000000000000606482015290519081900360840190fd5b600383836040518083838082843790910194855250506040519283900360200190922054600160a060020a03169250505092915050565b60608060048484604051808383808284379091019485525050604051928390036020019092205460ff16151560011491506111499050576040805160e560020a62461bcd02815260206004820152601f60248201527f436c617373206e6f7420737570706f7274656420627920526567697374727900604482015290519081900360640190fd5b83836006868660405180838380828437820191505092505050908152602001604051809103902082828080601f0160208091040260200160405190810160405280939291908181526020018383808284378201915050505050509150909150808054806020026020016040519081016040528092919081815260200182805480156111fd57602002820191906000526020600020905b8154600160a060020a031681526001909101906020018083116111df575b50505050509050915091509250929050565b600054600160a060020a0316331461122657600080fd5b61122f81611265565b50565b600060048383604051808383808284379091019485525050604051928390036020019092205460ff169250505092915050565b600160a060020a038116151561127a57600080fd5b60008054604051600160a060020a03808516939216917f8be0079c531659141344cd1fd0a4f28419497f9722a3daafe3b4186f6b6457e091a36000805473ffffffffffffffffffffffffffffffffffffffff1916600160a060020a0392909216919091179055565b828054600181600116156101000203166002900490600052602060002090601f016020900481019282601f106113235782800160ff19823516178555611350565b82800160010185558215611350579182015b82811115611350578235825591602001919060010190611335565b5061135c929150611360565b5090565b6105fd91905b8082111561135c57600081556001016113665600a165627a7a72305820b0343e7f8b62b72ae774ae9acd967e4a4f1182f734883992bb494b328ec7f2f90029",
  "source": "pragma solidity ^0.4.24;\n\nimport \"openzeppelin-solidity/contracts/ownership/Ownable.sol\";\nimport \"./interfaces/IRegistry.sol\";\nimport \"./interfaces/ILeagueRegistry.sol\";\nimport \"./interfaces/ILeague.sol\";\nimport \"./interfaces/ILeagueFactory.sol\";\n\n\n/**\n * @title LeagueRegistry Contract\n * @notice Only FansUnite can add new leagues\n * @dev LeagueRegistry stores all the league contracts on the FansUnite Platform\n * @dev LeagueRegistry stores addresses to versioned factories responsible for deploying new\n *  league contracts\n */\ncontract LeagueRegistry is Ownable, ILeagueRegistry {\n\n  // Address of the Registry contract\n  address internal registry;\n  // Factory version\n  string internal factoryVersion; // TODO:pre:think Manan => Edge case of version not set\n  // Map of factory version to factory address\n  mapping(string => address) internal factories;\n  // Corresponds to `true` if class supported, false otherwise\n  mapping(string => bool) internal supportedClasses;\n  // List of all classes\n  string[] internal classes;\n  // Map of classes to corresponding league addresses\n  mapping(string => address[]) internal leagues;\n  // Evaluates to `true` if league supported, `false` otherwise\n  mapping(address => bool) internal supportedLeagues;\n\n  // Emit when Registry contract updated\n  event LogRegistryUpdated(address indexed _old, address indexed _new);\n  // Emit when new class added\n  event LogClassCreated(string _class);\n  // Emit when new league added\n  event LogLeagueAdded(address indexed _league, string _class, string _name);\n  // Emit when Factory updated\n  event LogFactoryUpdated(string _version, address indexed _factory);\n  // Emit when version updated\n  event LogFactoryVersionUpdated(string _version);\n\n  /**\n   * @notice Creates a new league class\n   * @param _class Class of the league (eg. tennis)\n   */\n  function createClass(string _class) external onlyOwner {\n    require(supportedClasses[_class] == false, \"Registry already supports class\");\n    supportedClasses[_class] = true;\n    classes.push(_class);\n\n    emit LogClassCreated(_class);\n  }\n\n  /**\n   * @notice Creates a new League Contract and saves it to the registry\n   * @param _class Class of the league (eg. tennis)\n   * @param _name Name of the League (eg. Shanghai Masters)\n   * @param _leagueDetails Off-chain details of the league (eg. IPFS hash)\n   */\n  function createLeague(string _class, string _name, bytes _leagueDetails) external onlyOwner {\n    require(supportedClasses[_class] == true, \"Class not supported by Registry\");\n    ILeagueFactory _factory = ILeagueFactory(factories[factoryVersion]);\n    address _consensus = IRegistry(registry).getAddress(\"ConsensusManager\");\n    address _league = _factory.deployLeague(_class, _name, _leagueDetails, _consensus, msg.sender);\n    leagues[_class].push(_league);\n    supportedLeagues[_league] = true;\n\n    emit LogLeagueAdded(_league, _class, _name);\n  }\n\n  /**\n * @notice Upsert version `_version` to correspond factoryAddress `_leagueFactory`\n * @param _leagueFactory Address of the LeagueFactory for `_version`\n * @param _version Version string for leagueFactory\n */\n  function addLeagueFactory(address _leagueFactory, string _version) external onlyOwner {\n    factories[_version] = _leagueFactory;\n    emit LogFactoryUpdated(_version, _leagueFactory);\n  }\n\n  /**\n   * @notice Updates factoryVersion to `_version` if supported\n   * @param _version Version string for leagueFactory\n   */\n  function setLeagueFactoryVersion(string _version) external onlyOwner {\n    require(factories[_version] != address(0), \"Version is not supported by Registry\");\n    factoryVersion = _version;\n    emit LogFactoryVersionUpdated(_version);\n  }\n\n  /**\n   * @notice Updates registry contract address to `_reg`\n   * @param _reg Address of the FansUnite Registry contract\n   */\n  function setRegistryContract(address _reg) external onlyOwner {\n    require(_reg != address(0), \"Registry address cannot be 0x\");\n    address _old = registry;\n    registry = _reg;\n    emit LogRegistryUpdated(_old, _reg);\n  }\n\n  /**\n   * @notice Gets Class with name `_class`\n   * @param _class Class name\n   * @return Class name\n   * @return Address of all league in class\n   */\n  function getClass(string _class) external view returns (string, address[]) {\n    require(supportedClasses[_class] == true, \"Class not supported by Registry\");\n    return (_class, leagues[_class]);\n  }\n\n  /**\n   * @notice Gets league with id `_id`\n   * @param _league Address of the league\n   * @return League address\n   * @return League name\n   * @return League details (hash)\n   */\n  function getLeague(address _league) external view returns (address, string, bytes) {\n    ILeague _l = ILeague(_league);\n    return (_league, _l.getName(), _l.getDetails());\n  }\n\n  /**\n   * @notice Gets the current version used to deploy new leagues contracts\n   * @return Current factory version\n   */\n  function getFactoryVersion() external view returns (string) {\n    return factoryVersion;\n  }\n\n  /**\n   * @notice Gets LeagueFactory contract address for version `_version`\n   * @dev fails if `_version` does not match any\n   * @param _version Version string for leagueFactory\n   * @return Address of the LeagueFactory contract for version `_version`\n   */\n  function getFactory(string _version) external view returns (address) {\n    require(factories[_version] != address(0), \"Version is not supported by Registry\");\n    return factories[_version];\n  }\n\n  /**\n   * @notice Checks if league with address `_league` is registered with FansUnite\n   * @param _league address of the league\n   * @return `true` if `_league` is registered with FansUnite, `false` otherwise\n   */\n  function isLeagueRegistered(address _league) external view returns (bool) {\n    return supportedLeagues[_league];\n  }\n\n  /**\n   * @notice Checks if class `_class` is supported by FansUnite\n   * @param _class Any class\n   * @return `true` if `_class` is supported by FansUnite, `false` otherwise\n   */\n  function isClassSupported(string _class) external view returns (bool) {\n    return supportedClasses[_class];\n  }\n\n  /**\n   * @notice Gets registry contract address\n   * @return Address of the FansUnite Registry contract\n   */\n  function getRegistryContract() external view returns (address) {\n    return registry;\n  }\n\n}\n",
  "sourcePath": "/Users/ryancimoszko/fu/fansunite-js/node_modules/fansunite-core/contracts/LeagueRegistry.sol",
  "compiler": {
    "name": "solc",
    "version": "0.4.24+commit.e67f0147.Emscripten.clang"
  },
  "schemaVersion": "2.0.1",
  "updatedAt": "2018-09-10T20:17:57.998Z"
}