{
  "contractName": "LeagueRegistry",
  "abi": [
    {
      "constant": true,
      "inputs": [],
      "name": "getRegistryContract",
      "outputs": [
        {
          "name": "",
          "type": "address"
        }
      ],
      "payable": false,
      "stateMutability": "view",
      "type": "function"
    },
    {
      "constant": false,
      "inputs": [],
      "name": "renounceOwnership",
      "outputs": [],
      "payable": false,
      "stateMutability": "nonpayable",
      "type": "function"
    },
    {
      "constant": true,
      "inputs": [],
      "name": "owner",
      "outputs": [
        {
          "name": "",
          "type": "address"
        }
      ],
      "payable": false,
      "stateMutability": "view",
      "type": "function"
    },
    {
      "constant": true,
      "inputs": [],
      "name": "isOwner",
      "outputs": [
        {
          "name": "",
          "type": "bool"
        }
      ],
      "payable": false,
      "stateMutability": "view",
      "type": "function"
    },
    {
      "constant": false,
      "inputs": [
        {
          "name": "newOwner",
          "type": "address"
        }
      ],
      "name": "transferOwnership",
      "outputs": [],
      "payable": false,
      "stateMutability": "nonpayable",
      "type": "function"
    },
    {
      "inputs": [
        {
          "name": "_registry",
          "type": "address"
        }
      ],
      "payable": false,
      "stateMutability": "nonpayable",
      "type": "constructor"
    },
    {
      "anonymous": false,
      "inputs": [
        {
          "indexed": false,
          "name": "_class",
          "type": "string"
        }
      ],
      "name": "LogClassCreated",
      "type": "event"
    },
    {
      "anonymous": false,
      "inputs": [
        {
          "indexed": true,
          "name": "_league",
          "type": "address"
        },
        {
          "indexed": false,
          "name": "_class",
          "type": "string"
        },
        {
          "indexed": false,
          "name": "_name",
          "type": "string"
        }
      ],
      "name": "LogLeagueAdded",
      "type": "event"
    },
    {
      "anonymous": false,
      "inputs": [
        {
          "indexed": false,
          "name": "_version",
          "type": "string"
        },
        {
          "indexed": true,
          "name": "_factory",
          "type": "address"
        }
      ],
      "name": "LogFactoryUpdated",
      "type": "event"
    },
    {
      "anonymous": false,
      "inputs": [
        {
          "indexed": false,
          "name": "_version",
          "type": "string"
        }
      ],
      "name": "LogFactoryVersionUpdated",
      "type": "event"
    },
    {
      "anonymous": false,
      "inputs": [
        {
          "indexed": true,
          "name": "previousOwner",
          "type": "address"
        }
      ],
      "name": "OwnershipRenounced",
      "type": "event"
    },
    {
      "anonymous": false,
      "inputs": [
        {
          "indexed": true,
          "name": "previousOwner",
          "type": "address"
        },
        {
          "indexed": true,
          "name": "newOwner",
          "type": "address"
        }
      ],
      "name": "OwnershipTransferred",
      "type": "event"
    },
    {
      "constant": false,
      "inputs": [
        {
          "name": "_class",
          "type": "string"
        },
        {
          "name": "_participantsPerFixture",
          "type": "uint256"
        }
      ],
      "name": "createClass",
      "outputs": [],
      "payable": false,
      "stateMutability": "nonpayable",
      "type": "function"
    },
    {
      "constant": false,
      "inputs": [
        {
          "name": "_class",
          "type": "string"
        },
        {
          "name": "_name",
          "type": "string"
        }
      ],
      "name": "createLeague",
      "outputs": [],
      "payable": false,
      "stateMutability": "nonpayable",
      "type": "function"
    },
    {
      "constant": false,
      "inputs": [
        {
          "name": "_leagueFactory",
          "type": "address"
        },
        {
          "name": "_version",
          "type": "string"
        }
      ],
      "name": "addFactory",
      "outputs": [],
      "payable": false,
      "stateMutability": "nonpayable",
      "type": "function"
    },
    {
      "constant": false,
      "inputs": [
        {
          "name": "_version",
          "type": "string"
        }
      ],
      "name": "setFactoryVersion",
      "outputs": [],
      "payable": false,
      "stateMutability": "nonpayable",
      "type": "function"
    },
    {
      "constant": true,
      "inputs": [
        {
          "name": "_class",
          "type": "string"
        }
      ],
      "name": "getClass",
      "outputs": [
        {
          "name": "",
          "type": "string"
        },
        {
          "name": "",
          "type": "address[]"
        }
      ],
      "payable": false,
      "stateMutability": "view",
      "type": "function"
    },
    {
      "constant": true,
      "inputs": [
        {
          "name": "_league",
          "type": "address"
        }
      ],
      "name": "getLeague",
      "outputs": [
        {
          "name": "",
          "type": "address"
        },
        {
          "name": "",
          "type": "string"
        },
        {
          "name": "",
          "type": "bytes"
        }
      ],
      "payable": false,
      "stateMutability": "view",
      "type": "function"
    },
    {
      "constant": true,
      "inputs": [],
      "name": "getFactoryVersion",
      "outputs": [
        {
          "name": "",
          "type": "string"
        }
      ],
      "payable": false,
      "stateMutability": "view",
      "type": "function"
    },
    {
      "constant": true,
      "inputs": [
        {
          "name": "_version",
          "type": "string"
        }
      ],
      "name": "getFactory",
      "outputs": [
        {
          "name": "",
          "type": "address"
        }
      ],
      "payable": false,
      "stateMutability": "view",
      "type": "function"
    },
    {
      "constant": true,
      "inputs": [
        {
          "name": "_league",
          "type": "address"
        }
      ],
      "name": "isLeagueRegistered",
      "outputs": [
        {
          "name": "",
          "type": "bool"
        }
      ],
      "payable": false,
      "stateMutability": "view",
      "type": "function"
    },
    {
      "constant": true,
      "inputs": [
        {
          "name": "_class",
          "type": "string"
        }
      ],
      "name": "isClassSupported",
      "outputs": [
        {
          "name": "",
          "type": "bool"
        }
      ],
      "payable": false,
      "stateMutability": "view",
      "type": "function"
    }
  ],
  "bytecode": "0x608060405234801561001057600080fd5b5060405160208061131b833981016040525160008054600160a060020a0319908116331790915560018054600160a060020a03909316929091169190911790556112bc8061005f6000396000f3006080604052600436106100c15763ffffffff60e060020a6000350416630db76ca581146100c65780631f365a0a146100fb57806336ca3d731461011d5780634852a2121461014e5780635b51bec01461017257806361b92f19146101fc578063715018a6146102295780638da5cb5b1461023e5780638f32d59b14610253578063a853e48814610268578063b9dfc09814610380578063d95b9af2146103ac578063e92761b6146103cc578063f2fde38b146104a5578063fb6bb7e9146104c6575b600080fd5b3480156100d257600080fd5b506100e7600160a060020a03600435166104e6565b604080519115158252519081900360200190f35b34801561010757600080fd5b5061011b6004803560248101910135610504565b005b34801561012957600080fd5b50610132610632565b60408051600160a060020a039092168252519081900360200190f35b34801561015a57600080fd5b5061011b602460048035828101929101359035610642565b34801561017e57600080fd5b5061018761078d565b6040805160208082528351818301528351919283929083019185019080838360005b838110156101c15781810151838201526020016101a9565b50505050905090810190601f1680156101ee5780820380516001836020036101000a031916815260200191505b509250505060405180910390f35b34801561020857600080fd5b5061011b60048035600160a060020a03169060248035908101910135610820565b34801561023557600080fd5b5061011b6108d6565b34801561024a57600080fd5b5061013261093e565b34801561025f57600080fd5b506100e761094d565b34801561027457600080fd5b50610289600160a060020a036004351661095e565b6040518084600160a060020a0316600160a060020a031681526020018060200180602001838103835285818151815260200191508051906020019080838360005b838110156102e25781810151838201526020016102ca565b50505050905090810190601f16801561030f5780820380516001836020036101000a031916815260200191505b50838103825284518152845160209182019186019080838360005b8381101561034257818101518382015260200161032a565b50505050905090810190601f16801561036f5780820380516001836020036101000a031916815260200191505b509550505050505060405180910390f35b34801561038c57600080fd5b5061011b6024600480358281019290820135918135918201910135610b04565b3480156103b857600080fd5b506101326004803560248101910135610eea565b3480156103d857600080fd5b506103ec6004803560248101910135610fdc565b604051808060200180602001838103835285818151815260200191508051906020019080838360005b8381101561042d578181015183820152602001610415565b50505050905090810190601f16801561045a5780820380516001836020036101000a031916815260200191505b508381038252845181528451602091820191808701910280838360005b8381101561048f578181015183820152602001610477565b5050505090500194505050505060405180910390f35b3480156104b157600080fd5b5061011b600160a060020a0360043516611129565b3480156104d257600080fd5b506100e76004803560248101910135611148565b600160a060020a031660009081526007602052604090205460ff1690565b61050c61094d565b151561051757600080fd5b6000600160a060020a0316600383836040518083838082843790910194855250506040519283900360200190922054600160a060020a0316929092141591506105d19050576040805160e560020a62461bcd028152602060048201526024808201527f56657273696f6e206973206e6f7420737570706f72746564206279205265676960448201527f7374727900000000000000000000000000000000000000000000000000000000606482015290519081900360840190fd5b6105dd600283836111f8565b507f3d46e24cba08016d549ccbb2521ab53302f1823836ef2fba2584b8e13141db9082826040518080602001828103825284848281815260200192508082843760405192018290039550909350505050a15050565b600154600160a060020a03165b90565b61064a61094d565b151561065557600080fd5b60048383604051808383808284379091019485525050604051928390036020019092205460ff161591506106d59050576040805160e560020a62461bcd02815260206004820152601f60248201527f526567697374727920616c726561647920737570706f72747320636c61737300604482015290519081900360640190fd5b600160048484604051808383808284379091019485525050604051928390036020018320805494151560ff19909516949094179093555082915060059085908590808383808284378201915050925050509081526020016040518091039020819055507f3137f7805dea90931b7ba6876268be1604a903bb2a3ff66e2e79e22ec61d826b83836040518080602001828103825284848281815260200192508082843760405192018290039550909350505050a1505050565b60028054604080516020601f60001961010060018716150201909416859004938401819004810282018101909252828152606093909290918301828280156108165780601f106107eb57610100808354040283529160200191610816565b820191906000526020600020905b8154815290600101906020018083116107f957829003601f168201915b5050505050905090565b61082861094d565b151561083357600080fd5b8260038383604051808383808284379190910194855250506040805160209481900385018120805473ffffffffffffffffffffffffffffffffffffffff1916600160a060020a03978816179055848152938401869052938716937ff706e39cbc6be43016d2c5bf822f176b432c715763bff9e02a1966a4655f5bc093879350869250908190810184848082843760405192018290039550909350505050a2505050565b6108de61094d565b15156108e957600080fd5b60008054604051600160a060020a03909116917ff8df31144d9c2f0f6b59d69b8b98abd5459d07f2742c4df920b25aae33c6482091a26000805473ffffffffffffffffffffffffffffffffffffffff19169055565b600054600160a060020a031690565b600054600160a060020a0316331490565b600060608060008490508481600160a060020a03166317d7de7c6040518163ffffffff1660e060020a028152600401600060405180830381600087803b1580156109a757600080fd5b505af11580156109bb573d6000803e3d6000fd5b505050506040513d6000823e601f3d908101601f1916820160405260208110156109e457600080fd5b8101908080516401000000008111156109fc57600080fd5b82016020810184811115610a0f57600080fd5b8151640100000000811182820187101715610a2957600080fd5b505092919050505082600160a060020a031663fbbf93a06040518163ffffffff1660e060020a028152600401600060405180830381600087803b158015610a6f57600080fd5b505af1158015610a83573d6000803e3d6000fd5b505050506040513d6000823e601f3d908101601f191682016040526020811015610aac57600080fd5b810190808051640100000000811115610ac457600080fd5b82016020810184811115610ad757600080fd5b8151640100000000811182820187101715610af157600080fd5b50959b949a509850929650505050505050565b600080610b0f61094d565b1515610b1a57600080fd5b60048686604051808383808284379091019485525050604051928390036020019092205460ff1615156001149150610b9e9050576040805160e560020a62461bcd02815260206004820152601f60248201527f436c617373206e6f7420737570706f7274656420627920526567697374727900604482015290519081900360640190fd5b6000600160a060020a0316600360026040518082805460018160011615610100020316600290048015610c085780601f10610be6576101008083540402835291820191610c08565b820191906000526020600020905b815481529060010190602001808311610bf4575b5050928352505060405190819003602001902054600160a060020a03161415610c7b576040805160e560020a62461bcd02815260206004820152601760248201527f466163746f72792076657273696f6e206e6f7420736574000000000000000000604482015290519081900360640190fd5b600360026040518082805460018160011615610100020316600290048015610cda5780601f10610cb8576101008083540402835291820191610cda565b820191906000526020600020905b815481529060010190602001808311610cc6575b5050928352505060405190819003602001812054600154600160a060020a0391821694508492635ab210e5928a928a928a928a921690600590869086908083838082843790910194855250506040519283900360200183205460e060020a63ffffffff8b16028452600160a060020a038516604485015260648401819052336084850181905260a06004860190815260a486018a905291949093509091508190602481019060c4018a8a808284379091018481038352888152602001905088888082843782019150509950505050505050505050602060405180830381600087803b158015610dc857600080fd5b505af1158015610ddc573d6000803e3d6000fd5b505050506040513d6020811015610df257600080fd5b50516040519091506006908790879080838380828437909101948552505060408051938490036020908101852080546001818101835560009283528383209091018054600160a060020a038a1673ffffffffffffffffffffffffffffffffffffffff1990911681179091558083526007845291849020805460ff191690911790558286529185018a905290937f062be8aac826db3901b2bf89646df96b5d5b75f58614983de25701a6117a995e93508a925089918991899181908101606082018787808284379091018481038352858152602001905085858082843760405192018290039850909650505050505050a2505050505050565b600080600160a060020a0316600384846040518083838082843790910194855250506040519283900360200190922054600160a060020a031692909214159150610fa59050576040805160e560020a62461bcd028152602060048201526024808201527f56657273696f6e206973206e6f7420737570706f72746564206279205265676960448201527f7374727900000000000000000000000000000000000000000000000000000000606482015290519081900360840190fd5b600383836040518083838082843790910194855250506040519283900360200190922054600160a060020a03169250505092915050565b60608060048484604051808383808284379091019485525050604051928390036020019092205460ff16151560011491506110639050576040805160e560020a62461bcd02815260206004820152601f60248201527f436c617373206e6f7420737570706f7274656420627920526567697374727900604482015290519081900360640190fd5b83836006868660405180838380828437820191505092505050908152602001604051809103902082828080601f01602080910402602001604051908101604052809392919081815260200183838082843782019150505050505091509091508080548060200260200160405190810160405280929190818152602001828054801561111757602002820191906000526020600020905b8154600160a060020a031681526001909101906020018083116110f9575b50505050509050915091509250929050565b61113161094d565b151561113c57600080fd5b6111458161117b565b50565b600060048383604051808383808284379091019485525050604051928390036020019092205460ff169250505092915050565b600160a060020a038116151561119057600080fd5b60008054604051600160a060020a03808516939216917f8be0079c531659141344cd1fd0a4f28419497f9722a3daafe3b4186f6b6457e091a36000805473ffffffffffffffffffffffffffffffffffffffff1916600160a060020a0392909216919091179055565b828054600181600116156101000203166002900490600052602060002090601f016020900481019282601f106112395782800160ff19823516178555611266565b82800160010185558215611266579182015b8281111561126657823582559160200191906001019061124b565b50611272929150611276565b5090565b61063f91905b80821115611272576000815560010161127c5600a165627a7a723058209066d04801221583ed27e144a9de935dc8bc769e0de29ab4e97f43fdaaeb84170029",
  "source": "pragma solidity ^0.4.24;\n\nimport \"openzeppelin-solidity/contracts/ownership/Ownable.sol\";\n\nimport \"./interfaces/ILeagueRegistry.sol\";\nimport \"./interfaces/ILeague.sol\";\nimport \"./interfaces/ILeagueFactory.sol\";\n\nimport \"./utils/RegistryAccessible.sol\";\n\n\n\n/**\n * @title LeagueRegistry Contract\n * @notice Only FansUnite can add new leagues\n * @dev LeagueRegistry stores all the league contracts on the FansUnite Platform\n * @dev LeagueRegistry stores addresses to versioned factories responsible for deploying new\n *  league contracts\n */\ncontract LeagueRegistry is Ownable, ILeagueRegistry, RegistryAccessible {\n\n  // Factory version\n  string internal factoryVersion;\n  // Map of factory version to factory address\n  mapping(string => address) internal factories;\n\n  // Corresponds to `true` if class supported, false otherwise\n  mapping(string => bool) internal supportedClasses;\n  // Mapping of class to number of participants per fixture in leagues of class\n  mapping(string => uint) internal participantsPerFixture;\n\n  // Map of classes to corresponding league addresses\n  mapping(string => address[]) internal leagues;\n  // Evaluates to `true` if league supported, `false` otherwise\n  mapping(address => bool) internal supportedLeagues;\n\n  // Emit when new class added\n  event LogClassCreated(string _class);\n  // Emit when new league added\n  event LogLeagueAdded(address indexed _league, string _class, string _name);\n  // Emit when Factory updated\n  event LogFactoryUpdated(string _version, address indexed _factory);\n  // Emit when version updated\n  event LogFactoryVersionUpdated(string _version);\n\n  /**\n   * @notice Constructor\n   * @param _registry Address of the Registry contract\n   */\n  constructor(address _registry) public RegistryAccessible(_registry) {\n\n  }\n\n  /**\n   * @notice Creates a new league class\n   * @param _class Class of the league (eg. tennis)\n   * @param _participantsPerFixture Number of participants per fixture in leagues of class `_class`\n   */\n  function createClass(string _class, uint _participantsPerFixture) external onlyOwner {\n    require(supportedClasses[_class] == false, \"Registry already supports class\");\n    supportedClasses[_class] = true;\n    participantsPerFixture[_class] = _participantsPerFixture;\n\n    emit LogClassCreated(_class);\n  }\n\n  /**\n   * @notice Creates a new League Contract and saves it to the registry\n   * @param _class Class of the league (eg. tennis)\n   * @param _name Name of the League (eg. Shanghai Masters)\n   */\n  function createLeague(string _class, string _name) external onlyOwner {\n    require(supportedClasses[_class] == true, \"Class not supported by Registry\");\n    require(factories[factoryVersion] != address(0), \"Factory version not set\");\n\n    ILeagueFactory _factory = ILeagueFactory(factories[factoryVersion]);\n    address _league = _factory.deployLeague(\n      _class,\n      _name,\n      registry,\n      participantsPerFixture[_class],\n      msg.sender\n    );\n\n    leagues[_class].push(_league);\n    supportedLeagues[_league] = true;\n\n    emit LogLeagueAdded(_league, _class, _name);\n  }\n\n  /**\n * @notice Upsert version `_version` to correspond factoryAddress `_leagueFactory`\n * @param _leagueFactory Address of the LeagueFactory for `_version`\n * @param _version Version string for leagueFactory\n */\n  function addFactory(address _leagueFactory, string _version) external onlyOwner {\n    factories[_version] = _leagueFactory;\n    emit LogFactoryUpdated(_version, _leagueFactory);\n  }\n\n  /**\n   * @notice Updates factoryVersion to `_version` if supported\n   * @param _version Version string for leagueFactory\n   */\n  function setFactoryVersion(string _version) external onlyOwner {\n    require(factories[_version] != address(0), \"Version is not supported by Registry\");\n    factoryVersion = _version;\n    emit LogFactoryVersionUpdated(_version);\n  }\n\n  /**\n   * @notice Gets Class with name `_class`\n   * @param _class Class name\n   * @return Class name\n   * @return Address of all league in class\n   */\n  function getClass(string _class) external view returns (string, address[]) {\n    require(supportedClasses[_class] == true, \"Class not supported by Registry\");\n    return (_class, leagues[_class]);\n  }\n\n  /**\n   * @notice Gets league with id `_id`\n   * @param _league Address of the league\n   * @return League address\n   * @return League name\n   * @return League details (hash)\n   */\n  function getLeague(address _league) external view returns (address, string, bytes) {\n    ILeague _l = ILeague(_league);\n    return (_league, _l.getName(), _l.getDetails());\n  }\n\n  /**\n   * @notice Gets the current version used to deploy new leagues contracts\n   * @return Current factory version\n   */\n  function getFactoryVersion() external view returns (string) {\n    return factoryVersion;\n  }\n\n  /**\n   * @notice Gets LeagueFactory contract address for version `_version`\n   * @dev fails if `_version` does not match any\n   * @param _version Version string for leagueFactory\n   * @return Address of the LeagueFactory contract for version `_version`\n   */\n  function getFactory(string _version) external view returns (address) {\n    require(factories[_version] != address(0), \"Version is not supported by Registry\");\n    return factories[_version];\n  }\n\n  /**\n   * @notice Checks if league with address `_league` is registered with FansUnite\n   * @param _league address of the league\n   * @return `true` if `_league` is registered with FansUnite, `false` otherwise\n   */\n  function isLeagueRegistered(address _league) external view returns (bool) {\n    return supportedLeagues[_league];\n  }\n\n  /**\n   * @notice Checks if class `_class` is supported by FansUnite\n   * @param _class Any class\n   * @return `true` if `_class` is supported by FansUnite, `false` otherwise\n   */\n  function isClassSupported(string _class) external view returns (bool) {\n    return supportedClasses[_class];\n  }\n\n}\n",
  "sourcePath": "/Users/ryancimoszko/fu/fansunite-js/node_modules/fansunite-core/contracts/LeagueRegistry.sol",
  "compiler": {
    "name": "solc",
    "version": "0.4.24+commit.e67f0147.Emscripten.clang"
  },
  "schemaVersion": "2.0.1",
  "updatedAt": "2019-01-03T23:57:26.899Z"
}