{
  "contractName": "League001",
  "abi": [
    {
      "constant": false,
      "inputs": [],
      "name": "renounceOwnership",
      "outputs": [],
      "payable": false,
      "stateMutability": "nonpayable",
      "type": "function"
    },
    {
      "constant": true,
      "inputs": [],
      "name": "owner",
      "outputs": [
        {
          "name": "",
          "type": "address"
        }
      ],
      "payable": false,
      "stateMutability": "view",
      "type": "function"
    },
    {
      "constant": false,
      "inputs": [
        {
          "name": "_newOwner",
          "type": "address"
        }
      ],
      "name": "transferOwnership",
      "outputs": [],
      "payable": false,
      "stateMutability": "nonpayable",
      "type": "function"
    },
    {
      "inputs": [
        {
          "name": "_class",
          "type": "string"
        },
        {
          "name": "_name",
          "type": "string"
        },
        {
          "name": "_details",
          "type": "bytes"
        },
        {
          "name": "_consensus",
          "type": "address"
        }
      ],
      "payable": false,
      "stateMutability": "nonpayable",
      "type": "constructor"
    },
    {
      "anonymous": false,
      "inputs": [
        {
          "indexed": true,
          "name": "_old",
          "type": "address"
        },
        {
          "indexed": true,
          "name": "_new",
          "type": "address"
        }
      ],
      "name": "LogConsensusContractUpdated",
      "type": "event"
    },
    {
      "anonymous": false,
      "inputs": [
        {
          "indexed": false,
          "name": "_resolver",
          "type": "address"
        }
      ],
      "name": "LogResolverAdded",
      "type": "event"
    },
    {
      "anonymous": false,
      "inputs": [
        {
          "indexed": true,
          "name": "_year",
          "type": "uint16"
        }
      ],
      "name": "LogSeasonAdded",
      "type": "event"
    },
    {
      "anonymous": false,
      "inputs": [
        {
          "indexed": false,
          "name": "_id",
          "type": "uint256"
        }
      ],
      "name": "LogFixtureAdded",
      "type": "event"
    },
    {
      "anonymous": false,
      "inputs": [
        {
          "indexed": false,
          "name": "_id",
          "type": "uint256"
        }
      ],
      "name": "LogParticipantAdded",
      "type": "event"
    },
    {
      "anonymous": false,
      "inputs": [
        {
          "indexed": true,
          "name": "_fixtureId",
          "type": "uint256"
        },
        {
          "indexed": false,
          "name": "_resolver",
          "type": "address"
        },
        {
          "indexed": false,
          "name": "_payload",
          "type": "bytes"
        }
      ],
      "name": "LogFixtureResolved",
      "type": "event"
    },
    {
      "anonymous": false,
      "inputs": [
        {
          "indexed": true,
          "name": "previousOwner",
          "type": "address"
        }
      ],
      "name": "OwnershipRenounced",
      "type": "event"
    },
    {
      "anonymous": false,
      "inputs": [
        {
          "indexed": true,
          "name": "previousOwner",
          "type": "address"
        },
        {
          "indexed": true,
          "name": "newOwner",
          "type": "address"
        }
      ],
      "name": "OwnershipTransferred",
      "type": "event"
    },
    {
      "constant": false,
      "inputs": [
        {
          "name": "_consensus",
          "type": "address"
        }
      ],
      "name": "updateConsensusContract",
      "outputs": [],
      "payable": false,
      "stateMutability": "nonpayable",
      "type": "function"
    },
    {
      "constant": false,
      "inputs": [
        {
          "name": "_resolver",
          "type": "address"
        }
      ],
      "name": "registerResolver",
      "outputs": [],
      "payable": false,
      "stateMutability": "nonpayable",
      "type": "function"
    },
    {
      "constant": false,
      "inputs": [
        {
          "name": "_fixtureId",
          "type": "uint256"
        },
        {
          "name": "_resolver",
          "type": "address"
        },
        {
          "name": "_payload",
          "type": "bytes"
        }
      ],
      "name": "pushResolution",
      "outputs": [],
      "payable": false,
      "stateMutability": "nonpayable",
      "type": "function"
    },
    {
      "constant": false,
      "inputs": [
        {
          "name": "_year",
          "type": "uint16"
        }
      ],
      "name": "addSeason",
      "outputs": [],
      "payable": false,
      "stateMutability": "nonpayable",
      "type": "function"
    },
    {
      "constant": false,
      "inputs": [
        {
          "name": "_season",
          "type": "uint16"
        },
        {
          "name": "_participants",
          "type": "uint256[]"
        },
        {
          "name": "_start",
          "type": "uint256"
        }
      ],
      "name": "scheduleFixture",
      "outputs": [],
      "payable": false,
      "stateMutability": "nonpayable",
      "type": "function"
    },
    {
      "constant": false,
      "inputs": [
        {
          "name": "_name",
          "type": "string"
        },
        {
          "name": "_details",
          "type": "bytes"
        }
      ],
      "name": "addParticipant",
      "outputs": [],
      "payable": false,
      "stateMutability": "nonpayable",
      "type": "function"
    },
    {
      "constant": false,
      "inputs": [
        {
          "name": "_details",
          "type": "bytes"
        }
      ],
      "name": "setDetails",
      "outputs": [],
      "payable": false,
      "stateMutability": "nonpayable",
      "type": "function"
    },
    {
      "constant": true,
      "inputs": [
        {
          "name": "_fixtureId",
          "type": "uint256"
        },
        {
          "name": "_resolver",
          "type": "address"
        }
      ],
      "name": "getResolution",
      "outputs": [
        {
          "name": "",
          "type": "bytes"
        }
      ],
      "payable": false,
      "stateMutability": "view",
      "type": "function"
    },
    {
      "constant": true,
      "inputs": [],
      "name": "getSeasons",
      "outputs": [
        {
          "name": "",
          "type": "uint16[]"
        }
      ],
      "payable": false,
      "stateMutability": "view",
      "type": "function"
    },
    {
      "constant": true,
      "inputs": [
        {
          "name": "_year",
          "type": "uint16"
        }
      ],
      "name": "getSeason",
      "outputs": [
        {
          "name": "",
          "type": "uint16"
        },
        {
          "name": "",
          "type": "uint256[]"
        }
      ],
      "payable": false,
      "stateMutability": "view",
      "type": "function"
    },
    {
      "constant": true,
      "inputs": [
        {
          "name": "_id",
          "type": "uint256"
        }
      ],
      "name": "getFixture",
      "outputs": [
        {
          "name": "",
          "type": "uint256"
        },
        {
          "name": "",
          "type": "uint256[]"
        },
        {
          "name": "",
          "type": "uint256"
        }
      ],
      "payable": false,
      "stateMutability": "view",
      "type": "function"
    },
    {
      "constant": true,
      "inputs": [
        {
          "name": "_id",
          "type": "uint256"
        }
      ],
      "name": "getParticipant",
      "outputs": [
        {
          "name": "",
          "type": "uint256"
        },
        {
          "name": "",
          "type": "string"
        },
        {
          "name": "",
          "type": "bytes"
        }
      ],
      "payable": false,
      "stateMutability": "view",
      "type": "function"
    },
    {
      "constant": true,
      "inputs": [
        {
          "name": "_resolver",
          "type": "address"
        }
      ],
      "name": "isResolverRegistered",
      "outputs": [
        {
          "name": "",
          "type": "bool"
        }
      ],
      "payable": false,
      "stateMutability": "view",
      "type": "function"
    },
    {
      "constant": true,
      "inputs": [
        {
          "name": "_id",
          "type": "uint256"
        }
      ],
      "name": "isFixtureScheduled",
      "outputs": [
        {
          "name": "",
          "type": "bool"
        }
      ],
      "payable": false,
      "stateMutability": "view",
      "type": "function"
    },
    {
      "constant": true,
      "inputs": [
        {
          "name": "_id",
          "type": "uint256"
        },
        {
          "name": "_resolver",
          "type": "address"
        }
      ],
      "name": "isFixtureResolved",
      "outputs": [
        {
          "name": "",
          "type": "uint8"
        }
      ],
      "payable": false,
      "stateMutability": "view",
      "type": "function"
    },
    {
      "constant": true,
      "inputs": [
        {
          "name": "_id",
          "type": "uint256"
        }
      ],
      "name": "isParticipant",
      "outputs": [
        {
          "name": "",
          "type": "bool"
        }
      ],
      "payable": false,
      "stateMutability": "view",
      "type": "function"
    },
    {
      "constant": true,
      "inputs": [],
      "name": "getName",
      "outputs": [
        {
          "name": "",
          "type": "string"
        }
      ],
      "payable": false,
      "stateMutability": "view",
      "type": "function"
    },
    {
      "constant": true,
      "inputs": [],
      "name": "getClass",
      "outputs": [
        {
          "name": "",
          "type": "string"
        }
      ],
      "payable": false,
      "stateMutability": "view",
      "type": "function"
    },
    {
      "constant": true,
      "inputs": [],
      "name": "getDetails",
      "outputs": [
        {
          "name": "",
          "type": "bytes"
        }
      ],
      "payable": false,
      "stateMutability": "view",
      "type": "function"
    },
    {
      "constant": true,
      "inputs": [],
      "name": "getVersion",
      "outputs": [
        {
          "name": "",
          "type": "string"
        }
      ],
      "payable": false,
      "stateMutability": "view",
      "type": "function"
    }
  ],
  "bytecode": "0x60c0604052600560808190527f302e302e3100000000000000000000000000000000000000000000000000000060a090815262000040916001919062000101565b503480156200004e57600080fd5b5060405162001c2038038062001c20833981016040908152815160208084015192840151606085015160008054600160a060020a0319163317905593850180519386019590949101929091620000aa9160029186019062000101565b508351620000c090600390602087019062000101565b508151620000d690600490602085019062000101565b5060058054600160a060020a031916600160a060020a039290921691909117905550620001a6915050565b828054600181600116156101000203166002900490600052602060002090601f016020900481019282601f106200014457805160ff191683800117855562000174565b8280016001018555821562000174579182015b828111156200017457825182559160200191906001019062000157565b506200018292915062000186565b5090565b620001a391905b808211156200018257600081556001016200018d565b90565b611a6a80620001b66000396000f3006080604052600436106101325763ffffffff7c01000000000000000000000000000000000000000000000000000000006000350416630d8e6e2c81146101375780630f36c47f146101c1578063111953ac1461022657806317d7de7c146102525780631b9db2ef146102675780632adad50814610364578063376111c21461038757806342813bcc146103b35780634f26df4e146103ed57806354d0940d1461040d57806357e61ea4146104875780635c3775c91461049c578063715018a6146104b85780638da5cb5b146104cd578063922c20ab146104fe5780639f3e1b5314610529578063a3c8f7391461054a578063a782c2291461057b578063cb378bba1461059c578063e239c9521461061b578063e78341e614610633578063f2fde38b14610657578063fbbf93a014610678575b600080fd5b34801561014357600080fd5b5061014c61068d565b6040805160208082528351818301528351919283929083019185019080838360005b8381101561018657818101518382015260200161016e565b50505050905090810190601f1680156101b35780820380516001836020036101000a031916815260200191505b509250505060405180910390f35b3480156101cd57600080fd5b506101d6610723565b60408051602080825283518183015283519192839290830191858101910280838360005b838110156102125781810151838201526020016101fa565b505050509050019250505060405180910390f35b34801561023257600080fd5b5061023e6004356107a2565b604080519115158252519081900360200190f35b34801561025e57600080fd5b5061014c6107bd565b34801561027357600080fd5b5061027f60043561081b565b604051808481526020018060200180602001838103835285818151815260200191508051906020019080838360005b838110156102c65781810151838201526020016102ae565b50505050905090810190601f1680156102f35780820380516001836020036101000a031916815260200191505b50838103825284518152845160209182019186019080838360005b8381101561032657818101518382015260200161030e565b50505050905090810190601f1680156103535780820380516001836020036101000a031916815260200191505b509550505050505060405180910390f35b34801561037057600080fd5b50610385600160a060020a0360043516610a0f565b005b34801561039357600080fd5b506103856024600480358281019290820135918135918201910135610b0d565b3480156103bf57600080fd5b506103d7600435600160a060020a0360243516610c71565b6040805160ff9092168252519081900360200190f35b3480156103f957600080fd5b506103856004803560248101910135610cde565b34801561041957600080fd5b50610425600435610d06565b6040518084815260200180602001838152602001828103825284818151815260200191508051906020019060200280838360005b83811015610471578181015183820152602001610459565b5050505090500194505050505060405180910390f35b34801561049357600080fd5b5061014c610e23565b3480156104a857600080fd5b5061038561ffff60043516610e84565b3480156104c457600080fd5b50610385610f8e565b3480156104d957600080fd5b506104e2610ffa565b60408051600160a060020a039092168252519081900360200190f35b34801561050a57600080fd5b506103856004803561ffff169060248035908101910135604435611009565b34801561053557600080fd5b50610385600160a060020a03600435166111cb565b34801561055657600080fd5b50610385600480359060248035600160a060020a031691604435918201910135611274565b34801561058757600080fd5b5061023e600160a060020a036004351661147a565b3480156105a857600080fd5b506105b861ffff60043516611498565b604051808361ffff1661ffff16815260200180602001828103825283818151815260200191508051906020019060200280838360005b838110156106065781810151838201526020016105ee565b50505050905001935050505060405180910390f35b34801561062757600080fd5b5061023e60043561159b565b34801561063f57600080fd5b5061014c600435600160a060020a03602435166115b2565b34801561066357600080fd5b50610385600160a060020a036004351661177f565b34801561068457600080fd5b5061014c6117a2565b60018054604080516020601f600260001961010087891615020190951694909404938401819004810282018101909252828152606093909290918301828280156107185780601f106106ed57610100808354040283529160200191610718565b820191906000526020600020905b8154815290600101906020018083116106fb57829003601f168201915b505050505090505b90565b6060600a80548060200260200160405190810160405280929190818152602001828054801561071857602002820191906000526020600020906000905b82829054906101000a900461ffff1661ffff16815260200190600201906020826001010492830192600103820291508084116107605790505050505050905090565b600080821180156107b75750600c5460010182105b92915050565b60028054604080516020601f60001961010060018716150201909416859004938401819004810282018101909252828152606093909290918301828280156107185780601f106106ed57610100808354040283529160200191610718565b600c54600090606090819083906001018511156108a8576040805160e560020a62461bcd02815260206004820152602260248201527f476976656e207061727469636970616e74206973206e6f7420696e206c65616760448201527f7565000000000000000000000000000000000000000000000000000000000000606482015290519081900360840190fd5b600c805460001987019081106108ba57fe5b9060005260206000209060030201905080600001548160010182600201818054600181600116156101000203166002900480601f01602080910402602001604051908101604052809291908181526020018280546001816001161561010002031660029004801561096c5780601f106109415761010080835404028352916020019161096c565b820191906000526020600020905b81548152906001019060200180831161094f57829003601f168201915b5050845460408051602060026001851615610100026000190190941693909304601f8101849004840282018401909252818152959750869450925084019050828280156109fa5780601f106109cf576101008083540402835291602001916109fa565b820191906000526020600020905b8154815290600101906020018083116109dd57829003601f168201915b50505050509050935093509350509193909250565b60008054600160a060020a03163314610a2757600080fd5b600160a060020a0382161515610aad576040805160e560020a62461bcd02815260206004820152602660248201527f436f6e73656e73757320636f6e74726163742063616e6e6f742062652073657460448201527f20746f2030780000000000000000000000000000000000000000000000000000606482015290519081900360840190fd5b5060058054600160a060020a0383811673ffffffffffffffffffffffffffffffffffffffff19831681179093556040519116919082907f210ffc37465653e9a01c263ac27639e2bdcb93b30d03ce00b5249bf97ec939ed90600090a35050565b610b15611880565b600054600160a060020a03163314610b2c57600080fd5b84848080601f01602080910402602001604051908101604052809392919081815260200183838082843750505050602080850193909352505060408051601f85018390048302810183019091528381529084908490819084018382808284375050505060408401929092525050600c805460018101808452808355600092909252825160039091027fdf6966c971051c3d54ec59162606531493a51404a002842f56009d7e5cf4a8c781019182556020808501518051869493610c15937fdf6966c971051c3d54ec59162606531493a51404a002842f56009d7e5cf4a8c89091019201906118a2565b5060408201518051610c319160028401916020909101906118a2565b5050825160408051918252517f561e78c65705a87f79183e181a2456903f6f4a0edf209667b5e0d7bda085e6019350908190036020019150a15050505050565b6000828152600d602052604081205460ff161515610c91575060006107b7565b6000838152600e60209081526040808320600160a060020a0386168452909152902054600260001961010060018416150201909116041515610cd5575060016107b7565b50600292915050565b600054600160a060020a03163314610cf557600080fd5b610d0160048383611920565b505050565b600b5460009060609082908190600101851115610d93576040805160e560020a62461bcd02815260206004820152602860248201527f476976656e2066697874757265206973206e6f74207363686564756c6564206960448201527f6e206c6561677565000000000000000000000000000000000000000000000000606482015290519081900360840190fd5b600b80546000198701908110610da557fe5b90600052602060002090600302019050806000015481600101826002015481805480602002602001604051908101604052809291908181526020018280548015610e0e57602002820191906000526020600020905b815481526020019060010190808311610dfa575b50505050509150935093509350509193909250565b60038054604080516020601f60026000196101006001881615020190951694909404938401819004810282018101909252828152606093909290918301828280156107185780601f106106ed57610100808354040283529160200191610718565b61ffff811660009081526008602052604090205460ff1615610ef0576040805160e560020a62461bcd02815260206004820152601860248201527f536561736f6e20616c726561647920737570706f727465640000000000000000604482015290519081900360640190fd5b61ffff8181166000818152600860205260408082208054600160ff199091168117909155600a8054918201815583527fc65a7bb8d6351c1cf70c95a316cc6a92839c986682d98bc35f958f4883f9d2a860108204018054600f9092166002026101000a9586021990911694840294909417909355915190917f93d8e6e39c60fb57c0d9aa623448b0ff9bb697d00f01bbb77c02259092f575fe91a250565b600054600160a060020a03163314610fa557600080fd5b60008054604051600160a060020a03909116917ff8df31144d9c2f0f6b59d69b8b98abd5459d07f2742c4df920b25aae33c6482091a26000805473ffffffffffffffffffffffffffffffffffffffff19169055565b600054600160a060020a031681565b61101161198e565b61ffff851660009081526008602052604090205460ff1615156110a3576040805160e560020a62461bcd028152602060048201526024808201527f4c656167756520646f6573206e6f7420737570706f727420676976656e20736560448201527f61736f6e00000000000000000000000000000000000000000000000000000000606482015290519081900360840190fd5b600b805460019081018352604080840185905261ffff8816600090815260096020908152918120855181548086018355918352838320909101558354928301808555939052835160039092027f0175b7a638427703f0dbe7bb9bbf987a2551717b34e79f33b5b1008d1fa01db9810192835581850151805186949361114c937f0175b7a638427703f0dbe7bb9bbf987a2551717b34e79f33b5b1008d1fa01dba019201906119b0565b506040919091015160029091015550600b805485918591600019810190811061117157fe5b9060005260206000209060030201600101919061118f9291906119ea565b50805160408051918252517f9304e030915ed6da5c27faf048f12f3eae58394969224636eb98a811e84db75f9181900360200190a15050505050565b6007805460018082019092557fa66cc928b5edb82af9bd49922954155ab7b0942694bea4ce44661d9a8736c68801805473ffffffffffffffffffffffffffffffffffffffff1916600160a060020a038416908117909155600081815260066020908152604091829020805460ff19169094179093558051918252517f548a19609d0572bc75ac28475120251ae316e979c9447162beefb33e01db0e01929181900390910190a150565b600554600160a060020a0316331461128b57600080fd5b600b5460010184111561130e576040805160e560020a62461bcd02815260206004820152602860248201527f476976656e2046697874757265206973206e6f74207363686564756c6564206960448201527f6e206c6561677565000000000000000000000000000000000000000000000000606482015290519081900360840190fd5b600160a060020a03831660009081526006602052604090205460ff1615156001146113a9576040805160e560020a62461bcd02815260206004820152602660248201527f4c656167756520646f6573206e6f7420737570706f727420676976656e20726560448201527f736f6c7665720000000000000000000000000000000000000000000000000000606482015290519081900360840190fd5b6000848152600d602052604090205460ff1615156113db576000848152600d60205260409020805460ff191660011790555b6000848152600e60209081526040808320600160a060020a03871684529091529020611408908383611920565b50837fe256c6663711b1954989cfd3de024e298d0938b5d9e57e8c3fd35ef6f452e93b8484846040518084600160a060020a0316600160a060020a031681526020018060200182810382528484828181526020019250808284376040519201829003965090945050505050a250505050565b600160a060020a031660009081526006602052604090205460ff1690565b61ffff811660009081526008602052604081205460609060ff16151561152d576040805160e560020a62461bcd028152602060048201526024808201527f4c656167756520646f6573206e6f7420737570706f727420676976656e20736560448201527f61736f6e00000000000000000000000000000000000000000000000000000000606482015290519081900360840190fd5b61ffff831660009081526009602090815260409182902080548351818402810184019094528084528693919283919083018282801561158b57602002820191906000526020600020905b815481526020019060010190808311611577575b5050505050905091509150915091565b600080821180156107b7575050600b546001011190565b6000828152600d602052604090205460609060ff16151561161d576040805160e560020a62461bcd02815260206004820152601560248201527f46697874757265206e6f74207265736f6c7665642e0000000000000000000000604482015290519081900360640190fd5b6000838152600e60209081526040808320600160a060020a038616845290915281205460026000196101006001841615020190911604116116ce576040805160e560020a62461bcd02815260206004820152603960248201527f4e6f207061796c6f61642070726f766964656420666f7220676976656e20726560448201527f736f6c7665722c20666f7220676976656e206669787475726500000000000000606482015290519081900360840190fd5b6000838152600e60209081526040808320600160a060020a038616845282529182902080548351601f6002600019610100600186161502019093169290920491820184900484028101840190945280845290918301828280156117725780601f1061174757610100808354040283529160200191611772565b820191906000526020600020905b81548152906001019060200180831161175557829003601f168201915b5050505050905092915050565b600054600160a060020a0316331461179657600080fd5b61179f81611803565b50565b60048054604080516020601f60026000196101006001881615020190951694909404938401819004810282018101909252828152606093909290918301828280156107185780601f106106ed57610100808354040283529160200191610718565b600160a060020a038116151561181857600080fd5b60008054604051600160a060020a03808516939216917f8be0079c531659141344cd1fd0a4f28419497f9722a3daafe3b4186f6b6457e091a36000805473ffffffffffffffffffffffffffffffffffffffff1916600160a060020a0392909216919091179055565b6060604051908101604052806000815260200160608152602001606081525090565b828054600181600116156101000203166002900490600052602060002090601f016020900481019282601f106118e357805160ff1916838001178555611910565b82800160010185558215611910579182015b828111156119105782518255916020019190600101906118f5565b5061191c929150611a24565b5090565b828054600181600116156101000203166002900490600052602060002090601f016020900481019282601f106119615782800160ff19823516178555611910565b82800160010185558215611910579182015b82811115611910578235825591602001919060010190611973565b6060604051908101604052806000815260200160608152602001600081525090565b82805482825590600052602060002090810192821561191057916020028201828111156119105782518255916020019190600101906118f5565b8280548282559060005260206000209081019282156119105791602002820182811115611910578235825591602001919060010190611973565b61072091905b8082111561191c5760008155600101611a2a5600a165627a7a7230582028e1b41da4bafa8162e43f77c5759fd84f04285f573d763be8493760223444d70029",
  "source": "pragma solidity ^0.4.24;\n\nimport \"openzeppelin-solidity/contracts/ownership/Ownable.sol\";\nimport \"./ILeague001.sol\";\nimport { LeagueLib001 as L } from \"./LeagueLib001.sol\";\n\n\n/**\n * @title League Contract\n */\ncontract League001 is Ownable, ILeague001 {\n\n  // Version of the league\n  string internal version = \"0.0.1\";\n  // Name of the league\n  string internal name;\n  // Class to which the league belongs\n  string internal class;\n  // Hash of league details stored off-chain (eg. IPFS multihash)\n  bytes internal details;\n\n  // Address of the resolution contract (contact responsible for consensus / oracles)\n  address internal consensus;\n\n  // Resolver addresses correspond to `true` if registered with league, `false` otherwise\n  mapping(address => bool) internal registeredResolvers;\n  // List of resolver addresses registered with leaguef\n  address[] internal resolvers;\n  // Season corresponds to `true` if exists, `false` otherwise\n  mapping(uint16 => bool) internal supportedSeasons;\n  // Season corresponds to list of fixture ids\n  mapping(uint16 => uint[]) internal seasons;\n  // List of seasons\n  uint16[] internal seasonList;\n  // List of all fixtures ever in league\n  L.Fixture[] internal fixtures;\n  // List of participants ever played in league\n  L.Participant[] internal participants;\n  // Fixture ids correspond to `true` if resolved, `false` if not resolved\n  mapping(uint => bool) internal resolved;\n  // Resolution payloads by resolver address, by fixture id\n  mapping(uint => mapping(address => bytes)) internal resolutions;\n\n  // Emit when a Fixture is resolved, by resolver\n  event LogConsensusContractUpdated(address indexed _old, address indexed _new);\n  // Emit when new Resolver added\n  event LogResolverAdded(address _resolver);\n  // Emit when new season added\n  event LogSeasonAdded(uint16 indexed _year);\n  // Emit when new fixture added\n  event LogFixtureAdded(uint _id);\n  // Emit when new participant added\n  event LogParticipantAdded(uint _id);\n  // Emit when a Fixture is resolved, by resolver\n  event LogFixtureResolved(uint indexed _fixtureId, address _resolver, bytes _payload);\n\n  /**\n   * @notice Constructor\n   * @param _class Class of league\n   * @param _name Name of league\n   * @param _details Off-chain hash of league details\n   */\n  constructor(string _class, string _name, bytes _details, address _consensus) public {\n    name = _name;\n    class = _class;\n    details = _details;\n    consensus = _consensus;\n  }\n\n  /**\n   * @dev Throw is called by any account other than consensus\n   */\n  modifier onlyConsensus() {\n    require(msg.sender == consensus);\n    _;\n  }\n\n  /**\n   * @notice Sets consensus contract of the league to `_consensus`\n   * @dev Only consensus contract will be able to call pushResolution\n   * @param _consensus address of the consensus contract\n   */\n  function updateConsensusContract(address _consensus) external onlyOwner {\n    require(_consensus != address(0), \"Consensus contract cannot be set to 0x\");\n    address _old = consensus;\n    consensus = _consensus;\n    emit LogConsensusContractUpdated(_old, _consensus);\n  }\n\n  /**\n   * @notice Adds resolver with address `_resolver` to league\n   * @dev fails if `_resolver` is not registered with FansUnite's Resolver Registry\n   * @param _resolver Address of the resolver contract\n   */\n  function registerResolver(address _resolver) external {\n    // TODO:pre:blocked Manan => Finish implementation (blocked by Registry)\n    // TODO:pre:blocked Manan => Check if resolver supports league version doesSupportVersion()\n    resolvers.push(_resolver);\n    registeredResolvers[_resolver] = true;\n\n    emit LogResolverAdded(_resolver);\n  }\n\n  /**\n   * @notice Adds a resolution payload for fixture with id `_fixtureId` and resolver `_resolver`\n   * @param _fixtureId Id of the fixture being resolved\n   * @param _resolver Address of the resolver that can resolve _payload\n   * @param _payload Encoded resolution payload\n   */\n  function pushResolution(uint _fixtureId, address _resolver, bytes _payload)\n    external\n    onlyConsensus\n  {\n    // TODO:pre:think Manan => Think about case where _payload.length is 0 and payload is 0x00..00\n    require(_fixtureId <= fixtures.length + 1, \"Given Fixture is not scheduled in league\");\n    require(registeredResolvers[_resolver] == true, \"League does not support given resolver\");\n    if (!resolved[_fixtureId]) resolved[_fixtureId] = true;\n    resolutions[_fixtureId][_resolver] = _payload;\n    emit LogFixtureResolved(_fixtureId, _resolver, _payload);\n  }\n\n  /**\n   * @notice Starts a new season with year `_year`\n   * @param _year Year of the first fixture in new season\n   */\n  function addSeason(uint16 _year) external {\n    require(!supportedSeasons[_year], \"Season already supported\");\n    supportedSeasons[_year] = true;\n    seasonList.push(_year);\n    emit LogSeasonAdded(_year);\n  }\n\n  /**\n   * @notice Creates a new fixture for the on-going season\n   * @param _season Season of fixture\n   * @param _participants ids of participants in event\n   * @param _start Start time (unix timestamp)\n   */\n  function scheduleFixture(uint16 _season, uint[] _participants, uint _start) external {\n    // TODO:pre:gth Manan => Avoid ordered duplication (DoS attacks possible if hash collisions)\n    require(supportedSeasons[_season], \"League does not support given season\");\n    L.Fixture memory _fixture;\n    _fixture.id = fixtures.length + 1;\n    _fixture.start = _start;\n    seasons[_season].push(_fixture.id);\n    fixtures.push(_fixture);\n    fixtures[fixtures.length - 1].participants = _participants;\n\n    emit LogFixtureAdded(_fixture.id);\n  }\n\n  /**\n   * @notice Adds a new participant to the league\n   * @param _name Name of the participant - should match pattern /[a-zA-Z ]+/\n   * @param _details Off-chain hash of participant details\n   */\n  function addParticipant(string _name, bytes _details) external onlyOwner {\n    // TODO:pre:gth Manan => Avoid name+details duplication?\n    L.Participant memory _participant;\n    _participant.name = _name;\n    _participant.details = _details;\n    _participant.id = participants.length + 1;\n    participants.push(_participant);\n\n    emit LogParticipantAdded(_participant.id);\n  }\n\n  /**\n   * @notice Sets league details\n   * @param _details Off-chain hash of league details\n   */\n  function setDetails(bytes _details) external onlyOwner {\n    details = _details;\n  }\n\n  /**\n   * @notice Gets resolution payload for fixture `_fixtureId` and resolver `_resolver`\n   * @dev Requires the fixture `_fixtureId` to be resolved for resolver `_resolver`\n   * @param _fixtureId Id of the payload's corresponding fixture\n   * @param _resolver Address of the payload's corresponding resolver\n   * @return Resolution payload for fixture `_fixtureId` and resolver `_resolver`\n   */\n  function getResolution(uint _fixtureId, address _resolver) external view returns (bytes) {\n    require(resolved[_fixtureId], \"Fixture not resolved.\");\n    require(\n      resolutions[_fixtureId][_resolver].length > 0,\n      \"No payload provided for given resolver, for given fixture\"\n    );\n    return resolutions[_fixtureId][_resolver];\n  }\n\n  /**\n   * @notice Gets a list of all seasons in league\n   * @return Years of all seasons in league\n   */\n  function getSeasons() external view returns (uint16[]) {\n    return seasonList;\n  }\n\n  /**\n   * @notice Gets the season with year `_year`\n   * @param _year Year of the season\n   * @return Year of the season\n   * @return Ids fixtures scheduled in season `_year`\n   */\n  function getSeason(uint16 _year) external view returns (uint16, uint[]) {\n    require(supportedSeasons[_year], \"League does not support given season\");\n    return (_year, seasons[_year]);\n  }\n\n  /**\n   * @notice Gets scheduled fixture with id `_id`\n   * @param _id Id of the scheduled fixture\n   * @return Fixture id\n   * @return Participant Ids\n   * @return Start time\n   */\n  function getFixture(uint _id) external view returns (uint, uint[], uint) {\n    require(_id <= fixtures.length + 1, \"Given fixture is not scheduled in league\");\n    L.Fixture storage _fixture = fixtures[_id - 1];\n    return (_fixture.id, _fixture.participants, _fixture.start);\n  }\n\n  /**\n   * @notice Gets participant in league with id `_id`\n   * @param _id Id of the participant\n   * @return Participant Id\n   * @return Participant name\n   * @return Details of Participant (hash)\n   */\n  function getParticipant(uint _id) external view returns (uint, string, bytes) {\n    require(_id <= participants.length + 1, \"Given participant is not in league\");\n    L.Participant storage _participant = participants[_id - 1];\n    return (_participant.id, _participant.name, _participant.details);\n  }\n\n  /**\n   * @notice Checks if resolver with address `_resolver` is registered with league\n   * @param _resolver Address of the resolver\n   * @return `true` if resolver is registered with league, `false` otherwise\n   */\n  function isResolverRegistered(address _resolver) external view returns (bool) {\n    return registeredResolvers[_resolver];\n  }\n\n  /**\n   * @notice Checks if fixture with id `_id` has been scheduled in league\n   * @param _id Id of the fixture\n   * @return `true` if fixture with id `_id` is scheduled, `false` otherwise\n   */\n  function isFixtureScheduled(uint _id) external view returns (bool) {\n    return _id > 0 && _id < fixtures.length + 1;\n  }\n\n  /**\n   * @notice Checks if fixture with id `_id` has been resolved for resolver `_resolver`\n   * @dev A fixture is resolved if at least one resolver receives resolution payload\n   * @dev It is possible that some resolvers do not get resolution payloads from oracles\n   * @param _id Id of the fixture\n   * @param _resolver Address of the resolver\n   * @return `0` if fixture is not resolved, `1` if fixture is resolved and for resolver `_resolver`,\n   *  `2` if fixture is resolved but resolver `_resolver\n   */\n  function isFixtureResolved(uint _id, address _resolver) external view returns (uint8) {\n    if (!resolved[_id])\n      return 0;\n    if (resolutions[_id][_resolver].length == 0)\n      return 1;\n    return 2;\n  }\n\n  /**\n   * @notice Checks if participant id `_id` is valid\n   * @param _id Id of the participant\n   * @return `true` if participant id `_id` is valid, `false` otherwise\n   */\n  function isParticipant(uint _id) external view returns (bool) {\n    return _id > 0 && _id < participants.length + 1;\n  }\n\n  /**\n   * @notice Gets the name of the league\n   * @return UTF-8 encoded name of league\n   */\n  function getName() external view returns (string) {\n    return name;\n  }\n\n  /**\n   * @notice Gets the class of the league\n   * @return UTF-8 encoded class of league\n   */\n  function getClass() external view returns (string) {\n    return class;\n  }\n\n  /**\n   * @notice Gets the league details\n   * @return IPFS hash with league details\n   */\n  function getDetails() external view returns (bytes) {\n    return details;\n  }\n\n  /**\n   * @notice Gets the league version (matches LeagueFactory version)\n   * @return Version of the league protocol\n   */\n  function getVersion() external view returns (string) {\n    return version;\n  }\n\n}\n",
  "sourcePath": "/Users/ryancimoszko/fu/fansunite-js/node_modules/fansunite-core/contracts/leagues/League001.sol",
  "compiler": {
    "name": "solc",
    "version": "0.4.24+commit.e67f0147.Emscripten.clang"
  },
  "schemaVersion": "2.0.1",
  "updatedAt": "2018-09-21T23:36:39.556Z"
}