{
  "contractName": "Registry",
  "abi": [
    {
      "constant": true,
      "inputs": [
        {
          "name": "",
          "type": "bytes32"
        }
      ],
      "name": "validAddressKeys",
      "outputs": [
        {
          "name": "",
          "type": "bool"
        }
      ],
      "payable": false,
      "stateMutability": "view",
      "type": "function"
    },
    {
      "constant": true,
      "inputs": [
        {
          "name": "",
          "type": "bytes32"
        }
      ],
      "name": "storedAddresses",
      "outputs": [
        {
          "name": "",
          "type": "address"
        }
      ],
      "payable": false,
      "stateMutability": "view",
      "type": "function"
    },
    {
      "constant": false,
      "inputs": [],
      "name": "renounceOwnership",
      "outputs": [],
      "payable": false,
      "stateMutability": "nonpayable",
      "type": "function"
    },
    {
      "constant": true,
      "inputs": [],
      "name": "owner",
      "outputs": [
        {
          "name": "",
          "type": "address"
        }
      ],
      "payable": false,
      "stateMutability": "view",
      "type": "function"
    },
    {
      "constant": true,
      "inputs": [],
      "name": "isOwner",
      "outputs": [
        {
          "name": "",
          "type": "bool"
        }
      ],
      "payable": false,
      "stateMutability": "view",
      "type": "function"
    },
    {
      "constant": false,
      "inputs": [
        {
          "name": "newOwner",
          "type": "address"
        }
      ],
      "name": "transferOwnership",
      "outputs": [],
      "payable": false,
      "stateMutability": "nonpayable",
      "type": "function"
    },
    {
      "anonymous": false,
      "inputs": [
        {
          "indexed": false,
          "name": "_nameKey",
          "type": "string"
        },
        {
          "indexed": true,
          "name": "_old",
          "type": "address"
        },
        {
          "indexed": true,
          "name": "_new",
          "type": "address"
        }
      ],
      "name": "LogChangeAddress",
      "type": "event"
    },
    {
      "anonymous": false,
      "inputs": [
        {
          "indexed": true,
          "name": "previousOwner",
          "type": "address"
        }
      ],
      "name": "OwnershipRenounced",
      "type": "event"
    },
    {
      "anonymous": false,
      "inputs": [
        {
          "indexed": true,
          "name": "previousOwner",
          "type": "address"
        },
        {
          "indexed": true,
          "name": "newOwner",
          "type": "address"
        }
      ],
      "name": "OwnershipTransferred",
      "type": "event"
    },
    {
      "constant": true,
      "inputs": [
        {
          "name": "_nameKey",
          "type": "string"
        }
      ],
      "name": "getAddress",
      "outputs": [
        {
          "name": "",
          "type": "address"
        }
      ],
      "payable": false,
      "stateMutability": "view",
      "type": "function"
    },
    {
      "constant": false,
      "inputs": [
        {
          "name": "_nameKey",
          "type": "string"
        },
        {
          "name": "_newAddress",
          "type": "address"
        }
      ],
      "name": "changeAddress",
      "outputs": [],
      "payable": false,
      "stateMutability": "nonpayable",
      "type": "function"
    }
  ],
  "bytecode": "0x608060405260008054600160a060020a0319163317905561074c806100256000396000f30060806040526004361061008d5763ffffffff7c01000000000000000000000000000000000000000000000000000000006000350416635103896781146100925780636c47e36f146100be578063715018a6146100f25780638da5cb5b146101095780638f32d59b1461011e578063a7dbb40214610133578063bf40fac114610197578063f2fde38b146101f0575b600080fd5b34801561009e57600080fd5b506100aa600435610211565b604080519115158252519081900360200190f35b3480156100ca57600080fd5b506100d6600435610226565b60408051600160a060020a039092168252519081900360200190f35b3480156100fe57600080fd5b50610107610241565b005b34801561011557600080fd5b506100d66102a9565b34801561012a57600080fd5b506100aa6102b8565b34801561013f57600080fd5b506040805160206004803580820135601f810184900484028501840190955284845261010794369492936024939284019190819084018382808284375094975050509235600160a060020a031693506102c992505050565b3480156101a357600080fd5b506040805160206004803580820135601f81018490048402850184019095528484526100d69436949293602493928401919081908401838280828437509497506105239650505050505050565b3480156101fc57600080fd5b50610107600160a060020a0360043516610684565b60026020526000908152604090205460ff1681565b600160205260009081526040902054600160a060020a031681565b6102496102b8565b151561025457600080fd5b60008054604051600160a060020a03909116917ff8df31144d9c2f0f6b59d69b8b98abd5459d07f2742c4df920b25aae33c6482091a26000805473ffffffffffffffffffffffffffffffffffffffff19169055565b600054600160a060020a031690565b600054600160a060020a0316331490565b60006102d36102b8565b15156102de57600080fd5b60026000846040518082805190602001908083835b602083106103125780518252601f1990920191602091820191016102f3565b51815160209384036101000a600019018019909216911617905260408051929094018290039091208652850195909552929092016000205460ff161592506103679150505761036083610523565b90506103e8565b600160026000856040518082805190602001908083835b6020831061039d5780518252601f19909201916020918201910161037e565b51815160209384036101000a60001901801990921691161790526040805192909401829003909120865285019590955292909201600020805460ff1916941515949094179093555050505b8160016000856040518082805190602001908083835b6020831061041d5780518252601f1990920191602091820191016103fe565b51815160209384036101000a60001901801990921691161790526040805192909401829003909120865285810196909652509283016000908120805473ffffffffffffffffffffffffffffffffffffffff1916600160a060020a0397881617905583518581528951818701528951898816978916967f38575ca154acfc441b9e175568ded9b32501025df333c637fb24985161f53981968c965092945084939284019290860191908190849084905b838110156104e45781810151838201526020016104cc565b50505050905090810190601f1680156105115780820380516001836020036101000a031916815260200191505b509250505060405180910390a3505050565b600060026000836040518082805190602001908083835b602083106105595780518252601f19909201916020918201910161053a565b51815160209384036101000a600019018019909216911617905260408051929094018290039091208652850195909552929092016000205460ff161515925061060691505057604080517f08c379a000000000000000000000000000000000000000000000000000000000815260206004820152601560248201527f4e616d656b6579206d7573742062652076616c69640000000000000000000000604482015290519081900360640190fd5b60016000836040518082805190602001908083835b6020831061063a5780518252601f19909201916020918201910161061b565b51815160209384036101000a6000190180199092169116179052604080519290940182900390912086528501959095529290920160002054600160a060020a031695945050505050565b61068c6102b8565b151561069757600080fd5b6106a0816106a3565b50565b600160a060020a03811615156106b857600080fd5b60008054604051600160a060020a03808516939216917f8be0079c531659141344cd1fd0a4f28419497f9722a3daafe3b4186f6b6457e091a36000805473ffffffffffffffffffffffffffffffffffffffff1916600160a060020a03929092169190911790555600a165627a7a72305820ff1f7bade85ffeb3a344ce982eaceccea8883a42b0f7d801d5c2d48c5e6150b30029",
  "source": "pragma solidity ^0.4.24;\n\nimport \"openzeppelin-solidity/contracts/ownership/Ownable.sol\";\nimport \"./interfaces/IRegistry.sol\";\n\n/**\n * @title Registry Contract\n */\ncontract Registry is Ownable, IRegistry {\n\n  /*\n  Valid Address Keys\n  leagueRegistry = getAddress(\"LeagueRegistry\")\n  resolverRegistry = getAddress(\"ResolverRegistry\")\n  betManager = getAddress(\"BetManager\")\n  consensusManager = getAddress(\"ConsensusManager\")\n  fanToken = getAddress(\"FanToken\")\n  fanVault = getAddress(\"FanVault\")\n  fanOrg = getAddress(\"FanOrg\")\n  */\n\n  mapping (bytes32 => address) public storedAddresses;\n  mapping (bytes32 => bool) public validAddressKeys;\n\n  event LogChangeAddress(string _nameKey, address indexed _old, address indexed _new);\n\n  /**\n   * @notice Get the contract address\n   * @param _nameKey is the key for the contract address mapping\n   * @return Address of contract with namekey `_namekey`\n   */\n  function getAddress(string _nameKey) public view returns (address) {\n    require(validAddressKeys[keccak256(bytes(_nameKey))], \"Namekey must be valid\");\n    return storedAddresses[keccak256(bytes(_nameKey))];\n  }\n\n  /**\n   * @notice change the contract address\n   * @param _nameKey is the key for the contract address mapping\n   * @param _newAddress is the new contract address\n   */\n  function changeAddress(string _nameKey, address _newAddress) public onlyOwner {\n    address oldAddress;\n\n    if (validAddressKeys[keccak256(bytes(_nameKey))])\n      oldAddress = getAddress(_nameKey);\n    else\n      validAddressKeys[keccak256(bytes(_nameKey))] = true;\n\n    storedAddresses[keccak256(bytes(_nameKey))] = _newAddress;\n    emit LogChangeAddress(_nameKey, oldAddress, _newAddress);\n  }\n\n}\n",
  "sourcePath": "/Users/ryancimoszko/fu/fansunite-js/node_modules/fansunite-core/contracts/Registry.sol",
  "compiler": {
    "name": "solc",
    "version": "0.4.24+commit.e67f0147.Emscripten.clang"
  },
  "schemaVersion": "2.0.1",
  "updatedAt": "2018-10-20T23:45:19.916Z"
}