{
  "contractName": "Registry",
  "abi": [
    {
      "constant": false,
      "inputs": [],
      "name": "renounceOwnership",
      "outputs": [],
      "payable": false,
      "stateMutability": "nonpayable",
      "type": "function"
    },
    {
      "constant": true,
      "inputs": [],
      "name": "owner",
      "outputs": [
        {
          "name": "",
          "type": "address"
        }
      ],
      "payable": false,
      "stateMutability": "view",
      "type": "function"
    },
    {
      "constant": true,
      "inputs": [],
      "name": "isOwner",
      "outputs": [
        {
          "name": "",
          "type": "bool"
        }
      ],
      "payable": false,
      "stateMutability": "view",
      "type": "function"
    },
    {
      "constant": false,
      "inputs": [
        {
          "name": "newOwner",
          "type": "address"
        }
      ],
      "name": "transferOwnership",
      "outputs": [],
      "payable": false,
      "stateMutability": "nonpayable",
      "type": "function"
    },
    {
      "anonymous": false,
      "inputs": [
        {
          "indexed": false,
          "name": "_nameKey",
          "type": "string"
        },
        {
          "indexed": true,
          "name": "_old",
          "type": "address"
        },
        {
          "indexed": true,
          "name": "_new",
          "type": "address"
        }
      ],
      "name": "LogChangeAddress",
      "type": "event"
    },
    {
      "anonymous": false,
      "inputs": [
        {
          "indexed": true,
          "name": "previousOwner",
          "type": "address"
        }
      ],
      "name": "OwnershipRenounced",
      "type": "event"
    },
    {
      "anonymous": false,
      "inputs": [
        {
          "indexed": true,
          "name": "previousOwner",
          "type": "address"
        },
        {
          "indexed": true,
          "name": "newOwner",
          "type": "address"
        }
      ],
      "name": "OwnershipTransferred",
      "type": "event"
    },
    {
      "constant": true,
      "inputs": [
        {
          "name": "_nameKey",
          "type": "string"
        }
      ],
      "name": "getAddress",
      "outputs": [
        {
          "name": "",
          "type": "address"
        }
      ],
      "payable": false,
      "stateMutability": "view",
      "type": "function"
    },
    {
      "constant": false,
      "inputs": [
        {
          "name": "_nameKey",
          "type": "string"
        },
        {
          "name": "_newAddress",
          "type": "address"
        }
      ],
      "name": "changeAddress",
      "outputs": [],
      "payable": false,
      "stateMutability": "nonpayable",
      "type": "function"
    }
  ],
  "bytecode": "0x608060405260008054600160a060020a031916331790556105d2806100256000396000f3006080604052600436106100775763ffffffff7c0100000000000000000000000000000000000000000000000000000000600035041663715018a6811461007c5780638da5cb5b146100935780638f32d59b146100c4578063a7dbb402146100ed578063bf40fac11461011b578063f2fde38b1461013b575b600080fd5b34801561008857600080fd5b5061009161015c565b005b34801561009f57600080fd5b506100a86101c4565b60408051600160a060020a039092168252519081900360200190f35b3480156100d057600080fd5b506100d96101d3565b604080519115158252519081900360200190f35b3480156100f957600080fd5b506100916024600480358281019291013590600160a060020a039035166101e4565b34801561012757600080fd5b506100a86004803560248101910135610367565b34801561014757600080fd5b50610091600160a060020a03600435166103a9565b6101646101d3565b151561016f57600080fd5b60008054604051600160a060020a03909116917ff8df31144d9c2f0f6b59d69b8b98abd5459d07f2742c4df920b25aae33c6482091a26000805473ffffffffffffffffffffffffffffffffffffffff19169055565b600054600160a060020a031690565b600054600160a060020a0316331490565b60006101ee6101d3565b15156101f957600080fd5b60026000858560405180838380828437604080519190930181900390208652506020850195909552505050016000205460ff16156102715761026a84848080601f016020809104026020016040519081016040528093929190818152602001838380828437506103c8945050505050565b90506102b3565b6001600260008686604051808383808284376040805193909101839003909220865250602085019590955250505001600020805460ff19169115159190911790555b81600160008686604051808383808284376040805193909101839003909220865250602080860196909652938401600020805473ffffffffffffffffffffffffffffffffffffffff1916600160a060020a039788161790555050815183815292830187905250848316928416917f38575ca154acfc441b9e175568ded9b32501025df333c637fb24985161f5398191889188918190810184848082843760405192018290039550909350505050a350505050565b60006103a283838080601f016020809104026020016040519081016040528093929190818152602001838380828437506103c8945050505050565b9392505050565b6103b16101d3565b15156103bc57600080fd5b6103c581610529565b50565b600060026000836040518082805190602001908083835b602083106103fe5780518252601f1990920191602091820191016103df565b51815160209384036101000a600019018019909216911617905260408051929094018290039091208652850195909552929092016000205460ff16151592506104ab91505057604080517f08c379a000000000000000000000000000000000000000000000000000000000815260206004820152601560248201527f4e616d656b6579206d7573742062652076616c69640000000000000000000000604482015290519081900360640190fd5b60016000836040518082805190602001908083835b602083106104df5780518252601f1990920191602091820191016104c0565b51815160209384036101000a6000190180199092169116179052604080519290940182900390912086528501959095529290920160002054600160a060020a031695945050505050565b600160a060020a038116151561053e57600080fd5b60008054604051600160a060020a03808516939216917f8be0079c531659141344cd1fd0a4f28419497f9722a3daafe3b4186f6b6457e091a36000805473ffffffffffffffffffffffffffffffffffffffff1916600160a060020a03929092169190911790555600a165627a7a7230582021135a28d90c45ee81011f76f20a030ac123ccbc06de7540e5c00b19cc3019190029",
  "source": "pragma solidity ^0.4.24;\n\nimport \"openzeppelin-solidity/contracts/ownership/Ownable.sol\";\nimport \"./interfaces/IRegistry.sol\";\n\n/**\n * @title Registry Contract\n */\ncontract Registry is Ownable, IRegistry {\n\n  /*\n  Valid Address Keys\n  leagueRegistry = getAddress(\"LeagueRegistry\")\n  resolverRegistry = getAddress(\"ResolverRegistry\")\n  betManager = getAddress(\"BetManager\")\n  consensusManager = getAddress(\"ConsensusManager\")\n  fanToken = getAddress(\"FanToken\")\n  fanVault = getAddress(\"FanVault\")\n  fanOrg = getAddress(\"FanOrg\")\n  */\n\n  mapping (bytes32 => address) private storedAddresses;\n  mapping (bytes32 => bool) private validAddressKeys;\n\n  event LogChangeAddress(string _nameKey, address indexed _old, address indexed _new);\n\n  /**\n   * @notice Get the contract address\n   * @param _nameKey is the key for the contract address mapping\n   * @return Address of contract with namekey `_namekey`\n   */\n  function getAddress(string _nameKey) external view returns (address) {\n    return _getAddress(_nameKey);\n  }\n\n  /**\n   * @notice change the contract address\n   * @param _nameKey is the key for the contract address mapping\n   * @param _newAddress is the new contract address\n   */\n  function changeAddress(string _nameKey, address _newAddress) external onlyOwner {\n    address oldAddress;\n\n    if (validAddressKeys[keccak256(bytes(_nameKey))])\n      oldAddress = _getAddress(_nameKey);\n    else\n      validAddressKeys[keccak256(bytes(_nameKey))] = true;\n\n    storedAddresses[keccak256(bytes(_nameKey))] = _newAddress;\n    emit LogChangeAddress(_nameKey, oldAddress, _newAddress);\n  }\n\n  // Internal getAddress\n  function _getAddress(string _nameKey) private view returns (address) {\n    require(validAddressKeys[keccak256(bytes(_nameKey))], \"Namekey must be valid\");\n    return storedAddresses[keccak256(bytes(_nameKey))];\n  }\n\n\n}\n",
  "sourcePath": "/Users/ryancimoszko/fu/fansunite-js/node_modules/fansunite-core/contracts/Registry.sol",
  "compiler": {
    "name": "solc",
    "version": "0.4.24+commit.e67f0147.Emscripten.clang"
  },
  "schemaVersion": "2.0.1",
  "updatedAt": "2019-01-03T23:57:26.891Z"
}