{
  "contractName": "ResolverRegistry",
  "abi": [
    {
      "constant": true,
      "inputs": [],
      "name": "getRegistryContract",
      "outputs": [
        {
          "name": "",
          "type": "address"
        }
      ],
      "payable": false,
      "stateMutability": "view",
      "type": "function"
    },
    {
      "constant": false,
      "inputs": [],
      "name": "renounceOwnership",
      "outputs": [],
      "payable": false,
      "stateMutability": "nonpayable",
      "type": "function"
    },
    {
      "constant": true,
      "inputs": [],
      "name": "owner",
      "outputs": [
        {
          "name": "",
          "type": "address"
        }
      ],
      "payable": false,
      "stateMutability": "view",
      "type": "function"
    },
    {
      "constant": true,
      "inputs": [],
      "name": "isOwner",
      "outputs": [
        {
          "name": "",
          "type": "bool"
        }
      ],
      "payable": false,
      "stateMutability": "view",
      "type": "function"
    },
    {
      "constant": false,
      "inputs": [
        {
          "name": "newOwner",
          "type": "address"
        }
      ],
      "name": "transferOwnership",
      "outputs": [],
      "payable": false,
      "stateMutability": "nonpayable",
      "type": "function"
    },
    {
      "inputs": [
        {
          "name": "_registry",
          "type": "address"
        }
      ],
      "payable": false,
      "stateMutability": "nonpayable",
      "type": "constructor"
    },
    {
      "anonymous": false,
      "inputs": [
        {
          "indexed": false,
          "name": "_class",
          "type": "string"
        },
        {
          "indexed": true,
          "name": "_resolver",
          "type": "address"
        }
      ],
      "name": "LogResolverPending",
      "type": "event"
    },
    {
      "anonymous": false,
      "inputs": [
        {
          "indexed": false,
          "name": "_class",
          "type": "string"
        },
        {
          "indexed": true,
          "name": "_resolver",
          "type": "address"
        }
      ],
      "name": "LogResolverRegistered",
      "type": "event"
    },
    {
      "anonymous": false,
      "inputs": [
        {
          "indexed": false,
          "name": "_class",
          "type": "string"
        },
        {
          "indexed": true,
          "name": "_resolver",
          "type": "address"
        }
      ],
      "name": "LogResolverRejected",
      "type": "event"
    },
    {
      "anonymous": false,
      "inputs": [
        {
          "indexed": true,
          "name": "_league",
          "type": "address"
        },
        {
          "indexed": true,
          "name": "_resolver",
          "type": "address"
        }
      ],
      "name": "LogResolverUsed",
      "type": "event"
    },
    {
      "anonymous": false,
      "inputs": [
        {
          "indexed": true,
          "name": "previousOwner",
          "type": "address"
        }
      ],
      "name": "OwnershipRenounced",
      "type": "event"
    },
    {
      "anonymous": false,
      "inputs": [
        {
          "indexed": true,
          "name": "previousOwner",
          "type": "address"
        },
        {
          "indexed": true,
          "name": "newOwner",
          "type": "address"
        }
      ],
      "name": "OwnershipTransferred",
      "type": "event"
    },
    {
      "constant": false,
      "inputs": [
        {
          "name": "_class",
          "type": "string"
        },
        {
          "name": "_resolver",
          "type": "address"
        }
      ],
      "name": "addResolver",
      "outputs": [],
      "payable": false,
      "stateMutability": "nonpayable",
      "type": "function"
    },
    {
      "constant": false,
      "inputs": [
        {
          "name": "_class",
          "type": "string"
        },
        {
          "name": "_resolver",
          "type": "address"
        }
      ],
      "name": "registerResolver",
      "outputs": [],
      "payable": false,
      "stateMutability": "nonpayable",
      "type": "function"
    },
    {
      "constant": false,
      "inputs": [
        {
          "name": "_class",
          "type": "string"
        },
        {
          "name": "_resolver",
          "type": "address"
        }
      ],
      "name": "rejectResolver",
      "outputs": [],
      "payable": false,
      "stateMutability": "nonpayable",
      "type": "function"
    },
    {
      "constant": false,
      "inputs": [
        {
          "name": "_class",
          "type": "string"
        },
        {
          "name": "_index",
          "type": "uint256"
        }
      ],
      "name": "nukeResolver",
      "outputs": [],
      "payable": false,
      "stateMutability": "nonpayable",
      "type": "function"
    },
    {
      "constant": false,
      "inputs": [
        {
          "name": "_league",
          "type": "address"
        },
        {
          "name": "_resolver",
          "type": "address"
        }
      ],
      "name": "useResolver",
      "outputs": [],
      "payable": false,
      "stateMutability": "nonpayable",
      "type": "function"
    },
    {
      "constant": true,
      "inputs": [
        {
          "name": "_class",
          "type": "string"
        }
      ],
      "name": "getResolvers",
      "outputs": [
        {
          "name": "",
          "type": "address[]"
        }
      ],
      "payable": false,
      "stateMutability": "view",
      "type": "function"
    },
    {
      "constant": true,
      "inputs": [
        {
          "name": "_class",
          "type": "string"
        },
        {
          "name": "_resolver",
          "type": "address"
        }
      ],
      "name": "isResolverRegistered",
      "outputs": [
        {
          "name": "",
          "type": "uint8"
        }
      ],
      "payable": false,
      "stateMutability": "view",
      "type": "function"
    },
    {
      "constant": true,
      "inputs": [
        {
          "name": "_league",
          "type": "address"
        },
        {
          "name": "_resolver",
          "type": "address"
        }
      ],
      "name": "isResolverUsed",
      "outputs": [
        {
          "name": "",
          "type": "bool"
        }
      ],
      "payable": false,
      "stateMutability": "view",
      "type": "function"
    }
  ],
  "bytecode": "0x608060405234801561001057600080fd5b506040516020806116e2833981016040525160008054600160a060020a0319908116331790915560018054600160a060020a03909316929091169190911790556116838061005f6000396000f3006080604052600436106100aa5763ffffffff60e060020a600035041662562b3e81146100af5780631e76e8c1146100df57806336ca3d73146101065780635f1662af146101375780636c21cb0b1461015b578063715018a6146101cb5780638d34f47b146101e05780638da5cb5b146102245780638f32d59b14610239578063a3a60eba14610262578063c30b83a114610289578063c863cf38146102b7578063f2fde38b146102e5575b600080fd5b3480156100bb57600080fd5b506100dd6024600480358281019291013590600160a060020a03903516610306565b005b3480156100eb57600080fd5b506100dd600160a060020a0360043581169060243516610520565b34801561011257600080fd5b5061011b6109a2565b60408051600160a060020a039092168252519081900360200190f35b34801561014357600080fd5b506100dd6024600480358281019291013590356109b2565b34801561016757600080fd5b5061017b6004803560248101910135610bca565b60408051602080825283518183015283519192839290830191858101910280838360005b838110156101b757818101518382015260200161019f565b505050509050019250505060405180910390f35b3480156101d757600080fd5b506100dd610c4b565b3480156101ec57600080fd5b5061020e6024600480358281019291013590600160a060020a03903516610cb3565b6040805160ff9092168252519081900360200190f35b34801561023057600080fd5b5061011b610d5c565b34801561024557600080fd5b5061024e610d6b565b604080519115158252519081900360200190f35b34801561026e57600080fd5b5061024e600160a060020a0360043581169060243516610d7c565b34801561029557600080fd5b506100dd6024600480358281019291013590600160a060020a03903516610efe565b3480156102c357600080fd5b506100dd6024600480358281019291013590600160a060020a039035166113b8565b3480156102f157600080fd5b506100dd600160a060020a0360043516611574565b61030e610d6b565b151561031957600080fd5b60038383604051808383808284379190910194855250506040805160209481900385019020600160a060020a038616600090815294529092205460ff16151591506103d69050576040805160e560020a62461bcd02815260206004820152602160248201527f5265736f6c766572206d75737420626520696e2070656e64696e67207374617460448201527f6500000000000000000000000000000000000000000000000000000000000000606482015290519081900360840190fd5b600060038484604051808383808284379190910194855250506040805160209481900385018120600160a060020a038816600090815295529320805460ff191694151594909417909355506001915060029085908590808383808284379190910194855250506040805160209481900385018120600160a060020a038816600090815295529320805460ff191694151594909417909355506005915084908490808383808284379190910194855250506040805160209481900385018120805460018101825560009182529086902001805473ffffffffffffffffffffffffffffffffffffffff1916600160a060020a0388169081179091558582529481018790527f3ba64c9252d308725f4982f4a3ec3f3475af657a0fa6e9c6be7153cc38560d57935087925086918190810184848082843760405192018290039550909350505050a2505050565b600154604080517fbf40fac1000000000000000000000000000000000000000000000000000000008152602060048201819052600e60248301527f4c6561677565526567697374727900000000000000000000000000000000000060448301529151600093606093600160a060020a039091169263bf40fac1926064808301939282900301818887803b1580156105b657600080fd5b505af11580156105ca573d6000803e3d6000fd5b505050506040513d60208110156105e057600080fd5b5051604080517f0db76ca5000000000000000000000000000000000000000000000000000000008152600160a060020a038781166004830152915192945090841691630db76ca5916024808201926020929091908290030181600087803b15801561064a57600080fd5b505af115801561065e573d6000803e3d6000fd5b505050506040513d602081101561067457600080fd5b505115156106f1576040805160e560020a62461bcd028152602060048201526024808201527f4c6561677565206973206e6f74207265676973746572656420772046616e735560448201527f6e69746500000000000000000000000000000000000000000000000000000000606482015290519081900360840190fd5b600160a060020a0380851660009081526007602090815260408083209387168352929052205460ff161561076f576040805160e560020a62461bcd02815260206004820152601f60248201527f5265736f6c76657220616c7265616479207573656420696e206c656167756500604482015290519081900360640190fd5b83600160a060020a03166357e61ea46040518163ffffffff1660e060020a028152600401600060405180830381600087803b1580156107ad57600080fd5b505af11580156107c1573d6000803e3d6000fd5b505050506040513d6000823e601f3d908101601f1916820160405260208110156107ea57600080fd5b81019080805164010000000081111561080257600080fd5b8201602081018481111561081557600080fd5b815164010000000081118282018710171561082f57600080fd5b505092919050505090506002816040518082805190602001908083835b6020831061086b5780518252601f19909201916020918201910161084c565b51815160209384036101000a600019018019909216911617905292019485525060408051948590038201909420600160a060020a03881660009081529152929092205460ff161515915061090b9050576040805160e560020a62461bcd02815260206004820152601760248201527f5265736f6c766572206e6f742072656769737465726564000000000000000000604482015290519081900360640190fd5b600160a060020a038085166000818152600760209081526040808320948816808452948252808320805460ff1916600190811790915584845260068352818420805491820181558452918320909101805473ffffffffffffffffffffffffffffffffffffffff191685179055517f87b01a3871b04da225355bfa1c1544f57847306d3161bd3043cb14abce788b239190a350505050565b600154600160a060020a03165b90565b6000806109bd610d6b565b15156109c857600080fd5b6005858560405180838380828437909101948552505060405192839003602001909220805490945085109150610a4a9050576040805160e560020a62461bcd02815260206004820152601460248201527f496e646578206f7574206f6620626f756e64732e000000000000000000000000604482015290519081900360640190fd5b8183815481101515610a5857fe5b6000918252602082200154604051600160a060020a03909116925060029087908790808383808284379190910194855250506040805160209481900385018120600160a060020a038816600090815295529320805460ff191694151594909417909355506001915060049087908790808383808284379190910194855250506040805160209481900385019020600160a060020a03871660009081529452909220805460ff19169315159390931790925550508154829084908110610b1957fe5b6000918252602090912001805473ffffffffffffffffffffffffffffffffffffffff191690558154600019018314610bb257815482906000198101908110610b5d57fe5b6000918252602090912001548254600160a060020a0390911690839085908110610b8357fe5b9060005260206000200160006101000a815481600160a060020a030219169083600160a060020a031602179055505b8154610bc2836000198301611610565b505050505050565b6060600583836040518083838082843790910194855250506040805193849003602090810185208054808302870183019093528286529350909150830182828015610c3e57602002820191906000526020600020905b8154600160a060020a03168152600190910190602001808311610c20575b5050505050905092915050565b610c53610d6b565b1515610c5e57600080fd5b60008054604051600160a060020a03909116917ff8df31144d9c2f0f6b59d69b8b98abd5459d07f2742c4df920b25aae33c6482091a26000805473ffffffffffffffffffffffffffffffffffffffff19169055565b600060038484604051808383808284379190910194855250506040805160209481900385019020600160a060020a038716600090815294529092205460ff16159150610d03905057506001610d55565b60028484604051808383808284379190910194855250506040805160209481900385019020600160a060020a038716600090815294529092205460ff169150610d4f9050576000610d52565b60025b90505b9392505050565b600054600160a060020a031690565b600054600160a060020a0316331490565b6000606083600160a060020a03166357e61ea46040518163ffffffff1660e060020a028152600401600060405180830381600087803b158015610dbe57600080fd5b505af1158015610dd2573d6000803e3d6000fd5b505050506040513d6000823e601f3d908101601f191682016040526020811015610dfb57600080fd5b810190808051640100000000811115610e1357600080fd5b82016020810184811115610e2657600080fd5b8151640100000000811182820187101715610e4057600080fd5b505092919050505090506002816040518082805190602001908083835b60208310610e7c5780518252601f199092019160209182019101610e5d565b51815160209384036101000a600019018019909216911617905292019485525060408051948590038201909420600160a060020a03881660009081529152929092205460ff169150508015610ef65750600160a060020a0380851660009081526007602090815260408083209387168352929052205460ff165b949350505050565b600154604080517fbf40fac1000000000000000000000000000000000000000000000000000000008152602060048201819052600e60248301527f4c6561677565526567697374727900000000000000000000000000000000000060448301529151600093600160a060020a03169263bf40fac1926064808201939182900301818787803b158015610f8f57600080fd5b505af1158015610fa3573d6000803e3d6000fd5b505050506040513d6020811015610fb957600080fd5b505160405190915060029085908590808383808284379190910194855250506040805160209481900385019020600160a060020a038716600090815294529092205460ff1615915061107d9050576040805160e560020a62461bcd02815260206004820152602560248201527f5265736f6c76657220616c7265616479207265676973746572656420666f722060448201527f636c617373000000000000000000000000000000000000000000000000000000606482015290519081900360840190fd5b60038484604051808383808284379190910194855250506040805160209481900385019020600160a060020a038716600090815294529092205460ff161591506111399050576040805160e560020a62461bcd02815260206004820152602f60248201527f5265736f6c76657220616c72656164792070656e64696e67207265676973747260448201527f6174696f6e20666f7220636c6173730000000000000000000000000000000000606482015290519081900360840190fd5b60048484604051808383808284379190910194855250506040805160209481900385019020600160a060020a038716600090815294529092205460ff161591506111f59050576040805160e560020a62461bcd02815260206004820152602560248201527f5265736f6c7665722069732072656a656374656420666f72207265676973747260448201527f6174696f6e000000000000000000000000000000000000000000000000000000606482015290519081900360840190fd5b6040517ffb6bb7e900000000000000000000000000000000000000000000000000000000815260206004820190815260248201859052600160a060020a0383169163fb6bb7e9918791879190819060440184848082843782019150509350505050602060405180830381600087803b15801561127057600080fd5b505af1158015611284573d6000803e3d6000fd5b505050506040513d602081101561129a57600080fd5b50511515611318576040805160e560020a62461bcd02815260206004820152602360248201527f436c617373206973206e6f7420737570706f727465642062792046616e73556e60448201527f6974650000000000000000000000000000000000000000000000000000000000606482015290519081900360840190fd5b600160038585604051808383808284379190910194855250506040805160209481900385018120600160a060020a038916600081815291875290839020805460ff1916971515979097179096558481529384018890527f060b3b1f4a174c1033228d93ee237d3e871451012bdff8d11d95d5886708135293899350889250908190810184848082843760405192018290039550909350505050a250505050565b6113c0610d6b565b15156113cb57600080fd5b60038383604051808383808284379190910194855250506040805160209481900385019020600160a060020a038616600090815294529092205460ff16151591506114889050576040805160e560020a62461bcd02815260206004820152602160248201527f5265736f6c766572206d75737420626520696e2070656e64696e67207374617460448201527f6500000000000000000000000000000000000000000000000000000000000000606482015290519081900360840190fd5b600060038484604051808383808284379190910194855250506040805160209481900385018120600160a060020a038816600090815295529320805460ff191694151594909417909355506001915060049085908590808383808284379190910194855250506040805160209481900385018120600160a060020a038816600081815291875290839020805460ff1916971515979097179096558481529384018790527f74e40574558bda69c6ad634409314436d895c2bfd7dd2c509b4d7ea2d6de355893889350879250908190810184848082843760405192018290039550909350505050a2505050565b61157c610d6b565b151561158757600080fd5b61159081611593565b50565b600160a060020a03811615156115a857600080fd5b60008054604051600160a060020a03808516939216917f8be0079c531659141344cd1fd0a4f28419497f9722a3daafe3b4186f6b6457e091a36000805473ffffffffffffffffffffffffffffffffffffffff1916600160a060020a0392909216919091179055565b81548183558181111561163457600083815260209020611634918101908301611639565b505050565b6109af91905b80821115611653576000815560010161163f565b50905600a165627a7a72305820a247ee83bbb97c29ea797d75da6ee252a6ae8b5aba4e2069b11da230f86d21bc0029",
  "source": "pragma solidity ^0.4.24;\n\nimport \"openzeppelin-solidity/contracts/ownership/Ownable.sol\";\n\nimport \"./interfaces/IResolverRegistry.sol\";\nimport \"./interfaces/ILeagueRegistry.sol\";\nimport \"./interfaces/ILeague.sol\";\n\nimport \"./utils/RegistryAccessible.sol\";\n\n\n/**\n * @title FansUnite ResolverRegistry Contract\n * @dev ResolverRegistry keeps track of all the resolvers registered on the FansUnite Platform\n */\ncontract ResolverRegistry is Ownable, IResolverRegistry, RegistryAccessible {\n\n  // class => resolver => registered\n  // Resolves to `true` if resolver is registered for class, `false` otherwise\n  mapping(string => mapping(address => bool)) private registered;\n  // Resolves to `true` if resolver is pending registration for class, `false` otherwise\n  mapping(string => mapping(address => bool)) private pending;\n  // Resolves to `true` if resolver is rejected for class, `false` otherwise\n  mapping(string => mapping(address => bool)) private rejected;\n  // Map of classes to addresses of registered resolvers\n  mapping(string => address[]) private resolvers;\n\n  // Map of league address => resolvers\n  mapping(address => address[]) private leagues;\n  // Mapping of league address to resolver address to whether it is used in league or not\n  mapping(address => mapping(address => bool)) private used;\n\n  // Emit when new resolver added for pending registration\n  event LogResolverPending(string _class, address indexed _resolver);\n  // Emit when new resolver successfully registered\n  event LogResolverRegistered(string _class, address indexed _resolver);\n  // Emit when resolver is rejected\n  event LogResolverRejected(string _class, address indexed _resolver);\n  // Emit when resolved is used by league\n  event LogResolverUsed(address indexed _league, address indexed _resolver);\n\n  /**\n   * @notice Constructor\n   * @param _registry Address of the Registry contract\n   */\n  constructor(address _registry) public RegistryAccessible(_registry) {\n\n  }\n\n  /*\n   * @notice Adds resolver `_resolver` to FansUnite's ResolverRegistry, pending registration\n   * @dev All resolvers will be manually verified by FansUnite before they are registered\n   * @param _resolver Address of the resolver contract\n   * @param _class Class of league that resolver `_resolver` will be registered for\n   */\n  function addResolver(string _class, address _resolver) external {\n    ILeagueRegistry _leagueRegistry = ILeagueRegistry(registry.getAddress(\"LeagueRegistry\"));\n\n    require(!registered[_class][_resolver], \"Resolver already registered for class\");\n    require(!pending[_class][_resolver], \"Resolver already pending registration for class\");\n    require(!rejected[_class][_resolver], \"Resolver is rejected for registration\");\n    require(_leagueRegistry.isClassSupported(_class), \"Class is not supported by FansUnite\");\n\n    pending[_class][_resolver] = true;\n\n    emit LogResolverPending(_class, _resolver);\n  }\n\n  /*\n   * @notice Registers resolver `_resolver`, only FansUnite can call this\n   * @param _resolver Address of the resolver contract\n   * @param _class Class of league that resolver `_resolver` will be registered for\n   */\n  function registerResolver(string _class, address _resolver) external onlyOwner {\n    require(pending[_class][_resolver], \"Resolver must be in pending state\");\n\n    pending[_class][_resolver] = false;\n    registered[_class][_resolver] = true;\n    resolvers[_class].push(_resolver);\n\n    emit LogResolverRegistered(_class, _resolver);\n  }\n\n  /*\n   * @notice Rejects pending resolver `_resolver`, only FansUnite can call this\n   * @param _resolver Address of the resolver contract\n   * @param _class Class of league that resolver `_resolver` will be rejected for\n   */\n  function rejectResolver(string _class, address _resolver) external onlyOwner {\n    require(pending[_class][_resolver], \"Resolver must be in pending state\");\n\n    pending[_class][_resolver] = false;\n    rejected[_class][_resolver] = true;\n\n    emit LogResolverRejected(_class, _resolver);\n  }\n\n  /*\n   * @notice Removes registered resolver in `_class` at index `_index`, only FansUnite can call this\n   * @param _index Index of the resolver in array resolvers[_class]\n   * @param _class Class of league that resolver will be removed for\n   */\n  function nukeResolver(string _class, uint _index) external onlyOwner {\n    // NOTE Resolvers are not nuked from all existing leagues\n    // TODO Update to also taking indices for pruning\n    address[] storage _resolvers = resolvers[_class];\n    require(_index < _resolvers.length, \"Index out of bounds.\");\n\n    address _resolver = _resolvers[_index];\n\n    registered[_class][_resolver] = false;\n    rejected[_class][_resolver] = true;\n\n    delete _resolvers[_index];\n    if (_index != _resolvers.length - 1) _resolvers[_index] = _resolvers[_resolvers.length - 1];\n    _resolvers.length--;\n  }\n\n  /*\n   * @notice Add resolver `_resolver` to league `_league`\n   * @param _league Address of the league contract\n   * @param _resolver Address of the resolver contract\n   * @return `true` if league can use resolver `_resolver`, `false` otherwise\n   */\n  function useResolver(address _league, address _resolver) external {\n    // Can implement reputation functionality for resolvers here without breaking league001\n    ILeagueRegistry _leagueRegistry = ILeagueRegistry(registry.getAddress(\"LeagueRegistry\"));\n\n    require(_leagueRegistry.isLeagueRegistered(_league), \"League is not registered w FansUnite\");\n    require(!used[_league][_resolver], \"Resolver already used in league\");\n\n    string memory _class = ILeague(_league).getClass();\n    require(registered[_class][_resolver], \"Resolver not registered\");\n\n    // TODO version check\n\n    used[_league][_resolver] = true;\n    leagues[_league].push(_resolver);\n\n    emit LogResolverUsed(_league, _resolver);\n  }\n\n  /*\n   * @notice Gets resolver registered for class `_class`\n   * @param _class Class of league\n   * @return Addresses of resolvers registered for `_class`\n   */\n  function getResolvers(string _class) external view returns (address[]) {\n    return resolvers[_class];\n  }\n\n  /*\n   * @notice Returns whether resolver `_resolver` is registered for `_class`\n   * @param _class Class of league\n   * @param _resolver Address of resolver\n   * @return `0` if rejected or not in registry, `1` if pending, `2` if registered\n   */\n  function isResolverRegistered(string _class, address _resolver) external view returns (uint8) {\n    if (pending[_class][_resolver])\n      return 1;\n    return registered[_class][_resolver] ? 2 : 0;\n  }\n\n  /*\n   * @notice Checks whether resolver `_resolver` is used in league `_league`\n   * @param _league Address of league\n   * @param _resolver Address of resolver\n   * @return `true` if resolver `_resolver` is used in league `_league`, `false` otherwise\n   */\n  function isResolverUsed(address _league, address _resolver) external view returns (bool) {\n    string memory _class = ILeague(_league).getClass();\n    return registered[_class][_resolver] && used[_league][_resolver];\n  }\n}\n",
  "sourcePath": "/Users/ryancimoszko/fu/fansunite-js/node_modules/fansunite-core/contracts/ResolverRegistry.sol",
  "compiler": {
    "name": "solc",
    "version": "0.4.24+commit.e67f0147.Emscripten.clang"
  },
  "schemaVersion": "2.0.1",
  "updatedAt": "2019-01-28T18:29:28.487Z"
}