{
  "contractName": "ResolverRegistry",
  "abi": [
    {
      "constant": true,
      "inputs": [],
      "name": "getRegistryContract",
      "outputs": [
        {
          "name": "",
          "type": "address"
        }
      ],
      "payable": false,
      "stateMutability": "view",
      "type": "function"
    },
    {
      "constant": false,
      "inputs": [],
      "name": "renounceOwnership",
      "outputs": [],
      "payable": false,
      "stateMutability": "nonpayable",
      "type": "function"
    },
    {
      "constant": true,
      "inputs": [],
      "name": "owner",
      "outputs": [
        {
          "name": "",
          "type": "address"
        }
      ],
      "payable": false,
      "stateMutability": "view",
      "type": "function"
    },
    {
      "constant": false,
      "inputs": [
        {
          "name": "_newOwner",
          "type": "address"
        }
      ],
      "name": "transferOwnership",
      "outputs": [],
      "payable": false,
      "stateMutability": "nonpayable",
      "type": "function"
    },
    {
      "inputs": [
        {
          "name": "_registry",
          "type": "address"
        }
      ],
      "payable": false,
      "stateMutability": "nonpayable",
      "type": "constructor"
    },
    {
      "anonymous": false,
      "inputs": [
        {
          "indexed": false,
          "name": "_class",
          "type": "string"
        },
        {
          "indexed": true,
          "name": "_resolver",
          "type": "address"
        }
      ],
      "name": "LogResolverPending",
      "type": "event"
    },
    {
      "anonymous": false,
      "inputs": [
        {
          "indexed": false,
          "name": "_class",
          "type": "string"
        },
        {
          "indexed": true,
          "name": "_resolver",
          "type": "address"
        }
      ],
      "name": "LogResolverRegistered",
      "type": "event"
    },
    {
      "anonymous": false,
      "inputs": [
        {
          "indexed": false,
          "name": "_class",
          "type": "string"
        },
        {
          "indexed": true,
          "name": "_resolver",
          "type": "address"
        }
      ],
      "name": "LogResolverRejected",
      "type": "event"
    },
    {
      "anonymous": false,
      "inputs": [
        {
          "indexed": true,
          "name": "previousOwner",
          "type": "address"
        }
      ],
      "name": "OwnershipRenounced",
      "type": "event"
    },
    {
      "anonymous": false,
      "inputs": [
        {
          "indexed": true,
          "name": "previousOwner",
          "type": "address"
        },
        {
          "indexed": true,
          "name": "newOwner",
          "type": "address"
        }
      ],
      "name": "OwnershipTransferred",
      "type": "event"
    },
    {
      "constant": false,
      "inputs": [
        {
          "name": "_class",
          "type": "string"
        },
        {
          "name": "_resolver",
          "type": "address"
        }
      ],
      "name": "addResolver",
      "outputs": [],
      "payable": false,
      "stateMutability": "nonpayable",
      "type": "function"
    },
    {
      "constant": false,
      "inputs": [
        {
          "name": "_class",
          "type": "string"
        },
        {
          "name": "_resolver",
          "type": "address"
        }
      ],
      "name": "registerResolver",
      "outputs": [],
      "payable": false,
      "stateMutability": "nonpayable",
      "type": "function"
    },
    {
      "constant": false,
      "inputs": [
        {
          "name": "_class",
          "type": "string"
        },
        {
          "name": "_resolver",
          "type": "address"
        }
      ],
      "name": "rejectResolver",
      "outputs": [],
      "payable": false,
      "stateMutability": "nonpayable",
      "type": "function"
    },
    {
      "constant": false,
      "inputs": [
        {
          "name": "_class",
          "type": "string"
        },
        {
          "name": "_index",
          "type": "uint256"
        }
      ],
      "name": "nukeResolver",
      "outputs": [],
      "payable": false,
      "stateMutability": "nonpayable",
      "type": "function"
    },
    {
      "constant": false,
      "inputs": [
        {
          "name": "_class",
          "type": "string"
        },
        {
          "name": "_resolver",
          "type": "address"
        }
      ],
      "name": "useResolver",
      "outputs": [
        {
          "name": "",
          "type": "bool"
        }
      ],
      "payable": false,
      "stateMutability": "nonpayable",
      "type": "function"
    },
    {
      "constant": true,
      "inputs": [
        {
          "name": "_class",
          "type": "string"
        }
      ],
      "name": "getResolvers",
      "outputs": [
        {
          "name": "",
          "type": "address[]"
        }
      ],
      "payable": false,
      "stateMutability": "view",
      "type": "function"
    },
    {
      "constant": true,
      "inputs": [
        {
          "name": "_class",
          "type": "string"
        },
        {
          "name": "_resolver",
          "type": "address"
        }
      ],
      "name": "isResolverRegistered",
      "outputs": [
        {
          "name": "",
          "type": "uint8"
        }
      ],
      "payable": false,
      "stateMutability": "view",
      "type": "function"
    }
  ],
  "bytecode": "0x608060405234801561001057600080fd5b506040516020806110fa833981016040525160008054600160a060020a0319908116331790915560018054600160a060020a039093169290911691909117905561109b8061005f6000396000f3006080604052600436106100ad5763ffffffff7c0100000000000000000000000000000000000000000000000000000000600035041662562b3e81146100b257806336ca3d73146100e25780635f1662af146101135780636c21cb0b14610137578063715018a6146101a75780638d34f47b146101bc5780638da5cb5b14610200578063bd01de4914610215578063c30b83a114610257578063c863cf3814610285578063f2fde38b146102b3575b600080fd5b3480156100be57600080fd5b506100e06024600480358281019291013590600160a060020a039035166102d4565b005b3480156100ee57600080fd5b506100f76104f2565b60408051600160a060020a039092168252519081900360200190f35b34801561011f57600080fd5b506100e0602460048035828101929101359035610502565b34801561014357600080fd5b50610157600480356024810191013561071e565b60408051602080825283518183015283519192839290830191858101910280838360005b8381101561019357818101518382015260200161017b565b505050509050019250505060405180910390f35b3480156101b357600080fd5b506100e061079f565b3480156101c857600080fd5b506101ea6024600480358281019291013590600160a060020a0390351661080b565b6040805160ff9092168252519081900360200190f35b34801561020c57600080fd5b506100f76108b4565b34801561022157600080fd5b506102436024600480358281019291013590600160a060020a039035166108c3565b604080519115158252519081900360200190f35b34801561026357600080fd5b506100e06024600480358281019291013590600160a060020a0390351661090e565b34801561029157600080fd5b506100e06024600480358281019291013590600160a060020a03903516610dc8565b3480156102bf57600080fd5b506100e0600160a060020a0360043516610f88565b600054600160a060020a031633146102eb57600080fd5b60038383604051808383808284379190910194855250506040805160209481900385019020600160a060020a038616600090815294529092205460ff16151591506103a89050576040805160e560020a62461bcd02815260206004820152602160248201527f5265736f6c766572206d75737420626520696e2070656e64696e67207374617460448201527f6500000000000000000000000000000000000000000000000000000000000000606482015290519081900360840190fd5b600060038484604051808383808284379190910194855250506040805160209481900385018120600160a060020a038816600090815295529320805460ff191694151594909417909355506001915060029085908590808383808284379190910194855250506040805160209481900385018120600160a060020a038816600090815295529320805460ff191694151594909417909355506005915084908490808383808284379190910194855250506040805160209481900385018120805460018101825560009182529086902001805473ffffffffffffffffffffffffffffffffffffffff1916600160a060020a0388169081179091558582529481018790527f3ba64c9252d308725f4982f4a3ec3f3475af657a0fa6e9c6be7153cc38560d57935087925086918190810184848082843760405192018290039550909350505050a2505050565b600154600160a060020a03165b90565b600080548190600160a060020a0316331461051c57600080fd5b600585856040518083838082843790910194855250506040519283900360200190922080549094508510915061059e9050576040805160e560020a62461bcd02815260206004820152601460248201527f496e646578206f7574206f6620626f756e64732e000000000000000000000000604482015290519081900360640190fd5b81838154811015156105ac57fe5b6000918252602082200154604051600160a060020a03909116925060029087908790808383808284379190910194855250506040805160209481900385018120600160a060020a038816600090815295529320805460ff191694151594909417909355506001915060049087908790808383808284379190910194855250506040805160209481900385019020600160a060020a03871660009081529452909220805460ff1916931515939093179092555050815482908490811061066d57fe5b6000918252602090912001805473ffffffffffffffffffffffffffffffffffffffff191690558154600019018314610706578154829060001981019081106106b157fe5b6000918252602090912001548254600160a060020a03909116908390859081106106d757fe5b9060005260206000200160006101000a815481600160a060020a030219169083600160a060020a031602179055505b8154610716836000198301611028565b505050505050565b606060058383604051808383808284379091019485525050604080519384900360209081018520805480830287018301909352828652935090915083018282801561079257602002820191906000526020600020905b8154600160a060020a03168152600190910190602001808311610774575b5050505050905092915050565b600054600160a060020a031633146107b657600080fd5b60008054604051600160a060020a03909116917ff8df31144d9c2f0f6b59d69b8b98abd5459d07f2742c4df920b25aae33c6482091a26000805473ffffffffffffffffffffffffffffffffffffffff19169055565b600060038484604051808383808284379190910194855250506040805160209481900385019020600160a060020a038716600090815294529092205460ff1615915061085b9050575060016108ad565b60028484604051808383808284379190910194855250506040805160209481900385019020600160a060020a038716600090815294529092205460ff1691506108a790505760006108aa565b60025b90505b9392505050565b600054600160a060020a031681565b60006002848460405180838380828437909101948552505060408051938490036020908101909420600160a060020a038716600090815294529092205460ff16925050509392505050565b600154604080517fbf40fac1000000000000000000000000000000000000000000000000000000008152602060048201819052600e60248301527f4c6561677565526567697374727900000000000000000000000000000000000060448301529151600093600160a060020a03169263bf40fac1926064808201939182900301818787803b15801561099f57600080fd5b505af11580156109b3573d6000803e3d6000fd5b505050506040513d60208110156109c957600080fd5b505160405190915060029085908590808383808284379190910194855250506040805160209481900385019020600160a060020a038716600090815294529092205460ff16159150610a8d9050576040805160e560020a62461bcd02815260206004820152602560248201527f5265736f6c76657220616c7265616479207265676973746572656420666f722060448201527f636c617373000000000000000000000000000000000000000000000000000000606482015290519081900360840190fd5b60038484604051808383808284379190910194855250506040805160209481900385019020600160a060020a038716600090815294529092205460ff16159150610b499050576040805160e560020a62461bcd02815260206004820152602f60248201527f5265736f6c76657220616c72656164792070656e64696e67207265676973747260448201527f6174696f6e20666f7220636c6173730000000000000000000000000000000000606482015290519081900360840190fd5b60048484604051808383808284379190910194855250506040805160209481900385019020600160a060020a038716600090815294529092205460ff16159150610c059050576040805160e560020a62461bcd02815260206004820152602560248201527f5265736f6c7665722069732072656a656374656420666f72207265676973747260448201527f6174696f6e000000000000000000000000000000000000000000000000000000606482015290519081900360840190fd5b6040517ffb6bb7e900000000000000000000000000000000000000000000000000000000815260206004820190815260248201859052600160a060020a0383169163fb6bb7e9918791879190819060440184848082843782019150509350505050602060405180830381600087803b158015610c8057600080fd5b505af1158015610c94573d6000803e3d6000fd5b505050506040513d6020811015610caa57600080fd5b50511515610d28576040805160e560020a62461bcd02815260206004820152602360248201527f436c617373206973206e6f7420737570706f727465642062792046616e73756e60448201527f6974650000000000000000000000000000000000000000000000000000000000606482015290519081900360840190fd5b600160038585604051808383808284379190910194855250506040805160209481900385018120600160a060020a038916600081815291875290839020805460ff1916971515979097179096558481529384018890527f060b3b1f4a174c1033228d93ee237d3e871451012bdff8d11d95d5886708135293899350889250908190810184848082843760405192018290039550909350505050a250505050565b600054600160a060020a03163314610ddf57600080fd5b60038383604051808383808284379190910194855250506040805160209481900385019020600160a060020a038616600090815294529092205460ff1615159150610e9c9050576040805160e560020a62461bcd02815260206004820152602160248201527f5265736f6c766572206d75737420626520696e2070656e64696e67207374617460448201527f6500000000000000000000000000000000000000000000000000000000000000606482015290519081900360840190fd5b600060038484604051808383808284379190910194855250506040805160209481900385018120600160a060020a038816600090815295529320805460ff191694151594909417909355506001915060049085908590808383808284379190910194855250506040805160209481900385018120600160a060020a038816600081815291875290839020805460ff1916971515979097179096558481529384018790527f74e40574558bda69c6ad634409314436d895c2bfd7dd2c509b4d7ea2d6de355893889350879250908190810184848082843760405192018290039550909350505050a2505050565b600054600160a060020a03163314610f9f57600080fd5b610fa881610fab565b50565b600160a060020a0381161515610fc057600080fd5b60008054604051600160a060020a03808516939216917f8be0079c531659141344cd1fd0a4f28419497f9722a3daafe3b4186f6b6457e091a36000805473ffffffffffffffffffffffffffffffffffffffff1916600160a060020a0392909216919091179055565b81548183558181111561104c5760008381526020902061104c918101908301611051565b505050565b6104ff91905b8082111561106b5760008155600101611057565b50905600a165627a7a72305820ef2f7f781ad9188d1957914fb65a45ef240b377086fa16d0b216c8f93f117b250029",
  "source": "pragma solidity ^0.4.24;\n\nimport \"openzeppelin-solidity/contracts/ownership/Ownable.sol\";\n\nimport \"./interfaces/IResolverRegistry.sol\";\nimport \"./interfaces/ILeagueRegistry.sol\";\n\nimport \"./utils/RegistryAccessible.sol\";\n\n\n/**\n * @title FansUnite ResolverRegistry Contract\n * @dev ResolverRegistry keeps track of all the resolvers registered on the FansUnite Platform\n */\ncontract ResolverRegistry is Ownable, IResolverRegistry, RegistryAccessible {\n\n  // class => resolver => registered\n  // Resolves to `true` if resolver is registered for class, `false` otherwise\n  mapping(string => mapping(address => bool)) registered;\n  // Resolves to `true` if resolver is pending registration for class, `false` otherwise\n  mapping(string => mapping(address => bool)) pending;\n  // Resolves to `true` if resolver is rejected for class, `false` otherwise\n  mapping(string => mapping(address => bool)) rejected;\n  // Map of classes to addresses of registered resolvers\n  mapping(string => address[]) internal resolvers;\n\n  // Emit when new resolver added for pending registration\n  event LogResolverPending(string _class, address indexed _resolver);\n  // Emit when new resolver successfully registered\n  event LogResolverRegistered(string _class, address indexed _resolver);\n  // Emit when resolver is rejected\n  event LogResolverRejected(string _class, address indexed _resolver);\n\n  /**\n   * @notice Constructor\n   * @param _registry Address of the Registry contract\n   */\n  constructor(address _registry) public RegistryAccessible(_registry) {\n\n  }\n\n  /*\n   * @title Adds resolver `_resolver` to FansUnite's ResolverRegistry, pending registration\n   * @dev All resolvers will be manually verified by FansUnite before they are registered\n   * @param _resolver Address of the resolver contract\n   * @param _class Class of league that resolver `_resolver` will be registered for\n   */\n  function addResolver(string _class, address _resolver) external {\n    ILeagueRegistry _leagueRegistry = ILeagueRegistry(registry.getAddress(\"LeagueRegistry\"));\n\n    require(!registered[_class][_resolver], \"Resolver already registered for class\");\n    require(!pending[_class][_resolver], \"Resolver already pending registration for class\");\n    require(!rejected[_class][_resolver], \"Resolver is rejected for registration\");\n    require(_leagueRegistry.isClassSupported(_class), \"Class is not supported by Fansunite\");\n\n    pending[_class][_resolver] = true;\n\n    emit LogResolverPending(_class, _resolver);\n  }\n\n  /*\n   * @title Registers resolver `_resolver`, only FansUnite can call this\n   * @param _resolver Address of the resolver contract\n   * @param _class Class of league that resolver `_resolver` will be registered for\n   */\n  function registerResolver(string _class, address _resolver) external onlyOwner {\n    require(pending[_class][_resolver], \"Resolver must be in pending state\");\n\n    pending[_class][_resolver] = false;\n    registered[_class][_resolver] = true;\n    resolvers[_class].push(_resolver);\n\n    emit LogResolverRegistered(_class, _resolver);\n  }\n\n  /*\n   * @title Rejects pending resolver `_resolver`, only FansUnite can call this\n   * @param _resolver Address of the resolver contract\n   * @param _class Class of league that resolver `_resolver` will be rejected for\n   */\n  function rejectResolver(string _class, address _resolver) external onlyOwner {\n    require(pending[_class][_resolver], \"Resolver must be in pending state\");\n\n    pending[_class][_resolver] = false;\n    rejected[_class][_resolver] = true;\n\n    emit LogResolverRejected(_class, _resolver);\n  }\n\n  /*\n   * @title Removes registered resolver in `_class` at index `_index`, only FansUnite can call this\n   * @param _index Index of the resolver in array resolvers[_class]\n   * @param _class Class of league that resolver will be removed for\n   */\n  function nukeResolver(string _class, uint _index) external onlyOwner {\n    // NOTE Resolvers are not nuked from all existing leagues\n    address[] storage _resolvers = resolvers[_class];\n    require(_index < _resolvers.length, \"Index out of bounds.\");\n\n    address _resolver = _resolvers[_index];\n\n    registered[_class][_resolver] = false;\n    rejected[_class][_resolver] = true;\n\n    delete _resolvers[_index];\n    if (_index != _resolvers.length - 1) _resolvers[_index] = _resolvers[_resolvers.length - 1];\n    _resolvers.length--;\n  }\n\n  /*\n   * @title Only registered leagues call this function when they add new resolvers to league\n   * @param _class Class of league\n   * @param _resolver Address of the resolver contract\n   * @return `true` if league can use resolver `_resolver`, `false` otherwise\n   */\n  function useResolver(string _class, address _resolver) external returns (bool) {\n    // Can implement reputation functionality for resolvers here without breaking league001\n    // All leagues call useResolver before they register a resolver\n    return registered[_class][_resolver];\n  }\n\n  /*yarn\n   * @title Gets resolver registered for class `_class`\n   * @param _class Class of league\n   * @return Addresses of resolvers registered for `_class`\n   */\n  function getResolvers(string _class) external view returns (address[]) {\n    return resolvers[_class];\n  }\n\n  /*\n   * @title Returns whether resolver `_resolver` is registered for `_class`\n   * @param _class Class of league\n   * @param _resolver Address of resolver\n   * @return `0` if rejected or not in registry, `1` if pending, `2` if registered\n   */\n  function isResolverRegistered(string _class, address _resolver) external view returns (uint8) {\n    if (pending[_class][_resolver])\n      return 1;\n    return registered[_class][_resolver] ? 2 : 0;\n  }\n}\n",
  "sourcePath": "/Users/ryancimoszko/fu/fansunite-js/node_modules/fansunite-core/contracts/ResolverRegistry.sol",
  "compiler": {
    "name": "solc",
    "version": "0.4.24+commit.e67f0147.Emscripten.clang"
  },
  "schemaVersion": "2.0.1",
  "updatedAt": "2018-10-01T16:10:45.093Z"
}