{
  "contractName": "RMoneyLine2",
  "abi": [
    {
      "constant": true,
      "inputs": [
        {
          "name": "_league",
          "type": "address"
        }
      ],
      "name": "doesSupportLeague",
      "outputs": [
        {
          "name": "",
          "type": "bool"
        }
      ],
      "payable": false,
      "stateMutability": "view",
      "type": "function"
    },
    {
      "constant": false,
      "inputs": [],
      "name": "renounceOwnership",
      "outputs": [],
      "payable": false,
      "stateMutability": "nonpayable",
      "type": "function"
    },
    {
      "constant": true,
      "inputs": [],
      "name": "owner",
      "outputs": [
        {
          "name": "",
          "type": "address"
        }
      ],
      "payable": false,
      "stateMutability": "view",
      "type": "function"
    },
    {
      "constant": true,
      "inputs": [],
      "name": "isOwner",
      "outputs": [
        {
          "name": "",
          "type": "bool"
        }
      ],
      "payable": false,
      "stateMutability": "view",
      "type": "function"
    },
    {
      "constant": false,
      "inputs": [
        {
          "name": "_version",
          "type": "string"
        }
      ],
      "name": "supportVersion",
      "outputs": [],
      "payable": false,
      "stateMutability": "nonpayable",
      "type": "function"
    },
    {
      "constant": false,
      "inputs": [
        {
          "name": "newOwner",
          "type": "address"
        }
      ],
      "name": "transferOwnership",
      "outputs": [],
      "payable": false,
      "stateMutability": "nonpayable",
      "type": "function"
    },
    {
      "inputs": [
        {
          "name": "_version",
          "type": "string"
        }
      ],
      "payable": false,
      "stateMutability": "nonpayable",
      "type": "constructor"
    },
    {
      "anonymous": false,
      "inputs": [
        {
          "indexed": false,
          "name": "_version",
          "type": "string"
        }
      ],
      "name": "LogSupportVersion",
      "type": "event"
    },
    {
      "anonymous": false,
      "inputs": [
        {
          "indexed": true,
          "name": "previousOwner",
          "type": "address"
        }
      ],
      "name": "OwnershipRenounced",
      "type": "event"
    },
    {
      "anonymous": false,
      "inputs": [
        {
          "indexed": true,
          "name": "previousOwner",
          "type": "address"
        },
        {
          "indexed": true,
          "name": "newOwner",
          "type": "address"
        }
      ],
      "name": "OwnershipTransferred",
      "type": "event"
    },
    {
      "constant": true,
      "inputs": [
        {
          "name": "_league",
          "type": "address"
        },
        {
          "name": "_fixture",
          "type": "uint256"
        },
        {
          "name": "_bWinner",
          "type": "uint256"
        },
        {
          "name": "_rScores",
          "type": "uint256[]"
        }
      ],
      "name": "resolve",
      "outputs": [
        {
          "name": "",
          "type": "uint256"
        }
      ],
      "payable": false,
      "stateMutability": "view",
      "type": "function"
    },
    {
      "constant": true,
      "inputs": [
        {
          "name": "_league",
          "type": "address"
        },
        {
          "name": "_fixture",
          "type": "uint256"
        },
        {
          "name": "_winner",
          "type": "uint256"
        }
      ],
      "name": "validate",
      "outputs": [
        {
          "name": "",
          "type": "bool"
        }
      ],
      "payable": false,
      "stateMutability": "view",
      "type": "function"
    },
    {
      "constant": true,
      "inputs": [],
      "name": "getInitSignature",
      "outputs": [
        {
          "name": "",
          "type": "string"
        }
      ],
      "payable": false,
      "stateMutability": "pure",
      "type": "function"
    },
    {
      "constant": true,
      "inputs": [],
      "name": "getInitSelector",
      "outputs": [
        {
          "name": "",
          "type": "bytes4"
        }
      ],
      "payable": false,
      "stateMutability": "pure",
      "type": "function"
    },
    {
      "constant": true,
      "inputs": [],
      "name": "getValidatorSignature",
      "outputs": [
        {
          "name": "",
          "type": "string"
        }
      ],
      "payable": false,
      "stateMutability": "pure",
      "type": "function"
    },
    {
      "constant": true,
      "inputs": [],
      "name": "getValidatorSelector",
      "outputs": [
        {
          "name": "",
          "type": "bytes4"
        }
      ],
      "payable": false,
      "stateMutability": "pure",
      "type": "function"
    },
    {
      "constant": true,
      "inputs": [],
      "name": "getDescription",
      "outputs": [
        {
          "name": "",
          "type": "string"
        }
      ],
      "payable": false,
      "stateMutability": "view",
      "type": "function"
    },
    {
      "constant": true,
      "inputs": [],
      "name": "getType",
      "outputs": [
        {
          "name": "",
          "type": "string"
        }
      ],
      "payable": false,
      "stateMutability": "view",
      "type": "function"
    },
    {
      "constant": true,
      "inputs": [],
      "name": "getDetails",
      "outputs": [
        {
          "name": "",
          "type": "bytes"
        }
      ],
      "payable": false,
      "stateMutability": "view",
      "type": "function"
    }
  ],
  "bytecode": "0x608060405234801561001057600080fd5b50604051610bf8380380610bf8833981016040819052815160008054600160a060020a031916331790559091018051909182916001918291849190819060208401908083835b602083106100755780518252601f199092019160209182019101610056565b51815160209384036101000a60001901801990921691161790529201948552506040519384900301909220805460ff19169315159390931790925550610b3292508291506100c690506000396000f3006080604052600436106100c15763ffffffff60e060020a60003504166315dae03e81146100c65780631a0925411461015057806354ed633b146101655780635914dfd2146101af5780635cc15597146101e4578063715018a6146101f957806382d2bccf146102105780638da5cb5b146102575780638f32d59b14610288578063943e25a11461029d57806398645080146102b2578063d71fbd7f146102d2578063dae76fba146102f9578063f2fde38b1461030e578063fbbf93a01461032f575b600080fd5b3480156100d257600080fd5b506100db610344565b6040805160208082528351818301528351919283929083019185019080838360005b838110156101155781810151838201526020016100fd565b50505050905090810190601f1680156101425780820380516001836020036101000a031916815260200191505b509250505060405180910390f35b34801561015c57600080fd5b506100db61037b565b34801561017157600080fd5b5061017a610400565b604080517fffffffff000000000000000000000000000000000000000000000000000000009092168252519081900360200190f35b3480156101bb57600080fd5b506101d0600160a060020a0360043516610424565b604080519115158252519081900360200190f35b3480156101f057600080fd5b506100db61055c565b34801561020557600080fd5b5061020e6105bb565b005b34801561021c57600080fd5b5061024560048035600160a060020a031690602480359160443591606435908101910135610623565b60408051918252519081900360200190f35b34801561026357600080fd5b5061026c6107cf565b60408051600160a060020a039092168252519081900360200190f35b34801561029457600080fd5b506101d06107de565b3480156102a957600080fd5b5061017a6107ef565b3480156102be57600080fd5b5061020e6004803560248101910135610813565b3480156102de57600080fd5b506101d0600160a060020a0360043516602435604435610969565b34801561030557600080fd5b506100db6109f9565b34801561031a57600080fd5b5061020e600160a060020a0360043516610a58565b34801561033b57600080fd5b506100db610a77565b60408051808201909152600a81527f4d6f6e65796c696e653200000000000000000000000000000000000000000000602082015290565b60408051608081018252605181527f436f6d6d6f6e204d6f6e65794c696e65205265736f6c76657220666f7220747760208201527f6f20706c61796572206c6561677565733a2042657474696e67206f6e2077686f918101919091527f2077696e73207468652066697874757265000000000000000000000000000000606082015290565b7f82d2bccf0000000000000000000000000000000000000000000000000000000090565b6000606082600160a060020a0316630d8e6e2c6040518163ffffffff1660e060020a028152600401600060405180830381600087803b15801561046657600080fd5b505af115801561047a573d6000803e3d6000fd5b505050506040513d6000823e601f3d908101601f1916820160405260208110156104a357600080fd5b8101908080516401000000008111156104bb57600080fd5b820160208101848111156104ce57600080fd5b81516401000000008111828201871017156104e857600080fd5b505092919050505090506001816040518082805190602001908083835b602083106105245780518252601f199092019160209182019101610505565b51815160209384036101000a600019018019909216911617905292019485525060405193849003019092205460ff1695945050505050565b60408051606081018252602a81527f7265736f6c766528616464726573732c75696e743235362c75696e743235362c60208201527f75696e743235365b5d29000000000000000000000000000000000000000000009181019190915290565b6105c36107de565b15156105ce57600080fd5b60008054604051600160a060020a03909116917ff8df31144d9c2f0f6b59d69b8b98abd5459d07f2742c4df920b25aae33c6482091a26000805473ffffffffffffffffffffffffffffffffffffffff19169055565b60006060600087600160a060020a03166354d0940d886040518263ffffffff1660e060020a02815260040180828152602001915050600060405180830381600087803b15801561067257600080fd5b505af1158015610686573d6000803e3d6000fd5b505050506040513d6000823e601f3d908101601f1916820160405260608110156106af57600080fd5b8151602083018051919392830192916401000000008111156106d057600080fd5b820160208101848111156106e357600080fd5b815185602082028301116401000000008211171561070057600080fd5b5090965050508815159250610755915050578484600181811061071f57fe5b9050602002013585856000818110151561073557fe5b905060200201351461074857600161074b565b60025b60ff1692506107c4565b8582600081518110151561076557fe5b906020019060200201511461077b57600161077e565b60005b60ff1690508484600183900381811061079357fe5b9050602002013585858381811015156107a857fe5b90506020020135116107bb5760016107be565b60025b60ff1692505b505095945050505050565b600054600160a060020a031690565b600054600160a060020a0316331490565b7fd71fbd7f0000000000000000000000000000000000000000000000000000000090565b61081b6107de565b151561082657600080fd5b60018282604051808383808284379091019485525050604051928390036020019092205460ff161591506108e3905057604080517f08c379a000000000000000000000000000000000000000000000000000000000815260206004820152602160248201527f5265736f6c76657220737570706f7274732076657273696f6e20616c7265616460448201527f7900000000000000000000000000000000000000000000000000000000000000606482015290519081900360840190fd5b6001808383604051808383808284379190910194855250506040805160209481900385018120805460ff191696151596909617909555838552928401859052507f7ef80a6e8fe7b05374e62b2d81260f00f056562254d3fa2a73e21c4b6ef07d4e9285928592508190810184848082843760405192018290039550909350505050a15050565b60008115806109f1575083600160a060020a03166393ffd67083856040518363ffffffff1660e060020a0281526004018083815260200182815260200192505050602060405180830381600087803b1580156109c457600080fd5b505af11580156109d8573d6000803e3d6000fd5b505050506040513d60208110156109ee57600080fd5b50515b949350505050565b60408051606081018252602181527f76616c696461746528616464726573732c75696e743235362c75696e7432353660208201527f29000000000000000000000000000000000000000000000000000000000000009181019190915290565b610a606107de565b1515610a6b57600080fd5b610a7481610a89565b50565b60408051600081526020810190915290565b600160a060020a0381161515610a9e57600080fd5b60008054604051600160a060020a03808516939216917f8be0079c531659141344cd1fd0a4f28419497f9722a3daafe3b4186f6b6457e091a36000805473ffffffffffffffffffffffffffffffffffffffff1916600160a060020a03929092169190911790555600a165627a7a723058209a3942b13e6170b507b1e78ba51da23e93b3d413934d8be844ac6384ec16e41c0029",
  "source": "pragma solidity ^0.4.24;\n\nimport \"../interfaces/IResolver.sol\";\nimport \"../leagues/ILeague001.sol\";\n\nimport \"./BaseResolver.sol\";\n\n/**\n * @title MoneyLine Resolver\n * @dev RMoneyLine is a simple Money line contract\n */\ncontract RMoneyLine2 is IResolver, BaseResolver {\n\n  /**\n   * @notice Constructor\n   * @param _version Base version Resolver supports\n   */\n  constructor(string _version) public BaseResolver(_version) { }\n\n  /**\n   * @notice Returns the Result of a Moneyline bet\n   * @param _league Address of league\n   * @param _fixture Id of fixture\n   * @param _bWinner bet payload encoded winner participant id or 0 (for draw)\n   * @param _rScores Array of scores, matching index as fixture.participants (resolution data)\n   * @return Bet outcome compliant with IResolver Specs [1,2]\n   */\n  function resolve(address _league, uint _fixture, uint _bWinner, uint[] _rScores)\n    external\n    view\n    returns (uint)\n  {\n    var (, _participants,) = ILeague001(_league).getFixture(_fixture);\n\n    if (_bWinner == 0)\n      return _rScores[0] == _rScores[1] ? 2 : 1;\n\n    uint _i = _participants[0] == _bWinner ? 0 : 1;\n    return _rScores[_i] > _rScores[1 - _i] ? 2 : 1;\n  }\n\n  /**\n   * @notice Check if participant `_winner` is scheduled in fixture `_fixture` in league `_league`\n   * @param _league League Address to perform validation for\n   * @param _fixture Id of fixture\n   * @param _winner Id of participant from bet payload, 0 if draw\n   * @return `true` if bet payload valid, `false` otherwise\n   */\n  function validate(address _league, uint _fixture, uint _winner) external view returns (bool) {\n    return _winner == 0 || ILeague001(_league).isParticipantScheduled(_winner, _fixture);\n  }\n\n  /**\n   * @notice Gets the signature of the init function\n   * @return The init function signature compliant with ABI Specification\n   */\n  function getInitSignature() external pure returns (string) {\n    return \"resolve(address,uint256,uint256,uint256[])\";\n  }\n\n  /**\n   * @notice Gets the selector of the init function\n   * @dev Probably don't need this function as getInitSignature can be used to compute selector\n   * @return Selector for the init function\n   */\n  function getInitSelector() external pure returns (bytes4) {\n    return this.resolve.selector;\n  }\n\n  /**\n   * @notice Gets the signature of the validator function\n   * @return The validator function signature compliant with ABI Specification\n   */\n  function getValidatorSignature() external pure returns (string) {\n    return \"validate(address,uint256,uint256)\";\n  }\n\n  /**\n   * @notice Gets the selector of the validator function\n   * @dev Probably don't need this function as getValidatorSignature can be used to compute selector\n   * @return Selector for the validator function\n   */\n  function getValidatorSelector() external pure returns (bytes4) {\n    return this.validate.selector;\n  }\n\n  /**\n   * @notice Gets Resolver's description\n   * @return Description of the resolver\n   */\n  function getDescription() external view returns (string) {\n    return \"Common MoneyLine Resolver for two player leagues: Betting on who wins the fixture\";\n  }\n\n  /**\n   * @notice Gets the bet type the resolver resolves\n   * @return Type of the bet the resolver resolves\n   */\n  function getType() external view returns (string) {\n    return \"Moneyline2\";\n  }\n\n  /**\n   * @notice Gets the resolver details\n   * @return IPFS hash with resolver details\n   */\n  function getDetails() external view returns (bytes) {\n    return new bytes(0);\n  }\n\n}\n",
  "sourcePath": "/Users/ryancimoszko/fu/fansunite-js/node_modules/fansunite-core/contracts/resolvers/RMoneyLine2.sol",
  "compiler": {
    "name": "solc",
    "version": "0.4.24+commit.e67f0147.Emscripten.clang"
  },
  "schemaVersion": "2.0.1",
  "updatedAt": "2019-01-03T23:57:24.362Z"
}