{
  "contractName": "RMoneyLine2",
  "abi": [
    {
      "constant": false,
      "inputs": [],
      "name": "renounceOwnership",
      "outputs": [],
      "payable": false,
      "stateMutability": "nonpayable",
      "type": "function"
    },
    {
      "constant": true,
      "inputs": [],
      "name": "owner",
      "outputs": [
        {
          "name": "",
          "type": "address"
        }
      ],
      "payable": false,
      "stateMutability": "view",
      "type": "function"
    },
    {
      "constant": false,
      "inputs": [
        {
          "name": "_version",
          "type": "string"
        }
      ],
      "name": "supportVersion",
      "outputs": [],
      "payable": false,
      "stateMutability": "nonpayable",
      "type": "function"
    },
    {
      "constant": true,
      "inputs": [
        {
          "name": "_version",
          "type": "string"
        }
      ],
      "name": "doesSupportVersion",
      "outputs": [
        {
          "name": "",
          "type": "bool"
        }
      ],
      "payable": false,
      "stateMutability": "view",
      "type": "function"
    },
    {
      "constant": false,
      "inputs": [
        {
          "name": "_newOwner",
          "type": "address"
        }
      ],
      "name": "transferOwnership",
      "outputs": [],
      "payable": false,
      "stateMutability": "nonpayable",
      "type": "function"
    },
    {
      "inputs": [
        {
          "name": "_version",
          "type": "string"
        }
      ],
      "payable": false,
      "stateMutability": "nonpayable",
      "type": "constructor"
    },
    {
      "anonymous": false,
      "inputs": [
        {
          "indexed": false,
          "name": "_version",
          "type": "string"
        }
      ],
      "name": "LogSupportVersion",
      "type": "event"
    },
    {
      "anonymous": false,
      "inputs": [
        {
          "indexed": true,
          "name": "previousOwner",
          "type": "address"
        }
      ],
      "name": "OwnershipRenounced",
      "type": "event"
    },
    {
      "anonymous": false,
      "inputs": [
        {
          "indexed": true,
          "name": "previousOwner",
          "type": "address"
        },
        {
          "indexed": true,
          "name": "newOwner",
          "type": "address"
        }
      ],
      "name": "OwnershipTransferred",
      "type": "event"
    },
    {
      "constant": true,
      "inputs": [
        {
          "name": "_league",
          "type": "address"
        },
        {
          "name": "_fixture",
          "type": "uint256"
        },
        {
          "name": "_bWinner",
          "type": "uint256"
        },
        {
          "name": "_scores",
          "type": "uint256[]"
        }
      ],
      "name": "resolve",
      "outputs": [
        {
          "name": "",
          "type": "uint256"
        }
      ],
      "payable": false,
      "stateMutability": "view",
      "type": "function"
    },
    {
      "constant": true,
      "inputs": [
        {
          "name": "_league",
          "type": "address"
        },
        {
          "name": "_fixture",
          "type": "uint256"
        },
        {
          "name": "_winner",
          "type": "uint256"
        }
      ],
      "name": "validate",
      "outputs": [
        {
          "name": "",
          "type": "bool"
        }
      ],
      "payable": false,
      "stateMutability": "view",
      "type": "function"
    },
    {
      "constant": true,
      "inputs": [],
      "name": "getInitSignature",
      "outputs": [
        {
          "name": "",
          "type": "string"
        }
      ],
      "payable": false,
      "stateMutability": "pure",
      "type": "function"
    },
    {
      "constant": true,
      "inputs": [],
      "name": "getInitSelector",
      "outputs": [
        {
          "name": "",
          "type": "bytes4"
        }
      ],
      "payable": false,
      "stateMutability": "pure",
      "type": "function"
    },
    {
      "constant": true,
      "inputs": [],
      "name": "getValidatorSignature",
      "outputs": [
        {
          "name": "",
          "type": "string"
        }
      ],
      "payable": false,
      "stateMutability": "pure",
      "type": "function"
    },
    {
      "constant": true,
      "inputs": [],
      "name": "getValidatorSelector",
      "outputs": [
        {
          "name": "",
          "type": "bytes4"
        }
      ],
      "payable": false,
      "stateMutability": "pure",
      "type": "function"
    },
    {
      "constant": true,
      "inputs": [],
      "name": "getDescription",
      "outputs": [
        {
          "name": "",
          "type": "string"
        }
      ],
      "payable": false,
      "stateMutability": "view",
      "type": "function"
    },
    {
      "constant": true,
      "inputs": [],
      "name": "getType",
      "outputs": [
        {
          "name": "",
          "type": "string"
        }
      ],
      "payable": false,
      "stateMutability": "view",
      "type": "function"
    },
    {
      "constant": true,
      "inputs": [],
      "name": "getDetails",
      "outputs": [
        {
          "name": "",
          "type": "bytes"
        }
      ],
      "payable": false,
      "stateMutability": "view",
      "type": "function"
    }
  ],
  "bytecode": "0x608060405234801561001057600080fd5b50604051610aa7380380610aa7833981016040819052815160008054600160a060020a031916331790559091018051909182916001918291849190819060208401908083835b602083106100755780518252601f199092019160209182019101610056565b51815160209384036101000a60001901801990921691161790529201948552506040519384900301909220805460ff191693151593909317909255506109e192508291506100c690506000396000f3006080604052600436106100b65763ffffffff60e060020a60003504166315dae03e81146100bb5780631a0925411461014557806354ed633b1461015a5780635cc15597146101a4578063715018a6146101b957806382d2bccf146101d05780638da5cb5b14610217578063943e25a114610248578063986450801461025d578063c8c2b6ce1461027d578063d71fbd7f146102b1578063dae76fba146102d8578063f2fde38b146102ed578063fbbf93a01461030e575b600080fd5b3480156100c757600080fd5b506100d0610323565b6040805160208082528351818301528351919283929083019185019080838360005b8381101561010a5781810151838201526020016100f2565b50505050905090810190601f1680156101375780820380516001836020036101000a031916815260200191505b509250505060405180910390f35b34801561015157600080fd5b506100d061035a565b34801561016657600080fd5b5061016f6103b9565b604080517fffffffff000000000000000000000000000000000000000000000000000000009092168252519081900360200190f35b3480156101b057600080fd5b506100d06103dd565b3480156101c557600080fd5b506101ce61043c565b005b3480156101dc57600080fd5b5061020560048035600160a060020a0316906024803591604435916064359081019101356104a8565b60408051918252519081900360200190f35b34801561022357600080fd5b5061022c610654565b60408051600160a060020a039092168252519081900360200190f35b34801561025457600080fd5b5061016f610663565b34801561026957600080fd5b506101ce6004803560248101910135610687565b34801561028957600080fd5b5061029d60048035602481019101356107e1565b604080519115158252519081900360200190f35b3480156102bd57600080fd5b5061029d600160a060020a0360043516602435604435610814565b3480156102e457600080fd5b506100d06108a4565b3480156102f957600080fd5b506101ce600160a060020a0360043516610903565b34801561031a57600080fd5b506100d0610926565b60408051808201909152600981527f4d6f6e65796c696e650000000000000000000000000000000000000000000000602082015290565b60408051606081018252603a81527f436f6d6d6f6e204d6f6e65794c696e65205265736f6c7665723a20426574746960208201527f6e67206f6e2077686f2077696e732074686520666978747572650000000000009181019190915290565b7f82d2bccf0000000000000000000000000000000000000000000000000000000090565b60408051606081018252602a81527f7265736f6c766528616464726573732c75696e743235362c75696e743235362c60208201527f75696e743235365b5d29000000000000000000000000000000000000000000009181019190915290565b600054600160a060020a0316331461045357600080fd5b60008054604051600160a060020a03909116917ff8df31144d9c2f0f6b59d69b8b98abd5459d07f2742c4df920b25aae33c6482091a26000805473ffffffffffffffffffffffffffffffffffffffff19169055565b60006060600087600160a060020a03166354d0940d886040518263ffffffff1660e060020a02815260040180828152602001915050600060405180830381600087803b1580156104f757600080fd5b505af115801561050b573d6000803e3d6000fd5b505050506040513d6000823e601f3d908101601f19168201604052606081101561053457600080fd5b81516020830180519193928301929164010000000081111561055557600080fd5b8201602081018481111561056857600080fd5b815185602082028301116401000000008211171561058557600080fd5b50909650505088151592506105da91505057848460018181106105a457fe5b905060200201358585600081811015156105ba57fe5b90506020020135146105cd5760016105d0565b60025b60ff169250610649565b858260008151811015156105ea57fe5b9060200190602002015114610600576001610603565b60005b60ff1690508484600183900381811061061857fe5b90506020020135858583818110151561062d57fe5b9050602002013511610640576001610643565b60025b60ff1692505b505095945050505050565b600054600160a060020a031681565b7fd71fbd7f0000000000000000000000000000000000000000000000000000000090565b600054600160a060020a0316331461069e57600080fd5b60018282604051808383808284379091019485525050604051928390036020019092205460ff1615915061075b905057604080517f08c379a000000000000000000000000000000000000000000000000000000000815260206004820152602160248201527f5265736f6c76657220737570706f7274732076657273696f6e20616c7265616460448201527f7900000000000000000000000000000000000000000000000000000000000000606482015290519081900360840190fd5b6001808383604051808383808284379190910194855250506040805160209481900385018120805460ff191696151596909617909555838552928401859052507f7ef80a6e8fe7b05374e62b2d81260f00f056562254d3fa2a73e21c4b6ef07d4e9285928592508190810184848082843760405192018290039550909350505050a15050565b600060018383604051808383808284379091019485525050604051928390036020019092205460ff169250505092915050565b600081158061089c575083600160a060020a03166393ffd67083856040518363ffffffff1660e060020a0281526004018083815260200182815260200192505050602060405180830381600087803b15801561086f57600080fd5b505af1158015610883573d6000803e3d6000fd5b505050506040513d602081101561089957600080fd5b50515b949350505050565b60408051606081018252602181527f76616c696461746528616464726573732c75696e743235362c75696e7432353660208201527f29000000000000000000000000000000000000000000000000000000000000009181019190915290565b600054600160a060020a0316331461091a57600080fd5b61092381610938565b50565b60408051600081526020810190915290565b600160a060020a038116151561094d57600080fd5b60008054604051600160a060020a03808516939216917f8be0079c531659141344cd1fd0a4f28419497f9722a3daafe3b4186f6b6457e091a36000805473ffffffffffffffffffffffffffffffffffffffff1916600160a060020a03929092169190911790555600a165627a7a7230582017cdb40b5d5ab73ae1678a82c6d57436f70aeece60912d1deb572d4987ab0d320029",
  "source": "pragma solidity ^0.4.24;\n\nimport \"../interfaces/IResolver.sol\";\nimport { ILeague001 as ILeague } from \"../leagues/ILeague001.sol\";\n\nimport \"./BaseResolver.sol\";\n\n\n/**\n * @title MoneyLine Resolver\n * @dev RMoneyLine is a simple Money line contract\n */\ncontract RMoneyLine2 is IResolver, BaseResolver {\n\n  /**\n   * @notice Constructor\n   * @param _version Base version Resolver supports\n   */\n  constructor(string _version) public BaseResolver(_version) { }\n\n  /**\n   * @notice Returns the Result of a Moneyline bet\n   * @param _league Address of league\n   * @param _fixture Id of fixture\n   * @param _bWinner bet payload encoded winner participant id (backer's pick) or 0 (for draw)\n   * @param _scores Array of scores, matching index as fixture.participants (resolution data)\n   * @return `1` if backer loses and `2` if backer wins\n   */\n  function resolve(address _league, uint _fixture, uint _bWinner, uint[] _scores)\n    external\n    view\n    returns (uint)\n  {\n    var (, _participants,) = ILeague(_league).getFixture(_fixture);\n\n    if (_bWinner == 0)\n      return _scores[0] == _scores[1] ? 2 : 1;\n\n    uint _i = _participants[0] == _bWinner ? 0 : 1;\n    return _scores[_i] > _scores[1 - _i] ? 2 : 1;\n  }\n\n  /**\n   * @notice Check if participant `_winner` is scheduled in fixture `_fixture` in league `_league`\n   * @param _league League Address to perform validation for\n   * @param _fixture Id of fixture\n   * @param _winner Id of participant from bet payload\n   * @return `true` if bet payload valid, `false` otherwise\n   */\n  function validate(address _league, uint _fixture, uint _winner) external view returns (bool) {\n    return _winner == 0 || ILeague(_league).isParticipantScheduled(_winner, _fixture);\n  }\n\n  /**\n   * @notice Gets the signature of the init function\n   * @return The init function signature compliant with ABI Specification\n   */\n  function getInitSignature() external pure returns (string) {\n    return \"resolve(address,uint256,uint256,uint256[])\";\n  }\n\n  /**\n   * @notice Gets the selector of the init function\n   * @dev Probably don't need this function as getInitSignature can be used to compute selector\n   * @return Selector for the init function\n   */\n  function getInitSelector() external pure returns (bytes4) {\n    return this.resolve.selector;\n  }\n\n  /**\n   * @notice Gets the signature of the validator function\n   * @return The validator function signature compliant with ABI Specification\n   */\n  function getValidatorSignature() external pure returns (string) {\n    return \"validate(address,uint256,uint256)\";\n  }\n\n  /**\n   * @notice Gets the selector of the validator function\n   * @dev Probably don't need this function as getValidatorSignature can be used to compute selector\n   * @return Selector for the validator function\n   */\n  function getValidatorSelector() external pure returns (bytes4) {\n    return this.validate.selector;\n  }\n\n  /**\n   * @notice Gets Resolver's description\n   * @return Description of the resolver\n   */\n  function getDescription() external view returns (string) {\n    return \"Common MoneyLine Resolver: Betting on who wins the fixture\";\n  }\n\n  /**\n   * @notice Gets the bet type the resolver resolves\n   * @return Type of the bet the resolver resolves\n   */\n  function getType() external view returns (string) {\n    return \"Moneyline\";\n  }\n\n  /**\n   * @notice Gets the resolver details\n   * @return IPFS hash with resolver details\n   */\n  function getDetails() external view returns (bytes) {\n    return new bytes(0);\n  }\n\n}\n",
  "sourcePath": "/Users/ryancimoszko/fu/fansunite-js/node_modules/fansunite-core/contracts/resolvers/RMoneyLine2.sol",
  "compiler": {
    "name": "solc",
    "version": "0.4.24+commit.e67f0147.Emscripten.clang"
  },
  "schemaVersion": "2.0.1",
  "updatedAt": "2018-10-02T17:10:12.414Z"
}