{
  "contractName": "RMoneyLine2",
  "abi": [
    {
      "constant": true,
      "inputs": [
        {
          "name": "_league",
          "type": "address"
        }
      ],
      "name": "doesSupportLeague",
      "outputs": [
        {
          "name": "",
          "type": "bool"
        }
      ],
      "payable": false,
      "stateMutability": "view",
      "type": "function"
    },
    {
      "constant": false,
      "inputs": [],
      "name": "renounceOwnership",
      "outputs": [],
      "payable": false,
      "stateMutability": "nonpayable",
      "type": "function"
    },
    {
      "constant": true,
      "inputs": [],
      "name": "owner",
      "outputs": [
        {
          "name": "",
          "type": "address"
        }
      ],
      "payable": false,
      "stateMutability": "view",
      "type": "function"
    },
    {
      "constant": true,
      "inputs": [],
      "name": "isOwner",
      "outputs": [
        {
          "name": "",
          "type": "bool"
        }
      ],
      "payable": false,
      "stateMutability": "view",
      "type": "function"
    },
    {
      "constant": false,
      "inputs": [
        {
          "name": "_version",
          "type": "string"
        }
      ],
      "name": "supportVersion",
      "outputs": [],
      "payable": false,
      "stateMutability": "nonpayable",
      "type": "function"
    },
    {
      "constant": false,
      "inputs": [
        {
          "name": "newOwner",
          "type": "address"
        }
      ],
      "name": "transferOwnership",
      "outputs": [],
      "payable": false,
      "stateMutability": "nonpayable",
      "type": "function"
    },
    {
      "inputs": [
        {
          "name": "_version",
          "type": "string"
        }
      ],
      "payable": false,
      "stateMutability": "nonpayable",
      "type": "constructor"
    },
    {
      "anonymous": false,
      "inputs": [
        {
          "indexed": false,
          "name": "_version",
          "type": "string"
        }
      ],
      "name": "LogSupportVersion",
      "type": "event"
    },
    {
      "anonymous": false,
      "inputs": [
        {
          "indexed": true,
          "name": "previousOwner",
          "type": "address"
        }
      ],
      "name": "OwnershipRenounced",
      "type": "event"
    },
    {
      "anonymous": false,
      "inputs": [
        {
          "indexed": true,
          "name": "previousOwner",
          "type": "address"
        },
        {
          "indexed": true,
          "name": "newOwner",
          "type": "address"
        }
      ],
      "name": "OwnershipTransferred",
      "type": "event"
    },
    {
      "constant": true,
      "inputs": [
        {
          "name": "_league",
          "type": "address"
        },
        {
          "name": "_fixture",
          "type": "uint256"
        },
        {
          "name": "_bWinner",
          "type": "uint256"
        },
        {
          "name": "_rScores",
          "type": "uint256[2]"
        }
      ],
      "name": "resolve",
      "outputs": [
        {
          "name": "",
          "type": "uint256"
        }
      ],
      "payable": false,
      "stateMutability": "view",
      "type": "function"
    },
    {
      "constant": true,
      "inputs": [
        {
          "name": "_league",
          "type": "address"
        },
        {
          "name": "_fixture",
          "type": "uint256"
        },
        {
          "name": "_winner",
          "type": "uint256"
        }
      ],
      "name": "validate",
      "outputs": [
        {
          "name": "",
          "type": "bool"
        }
      ],
      "payable": false,
      "stateMutability": "view",
      "type": "function"
    },
    {
      "constant": true,
      "inputs": [
        {
          "name": "",
          "type": "address"
        },
        {
          "name": "",
          "type": "uint256"
        },
        {
          "name": "",
          "type": "uint256"
        }
      ],
      "name": "segment",
      "outputs": [
        {
          "name": "",
          "type": "bytes32"
        }
      ],
      "payable": false,
      "stateMutability": "view",
      "type": "function"
    },
    {
      "constant": true,
      "inputs": [],
      "name": "getInitSelector",
      "outputs": [
        {
          "name": "",
          "type": "bytes4"
        }
      ],
      "payable": false,
      "stateMutability": "pure",
      "type": "function"
    },
    {
      "constant": true,
      "inputs": [],
      "name": "getValidatorSelector",
      "outputs": [
        {
          "name": "",
          "type": "bytes4"
        }
      ],
      "payable": false,
      "stateMutability": "pure",
      "type": "function"
    },
    {
      "constant": true,
      "inputs": [],
      "name": "getSegmentSelector",
      "outputs": [
        {
          "name": "",
          "type": "bytes4"
        }
      ],
      "payable": false,
      "stateMutability": "pure",
      "type": "function"
    },
    {
      "constant": true,
      "inputs": [],
      "name": "getDescription",
      "outputs": [
        {
          "name": "",
          "type": "string"
        }
      ],
      "payable": false,
      "stateMutability": "view",
      "type": "function"
    },
    {
      "constant": true,
      "inputs": [],
      "name": "getType",
      "outputs": [
        {
          "name": "",
          "type": "string"
        }
      ],
      "payable": false,
      "stateMutability": "view",
      "type": "function"
    },
    {
      "constant": true,
      "inputs": [],
      "name": "getDetails",
      "outputs": [
        {
          "name": "",
          "type": "bytes"
        }
      ],
      "payable": false,
      "stateMutability": "view",
      "type": "function"
    }
  ],
  "bytecode": "0x608060405234801561001057600080fd5b50604051610b43380380610b43833981016040819052815160008054600160a060020a031916331790559091018051909182916001918291849190819060208401908083835b602083106100755780518252601f199092019160209182019101610056565b51815160209384036101000a60001901801990921691161790529201948552506040519384900301909220805460ff19169315159390931790925550610a7d92508291506100c690506000396000f3006080604052600436106100c15763ffffffff60e060020a60003504166315dae03e81146100c65780631a0925411461015057806336cd46671461016557806354ed633b146101af5780635914dfd2146101c4578063715018a6146101f95780638da5cb5b146102105780638f32d59b14610241578063943e25a114610256578063986450801461026b578063d71fbd7f1461028b578063de84791d146102b2578063e7937993146102ed578063f2fde38b14610314578063fbbf93a014610335575b600080fd5b3480156100d257600080fd5b506100db61034a565b6040805160208082528351818301528351919283929083019185019080838360005b838110156101155781810151838201526020016100fd565b50505050905090810190601f1680156101425780820380516001836020036101000a031916815260200191505b509250505060405180910390f35b34801561015c57600080fd5b506100db610381565b34801561017157600080fd5b5061017a610406565b604080517fffffffff000000000000000000000000000000000000000000000000000000009092168252519081900360200190f35b3480156101bb57600080fd5b5061017a61042a565b3480156101d057600080fd5b506101e5600160a060020a036004351661044e565b604080519115158252519081900360200190f35b34801561020557600080fd5b5061020e610586565b005b34801561021c57600080fd5b506102256105ee565b60408051600160a060020a039092168252519081900360200190f35b34801561024d57600080fd5b506101e56105fd565b34801561026257600080fd5b5061017a61060e565b34801561027757600080fd5b5061020e6004803560248101910135610632565b34801561029757600080fd5b506101e5600160a060020a0360043516602435604435610788565b3480156102be57600080fd5b506102db600160a060020a03600435166024356044356064610818565b60408051918252519081900360200190f35b3480156102f957600080fd5b506102db600160a060020a036004351660243560443561099a565b34801561032057600080fd5b5061020e600160a060020a03600435166109a3565b34801561034157600080fd5b506100db6109c2565b60408051808201909152601a81527f4d6f6e65796c696e6532202857696e2f4c6f73652f4472617729000000000000602082015290565b60408051608081018252605281527f436f6d6d6f6e204d6f6e65794c696e65205265736f6c76657220666f7220747760208201527f6f207061727469636970616e74206c6561677565733a20426574206f6e207768918101919091527f6f2077696e732074686520666978747572650000000000000000000000000000606082015290565b7fe79379930000000000000000000000000000000000000000000000000000000090565b7fde84791d0000000000000000000000000000000000000000000000000000000090565b6000606082600160a060020a0316630d8e6e2c6040518163ffffffff1660e060020a028152600401600060405180830381600087803b15801561049057600080fd5b505af11580156104a4573d6000803e3d6000fd5b505050506040513d6000823e601f3d908101601f1916820160405260208110156104cd57600080fd5b8101908080516401000000008111156104e557600080fd5b820160208101848111156104f857600080fd5b815164010000000081118282018710171561051257600080fd5b505092919050505090506001816040518082805190602001908083835b6020831061054e5780518252601f19909201916020918201910161052f565b51815160209384036101000a600019018019909216911617905292019485525060405193849003019092205460ff1695945050505050565b61058e6105fd565b151561059957600080fd5b60008054604051600160a060020a03909116917ff8df31144d9c2f0f6b59d69b8b98abd5459d07f2742c4df920b25aae33c6482091a26000805473ffffffffffffffffffffffffffffffffffffffff19169055565b600054600160a060020a031690565b600054600160a060020a0316331490565b7fd71fbd7f0000000000000000000000000000000000000000000000000000000090565b61063a6105fd565b151561064557600080fd5b60018282604051808383808284379091019485525050604051928390036020019092205460ff16159150610702905057604080517f08c379a000000000000000000000000000000000000000000000000000000000815260206004820152602160248201527f5265736f6c76657220737570706f7274732076657273696f6e20616c7265616460448201527f7900000000000000000000000000000000000000000000000000000000000000606482015290519081900360840190fd5b6001808383604051808383808284379190910194855250506040805160209481900385018120805460ff191696151596909617909555838552928401859052507f7ef80a6e8fe7b05374e62b2d81260f00f056562254d3fa2a73e21c4b6ef07d4e9285928592508190810184848082843760405192018290039550909350505050a15050565b6000811580610810575083600160a060020a03166393ffd67083856040518363ffffffff1660e060020a0281526004018083815260200182815260200192505050602060405180830381600087803b1580156107e357600080fd5b505af11580156107f7573d6000803e3d6000fd5b505050506040513d602081101561080d57600080fd5b50515b949350505050565b60006060600086600160a060020a03166354d0940d876040518263ffffffff1660e060020a02815260040180828152602001915050600060405180830381600087803b15801561086757600080fd5b505af115801561087b573d6000803e3d6000fd5b505050506040513d6000823e601f3d908101601f1916820160405260608110156108a457600080fd5b8151602083018051919392830192916401000000008111156108c557600080fd5b820160208101848111156108d857600080fd5b81518560208202830111640100000000821117156108f557600080fd5b509096505050871515925061092791505057833560208501351461091a57600161091d565b60025b60ff169250610990565b8482600081518110151561093757fe5b906020019060200201511461094d576001610950565b60005b60ff1690508360018290036002811061096557fe5b602002013584826002811061097657fe5b60200201351161098757600161098a565b60025b60ff1692505b5050949350505050565b60019392505050565b6109ab6105fd565b15156109b657600080fd5b6109bf816109d4565b50565b60408051600081526020810190915290565b600160a060020a03811615156109e957600080fd5b60008054604051600160a060020a03808516939216917f8be0079c531659141344cd1fd0a4f28419497f9722a3daafe3b4186f6b6457e091a36000805473ffffffffffffffffffffffffffffffffffffffff1916600160a060020a03929092169190911790555600a165627a7a7230582042be392cf9786193d175577a3cfca37d347846e4e80f8ad5071996526e1216150029",
  "source": "pragma solidity ^0.4.24;\n\nimport \"../interfaces/IResolver.sol\";\nimport \"../leagues/ILeague001.sol\";\n\nimport \"./BaseResolver.sol\";\n\n/**\n * @title MoneyLine Resolver\n * @dev RMoneyLine is a simple Moneyline contract\n */\ncontract RMoneyLine2 is IResolver, BaseResolver {\n\n  /**\n   * @notice Constructor\n   * @param _version Base version Resolver supports\n   */\n  constructor(string _version) public BaseResolver(_version) { }\n\n  /**\n   * @notice Returns the result of a Moneyline bet\n   * @param _league Address of league\n   * @param _fixture Id of fixture\n   * @param _bWinner bet payload encoded winner participant id or 0 (for draw)\n   * @param _rScores Array of scores, matching index as fixture.participants (resolution data)\n   * @return Bet outcome compliant with IResolver Specs [1,2]\n   */\n  function resolve(address _league, uint _fixture, uint _bWinner, uint[2] _rScores)\n    external\n    view\n    returns (uint)\n  {\n    var (, _participants,) = ILeague001(_league).getFixture(_fixture);\n\n    if (_bWinner == 0)\n      return _rScores[0] == _rScores[1] ? 2 : 1;\n\n    uint _i = _participants[0] == _bWinner ? 0 : 1;\n    return _rScores[_i] > _rScores[1 - _i] ? 2 : 1;\n  }\n\n  /**\n   * @notice Check if participant `_winner` is scheduled in fixture `_fixture` in league `_league`\n   * @param _league League Address to perform validation for\n   * @param _fixture Id of fixture\n   * @param _winner Id of participant from bet payload, 0 if draw\n   * @return `true` if bet payload valid, `false` otherwise\n   */\n  function validate(address _league, uint _fixture, uint _winner) external view returns (bool) {\n    return _winner == 0 || ILeague001(_league).isParticipantScheduled(_winner, _fixture);\n  }\n\n\n  /**\n   * @notice Single segment bet type\n   * @return `bytes32(0x01)`\n   */\n  function segment(address, uint, uint) external view returns (bytes32) {\n    return bytes32(0x01);\n  }\n\n  /**\n   * @notice Gets the selector of the init function\n   * @return Selector for the init function\n   */\n  function getInitSelector() external pure returns (bytes4) {\n    return this.resolve.selector;\n  }\n\n  /**\n   * @notice Gets the selector of the validator function\n   * @return Selector for the validator function\n   */\n  function getValidatorSelector() external pure returns (bytes4) {\n    return this.validate.selector;\n  }\n\n  /**\n   * @notice Gets the selector of the segment function\n   * @return Selector for the validator function\n   */\n  function getSegmentSelector() external pure returns (bytes4) {\n    return this.segment.selector;\n  }\n\n  /**\n   * @notice Gets Resolver's description\n   * @return Description of the resolver\n   */\n  function getDescription() external view returns (string) {\n    return \"Common MoneyLine Resolver for two participant leagues: Bet on who wins the fixture\";\n  }\n\n  /**\n   * @notice Gets the bet type the resolver resolves\n   * @return Type of the bet the resolver resolves\n   */\n  function getType() external view returns (string) {\n    return \"Moneyline2 (Win/Lose/Draw)\";\n  }\n\n  /**\n   * @notice Gets the resolver details\n   * @return IPFS hash with resolver details\n   */\n  function getDetails() external view returns (bytes) {\n    return new bytes(0);\n  }\n\n}\n",
  "sourcePath": "/Users/ryancimoszko/fu/fansunite-js/node_modules/@fansunite/fansunite-core/contracts/resolvers/RMoneyLine2.sol",
  "compiler": {
    "name": "solc",
    "version": "0.4.24+commit.e67f0147.Emscripten.clang"
  },
  "schemaVersion": "2.0.1",
  "updatedAt": "2019-03-13T00:04:04.649Z"
}