{
  "contractName": "Vault",
  "abi": [
    {
      "constant": false,
      "inputs": [],
      "name": "renounceOwnership",
      "outputs": [],
      "payable": false,
      "stateMutability": "nonpayable",
      "type": "function"
    },
    {
      "constant": true,
      "inputs": [],
      "name": "registry",
      "outputs": [
        {
          "name": "",
          "type": "address"
        }
      ],
      "payable": false,
      "stateMutability": "view",
      "type": "function"
    },
    {
      "constant": true,
      "inputs": [],
      "name": "ETH",
      "outputs": [
        {
          "name": "",
          "type": "address"
        }
      ],
      "payable": false,
      "stateMutability": "view",
      "type": "function"
    },
    {
      "constant": true,
      "inputs": [],
      "name": "owner",
      "outputs": [
        {
          "name": "",
          "type": "address"
        }
      ],
      "payable": false,
      "stateMutability": "view",
      "type": "function"
    },
    {
      "constant": false,
      "inputs": [
        {
          "name": "_newOwner",
          "type": "address"
        }
      ],
      "name": "transferOwnership",
      "outputs": [],
      "payable": false,
      "stateMutability": "nonpayable",
      "type": "function"
    },
    {
      "inputs": [
        {
          "name": "_registry",
          "type": "address"
        }
      ],
      "payable": false,
      "stateMutability": "nonpayable",
      "type": "constructor"
    },
    {
      "anonymous": false,
      "inputs": [
        {
          "indexed": true,
          "name": "_user",
          "type": "address"
        },
        {
          "indexed": false,
          "name": "_token",
          "type": "address"
        },
        {
          "indexed": false,
          "name": "_amount",
          "type": "uint256"
        }
      ],
      "name": "LogWithdraw",
      "type": "event"
    },
    {
      "anonymous": false,
      "inputs": [
        {
          "indexed": true,
          "name": "_user",
          "type": "address"
        },
        {
          "indexed": false,
          "name": "_token",
          "type": "address"
        },
        {
          "indexed": false,
          "name": "_amount",
          "type": "uint256"
        }
      ],
      "name": "LogDeposit",
      "type": "event"
    },
    {
      "anonymous": false,
      "inputs": [
        {
          "indexed": true,
          "name": "_user",
          "type": "address"
        },
        {
          "indexed": true,
          "name": "_spender",
          "type": "address"
        }
      ],
      "name": "LogApprove",
      "type": "event"
    },
    {
      "anonymous": false,
      "inputs": [
        {
          "indexed": true,
          "name": "_spender",
          "type": "address"
        }
      ],
      "name": "LogAddSpender",
      "type": "event"
    },
    {
      "anonymous": false,
      "inputs": [
        {
          "indexed": true,
          "name": "previousOwner",
          "type": "address"
        }
      ],
      "name": "OwnershipRenounced",
      "type": "event"
    },
    {
      "anonymous": false,
      "inputs": [
        {
          "indexed": true,
          "name": "previousOwner",
          "type": "address"
        },
        {
          "indexed": true,
          "name": "newOwner",
          "type": "address"
        }
      ],
      "name": "OwnershipTransferred",
      "type": "event"
    },
    {
      "constant": false,
      "inputs": [
        {
          "name": "_token",
          "type": "address"
        },
        {
          "name": "_amount",
          "type": "uint256"
        }
      ],
      "name": "deposit",
      "outputs": [],
      "payable": true,
      "stateMutability": "payable",
      "type": "function"
    },
    {
      "constant": false,
      "inputs": [
        {
          "name": "_token",
          "type": "address"
        },
        {
          "name": "_amount",
          "type": "uint256"
        }
      ],
      "name": "withdraw",
      "outputs": [],
      "payable": false,
      "stateMutability": "nonpayable",
      "type": "function"
    },
    {
      "constant": false,
      "inputs": [
        {
          "name": "_token",
          "type": "address"
        },
        {
          "name": "_from",
          "type": "address"
        },
        {
          "name": "_to",
          "type": "address"
        },
        {
          "name": "_amount",
          "type": "uint256"
        }
      ],
      "name": "transfer",
      "outputs": [],
      "payable": false,
      "stateMutability": "nonpayable",
      "type": "function"
    },
    {
      "constant": false,
      "inputs": [
        {
          "name": "_spender",
          "type": "address"
        }
      ],
      "name": "approve",
      "outputs": [],
      "payable": false,
      "stateMutability": "nonpayable",
      "type": "function"
    },
    {
      "constant": true,
      "inputs": [
        {
          "name": "_user",
          "type": "address"
        },
        {
          "name": "_spender",
          "type": "address"
        }
      ],
      "name": "isApproved",
      "outputs": [
        {
          "name": "",
          "type": "bool"
        }
      ],
      "payable": false,
      "stateMutability": "view",
      "type": "function"
    },
    {
      "constant": false,
      "inputs": [
        {
          "name": "_spender",
          "type": "address"
        }
      ],
      "name": "addSpender",
      "outputs": [],
      "payable": false,
      "stateMutability": "nonpayable",
      "type": "function"
    },
    {
      "constant": true,
      "inputs": [
        {
          "name": "_spender",
          "type": "address"
        }
      ],
      "name": "isSpender",
      "outputs": [
        {
          "name": "",
          "type": "bool"
        }
      ],
      "payable": false,
      "stateMutability": "view",
      "type": "function"
    },
    {
      "constant": true,
      "inputs": [
        {
          "name": "_token",
          "type": "address"
        },
        {
          "name": "_user",
          "type": "address"
        }
      ],
      "name": "balanceOf",
      "outputs": [
        {
          "name": "",
          "type": "uint256"
        }
      ],
      "payable": false,
      "stateMutability": "view",
      "type": "function"
    }
  ],
  "bytecode": "0x608060405234801561001057600080fd5b50604051602080610dfe833981016040525160008054600160a060020a0319908116331790915560018054600160a060020a0390931692909116919091179055610d9f8061005f6000396000f3006080604052600436106100c45763ffffffff7c010000000000000000000000000000000000000000000000000000000060003504166347e7ef2481146100c9578063715018a6146100e25780637b103999146100f75780638322fff2146101285780638da5cb5b1461013d5780639a206ece14610152578063a389783e14610187578063daea85c5146101ae578063e7e31e7a146101cf578063f18d03cc146101f0578063f2fde38b14610220578063f3fef3a314610241578063f7888aec14610265575b600080fd5b6100e0600160a060020a036004351660243561029e565b005b3480156100ee57600080fd5b506100e0610487565b34801561010357600080fd5b5061010c6104f3565b60408051600160a060020a039092168252519081900360200190f35b34801561013457600080fd5b5061010c610502565b34801561014957600080fd5b5061010c610507565b34801561015e57600080fd5b50610173600160a060020a0360043516610516565b604080519115158252519081900360200190f35b34801561019357600080fd5b50610173600160a060020a0360043581169060243516610534565b3480156101ba57600080fd5b506100e0600160a060020a0360043516610562565b3480156101db57600080fd5b506100e0600160a060020a036004351661062d565b3480156101fc57600080fd5b506100e0600160a060020a03600435811690602435811690604435166064356107d2565b34801561022c57600080fd5b506100e0600160a060020a03600435166109f7565b34801561024d57600080fd5b506100e0600160a060020a0360043516602435610a1a565b34801561027157600080fd5b5061028c600160a060020a0360043581169060243516610ca6565b60408051918252519081900360200190f35b6000600160a060020a03831615806102b4575034155b1515610330576040805160e560020a62461bcd02815260206004820152602860248201527f416d6f756e742073656e74206d757374206265207a65726f20696620746f6b6560448201527f6e20697320455448000000000000000000000000000000000000000000000000606482015290519081900360840190fd5b5080600160a060020a03831615156103495750346103ee565b604080517f23b872dd000000000000000000000000000000000000000000000000000000008152336004820152306024820152604481018390529051600160a060020a038516916323b872dd9160648083019260209291908290030181600087803b1580156103b757600080fd5b505af11580156103cb573d6000803e3d6000fd5b505050506040513d60208110156103e157600080fd5b505115156103ee57600080fd5b600160a060020a0383166000908152600360209081526040808320338452909152902054610422908263ffffffff610cd116565b600160a060020a038416600081815260036020908152604080832033808552908352928190209490945583519283528201849052825190927f5c8d1f77b6233deba47b516a690497af4c7f1be42a768e331832cb02b3400d6b928290030190a2505050565b600054600160a060020a0316331461049e57600080fd5b60008054604051600160a060020a03909116917ff8df31144d9c2f0f6b59d69b8b98abd5459d07f2742c4df920b25aae33c6482091a26000805473ffffffffffffffffffffffffffffffffffffffff19169055565b600154600160a060020a031681565b600081565b600054600160a060020a031681565b600160a060020a031660009081526004602052604090205460ff1690565b600160a060020a03918216600090815260026020908152604080832093909416825291909152205460ff1690565b600160a060020a03811660009081526004602052604090205460ff1615156105d4576040805160e560020a62461bcd02815260206004820152601a60248201527f5370656e646572206d7573742062652072656769737465726564000000000000604482015290519081900360640190fd5b336000818152600260209081526040808320600160a060020a0386168085529252808320805460ff19166001179055519092917f18abaee7bb06ff1b52b79f6f5cf3d03c59b4155f60cbe6ba7ca5d85da599e39491a350565b600054600160a060020a0316331461064457600080fd5b600154604080517fbf40fac1000000000000000000000000000000000000000000000000000000008152602060048201819052600a60248301527f4265744d616e616765720000000000000000000000000000000000000000000060448301529151600160a060020a0380861694169263bf40fac192606480820193918290030181600087803b1580156106d757600080fd5b505af11580156106eb573d6000803e3d6000fd5b505050506040513d602081101561070157600080fd5b5051600160a060020a031614610786576040805160e560020a62461bcd028152602060048201526024808201527f5370656e646572206d75737420626520612061637469766520426574204d616e60448201527f6167657200000000000000000000000000000000000000000000000000000000606482015290519081900360840190fd5b600160a060020a038116600081815260046020526040808220805460ff19166001179055517f31b2a12299c94b5360458fb178573b441b682b961beeeca54041f51515efa50f9190a250565b3360009081526004602052604090205460ff16151561083b576040805160e560020a62461bcd02815260206004820152601f60248201527f5370656e6465722073686f756c6420616c726561647920626520616464656400604482015290519081900360640190fd5b600160a060020a0383166000908152600260209081526040808320338452909152902054839060ff168061087e57503360009081526004602052604090205460ff165b15156108d4576040805160e560020a62461bcd02815260206004820152601960248201527f55736572206d75737420617070726f7665207370656e64657200000000000000604482015290519081900360640190fd5b60008211610952576040805160e560020a62461bcd02815260206004820152602960248201527f416d6f756e7420746f207472616e73666572206d75737420626520677265617460448201527f6572207468616e20300000000000000000000000000000000000000000000000606482015290519081900360840190fd5b600160a060020a03808616600090815260036020908152604080832093881683529290522054610988908363ffffffff610ce416565b600160a060020a038681166000908152600360209081526040808320898516845290915280822093909355908516815220546109c49083610cd1565b600160a060020a039586166000908152600360209081526040808320969098168252949094529490922093909355505050565b600054600160a060020a03163314610a0e57600080fd5b610a1781610cf6565b50565b600160a060020a0382166000908152600360209081526040808320338452909152902054811115610abb576040805160e560020a62461bcd02815260206004820152602a60248201527f557365722073686f756c64206861766520656e6f75676820746f6b656e73207460448201527f6f20776974686472617700000000000000000000000000000000000000000000606482015290519081900360840190fd5b600160a060020a0382166000908152600360209081526040808320338452909152902054610aef908263ffffffff610ce416565b600160a060020a03831660008181526003602090815260408083203384529091529020919091551515610b4f57604051339082156108fc029083906000818181858888f19350505050158015610b49573d6000803e3d6000fd5b50610c5f565b604080517fa9059cbb000000000000000000000000000000000000000000000000000000008152336004820152602481018390529051600160a060020a0384169163a9059cbb9160448083019260209291908290030181600087803b158015610bb757600080fd5b505af1158015610bcb573d6000803e3d6000fd5b505050506040513d6020811015610be157600080fd5b50511515610c5f576040805160e560020a62461bcd02815260206004820152602860248201527f455243323020546f6b656e206d757374206265207472616e736665727265642060448201527f746f207661756c74000000000000000000000000000000000000000000000000606482015290519081900360840190fd5b60408051600160a060020a038416815260208101839052815133927f9207361cc2a04b9c7a06691df1eb87c6a63957ae88bf01d0d18c81e3d1272099928290030190a25050565b600160a060020a03918216600090815260036020908152604080832093909416825291909152205490565b81810182811015610cde57fe5b92915050565b600082821115610cf057fe5b50900390565b600160a060020a0381161515610d0b57600080fd5b60008054604051600160a060020a03808516939216917f8be0079c531659141344cd1fd0a4f28419497f9722a3daafe3b4186f6b6457e091a36000805473ffffffffffffffffffffffffffffffffffffffff1916600160a060020a03929092169190911790555600a165627a7a72305820396dd25a2aa07ae4fe8e29842e87df1bbf7a74a708cdda7abeeb9a0c2be0277c0029",
  "source": "pragma solidity ^0.4.24;\n\nimport \"../interfaces/IVault.sol\";\nimport \"../interfaces/IRegistry.sol\";\nimport \"openzeppelin-solidity/contracts/ownership/Ownable.sol\";\nimport \"openzeppelin-solidity/contracts/math/SafeMath.sol\";\nimport \"openzeppelin-solidity/contracts/token/ERC20/ERC20.sol\";\n\ncontract Vault is Ownable, IVault {\n\n  using SafeMath for uint;\n\n  // Address of the Registry contract\n  IRegistry public registry;\n\n  address constant public ETH = 0x0;\n\n  // Map of approved spenders for user\n  mapping (address => mapping (address => bool)) private approved; // user => sender => amount\n  // Map tokens balances for user\n  mapping (address => mapping (address => uint)) private balances; // token => user => amount\n  // Map of spenders\n  mapping (address => bool) private spenders;\n\n  // Emit when tokens are withdrawn\n  event LogWithdraw(address indexed _user, address _token, uint _amount);\n  // Emit with tokens are deposited\n  event LogDeposit(address indexed _user, address _token, uint _amount);\n  // Emit when user has approved a spender\n  event LogApprove(address indexed _user, address indexed _spender);\n  // Emith when a new spender is added\n  event LogAddSpender(address indexed _spender);\n\n  /**\n   * @dev Throw is called by any account other than the a spender (Bet Manager)\n   */\n  modifier onlySpender {\n    require(spenders[msg.sender], \"Spender should already be added\");\n    _;\n  }\n\n  /**\n   * @dev Throw is called by any account other than the a spender (Bet Manager)\n   */\n  modifier onlyApproved(address _user) {\n    require(approved[_user][msg.sender] || spenders[msg.sender], \"User must approve spender\");\n    _;\n  }\n\n  /**\n   * @notice Constructor\n   * @param _registry address of Registry contract\n   */\n  constructor (address _registry) public {\n    registry = IRegistry(_registry);\n  }\n\n  /**\n   * @notice Deposits a specific token or ETH\n   * @param _token Address of token that is being deposited\n   * @param _amount Number of tokens to deposit\n   */\n  function deposit(address _token, uint _amount) external payable {\n    require(_token == ETH || msg.value == 0, \"Amount sent must be zero if token is ETH\");\n\n    uint value = _amount;\n    if (_token == ETH) {\n      value = msg.value;\n    } else {\n      require(ERC20(_token).transferFrom(msg.sender, address(this), value));\n    }\n\n    balances[_token][msg.sender] = balances[_token][msg.sender].add(value);\n    emit LogDeposit(msg.sender, _token, value);\n  }\n\n  /**\n   * @notice Withdraws a specific token or ETH\n   * @param _token Address of token that is being withdrawn\n   * @param _amount Number of tokens to withdraw\n   */\n  function withdraw(address _token, uint _amount) external {\n    require(balances[_token][msg.sender] >= _amount, \"User should have enough tokens to withdraw\");\n\n    balances[_token][msg.sender] = balances[_token][msg.sender].sub(_amount);\n\n    if (_token == ETH) {\n      msg.sender.transfer(_amount);\n    } else {\n      require(ERC20(_token).transfer(msg.sender, _amount), \"ERC20 Token must be transferred to vault\");\n    }\n\n    emit LogWithdraw(msg.sender, _token, _amount);\n  }\n\n  /**\n   * @notice Transfers token from one address to another\n   * @param _token Address of token that is being transferred\n   * @param _from Address to which tokens are being transferred from\n   * @param _to Address to which tokens are being transferred to\n   * @param _amount Number of tokens being transferred\n   */\n  function transfer(address _token, address _from, address _to, uint _amount) external onlySpender onlyApproved(_from) {\n    require(_amount > 0, \"Amount to transfer must be greater than 0\");\n    balances[_token][_from] = balances[_token][_from].sub(_amount);\n    balances[_token][_to] = balances[_token][_to].add(_amount);\n  }\n\n  /**\n   * @notice Approves a spender to transfer balances of the sender\n   * @param _spender Address of spender that is being approved\n   */\n  function approve(address _spender) external {\n    require(spenders[_spender], \"Spender must be registered\");\n    approved[msg.sender][_spender] = true;\n    emit LogApprove(msg.sender, _spender);\n  }\n\n  /**\n   * @notice Checks if a spender has been approved by a user\n   * @param _user Address of the user\n   * @param _spender Address of the spender\n   * @return `true` if user's address is approved, otherwise `false`\n   */\n  function isApproved(address _user, address _spender) external view returns (bool) {\n    return approved[_user][_spender];\n  }\n\n  /**\n   * @notice Adds a spender\n   * @param _spender Address of spender being added\n   */\n  function addSpender(address _spender) external onlyOwner {\n    require(registry.getAddress(\"BetManager\") == _spender, \"Spender must be a active Bet Manager\");\n    spenders[_spender] = true;\n    emit LogAddSpender(_spender);\n  }\n\n  /**\n   * @notice Returns if an address has been approved as a spender\n   * @param _spender Address of the spender\n   * @return `true` if address as been registered as a spender, otherwise `false`\n   */\n  function isSpender(address _spender) external view returns (bool) {\n    return spenders[_spender];\n  }\n\n  /**\n   * @notice Returns the balance of a user for a specified token\n   * @param _token Address of the token\n   * @param _user Address of the user\n   * @return token balance for the user\n   */\n  function balanceOf(address _token, address _user) external view returns (uint) {\n    return balances[_token][_user];\n  }\n\n}\n\n",
  "sourcePath": "/Users/ryancimoszko/fu/fansunite-js/node_modules/fansunite-core/contracts/vault/Vault.sol",
  "compiler": {
    "name": "solc",
    "version": "0.4.24+commit.e67f0147.Emscripten.clang"
  },
  "schemaVersion": "2.0.1",
  "updatedAt": "2018-08-30T20:20:46.951Z"
}