{
  "contractName": "Vault",
  "abi": [
    {
      "constant": true,
      "inputs": [],
      "name": "getRegistryContract",
      "outputs": [
        {
          "name": "",
          "type": "address"
        }
      ],
      "payable": false,
      "stateMutability": "view",
      "type": "function"
    },
    {
      "constant": false,
      "inputs": [],
      "name": "renounceOwnership",
      "outputs": [],
      "payable": false,
      "stateMutability": "nonpayable",
      "type": "function"
    },
    {
      "constant": true,
      "inputs": [],
      "name": "ETH",
      "outputs": [
        {
          "name": "",
          "type": "address"
        }
      ],
      "payable": false,
      "stateMutability": "view",
      "type": "function"
    },
    {
      "constant": true,
      "inputs": [],
      "name": "owner",
      "outputs": [
        {
          "name": "",
          "type": "address"
        }
      ],
      "payable": false,
      "stateMutability": "view",
      "type": "function"
    },
    {
      "constant": true,
      "inputs": [],
      "name": "isOwner",
      "outputs": [
        {
          "name": "",
          "type": "bool"
        }
      ],
      "payable": false,
      "stateMutability": "view",
      "type": "function"
    },
    {
      "constant": false,
      "inputs": [
        {
          "name": "newOwner",
          "type": "address"
        }
      ],
      "name": "transferOwnership",
      "outputs": [],
      "payable": false,
      "stateMutability": "nonpayable",
      "type": "function"
    },
    {
      "inputs": [
        {
          "name": "_registry",
          "type": "address"
        }
      ],
      "payable": false,
      "stateMutability": "nonpayable",
      "type": "constructor"
    },
    {
      "anonymous": false,
      "inputs": [
        {
          "indexed": true,
          "name": "_spender",
          "type": "address"
        }
      ],
      "name": "LogSpenderAdded",
      "type": "event"
    },
    {
      "anonymous": false,
      "inputs": [
        {
          "indexed": true,
          "name": "_by",
          "type": "address"
        },
        {
          "indexed": false,
          "name": "_token",
          "type": "address"
        },
        {
          "indexed": false,
          "name": "_amount",
          "type": "uint256"
        }
      ],
      "name": "LogDeposited",
      "type": "event"
    },
    {
      "anonymous": false,
      "inputs": [
        {
          "indexed": true,
          "name": "_by",
          "type": "address"
        },
        {
          "indexed": false,
          "name": "_token",
          "type": "address"
        },
        {
          "indexed": false,
          "name": "_amount",
          "type": "uint256"
        }
      ],
      "name": "LogWithdrawn",
      "type": "event"
    },
    {
      "anonymous": false,
      "inputs": [
        {
          "indexed": true,
          "name": "_from",
          "type": "address"
        },
        {
          "indexed": true,
          "name": "_to",
          "type": "address"
        },
        {
          "indexed": false,
          "name": "_token",
          "type": "address"
        },
        {
          "indexed": false,
          "name": "_amount",
          "type": "uint256"
        }
      ],
      "name": "LogTransferred",
      "type": "event"
    },
    {
      "anonymous": false,
      "inputs": [
        {
          "indexed": true,
          "name": "previousOwner",
          "type": "address"
        }
      ],
      "name": "OwnershipRenounced",
      "type": "event"
    },
    {
      "anonymous": false,
      "inputs": [
        {
          "indexed": true,
          "name": "previousOwner",
          "type": "address"
        },
        {
          "indexed": true,
          "name": "newOwner",
          "type": "address"
        }
      ],
      "name": "OwnershipTransferred",
      "type": "event"
    },
    {
      "constant": false,
      "inputs": [
        {
          "name": "_token",
          "type": "address"
        },
        {
          "name": "_amount",
          "type": "uint256"
        }
      ],
      "name": "deposit",
      "outputs": [],
      "payable": true,
      "stateMutability": "payable",
      "type": "function"
    },
    {
      "constant": false,
      "inputs": [
        {
          "name": "_token",
          "type": "address"
        },
        {
          "name": "_amount",
          "type": "uint256"
        }
      ],
      "name": "withdraw",
      "outputs": [],
      "payable": false,
      "stateMutability": "nonpayable",
      "type": "function"
    },
    {
      "constant": false,
      "inputs": [
        {
          "name": "_token",
          "type": "address"
        },
        {
          "name": "_to",
          "type": "address"
        },
        {
          "name": "_amount",
          "type": "uint256"
        }
      ],
      "name": "transfer",
      "outputs": [
        {
          "name": "",
          "type": "bool"
        }
      ],
      "payable": false,
      "stateMutability": "nonpayable",
      "type": "function"
    },
    {
      "constant": false,
      "inputs": [
        {
          "name": "_token",
          "type": "address"
        },
        {
          "name": "_from",
          "type": "address"
        },
        {
          "name": "_to",
          "type": "address"
        },
        {
          "name": "_amount",
          "type": "uint256"
        }
      ],
      "name": "transferFrom",
      "outputs": [
        {
          "name": "",
          "type": "bool"
        }
      ],
      "payable": false,
      "stateMutability": "nonpayable",
      "type": "function"
    },
    {
      "constant": false,
      "inputs": [
        {
          "name": "_spender",
          "type": "address"
        }
      ],
      "name": "approve",
      "outputs": [],
      "payable": false,
      "stateMutability": "nonpayable",
      "type": "function"
    },
    {
      "constant": false,
      "inputs": [
        {
          "name": "_spender",
          "type": "address"
        }
      ],
      "name": "addSpender",
      "outputs": [],
      "payable": false,
      "stateMutability": "nonpayable",
      "type": "function"
    },
    {
      "constant": true,
      "inputs": [
        {
          "name": "_token",
          "type": "address"
        },
        {
          "name": "_user",
          "type": "address"
        }
      ],
      "name": "balanceOf",
      "outputs": [
        {
          "name": "",
          "type": "uint256"
        }
      ],
      "payable": false,
      "stateMutability": "view",
      "type": "function"
    },
    {
      "constant": true,
      "inputs": [
        {
          "name": "_user",
          "type": "address"
        },
        {
          "name": "_spender",
          "type": "address"
        }
      ],
      "name": "isApproved",
      "outputs": [
        {
          "name": "",
          "type": "bool"
        }
      ],
      "payable": false,
      "stateMutability": "view",
      "type": "function"
    },
    {
      "constant": true,
      "inputs": [
        {
          "name": "_spender",
          "type": "address"
        }
      ],
      "name": "isSpender",
      "outputs": [
        {
          "name": "",
          "type": "bool"
        }
      ],
      "payable": false,
      "stateMutability": "view",
      "type": "function"
    }
  ],
  "bytecode": "0x608060405234801561001057600080fd5b50604051602080611010833981016040525160008054600160a060020a0319908116331790915560018054600160a060020a0390931692909116919091179055610fb18061005f6000396000f3006080604052600436106100da5763ffffffff7c010000000000000000000000000000000000000000000000000000000060003504166315dacbea81146100df57806336ca3d731461012357806347e7ef2414610154578063715018a61461016d5780638322fff2146101825780638da5cb5b146101975780638f32d59b146101ac5780639a206ece146101c1578063a389783e146101e2578063beabacc814610209578063daea85c514610233578063e7e31e7a14610254578063f2fde38b14610275578063f3fef3a314610296578063f7888aec146102ba575b600080fd5b3480156100eb57600080fd5b5061010f600160a060020a03600435811690602435811690604435166064356102f3565b604080519115158252519081900360200190f35b34801561012f57600080fd5b50610138610576565b60408051600160a060020a039092168252519081900360200190f35b61016b600160a060020a0360043516602435610585565b005b34801561017957600080fd5b5061016b610831565b34801561018e57600080fd5b50610138610899565b3480156101a357600080fd5b5061013861089e565b3480156101b857600080fd5b5061010f6108ad565b3480156101cd57600080fd5b5061010f600160a060020a03600435166108be565b3480156101ee57600080fd5b5061010f600160a060020a03600435811690602435166108dc565b34801561021557600080fd5b5061010f600160a060020a036004358116906024351660443561090a565b34801561023f57600080fd5b5061016b600160a060020a0360043516610ae9565b34801561026057600080fd5b5061016b600160a060020a0360043516610bb2565b34801561028157600080fd5b5061016b600160a060020a0360043516610c71565b3480156102a257600080fd5b5061016b600160a060020a0360043516602435610c90565b3480156102c657600080fd5b506102e1600160a060020a0360043581169060243516610ead565b60408051918252519081900360200190f35b600160a060020a0383166000908152600260209081526040808320338452909152812054849060ff161515610398576040805160e560020a62461bcd02815260206004820152602360248201527f55736572206d75737420617070726f76652073656e646572206173207370656e60448201527f6465720000000000000000000000000000000000000000000000000000000000606482015290519081900360840190fd5b600083116103f0576040805160e560020a62461bcd02815260206004820181905260248201527f416d6f756e74206d7573742062652067726561746572207468616e207a65726f604482015290519081900360640190fd5b600160a060020a03808716600090815260036020908152604080832093891683529290522054831115610493576040805160e560020a62461bcd02815260206004820152602360248201527f42616c616e6365206d7573742062652067726561746572207468616e20616d6f60448201527f756e740000000000000000000000000000000000000000000000000000000000606482015290519081900360840190fd5b600160a060020a038087166000908152600360209081526040808320938916835292905220546104c9908463ffffffff610ed816565b600160a060020a0387811660009081526003602090815260408083208a8516845290915280822093909355908616815220546105059084610eef565b600160a060020a0380881660008181526003602090815260408083208a8616845282529182902094909455805191825292810186905282513393928916927e8472deb52e6e960fac617ee45197d67cb353eb7ab25b3a3ca886c1e4ff0288928290030190a350600195945050505050565b600154600160a060020a031690565b6000600160a060020a038316156105a957341580156105a45750600082115b6105b7565b6000341180156105b7575081155b1515610659576040805160e560020a62461bcd02815260206004820152605460248201527f4966206465706f736974696e672065746865722c2065746865722073656e742060448201527f6d757374206265206e6f6e2d7a65726f2c206f7468657277697365205f616d6f60648201527f756e74206d757374206265206e6f6e2d7a65726f000000000000000000000000608482015290519081900360a40190fd5b600160a060020a0383161561066e5781610670565b345b600160a060020a03841660009081526003602090815260408083203384529091529020549091506106a7908263ffffffff610eef16565b600160a060020a0384166000818152600360209081526040808320338452909152902091909155156107e957604080517f23b872dd000000000000000000000000000000000000000000000000000000008152336004820152306024820152604481018390529051600160a060020a038516916323b872dd9160648083019260209291908290030181600087803b15801561074157600080fd5b505af1158015610755573d6000803e3d6000fd5b505050506040513d602081101561076b57600080fd5b505115156107e9576040805160e560020a62461bcd02815260206004820152603760248201527f5661756c74206d75737420626520616e20617070726f766564207370656e646560448201527f7220666f7220746f6b656e20746f207769746864726177000000000000000000606482015290519081900360840190fd5b60408051600160a060020a038516815260208101839052815133927f1c3ecb8c4e39fe587efca5afa2c726ed3ea8a2c163ee74f9de1b3b25233bdc7a928290030190a2505050565b6108396108ad565b151561084457600080fd5b60008054604051600160a060020a03909116917ff8df31144d9c2f0f6b59d69b8b98abd5459d07f2742c4df920b25aae33c6482091a26000805473ffffffffffffffffffffffffffffffffffffffff19169055565b600081565b600054600160a060020a031690565b600054600160a060020a0316331490565b600160a060020a031660009081526004602052604090205460ff1690565b600160a060020a03918216600090815260026020908152604080832093909416825291909152205460ff1690565b600080808311610964576040805160e560020a62461bcd02815260206004820181905260248201527f416d6f756e74206d7573742062652067726561746572207468616e207a65726f604482015290519081900360640190fd5b600160a060020a0385166000908152600360209081526040808320338452909152902054831115610a05576040805160e560020a62461bcd02815260206004820152602360248201527f42616c616e6365206d7573742062652067726561746572207468616e20616d6f60448201527f756e740000000000000000000000000000000000000000000000000000000000606482015290519081900360840190fd5b50600160a060020a038416600090815260036020908152604080832033808552925290912054610a3b908463ffffffff610ed816565b600160a060020a03868116600090815260036020908152604080832086851684529091528082209390935590861681522054610a779084610eef565b600160a060020a038087166000818152600360209081526040808320948a16808452948252918290209490945580519182529281018690528251919233927e8472deb52e6e960fac617ee45197d67cb353eb7ab25b3a3ca886c1e4ff02889281900390910190a3506001949350505050565b600160a060020a03811660009081526004602052604090205460ff161515610b81576040805160e560020a62461bcd02815260206004820152602560248201527f5370656e646572206d757374206265207265676973746572656420776974682060448201527f5661756c74000000000000000000000000000000000000000000000000000000606482015290519081900360840190fd5b336000908152600260209081526040808320600160a060020a0394909416835292905220805460ff19166001179055565b610bba6108ad565b1515610bc557600080fd5b600160a060020a0381161515610c25576040805160e560020a62461bcd02815260206004820181905260248201527f5370656e646572206d757374206265206e6f6e2d7a65726f2061646472657373604482015290519081900360640190fd5b600160a060020a038116600081815260046020526040808220805460ff19166001179055517f3e9e267e2e5acc9ced8daa824bf7d331d04a10f26414f3ecddbe10786dc647a29190a250565b610c796108ad565b1515610c8457600080fd5b610c8d81610f08565b50565b60008111610ce8576040805160e560020a62461bcd02815260206004820181905260248201527f416d6f756e74206d7573742062652067726561746572207468616e207a65726f604482015290519081900360640190fd5b600160a060020a0382166000908152600360209081526040808320338452909152902054610d1c908263ffffffff610ed816565b600160a060020a03831660008181526003602090815260408083203384529091529020919091551515610d7c57604051339082156108fc029083906000818181858888f19350505050158015610d76573d6000803e3d6000fd5b50610e66565b604080517fa9059cbb000000000000000000000000000000000000000000000000000000008152336004820152602481018390529051600160a060020a0384169163a9059cbb9160448083019260209291908290030181600087803b158015610de457600080fd5b505af1158015610df8573d6000803e3d6000fd5b505050506040513d6020811015610e0e57600080fd5b50511515610e66576040805160e560020a62461bcd02815260206004820152601d60248201527f5661756c742063616e6e6f74207472616e736665722062616c616e6365000000604482015290519081900360640190fd5b60408051600160a060020a038416815260208101839052815133927fdf29692380406a3e2244e9f8d6ac313468347eb3f3fe09bbb01158a2caaa806a928290030190a25050565b600160a060020a03918216600090815260036020908152604080832093909416825291909152205490565b60008083831115610ee857600080fd5b5050900390565b600082820183811015610f0157600080fd5b9392505050565b600160a060020a0381161515610f1d57600080fd5b60008054604051600160a060020a03808516939216917f8be0079c531659141344cd1fd0a4f28419497f9722a3daafe3b4186f6b6457e091a36000805473ffffffffffffffffffffffffffffffffffffffff1916600160a060020a03929092169190911790555600a165627a7a72305820b2f4554284754ea5d2575ff8de93781f69e31d06335ac62190f61fe1dd8d01610029",
  "source": "pragma solidity 0.4.24;\n\nimport \"openzeppelin-solidity/contracts/ownership/Ownable.sol\";\nimport \"openzeppelin-solidity/contracts/math/SafeMath.sol\";\nimport \"openzeppelin-solidity/contracts/token/ERC20/ERC20.sol\";\n\nimport \"../interfaces/IVault.sol\";\n\nimport \"../utils/RegistryAccessible.sol\";\n\n\n/*\n * @title Vault Contract\n * @dev Vault contract manages all deposits, withdrawals and transfers\n */\ncontract Vault is Ownable, IVault, RegistryAccessible {\n\n  using SafeMath for uint;\n\n  address constant public ETH = 0x0;\n\n  // TODO Manan => Safer to set allowance limits\n  // Mapping of approved spenders by user\n  mapping (address => mapping (address => bool)) private approved; // user => sender => bool\n  // Mapping of tokens balances by token address, by user\n  mapping (address => mapping (address => uint)) private balances; // token => user => amount\n  // Addresses correspond to `true` if registered spenders, `false` otherwise\n  mapping (address => bool) private spenders;\n\n  // Emit when a new spender is added\n  event LogSpenderAdded(address indexed _spender);\n  // Emit when any ERC20 / Ether is deposited\n  event LogDeposited(address indexed _by, address _token, uint _amount);\n  // Emit when any ERC20 / Ether is withdrawn\n  event LogWithdrawn(address indexed _by, address _token, uint _amount);\n  // Emit when ERC20 / Ether is transferred\n  event LogTransferred(address indexed _from, address indexed _to, address _token, uint _amount);\n\n\n\n  /**\n   * @notice Constructor\n   * @param _registry Address of the Registry contract\n   */\n  constructor(address _registry) public RegistryAccessible(_registry) {\n\n  }\n\n  /**\n   * @dev Throw is called by any account other than approved spenders for _user\n   */\n  modifier onlyApproved(address _user) {\n    require(approved[_user][msg.sender], \"User must approve sender as spender\");\n    _;\n  }\n\n  /**\n   * @notice Deposits a specific token or ETH\n   * @param _token Address of token that is being deposited\n   * @param _amount Number of tokens to deposit\n   */\n  function deposit(address _token, uint _amount) external payable {\n    require(\n      _token == ETH ? msg.value > 0 && _amount == 0 : msg.value == 0 && _amount > 0,\n      \"If depositing ether, ether sent must be non-zero, otherwise _amount must be non-zero\"\n    );\n\n    uint _value = _token == ETH ? msg.value : _amount;\n    balances[_token][msg.sender] = balances[_token][msg.sender].add(_value);\n    if (_token != ETH)\n      require(\n        ERC20(_token).transferFrom(msg.sender, address(this), _value),\n        \"Vault must be an approved spender for token to withdraw\"\n      );\n\n    emit LogDeposited(msg.sender, _token, _value);\n  }\n\n  /**\n   * @notice Withdraws a specific token or ETH\n   * @param _token Address of token that is being withdrawn\n   * @param _amount Number of tokens to withdraw\n   */\n  function withdraw(address _token, uint _amount) external {\n    require(_amount > 0, \"Amount must be greater than zero\");\n\n    balances[_token][msg.sender] = balances[_token][msg.sender].sub(_amount);\n    if (_token == ETH)\n      msg.sender.transfer(_amount);\n    else\n      require(ERC20(_token).transfer(msg.sender, _amount), \"Vault cannot transfer balance\");\n\n    emit LogWithdrawn(msg.sender, _token, _amount);\n  }\n\n  /**\n   * @notice Transfers token from sender to `_to`\n   * @param _token Address of token that is being transferred\n   * @param _to Address to which tokens are being transferred to\n   * @param _amount Number of tokens being transferred\n   * @return `true` if transfer successful, `false` otherwise\n   */\n  function transfer(address _token, address _to, uint _amount) external returns (bool) {\n    require(_amount > 0, \"Amount must be greater than zero\");\n    require(balances[_token][msg.sender] >= _amount, \"Balance must be greater than amount\");\n\n    address _from = msg.sender;\n    balances[_token][_from] = balances[_token][_from].sub(_amount);\n    balances[_token][_to] = balances[_token][_to].add(_amount);\n\n    emit LogTransferred(msg.sender, _to, _token, _amount);\n\n    return true;\n  }\n\n  /**\n   * @notice Transfers token from one address to another\n   * @param _token Address of token that is being transferred\n   * @param _from Address to which tokens are being transferred from\n   * @param _to Address to which tokens are being transferred to\n   * @param _amount Number of tokens being transferred\n   */\n  function transferFrom(address _token, address _from, address _to, uint _amount)\n    external\n    onlyApproved(_from)\n    returns (bool)\n  {\n    require(_amount > 0, \"Amount must be greater than zero\");\n    require(balances[_token][_from] >= _amount, \"Balance must be greater than amount\");\n\n    balances[_token][_from] = balances[_token][_from].sub(_amount);\n    balances[_token][_to] = balances[_token][_to].add(_amount);\n\n    emit LogTransferred(_from, msg.sender, _token, _amount);\n\n    return true;\n  }\n\n  /**\n   * @notice Approves a spender to transfer balances of the sender\n   * @param _spender Address of spender that is being approved\n   */\n  function approve(address _spender) external {\n    require(spenders[_spender], \"Spender must be registered with Vault\");\n    approved[msg.sender][_spender] = true;\n  }\n\n  /**\n   * @notice Adds a spender\n   * @param _spender Address of spender being added\n   */\n  function addSpender(address _spender) external onlyOwner {\n    require(_spender != address(0), \"Spender must be non-zero address\");\n    spenders[_spender] = true;\n    emit LogSpenderAdded(_spender);\n  }\n\n  /**\n   * @notice Returns the balance of a user for a specified token\n   * @param _token Address of the token\n   * @param _user Address of the user\n   * @return token balance for the user\n   */\n  function balanceOf(address _token, address _user) external view returns (uint) {\n    return balances[_token][_user];\n  }\n\n  /**\n   * @notice Checks if a spender has been approved by a user\n   * @param _user Address of the user\n   * @param _spender Address of the spender\n   * @return `true` if user's address is approved, otherwise `false`\n   */\n  function isApproved(address _user, address _spender) external view returns (bool) {\n    return approved[_user][_spender];\n  }\n\n\n  /**\n   * @notice Returns if an address has been approved as a spender\n   * @param _spender Address of the spender\n   * @return `true` if address as been registered as a spender, otherwise `false`\n   */\n  function isSpender(address _spender) external view returns (bool) {\n    return spenders[_spender];\n  }\n\n}\n",
  "sourcePath": "/Users/ryancimoszko/fu/fansunite-js/node_modules/@fansunite/fansunite-core/contracts/vault/Vault.sol",
  "compiler": {
    "name": "solc",
    "version": "0.4.24+commit.e67f0147.Emscripten.clang"
  },
  "schemaVersion": "2.0.1",
  "updatedAt": "2019-08-26T22:14:58.633Z"
}